:020000040800F2
:100000001883002045010008592000083F1F000800
:100010005520000859080008253E0008000000008F
:10002000000000000000000000000000152900088A
:10003000751300080000000001210008552A00087F
:100040006D3E0008E5200008BD2A00085F01000899
:10005000E9180008112600085F0100085F01000888
:100060005D1800087D1800089D1800085F01000851
:10007000E50E00080D0F0008350F00085F010008AD
:100080005F010008750F00085F0100085F010008AC
:10009000E53D00085D0800087D080008BD1800085F
:1000A000DD2A0008412B00081D2B0008FD2A00084E
:1000B0005F0100085F010008612B0008651F000850
:1000C000451F0008A51F0008851F0008C12800085B
:1000D000DD280008C53A0008B13B00085F010008B0
:1000E00039180008D5260008D93D0008B52B0008AE
:1000F000192C0008F52B0008D52B0008F506000880
:10010000CD1A00085F0100087D2B0008F9280008BF
:1001100099380008ED3800085F010008992B0008A5
:100120009D0F0008C50F0008ED0F00085F010008D3
:10013000DFF80CD000F0A4FA00480047214800087E
:10014000188300200648804706480047FEE7FEE780
:10015000FEE7FEE7FEE7FEE7FEE7FEE7FEE7FEE777
:100160005D2A0008310100082DE9FE4F804681EA32
:100170000300C00F0C46009021F0004123F0004521
:10018000B8EB0200A94105D24046214690461C46E4
:100190000B46024623F00040104304D1404621465E
:1001A00003B0BDE8F08F270DC7F30A00C3F30A516F
:1001B0000290401A0190402866DAC3F3130040F41D
:1001C000801B0098924620B10023D2EB030A63EB18
:1001D0000B0B01985946C0F14002504600F093F9CC
:1001E00006460D4650465946019A00F0ABF910EB11
:1001F00008006141002487EA115284EAE7731A4338
:100200003BD0009A3AB3019A012A4FEA075210DC18
:10021000001B61EB02014FF0004202EA0752CDE9F8
:100220000042001C41F5801132462B4600F0A9F92E
:10023000B6E7001B61EB0201001C41F580130018BA
:100240005B412018A2F5001747EB030140EAD57087
:10025000B6196D4111E06D084FEA360645EAC075E2
:100260004FEA0752001B61EB0201001C41F58011AF
:1002700049084FEA30000019514132462B4603B07D
:10028000BDE8F04F00F070B9009801224000002353
:10029000D0EB020263EBE073009821464FEAE07472
:1002A000B8EB000061EB0401E9E783F000435BE792
:1002B00081F0004158E72DE9FE4F81EA030404F084
:1002C000004421F0004100944FF0000B23F0004364
:1002D00050EA010402D052EA030404D1002001468E
:1002E00003B0BDE8F08FC3F30A54C1F30A552C44A0
:1002F000A4F2F3340194A0FB0254C1F3130141F4BE
:100300008011C3F3130343F4801301FB024400FB89
:10031000034E840A970A44EA815447EA8357A4FBB0
:10032000076802958D0A05FB07854FEA932C04FBAD
:100330000C542705029D4FEA065847EA1637B5EBDD
:1003400008056EEB070C870E920E47EA811742EA0A
:100350008312A7FB0201B6EB0B0164EB00042B0D2B
:1003600043EA0C335E1844EB1C50DA465146E7FB77
:100370000201C5F313044FEA0B3343EA14534FEA67
:100380000432019C43EA0603A4F10C040294009C8D
:10039000CDE900B400F0F5F8A2E72DE9F04D81EACF
:1003A000030404F0004B21F0004514464FF0000A0E
:1003B00023F0004150EA050220D054EA01021DD08A
:1003C000C5F30A570246C5F31303C1F31300C1F383
:1003D0000A5640F4801543F48013A7EB0608101B5F
:1003E000D64608F2FD3873EB050002D308F1010888
:1003F00001E092185B41B8F1000F03DA00200146DA
:10040000BDE8F08D00204FF48011064684460EE0D2
:10041000171B73EB050705D3121B63EB050306439C
:100420004CEA010C49084FEA300092185B4150EA4F
:100430000107EDD152EA030012D082EA040083EAF8
:100440000501084303D100224FF0004308E0101BD0
:10045000AB4102D20122002302E06FF001025310EF
:100460001AEB06004CEB085110EB0A0041EB0B01B4
:10047000BDE8F04D00F078B830B50B4601460020DD
:100480002022012409E021FA02F59D4205D303FA56
:1004900002F5491B04FA02F52844151EA2F10102D7
:1004A000F1DC30BD2DE9F05F0546002092469B4609
:1004B00088460646814640241BE02846414647467A
:1004C000224600F02FF853465A46C01A914110D3E5
:1004D00011461846224600F016F82D1A67EB01085F
:1004E0004F4622460120002100F00DF817EB0009CD
:1004F0004E41201EA4F10104DFDC484631462A4665
:100500004346BDE8F09F202A04DB203A00FA02F1BE
:10051000002070479140C2F1200320FA03F31943F1
:1005200090407047202A04DB203A21FA02F0002193
:10053000704721FA02F3D040C2F1200291400843F3
:1005400019467047202A06DBCB17203A41FA02F001
:1005500043EAE07306E041FA02F3D040C2F1200220
:10056000914008431946704710B5002B08DA401C2B
:1005700041F1000192185B411A4301D120F00100C2
:1005800010BD2DE9F04D92469B4611B1B1FA81F2B2
:1005900002E0B0FA80F220329046FFF7B4FF044642
:1005A0000F4640EA0A0041EA0B0153465A46084307
:1005B00003D120463946BDE8F08D114653EA0100CB
:1005C00015D0C8F140025046FFF7ACFF05460E4675
:1005D000504659464246FFF796FF084301D0012096
:1005E00000E00020054346EAE0762C4337430A98B2
:1005F0004FEA4453A0EB08004FEAD4240A304FF0EE
:10060000000244EA47544FEAD72502D500200146AC
:10061000D1E7010510196941DDE908450019694173
:10062000BDE8F04DA0E7C1F30A52C1F3130140F257
:10063000FF3341F480119A4202DA002001467047EC
:1006400040F233439A42A2F2334202DC5242FFF7B5
:1006500069BFFFF758BF000030B5002904DB4FF039
:100660000044404264EB0101002B04DB4FF00044E6
:10067000524264EB0303994208BF904230BD000030
:10068000064C074D06E0E06840F0010394E80700DF
:1006900098471034AC42F6D3FFF74EFDA84A000845
:1006A000C84A000882B02DE9FF1FEFF3038001B4B0
:1006B000684600F1400000E901400C480168C1F8BB
:1006C00000D00B48D0F800D001BC80F30388BDE80F
:1006D000FF1F01B000BD0648D0F800D001BC80F378
:1006E0000388BDE8FF1F01B000BD000048000020E6
:1006F0004400002010B5032101A000F073FD10BDDF
:10070000414443335F49525148616E646C657200E5
:10071000032806D0042816D0052826D0062848D15C
:1007200035E02549096811F4803F00D1704722491E
:10073000098811F4004F00D1F8E700211F4A5170D9
:100740000C21117035E01C49096811F4803F00D17B
:10075000ECE71949098811F4004F00D1E6E70021C0
:10076000164A11700C21517023E01349096811F4E5
:10077000803F00D1DAE71049098811F4004F00D01A
:10078000D4E700210D4AD1700C21917011E00A4983
:10079000096811F4803F00D1C8E70749098811F4BE
:1007A000004F00D0C2E70021044A91700C21D170A3
:1007B00000BF00BF00BFB9E7F87E0020087F00201F
:1007C00026E0642002F0F8FC00241BE01148005DE4
:1007D00020B11048005D401E0E4908550D48005DCF
:1007E00038B90D4800690121A14088430A490861D0
:1007F00006E0094800690121A14008430649086153
:10080000601CC4B20E2CE1DB0349086900F04CFB0C
:10081000D7E70000087F0020B47E002006E04FF4F8
:100820007A7100BF0A00A1F10101FBD10200A0F121
:100830000100F4D17047F0B5034600201C460D4678
:10084000104603E014F8016B05F8016B1600A2F1E5
:100850000107BAB2F6D1F0BD00BFFEE710B5032123
:1008600001A000F0BFFC10BD43414E315F52583132
:100870005F49525148616E646C65720010B5032186
:1008800001A000F0AFFC10BD43414E315F53434522
:100890005F49525148616E646C657200B1F5007F2A
:1008A0003AD00FDC202928D006DC01291CD00429ED
:1008B0001DD0082940D11DE0402921D0B1F5807F0D
:1008C0003AD126E0B1F5004F31D006DCB1F5806FAA
:1008D00025D0B1F5006F2FD124E0B1F5803F12D0C3
:1008E000B1F5003F28D111E0154A826025E00822C9
:1008F000C26022E01022C2601FE0082202611CE0F8
:100900001022026119E00822426016E010224260C3
:1009100013E00422426010E0042242600DE0042251
:1009200042600AE0002282610422426005E0002267
:1009300082610422426000E000BF00BF70470000F7
:100940000101010070B504460D4600266069284289
:1009500071D0B5F5807F5CD010DC082D35D006DC79
:10096000012D20D0022D24D0042D72D127E0102D8E
:1009700031D0202D35D0402D6BD138E0B5F5004F6A
:1009800060D009DCB5F5007F49D0B5F5806F4CD05B
:10099000B5F5006F5DD14FE0B5F5803F2DD0B5F5D1
:1009A000003F56D12FE0A0682D4900F089FA064695
:1009B00051E0E068032100F083FA06464BE0E0686E
:1009C000082100F07DFA064645E0E068102100F0BD
:1009D00077FA06463FE02069032100F071FA0646E7
:1009E00039E02069082100F06BFA064633E02069FF
:1009F000102100F065FA06462DE06068082100F03D
:100A00005FFA064627E06068102100F059FA0646B2
:100A100021E0A069012100F053FA06461BE0A0691D
:100A2000022100F04DFA064615E0A069042100F00D
:100A300047FA06460FE00FE0A069702100F040FA87
:100A4000064608E06068042100F03AFA064602E033
:100A5000FFE7002600BF00E00026304670BD000022
:100A60000101010010B500F5D87303EB01131B68F9
:100A700003F004031372137A53B900F5D87303EB30
:100A800001131B6840F2FF7404EA5353136009E03A
:100A900000F5D87303EB01131B686FF0604404EAA0
:100AA000D303536000F5D87303EB01131B6803F005
:100AB0000203537200F5D87303EB01135B6803F074
:100AC0000F03937200F5D87303EB01135B681B0AE5
:100AD000D37400F5D87303EB01139B68D37200F550
:100AE000D87303EB01139B681C0A147300F5D873C9
:100AF00003EB01139B681C0C547300F5D87303EBD4
:100B000001139B681B0E937300F5D87303EB01135D
:100B1000DB68D37300F5D87303EB0113DB681C0AA1
:100B2000147400F5D87303EB0113DB681C0C5474C8
:100B300000F5D87303EB0113DB681B0E937421B926
:100B4000C36843F02003C36003E0036943F020035C
:100B5000036110BD70B50446002529466D1C0120B7
:100B60008840204204D04021CB4801F04FF903E0F7
:100B70004021C94801F048F92846691CCDB201213D
:100B800001FA00F0204204D08021C34801F03EF970
:100B900003E08021C04801F037F92846691CCDB236
:100BA000012101FA00F0204204D00902BA4801F004
:100BB0002DF904E04FF48071B74801F025F928467B
:100BC000691CCDB2012101FA00F0204204D0490293
:100BD000B14801F01BF904E04FF40071AE4801F098
:100BE00013F92846691CCDB2012101FA00F0204218
:100BF00004D00902A94801F009F904E04FF480711A
:100C0000A64801F001F92846691CCDB2012101FA7C
:100C100000F0204204D0C903A04801F0F7F804E036
:100C20004FF400419D4801F0EFF82846691CCDB211
:100C3000012101FA00F0204204D08902964801F017
:100C4000E5F804E04FF48061934801F0DDF82846B0
:100C5000691CCDB2012101FA00F0204204D0C90282
:100C60008D4801F0D3F804E04FF400618A4801F0A8
:100C7000CBF82846691CCDB2012101FA00F02042D0
:100C800004D00903844801F0C1F804E04FF4805116
:100C9000814801F0B9F82846691CCDB2012101FA5A
:100CA00000F0204203D07E4801F0B0F803E00121BB
:100CB0007B4801F0A9F82846691CCDB2012101FA50
:100CC00000F0204204D00221754801F09FF803E0B3
:100CD0000221734801F098F82846691CCDB2012121
:100CE00001FA00F0204204D004216D4801F08EF892
:100CF00003E004216A4801F087F82846691CCDB258
:100D0000012101FA00F0204204D00821644801F0DA
:100D10007DF803E00821624801F076F82846691C56
:100D2000CDB2012101FA00F0204204D010215C482C
:100D300001F06CF803E01021594801F065F82846ED
:100D4000691CCDB2012101FA00F0204204D020211B
:100D5000534801F05BF803E02021514801F054F8BA
:100D60002846691CCDB2012101FA00F0204204D0CE
:100D700040214B4801F04AF803E04021484801F087
:100D800043F82846691CCDB2012101FA00F0204247
:100D900004D08021424801F039F803E08021404826
:100DA00001F032F82846691CCDB2012101FA00F0A9
:100DB000204204D008213B4801F028F803E0082134
:100DC000384801F021F82846691CCDB2012101FA0A
:100DD00000F0204204D01021324801F017F803E05F
:100DE0001021304801F010F82846691CCDB20121CD
:100DF00001FA00F0204204D020212A4801F006F830
:100E000003E02021274800F0FFFF2846691CCDB2EF
:100E1000012101FA00F0204204D04021214800F0D5
:100E2000F5FF03E040211F4800F0EEFF2846691C53
:100E3000CDB2012101FA00F0204204D080211948EE
:100E400000F0E4FF03E08021164800F0DDFF2846B3
:100E5000691CCDB2012101FA00F0204204D0090240
:100E6000104800F0D3FF04E04FF480710D4800F00B
:100E7000CBFF2846691CCDB2012101FA00F02042C7
:100E800004D04902074800F0C1FF04E04FF40071AC
:100E9000044800F0B9FF70BD001001400008014097
:100EA00000140140000C014010B5044603480461E1
:100EB00001460869FFF74EFE10BD0000B47E002019
:100EC000024600200A4201D0012000E000207047C5
:100ED00002E0002200F8012B0A00A1F1010399B2FF
:100EE000F7D1704710B5032101A000F07BF910BDC8
:100EF000444D41315F4368616E6E656C325F4952AB
:100F00005148616E646C65720000000010B50321E9
:100F100001A000F067F910BD444D41315F436861A5
:100F20006E6E656C335F49525148616E646C6572D8
:100F30000000000010B54FF4005000F06BF80C48B2
:100F4000007802F0CBF9082800D110BD08480078DD
:100F500002F0C4F9042804D10548007802F0A4FA8C
:100F600004E00A210248007802F0C4FB00BFECE76D
:100F70001600002010B5032101A000F033F910BDC8
:100F8000444D41315F4368616E6E656C375F495215
:100F90005148616E646C65720000000010B5032159
:100FA00001A000F01FF910BD444D41325F4368615C
:100FB0006E6E656C315F49525148616E646C65724A
:100FC0000000000010B5032101A000F00BF910BDD6
:100FD000444D41325F4368616E6E656C325F4952C9
:100FE0005148616E646C65720000000010B5032109
:100FF00001A000F0F7F810BD444D41325F43686135
:101000006E6E656C335F49525148616E646C6572F7
:101010000000000010F0805F02D00349086001E08A
:10102000024948607047000004040240000002408A
:1010300021B1026842F00102026004E002684FF64A
:10104000FE731A400260704701684FF6FE7211404D
:1010500001600021016041608160C1604B498842AC
:1010600008D14A490839496841F00F01474A083A0E
:1010700051608AE045491431884208D14349083912
:10108000496841F0F001414A083A51607DE03F492A
:101090002831884208D13D490839496841F47061D6
:1010A0003A4A083A516070E038493C31884208D1E8
:1010B00036490839496841F47041344A083A516068
:1010C00063E032495031884208D1304908394968D3
:1010D00041F470212D4A083A516056E02B496431A1
:1010E000884208D129490839496841F47001274AE2
:1010F000083A516049E025497831884208D12349AE
:101100000839496841F07061204A083A51603CE072
:101110001F49884206D1011F096841F00F01021FD3
:10112000116032E01A491431884208D11849091F68
:10113000096841F0F001164A121F116025E01449B8
:101140002831884208D11249091F096841F47061A9
:101150000F4A121F116018E00D493C31884208D136
:101160000B49091F096841F47041094A121F1160B7
:101170000BE007495031884207D10549091F09682A
:1011800041F47021024A121F1160704708000240AA
:10119000080402401AB103680B43036002E00368CD
:1011A0008B430360704710B50022026847F6F07366
:1011B0009A430C6A8B6823430C6923434C6923438D
:1011C0008C692343CC6923434C6A23438C6A2343B1
:1011D0001A430260CB6843600B6883604B68C3604E
:1011E00010BD00000FB470B58EB001240025464834
:1011F0000078FF2801D1012000E000204249097851
:10120000424A1278914201D1012100E000210843B5
:1012100075D013A80D9068460D9A129902F088FEB9
:1012200000200D9013A80D902521129800F05CFC71
:10123000044602E00D9820C80D902000A4F101049E
:10124000F8D10D9820C80D9000200D9030480078FE
:10125000FF2801D1012000E000202D490978A94292
:1012600001D1012100E00021084348D0294800783D
:1012700010F0010F07D02848007800F0CDFA10B127
:10128000684600F06FF8694624A001F0C2FB2148CF
:10129000007810F0020F0CD02148007800F0BCFA62
:1012A00038B1684600F016FE06463146684602F040
:1012B000BBFB1848007810F0020F0DD019490878D0
:1012C00000F0AAFA40B1684600F004FE0646324635
:1012D0006946154802F070FD0E48007810F0040FC2
:1012E0000DD01049487800F097FA40B1684600F0F8
:1012F000F1FD0646324669460C4802F05DFD0EB02F
:1013000070BC5DF814FB0000610000205400002058
:101310006300002062000020210000200D0A000070
:10132000140000202200002000380140004400404A
:1013300002480078024908707047000054000020FD
:101340006100002010B502F0F9FA022000F004F864
:10135000032000F009F810BD014908707047000033
:1013600062000020704700000149087070470000CB
:1013700063000020704700000021104A1170002017
:1013800018E000210E4A02EB4012516103210C4A81
:1013900002EB401211720021094A02EB4012116166
:1013A000074A02EB4012D160054A02EB40129161FC
:1013B000411CC8B20A28E4DB70470000600000202E
:1013C000747D002038B5002436E01D4800EB441041
:1013D000006800282ED01A4800EB4410C07901287C
:1013E00004D002281BD0032823D10EE00320009054
:1013F000134800EB4410C369114800EB4410214628
:10140000026810A0FFF7EEFE13E00D4800EB441059
:1014100003232146026811A0FFF7E4FE09E0084813
:1014200000EB44100323214602680CA0FFF7DAFE0C
:1014300000BF00BF601CC4B20A2CC6DB38BD000070
:10144000747D00204465766963655B25645D4E614B
:101450006D653A25735B25645D000000446576691F
:1014600063655B25645D4E616D653A257300000020
:10147000244800782449087022480078401C2149FB
:1014800008702148007821491F4A127801EB421167
:1014900008711FA01D491C4A127801EB4211086017
:1014A00000211A48184A127800EB421041710320BB
:1014B0001649154A127801EB4211C87101201349EF
:1014C000114A127801EB4211087212490F480E4A74
:1014D000127800EB4210416100200C490A4A127850
:1014E00001EB4211C86000210848074A127800EB5E
:1014F000421001610548044A127800EB42108161F4
:10150000704700006000002064000020747D00200F
:1015100043545200911B000820480078204908706D
:101520001E480078401C1D4908701EA01F491C4A17
:10153000127801EB4211086000201C49184A127809
:1015400001EB4211487103201849154A127801EB4A
:101550004211C87101201549114A127801EB42115C
:101560000872134811490E4A127801EB4211486182
:1015700010490E480A4A127800EB4210C1600E482A
:101580000A49074A127801EB421108610020074915
:10159000034A127801EB4211886170476000002015
:1015A0001C000020464C415348000000747D002080
:1015B000051B0008331B0008111B00082448007895
:1015C0002449087022480078401C214908702148AD
:1015D000007821491F4A127801EB421108711FA0BF
:1015E0001D491C4A127801EB4211086000211A487B
:1015F000184A127800EB4210417103201649154A2F
:10160000127801EB4211C87101201349114A127876
:1016100001EB4211087212490F480E4A127800EB92
:101620004210416100200C490A4A127801EB421134
:10163000C86000210848074A127800EB4210016197
:101640000548044A127800EB42108161704700009F
:101650006000002065000020747D0020435452008B
:10166000111E00083CA03E493E4A127801EB42118F
:10167000086000203A493B4A127801EB4211487158
:1016800003213748374A127800EB4210C17103201A
:101690003349344A127801EB42110872324930481A
:1016A000304A127800EB4210416130492C482D4AF3
:1016B000127800EB4210C1602D482949294A12785E
:1016C00001EB4211086100202549264A127801EBFE
:1016D000421188612748007827490870254800781A
:1016E000401C2449087025A01D49234A127801EBAB
:1016F0004211086000201A491F4A127801EB42117A
:101700004871032016491C4A127801EB4211C87136
:1017100003211348184A127800EB4210017200208E
:101720000F49154A127801EB421148610F480C49E4
:10173000114A127801EB4211C8600D4808490E4A5F
:10174000127801EB42110861002105480A4A12781B
:1017500000EB4210816170475553415254310000F3
:10176000747D002014000020993900082D3E0008E7
:10177000293E00086000002015000020555341520A
:1017800054315F525800000010B503211AA0FFF732
:1017900029FD00242CE01F4800EB4410406928B3C9
:1017A0001C4800EB4410C079012804D0022812D054
:1017B00003281AD109E0174A02EB4412107F154A98
:1017C00002EB4412516988470FE0124901EB4411C2
:1017D0004869804709E00F4A02EB4412D0690D4A7C
:1017E00002EB44125169884700BF00BF601CC4B2BD
:1017F0000A2CD0DB10BD0000546F7320446576695D
:10180000636520496E69742E2E2E2E2E2E2E2E2EBE
:101810002E000000747D00200146FF2901D1002028
:101820007047044800EB4110406908B90020F7E711
:101830000120F5E7747D002010B5032101A0FFF71A
:10184000D1FC10BD4558544931355F31305F4952A4
:101850005148616E646C65720000000010B5032190
:1018600001A0FFF7BFFC10BD45585449325F4952F3
:101870005148616E646C65720000000010B5032170
:1018800001A0FFF7AFFC10BD45585449335F4952E2
:101890005148616E646C65720000000010B5032150
:1018A00001A0FFF79FFC10BD45585449345F4952D1
:1018B0005148616E646C65720000000010B5032130
:1018C00001A0FFF78FFC10BD45585449395F355FC3
:1018D00049525148616E646C6572000001490860AC
:1018E000704700001404014010B5032101A0FFF768
:1018F00079FC10BD464C4153485F49525148616ED6
:10190000646C6572000000000549096821F010014F
:10191000034A1160114609680143116070470000D5
:101920000020024030B5064C031903E033F8024BA7
:1019300021F8024B1400A2F10105EAB2F6D130BD44
:1019400000F8070801460020034A106800F038003C
:101950000843106070470000002002404FF47A7185
:1019600000BF0648C06810F0010F01D10020704789
:10197000481E80B20100F4D1FF20F8E700200240A9
:101980002DE9F04781460E46174600214A48007867
:1019900001F064FC494809EB000A17B90120BDE8D1
:1019A000F0874748006910F0800F04D0454844494B
:1019B000486045484860FFF7D1FF0446002C00DD31
:1019C0006DE03F48006940F002003D4908613B4836
:1019D00048610846006940F040000861FFF7BEFF1B
:1019E0000446002C00DD5AE04FF0000800BF3448E8
:1019F000C56808F101001FFA80F815F0200F00D02B
:101A000003E04FF6FF708045F1DB00BF15F0200FBB
:101A100000D144E02A48C06840F020002849C8604E
:101A20000846006920F04200086127E0FFF796FFB2
:101A30000446002C00DD32E02148006940F001003E
:101A40001F49086136F8020B2AF8020BFFF786FFE0
:101A50000446002C00DD22E01948006920F0010056
:101A6000174908610846C56815F0200F00D116E037
:101A70001348C06840F020001149C8603800A7F141
:101A800001018FB2D2D10E48006940F080000C49AC
:101A900008610948007801F0C3FB00207FE708488F
:101AA000006940F08000064908610348007801F0B1
:101AB000B7FBFF2073E700001C00002000F80708B8
:101AC0000020024023016745AB89EFCD10B503210B
:101AD00001A0FFF787FB10BD46534D435F495251AC
:101AE00048616E646C65720010B50246002005E026
:101AF00012F8014B8C4201D1431C98B21378002B91
:101B0000F6D110BD00200149087070471D0000206B
:101B10002DE9F04304460E4615463746A046A94631
:101B200099F80020B8F800003946FFF7FBFEBDE841
:101B3000F0832DE9F04704460E4615463746A04689
:101B4000A946B9F80020B8F800003946FFF718FF99
:101B5000BDE8F08770B504460025107820B11678EE
:101B60002068B0FBF6F085B2206808442060107849
:101B7000984203DA1078401C107002E02068401B85
:101B8000206016782068B0FBF6F080B270BD0000CF
:101B900008B50020FEF7DEFF0121042000F0FAFB6B
:101BA0004FF40140ADF8000003208DF80200102032
:101BB0008DF803006946264800F054F801210820FA
:101BC00000F0E8FB4FF47E70ADF8000003208DF8C4
:101BD000020010208DF8030069461E4800F042F80C
:101BE0000121102000F0D6FB4FF4FE50ADF80000AC
:101BF00003208DF8020010208DF803006946164876
:101C000000F030F80121202000F0C4FBFF20ADF8E7
:101C1000000003208DF8020010208DF803006946B3
:101C20000E4800F01FF80121402000F0B3FB1C20FB
:101C3000ADF8000003208DF8020010208DF803009D
:101C40006946074800F00EF800F054FD08BD00009A
:101C500000080140000C0140001001400014014048
:101C6000001801402DE9F041024600250026002021
:101C700000230024002791F803C00CF00F0591F811
:101C800003C01CF0100F03D091F802C04CEA050508
:101C900091F800C0BCF1000F31D0146800202BE097
:101CA0004FF0010C0CFA00F3B1F800C00CEA030687
:101CB0009E4220D183004FF00F0C0CFA03F7BC4377
:101CC00005FA03FC4CEA040491F803C0BCF1280FA8
:101CD00006D14FF0010C0CFA00FCC2F814C00AE067
:101CE00091F803C0BCF1480F05D14FF0010C0CFA7C
:101CF00000FCC2F810C0401C0828D1D31460B1F811
:101D000000C0BCF1FF0F34DD546800202EE000F16C
:101D1000080C4FF0010808FA0CF3B1F800C00CEA07
:101D200003069E4221D183004FF00F0C0CFA03F7FB
:101D3000BC4305FA03FC4CEA040491F803C0BCF16F
:101D4000280F05D100F1080C08FA0CF8C2F814802D
:101D500091F803C0BCF1480F07D100F1080C4FF017
:101D6000010808FA0CF8C2F81080401C0828CED3ED
:101D70005460BDE8F0810000F0B50A46002300245D
:101D80000021002500F00046B6F1004F02D11D4EA3
:101D9000F16901E01B4E7168C0F3034583B200F4A2
:101DA0004016B6F5401F08D121F07061154E7668D7
:101DB00026F07066134F7E6012E000F48016B6F5D0
:101DC000801F06D1032606FA05F4A14341F0706195
:101DD00006E0460D360103FA06F6B14341F07061A4
:101DE00022B1460D360103FA06F6314300F00046F3
:101DF000B6F1004F02D1034EF16101E0014E716076
:101E0000F0BD000000000140416170470161704772
:101E100008B50121202000F0BDFA4FF47F40ADF855
:101E2000000003208DF8020048208DF80300694669
:101E30002448FFF717FF0121082000F0ABFA4FF20A
:101E40000700ADF8000003208DF8020048208DF84F
:101E5000030069461C48FFF705FF0121402000F000
:101E600099FA4FF68070ADF8000003208DF802005B
:101E700048208DF8030069461448FFF7F3FE01215E
:101E8000102000F087FA3020ADF8000003208DF814
:101E9000020048208DF8030069460D48FFF7E2FE76
:101EA0000121042000F076FA3020ADF80000032074
:101EB0008DF8020048208DF8030069460448FFF7BA
:101EC000D1FE08BD00140140000C01400018014083
:101ED0000010014010B5014600200A4601E0431CF5
:101EE00098B212F8014B002CF9D110BD002000214E
:101EF0000CE001EB810202EBC102064B03EB820214
:101F000012890AB1421CD0B24A1CD1B20729F0DBB7
:101F100070470000940E00200246002039B9507826
:101F20004FF6FF7303EA00201378184306E0107899
:101F30004FF6FF7303EA002053781843704700BF41
:101F4000FEE7000010B5032101A0FFF74BF910BD1B
:101F5000493243315F45525F49525148616E646C6A
:101F60006572000010B5032101A0FFF73BF910BD19
:101F7000493243315F45565F49525148616E646C46
:101F80006572000010B5032101A0FFF72BF910BD09
:101F9000493243325F45525F49525148616E646C29
:101FA0006572000010B5032101A0FFF71BF910BDF9
:101FB000493243325F45565F49525148616E646C05
:101FC0006572000010B545F2555000F029F8062062
:101FD00000F01AF84FF47F6000F01CF800F00CF8E5
:101FE00000F002F810BD00004CF6CC40014908603A
:101FF00070470000003000404AF6AA2001490860FE
:102000007047000000300040014948607047000000
:1020100000300040014988607047000000300040F7
:1020200001490860704700000030004071B600BFF1
:102030000648006800F4E06005490843001D0349B4
:102040000860BFF3408F00BF00BFFEE70CED00E06B
:102050000000FA0500BFFEE77047000070B50021E0
:1020600000230F22C4780CB3164C246804F4E064F7
:10207000C4F5E064210AC1F10403CA40447804FABB
:1020800003F184781440214309010F4C0678A155CF
:10209000047804F01F050124AC4005786D114FF061
:1020A000E02606EB8505C5F8004109E0047804F058
:1020B0001F050124AC40054D0678761145F82640F1
:1020C00070BD00000CED00E000E400E080E100E005
:1020D00002490143024A1160704700000000FA05FE
:1020E0000CED00E010B5032101A0FFF77BF810BD57
:1020F0005056445F49525148616E646C65720000ED
:102100007047000010B5032209A10DA0FFF76AF87F
:1021100003220FA112A0FFF765F80322144915A0AE
:10212000FFF760F80322184918A0FFF75BF810BD0D
:10213000424F4152445F54414E4B5F48616E6400D0
:10214000426F6172645F4E616D653A2573000000F5
:1021500053544D3332463130335645543600000027
:102160004350555F4D6F64656C3A25730000000065
:1021700000127A004370755F4F53435F46524551DA
:102180003A2025644D687A0000A24A044370755FC6
:10219000467265713A2025644D687A0070470000E8
:1021A0001FB50948006801900748001D00680290AB
:1021B00005480830006803900320009003A001A99F
:1021C0000EC9FFF70FF81FBDE8F7FF1F4943204373
:1021D0006F64653A255820255820255800000000D6
:1021E0007047000010B5032108A0FEF7FBFFFFF7C2
:1021F00089FFFFF7D5FFFFF7E5F800F015F8FFF7C7
:10220000CDFFFFF7EDFF00F031F810BD0A546F73FA
:102210002053797374656D2053746172742E2E2E61
:102220002E2E2E2E2E2E2E0010B5FFF75FFE04460A
:1022300003232246072102A0FEF7D4FF10BD0000B1
:10224000546F735F5461736B506F6F6C2049733DB3
:1022500025642042757420486173202564205461F0
:10226000736B204372656174652E00001CB50020FD
:1022700001902AE09DF8040000EB800101EBC00012
:10228000294901EB8000006BD0B1032000909DF83C
:10229000040000EB800101EBC000234901EB80004A
:1022A000838C9DF8040000EB800101EBC0001E4907
:1022B00001EB80009DF80410026B1CA0FEF792FF5A
:1022C0009DF80400401CC0B201909DF8040007284E
:1022D000D0DB9DF80400401EC0B20190032246F6F8
:1022E000605117A0FEF77EFF9DF8040000EB80020E
:1022F00002EBC0000C4A02EB8000006A9DF804204B
:1023000002EB820303EBC202074B03EB8202928CC7
:10231000811803220FA0FEF765FF032201A912A076
:10232000FEF760FF1CBD0000940E00205461736B2B
:102330005B25645D4E616D653A257328256429002F
:102340005461736B537461636B416C6C3A20256408
:10235000000000005461736B537461636B557365C7
:102360003A2025640000000069416464723A20301C
:102370007825580029B1064A52690243044B5A6134
:1023800004E0034A52698243014B5A6170470000DE
:102390000010024029B1064A92690243044B9A6137
:1023A00004E0034A92698243014B9A61704700003E
:1023B0000010024010B500F043F84FF4803000F0F8
:1023C00001F900F06BF90446012C38D11020FFF719
:1023D0009BFA0220FFF7B6FA002000F0E7F8002091
:1023E00000F030F9A00200F021F94FF4E0112004D0
:1023F00000F03AF9012000F031F900BF392000F077
:10240000AFF80028FAD0022000F03CF900BF00F03D
:10241000C5F80828FBD101213C20FFF7BBFF0121B3
:102420000846FFF7B7FF01218803FFF7B3FF01213B
:102430000846FFF79FFF01214802FFF7ABFF10BDE1
:102440000F48006840F001000D49086008464068E8
:102450000C4908400A494860084600680A49084093
:10246000074908600846006820F480200860084694
:10247000406820F4FE0048604FF41F0088607047F9
:10248000001002400000FFF8FFFFF6FE30B500210B
:102490000022002400232D4D6D6805F00C0121B1B0
:1024A000042905D0082923D105E0294D056022E043
:1024B000274D05601FE0254D6D6805F47012234D12
:1024C0006D6805F48034022505EB92421CB9214D5C
:1024D000554305600BE01D4D6D6815F4003F03D0BA
:1024E0001C4D5543056002E0194D5543056002E05F
:1024F000174D056000BF00BF144D6D6805F0F00179
:102500000909154D6B5C0568DD4045600F4D6D6830
:1025100005F4E061090A104D6B5C4568DD4085609B
:102520000A4D6D6805F46051C90A0B4D6B5C456836
:10253000DD40C560054D6D6805F44041890B074DD0
:102540006B5CC568B5FBF3F5056130BD001002405A
:1025500000127A0000093D00000000201000002059
:1025600010B501460022002300204A11012A02D1A1
:10257000094C236806E0022A02D1074C236A01E0D5
:10258000054C636A01F01F02012494401C4201D0F3
:10259000012000E0002010BD001002400248406809
:1025A00000F00C00704700000010024001460020BF
:1025B000034A506820F0F000084350607047000064
:1025C000001002401149096821F480310F4A11605E
:1025D0001146096821F480211160B0F5803F03D0D5
:1025E000B0F5802F0ED106E00849096841F480312A
:1025F000064A116007E00549096841F4A021034A31
:10260000116000E000BF00BF7047000000100240F2
:1026100010B5032101A0FEF7E5FD10BD5243435F55
:1026200049525148616E646C657200000146002099
:10263000034A506820F4E06008435060704700008F
:102640000010024001460020034A506820F4605008
:1026500040EAC1005060704700100240014908661E
:10266000704700000000424202460020044B5868B8
:1026700020F47C1042EA01031843014B5860704774
:102680000010024001460020034A506820F0030079
:1026900008435060704700000010024038B5002029
:1026A00000900024002500BF3120FFF759FF0546A8
:1026B0000098401C00900098B0F5A06F01D0002D4C
:1026C000F2D03120FFF74CFF08B1012400E00024D4
:1026D000204638BD10B5032101A0FEF783FD10BDD3
:1026E000525443416C61726D5F49525148616E644E
:1026F0006C65720010B501210148FFF73DFB10BD6C
:102700000002300000206949096811F4004F01D02F
:1027100040F001006549096811F4804F01D040F094
:1027200002006249096811F4005F01D040F0040022
:102730005E49096811F4805F01D040F008005B49F0
:10274000096811F4006F01D040F010005749096882
:1027500011F4806F01D040F020005449096811F451
:10276000007F01D040F040005049096811F4807F9B
:1027700001D040F080004E49096811F4004F01D0AB
:1027800040F480704A49096811F4804F01D040F448
:1027900000704749096811F4005F01D040F480607F
:1027A0004349096811F4805F01D040F40060414959
:1027B000096811F4004F01D040F480503D49096888
:1027C00011F4804F01D040F400503A49096811F4E7
:1027D000005F01D040F480403649096811F4805F01
:1027E00001D040F400403349096811F4006F01D072
:1027F00040F480302F49096811F4806F01D040F413
:1028000000302C49096811F4007F01D040F4802089
:102810002849096811F4807F01D040F4002025493F
:10282000096811F0800F01D040F480102049096838
:1028300011F0040F01D040F400101D49096811F097
:10284000020F01D040F480001949096811F0010F0E
:1028500001D040F400001849896811F0200F01D020
:1028600040F080701449896811F0100F01D040F0D9
:1028700000701249096811F0800F01D040F08060AB
:102880000E49096811F0400F01D040F000600B497B
:10289000096811F0200F01D040F080500749096805
:1028A00011F0100F01D040F00050704708140140A3
:1028B000080C0140081801400010014008080140C0
:1028C00010B5032101A0FEF78DFC10BD5350493116
:1028D0005F49525148616E646C65720010B5032106
:1028E00001A0FEF77FFC10BD535049325F495251A1
:1028F00048616E646C65720010B5032101A0FEF79B
:1029000071FC10BD535049335F49525148616E64A8
:102910006C657200704710B500F002F810BD000041
:102920000CB50020019000903248006840F48030DF
:102930003049086000BF2F48006800F40030009064
:102940000198401C0190009818B90198B0F5A06F4B
:10295000F1D12848006810F4003F02D00120009017
:1029600001E0002000900098012842D12248006830
:1029700040F01000204908600846006820F003007D
:1029800008600846006840F0020008601948406886
:10299000184948600846406848600846406840F466
:1029A000806048600846406820F47C104860084613
:1029B000406840F4E81048600846006840F08070C5
:1029C000086000BF0B48006810F0007FFAD009488B
:1029D000406820F00300074948600846406840F01E
:1029E0000200486000BF0348406800F00C0008285F
:1029F000F9D10CBD001002400020024003461AB974
:102A000008125870197002E00812187059700220EC
:102A100070472DE9F04106460D462C4637462846BC
:102A2000FFF758FA04443046FFF754FA804618F18D
:102A3000010001D1BDE8F08103E017F8010B04F8B3
:102A4000010B5FEA0800A8F10108F6D104F8010BB8
:102A500000BFEFE710B500F013FB10BD10B5134831
:102A6000006840F0010011490860084640681049BC
:102A700008400E494860084600680E4908400B4966
:102A800008600846006820F4802008600846406816
:102A900020F4FE0048604FF41F008860FFF73BFF02
:102AA0004FF000600449086010BD000000100240B3
:102AB0000000FFF8FFFFF6FE08ED00E010B503216F
:102AC00001A0FEF78FFB10BD54414D5045525F49A8
:102AD000525148616E646C657200000010B50321AC
:102AE00001A0FEF77FFB10BD54494D315F42524BB0
:102AF0005F49525148616E646C65720010B50321E4
:102B000001A0FEF76FFB10BD54494D315F43435F99
:102B100049525148616E646C6572000010B5032122
:102B200001A0FEF75FFB10BD54494D315F54524781
:102B30005F434F4D5F49525148616E646C6572004E
:102B400010B5032101A0FEF74DFB10BD54494D31D6
:102B50005F55505F49525148616E646C6572000068
:102B600010B5032101A0FEF73DFB10BD54494D34C3
:102B70005F49525148616E646C65720010B5032163
:102B800001A0FEF72FFB10BD54494D355F4952514E
:102B900048616E646C65720010B5032101A0FEF7F8
:102BA00021FB10BD54494D375F49525148616E6455
:102BB0006C65720010B5032101A0FEF713FB10BD78
:102BC00054494D385F42524B5F49525148616E64DF
:102BD0006C65720010B5032101A0FEF703FB10BD68
:102BE00054494D385F43435F49525148616E646CAC
:102BF0006572000010B5032101A0FEF7F3FA10BDC5
:102C000054494D385F5452475F434F4D5F495251CD
:102C100048616E646C65720010B5032101A0FEF777
:102C2000E1FA10BD54494D385F55505F4952514843
:102C3000616E646C6572000008217248FFF7E6F867
:102C400010217048FFF7E2F80220FEF785FBFF2015
:102C5000FEF78AFBFFF7C6FAFFF74CFD0020FEF7F0
:102C600023F900206849086004216648FFF7CCF882
:102C70004FF4FA6000F0A0FAC3E004216148FFF7C6
:102C8000C3F81E2000F098FA04215E48FFF7BEF852
:102C90001E2000F091FA04215A48FFF7B5F81E20D3
:102CA00000F08AFA04215748FFF7B0F84FF4C870D3
:102CB00000F082FA554801780078401C534A1070A1
:102CC000032903DD08214F48FFF7A0F8FFF71AFD9D
:102CD000C0434D4948610846007D10F0800F06D082
:102CE0004B48006840F400404949086005E0484806
:102CF000006820F40040464908604348007D10F019
:102D0000010F06D04248006840F480304049086016
:102D100005E03F48006820F480303D4908603C48A9
:102D2000008810F4004F36D03748007D10F0080FAF
:102D300006D03748006840F400703549086005E067
:102D40003348006820F40070314908602E48007D47
:102D500010F0100F06D02E48006840F480602C4917
:102D6000086005E02A48006820F48060284908606F
:102D70002548007D10F0400F06D02548006840F43B
:102D80000060234908603CE02148006820F40060AE
:102D90001F49086035E01C48007D10F0020F06D086
:102DA0001B48006840F400701949086005E01848A5
:102DB000006820F40070164908601348007D10F088
:102DC000040F06D01248006840F480601049086083
:102DD00005E00F48006820F480600D4908600A484B
:102DE000007D10F0200F06D00948006840F4006014
:102DF0000749086005E00648006820F400600449BF
:102E000008603AE700180140B47E00206C00002002
:102E1000F87E002008B53FE0012000F0CDF96421E4
:102E20001E48FEF755F800226421104600F08AFE85
:102E30000446FEF77DFA01211848FFF76DF818499E
:102E40008881164801F032F830B30424A01E1349DB
:102E5000085C172818D1085DFDF75AFC1020009077
:102E60000F488189034628220E4801F037F80446AE
:102E700021460C4800F0D8FD08210B48FEF7C6FF9C
:102E800000200A49087000BF00BF08210648FEF76D
:102E9000BBFF022005490870BEE70000700000205B
:102EA000F87E00209C010020001801406C000020EA
:102EB000F0B502460C46FF21FF2500260BE012F874
:102EC000017B87EA0503084FFF5C87EA0105074F8E
:102ED000F95C771CBEB2A642F1DB08464FF6FF77DD
:102EE00007EA00202843F0BDA8480008A8490008C8
:102EF00010B510480078062804D00F480078401C10
:102F00000D4908700D480078401C0C4908700846AF
:102F1000007864280DDD002008701423084A064854
:102F200001780848FEF716FE07490870002002499C
:102F3000087010BD54000020400000203800002020
:102F4000390000203C0000204C00002010B5022079
:102F50001E49487000204860002425E0002004EB52
:102F6000840101EBC4011A4A02EB8101088104EBE0
:102F7000840101EBC40102EB8101886104EB84014F
:102F800001EBC40142F8210004EB840101EBC40110
:102F900002EB8101086204EB840101EBC40102EB46
:102FA00081018884601CC4B2072CD7DB0620094944
:102FB000087000200849086008498873084BFF2200
:102FC0004FF47A71054800F0ABFB10BD4C000020B7
:102FD000940E0020540000205C000020607D002042
:102FE00009380008FEF7D0FBFEF7ECFF06E0FFF71C
:102FF00003F8642000F0E0F800F0DCFBF7E70000E5
:1030000038B51849B1F1807F00D31DE021F07F4031
:10301000401E4FF0E022506150170F22002807DABF
:1030200013071D0E104B00F00F04241F1D5503E065
:1030300013071C0E0D4B1C5400BF00204FF0E02264
:1030400090610720106100BF4FF47A7008A300223E
:103050000A490090062000F045F8062000F0A0FA8A
:1030600038BD00004019010018ED00E000E400E068
:103070005461736B526F6F7400000000E52F0008FD
:1030800010B5FFF735FF00F07BF90D4840781028A8
:1030900005D103210BA0FEF7A5F8FEF7C7FF1048E6
:1030A0008089401C0E4988810846808909898842A8
:1030B00005DD0B490869804700200949888110BD5A
:1030C0004C0000205461736B2054696D654F75741A
:1030D0002057696C6C20544F5320526573657400FF
:1030E000607D00202DE9F04304460D4690461E46C3
:1030F000079F0DB9BDE8F08304EB840000EBC4002A
:103100002A4901EB8000808CA8B92948006838441E
:103110002749086004EB840101EBC401234A02EB58
:1031200081018F842248006804EB840101EBC40113
:1031300002EB8101086204EB840202EBC4021B4B28
:1031400003EB8202918C04EB840202EBC40203EBDA
:103150008202126A174BD01800F0C2FA8146022090
:1031600004EB840101EBC401104A02EB81010881E8
:1031700004EB840000EBC400114601EB80004560C5
:1031800004EB840000EBC40001EB800006634246C0
:103190002946484600F0CCF904EB840101EBC40158
:1031A000024A42F8210000BFA4E70000940E00206C
:1031B0005C0000200010002010B50446154840783F
:1031C000012822D000201449097801EB810202EB8A
:1031D000C101124A02EB810188610F48007800EBBF
:1031E000800101EBC000114601EB80004461082022
:1031F0000949097801EB810202EBC101074A02EBA0
:103200008101088100F016FA02E02046FDF706FB76
:1032100010BD00004C00002054000020940E00203F
:1032200001460C4800EB4110007A08B900207047B5
:10323000084800EB41104079074A1278904201D0CB
:103240000020F4E70120034A02EB4112107200BF94
:10325000EDE70000747D00205400002070B50446A6
:103260000D4600BF1B4800EB4410007A30B1012826
:1032700014D0022804D003282AD11CE0002070BDFD
:10328000144800EB4410407913490978884201D171
:103290000120F4E7204600F0DFFAE3E702200D49C1
:1032A00001EB441108720C4800780A4901EB441103
:1032B00048710120E3E70220064901EB441108723E
:1032C00005480078034901EB441148710120D6E715
:1032D0000020D4E7747D0020540000200146072917
:1032E00001DB0020704701EB810000EBC100024AC6
:1032F00002EB80000089F5E7940E00202DE9F047ED
:103300000646884691469A46072E01DBBDE8F087BF
:1033100006EB860000EBC600184901EB8004E06A6A
:1033200000B9F3E794F8290094F82710884220DACE
:1033300004F127046078A1780844217890FBF1F229
:1033400001FB1200C7B214F82709B84200DCDDE720
:10335000E06A00EBC70585F800804A465046696878
:10336000FDF769FA85F8019094F82900401C84F86B
:103370002900304600F098F800BFC7E7940E0020FF
:10338000002088E000EB800101EBC001444A02EB21
:1033900081010989022906D0082924D010294FD09B
:1033A000202974D172E000EB800101EBC0013C4A9E
:1033B00002EB81018969491C00EB800202EBC0022B
:1033C000374B03EB8202916100EB800101EBC001FE
:1033D0001A4602EB81018969B1F5FA6F02D9102111
:1033E000304A517054E0002100EB800202EBC00231
:1033F0002B4B03EB8202916100EB800101EBC001DA
:103400001A4602EB8101496941B9022100EB8002B1
:1034100002EBC00203EB8202118110E000EB80019D
:1034200001EBC0011E4A02EB81014969491E00EB14
:10343000800202EBC0021A4B03EB8202516127E0CB
:1034400000EB800101EBC001154A02EB8101C96963
:1034500049B9022100EB800202EBC002104B03EBE2
:103460008202118110E000EB800101EBC0010C4AE7
:1034700002EB8101C969491E00EB800202EBC00228
:10348000074B03EB8202D16102E000E000E000BFE5
:1034900000BF411CC8B20728FFF674AF7047000098
:1034A000940E00204C000020072800DB704700EB42
:1034B000800101EBC001084A02EB8101098908295A
:1034C00008D0082100EB800202EBC002024B03EBA4
:1034D0008202118100BFE9E7940E002010B5044676
:1034E0000F480078A04200D110BD0D48007800EBD5
:1034F000800101EBC0000B4901EB80000A49086024
:1035000007480470007800EB800101EBC00005491A
:1035100051F8200005490860FDF7C4F800BFE3E753
:1035200054000020940E0020480000204400002099
:1035300030B503461846041F20462160041F20466C
:1035400023600025041F20462560041F20462560B7
:10355000041F20462560041F20462560041F2046C6
:103560002560041F20462560041F20462560041F97
:1035700020462560041F20462560041F2046256044
:10358000041F20462560041F20462560041F204696
:1035900022604FF08075041F2046256030BD00007A
:1035A00010B5044604EB840000EBC400034951F855
:1035B000200003490860FDF78EF810BD940E00202E
:1035C0004400002010B50446072C00DB10BD04EBBE
:1035D000840000EBC400164901EB80000089082834
:1035E00001D1012000E0002004EB840101EBC401C3
:1035F0000F4A02EB81010989022901D1012100E072
:103600000021084312D0042004EB840101EBC40123
:10361000074A02EB81010881002004EB840101EBE1
:10362000C40102EB8101486100F004F800BFCDE75E
:10363000940E002010B502212648A0F84011002465
:1036400044E004EB840000EBC400224901EB80005D
:103650000089022806D008280CD010280BD020287A
:1036600030D109E01C480078A04202D02046FFF784
:1036700035FF10BD27E026E004EB840000EBC4001A
:10368000144901EB800090F82600144901EB40102A
:10369000007A012815D1082004EB840101EBC40154
:1036A0000C4A02EB81010881032004EB840101EB49
:1036B000C40102EB810191F82610084A02EB411186
:1036C000087200E000BF00BF601CC4B2072CB8DB6A
:1036D00000BFCEE7940E002054000020747D00202F
:1036E0000246501820F00303A3F1340020F0070035
:1036F0007047000010B5102200EB800303EBC003FD
:10370000064C04EB83031A8100EB800202EBC0023B
:10371000234603EB8202D16110BD0000940E00200D
:1037200070B504460D46164601221449887B0028D0
:1037300016DD0AE04968002A07DD0878904202D0C9
:103740002270002201E0501CC2B248680028F1D16A
:10375000002A00DD22700A480078A0734C6005E062
:103760000C460020207006480078A07325816681F1
:103770000020A08123616060207870BD607D002002
:103780005400002002460A490CE048680078904244
:1037900007D100204B68588148684068486010464F
:1037A0007047496848680028EFD100BFF8E700007B
:1037B000607D002010B5134C1FE06068807B10F026
:1037C000400F19D06068807B10F0800F12D06168C4
:1037D000086980476068807B20F08000616888739A
:1037E0006068408920B961680878FFF7CBFF04E082
:1037F000646802E0646800E0646860680028DCD106
:1038000010BD0000607D002012481EE04068817BF2
:1038100011F0400F19D04189002916DD81890289F4
:10382000914203DA8189491C81810EE04189FF2997
:1038300002DA4189491E41814189002901DD0021C7
:103840008181817B41F08001817341680029DDD154
:1038500070470000607D002010B504460C480078D9
:1038600000EB800101EBC0000A4901EB800080F809
:10387000264020200649097801EB810202EBC101B4
:10388000044A02EB81010881FFF7D4FE10BD00005D
:1038900054000020940E002010B540F225510E482F
:1038A00000F0CEF9B0B10C48001D0088C4B20B483E
:1038B000C0880B49C98888420CDA0848C188C0888A
:1038C000401C064AD080074844540749C8780A215A
:1038D000FFF710FF10BD0000004C00408A0E0020D2
:1038E000800E00204C0600203100002010B540F270
:1038F00025510D4800F0A4F9A8B10B488088C4B246
:103900000A4800890A49098988420CDA074801896E
:103910000089401C054A108106484454064908792C
:103920000A21FFF7E7FE10BD005000408A0E00207C
:10393000800E002078070020310000201FB500F025
:103940009FF801218803FEF725FD4FF4E130009038
:103950000020ADF80400ADF80600ADF80800ADF8A1
:103960000C000C20ADF80A0069460A4800F0B8F9CE
:10397000012240F22551074800F08CF90121054849
:1039800000F049F9012000F0C7F84021014800F09B
:1039900039F91FBD0038014000B58DB0FFF7CEFFEB
:1039A00001210846FEF7E6FC0E208DF830000320CA
:1039B0008DF8310002208DF8320001208DF833009F
:1039C0000CA8FEF74BFB1548FDF73EFB1448019091
:1039D00014480290102003904FF496700490002039
:1039E00005908020069000200790089009904FF4E1
:1039F00000500A9000200B9001A90848FDF7D3FB66
:103A0000012202210548FDF7C5FB0122802104485F
:103A1000001F00F00CF90DB000BD00004400024092
:103A2000043801409C01002070B504460D46002179
:103A30000F480078FFF712FC0646C6B10D48007823
:103A40000D4908700D480465856401210B48443018
:103A5000FDF7EEFA08480078FFF7B4FD00210748AB
:103A60004430FDF7E5FA02480078FFF7D9FB70BD56
:103A70001400002054000020160000200000024026
:103A800008B501210520FEF785FC4FF40070ADF864
:103A9000000003208DF8020018208DF8030069460D
:103AA0000748FEF7DFF84FF48060ADF8000004200F
:103AB0008DF8030069460248FEF7D4F808BD0000FF
:103AC0000008014010B540F225510E4800F0B8F84A
:103AD000B0B10C48001D0088C4B20B4800880B49E7
:103AE000098888420CDA084801880088401C064A88
:103AF0001080074844540A2106480078FFF7FAFD71
:103B000010BD0000003801401A00002018000020FD
:103B1000700000201700002038B504464FF4806084
:103B2000FEF7D6FA25208DF8000002208DF801005E
:103B300001208DF802008DF803406846FEF78EFAEA
:103B400038BD00002DE9F04107460D46144600211E
:103B500012480078FFF782FB06460120FFF7DCFFE2
:103B6000C6B10F4800780F4908700F480580002043
:103B70000E4908801CB12046FFF71EFB03E00948F0
:103B80000078FFF71FFD05480078FFF749FB00208C
:103B9000FFF7C2FF05480088BDE8F081150000204E
:103BA0005400002017000020180000201A000020F8
:103BB00010B540F225510E4800F042F8B0B10C4863
:103BC000001D0088C4B20B4840880B4949888842D0
:103BD0000CDA084841884088401C064A5080074853
:103BE0004454074948780A21FFF784FD10BD0000BE
:103BF000004400408A0E0020800E0020F4030020C4
:103C00003100002001F40072B2F5007F00D100BF46
:103C1000CA430280704721B1828942F400528281F6
:103C200004E082894DF6FF731A40828170471AB111
:103C3000838A0B43838202E0838A8B4383827047AB
:103C400070B502460024002300250020A1F510666F
:103C50006A3E00D100BFC1F3421501F01F030126E7
:103C600006FA03F3012D02D19689334006E0022DB6
:103C700002D1168A334001E0968A33400C120126A5
:103C800006FA04F41688344013B10CB1012000E0A8
:103C9000002070BDF0B5034600240026002500205A
:103CA000A1F510676A3F00D100BF1846C1F3421466
:103CB00001F01F06012707FA06F5012C01D10C308F
:103CC00004E0022C01D1103000E014301AB1076872
:103CD0002F43076002E00768AF430760F0BD0000B4
:103CE0002DE9F04786B005460E460024A24600BFE7
:103CF000A1460027B08900B100BF2F462C8A4CF6A0
:103D0000FF700440F08804432C82AC894EF6F31017
:103D10000440B08831890843718908430443AC8169
:103D2000AC8A4FF6FF400440B0890443AC8201A83E
:103D3000FEF7ACFB1F48874202D1DDF810A001E07E
:103D4000DDF80CA0A88910F4004F08D00AEBCA00D7
:103D500000EB0A1031684900B0FBF1F807E00AEB0C
:103D6000CA0000EB0A1031688900B0FBF1F864204A
:103D7000B8FBF0F004012009642101FB1089A88937
:103D800010F4004F08D0322000EBC900B0FBF1F076
:103D900000F00700044308E0322000EB0910642122
:103DA000B0FBF1F000F00F0004432C8106B0BDE839
:103DB000F08700000038014010B50B46002108E0F4
:103DC00000BF048814F0800FFBD05C5C84804C1C26
:103DD000A1B29142F4DB10BD10B54FF48020FDF785
:103DE0007DFD10BD00B585B002210C48FCF7AAFD91
:103DF00090B102210948FCF751FD6A4600210748AD
:103E0000FCF730FE9DF8090030B96B461422002102
:103E100003480078FFF772FA05B000BD0064004067
:103E20001E00002000BFFEE77047000070B5064688
:103E30000C4615460A4800780A4908700A48046585
:103E40008564012108484430FDF7F2F80548007800
:103E5000FFF7B8FB002104484430FDF7E9F870BDD6
:103E600054000020160000200000024010B503217D
:103E700001A0FDF7B7F910BD575744475F495251AC
:103E800048616E646C65720070B505460C46A01EF4
:103E900081B2A81CFFF70CF806462819002231460B
:103EA000FEF7ACFD204484B2204670BD2DE9F04100
:103EB0000446E078851D281F81B2A01CFEF7F8FF9C
:103EC0000646A91E08190021FEF726F80746B74244
:103ED00002D10120BDE8F0810020FBE72DE9F04789
:103EE0000546894617469846089E00244C2E02DD5A
:103EF0000020BDE8F087281901224946FEF77EFD23
:103F0000204484B22046611C8CB22F542046611C90
:103F10008CB22E54291932464046FCF78CFC2044C2
:103F200084B221462846FFF7AFFF0446E0B2E0E73F
:103F300037B514460846064B6A46214600F0C8F8D5
:103F400004466946002000F066FC20463EBD0000A5
:103F50001748000802E008C8121F08C1002AFAD159
:103F600070477047002001E001C1121F002AFBD1F9
:103F7000704700002DE9FF5FDDE90220010DDDF84B
:103F800038B0024310D10F9801244CA2012808D068
:103F9000002100980F9BC0E90021C0E90243BDE861
:103FA000FF9F6FEA0B01F4E7A1F2FF3144F61050D6
:103FB00041430D140F9801280ED0A5EB0B00401CB7
:103FC0004FF000043E4EDFF8FC90B0F1000AA0462E
:103FD00005DACAF1000717E0CBF10000F0E7074669
:103FE00012E0F80707D02246334640464946FCF720
:103FF00062F9804689462246334610461946FCF748
:104000005AF904460E467F10002FEAD1DDE902017D
:10401000BAF1000F42464B4602DAFCF74CF901E0D8
:10402000FCF7BBF904460E460022274BFCF714FBB5
:1040300003D84FF0FF30014607E00022234B204613
:104040003146FCF791F8FCF7EEFA102409E0002C59
:104050000ADB0A220023FCF725FA019B30321A55AD
:10406000641E50EA0102F2D1641C019AC4F11103EA
:1040700014440F9A012A09D00122084301D15B455B
:104080000FDD4FF0000205F101050DE0084303D1FB
:10409000A3EB0B056D1E09E000204FF0110B0F90F4
:1040A00088E701DA00226D1E002A83D000980F995C
:1040B000C0E90231C0E9004571E7000030000000AE
:1040C000000024400000F03F0000F0430000E03F0B
:1040D0002DE9FF4F95B09B4689460646002512E222
:1040E000252878D10024761CF94A27460121059419
:1040F0003378203B01FA03F0104202D00443761CCF
:10410000F6E730782A2811D06FF02F033078A0F12D
:104110003002092A16D8059A44F0020402EB820202
:1041200003EB42021044761C0590EFE759F8042B8C
:104130000592002A03DA504244F40054059044F0FA
:104140000204761C30782E2816D116F8010F44F0A0
:1041500004042A280DD06FF02F023078A0F130032C
:10416000092B09D807EB870302EB4303C718761C1A
:10417000F3E759F8047B761C30786C280FD006DC06
:104180004C2817D068280DD06A2814D104E0742870
:1041900010D07A280FD10DE044F400140AE044F462
:1041A000801401E044F440147278824202D1761CFB
:1041B00004F58014761C307866280BD013DC582860
:1041C00077D009DC002875D04528F6D04628F4D0F1
:1041D00047281AD19FE118E0632835D0642879D0A8
:1041E000652812D197E1702873D008DC6728F1D0D8
:1041F00069286FD06E280DD06F2806D1B5E07328DE
:104200002CD0752875D0782874D05A4617999047C5
:104210006D1C76E1C4F30250022809D003280DD0AA
:10422000D9F8001004280DD00D6009F1040968E1E7
:10423000D9F80010EA17C1E90052F6E7D9F80010E2
:104240000D80F2E70D70F0E719F8041B8DF80010EF
:1042500000208DF80100EA46012003E059F804AB84
:104260004FF0FF3061074FF0000102D40DE008F17C
:1042700001018846B9420FDA8045F8DB1AF80810C8
:104280000029F4D108E008F1010188468142FADBF7
:104290001AF808100029F6D105985B46A0EB08072C
:1042A00021463846179A00F09EFA284400EB08058C
:1042B00007E04DE02BE10DE01AF8010B5A46179983
:1042C0009047B8F10108F7D25B4621463846179A65
:1042D00014E142E00A220092C4F302524FF0000AB5
:1042E000022A08D059F804CB032A4FEAEC710AD00D
:1042F0000DE029E02AE009F1070121F00702F2E8C8
:1043000002C1914609E00FFA8CFC4FEAEC71042AD5
:1043100003D14FFA8CFC4FEAEC71002907DA0A4608
:104320000021DCF1000C61EB02012D2202E02205EC
:1043300004D52B228DF80420012203E0E20701D0EE
:104340002022F7E7904653E00A2102E010220DE018
:1043500010214FF0000A00910BE010224FF0000AEC
:1043600044F004040827009203E008224FF0000AFA
:104370000092C4F30252022A05D059F804CB00215E
:10438000032A08D009E009F1070121F00702F2E849
:1043900002C1914605E01FFA8CFC042A01D10CF001
:1043A000FF0C4FF00008220722D5702827D0009B71
:1043B00083F0100353EA0A0309D15CEA010206D034
:1043C00030228DF804208DF8050002229046009BD3
:1043D00083F0080353EA0A030AD15CEA010201D11F
:1043E000620705D530228DF804204FF001087F1EAA
:1043F000582809D037A003900EA8029013E040225D
:104400008DF804200122E1E737A0F4E75346604627
:10441000009AFCF747F884460398825C0298A0F162
:104420000100029002705CEA0100EFD1029806A937
:10443000A1EB000000F1200A600702D524F48034CB
:1044400000E00127574502DDA7EB0A0000E000204D
:1044500000EB0A01009005984144A0EB0100059093
:10446000E00306D45B462146179A059800F0BBF995
:104470000544002706E001A85A46C05D17999047F9
:104480006D1C7F1C4745F6DBE0030CD55B462146DF
:10449000179A059800F0A7F9054404E030205A4621
:1044A000179990476D1C0099481E00900029F5DC73
:1044B00008E0029802995A460078491C029117991F
:1044C00090476D1CBAF10001AAF1010AF1DC6BE121
:1044D00009280100303132333435363738396162DA
:1044E000636465660000000030313233343536379E
:1044F00038394142434445460000000000F060F96D
:10450000054406F10106307800287FF4E9AD19B0C2
:104510002846BDE8F08F620700D4062709F107029C
:1045200022F0070CFCE80223E14603F000485FEAB2
:10453000080C02D00FF27C2C0DE05FEA045C02D57F
:104540000FF2742C07E05FEAC47C02D00FF26C2CEF
:1045500001E0AFF2700C4FF0FF3823F00043CDF8CC
:1045600050C065280CD006DC452809D046281DD04F
:1045700047283ED13EE0662818D0672839D139E077
:104580000021112F01DB112000E0781CCDE9000192
:1045900006A90EA8FFF7EEFCDDE90F010E9A0391C4
:1045A0000021009207F1010A04914EE04FF0004013
:1045B0000097CDE9011006A90EA8FFF7DBFCDDE9A5
:1045C0000F0203920E9B11990022DDF80CA00093BC
:1045D000049219B907F1010100EB010AB7EB0A00D7
:1045E00004D4C0F1FF3007F1010A0490AAEB0700E0
:1045F000019046E0012F00DA01270021112F01DD93
:10460000112000E03846CDE9000106A90EA8FFF709
:10461000B1FCDDE90F010E9A039100210491009293
:10462000BA4621070CD40399514500DA8A46BAF1FB
:10463000010F05DD009AAAF10101515C302908D073
:10464000B84202DA10F1040F06DA0121CDE90110B7
:1046500017E0AAF10101E9E7002805DC049901440B
:104660000491AAEB000102E0411C514500DD8A469D
:104670000499A0EB010000F1010001904FF000400F
:104680000290200704D40198504501DBCDF8048046
:1046900000208DF84F0002980DF14F07B0F1004F48
:1046A00025D02B200E9002984FF0020800280CDA3B
:1046B000404202902D200E9007E00A210298FBF75D
:1046C000DBFE3031029007F8011DB8F10001A8F1BE
:1046D0000108F2DC02980028EFD1791E0E980870CC
:1046E000307800F0200040F0450007F8020D12A8D5
:1046F000A0EB070000F107081498007800B1012032
:1047000000EB0A01019801EBE07105984144A0EB30
:104710000100A0F101000590E00306D45B462146AC
:10472000179A059800F05FF805441498007820B1B6
:104730005A461799904705F10105E00323D55B46DA
:104740002146179A059800F04EF805441BE004989E
:10475000002807DBDDE90301884203DD0098405CA7
:10476000179901E0179930205A46904704986D1C1C
:10477000401C04900198401E019004D12E205A46FE
:10478000179990476D1CBAF10001AAF1010ADEDC0D
:1047900005E017F8010B5A46179990476D1CB8F1C0
:1047A0000001A8F10108F4DC5B462146179A059840
:1047B000A4E600002D0000002B00000020000000F7
:1047C0002DE9F041044600251E461746880405D40D
:1047D00006E039462020B04705F10105641EF8D5F2
:1047E0002846BDE8F0812DE9F041044600251E462B
:1047F0009046C80301D5302700E02027880405D55E
:1048000006E041463846B04705F10105641EF8D57B
:104810002846BDE8F0810A68531C0B601070704791
:1048200008B5FDF7C7FDFCF78DFDFCF7A5FDFCF70E
:1048300019FFFCF71DFEFCF7C1FEFCF76DFEFCF74F
:10484000A3FFFEF783FB40F6B8300EA300220F490A
:1048500000901046FEF746FC40F6B8300CA300224C
:104860000D4900900120FEF73DFC40F6B8300BA347
:1048700000220C4900900220FEF734FCFEF7C0FB3A
:1048800000BFFEE75461737430000000392C00084B
:104890005461737431000000152E00085461737464
:1048A00032000000C107000800C1814001C0804102
:1048B00001C0804100C1814001C0804100C18140F0
:1048C00000C1814001C0804101C0804100C18140E0
:1048D00000C1814001C0804100C1814001C08041D0
:1048E00001C0804100C1814001C0804100C18140C0
:1048F00000C1814001C0804100C1814001C08041B0
:1049000001C0804100C1814000C1814001C080419F
:1049100001C0804100C1814001C0804100C181408F
:1049200000C1814001C0804101C0804100C181407F
:1049300000C1814001C0804100C1814001C080416F
:1049400001C0804100C1814000C1814001C080415F
:1049500001C0804100C1814001C0804100C181404F
:1049600000C1814001C0804100C1814001C080413F
:1049700001C0804100C1814001C0804100C181402F
:1049800000C1814001C0804101C0804100C181401F
:1049900000C1814001C0804100C1814001C080410F
:1049A00001C0804100C1814000C0C101C30302C2F7
:1049B000C60607C705C5C404CC0C0DCD0FCFCE0E5F
:1049C0000ACACB0BC90908C8D81819D91BDBDA1ACF
:1049D0001EDEDF1FDD1D1CDC14D4D515D71716D63F
:1049E000D21213D311D1D010F03031F133F3F232AF
:1049F00036F6F737F53534F43CFCFD3DFF3F3EFE1F
:104A0000FA3A3BFB39F9F83828E8E929EB2B2AEA8E
:104A1000EE2E2FEF2DEDEC2CE42425E527E7E626FE
:104A200022E2E323E12120E0A06061A163A3A2626E
:104A300066A6A767A56564A46CACAD6DAF6F6EAEDE
:104A4000AA6A6BAB69A9A86878B8B979BB7B7ABA4E
:104A5000BE7E7FBF7DBDBC7CB47475B577B7B676BE
:104A600072B2B373B17170B050909151935352922E
:104A700096565797559594549C5C5D9D5F9F9E5E9E
:104A80005A9A9B5B99595898884849894B8B8A4A0E
:104A90004E8E8F4F8D4D4C8C44848545874746867E
:104AA0008242438341818040C84A000800000020C0
:104AB00070000000543F0008384B000870000020D0
:104AC000A8820000643F0008000000000102030407
:104AD000010203040607080902040608FFFF07078E
:104AE00000000000FF00FFFF30FFFFFF000000009C
:104AF00000000000000000000000000000000000B6
:104B000000000000000000000000000000000000A5
:104B10000000000000000000000000000000000095
:104B2000000000000000000000FF00FFFFFF000089
:084B300000000000000000007D
:0400000508000131BD
:00000001FF
