:020000040800F2
:1000000040430020450100088B13000883100008BE
:1000100035110008470700089D2200080000000075
:10002000000000000000000000000000E1140008D3
:1000300065080008000000001914000821160008D7
:100040005F0100085F0100085F0100085F01000810
:100050005F0100085F0100085F0100085F01000800
:100060005F0100085F0100085F0100085F010008F0
:100070005F0100085F0100085F0100085F010008E0
:100080005F0100085F0100085F0100085F010008D0
:100090005F0100085F0100085F0100085F010008C0
:1000A0005F0100085F0100085F0100085F010008B0
:1000B0005F0100085F0100085F0100085F010008A0
:1000C0005F0100085F0100085F0100085F01000890
:1000D0005F010008D91C0008351D0008911D0008AB
:1000E0005F0100085F010008912200085F0100081D
:1000F0005F0100085F0100085F0100085F01000860
:100100005F0100085F0100085F0100085F0100084F
:10011000211C00087D1C00085F0100085F01000829
:100120005F0100085F0100085F0100085F0100082F
:10013000DFF80CD000F0A4FA00480047912B00082B
:10014000404300200648804706480047FEE7FEE798
:10015000FEE7FEE7FEE7FEE7FEE7FEE7FEE7FEE777
:1001600045160008310100082DE9FE4F804681EA5E
:100170000300C00F0C46009021F0004123F0004521
:10018000B8EB0200A94105D24046214690461C46E4
:100190000B46024623F00040104304D1404621465E
:1001A00003B0BDE8F08F270DC7F30A00C3F30A516F
:1001B0000290401A0190402866DAC3F3130040F41D
:1001C000801B0098924620B10023D2EB030A63EB18
:1001D0000B0B01985946C0F14002504600F093F9CC
:1001E00006460D4650465946019A00F0ABF910EB11
:1001F00008006141002487EA115284EAE7731A4338
:100200003BD0009A3AB3019A012A4FEA075210DC18
:10021000001B61EB02014FF0004202EA0752CDE9F8
:100220000042001C41F5801132462B4600F0A9F92E
:10023000B6E7001B61EB0201001C41F580130018BA
:100240005B412018A2F5001747EB030140EAD57087
:10025000B6196D4111E06D084FEA360645EAC075E2
:100260004FEA0752001B61EB0201001C41F58011AF
:1002700049084FEA30000019514132462B4603B07D
:10028000BDE8F04F00F070B9009801224000002353
:10029000D0EB020263EBE073009821464FEAE07472
:1002A000B8EB000061EB0401E9E783F000435BE792
:1002B00081F0004158E72DE9FE4F81EA030404F084
:1002C000004421F0004100944FF0000B23F0004364
:1002D00050EA010402D052EA030404D1002001468E
:1002E00003B0BDE8F08FC3F30A54C1F30A552C44A0
:1002F000A4F2F3340194A0FB0254C1F3130141F4BE
:100300008011C3F3130343F4801301FB024400FB89
:10031000034E840A970A44EA815447EA8357A4FBB0
:10032000076802958D0A05FB07854FEA932C04FBAD
:100330000C542705029D4FEA065847EA1637B5EBDD
:1003400008056EEB070C870E920E47EA811742EA0A
:100350008312A7FB0201B6EB0B0164EB00042B0D2B
:1003600043EA0C335E1844EB1C50DA465146E7FB77
:100370000201C5F313044FEA0B3343EA14534FEA67
:100380000432019C43EA0603A4F10C040294009C8D
:10039000CDE900B400F0F5F8A2E72DE9F04D81EACF
:1003A000030404F0004B21F0004514464FF0000A0E
:1003B00023F0004150EA050220D054EA01021DD08A
:1003C000C5F30A570246C5F31303C1F31300C1F383
:1003D0000A5640F4801543F48013A7EB0608101B5F
:1003E000D64608F2FD3873EB050002D308F1010888
:1003F00001E092185B41B8F1000F03DA00200146DA
:10040000BDE8F08D00204FF48011064684460EE0D2
:10041000171B73EB050705D3121B63EB050306439C
:100420004CEA010C49084FEA300092185B4150EA4F
:100430000107EDD152EA030012D082EA040083EAF8
:100440000501084303D100224FF0004308E0101BD0
:10045000AB4102D20122002302E06FF001025310EF
:100460001AEB06004CEB085110EB0A0041EB0B01B4
:10047000BDE8F04D00F078B830B50B4601460020DD
:100480002022012409E021FA02F59D4205D303FA56
:1004900002F5491B04FA02F52844151EA2F10102D7
:1004A000F1DC30BD2DE9F05F0546002092469B4609
:1004B00088460646814640241BE02846414647467A
:1004C000224600F02FF853465A46C01A914110D3E5
:1004D00011461846224600F016F82D1A67EB01085F
:1004E0004F4622460120002100F00DF817EB0009CD
:1004F0004E41201EA4F10104DFDC484631462A4665
:100500004346BDE8F09F202A04DB203A00FA02F1BE
:10051000002070479140C2F1200320FA03F31943F1
:1005200090407047202A04DB203A21FA02F0002193
:10053000704721FA02F3D040C2F1200291400843F3
:1005400019467047202A06DBCB17203A41FA02F001
:1005500043EAE07306E041FA02F3D040C2F1200220
:10056000914008431946704710B5002B08DA401C2B
:1005700041F1000192185B411A4301D120F00100C2
:1005800010BD2DE9F04D92469B4611B1B1FA81F2B2
:1005900002E0B0FA80F220329046FFF7B4FF044642
:1005A0000F4640EA0A0041EA0B0153465A46084307
:1005B00003D120463946BDE8F08D114653EA0100CB
:1005C00015D0C8F140025046FFF7ACFF05460E4675
:1005D000504659464246FFF796FF084301D0012096
:1005E00000E00020054346EAE0762C4337430A98B2
:1005F0004FEA4453A0EB08004FEAD4240A304FF0EE
:10060000000244EA47544FEAD72502D500200146AC
:10061000D1E7010510196941DDE908450019694173
:10062000BDE8F04DA0E7C1F30A52C1F3130140F257
:10063000FF3341F480119A4202DA002001467047EC
:1006400040F233439A42A2F2334202DC5242FFF7B5
:1006500069BFFFF758BF000030B5002904DB4FF039
:100660000044404264EB0101002B04DB4FF00044E6
:10067000524264EB0303994208BF904230BD000030
:10068000064C074D06E0E06840F0010394E80700DF
:1006900098471034AC42F6D3FFF74EFD042E000805
:1006A000242E000882B02DE9FF1FEFF3038001B470
:1006B000684600F1400000E901400C480168C1F8BB
:1006C00000D00B48D0F800D001BC80F30388BDE80F
:1006D000FF1F01B000BD0648D0F800D001BC80F378
:1006E0000388BDE8FF1F01B000BD000030000020FE
:1006F0002C00002010B54068064C4FF4A041A060CB
:1007000060604FF0006000F07DFE6068BDE8104062
:10071000004700005C0000204FF47A7302E01946A5
:10072000491EFDD2401EFAD2704710B5144603E0B0
:1007300010F8013B01F8013B1300A2F1010292B253
:10074000F6D1204610BDFEE7002201E000F8012BA3
:100750000B00A1F1010189B2F8D170470FB44FF439
:100760008060F0B585B0002500F00AFD374E0746E1
:100770003078FF2806D00021354A1278904203D104
:10078000012002E00121F7E70020014356D00BAA27
:10079000144638460A9901F083FD69460A9800F02C
:1007A000E7FB864608E01DF805006D1CEDB2012848
:1007B00001D002280CD0241DBEF1010EF3D2B07876
:1007C0002268FF2809D00021904208DB012007E0C1
:1007D000E41D24F007040834EEE70121F4E70020CB
:1007E00001432BD039461BA000F004FF70781A4C4F
:1007F00080070BD5207800F03DF938B1384600F07D
:1008000028FC02463946154801F035FD707840074E
:100810000BD5607800F02EF938B1384600F019FC9D
:10082000024639460E4801F026FD706830B1384660
:1008300000F00FFCC1B2726838469047384600F0AD
:100840007BFC05B0F0BC5DF814FB000054000020F8
:10085000270000200D0A000014000020003801408D
:10086000004400407047000070B5104D00244FF464
:10087000A0702C7000F084FC686000210C4D0D4BC2
:10088000FF226A545A54491CC9B20529F9D30022DF
:10089000032300EB4211521C4C610B720C61CC60C3
:1008A000D2B28C610A2AF4D370BD0000440000204B
:1008B00014000020190000202DE9F74F009801F0E6
:1008C000BDFB45490446454E085DFF2803D13078FD
:1008D0000855401C3070444F0B5D41A2386800251C
:1008E00000EB43134FF0010B1A600A5DDFF8FCA028
:1008F00000EB4212DFF8F89055710B5D032200EB1C
:100900004313DFF8F08083F807B00B5D00EB43136F
:100910001A720B5D00EB4313C3F814A00A5D00EBE1
:100920004212D4610B5D00EB4313C3F80C900B5DD6
:1009300000EB4313C3F81080095D00EB41108561A3
:100940002D4820F81450019800F01AFC2A49283943
:1009500041F82400009801F071FB1F490446491F2B
:10096000085DFF2803D130780855401C30700B5DBE
:10097000386822A200EB43131A600A5D00EB4212B2
:1009800055710B5D032200EB431383F807B00B5D39
:1009900000EB43131A720B5D00EB4313C3F814A072
:1009A0000A5D00EB4212D4610B5D00EB4313C3F808
:1009B0000C900B5D00EB4313C3F81080095D00EB56
:1009C00041108561029800F0DBFB0B49143941F8B6
:1009D0002400BDE8FE8F0000190000204400002024
:1009E000555341525278000048000020151E00085F
:1009F00071220008952100089000002055534152B3
:100A0000547800004FF496729100FFF755BF000034
:100A100070B503210FA0FFF7A1FE154D00246868F3
:100A200000EB4410416979B1C279012A06D0022A4B
:100A300008D0032A04D0042A06D103E0007F02E094
:100A4000884701E0C0698847641CE4B20A2CE6D3F9
:100A500070BD0000546F732044657669636520495A
:100A60006E69742E2E2E2E2E2E2E2E2E2E0000006F
:100A700044000020FF2808D00549496801EB4010D8
:100A80004069002800D00120704700207047000016
:100A900044000020BAB04FF000084646399001F0FB
:100AA000CDFA05460120034601460090052235A8EF
:100AB00000F084FBDFF87C915F4F4FF03C0B4FF46C
:100AC000966457F825002146FFF73EFE0023224694
:100AD0001946399801F074FB014657F8250035AAEC
:100AE00000F0D8FB9DF8E210044641B10629E6D09B
:100AF000052974D0032251A0FFF730FEDFE79DF8EF
:100B0000D700292858D02A2848D02C2806D02F28AA
:100B100029D003A94AA000F05FFD22E04B4981F8EB
:100B200000B057F82510085DB04211D1484A641C46
:100B300002EB80202144521400F055F999F814007A
:100B400018B13246761CB6B207E0324641A105E044
:100B500099F814000028F8D0324644A103A800F008
:100B60006BFA044641E00120002689F8140000F0E9
:100B7000B9FC364981F800B057F82500204401F04F
:100B80008BFB00F0F5F857F82500204401F084FBBA
:100B9000C0F38F208046024638A1DFE7701E404533
:100BA00023D100F0C3F8002189F8141000F09AFC5A
:100BB0002748FFF79FFD18E0244903A881F800B0FB
:100BC00033A100F039FA04460DF10C0A0AEB0400D7
:100BD00000F002FA204484B20AEB040000E024E0B2
:100BE0002DA100F029FA204484B24FF0010ACDF87B
:100BF00000A057F8250053460522817835A800F05B
:100C0000DDFA03A8CDF800A0CDE90104294C0123A9
:100C10001A4654F8250035A900F0DBFA024654F8CC
:100C20002510399801F027FB49E757F825100122D4
:100C300021A061E7243F0020680000202564000017
:100C4000B9CCBCFEB4EDCEF3000000005C00002087
:100C5000005000084E6F742045726173655B256417
:100C60005D204661696C0D0A0000000050616765F7
:100C70005B25645D204F4B0D0A00000045726173D7
:100C8000655B25645D4B62204F4B0D0A0000000040
:100C900046696E6420000000204F4B200D0A54521C
:100CA000544F5320426F6F7420566572332E300DAF
:100CB0000A0000007C000020257300000149086044
:100CC000704700001404014070B505464FF430260B
:100CD000304600F077F8042811D1094C206940F023
:100CE000020020616561206940F0400020613046CB
:100CF00000F068F8216941F6FD721140216170BD74
:100D00000020024008490420CA68D20701D001200F
:100D10007047CA68520701D502207047C968C906E2
:100D2000FBD5032070470000002002400248016903
:100D300041F080010161704700200240F0B5064695
:100D40004FF400570D46384600F03CF804280CD10B
:100D5000064C206940F0010020613580384600F0E3
:100D600031F82169BA1E11402161F0BD0020024016
:100D7000F8B5044600200426009000F017F820463D
:100D800000F086F90446084D009807E005EB402086
:100D9000FFF79AFF06460098401C0090A04201D23F
:100DA000042EF3D0F8BD00000050000803480249AB
:100DB00041600349416070472301674500200240BC
:100DC000AB89EFCD00B50346FFF79CFF02E0FFF7CC
:100DD00099FF5B1E012803D0002B00D1052000BD28
:100DE000002BF4D1FAE738B50C46851800900DE0D9
:100DF0002188FFF7A3FF208800990988884201D045
:100E0000002038BD0098A41C801C00908542EFD8BB
:100E1000012038BD03E010F8013B01F8013B13004D
:100E2000A2F1010292B2F6D170472DE9F0411546C8
:100E30000E46804600F038F96F0AE80500D07F1CA6
:100E4000002405E008EB442000F01EF9641CA4B265
:100E5000BC42F7D3002407E008EB4400641C36F8DA
:100E6000021BA4B200F01EF92800A5F10105ADB2E5
:100E7000F2D1BDE8F04100F009B970B51678056807
:100E8000002416B1B5FBF6F4A4B20D440560117848
:100E9000994202D2491C117001E0291B01600068CF
:100EA0001178B0FBF1F080B270BD000010B500F019
:100EB000FDF800280AD100F0F9F8002806D104490D
:100EC00001200875BDE8104000F00CBB10BD00000B
:100ED000243F0020F0B5CC78002204F00F03E40694
:100EE00001D58C7823430C784FF00F0C4FF0010E96
:100EF000DCB105680E880EFA02F42640A64210D135
:100F000096000CFA06F725EA070703FA06F5CE78ED
:100F10003D43282E02D0482E02D002E0446100E07A
:100F20000461521C082AE5D305600A88FF2A1CD9EF
:100F30004468002202F108060EFA06F50E882E40DB
:100F4000AE420ED196000CFA06F7BC4303FA06F740
:100F5000CE783C43282E00D14561CE78482E00D172
:100F60000561521C082AE5D34460F0BD0161704759
:100F700030B500221446134628E0252D02D0012B5F
:100F800004D022E00123641CA4B21EE0642D04D12D
:100F900001238B54521C92B200230578662D04D194
:100FA00002238B54521C92B200230578732D04D176
:100FB00003238B54521C92B200230578632D04D175
:100FC00004238B54521C92B20023401C0578002D40
:100FD000D3D1204630BD00002DE9FE4380461548A0
:100FE0000025006800901348001D00680290114819
:100FF000083000682C466E463E2701900FE0B0FB9B
:10100000F7F107FB110000F065FB08F8050056F842
:1010100024006D1CB0FBF7F0EDB246F8240056F842
:1010200024000028EBD1641CE4B2032CF7D328463B
:10103000BDE8FE83E8F7FF1F0FB410B5044604AA0D
:10104000039901F02DF9204600F003F810BC5DF87B
:1010500014FB002101E0491C89B210F8012B002A81
:10106000F9D108467047427800784FF6FF7321B1F6
:1010700003EA002142EA0100704703EA0221084323
:10108000704700F047F8FCE7FFF71EBEFFF74EBEC3
:1010900001B50098C10503D0012101EB502008BD26
:1010A000400A08BDFFF74ABEFFF780BE0023024A90
:1010B0000249034800F006B8243F0020004C000815
:1010C000150E000870B5144601EBC3250646042230
:1010D00021462846B0472288B2F5006F01D9012089
:1010E00000E00020042A01D2012100E00021084391
:1010F0000DD128462146B0472088001F81B2201D0F
:1011000000F0F6FA6188814201D1012070BD002013
:1011100070BD000071B605480168054A01F4E06140
:1011200011430160BFF3408FFEE700000CED00E0CB
:101130000400FA05FEE700000949002208380968A2
:1011400003E0814209D00A4619460B68002BF8D10A
:10115000002A01D000201060704713607047000023
:101160004C00002050F8040C083870470349002256
:101170000860026009680820486070474C00002041
:101180000D4910B50830096882B20CE04C68431A6A
:101190001B1B934206D3601842600A680260086015
:1011A000083010BD014608680028EFD148680023C8
:1011B0000844C0E90032F2E74C00002030B57E253B
:1011C000039C05707F25057382704170C37344735F
:1011D00030BD2DE9F0410546DDE907700C46069962
:1011E000E27023712172608108B1C11C00E000210E
:1011F000E18021782970E17B012611B1012904D019
:1012000008E0A1786970617802E061786970A1787E
:10121000A9700326E178A955761C2179A955E188A2
:10122000761C090AA955761CA179A955761C88B1A6
:10123000207AA8556089761C000AA855761CA07AE9
:10124000A855761C6289A9193846FFF76EFA60899D
:10125000304486B2607B012802D002280CD013E013
:101260003146284600F044FA010AA955761CB1B26D
:101270006854491C8EB207E0701E81B2284600F007
:1012800051FAA855761CB6B2207BA855761CB0B290
:10129000BDE8F0812DE9F05F0546012090732878C4
:1012A0001178012614464FF0000888426AD1E07B8D
:1012B0004FF006094FF0020A10B1012806D014E0E1
:1012C00068786178884207D103260EE06878A178B3
:1012D000814206D0FF2804D082F80E900020BDE89D
:1012E000F09F0326FF282CD00027A85D761CE07015
:1012F000A85D761C2071A85D4FF6FF71761C01EA8F
:101300000020E080AA5D06F101061043E08012D0C3
:10131000AA5D761C2272AA5D761C01EA0221618117
:10132000AA5D06F10108114301EB08026181C91CA5
:1013300096B28842D2D1607B022804D001280AD01C
:1013400014E00127D1E73146284600F0EBF9A95D0A
:10135000814214D10AE03146284600F0C9F983469B
:10136000A8190121FFF77FFE584508D1012F03D0AE
:101370000020A0734046B2E784F80E90FAE784F8A4
:101380000EA0ABE705209073A8E7704770B50F2358
:10139000C278017801244FF0E025DAB1124A1268D0
:1013A00002F4E062C2F5E062120AC2F10406D34020
:1013B0004278B24086781E400C4B16433201CA5424
:1013C000007800F01F018C40400905EB8000C0F858
:1013D000004170BD01F01F008440480905EB80000A
:1013E000C0F8804170BD00000CED00E000E400E0BA
:1013F0000249084302490860704700000000FA05EE
:101400000CED00E0024A11400143024801607047C0
:1014100080FFFF1F08ED00E070470000044A00292C
:10142000D16901D0014300E08143D16170470000E0
:1014300000100240044A0029916901D0014300E0F4
:1014400081439161704700000010024030B5204A8E
:101450005168204B11F00C0103D0042901D0082958
:1014600001D0036012E05168536801F470114FF02D
:10147000020413F4803F04EB914102D053689B03B4
:1014800001D5154B00E0134B5943016051680F2300
:1014900003EA1111114B5C5C0168E1404160546842
:1014A000072505EA14241C5D21FA04F484605468BD
:1014B00005EAD4241B5DD940C1605268032303EAC6
:1014C0009232064B1B1F9A5CB1FBF2F1016130BDF9
:1014D0000010024000127A0000093D0004000020C4
:1014E00070470000044918200A4608800023034979
:1014F000034800F007B80000243F0020004C00081B
:101500002B0E00082DE9F041074610880E46001FFB
:1015100081B21D461446101D00F0EAF86080228852
:1015200006EBC5202146BC46BDE8F04160470000FF
:101530000CB50022264800920192016841F48031E6
:1015400001604FF4A063016801F40031019100993A
:10155000491C0091019911B900999942F3D1016890
:10156000890333D5012101911A490A6842F010021A
:101570000A600A6822F003020A600A6842F0020266
:101580000A604168416041684160416841F480619E
:101590004160416821F47C114160416841F4E811E7
:1015A0004160016841F08071016001688901FCD5EA
:1015B000416821F003014160416841F0020141604E
:1015C0004168C1F381010229FAD10CBD01920CBD21
:1015D0000010024000200240002204E0401C521C87
:1015E00001F8013B92B20378002BF7D1002008707C
:1015F0001046704710B504460B460846FFF729FD14
:1016000003442046FFF725FD411C08D003E014F8F1
:10161000011B03F8011B401EF9D20020187010BDF9
:1016200000F018B94FF0E02004494161044AF0216C
:101630001170002181610721016170473F1901008C
:1016400023ED00E00F4810B5016841F00101016091
:1016500041680D4A1140416001680C4A1140016027
:10166000016821F480210160416821F4FE0141609C
:101670004FF41F018160FFF75BFF05494FF00060E9
:10168000086010BD001002400000FFF8FFFFF6FEEA
:1016900008ED00E0FFF70AFCFFF708FD0A4D0B4CD0
:1016A0000B4F0A26C82000F051F92078401EC0B226
:1016B0002070297D09B12670F4E70028F2D1384660
:1016C000FFF718F8EEE70000243F00205C00002040
:1016D00000500008092801D8303006E0A0F10A01C6
:1016E000192901D8373000E03D30C0B27047000002
:1016F000F0B5FF230A4E1C46002206F5807707E06E
:1017000010F8015B6540745D5C407B5D521C92B2D9
:101710008A42F5D34FF6FF7000EA03202043F0BD64
:10172000C92B00080246002002E012F8013B584095
:101730000B00A1F1010189B2F7D1704770B50D4CD2
:10174000E078132802D0A078401CA0702078401CBC
:10175000C0B2207064280CD9064A00252570521C9E
:101760001423A178D01CFFF788FB024918310870B8
:10177000A57070BD2400002070B54FF47070FFF7A5
:10178000FFFC0E4C022204F11801206100234A7074
:101790001A4601254B6002EB420100EB0111521C7D
:1017A0000D818B610B60CB61D2B20B84142AF2D312
:1017B0001320E07002486361036070BD24000020C4
:1017C0005000002010B50446FFF7D6FF04E0211DAD
:1017D0000EC900F09BF8103420680028F7D1BDE84E
:1017E000104000F021B8FFF713F9642000F0AEF8C4
:1017F00000F002F8F9E700000A4810B50468002C70
:101800000ED00AE0A07AC10707D0800705D5E068AE
:101810008047A07A20F00200A0722468002CF1D149
:1018200010BD00005000002008B5FFF7FBFE4FF48C
:10183000FA600090054B00220549132000F030F8B3
:10184000BDE80840132000F049B90000C02B000893
:10185000E717000810B5FFF771FF00F0DBF8094843
:101860004078402805D1032107A0FEF777FFFFF756
:1018700051FC0A480068002803D0BDE8104000F081
:10188000A3B910BD3C000020544F532054696D652E
:101890004F7574205265736574000000500000207D
:1018A0002DE9F0479846089F91460E0029D0164D25
:1018B00000EB4004286900EB04100189012920D1C4
:1018C000008C38B9B8B2FFF75BFC296901EB041151
:1018D0000F84C861286900EB0410018CC06900F016
:1018E00057F92A69022102EB04121181C2F82C80F7
:1018F00056604A46314600F0CDF8296901EB0411E3
:101900000860BDE8F087000024000020F8B5144608
:101910000D4A0D460021166901EB410206EB021249
:1019200012893AB1012A05D0491C89B21429F3D38E
:101930000020F8BDCEB20093014623462A46304629
:10194000FFF7AEFF0120F8BD24000020104930B49D
:101950004978012919D00E4B0022183BD97801EBA8
:101960004104196901EB0414A261DA7802EB420226
:1019700001EB02125061D878102200EB400001EB1D
:101980000010028130BC00F0D1B830BCFEF7C4BEFC
:101990003C0000200849496801EB4010017A21B160
:1019A000064A41791278914201D000207047012106
:1019B0000172084670470000440000202700002004
:1019C0002DE9F041114D124E04460227686800EBE4
:1019D0004411087A002806D0012810D0022804D02B
:1019E00003280CD00020BDE8F08148793178884286
:1019F00001D10120F7E7204600F0FEF8E6E768682D
:101A000000EB4410077230784871F2E74400002080
:101A10002700002013480021036901EB410003EB7C
:101A200000100289022A02D0102A12D10BE082692A
:101A3000521C826144F6206082420AD9094A402041
:101A40001832507005E000228261426932B1521EA4
:101A50004261491CC9B21429DFD3704702220281B6
:101A6000F7E7000024000020094AD17881420ED017
:101A700001EB4103116901EB0313D360D07000EB5C
:101A8000400001EB001000689060FEF70BBE70474D
:101A900024000020031F1960191F083B0860002163
:101AA00019601B1F19601B1F19601B1F19601B1F6A
:101AB00019601B1F19601B1F19601B1F19601B1F5A
:101AC00019601B1F19601B1F19601B1F1960191F4C
:101AD0000A604FF0807140F8401D704700EB4001F4
:101AE0000348026902EB011109688160FEF7F3BD4A
:101AF0002400002010B5142814D200EB40010A483D
:101B0000006900EB0111088901280BD0042809D0D5
:101B1000082807D0082008810020486100F006F856
:101B2000012010BD002010BD24000020F0B4164B91
:101B30000220164C19691025A1F8980300200326ED
:101B40001A6900EB400102EB01110A89022A02D056
:101B5000202A13D105E0D978814213D0F0BCFFF7D9
:101B600083BF91F82220276807EB42173F7A012FA5
:101B700004D10D81216801EB42110E72401CC0B2EC
:101B80001428DDD3F0BC704724000020480000205A
:101B9000084420F00300303820F0070070470000B0
:101BA00014280DD200EB40020648006900EB021039
:101BB0000289042A04D0002282611022028141613C
:101BC000704700002400002010B50A4C206800284F
:101BD0000FD0817AC9070CD001898288914204D341
:101BE000C068804721680020088120680189491C5D
:101BF000018110BD50000020084AD17801EB41035B
:101C0000116901EB031383F82200D078202300EB45
:101C1000400001EB00100381FFF788BF2400002083
:101C200070B5134D40F225542146284600F0E7F9DF
:101C3000B8B1281D00880F4AC1B2A2F10A03D088AA
:101C4000DB88984213D2A2F13203DB681954D088A2
:101C5000401CD08008480A21C078BDE87040FFF7DA
:101C60009FBF21462846BDE8704000F0C2B870BD55
:101C7000004C00409A0000201E00002070B5134C5C
:101C800040F225552946204600F0B9F9B0B1A088A8
:101C90000F4AC1B2A2F10A0310891B89984213D2DC
:101CA000A2F132031B6919541089401C10810948A4
:101CB0000A210079BDE87040FFF772BF294620462F
:101CC000BDE8704000F095B870BD000000500040C5
:101CD0009A0000201E00002070B5134D40F22554DC
:101CE0002146284600F08BF9B8B1281D00880F4A1C
:101CF000C1B2A2F10A0310881B88984213D2A2F144
:101D000032031B6819541088401C108008480A21AF
:101D10000078BDE87040FFF743BF21462846BDE884
:101D2000704000F066B870BD003801409A00002095
:101D30001E00002070B5134D40F225542146284660
:101D400000F05DF9B8B1281D00880F4AC1B2A2F1B8
:101D50000A0350885B88984213D2A2F132035B6871
:101D600019545088401C508008480A214078BDE82A
:101D70007040FFF715BF21462846BDE8704000F0CF
:101D800038B870BD004400409A0000201E000020BA
:101D900070B5134D40F225542146284600F02FF926
:101DA000B8B1281D00880F4AC1B2A2F10A03908879
:101DB0009B88984213D2A2F132039B6819549088F1
:101DC000401C908008480A218078BDE87040FFF7E9
:101DD000E7BE21462846BDE8704000F00AB870BD55
:101DE000004800409A0000201E000020C9430180E6
:101DF00070470A0A01219140C943018070470029B8
:101E0000818902D041F4005101E021F40051818127
:101E10007047000010B5044600F02CF900F05CF8A3
:101E20004FF4E131052C16D2DFE804F00306090C6B
:101E30000F00252208480AE02622084807E027224A
:101E4000074804E03422074801E007483522BDE88E
:101E5000104000F00BB810BD0038014000440040B5
:101E600000480040004C00400050004030B585B0B4
:101E7000054600910021ADF80810ADF804100C20C3
:101E8000ADF80610ADF80C10ADF80A00144669461E
:101E9000284600F025F9012240F22551284600F09D
:101EA00007F901212846FFF7AAFF40212846FFF73E
:101EB0009DFF4FF48060FFF79BFA8DF810400220E1
:101EC0008DF8110001208DF812008DF8130004A880
:101ED000FFF75CFA05B030BDF8B504462B482C4D31
:101EE000061584420BD10D200090334628462A4621
:101EF000611500F05DF801218803FFF79BFA254882
:101F000084420BD104200090082328462A4604214D
:101F100000F04EF801214804FFF780FA1E48C7146C
:101F2000844210D1092000901C483B4602463146AD
:101F300000F03EF801218D042846FFF76FFA0121D9
:101F40002846FFF777FA1648164D84420BD1112028
:101F500000903B4628462A46314600F029F80121E8
:101F6000C804FFF75BFA104884420DD131200F4AB4
:101F7000009004239114284600F01AF8BDE8F840B8
:101F800001210805FFF74ABAF8BD000000380140FA
:101F9000000801400044004000480040000C01409F
:101FA000004C00400010014000500040001401406F
:101FB000F8B50C4606461D46174601210698FFF760
:101FC00039FAADF8004003208DF8020018208DF892
:101FD000030069463046FEF77DFFADF8005004204F
:101FE0008DF8030069463846FEF774FF21463046F7
:101FF000FEF7BCFF29463846FEF7B8FFF8BD70B5BE
:1020000001F01F0501260024C1F3421306FA05F270
:10201000012B0FD0022B0FD0838A4FEA11210088A9
:10202000134206FA01F600EA060001D000B10124CD
:10203000204670BD8389F0E7038AEEE70B4A811AD8
:10204000131590420DD006DC0949401807D098427C
:1020500009D102207047994205D104207047012020
:10206000704703207047002070470000004C00407C
:1020700000BCFFBF05280ED2DFE800F0030507090A
:102080000B000648704706487047064870470648E8
:102090007047064870470020704700000038014034
:1020A0000044004000480040004C00400050004008
:1020B00010B5C1F3421301F01F040121A140012B0F
:1020C00007D0022B07D01430002A026805D00A433B
:1020D00004E00C30F8E71030F6E78A43026010BDE8
:1020E00030B50446008A85B00D464CF6FF710840B5
:1020F000E98801432182A0894EF6F3110840A9889E
:102100002A8911436A8902431143A181A08A4FF6AB
:10211000FF410840A9890143A1826846FFF796F96B
:102120001B48844201D1039800E00298A189090468
:10213000002900EBC00101EB0010296802DA4FEA28
:10214000410101E04FEA8101B0FBF1F06422B0FBF4
:10215000F2F14FEA01114FEA11136FF018056B43CA
:1021600000EB8300A3891D044FF0320306D503EB77
:10217000C000B0FBF2F000F0070005E003EB001038
:10218000B0FBF2F000F00F000843208105B030BD35
:102190000038014070B514460D460646FFF74EFF65
:1021A000064951F82000FEF7DDFF82B200232946E0
:1021B000304600F005F8208070BD00006800002067
:1021C0002DE9FF5F9B4616460098FFF737FFDFF8C3
:1021D00094900446002119F80400FFF7F1FBDFF8A2
:1021E00088A080465AF82400FEF7BCFF05460AF195
:1021F0003207B8F1000F27D040F22558012241469E
:102200000098FFF755FF194809F10501AE42007823
:10221000085500D3AEB21449283121F814600021CA
:1022200027F814105FEA0B0103D00846FFF78EFB76
:1022300001E0FFF75FFC19F80400FFF7ABFB002299
:1022400041460098FFF734FF019830B137F8142069
:102250005AF824000199FEF768FA37F8140004B020
:10226000BDE8F09F19000020680000202700002032
:102270001288AFF3008010B5002306E0048824061E
:10228000FCD5CC5C84805B1C9BB29342F6D310BD22
:102290004FF48020FEF712BD00687047FEE7000093
:1022A00037B514460846064B6A46214600F0C8F882
:1022B00004466946002000F066FC20463EBD000052
:1022C000872B000802E008C8121F08C1002AFAD1B3
:1022D00070477047002001E001C1121F002AFBD1A6
:1022E000704700002DE9FF5FDDE90220010DDDF8F8
:1022F00038B0024310D10F9801244CA2012808D015
:10230000002100980F9BC0E90021C0E90243BDE80D
:10231000FF9F6FEA0B01F4E7A1F2FF3144F6105082
:1023200041430D140F9801280ED0A5EB0B00401C63
:102330004FF000043E4EDFF8FC90B0F1000AA046DA
:1023400005DACAF1000717E0CBF10000F0E7074615
:1023500012E0F80707D02246334640464946FDF7CB
:10236000AAFF804689462246334610461946FDF7A5
:10237000A2FF04460E467F10002FEAD1DDE90201DC
:10238000BAF1000F42464B4602DAFDF794FF01E036
:10239000FEF703F804460E460022274BFEF75CF9D1
:1023A00003D84FF0FF30014607E00022234B2046C0
:1023B0003146FDF7D9FEFEF736F9102409E0002C6E
:1023C0000ADB0A220023FEF76DF8019B30321A5512
:1023D000641E50EA0102F2D1641C019AC4F1110397
:1023E00014440F9A012A09D00122084301D15B4508
:1023F0000FDD4FF0000205F101050DE0084303D1A8
:10240000A3EB0B056D1E09E000204FF0110B0F90A0
:1024100088E701DA00226D1E002A83D000980F9908
:10242000C0E90231C0E9004571E70000300000005A
:10243000000024400000F03F0000F0430000E03FB7
:102440002DE9FF4F95B09B4689460646002512E2CE
:10245000252878D10024761CF94A274601210594C5
:102460003378203B01FA03F0104202D00443761C7B
:10247000F6E730782A2811D06FF02F033078A0F1DA
:102480003002092A16D8059A44F0020402EB8202AF
:1024900003EB42021044761C0590EFE759F8042B39
:1024A0000592002A03DA504244F40054059044F0A7
:1024B0000204761C30782E2816D116F8010F44F04D
:1024C00004042A280DD06FF02F023078A0F13003D9
:1024D000092B09D807EB870302EB4303C718761CC7
:1024E000F3E759F8047B761C30786C280FD006DCB3
:1024F0004C2817D068280DD06A2814D104E074281D
:1025000010D07A280FD10DE044F400140AE044F40E
:10251000801401E044F440147278824202D1761CA7
:1025200004F58014761C307866280BD013DC58280C
:1025300077D009DC002875D04528F6D04628F4D09D
:1025400047281AD19FE118E0632835D0642879D054
:10255000652812D197E1702873D008DC6728F1D084
:1025600069286FD06E280DD06F2806D1B5E073288A
:102570002CD0752875D0782874D05A461799904772
:102580006D1C76E1C4F30250022809D003280DD057
:10259000D9F8001004280DD00D6009F1040968E194
:1025A000D9F80010EA17C1E90052F6E7D9F800108F
:1025B0000D80F2E70D70F0E719F8041B8DF800109C
:1025C00000208DF80100EA46012003E059F804AB31
:1025D0004FF0FF3061074FF0000102D40DE008F129
:1025E00001018846B9420FDA8045F8DB1AF8081075
:1025F0000029F4D108E008F1010188468142FADBA4
:102600001AF808100029F6D105985B46A0EB0807D8
:1026100021463846179A00F09EFA284400EB080538
:1026200007E04DE02BE10DE01AF8010B5A4617992F
:102630009047B8F10108F7D25B4621463846179A11
:1026400014E142E00A220092C4F302524FF0000A61
:10265000022A08D059F804CB032A4FEAEC710AD0B9
:102660000DE029E02AE009F1070121F00702F2E874
:1026700002C1914609E00FFA8CFC4FEAEC71042A82
:1026800003D14FFA8CFC4FEAEC71002907DA0A46B5
:102690000021DCF1000C61EB02012D2202E0220599
:1026A00004D52B228DF80420012203E0E20701D09B
:1026B0002022F7E7904653E00A2102E010220DE0C5
:1026C00010214FF0000A00910BE010224FF0000A99
:1026D00044F004040827009203E008224FF0000AA7
:1026E0000092C4F30252022A05D059F804CB00210B
:1026F000032A08D009E009F1070121F00702F2E8F6
:1027000002C1914605E01FFA8CFC042A01D10CF0AD
:10271000FF0C4FF00008220722D5702827D0009B1D
:1027200083F0100353EA0A0309D15CEA010206D0E0
:1027300030228DF804208DF8050002229046009B7F
:1027400083F0080353EA0A030AD15CEA010201D1CB
:10275000620705D530228DF804204FF001087F1E56
:10276000582809D037A003900EA8029013E0402209
:102770008DF804200122E1E737A0F4E753466046D4
:10278000009AFDF78FFE84460398825C0298A0F1C0
:102790000100029002705CEA0100EFD1029806A9E4
:1027A000A1EB000000F1200A600702D524F4803478
:1027B00000E00127574502DDA7EB0A0000E00020FA
:1027C00000EB0A01009005984144A0EB0100059040
:1027D000E00306D45B462146179A059800F0BBF942
:1027E0000544002706E001A85A46C05D17999047A6
:1027F0006D1C7F1C4745F6DBE0030CD55B4621468C
:10280000179A059800F0A7F9054404E030205A46CD
:10281000179990476D1C0099481E00900029F5DC1F
:1028200008E0029802995A460078491C02911799CB
:1028300090476D1CBAF10001AAF1010AF1DC6BE1CD
:102840000928010030313233343536373839616286
:10285000636465660000000030313233343536374A
:1028600038394142434445460000000000F060F919
:10287000054406F10106307800287FF4E9AD19B06F
:102880002846BDE8F08F620700D4062709F1070249
:1028900022F0070CFCE80223E14603F000485FEA5F
:1028A000080C02D00FF27C2C0DE05FEA045C02D52C
:1028B0000FF2742C07E05FEAC47C02D00FF26C2C9C
:1028C00001E0AFF2700C4FF0FF3823F00043CDF879
:1028D00050C065280CD006DC452809D046281DD0FC
:1028E00047283ED13EE0662818D0672839D139E024
:1028F0000021112F01DB112000E0781CCDE900013F
:1029000006A90EA8FFF7EEFCDDE90F010E9A039170
:102910000021009207F1010A04914EE04FF00040BF
:102920000097CDE9011006A90EA8FFF7DBFCDDE951
:102930000F0203920E9B11990022DDF80CA0009368
:10294000049219B907F1010100EB010AB7EB0A0083
:1029500004D4C0F1FF3007F1010A0490AAEB07008C
:10296000019046E0012F00DA01270021112F01DD3F
:10297000112000E03846CDE9000106A90EA8FFF7B6
:10298000B1FCDDE90F010E9A039100210491009240
:10299000BA4621070CD40399514500DA8A46BAF1A8
:1029A000010F05DD009AAAF10101515C302908D020
:1029B000B84202DA10F1040F06DA0121CDE9011064
:1029C00017E0AAF10101E9E7002805DC04990144B8
:1029D0000491AAEB000102E0411C514500DD8A464A
:1029E0000499A0EB010000F1010001904FF00040BC
:1029F0000290200704D40198504501DBCDF80480F3
:102A000000208DF84F0002980DF14F07B0F1004FF4
:102A100025D02B200E9002984FF0020800280CDAE7
:102A2000404202902D200E9007E00A210298FDF707
:102A300023FD3031029007F8011DB8F10001A8F123
:102A40000108F2DC02980028EFD1791E0E98087078
:102A5000307800F0200040F0450007F8020D12A881
:102A6000A0EB070000F107081498007800B10120DE
:102A700000EB0A01019801EBE07105984144A0EBDD
:102A80000100A0F101000590E00306D45B46214659
:102A9000179A059800F05FF805441498007820B163
:102AA0005A461799904705F10105E00323D55B4687
:102AB0002146179A059800F04EF805441BE004984B
:102AC000002807DBDDE90301884203DD0098405C54
:102AD000179901E0179930205A46904704986D1CC9
:102AE000401C04900198401E019004D12E205A46AB
:102AF000179990476D1CBAF10001AAF1010ADEDCBA
:102B000005E017F8010B5A46179990476D1CB8F16C
:102B10000001A8F10108F4DC5B462146179A0598EC
:102B2000A4E600002D0000002B00000020000000A3
:102B30002DE9F041044600251E461746880405D4B9
:102B400006E039462020B04705F10105641EF8D59E
:102B50002846BDE8F0812DE9F041044600251E46D7
:102B60009046C80301D5302700E02027880405D50A
:102B700006E041463846B04705F10105641EF8D528
:102B80002846BDE8F0810A68531C0B60107070473E
:102B90000748FEF7EBFAFDF767FE0648FDF732FF40
:102BA0000548FDF72FFF0548FEF70CFEFEE7000085
:102BB000A40000200038014000440040CC2D000853
:102BC0005461736B526F6F740000C1814001C0800B
:102BD0004101C0804100C1814001C0804100C181EC
:102BE0004000C1814001C0804101C0804100C181DD
:102BF0004000C1814001C0804100C1814001C080CE
:102C00004101C0804100C1814001C0804100C181BB
:102C10004000C1814001C0804100C1814001C080AD
:102C20004101C0804100C1814000C1814001C0809C
:102C30004101C0804100C1814001C0804100C1818B
:102C40004000C1814001C0804101C0804100C1817C
:102C50004000C1814001C0804100C1814001C0806D
:102C60004101C0804100C1814000C1814001C0805C
:102C70004101C0804100C1814001C0804100C1814B
:102C80004000C1814001C0804100C1814001C0803D
:102C90004101C0804100C1814001C0804100C1812B
:102CA0004000C1814001C0804101C0804100C1811C
:102CB0004000C1814001C0804100C1814001C0800D
:102CC0004101C0804100C1814000C0C101C3030275
:102CD000C2C60607C705C5C404CC0C0DCD0FCFCEA8
:102CE0000E0ACACB0BC90908C8D81819D91BDBDAD8
:102CF0001A1EDEDF1FDD1D1CDC14D4D515D71716F8
:102D0000D6D21213D311D1D010F03031F133F3F207
:102D10003236F6F737F53534F43CFCFD3DFF3F3EE7
:102D2000FEFA3A3BFB39F9F83828E8E929EB2B2A77
:102D3000EAEE2E2FEF2DEDEC2CE42425E527E7E637
:102D40002622E2E323E12120E0A06061A163A3A2A7
:102D50006266A6A767A56564A46CACAD6DAF6F6E27
:102D6000AEAA6A6BAB69A9A86878B8B979BB7B7A57
:102D7000BABE7E7FBF7DBDBC7CB47475B577B7B677
:102D80007672B2B373B17170B05090915193535247
:102D90009296565797559594549C5C5D9D5F9F9E67
:102DA0005E5A9A9B5B99595898884849894B8B8AF7
:102DB0004A4E8E8F4F8D4D4C8C44848545874746B7
:102DC000868242438341818040000000950A0008CA
:102DD00000380140FC2D0008401F00009516000837
:102DE00000000000FC2D0008D007000000000000DB
:102DF0000000000000000000000000005461736B40
:102E000030000000242E00080000002068000000B0
:102E1000C42200088C2E000868000020D842000060
:102E2000D422000802040608000000000102030486
:102E3000010203040607080900000000000000006A
:102E40000000000000000000000000000000000082
:102E50000000000000000000000000000000000072
:102E60000000000000000000000000000000000062
:102E70000000000000000000FF00FF000000000054
:0C2E800001000000000000000000000045
:0400000508000131BD
:00000001FF
