:020000040800F2
:1050000098B600204551000805B60008458B0008F9
:1050100091B20008315F0008C139010800000000AA
:10502000000000000000000000000000A9E40008EB
:10503000E96B0008000000008DB700084BED000888
:105040005F5100085F5100085F5100085F51000880
:105050005F5100085F5100085F5100082976000881
:105060005F5100085F5100085F5100085F51000860
:105070005F5100085F5100085F5100085F51000850
:105080005F5100085F5100085F5100085F51000840
:105090005F5100085F5100085F5100085F51000830
:1050A0005F5100085F5100085F5100085F51000820
:1050B0005F5100085F5100085F5100085F51000810
:1050C0005F5100085F5100085F5100085F51000800
:1050D0005F510008BD3201081D3301087D3301080E
:1050E0005F5100085F510008AD3901085F510008A9
:1050F0005F5100085F5100085F5100085F510008D0
:105100005F5100085F5100085F5100085F510008BF
:10511000FD3101085D3201085F5100085F51000850
:105120005F5100085F5100085F5100085F5100089F
:10513000DFF80CD000F0A2FC004800478D430108C6
:1051400098B600200648804706480047FEE7FEE77D
:10515000FEE7FEE7FEE7FEE7FEE7FEE7FEE7FEE727
:10516000EDED00083151000830B505462A460B46E2
:1051700012F8010B13F8014B08B1A042F8D01CB192
:10518000002802D06D1CF1E7284630BDF0B480EA5B
:105190000102D40F4200B2EB410F02D20246084690
:1051A00011464A0042D0C30DDDB2C1F3C752AD1A59
:1051B000202D35DAC1F3160141F4000204B1524248
:1051C000C5F1200602FA06F12A411044B3EBD05F84
:1051D00023D0C4B1012DA0EBC35009DCF0BC4FF0CB
:1051E000004202EAC35200F50000DBB200F0A1BBAE
:1051F000400000F1807000EBC350A0F1807040EAE5
:10520000D170490009E0490841EAC071A0EBC350E0
:1052100000F50000400800EBC350F0BC00F080BB7C
:105220006142012202EB4101001BF6E7F0BC70472E
:1052300081F00041AAE780F00040A7E780EA010280
:1052400010B502F00043400026D04A0023D04FEAB8
:10525000106101EB1261C0F35600C2F3560240F434
:10526000000042F40002A0FB0220A1F17F014FEAFE
:105270000040140401D000F1010050EA124001D4B2
:105280004000491EC2B20C0604EBD010401C40087E
:10529000802A02D003E0002010BD20F00100002988
:1052A00000DA0020184310BD30B480EA010202F099
:1052B000004530F0004221F0004015D0A0B1C0F30D
:1052C000C753C2F3C754C2F31601C0F31600E41A61
:1052D00041F4000140F400027D34914201D3641C8A
:1052E00000E04900002C02DA30BC002070474FF487
:1052F00000000023914201D3891A034340084FEA7A
:105300004101F7D151B1914202D14FF0004105E086
:1053100002D24FF0010101E06FF0010103EBC45034
:10532000284430BC00F0FCBA2DE9FE4F804681EAEB
:105330000300C00F0C46009021F0004123F000450F
:10534000B8EB0200A94105D24046214690461C46D2
:105350000B46024623F00040104304D1404621464C
:1053600003B0BDE8F08F270DC7F30A00C3F30A515D
:105370000290401A0190402866DAC3F3130040F40B
:10538000801B0098924620B10023D2EB030A63EB06
:105390000B0B01985946C0F14002504600F08FFABD
:1053A00006460D4650465946019A00F0A7FA10EB02
:1053B00008006141002487EA115284EAE7731A4326
:1053C0003BD0009A3AB3019A012A4FEA075210DC07
:1053D000001B61EB02014FF0004202EA0752CDE9E7
:1053E0000042001C41F5801132462B4600F0DBFAEA
:1053F000B6E7001B61EB0201001C41F580130018A9
:105400005B412018A2F5001747EB030140EAD57075
:10541000B6196D4111E06D084FEA360645EAC075D0
:105420004FEA0752001B61EB0201001C41F580119D
:1054300049084FEA30000019514132462B4603B06B
:10544000BDE8F04F00F0A2BA00980122400000230E
:10545000D0EB020263EBE073009821464FEAE07460
:10546000B8EB000061EB0401E9E783F000435BE780
:1054700081F0004158E72DE9FE4F81EA030404F072
:10548000004421F0004100944FF0000B23F0004352
:1054900050EA010402D052EA030404D1002001467C
:1054A00003B0BDE8F08FC3F30A54C1F30A552C448E
:1054B000A4F2F3340194A0FB0254C1F3130141F4AC
:1054C0008011C3F3130343F4801301FB024400FB78
:1054D000034E840A970A44EA815447EA8357A4FB9F
:1054E000076802958D0A05FB07854FEA932C04FB9C
:1054F0000C542705029D4FEA065847EA1637B5EBCC
:1055000008056EEB070C870E920E47EA811742EAF8
:105510008312A7FB0201B6EB0B0164EB00042B0D19
:1055200043EA0C335E1844EB1C50DA465146E7FB65
:105530000201C5F313044FEA0B3343EA14534FEA55
:105540000432019C43EA0603A4F10C040294009C7B
:10555000CDE900B400F027FAA2E72DE9F04D81EA89
:10556000030404F0004B21F0004514464FF0000AFC
:1055700023F0004150EA050220D054EA01021DD078
:10558000C5F30A570246C5F31303C1F31300C1F371
:105590000A5640F4801543F48013A7EB0608101B4D
:1055A000D64608F2FD3873EB050002D308F1010876
:1055B00001E092185B41B8F1000F03DA00200146C8
:1055C000BDE8F08D00204FF48011064684460EE0C1
:1055D000171B73EB050705D3121B63EB050306438B
:1055E0004CEA010C49084FEA300092185B4150EA3E
:1055F0000107EDD152EA030012D082EA040083EAE7
:105600000501084303D100224FF0004308E0101BBE
:10561000AB4102D20122002302E06FF001025310DD
:105620001AEB06004CEB085110EB0A0041EB0B01A2
:10563000BDE8F04D00F0AAB9C10F80EAE07008445F
:10564000CA079623002100F074B996230022114660
:1056500000F06FB90EB5C10F80EAE0700844CA07C8
:10566000002140F233438DE80E000A460B4600F05D
:105670009AF903B000BD0EB540F23341029100210A
:10568000CDE900110A460B4600F08DF903B000BDCC
:1056900000F0004220F00040C10DC0F3160040F4BD
:1056A00000007F2901DA00207047962903DCC1F150
:1056B0009601C84001E096398840002AF4D0404263
:1056C000704720F00040C10DC0F3160040F4000008
:1056D0007F2901DA00207047962903DCC1F1960189
:1056E000C840704796398840704770B5C1F30A5278
:1056F00001F000450024C1F3130140F2FF3341F4EF
:1057000080119A4201DA002070BD40F233439A4280
:10571000A2F2334203DC524200F0E0F800E0904095
:105720002C43F1D0404270BDC1F30A5210B5C1F311
:10573000130140F2FF3341F480119A4201DA002054
:1057400010BD40F233439A42A2F2334203DC52428C
:1057500000F0C4F810BD904010BD00F0004230F0E1
:1057600000400AD0C10D01F56071C0F3160042EA95
:105770000151C2084007114370470020014670479D
:1057800030B5002904DB4FF00044404264EB0101D6
:10579000002B04DB4FF00044524264EB03038B42C6
:1057A00008BF824230BD000030B5002904DB4FF055
:1057B0000044404264EB0101002B04DB4FF0004445
:1057C000524264EB0303994208BF904230BD00008F
:1057D00001F0004330B421F0004150EA010206D04C
:1057E0000A0DA2F56072C1F31301002A02DC30BC7D
:1057F00000207047440F44EAC104C100E01830BCE7
:1058000000EBC25000F08CB8002801DBC0F1004072
:10581000002901DBC1F1004181427047002801DB12
:10582000C0F10040002901DBC1F10041884270470E
:1058300030B50B46014600202022012409E021FA60
:1058400002F59D4205D303FA02F5491B04FA02F55D
:105850002844151EA2F10102F1DC30BD2DE9F05FF4
:105860000546002092469B468846064681464024CF
:105870001BE0284641464746224600F02FF8534693
:105880005A46C01A914110D311461846224600F0DC
:1058900016F82D1A67EB01084F4622460120002119
:1058A00000F00DF817EB00094E41201EA4F1010491
:1058B000DFDC484631462A464346BDE8F09F202AB1
:1058C00004DB203A00FA02F1002070479140C2F157
:1058D000200320FA03F3194390407047202A04DB89
:1058E000203A21FA02F00021704721FA02F3D04059
:1058F000C2F120029140084319467047202A06DB76
:10590000CB17203A41FA02F043EAE07306E041FA8D
:1059100002F3D040C2F1200291400843194670477B
:105920000029A8BF7047401C490008BF20F00100B3
:10593000704710B4B0FA80FC00FA0CF050EA010491
:1059400004BF10BC704749B1CCF1200421FA04F423
:1059500011FA0CF118BF012121430843A3EB0C01FC
:10596000CB1D0106000A002BBEBF002010BC7047F3
:1059700000EBC35010440029A4BF10BC7047401C6A
:10598000490008BF20F0010010BC704710B5002B83
:1059900008DA401C41F1000192185B411A4301D121
:1059A00020F0010010BD2DE9F04D92469B4611B14B
:1059B000B1FA81F202E0B0FA80F220329046FFF7AD
:1059C0007EFF04460F4640EA0A0041EA0B015346B7
:1059D0005A46084303D120463946BDE8F08D1146AA
:1059E00053EA010015D0C8F140025046FFF776FF98
:1059F00005460E46504659464246FFF760FF0843AB
:105A000001D0012000E00020054346EAE0762C4367
:105A100037430A984FEA4453A0EB08004FEAD424D6
:105A20000A304FF0000244EA47544FEAD72502D526
:105A300000200146D1E7010510196941DDE908455B
:105A400000196941BDE8F04DA0E7C1F30A52C1F366
:105A5000130140F2FF3341F480119A4202DA002030
:105A60000146704740F233439A42A2F2334202DCCD
:105A70005242FFF733BFFFF722BF0000064C074D2D
:105A800006E0E06840F0010394E80700984710340E
:105A9000AC42F6D3FFF750FBB4BE0108D4BE0108F8
:105AA00082B02DE9FF1FEFF3038001B4684600F1D7
:105AB000400000E901400C480168C1F800D00B48E3
:105AC000D0F800D001BC80F30388BDE8FF1F01B00F
:105AD00000BD0648D0F800D001BC80F30388BDE8C3
:105AE000FF1F01B000BD000038000020340000207E
:105AF00008B50121084607F00DFE01214FF404709E
:105B000007F028FE1020ADF8000000208DF80300FB
:105B10006946024802F054F908BD00000010014037
:105B200010B50446FFF7E4FF204600F001F810BD71
:105B300010B590B00446334800F06EFC3248059032
:105B400006940020079001200890002009900A90F8
:105B50004FF480700B9080000C9020200D9000027C
:105B60000E9000200F9005A9264800F0FBFC0121B3
:105B7000244800F045FC002000908DF8040001202E
:105B80008DF805004FF46020029000200390012062
:105B90008DF8100069461C484C3800F061F84FF44D
:105BA000404007F0ABFD052301220E2116484C387A
:105BB00000F07EF8012114484C3800F032F8012141
:105BC00011484C3800F022F80F484C3800F0CCF85F
:105BD00000BF0D484C3800F039F80028F9D10A48C8
:105BE0004C3800F0D1F800BF07484C3800F024F8DA
:105BF0000028F9D1012104484C3800F0BAF810B05F
:105C000010BD0000080002404C24014021B1826810
:105C100042F00102826003E0826822F001028260A9
:105C2000704721B1826842F48072826003E082682A
:105C300022F4807282607047014600208A6812F068
:105C4000040F01D0012000E0002070470146002031
:105C50008A6812F0080F01D0012000E00020704790
:105C600030B502460020002350680F4C20400D79CB
:105C70000C6844EA05242043506090680B4C204097
:105C8000D1E902542C434D7944EA45042043906005
:105C9000D06A20F470000C7C641EE4B2234340EA16
:105CA0000350D06230BD0000FFFEF0FFFDF7F1FFB2
:105CB000F0B504460D4600200021092D11DDE068F5
:105CC000A5F10A0606EB4607072606FA07F1884300
:105CD000A5F10A0606EB460603FA06F10843E06062
:105CE0000CE0206905EB4507072606FA07F1884313
:105CF00005EB450603FA06F108432061072A0FDA8F
:105D0000606B561E06EB86071F2606FA07F18843CE
:105D1000561E06EB860605FA06F10843606322E08C
:105D20000D2A0FDA206BD61F06EB86071F2606FA10
:105D300007F18843D61F06EB860605FA06F10843ED
:105D4000206310E0E06AA2F10D0606EB86071F262D
:105D500006FA07F18843A2F10D0606EB860605FA5E
:105D600006F10843E062F0BD816841F008018160FE
:105D7000704721B1826842F4A002826003E0826829
:105D800022F4A00282607047816841F004018160C2
:105D900070470000034A12680260024A52680A60B3
:105DA0007047000024B2002010B5044600212046B0
:105DB000FFF734FD01D2204610BD00212046FFF739
:105DC0003AFAF9E710B501210C4802F0D2F80A209E
:105DD0000CF060FE0121094802F0C9F828200CF0FF
:105DE00059FE0121054802F0C4F80A200CF052FEC9
:105DF0000121024802F0BBF810BD0000000C014078
:105E000010B50021074805F0E7F8044644B905211C
:105E100005A000F007FE0121024805F0DDF8044668
:105E2000204610BD08B10020C5E4D6C3B2CECAFDDD
:105E3000C6ACC7F8D2BBB4EDCEF3000070B50446D3
:105E40000121204604F0CEFE1021204604F0CAFEB7
:105E5000B4200CF01FFE204604F0C0FD05460021D2
:105E6000204604F0BFFE284670BD10B5044620460B
:105E700002F030F84FF496700CF00CFE0121204631
:105E800004F0B0FE10BD06E04FF47A7100BF0A00C6
:105E9000A1F10101FBD10200A0F10100F4D1704792
:105EA0000146081100EB4000A1EB4000C0B2704772
:105EB00030B50246002441F66F2316E0E01800EBEF
:105EC000D07569100B4830F82100904204D1094880
:105ED00000EB8100408830BD064830F82100904238
:105EE00001DA4C1C00E04B1E00BF9C42E6DD0020A6
:105EF000F1E7000014490108F0B5034600201C46F4
:105F00000D46104603E014F8016B05F8016B16000E
:105F1000A2F10107BAB2F6D1F0BD30B5034601E0F7
:105F200003F8011B1400A2F10105AAB2F8D130BD9B
:105F300000BFFEE72DE9F04105460E463F4805F05B
:105F400009FAA84202DC0020BDE8F08105EB45001B
:105F50003A4901EB8004207A092833D008DC022872
:105F60000FD0042837D0052823D0062863D116E0A7
:105F70000B280BD018284BD01A2856D01D285AD1E0
:105F80002FE0606808B16068804754E0304602F056
:105F900025FC0746FFF795FB616808704BE030462B
:105FA00002F01CFC0746FFF773FB40B26168087003
:105FB00041E0304602F012FC0746FFF782FB6168C1
:105FC000088038E0304602F009FC0746FFF779FB0D
:105FD000616808602FE0304602F000FC61680860EC
:105FE00029E017A1304608F098FE40B160680068CB
:105FF000627A0121914008436168086007E06068A7
:106000000068627A0121914088436168086012E06B
:106010000BA1304608F081FE18B1012061680870BC
:1060200002E000206168087005E0627A304661682D
:10603000FFF762FF00BF00BF012085E7344701087A
:106040005400000070B504460D460A4805F082F978
:10605000A04201DC002070BD04EB4400054A02EBC5
:106060008001284605F042F8284602F019FCC6B225
:106070003046F0E7344701080246002110E0505C4A
:10608000392801DD012000E00020535C302B01DACB
:10609000012300E00023184301D000207047491C71
:1060A0000B29ECDB0120F9E770B500241FE0114952
:1060B00051F82400FFF751FB05460F4A0F4BFFF73D
:1060C00073FB03D200200B4941F82400094951F821
:1060D0002400FFF742FB0546074A094BFFF750FB38
:1060E00003D20020034941F82400601CC4B2192CDB
:1060F000DDDB70BD30B20020713D0AD7FF69F8408A
:10610000FF69F8C002E0002200F8012B0A00A1F1AB
:10611000010399B2F7D1704770B505460C46284681
:1061200002F0BEFB0646204602F0BAFB864201D0D2
:10613000002070BD07E015F8011B14F8012B9142F7
:1061400001D00020F5E7287810B120780028F2D19E
:106150000120EEE710B5002400F090F804E0601C88
:10616000C4B2012000F038F81148018811480068D5
:1061700001F0F4FE08B1642CF1DB642C01DB01209A
:1061800010BD002404E0601CC4B2012000F024F81B
:10619000074801880748006801F0E0FE08B9642C50
:1061A000F1DB642C01DB0120EAE70020E8E70000D6
:1061B000780000207C000020002107E042F6E0612A
:1061C00000BF0A00A1F1010399B2FAD10200A0F1C7
:1061D000010398B2F2D17047002106E0072100BF09
:1061E0000A00A1F1010399B2FAD10200A0F1010362
:1061F00098B2F3D1704700002DE9F04105460E46F4
:106200002C784FF6FF7000EA04246878044314F4F5
:10621000004F0CD0E143491C41F40040FFF70CFA59
:10622000074613493846FFF73FF8074608E020467F
:10623000FFF70BFA07460E493846FFF735F80746D1
:106240000C493846FFF7EAFA02D24FF0010801E0A4
:106250004FF0000808493846FFF7D6FA01D201206E
:1062600000E0002018EA000F00D03760BDE8F081A0
:106270000000204100007AC40000F04208B5084840
:106280000088ADF8000003208DF8020048208DF84A
:10629000030069460348006801F092FD08BD000054
:1062A000780000207C00002008B508480088ADF880
:1062B000000003208DF8020010208DF803006946CD
:1062C0000348006801F07CFD08BD00007800002054
:1062D0007C0000202DE9FC4105460E4600F076F8D2
:1062E000FFF738FF10B10120BDE8FC8172B6002431
:1062F00005E000F05BF80DF80400601CC4B2052C4A
:10630000F7DB9DF800009DF8011008449DF802108D
:1063100008449DF803100844C7B29DF80400B84231
:1063200002D062B60120DFE71DB131466846FFF7B3
:1063300063FF26B129460DF10200FFF75DFF62B64B
:106340000020D1E710B5002404E0601CC4B2012095
:10635000FFF742FF134801881348006801F0FEFD73
:1063600008B1642CF1DB002404E0601CC4B20120FD
:10637000FFF732FF0B4801880B48006801F0EEFD83
:1063800008B9642CF1DB2320FFF726FF05480188BC
:106390000548006801F0E2FD08B1012010BD0020B1
:1063A000FCE70000780000207C00002070B500248D
:1063B000002506E06006040EFFF7C4FF0443681CD6
:1063C000C5B2082DF6DB204670BD000010B5FFF702
:1063D0006BFF094801880948006801F0C8FD0A20E0
:1063E000FFF7EAFE044801880448006801F0C1FD97
:1063F0005020FFF7F1FE10BD780000207C00002047
:1064000021B1026842F00102026004E002684FF626
:10641000FE731A400260704701684FF6FE72114029
:1064200001600021016041608160C1604B49884288
:1064300008D14A490839496841F00F01474A083AEA
:1064400051608AE045491431884208D143490839EE
:10645000496841F0F001414A083A51607DE03F4906
:106460002831884208D13D490839496841F47061B2
:106470003A4A083A516070E038493C31884208D1C4
:1064800036490839496841F47041344A083A516044
:1064900063E032495031884208D1304908394968AF
:1064A00041F470212D4A083A516056E02B4964317D
:1064B000884208D129490839496841F47001274ABE
:1064C000083A516049E025497831884208D123498A
:1064D0000839496841F07061204A083A51603CE04F
:1064E0001F49884206D1011F096841F00F01021FB0
:1064F000116032E01A491431884208D11849091F45
:10650000096841F0F001164A121F116025E0144994
:106510002831884208D11249091F096841F4706185
:106520000F4A121F116018E00D493C31884208D112
:106530000B49091F096841F47041094A121F116093
:106540000BE007495031884207D10549091F096806
:1065500041F47021024A121F116070470800024086
:106560000804024010B50022026847F6F0739A430F
:106570000C6A8B6823430C6923434C6923438C6961
:106580002343CC6923434C6A23438C6A23431A4335
:106590000260CB6843600B6883604B68C36010BDCA
:1065A00008B50121082007F0D5F80D480088ADF89E
:1065B000000010208DF8030003208DF802006946CA
:1065C0000848006801F0FCFB0548018805480068A0
:1065D00001F0CFFC00F0B2F900F006F808BD0000B1
:1065E000800000208400002010B5002400F0BEF8D8
:1065F00004E0601CC4B2012000F028F811480188B2
:106600001148006801F0AAFC08B1C82CF1DBC82CC5
:1066100001DB012010BD002404E0601CC4B2012095
:1066200000F014F8074801880748006801F096FC5C
:1066300008B9F02CF1DBF02C01DB0120EAE70020A7
:10664000E8E700008000002084000020002106E030
:10665000062100BF0A00A1F1010399B2FAD102009C
:10666000A0F1010398B2F3D1704700002DE9FE4F6D
:10667000824600F089F900F061F9FFF7B5FF0446A2
:1066800014B10120BDE8FE8FCC2000F089F9BE20B6
:1066900000F086F9002405E000F0BEF80DF80400D3
:1066A000601CC4B2092CF7DB082168460BF08CFF94
:1066B00004469DF80800A04205D0052126A000F060
:1066C000B1F90020DEE79DF8010007281EDD9DF8E6
:1066D0000100C043C0B28DF801009DF80000C04326
:1066E000C0B28DF800009DF801904FF6FF7000EAEF
:1066F00009299DF8000040EA09094846FEF7A5FF70
:1067000005460021FEF797FD83460DE09DF80190B8
:106710004FF6FF7000EA09299DF8000040EA0909D8
:106720004846FEF792FF83465846FFF716F807469D
:1067300000220C4BFEF79FFE0546FFF749F8834603
:10674000BAF1000F05D008495846FEF7ADFDCAF86A
:106750000000002096E70000D0A3D1E9B4EDCEF30D
:10676000000000000000E43F0000204108B5084898
:106770000088ADF8000003208DF8020048208DF855
:10678000030069460348006801F01AFB08BD0000D9
:10679000800000208400002008B508480088ADF87B
:1067A000000003208DF8020010208DF803006946D8
:1067B0000348006801F004FB08BD000080000020D1
:1067C0008400002010B5FFF7E7FF11480188114849
:1067D000006801F0CCFB0220FFF738FF0C4801886D
:1067E0000C48006801F0C5FBFFF7C0FF0520FFF76C
:1067F0002DFF074801880748006801F0AFFB08B18A
:10680000012400E000243220FFF720FF204610BDC5
:10681000800000208400002070B50026012508E0DB
:10682000FFF7D0FF0446E00140EA6600C6B2681CEC
:10683000C5B2082DF4DD304670BD000070B50646C7
:106840000C4600253A4890F8B00010F0400F23D0D5
:106850004FF40071374800F0DBF821463046FFF76F
:1068600039FD78B134480078401C33490870084637
:1068700000780A285ADD2E48006920F440702C491F
:10688000086153E000202C4908702948006940F451
:1068900040702749086149E04FF40071254800F035
:1068A00069F83046FFF7E2FE05468DB122480078D0
:1068B000401C21490870084600780A2811DDFFF7BE
:1068C0006FFE1B48006920F480701949086108E0D8
:1068D0000020194908701648006940F48070144976
:1068E00008614FF48071134800F044F82046FFF728
:1068F000BDFE05468DB110484078401C0E494870D9
:10690000084640780A2811DDFFF74AFE084800696A
:1069100020F400700649086108E00020064948702C
:106920000348006940F400700149086170BD00002F
:10693000F4B00020000C01409A00002010B5FFF7D1
:106940002BFF0A4801880A48006801F010FB40F25A
:10695000EE20FFF77BFE054801880548006801F03E
:1069600008FB0F20FFF772FE10BD00008000002022
:1069700084000020024A1060024A11807047000023
:10698000840000208000002010B5FFF7D7FFFFF73C
:106990002BFECC2000F004F8442000F001F810BDDC
:1069A00070B50446FFF7F8FE01252AE004F0010661
:1069B000641096B1144801881448006801F0D7FAB1
:1069C0000220FFF743FE104801881048006801F0DC
:1069D000D0FA3C20FFF73AFE11E00B4801880B4843
:1069E000006801F0C4FA3C20FFF730FE0648018839
:1069F0000648006801F0BDFA0220FFF727FE681C78
:106A0000C5B2082DD2DD70BD8000002084000020BA
:106A1000024A1060024A1180704700007C0000208A
:106A2000780000200FB42DE9F04186B00025012642
:106A30000027B00204F068FC044654480078FF28A0
:106A400001D1012000E0002050490978504A127815
:106A5000914201D1012100E0002108437DD00DA821
:106A600005902046059A0C990DF010F8002005902D
:106A70000DA8059069460C9801F041FD06462AE0F4
:106A80002846691CCDB21DF80000012804D0022858
:106A900006D003281AD115E0059880C8059019E0A2
:106AA0000598C01D20F007000590D0E90021DDF811
:106AB00014C00CF1080C1046CDF814C0FEF715FEFA
:106AC000074607E0059880C8059003E0059880C850
:106AD000059000BF00BF3000A6F10106D0D1059897
:106AE00080C80590002005902A480078FF2801D131
:106AF000012000E0002027490978B94201DB01218B
:106B000000E00021084338D0214623A008F0E4F833
:106B10002248007810F0020F0DD02149087800F0CB
:106B2000FFFB40B1204601F0BBFE804642462146B5
:106B30001C480CF010FF1948007810F0040F0FD01B
:106B40001749487800F0ECFB50B1204601F0A8FE50
:106B5000804642462146144800E00EE00CF0FBFE61
:106B60001248006848B1204601F09AFE00F0FF0884
:106B7000414620460D4A12689047204604F098FB93
:106B800006B0BDE8F0015DF814FB000060000020D5
:106B900044000020620000200D0A00006100002077
:106BA0001400002000380140004400406400002030
:106BB000FF200149087070476000002002480078FB
:106BC0000249087070470000440000206000002067
:106BD00001490870704700006100002001490870F9
:106BE0007047000062000020704701460A2091FBB8
:106BF000F0F000EB400001EB4000C0B27047000035
:106C000010B500201A4908704FF4A07004F07CFB06
:106C100018490860002406E0FF2017490855174965
:106C20000855601CC4B2052CF6DB00241DE00020D2
:106C30001049096801EB4411486103200D490968B6
:106C400001EB4411087200200A49096801EB441164
:106C500008610849096801EB4411C86005490968E1
:106C600001EB44118861601CC4B20A2CDFDB10BD4B
:106C700050000020540000201400002019000020C3
:106C800038B5002454E02C48006800EB441000683C
:106C900000284BD02848006800EB4410C079012838
:106CA00006D0022820D0032813D0042832D126E0B1
:106CB000032000902048006800EB4410C3691E4880
:106CC000006800EB4410214602681CA0FFF7AAFEF2
:106CD0002BE01948006800EB4410032321460268AA
:106CE0001CA0FFF79FFE20E01348006800EB441053
:106CF00003232146026817A0FFF794FE15E00E4813
:106D0000006800EB441003232146026811A0FFF73E
:106D100089FE0AE00848006800EB4410032321467E
:106D200002680CA0FFF77EFE00BF00BF601CC4B26B
:106D30000A2CA8DB38BD00005400002044657669A9
:106D400063655B25645D4E616D653A25735B256403
:106D50005D0000004465766963655B25645D4E6196
:106D60006D653A25730000002C4800782C490870A6
:106D70002A480078401C2949087029480078294988
:106D80000968274A127801EB4211087126A12548AB
:106D90000068234A127800EB42100160002021496C
:106DA00009681F4A127801EB4211487103201D49FE
:106DB00009681B4A127801EB4211C8710121194878
:106DC0000068174A127800EB421001721848154902
:106DD0000968134A127801EB4211486100211148F9
:106DE00000680F4A127800EB4210C1610D4800683C
:106DF0000B4A127800EB4210C16000200949096873
:106E0000074A127801EB4211086100210548006829
:106E1000034A127800EB4210816170475000002055
:106E200073000020540000204854313632310000F5
:106E3000C58A00082C4909782C4A11702A4909781A
:106E4000491C294A117029490978294A1268274B97
:106E50001B7802EB4312117126A1254A1268234BBD
:106E60001B7802EB431211600021214A12681F4B6C
:106E70001B7802EB4312517102221D4909681B4B1A
:106E80001B7801EB4311CA71012219490968174B9C
:106E90001B7801EB43110A721749154A1268134B0C
:106EA0001B7802EB43125161114909680F4A1278AD
:106EB00001EB4211C86100220D4909680B4B1B7898
:106EC00001EB4311CA600021094A1268074B1B7885
:106ED00002EB43121161002205490968034B1B783C
:106EE00001EB43118A6170475000002070000020C0
:106EF00054000020494F0000D57E00082C49097835
:106F00002C4A11702A490978491C294A11702949CB
:106F10000978294A1268274B1B7802EB431211713A
:106F200026A1254A1268234B1B7802EB43121160FD
:106F30000021214A12681F4B1B7802EB431251714A
:106F400004221D4909681B4B1B7801EB4311CA71D0
:106F5000012219490968174B1B7801EB43110A728A
:106F60001849154A1268134B1B7802EB4312516102
:106F7000114909680F4A127801EB4211C8610022D9
:106F80000D4909680B4B1B7801EB4311CA600021C6
:106F9000094A1268074B1B7802EB43121161002269
:106FA00005490968034B1B7801EB43118A6170475F
:106FB00050000020920000205400002049534C3122
:106FC00032303800D9AD00082DE9F04107460D46B2
:106FD000164638460CF056FB04465F48005DFF2815
:106FE00008D15E4800785C4908555C480078401C30
:106FF0005A4908705AA05849095D5B4A126802EB69
:107000004111086000205449095D574A126802EB9B
:107010004111487101205049095D534A126802EB41
:107020004111C87103204C49095D4F4A126802EBB7
:10703000411108724D484849095D4B4A126802EBFC
:10704000411148614448005D4749096801EB40101F
:10705000C46147494048005D434A126802EB401052
:10706000C16044483C49095D3F4A126802EB411146
:10707000086100213848005D3B4A126802EB40106D
:10708000816100203C4921F81400284604F03CF9B5
:107090003A4941F8240038460CF0F4FA04463848DE
:1070A000005DFF2808D12D480078354908552B4848
:1070B0000078401C2949087032A03149095D2A4AEC
:1070C000126802EB4111086000202D49095D264A33
:1070D000126802EB4111487101212948005D224AE2
:1070E000126802EB4010C17103202549095D1E4A58
:1070F000126802EB411108721C492148005D1A4ACE
:10710000126802EB401041611D48005D1649096894
:1071100001EB4010C46116481949095D124A126812
:1071200002EB4111C86013481549095D0E4A126807
:1071300002EB4111086100201149095D0A4A1268F9
:1071400002EB41118861304604F0DEF80F4941F846
:107150002400BDE8F081000019000020500000204C
:107160005553415252780000540000202534010844
:10717000253901082D38010818010020F0000020F1
:10718000140000205553415254780000040100209F
:1071900010B504464FF4967211462046FFF714FFCF
:1071A00010BD00002848007828490870264800785B
:1071B000401C2549087026A027490968234A1278EF
:1071C00001EB421108600020234909681F4A127828
:1071D00001EB4211487103201F4909681B4A1278CC
:1071E00001EB4211C87101211B480068174A12784F
:1071F00000EB42100172194817490968134A1278C6
:1072000001EB421148610021134800680F4A1278CF
:1072100000EB4210C16112490F4800680B4A127816
:1072200000EB4210C1600F490B480068074A127812
:1072300000EB42100161002007490968034A1278F7
:1072400001EB42118861704750000020900000203F
:107250005732355131360000540000206DE20008ED
:10726000793A0108653A010810B5032124A0FFF717
:10727000D9FB002441E02948006800EB4410406934
:10728000C8B32648006800EB4410C079012806D036
:10729000022817D003280ED004282BD11EE01F4A45
:1072A000126802EB4412107F1C4A126802EB44126F
:1072B000516988471EE01949096801EB4411486982
:1072C000804717E0154A126802EB4412D069134A4E
:1072D000126802EB4412516988470BE00F4A1268AA
:1072E00002EB4412D0690D4A126802EB4412516954
:1072F000884700BF00BF601CC4B20A2CBBDB10BDB6
:10730000546F732044657669636520496E69742EF5
:107310002E2E2E2E2E2E2E2E2E000000540000205B
:107320000146FF2901D1002070470548006800EBA5
:107330004110406908B90020F6E70120F4E7000099
:1073400054000020BAB080464FF000090027C24622
:1073500050460CF097F904460120034605220146E9
:10736000009004A804F001F88E4951F8240003F0BD
:107370009FFF40F2DC5003F0C7FF8A4941F8240028
:107380000FE1884951F8240003F0AAFF1FFA80FB9F
:10739000844951F824005946FEF7B4FE814951F85A
:1073A000240003F09DFF1FFA80FB00235A46194674
:1073B00050460CF05BFA05467A4951F8240004AABD
:1073C000294604F069F805462E469DF81E0000285F
:1073D00070D19DF813002C280AD004DC292876D01F
:1073E0002A2869D162E02F283FD05028F9D184E0C3
:1073F0003C206D4908706B4850F82400805DB8420D
:1074000022D1684A52F82430721C9918654A52F801
:107410002420925D920202F100604FF4806200F03D
:107420003AFA6248007D40B13A46791C8FB260A1B9
:1074300008A801F0C1F9054616E03A4660A108A87F
:1074400001F0BAF905460FE05848007D30B13A46E0
:1074500057A108A801F0B0F9054605E03A4658A141
:1074600008A801F0A9F9054663E0002701204F496B
:10747000087507F029F83C204B490870494951F834
:10748000241088190CF098FA834600F0A3F94549B6
:1074900051F8241088190CF08FFAC0F38F294A464E
:1074A0004DA108A801F088F9054642E0781E48453C
:1074B00003D03EE05FE00AE035E000F0A8F90120EB
:1074C0003A49087507F000F803F0C8FD31E03C20A8
:1074D0003549087045A108A801F06EF9054608A9CC
:1074E000481901F08DF8284485B208A9481941A12E
:1074F00001F062F9284485B21BE03C202A4908705B
:107500003AA108A801F058F9054608A9481901F060
:1075100077F8284485B208A9481936A101F04CF93A
:10752000284485B205E008A939A007F0C3FB054649
:1075300000BF00BF012000901A4850F82400817855
:107540000123052204A803F010FF08A80121CDE9BA
:1075500001050091314951F8240001231A4604A97C
:1075600003F00EFF05462D4850F824102A465046D9
:107570000CF0F1F915E09DF81E00062811D09DF8D9
:107580001E00052807D1074850F82410012224A026
:10759000FFF748FA05E09DF81E10032221A0FFF72F
:1075A00041FAEEE6F0000020880000200CB2002036
:1075B000506167655B25645D204F4B0D0A0000003C
:1075C0004E6F742045726173655B25645D20466172
:1075D000696C0D0A0000000045726173655B2564EB
:1075E0005D4B62204F4B0D0A0000000046696E643F
:1075F00020000000204F4B200D0A5452544F5320BE
:107600005265426F6F7420566572322E300D0A003B
:10761000D3A6D3C3B4EDCEF30000000004010020D4
:10762000257300002564000010B503F021FB022043
:1076300000F004F803F012FD10BD000001490860DD
:107640007047000014040140002123498279002A78
:107650003AD00A46126803689A430B461A600A1D1C
:10766000126803689A430B1D1A60027911440A6874
:1076700003681A430A60184A0832126803689A437A
:10768000154B08331A601A1D126803689A43124B8F
:107690000C331A604279102A0ED11A1F126803683F
:1076A0001A430D4B08331A601A1D126803681A43F7
:1076B000094B0C331A600DE00749427911440A68FE
:1076C00003681A430A6005E0027911440A680368F6
:1076D0009A430A6070470000000401401FB5044649
:1076E0000220ADF8080048208DF80B0002A91348CD
:1076F00000F066FB0121022000F042FB0220009016
:1077000000208DF804000C208DF8050001208DF874
:1077100006006846FFF798FF4FF4E06003F0AEFF05
:1077200001208DF80F0007208DF80C0001208DF846
:107730000E0003A803F068FF1FBD00000010014009
:1077400030B5044604254FF4302000F091F805468A
:10775000042D17D10C48006940F002000A49086165
:1077600008464461006940F0400008614FF4302051
:1077700000F07EF805460448006941F6FD710840B6
:1077800001490861284630BD0020024004200B4911
:10779000C96811F0010F01D001200EE00749C96846
:1077A00011F0040F01D0022007E00449C96811F06C
:1077B000100F01D0032000E0042070470020024099
:1077C0000348006940F080000149086170470000EB
:1077D00000200240F8B50446042500260020009051
:1077E00000F03AF8204603F090F8064609E00099C8
:1077F000490201F10060FFF7A3FF05460098401C15
:1078000000900098B04201D2042DF0D0F8BD10B520
:10781000FFF7D6FF10BD000070B504460D460426E4
:10782000F00200F025F80646042E11D1094800693F
:1078300040F00100074908612580F00200F018F8C7
:1078400006460448006941F6FE7108400149086196
:10785000304670BD0020024002480349486003489A
:10786000486070472301674500200240AB89EFCD97
:1078700000B502460423FFF789FF034603E0FFF744
:1078800085FF0346521E012B01D1002AF7D102B910
:107890000523184600BDF8B504460E461746354682
:1078A00000940EE029880098FFF7B6FF2888009919
:1078B0000988884201D00020F8BDAD1C0098801CCA
:1078C0000090E01900998842ECD80120F4E72DE9F6
:1078D000F84F82460D4617464FF0000800200090F2
:1078E0008146504600F0DCFF00F0FF0BBBF1000FBB
:1078F0003BD000202870002635E01AF80640302CD6
:1079000001DB012000E00020392C01DC012100E036
:10791000002108402E2C01D1012100E00021084364
:107920002D2C01D1012100E00021084309D04F4551
:1079300004D14046411C01F0FF082C540120009066
:107940000FE0009868B14F4505D100224046411C28
:1079500001F0FF082A540020009009F1010000F016
:10796000FF09701CC6B25E45C7DB4046BDE8F88F14
:107970002DE9F84F82460D4617464FF000080020CB
:1079800000908146504600F08BFF00F0FF0BBBF1EA
:10799000000F3BD000202870002635E01AF8064082
:1079A000302C01DB012000E00020392C01DC01211A
:1079B00000E0002108420BD1462C01DC012000E050
:1079C0000020412C01DB012100E00021084209D008
:1079D0004F4504D14046411C01F0FF082C540120C2
:1079E00000900FE0009868B14F4505D10022404655
:1079F000411C01F0FF082A540020009009F1010009
:107A000000F0FF09701CC6B25E45C7DB4046BDE80A
:107A1000F88F2DE9F84F82460C4617464FF00008C4
:107A2000002000908146504600F03AFF00F0FF0B26
:107A3000BBF1000F2FD000202070002529E01AF89C
:107A40000560302E01DB012000E00020392E01DC32
:107A5000012100E00021084209D04F4504D14046F1
:107A6000411C01F0FF082654012000900FE000980F
:107A700068B14F4505D100224046411C01F0FF0886
:107A800022540020009009F1010000F0FF09681C59
:107A9000C5B25D45D3DB4046BDE8F88F2DE9F05F08
:107AA00080460C460027BA46BB46404600F0F8FE2A
:107AB00000F0FF09B9F1000F20D000202070002550
:107AC0001AE018F805603A2E01D14FF0010BBBF116
:107AD000000F0FD0222E06D1BAF1000F00D00EE019
:107AE0004FF0010A06E0BAF1000F03D03846791CC6
:107AF000CFB22654681CC5B24D45E2DB00BF002260
:107B00003846791CCFB222543846BDE8F09F70B594
:107B10000B46044603E014F8015B03F8015B150013
:107B2000A2F10106B2B2F6D170BD2DE9F0470646CA
:107B30000F4614464FF00008B94602F0FAFE204600
:107B4000E11704EBD151C1F34F28E11704EBD151F8
:107B50004912B4EB412103D008F101001FFA80F86B
:107B6000002507E04FF4007101FB056002F0C3FE41
:107B7000681C85B24545F5DB002508E039F8021B95
:107B80002A466B1C9DB206EB420002F0CAFE2000A2
:107B9000A4F101018CB2F1D102F0B3FEBDE8F0878F
:107BA00001460A461068704737B50346042401A908
:107BB00012B1012A0CD10AE003E011F8010B03F81D
:107BC000010B2000A4F10105ECB2F6D100E000BFEA
:107BD00000BF04203EBD70B504460025107820B1DA
:107BE00016782068B0FBF6F085B220680844206063
:107BF0001078984203DA1078401C107002E0206878
:107C0000401B206016782068B0FBF6F080B270BD93
:107C10000FB438B5044606A800902046009A05998E
:107C20000BF034FF0020009038BC5DF814FB30B539
:107C300003460C46002514E01878802806DA13F86D
:107C4000010B24F8020B681C85B20AE059781A78F7
:107C500041EA022000F01AF820809B1CA81C85B283
:107C6000A41C18780028E7D1284630BD30B5ADF502
:107C7000017D04460D4601A92046FFF7D8FF29469D
:107C800001A800F02FFE0DF5017D30BD024641F642
:107C90006F210AE0074800EB81004088904203D141
:107CA000044830F821007047491E0029F2D1002015
:107CB000F9E700001449010810B504462948844238
:107CC00008D10121042005F055FD0021042005F014
:107CD00051FD46E02448844208D10121082005F0E6
:107CE00049FD0021082005F045FD3AE01F48844287
:107CF00008D10121102005F03DFD0021102005F0E4
:107D000039FD2EE01A48844208D10121202005F0D7
:107D100031FD0021202005F02DFD22E01548844290
:107D200008D10121402005F025FD0021402005F06B
:107D300021FD16E01048844208D10121802005F081
:107D400019FD0021802005F015FD0AE00B48844252
:107D500007D10121801505F00DFD0021A01505F0CA
:107D600009FD10BD00080140000C01400010014059
:107D70000014014000180140001C01400020014097
:107D800030B500228B071C0F0F2303FA04F20B4BB4
:107D90008C1053F824309343084C8D1044F8253050
:107DA00023468C1053F824308C07240F00FA04F477
:107DB0002343024C8D1044F8253030BD08000140AB
:107DC0002DE9F04102460025002600200023002472
:107DD000002791F803C00CF00F0591F803C01CF0C8
:107DE000100F03D091F802C04CEA050591F800C0CD
:107DF000BCF1000F31D0146800202BE04FF0010CD3
:107E00000CFA00F3B1F800C00CEA03069E4220D140
:107E100083004FF00F0C0CFA03F7BC4305FA03FC88
:107E20004CEA040491F803C0BCF1280F06D14FF0CE
:107E3000010C0CFA00FCC2F814C00AE091F803C06F
:107E4000BCF1480F05D14FF0010C0CFA00FCC2F850
:107E500010C0401C0828D1D31460B1F800C0BCF198
:107E6000FF0F34DD546800202EE000F1080C4FF0C5
:107E7000010808FA0CF3B1F800C00CEA03069E42B0
:107E800021D183004FF00F0C0CFA03F7BC4305FA25
:107E900003FC4CEA040491F803C0BCF1280F05D19F
:107EA00000F1080C08FA0CF8C2F8148091F803C02D
:107EB000BCF1480F07D100F1080C4FF0010808FA97
:107EC0000CF8C2F81080401C0828CED35460BDE8DE
:107ED000F081000038B50446002536E01D4A606890
:107EE000811A904217D009DC1B4940180DD0B0F51B
:107EF000806F0CD0B0F5006F13D10AE0B1F5806F40
:107F00000BD0B1F5006F0CD109E0042509E008257C
:107F100007E0102505E0202503E0402501E080254D
:107F200000BF00BF45F00100012105F013FC2078DF
:107F30008DF802002089ADF8000060788DF803000C
:107F400069466068FFF73CFF0C3420780028C5D1F3
:107F500038BD00000014014000F8FEBF02460020BA
:107F600093680B4201D0012000E00020704741617E
:107F7000704701617047000038B504464FF48070C7
:107F8000ADF800001CB110208DF8030002E01420B1
:107F90008DF8030002208DF8020069460748FFF7BC
:107FA0000FFF2CB14FF480710448FFF7E0FF04E0AD
:107FB0004FF480710148FFF7DCFF38BD001001402D
:107FC00008B54FF40070ADF8000010208DF80300E4
:107FD00002208DF8020069460448FFF7F1FE4FF4D5
:107FE00000710248FFF7C3FF08BD00000010014008
:107FF0002DE9F04104460D4601271DE012494FF4DA
:10800000967248680021FDF788FF2B463222002136
:108010000E480BF02BFCC6B276B10B480522416826
:108020000BA0FEF7FFFC08494868214606F075FEE4
:1080300010B10120BDE8F0813800A7F10101CFB2F5
:10804000DCD100BFF6E70000F00000200044004053
:10805000B7B5BBD83A25730D0A0000002DE9F041F1
:1080600004460D46012725E016494FF496724868EC
:108070000021FDF752FF2B463222002112480BF05F
:10808000F5FBC6B296B10F48052241680FA0FEF776
:10809000C9FC0C4948682146FDF766F810B101207B
:1080A000BDE8F0814FF47A700AF0F4FC4FF47A7076
:1080B0000AF0F0FC3800A7F10101CFB2D4D100BF23
:1080C000EEE70000F000002000440040B7B5BBD848
:1080D0003A25730D0A0000002DE9F04104460F46D1
:1080E00015464FF0010825E017494FF4967248688D
:1080F0000021FDF712FF2B463222002113480BF01E
:10810000B5FBC6B2B6B110480522416810A0FEF713
:1081100089FC0D494868214606F0FFFD10B1012099
:10812000BDE8F08108494868394606F0F6FD08B117
:108130000120F5E75FEA0800A8F1010101F0FF085E
:10814000D2D100BFECE70000F00000200044004066
:10815000B7B5BBD83A25730D0A0000000246114698
:1081600023E008782E281FD111F8010C302801DBFC
:10817000012000E0002011F8013C392B01DC012333
:1081800000E0002318420FD04878302801DB01209E
:1081900000E000204B78392B01DC012300E00023B4
:1081A000184201D001207047491C08780028D8D116
:1081B00000BFF8E770B5022515E014A117480BF0D1
:1081C000DAFB4FF47A700AF065FC002409E04FF402
:1081D000FA6213A114A000F037F800B10AE0601CA5
:1081E000C4B2032CF3DB2800A5F10101CDB2E4D128
:1081F000012070BD052110A0FEF714FC1148006994
:1082000020F010000F4908610020F2E741542B5183
:1082100049434C4F53450D0A000000000044004004
:10822000434C4F534500000041542B514953544196
:1082300054450D0A00000000536F636B6574B6CFA0
:10824000BFAA0000F4B0002070B504460D461646E3
:108250000522214604A0FEF7E5FB0A233246294603
:10826000204600F007F870BDB7A2CBCD25730D0AEC
:10827000000000002DE9F04105460C4616461F4659
:1082800037E029461E480BF076FB1E494FF49672E4
:1082900048680021FDF741FE33463222002118488C
:1082A0000BF0E4FA00F0FF08B8F1000F1DD01548FC
:1082B0000522416814A0FEF7B5FB2078212808D1DB
:1082C00010494868611CFCF74FFF50B90120BDE818
:1082D000F0810C4948682146FCF746FF08B10120AF
:1082E000F5E74FF47A700AF0D5FB4FF47A700AF094
:1082F000D1FB3800A7F10101CFB2C2D100BFE6E740
:1083000000440040F0000020B7B5BBD825730D0A2B
:108310000000000070B50446002500BF2846691C17
:10832000CDB2052801DD032070BD05211EA0FEF79A
:1083300079FB2048006920F010001E4908612046A2
:10834000FFF70CFF40B14FF47A721BA11BA0FFF79F
:108350007BFF50B90120E7E74FF47A7216A11BA00A
:10836000FFF772FF08B90120DEE74FF47A700AF0D8
:1083700091FB214619480BF0FEFA042218A11CA01B
:1083800000F0A6F800B9C9E74FF4FA600AF082FBE2
:1083900005211AA0FEF746FB0648006940F01000D0
:1083A000044908610020BFE7C1ACBDD3B7FECEF1E0
:1083B000C6F70000F4B000204F4B000041542B5191
:1083C00049444E5349503D300D0A000041542B5151
:1083D00049444E5349503D310D0A000000440040CD
:1083E000414C524541445920434F4E4E4543540061
:1083F000434F4E4E454354204F4B0000C1ACBDD3BC
:10840000B3C9B9A60000000070B50546012622E0F8
:1084100014494FF4967248680021FDF77EFD2B4603
:108420003222002110480BF021FAC4B29CB10D4950
:1084300048680EA1FCF798FE28B105210DA0FEF7B3
:10844000F1FA002070BD0748224641680CA003F0F5
:108450008BFA0120F6E73000A6F10101CEB2D7D1A8
:1084600000BFEFE7F000002000440040434C4F53B2
:1084700045440000C1ACBDD3B1BBB9D8B1D50000F3
:10848000BDD3CAD53A00000070B50446012610E0FD
:1084900023464FF49672002109480BF0E7F9C5B264
:1084A0003DB108480522416807A0FEF7BBFA01204C
:1084B00070BD3000A6F10101CEB2E9D100BFF7E7EF
:1084C00000440040F0000020523A257300000000F4
:1084D0002DE9F04106460F46144600250BE04FF407
:1084E0007A7239463046FFF7F7FD10B10120BDE83A
:1084F000F081681CC5B2A542F1DB0020F7E7F0B5BA
:1085000004460A46002300200025214633E00E7869
:10851000252E02D10125461CB0B2012D2AD10E789C
:10852000642E06D1AC461E465F1CBBB202F806C0E4
:1085300000250E78662E07D14FF0020C1E465F1CF8
:10854000BBB202F806C000250E78732E07D14FF09B
:10855000030C1E465F1CBBB202F806C000250E7855
:10856000632E07D14FF0040C1E465F1CBBB202F80D
:1085700006C00025491C0E78002EC8D1F0BD0000B1
:108580002DE9FE4305460F4600261C480068009072
:108590001A48001D006802901848083000680190D1
:1085A00000241BE014E05DF824003E21B0FBF1F252
:1085B00001FB1208404609F0D1FF3146721CD6B2C9
:1085C00068545DF824003E21B0FBF1F04DF8240022
:1085D0005DF824000028E6D1601CC4B2032CE1DB66
:1085E0000F26384609F0BAFF3246761CA8540022FE
:1085F0003146761C6A543046BDE8FE83E8F7FF1F1B
:10860000FEB5054600261648006800901448001D77
:1086100000680290124808300068019000241BE0B6
:1086200014E05DF824003E21B0FBF1F201FB1207DB
:10863000384609F093FF3146721CD6B268545DF893
:1086400024003E21B0FBF1F04DF824005DF8240039
:108650000028E6D1601CC4B2032CE1DB3046FEBD2D
:10866000E8F7FF1FFEB50546002619480068009090
:108670001748001D006802901548083000680190F6
:1086800000241BE014E05DF824003E21B0FBF1F271
:1086900001FB1207384609F061FF3146721CD6B261
:1086A00068545DF824003E21B0FBF1F04DF8240041
:1086B0005DF824000028E6D1601CC4B2032CE1DB85
:1086C00000223046711CCEB22A543046FEBD000056
:1086D000E8F7FF1F014600200A78302A01DB01225B
:1086E00000E000220B78392B01DC012300E000239D
:1086F0001A4203D00A781207100E24E00A78412AA1
:1087000001DB012200E000220B78462B01DC012373
:1087100000E000231A4204D00A78D21F1207100E7C
:1087200011E00A78612A01DB012200E000220B78C7
:10873000662B01DC012300E000231A4203D00A78F3
:10874000D21F1207100E4A78302A01DB012200E006
:1087500000224B78392B01DC012300E000231A4270
:1087600004D04A78303A0244D0B224E04A78412A10
:1087700001DB012200E000224B78462B01DC0123C3
:1087800000E000231A4204D04A78373A0244D0B2BB
:1087900011E04A78612A01DB012200E000224B78D7
:1087A000662B01DC012300E000231A4203D04A7843
:1087B000573A0244D0B270470FB438B5044606A801
:1087C00000902046009A05990BF060F90020009077
:1087D000204600F065F838BC5DF814FB2DE9FC5F1D
:1087E00005460026B346B1464FF07E5A44E015F8E0
:1087F000014B2D2C01D101263EE02E2C02D14FF051
:10880000010B39E0302C2EDB392C2CDCBBF1000FB6
:108810000ED11F494846FCF711FD8146A4F13000F6
:10882000FCF70AFF07464946FCF7B0FC814623E007
:108830005046FCF792FF0746164A174BFCF71BFE03
:10884000CDE90001FCF7C4FF8246A4F13000FCF73B
:10885000F3FE80465146FCF7F1FC07464946FCF71B
:1088600095FC814608E026B10C494846FCF7E6FC39
:1088700081464846BDE8FC9F28780028B7DC26B131
:1088800006494846FCF7DAFC81464846F2E7000014
:10889000000020419A9999999999B93F000080BFA9
:1088A00010B5014600200A4601E0431C98B212F8B8
:1088B000014B002CF9D110BD002000210CE001EB90
:1088C0004102074B1B6803EB02121289012A01D0F7
:1088D000421CD0B24A1CD1B21429F0DB7047000010
:1088E0004800002070B504460E46002507E02288A7
:1088F000701905A1FFF760FF284485B2A41C2088E9
:108900000028F4D1284670BD2530347800000000DE
:108910000246002039B950784FF6FF7303EA002071
:108920001378184306E010784FF6FF7303EA00202F
:10893000537818437047000010B504462AA120461A
:1089400006F0EBF908B1012010BD28A1204606F081
:10895000E4F908B10220F7E725A1204606F0DDF989
:1089600008B10320F0E723A1204606F0D6F908B1AC
:108970000420E9E720A1204606F0CFF908B1052040
:10898000E2E71EA1204606F0C8F908B10620DBE7A1
:108990001BA1204606F0C1F908B10720D4E719A1B0
:1089A000204606F0BAF908B10820CDE716A1204606
:1089B00006F0B3F908B10920C6E714A1204606F075
:1089C000ACF908B10A20BFE711A1204606F0A5F9CD
:1089D00008B10B20B8E70FA1204606F09EF908B1B8
:1089E0000C20B1E70120AFE74A616E0046656200E6
:1089F0004D617200417072004D6179004A756E00E0
:108A00004A756C0041756700536570004F637400D0
:108A10004E6F76004465630070B505460024291941
:108A200001220DA0FEF7F5FF2044C4B20AA0FFF713
:108A300083FF0646281932460AA1FFF7BDFE2044EF
:108A4000C4B22919002204A0FEF7E3FF2044C4B2F7
:108A500000202855204670BD4A756E2020372032F0
:108A6000303137002D253032642D000010B586B02E
:108A7000002414E004EB4401002202EBC1001822A0
:108A800069460AF0E5FF0098401C00D108E0601C30
:108A9000C4B2012009F0FEFFFF2C00DB00E0E9E793
:108AA00000BF0522214603A0FDF7BCFF204606B00B
:108AB00010BD0000B4F2D3A1BCC7C2BCCBF7D2FD3D
:108AC0002564000010B500240F48FFF703FA562074
:108AD00000F03CF8302000F039F8002000F036F8C3
:108AE0000A2000F033F8032000F030F8062000F0F0
:108AF0002DF800BF05E0FF21204601F0ABFD601C12
:108B0000C4B2202CF7DB10BDD846010810B50024F4
:108B100080210A48FFF722FA00B9022440210748C1
:108B2000FFF71CFA00B9012401210548FFF716FAE6
:108B3000012800D10424204610BD0000001001408F
:108B40000008014001E002F089FAFCE710B5044694
:108B50004FF400410B48FFF70AFA032000F044F8F5
:108B60000421802000F010F80821204600F00CF8C5
:108B70004FF400410348FFF7FCF9042000F034F8FB
:108B800010BD00000010014070B504460D460026DF
:108B900024E04FF480411348FFF7E9F9032000F087
:108BA00023F814F0800F05D04FF400510D48FFF763
:108BB000E0F904E04FF400510A48FFF7D8F9032028
:108BC00000F012F84FF480410648FFF7D2F9600632
:108BD000040E012000F008F8701CC6B2AE42D8DBCB
:108BE00070BD00000010014000EB400188B200BFE2
:108BF0000100A0F1010290B2FAD1704710B5002433
:108C000000BF12E00A4A125D02F00F016206100E68
:108C100001F020FD064A125D1111012202EB44020F
:108C2000D0B201F017FD601CC4B2102CEADB10BDFD
:108C3000FCB100203EB50020F94908730A4692F8BD
:108C4000D11092F8D00001F041F8F5490868FCF71E
:108C500084FD044622460B46F2A16846FEF7D8FF83
:108C6000EF48008A10F4807F09D0684601F082FC4A
:108C7000EB48007B40F08000E949087308E0EBA076
:108C800001F078FCE648007B40F08000E44908737E
:108C9000E3494868FCF761FD044622460B46E1A122
:108CA0006846FEF7B5FFDE48008A10F4007F16D054
:108CB000DB4890F8B00010F0400F06D0D848007B99
:108CC00040F00800D649087305E0D548007B40F025
:108CD0001000D3490873684601F0F4FB15E0D04852
:108CE00090F8B00010F0400F06D0CD48007B40F067
:108CF0000800CB49087305E0C948007B40F010002C
:108D0000C7490873C9A001F0DDFBCA48007940F0EB
:108D10000200C84908710846807940F00100887156
:108D2000BF48007BC87301204872BD48008A10F418
:108D3000006F28D0C0480078012804DD0846407A3A
:108D400040F004004872BC480078022805DDB948AC
:108D5000407A40F00600B7494872B74800780328C7
:108D600005DDB448407A40F00E00B2494872B2487E
:108D700001780078401CB04A1070032933DD0120CF
:108D8000114608702FE0A6498868FCF7E6FC044607
:108D90000022AA4BFCF708FD05D2A648407A40F015
:108DA0000400A44948729E498868FCF7D6FC044632
:108DB000A34AA44BFCF7F8FC05D29E48407A40F049
:108DC00002009C49487296498868FCF7C6FC044634
:108DD00000229D4BFCF7E8FC05D29648407A40F013
:108DE0000800944948728E48008A10F4006F05D03C
:108DF0009048407A40F010008E4948728848008AB6
:108E000010F4806F03D010208A49887305E08948E8
:108E1000807B20F0100087498873814890F8D60045
:108E2000632801DA012000E000207D4991F8D61086
:108E3000002901DD012100E00021084206D07D4823
:108E4000007940F010007B49087105E0794800790D
:108E500020F0100077490871714890F8D600632817
:108E600001DA012000E000206D4991F8D6100A29AE
:108E700001DD012100E00021084206D06D480079A3
:108E800040F020006B49087105E06A48007920F045
:108E9000200068490871624890F8D600632801DA1A
:108EA000012000E000205E4991F8D610142901DD70
:108EB000012100E00021084206D05E48007940F020
:108EC00040005C49087105E05A48007920F04000F4
:108ED000584908715248007C10F0100F06D05548D0
:108EE000807B40F040005349887305E05148807B07
:108EF00020F040004F4988734948007C10F0030F70
:108F000006D04C48007940F001004A49087105E05C
:108F10004848007920F00100464908714048007C2B
:108F200010F00C0F06D04348407940F00100414951
:108F3000487105E03F48407920F001003D49487103
:108F40003748007C10F0050F06D03A48807B40F08F
:108F500080003849887305E03648807B20F0800027
:108F6000344988732E48007C10F00A0F06D031482F
:108F7000807B40F020002F49887305E02D48807BDE
:108F800020F020002B4988732548007C10F0800FCA
:108F900006D02848007940F004002649087105E011
:108FA0002448007920F00400224908711C4890F8F8
:108FB000DA00FF2806D11F48407B40F040001D49E1
:108FC000487305E01B48407B20F040001949487376
:108FD0001348007C10F0400F06D01648407B20F06C
:108FE00020001449487305E01248407B40F02000FF
:108FF000104948730A4890F8B00010F0800F06D06E
:109000000C48807B40F00A000A49887305E0094853
:10901000807B20F00A0007498873FFF7EFFD3EBD13
:10902000F4B00020252E3266202000002D2D2D2D9D
:1090300000000000FCB100209500002000000C4062
:109040009A99999999990D40000010403EB50020D9
:10905000DC4908730A4692F8D11092F8D00000F06B
:1090600035FED8490868FCF778FB044622460B46D3
:10907000D5A16846FEF7CCFDD24908680021FCF76F
:10908000CDFB03D2D2A001F075FA02E0D2A001F02C
:1090900071FACC4948680021FCF7C0FB03D2CCA090
:1090A00001F010FA02E0CCA001F00CFACC480079F3
:1090B00040F00200CA4908710846807940F001007A
:1090C0008871C048007BC87301204872BD48008A7F
:1090D00010F4006F28D0C3480078012804DD08464A
:1090E000407A40F004004872BE480078022805DD4E
:1090F000BB48407A40F00600B9494872B948007848
:10910000032805DDB648407A40F00E00B4494872A5
:10911000B44801780078401CB24A1070032933DD4E
:109120000120114608702FE0A6498868FCF715FB5E
:1091300004460022AC4BFCF737FB05D2A848407A26
:1091400040F00400A64948729E498868FCF705FB78
:109150000446A64AA64BFCF727FB05D2A048407A56
:1091600040F002009E49487296498868FCF7F5FA7B
:10917000044600229F4BFCF717FB05D29848407A23
:1091800040F00800964948728E48008A10F4006F3B
:1091900005D09348407A40F01000914948728948C0
:1091A000008A10F4806F03D010208D49887305E089
:1091B0008B48807B20F0100089498873814890F8A3
:1091C000D600632801DA012000E000207D4991F8F3
:1091D000D610002901DD012100E00021084206D05F
:1091E0007F48007940F010007D49087105E07C4817
:1091F000007920F010007A490871724890F8D60082
:10920000632801DA012000E000206E4991F8D610B1
:109210000A2901DD012100E00021084206D0704842
:10922000007940F020006E49087105E06C48007933
:1092300020F020006A490871624890F8D60063283F
:1092400001DA012000E000205E4991F8D6101429CF
:1092500001DD012100E00021084206D060480079CC
:1092600040F040005E49087105E05D48007920F05B
:1092700040005B4908715348007C10F0100F06D085
:109280005748807B40F040005549887305E05448BA
:10929000807B20F04000524988734A48007C10F0DF
:1092A000030F06D04E48007940F001004C49087188
:1092B00005E04B48007920F0010049490871414818
:1092C000007C10F00C0F06D04548407940F00100BA
:1092D0004349487105E04248407920F00100404987
:1092E00048713848007C10F0050F06D03C48807B60
:1092F00040F080003A49887305E03948807B20F0CF
:109300008000374988732F48007C10F00A0F06D080
:109310003348807B40F020003149887305E03048B5
:10932000807B20F020002E4988732648007C10F0B6
:10933000800F06D02A48007940F0040028490871BF
:1093400005E02748007920F00400254908711D48F0
:1093500090F8DA00FF2806D12148407B40F0400019
:109360001F49487305E01E48407B20F040001C491F
:1093700048731448007C10F0400F06D01848407B1A
:1093800020F020001649487305E01548407B40F066
:109390002000134948730B4890F8B00010F0800F7C
:1093A00006D00F48807B40F00A000D49887305E025
:1093B0000B48807B20F00A0009498873FFF71EFCE8
:1093C0003EBD0000F4B00020252E326620200000B3
:1093D0002D304646000000002D304E2D00000000CC
:1093E000FCB100209900002000000C409A99999946
:1093F00099990D40000010402DE9FE430020FC49E2
:1094000008730868FCF744F90546FCF715F90446AB
:10941000F7490868F749FCF701FA12D2F4490868DD
:10942000FCF736F90A2190FBF1F94846FCF712F9EE
:109430000746F14AF14BFBF777FF0546FCF7C8F901
:109440000446EB490868EE49FCF7E8F912D2E8490E
:109450000868FCF71DF9642190FBF1F94846FCF718
:10946000F9F80746E44AE74BFBF75EFF0546FCF7D1
:10947000AFF90446DE490868E349FCF7CFF914D296
:10948000DB490868FCF704F94FF47A7190FBF1F9B5
:109490004846FCF7DFF807464FF03332DB4BFBF76B
:1094A00043FF0546FCF794F90446D14A92F8D110DF
:1094B00092F8D00000F00AFC2046FCF74EF9054671
:1094C0002A460B46D2A16846FEF7A2FBC848008A8E
:1094D00010F4807F03D0684601F04CF802E0CEA083
:1094E00001F048F8C2494868FCF737F905462A46B2
:1094F0000B46C7A16846FEF78BFBBD48008A10F4F7
:10950000007F03D0684600F0DDFF02E0C4A000F059
:1095100081FFC548007940F00200C3490871084640
:10952000807940F001008871B148007BC873012048
:109530004872AF48008A10F4006F28D0BB4800780A
:10954000012804DD0846407A40F004004872B7481C
:109550000078022805DDB448407A40F00600B249A0
:109560004872B2480078032805DDAF48407A40F0E1
:109570000E00AD494872AD4801780078401CAB4AF6
:109580001070032933DD0120114608702FE098493F
:109590008868FCF7E2F805460022A54BFCF704F9C1
:1095A00005D2A148407A40F004009F494872904992
:1095B0008868FCF7D2F805468F4A9E4BFCF7F4F812
:1095C00005D29948407A40F002009749487288498C
:1095D0008868FCF7C2F805460022974BFCF7E4F8D0
:1095E00005D29148407A40F008008F49487280487F
:1095F000008A10F4006F05D08B48407A40F01000CC
:10960000894948727A48008A10F4806F03D010208C
:109610008549887305E08448807B20F010008249EA
:109620008873734890F8D600632801DA012000E0BF
:1096300000206F4991F8D610002901DD012100E0DA
:109640000021084206D07848007940F010007649A1
:10965000087105E07448007920F010007249087123
:10966000634890F8D600632801DA012000E000206A
:109670005F4991F8D6100A2901DD012100E000219F
:10968000084206D06848007940F020006649087119
:1096900005E06548007920F02000634908715448CE
:1096A00090F8D600632801DA012000E0002050493C
:1096B00091F8D610142901DD012100E000210842B3
:1096C00006D05948007940F040005749087105E03C
:1096D0005548007920F04000534908714448007C07
:1096E00010F0100F06D05048807B40F040004E49EB
:1096F000887305E04C48807B20F040004A4988731D
:109700003B48007C10F0030F06D04748007940F03A
:1097100001004549087105E04348007920F0010047
:10972000414908713248007C10F00C0F06D03E48C9
:10973000407940F001003C49487105E03A484079E1
:1097400020F00100384948712948007C10F0050FCD
:1097500006D03548807B40F080003349887305E0AF
:109760003148807B20F080002F4988732048007C9E
:1097700010F00A0F06D02C48807B40F020002A49C8
:10978000887305E02848807B20F0200026498873F4
:109790001748007C10F0800F06D02348007940F075
:1097A00004002149087105E01F48007920F00400F9
:1097B0001D4908710E4890F8DA00FF2806D11A48B2
:1097C000407B40F040001849487305E01648407B54
:1097D00020F04000144948730548007C10F0400F09
:1097E0002CD01148407B20F020000F4948732BE01B
:1097F000F4B0002000007A449A9999999999B93F58
:1098000000401C469999C93F0050C3473333D33FAA
:10981000252E3266202000002D2D2D2D0000000069
:109820002D4C552D00000000FCB1002097000020B9
:1098300000000C4099990D40000010400E48407BFC
:1098400040F020000C4948730C4890F8B00010F02C
:10985000800F06D00848807B40F00A0006498873D4
:1098600005E00548807B20F00A0003498873FFF774
:10987000C5F9BDE8FE830000FCB10020F4B0002073
:1098800070B50546002404E0002016490855601C08
:10989000C4B2102CF8DB14A000F06CFE052D18D219
:1098A000DFE805F003070B0F130011A000F00AFE1C
:1098B00013E011A000F006FE0FE011A000F002FE80
:1098C0000BE011A000F0FEFD07E011A000F0FAFD92
:1098D00003E007A000F0F6FD00BF00BFFFF78EF920
:1098E00070BD0000FCB10020424F4F54000000004A
:1098F00054502D300000000030432D310000000096
:1099000055432D320000000055502D33000000005B
:1099100030502D33000000003EB50020E0490873B0
:109920000A4692F8D11092F8D00000F0CFF9DC4945
:109930000868FBF712FF044622460B46D9A1684689
:10994000FEF766F9D648008A10F4807F03D0684697
:1099500000F010FE02E0D5A000F00CFED0494868EF
:10996000FBF7FBFE044622460B46CEA16846FEF7F7
:109970004FF9CB48008A10F4007F03D0684600F00E
:10998000A1FD02E0C9A000F09DFDCA48007940F0A9
:109990000200C84908710846807940F001008871CA
:1099A000BF48007BC87301204872BD48008A10F48C
:1099B000006F28D0C0480078012804DD0846407AAE
:1099C00040F004004872BC480078022805DDB94820
:1099D000407A40F00600B7494872B748007803283B
:1099E00005DDB448407A40F00E00B2494872B248F2
:1099F00001780078401CB04A1070032933DD012043
:109A0000114608702FE0A6498868FBF7A6FE0446B9
:109A10000022AA4BFBF7C8FE05D2A648407A40F0C8
:109A20000400A44948729E498868FBF796FE0446E4
:109A3000A34AA44BFBF7B8FE05D29E48407A40F0FB
:109A400002009C49487296498868FBF786FE0446E6
:109A500000229D4BFBF7A8FE05D29648407A40F0C5
:109A60000800944948728E48008A10F4006F05D0AF
:109A70009048407A40F010008E4948728848008A29
:109A800010F4806F03D010208A49887305E089485C
:109A9000807B20F0100087498873814890F8D600B9
:109AA000632801DA012000E000207D4991F8D610FA
:109AB000002901DD012100E00021084206D07D4897
:109AC000007940F010007B49087105E07948007981
:109AD00020F0100077490871714890F8D60063288B
:109AE00001DA012000E000206D4991F8D6100A2922
:109AF00001DD012100E00021084206D06D48007917
:109B000040F020006B49087105E06A48007920F0B8
:109B1000200068490871624890F8D600632801DA8D
:109B2000012000E000205E4991F8D610142901DDE3
:109B3000012100E00021084206D05E48007940F093
:109B400040005C49087105E05A48007920F0400067
:109B5000584908715248007C10F0100F06D0554843
:109B6000807B40F040005349887305E05148807B7A
:109B700020F040004F4988734948007C10F0030FE3
:109B800006D04C48007940F001004A49087105E0D0
:109B90004848007920F00100464908714048007C9F
:109BA00010F00C0F06D04348407940F001004149C5
:109BB000487105E03F48407920F001003D49487177
:109BC0003748007C10F0050F06D03A48807B40F003
:109BD00080003849887305E03648807B20F080009B
:109BE000344988732E48007C10F00A0F06D03148A3
:109BF000807B40F020002F49887305E02D48807B52
:109C000020F020002B4988732548007C10F0800F3D
:109C100006D02848007940F004002649087105E084
:109C20002448007920F00400224908711C4890F86B
:109C3000DA00FF2806D11F48407B40F040001D4954
:109C4000487305E01B48407B20F0400019494873E9
:109C50001348007C10F0400F06D01648407B20F0DF
:109C600020001449487305E01248407B40F0200072
:109C7000104948730A4890F8B00010F0800F06D0E1
:109C80000C48807B40F00A000A49887305E00948C7
:109C9000807B20F00A0007498873FEF7AFFF3EBDC6
:109CA000F4B00020252E3266202000002D2D2D2D11
:109CB00000000000FCB100209600002000000C40D5
:109CC0009A99999999990D4000001040F8B5044669
:109CD0000D460A2095FBF0F100FB11502B49085C62
:109CE0008DF800000A2095FBF0F0085C8DF801006B
:109CF0000A2094FBF0F100FB11402449085C8DF828
:109D000002000A2094FBF0F0C6B21EB900208DF8C4
:109D1000030008E0012E03D106208DF8030002E0C5
:109D20000C208DF803001A48007828B19DF8000037
:109D300040F010008DF800001548007808B90120A7
:109D400000E00020124908709DF8030040F08000F8
:109D50008DF803009DF8030040F010008DF803001B
:109D60009DF80010142000F05FFC9DF801101620F3
:109D700000F05AFC9DF80210182000F055FC9DF8E8
:109D800003101A2000F050FCF8BD00001E47010827
:109D900094000020F0B587B00446002504E00020C0
:109DA0006A494855681CC5B2102DF8DB052C2AD22B
:109DB000DFE804F0032A5179A1006549D1F8F000E9
:109DC000FBF7CBFC064632460B4662A104A8FDF722
:109DD0001FFF5F49D1F8F400FBF7BFFC064632468F
:109DE0000B465CA101A8FDF713FF04A800F0C2FB1D
:109DF00001A800F067FB5548007940F00200534984
:109E00000871A020887391E05149D1F8F800FBF760
:109E1000A4FC064632460B464EA104A8FDF7F8FE08
:109E20004B49D1F8FC00FBF798FC064632460B463E
:109E300048A101A8FDF7ECFE04A800F09BFB01A8D7
:109E400000F040FB4148807940F001003F498871B3
:109E5000A02088736AE03E498869FBF77EFC0646CD
:109E600032460B463BA104A8FDF7D2FE3849C8692B
:109E7000FBF773FC064632460B4636A101A8FDF7F8
:109E8000C7FE04A800F076FB01A800F01BFB2F48DA
:109E9000007940F002002D4908710846007940F031
:109EA0000100087142E02A49086AFBF756FC0646A1
:109EB00032460B4629A104A8FDF7AAFE2449486AA8
:109EC000FBF74BFC064632460B4624A101A8FDF7E2
:109ED0009FFE04A800F04EFB01A800F0F3FA1B4817
:109EE000807940F00100194988710846407940F0B6
:109EF000010048711AE01BA104A8FDF789FE14486F
:109F000090F8DA2018A101A8FDF782FE04A800F05D
:109F100031FB01A800F0D6FA00200D4908730B4868
:109F2000807B40F00A000949887300BF00BF002011
:109F30000649C873064A92F8D11092F8D000FFF78C
:109F4000C5FEFEF75BFE07B0F0BD0000FCB10020CF
:109F5000F4B00020252E326620200000252E326627
:109F60002000000020202000253033642020200025
:109F70002DE9FE430020FC4908730868FBF788FBC5
:109F80000546FBF759FB0446F7490868F749FBF714
:109F900045FC12D2F4490868FBF77AFB0A2190FBD2
:109FA000F1F94846FBF756FB0746F14AF14BFBF740
:109FB000BBF90546FBF70CFC0446EB490868EE4983
:109FC000FBF72CFC12D2E8490868FBF761FB64211F
:109FD00090FBF1F94846FBF73DFB0746E44AE74BA7
:109FE000FBF7A2F90546FBF7F3FB0446DE490868D8
:109FF000E349FBF713FC14D2DB490868FBF748FB85
:10A000004FF47A7190FBF1F94846FBF723FB0746C2
:10A010004FF03332DB4BFBF787F90546FBF7D8FBF4
:10A020000446D14A92F8D11092F8D000FFF74EFEC4
:10A030002046FBF792FB05462A460B46D2A168460E
:10A04000FDF7E6FDC848008A10F4807F03D068461B
:10A0500000F090FA02E0CEA000F08CFAC249486805
:10A06000FBF77BFB05462A460B46C7A16846FDF772
:10A07000CFFDBD48008A10F4007F03D0684600F091
:10A0800021FA02E0C4A000F0F1F9C548007940F0DF
:10A090000200C34908710846807940F001008871C8
:10A0A000B148007BC87301204872AF48008A10F4A1
:10A0B000006F28D0BB480078012804DD0846407AAC
:10A0C00040F004004872B7480078022805DDB44823
:10A0D000407A40F00600B2494872B248007803283E
:10A0E00005DDAF48407A40F00E00AD494872AD48FA
:10A0F00001780078401CAB4A1070032933DD012041
:10A10000114608702FE098498868FBF726FB054642
:10A110000022A54BFBF748FB05D2A148407A40F04E
:10A1200004009F49487290498868FBF716FB054672
:10A130008F4A9E4BFBF738FB05D29948407A40F096
:10A1400002009749487288498868FBF706FB054674
:10A150000022974BFBF728FB05D29148407A40F04C
:10A1600008008F4948728048008A10F4006F05D0BB
:10A170008B48407A40F01000894948727A48008A3A
:10A1800010F4806F03D010208549887305E084485F
:10A19000807B20F0100082498873734890F8D600C5
:10A1A000632801DA012000E000206F4991F8D61001
:10A1B000002901DD012100E00021084206D0784895
:10A1C000007940F010007649087105E07448007984
:10A1D00020F0100072490871634890F8D600632897
:10A1E00001DA012000E000205F4991F8D6100A2929
:10A1F00001DD012100E00021084206D06848007915
:10A2000040F020006649087105E06548007920F0BB
:10A21000200063490871544890F8D600632801DA99
:10A22000012000E00020504991F8D610142901DDEA
:10A23000012100E00021084206D05948007940F091
:10A2400040005749087105E05548007920F040006A
:10A25000534908714448007C10F0100F06D0504854
:10A26000807B40F040004E49887305E04C48807B7D
:10A2700020F040004A4988733B48007C10F0030FEF
:10A2800006D04748007940F001004549087105E0D3
:10A290004348007920F00100414908713248007CB0
:10A2A00010F00C0F06D03E48407940F001003C49C8
:10A2B000487105E03A48407920F00100384948717A
:10A2C0002948007C10F0050F06D03548807B40F00F
:10A2D00080003349887305E03148807B20F080009E
:10A2E0002F4988732048007C10F00A0F06D02C48B4
:10A2F000807B40F020002A49887305E02848807B55
:10A3000020F02000264988731748007C10F0800F49
:10A3100006D02348007940F004002149087105E087
:10A320001F48007920F004001D4908710E4890F87C
:10A33000DA00FF2806D11A48407B40F04000184957
:10A34000487305E01648407B20F0400014494873EC
:10A350000548007C10F0400F2CD01148407B20F0C5
:10A3600020000F4948732BE0F4B0002000007A442D
:10A370009A9999999999B93F00401C469999C93F72
:10A380000050C3473333D33F252E326620200000D0
:10A390002D2D2D2D000000002D47322D0000000036
:10A3A000FCB100209800002000000C4099990D405D
:10A3B000000010400E48407B40F020000C494873DC
:10A3C0000C4890F8B00010F0800F06D00848807B51
:10A3D00040F00A000649887305E00548807B20F0BC
:10A3E0000A0003498873FEF709FCBDE8FE830000FC
:10A3F000FCB10020F4B0002070B505460C460448BE
:10A400000168284604F038FB265C304670BD000029
:10A41000740000207CB50646002435460822002141
:10A420006846FBF77AFD08E028780F49FFF7E4FF5C
:10A430000DF80400601CC4B26D1C28780028F3D10C
:10A440006D461A208DF80100002409E015F8011B63
:10A450000A2202EB4402D0B200F0E6F8601CC4B25B
:10A46000042CF3DB7CBD0000074701087CB50646E1
:10A4700000243546082200216846FBF74EFD08E01F
:10A4800028780F49FFF7B8FF0DF80400601CC4B22C
:10A490006D1C28780028F3D16D46BA208DF8010094
:10A4A000002409E015F8011B0A2202EB4402D0B295
:10A4B00000F0BAF8601CC4B2042CF3DB7CBD0000D1
:10A4C000074701087CB506460024354608220021CE
:10A4D0006846FBF722FD1CE028782E280CD028784F
:10A4E0002349FFF789FF1DF8041008430DF8040005
:10A4F000601CC4B26D1C09E06D1C1D492E20FFF7C5
:10A500007BFF1DF8041008430DF80400032C00DD48
:10A5100002E028780028DFD100BF6D4617E014491B
:10A520002E20FFF769FF9DF8011008420ED003248A
:10A5300009E0601E1DF800000DF804000021601EF7
:10A540000DF80010C4B2002C01DDF2E700E0E6E7F0
:10A5500000BF002409E015F8011B0A2202EB4402A7
:10A56000D0B200F061F8601CC4B2042CF3DB7CBDF7
:10A57000074701087CB5064600243546082200211D
:10A580006846FBF7CAFC1CE028782E280CD02878F7
:10A590002449FFF731FF1DF8041008430DF80400AB
:10A5A000601CC4B26D1C09E06D1C1E492E20FFF713
:10A5B00023FF1DF8041008430DF80400032C00DDF0
:10A5C00002E028780028DFD100BF6D46062417E09E
:10A5D00014492E20FFF710FF9DF8011008420ED0FD
:10A5E000032409E0601E1DF800000DF8040000219E
:10A5F000601E0DF80010C4B2002C01DDF2E700E08F
:10A60000E6E700BF002409E015F8011B0622A2EBD3
:10A610004402D0B200F008F8601CC4B2042CF3DB92
:10A620007CBD0000F046010870B504460D4605F0FB
:10A630000F01204600F00EF82911621CD0B200F084
:10A6400009F8204604EBD0714910014A555470BDF9
:10A65000FCB1002070B504460D464FF400410D4892
:10A66000FDF785FC0320FEF7BFFA0321A020FEF7CB
:10A670008BFAA106080E0621FEF786FA2907080EB6
:10A680000421FEF781FA4FF400410248FDF771FC06
:10A6900070BD00000010014010B504460120A04725
:10A6A0000320A04710BD2DE9FF47074616461C466C
:10A6B000DDE90C899DF804004006000E0190002C95
:10A6C00016DD384600F0C0F8012201A9384600F036
:10A6D00076F8054635B93846FFF7DEFF002004B0AE
:10A6E000BDE8F08722463146384600F068F8054656
:10A6F000384600F0A9F89DF8040040F001000190F0
:10A70000012201A9384600F05AF805464A4641465A
:10A71000384600F006F80546384600F0ACF8284602
:10A72000DDE72DE9F04704460E461546A94628E028
:10A730004FF00008002714E07806070E0320A0471A
:10A740000A2009F01BFE0520A04708B147F00107C9
:10A750000420A0470A2009F011FE08F1010000F0D2
:10A76000FF08B8F1080FE7DB06F8017B002D04DDD8
:10A770000021204600F00DF803E00121204600F002
:10A7800008F82800A5F10101CDB2D1D14846BDE8B5
:10A79000F08770B504460D4615B10120A04701E0D1
:10A7A0000220A0470320A0470A2009F0E7FD04206B
:10A7B000A0470A2009F0E2FD0120A04770BD2DE965
:10A7C000F04704460E461546A94639E016F8018BB7
:10A7D000002717E018F0800F02D00120A04701E009
:10A7E0000220A0470320A0470A2009F0C7FD04204B
:10A7F000A0470A2009F0C2FD781CC7B24FEA4860A2
:10A800004FEA1068082FE5DB0120A0470320A0478E
:10A810000A2009F0B3FD0520A04782460A2009F06E
:10A82000ADFD0420A0470A2009F0A8FDBAF1000FF1
:10A8300004D0A9EB0500C0B2BDE8F087681EC5B220
:10A84000002DC3D14846F7E710B504460320A047C2
:10A85000052009F093FD0120A0470A2009F08EFD94
:10A860000220A0470A2009F089FD0420A0470A2001
:10A8700009F084FD10BD10B504460220A047142045
:10A8800009F07CFD0320A0470A2009F077FD012094
:10A89000A0471E2009F072FD10BD2DE9FF470746B5
:10A8A00014461D46DDE90C899DF804004006000EA3
:10A8B00001903846FFF7C8FF012201A93846FFF78B
:10A8C0007EFF064636B93846FFF7E6FE002004B0A4
:10A8D000BDE8F0872A4621463846FFF770FF064656
:10A8E0004A4641463846FFF76AFF06463846FFF7B4
:10A8F000C2FF3046EBE710B504462046FCF720FFC8
:10A9000010BD10B5FCF75CFF10BD01B5002000992B
:10A91000CA05D20D03D0012202EB512000E0480A03
:10A9200008BD70B504460D4629462046FCF774FF65
:10A9300070BD10B5FCF790FF10BD00BF0100A0F185
:10A94000010290B2FAD1704707B582B0BDF810008D
:10A95000ADF8040048208DF8070002208DF80600AD
:10A9600001A90398FDF72CFA05B000BD07B582B028
:10A97000BDF81000ADF8040010208DF8070002208B
:10A980008DF8060001A90398FDF71AFA05B000BD7D
:10A9900070B504460025A18A2069FDF7EAFAD4E9DA
:10A9A0000412E068FFF7D0FF21896068FDF7E1FA43
:10A9B0000A20FFF7C2FFA18A2069FDF7CFFA0543FD
:10A9C0000A20FFF7BAFF21896068FDF7D0FAD4E9C1
:10A9D0000412E068FFF7CAFF284670BD2DE9FC5F4E
:10A9E0008346584600F0C6F84721584600F096F8CE
:10A9F000002411E0584600F041F801A90855032C45
:10AA000004D10121584600F069F803E000215846BE
:10AA100000F064F8601CC4B2032CEBDB584600F075
:10AA2000C5F8052008F036F89DF804909DF805005B
:10AA300000EB09201FFA80F94846FAF706FE00905D
:10AA4000FAF78BFE07464FF033320A4BFAF785FDD3
:10AA50000546FAF769FE82465046FAF70CFE0746AD
:10AA60004FF06632044BFAF706FD0546FAF75CFE36
:10AA7000BDE8FC9F3333F33F6666F63F70B504468E
:10AA80000025D4E90412E068FFF75EFFA18A20697F
:10AA9000FDF76FFA002618E06806050E2189606848
:10AAA000FDF767FA0A20FFF748FFA18A2069FDF742
:10AAB00055FA08B1681CC5B221896068FDF757FADC
:10AAC0000A20FFF73AFF701CC6B2082EE4DBD4E977
:10AAD0000412E068FFF74AFF284670BD70B50446CF
