:020000040800F2
:10000000603B002001010008B9140008D911000864
:100010001114000871070008AF2800080000000054
:10002000000000000000000000000000D1170008E0
:100030000D0900080000000041150008FF18000825
:100040001B0100081B0100081B0100081B01000820
:100050001B0100081B0100081B0100081B01000810
:100060001B0100081B0100081B0100081B01000800
:100070001B0100081B0100081B0100081B010008F0
:100080001B0100081B0100081B0100081B010008E0
:100090001B0100081B0100081B0100081B010008D0
:1000A0001B0100081B0100081B0100081B010008C0
:1000B0001B0100081B010008000000001B010008D4
:1000C0001B01000800000000000000001B010008E8
:1000D0000000000059220008B922000800000000BA
:1000E0001B0100081B010008A3280008DFF80CD042
:1000F00000F0C4FA00480047B5310008603B00201A
:100100000648804706480047FEE7FEE7FEE7FEE7B1
:10011000FEE7FEE7FEE7FEE7FEE7FEE761190008FF
:10012000ED0000082DE9FE4F804681EA0300C00F74
:100130000C46009021F0004123F00045B8EB02008E
:10014000A94105D24046214690461C460B46024630
:1001500023F00040104347D0270DC7F30A00C3F334
:100160000A510290401A019040286BDAC3F3130041
:1001700040F4801B0098924620B10023D2EB030A82
:1001800063EB0B0B01985946C0F14002504600F05A
:10019000B7F906460D4650465946019A00F0CFF988
:1001A00010EB08006141002487EA115284EAE773EA
:1001B0001A4340D0009A62B3019A012A4FEA0752CB
:1001C00015DC001B61EB02014FF0004202EA07520E
:1001D000CDE90042001C41F5801132462B4600F06B
:1001E000CFF903B0BDE8F08F40462146F9E7001B88
:1001F00061EB0201001C41F5801300185B412018DF
:10020000A2F5001747EB030140EAD570B6196D411E
:1002100011E06D084FEA360645EAC0754FEA07520D
:10022000001B61EB0201001C41F5801149084FEAF7
:1002300030000019514132462B4603B0BDE8F04F63
:1002400000F08FB90098012240000023D0EB020299
:1002500063EBE073009821464FEAE074B8EB0000CE
:1002600061EB0401E9E783F000435BE781F00041C3
:1002700058E72DE9FE4F81EA030404F0004421F021
:10028000004100944FF0000B23F0004350EA0104BA
:100290005ED052EA03045BD0C3F30A54C1F30A559B
:1002A0002C44A4F2F3340194A0FB0254C1F31301D3
:1002B00041F48011C3F3130343F4801301FB0244A0
:1002C00000FB034E840A970A44EA815447EA8357A5
:1002D000A4FB076802958D0A05FB07854FEA932C5E
:1002E00004FB0C542705029D4FEA065847EA1637CF
:1002F000B5EB08056EEB070C870E920E47EA8117E7
:1003000042EA8312A7FB0201B6EB0B0164EB000487
:100310002B0D43EA0C335E1844EB1C50DA46514671
:10032000E7FB0201C5F313044FEA0B3343EA14530E
:100330004FEA0432019C43EA0603A4F10C04029440
:10034000009CCDE900B400F01BF903B0BDE8F08FCC
:1003500000200146F9E72DE9F04D81EA030404F09D
:10036000004B21F0004514464FF0000A23F00041F5
:1003700050EA050220D054EA01021DD0C5F30A5705
:100380000246C5F31303C1F31300C1F30A5640F448
:10039000801543F48013A7EB0608101BD64608F21D
:1003A000FD3873EB050002D308F1010801E0921853
:1003B0005B41B8F1000F03DA00200146BDE8F08D83
:1003C00000204FF48011064684460EE0171B73EBA5
:1003D000050705D3121B63EB050306434CEA010C2A
:1003E00049084FEA300092185B4150EA0107EDD10D
:1003F00052EA030012D082EA040083EA05010843AE
:1004000005D0101BAB4106D20122002306E00022DA
:100410004FF0004302E06FF0010253101AEB0600A8
:100420004CEB085110EB0A0041EB0B01BDE8F04D1D
:1004300000F097B870B5C1F30A5201F000450024EE
:10044000C1F3130140F2FF3341F480119A4201DA03
:10045000002070BD40F233439A42A2F2334203DCE3
:10046000524200F05CF800E090402C43F1D0404252
:1004700070BD30B50B46014600202022012409E062
:1004800021FA02F59D4205D303FA02F5491B04FA4D
:1004900002F52844151EA2F10102F1DC30BD2DE960
:1004A000F05F0546002092469B46884606468146F8
:1004B00040241BE0284641464746224600F02FF8DC
:1004C00053465A46C01A914110D311461846224647
:1004D00000F016F82D1A67EB01084F46224601205E
:1004E000002100F00DF817EB00094E41201EA4F189
:1004F0000104DFDC484631462A464346BDE8F09F0A
:10050000202A04DB203A00FA02F1002070479140D3
:10051000C2F1200320FA03F3194390407047202AC8
:1005200004DB203A21FA02F00021704721FA02F39D
:10053000D040C2F120029140084319467047202A5A
:1005400006DBCB17203A41FA02F043EAE07306E0FB
:1005500041FA02F3D040C2F120029140084319460B
:10056000704710B5141E73F1000408DA401C41F105
:10057000000192185B411A4301D120F0010010BD27
:100580002DE9F04D92469B4611B1B1FA81F202E09D
:10059000B0FA80F220329046FFF7B2FF04460F46D1
:1005A00040EA0A0041EA0B0153465A46084313D079
:1005B000114653EA010019D0C8F140025046FFF736
:1005C000AEFF05460E46504659464246FFF798FF95
:1005D000084305D0012004E020463946BDE8F08DEF
:1005E0000020054346EAE0762C4337430A9863052A
:1005F000E40AA0EB08000022FD0A44EA47540A304E
:1006000002D500200146E9E7010510196941DDE93D
:10061000084500196941BDE8F04DA2E7C1F30A524F
:10062000C1F3130140F2FF3341F480119A4202DA20
:1006300000200146704740F233439A42A2F233420F
:1006400002DC5242FFF76BBFFFF75ABF30B5041E02
:1006500071F1000404DB4FF00044404264EB0101FF
:10066000141E73F1000405DB1C464FF00043524298
:1006700063EB0403994208BF904230BD064C074D1E
:1006800006E0E06840F0010394E807009847103462
:10069000AC42F6D3FFF72EFD703800089038000802
:1006A00082B02DE9FF1FEFF3038001B4684600F12B
:1006B000400000E901400C480168C1F800D00B4837
:1006C000D0F800D001BC80F30388BDE8FF1F01B063
:1006D00000BD0648D0F800D001BC80F30388BDE817
:1006E000FF1F01B000BD0000300000202C000020E2
:1006F00070B50C210D4801F08BF904460C4E3046C4
:1007000005884FF6FF70854207D100F075FD214640
:10071000304600F069FD00F063FD05480588A542FC
:1007200001D0002070BD0120FCE70000E8F7FF1FAA
:100730000832000806E04FF47A7100BF0A1EA1F1EA
:100740000101FBD1021EA0F10100F4D17047F0B508
:10075000034600201C460D46104603E014F8016BCA
:1007600005F8016B161EA2F10107BAB2F6D1F0BD71
:1007700000BFFEE70FB42DE9F04186B00025012649
:100780000027B00200F072FE044654480078FF28AB
:1007900001D1012000E0002050490978504A127828
:1007A000914201D1012100E00021084300287DD0C1
:1007B0000DA805902046059A0C9902F07BF80020C0
:1007C00005900DA8059069460C9800F0B9FC064606
:1007D0002AE02846691CCDB21DF80000012804D08B
:1007E000022806D003281AD115E0059880C8059084
:1007F00019E00598C01D20F007000590D0E9002100
:10080000DDF814C00CF1080C1046CDF814C0FFF749
:1008100011FE074607E0059880C8059003E005989B
:1008200080C8059000BF00BF301EA6F10106D0D1E0
:10083000059880C80590002005902A480078FF2878
:1008400001D1012000E0002026490978B94201DBEE
:10085000012100E00021084340B3214622A001F01D
:100860002DF82248007800F0020068B1204908788D
:1008700000F088FA40B1204600F0A2FC80464246D3
:1008800021461C4801F0FCFF1848007800F00400E5
:1008900078B11749487800F075FA50B1204600F059
:1008A0008FFC804642462146134800E00EE001F0EE
:1008B000E7FF1248006848B1204600F081FC00F0D4
:1008C000FF08414620460D4A12689047204600F036
:1008D000A1FD06B0BDE8F0015DF814FB6800002042
:1008E0003C0000206A0000200D0A00006900002082
:1008F0001400002000380140004400406400002043
:10090000014908707047000069000020704700002E
:1009100010B500201A4908704FF4A07000F0A6FD31
:1009200018490860002406E0FF20174908551749B8
:100930000855601CC4B2052CF6DB00241DE0002025
:100940001049096801EB4411486103200D49096809
:1009500001EB4411087200200A49096801EB4411B7
:1009600008610849096801EB4411C8600549096834
:1009700001EB44118861601CC4B20A2CDFDB10BD9E
:10098000540000205800002014000020190000200E
:100990002C4909782C4A11702A490978491C294A9E
:1009A000117029490978294A1268274B1B7802EBF4
:1009B0004312117126A1254A1268234B1B7802EBC2
:1009C000431211600021214A12681F4B1B7802EB71
:1009D0004312517102221D4909681B4B1B7801EB20
:1009E0004311CA71012219490968174B1B7801EBA1
:1009F00043110A721849154A1268134B1B7802EB0F
:100A000043125161114909680F4A127801EB4211F2
:100A1000C86100220D4909680B4B1B7801EB43119B
:100A2000CA600021094A1268074B1B7802EB431287
:100A30001161002205490968034B1B7801EB431142
:100A40008A617047540000202800002058000020D0
:100A50004750494F00000000CD0F000820480078A3
:100A6000204908701E480078401C1D4908701EA0CF
:100A70001E4909681B4A127801EB421108600020E8
:100A80001A490968174A127801EB4211487103208C
:100A900016490968134A127801EB4211C871012105
:100AA000124800680F4A127800EB42100172104899
:100AB0000E4909680B4A127801EB42114861002087
:100AC0000A490968074A127801EB4211C8610749CF
:100AD0000968044A127801EB4211886170470000EE
:100AE000540000206C0000204C43440058000020BB
:100AF000811600082DE9F04107460D461646384696
:100B000001F05EFD04465F48005DFF2808D15E48A5
:100B100000785C4908555C480078401C5A490870C8
:100B20005AA05849095D5B4A126802EB41110860FE
:100B300000205449095D574A126802EB411148717F
:100B400001205049095D534A126802EB4111C871F6
:100B500003204C49095D4F4A126802EB41110872AB
:100B60004D484849095D4B4A126802EB4111486102
:100B70004448005D4749096801EB4010C46147499A
:100B80004048005D434A126802EB4010C16044488F
:100B90003C49095D3F4A126802EB4111086100219E
:100BA0003848005D3B4A126802EB4010816100202A
:100BB0003C4921F81400284600F058FC3A4941F815
:100BC0002400384601F0FCFC04463848005DFF284C
:100BD00008D12D480078354908552B480078401C2D
:100BE0002949087032A03149095D2A4A126802EB8E
:100BF0004111086000202D49095D264A126802EB68
:100C00004111487101212948005D224A126802EB16
:100C10004010C17103202549095D1E4A126802EB8C
:100C2000411108721C492148005D1A4A126802EB02
:100C3000401041611D48005D1649096801EB4010F4
:100C4000C46116481949095D124A126802EB411144
:100C5000C86013481549095D0E4A126802EB41113C
:100C6000086100201149095D0A4A126802EB41112E
:100C70008861304600F0FAFB0F4941F82400BDE8D6
:100C8000F08100001900002054000020555341520B
:100C900052780000580000206123000861280008F5
:100CA0006927000898000020700000201400002030
:100CB00055534152547800008400002010B504467A
:100CC0001E2211462046FFF715FF10BD10B5032167
:100CD00024A0FFF74FFD002441E02948006800EB05
:100CE00044104069C8B32648006800EB4410C0793E
:100CF000012806D0022817D003280ED004282BD1B3
:100D00001EE01F4A126802EB4412107F1C4A126850
:100D100002EB4412516988471EE01949096801EB4A
:100D200044114869804717E0154A126802EB4412E3
:100D3000D069134A126802EB4412516988470BE0EC
:100D40000F4A126802EB4412D0690D4A126802EB96
:100D500044125169884700BF00BF601CC4B20A2C0E
:100D6000BBDB10BD546F7320446576696365204911
:100D70006E69742E2E2E2E2E2E2E2E2E2E0000005C
:100D8000580000200146FF2901D100207047054886
:100D9000006800EB4110406908B90020F6E7012027
:100DA000F4E7000058000020014908607047000087
:100DB0001404014004200B49C96801F0010109B184
:100DC00001200EE00749C96801F0040109B10220C1
:100DD00007E00449C96801F0100109B1032000E0EF
:100DE00004207047002002400348006940F0800062
:100DF00001490861704700000020024070B50446B8
:100E00000D460426F00200F025F80646042E11D106
:100E10000948006940F00100074908612580F00297
:100E200000F018F806460448006941F6FE710840D3
:100E300001490861304670BD002002400248034964
:100E4000486003484860704723016745002002401E
:100E5000AB89EFCD00B502460423FFF7ABFF034695
:100E600003E0FFF7A7FF0346521E012B01D1002A22
:100E7000F7D102B90523184600BD70B50446002518
:100E8000107820B116782068B0FBF6F085B22068A3
:100E9000084420601078984203DA1078401C1070E3
:100EA00002E02068401B206016782068B0FBF6F056
:100EB00080B270BD2DE9F0410246002500260020D9
:100EC00000230024002791F803C00CF00F0591F8CF
:100ED00003C00CF0100CBCF1000F03D091F802C05D
:100EE0004CEA050591F800C0BCF1000F31D0146840
:100EF00000202BE04FF0010C0CFA00F3B1F800C019
:100F00000CEA03069E4220D183004FF00F0C0CFA2E
:100F100003F7BC4305FA03FC4CEA040491F803C050
:100F2000BCF1280F06D14FF0010C0CFA00FCC2F8FE
:100F300014C00AE091F803C0BCF1480F05D14FF08E
:100F4000010C0CFA00FCC2F810C0401C0828D1D3D8
:100F50001460B1F800C0BCF1FF0F34DD546800200C
:100F60002EE000F1080C4FF0010808FA0CF3B1F87C
:100F700000C00CEA03069E4221D183004FF00F0C03
:100F80000CFA03F7BC4305FA03FC4CEA040491F89D
:100F900003C0BCF1280F05D100F1080C08FA0CF8C9
:100FA000C2F8148091F803C0BCF1480F07D100F1DA
:100FB000080C4FF0010808FA0CF8C2F81080401C29
:100FC0000828CED35460BDE8F081000038B504464F
:100FD000002536E01D4A6068811A904217D009DC6E
:100FE0001B49084468B1B0F5806F0CD0B0F5006FB4
:100FF00013D10AE0B1F5806F0BD0B1F5006F0CD1C1
:1010000009E0042509E0082507E0102505E0202572
:1010100003E0402501E0802500BF00BF45F001004E
:10102000012100F09FFA20788DF802002089ADF8A8
:10103000000060788DF8030069466068FFF73AFFAA
:101040000C3420780028C5D138BD000000140140C0
:1010500000F8FEBFF0B50A46002300240021002559
:1010600000F00046B6F1004F02D11D4EF16901E0DB
:101070001B4E7168C0F3034583B200F44016B6F509
:10108000401F08D121F07061154E766826F0706619
:10109000134F7E6012E000F48016B6F5801F06D173
:1010A000032606FA05F4A14341F0706106E0460DFF
:1010B000360103FA06F6B14341F0706122B1460DE4
:1010C000360103FA06F6314300F00046B6F1004F50
:1010D00002D1034EF16101E0014E7160F0BD0000EC
:1010E00000000140416170471FB51C462CB1BDF89E
:1010F0000810019800F007F804E0BDF80810019806
:10110000FFF7F0FF1FBD0161704700002DE9F041BE
:1011100004460D46084800680849097800EB41106C
:10112000C66904EB440006EB80072B4697E80700EE
:10113000FFF7DAFFBDE8F08158000020280000200A
:10114000F0B504460A46002300200025214633E07E
:101150000E78252E02D10125461CB0B2012D2AD1D0
:101160000E78642E06D1AC461E465F1CBBB202F858
:1011700006C000250E78662E07D14FF0020C1E46E1
:101180005F1CBBB202F806C000250E78732E07D193
:101190004FF0030C1E465F1CBBB202F806C00025D0
:1011A0000E78632E07D14FF0040C1E465F1CBBB2B5
:1011B00002F806C00025491C0E78002EC8D1F0BDEB
:1011C00010B5014600200A4601E0431C98B212F80F
:1011D000014B002CF9D110BD01E000F005F9FCE74E
:1011E00010B5FFF701FE10BD70B504460D46294647
:1011F0002046FFF703FE70BD10B5FFF71FFE10BDC0
:1012000010B545F2555000F029F8062000F01AF804
:101210004FF47F6000F01CF800F00CF800F002F8CA
:1012200010BD00004CF6CC4001490860704700003A
:10123000003000404AF6AA200149086070470000CB
:101240000030004001494860704700000030004015
:101250000149886070470000003000400149086083
:10126000704700000030004070B50546102111485D
:10127000FFF738FF002419E004F1B001C8B20121E2
:1012800000F082FA0121002000F07EFA01211020F6
:1012900000F07AFA002605E0E8B2002100F074FAC6
:1012A000701CC6B2802EF7DB601CC4B2082CE3DBD6
:1012B00070BD00000008014010B50121AE2000F013
:1012C00063FA0121202000F05FFA0121102000F0D4
:1012D0005BFA0121B02000F057FA0121C82000F08C
:1012E00053FA0121002000F04FFA0121102000F0F4
:1012F0004BFA0121402000F047FA0121812000F043
:1013000043FA0121FF2000F03FFA0121A12000F063
:101310003BFA0121A62000F037FA0121A82000F0B5
:1013200033FA01213F2000F02FFA0121A42000F020
:101330002BFA0121D32000F027FA0121002000F030
:1013400023FA0121D52000F01FFA0121F02000F03E
:101350001BFA0121D92000F017FA0121222000F008
:1013600013FA0121DA2000F00FFA0121122000F017
:101370000BFA0121DB2000F007FA0121202000F008
:1013800003FA01218D2000F0FFF90121142000F063
:10139000FBF90121AF2000F0F7F910BD2DE9F04174
:1013A0000546002700241BE004F1B001C8B201216A
:1013B00000F0EAF90121002000F0E6F901211020F7
:1013C00000F0E2F9002607E039467F1C685C002146
:1013D00000F0DAF9701CC6B2802EF5DB601CC4B2D6
:1013E000082CE1DBBDE8F08171B600BF064800685B
:1013F00000F4E06005490843001D03490860BFF39D
:101400004F8F00BF00BFFEE70CED00E00000FA05C3
:1014100000BFFEE702460A4B1868002106E0A2F171
:101420000803834200D107E0014600680368002BEF
:10143000F5D101B10B60704703680B6000BFFAE79C
:101440005C0000200146A1F108025068083870478E
:10145000054908600021044A126811600821024A07
:1014600012685160704700005C00002010B5034610
:101470001048016803F1080083B20FE00868401AC1
:101480004C68001B984208D34868421853600868AB
:1014900010600A6002F1080010BD096808680028A1
:1014A000ECD1486842180020106053600A6002F1D5
:1014B0000800F1E75C0000207047000070B50021D3
:1014C00000230F22C47804B3154C246804F4E064AC
:1014D000C4F5E064210AC1F10403CA40447804FA67
:1014E00003F184781440214309010E4C0678A1557C
:1014F000047804F01F050124AC4005786D11AD009F
:1015000005F1E025C5F8004109E0047804F01F0565
:101510000124AC40044D0678761145F8264070BD94
:101520000CED00E000E400E080E100E0024901434E
:10153000024A1160704700000000FA050CED00E05F
:101540007047000029B1064AD2690243044BDA61B0
:1015500004E0034AD2698243014BDA61704700001C
:101560000010024029B1064A92690243044B9A6175
:1015700004E0034A92698243014B9A61704700007C
:101580000010024030B500210022002400232D4D20
:101590006D6805F00C0121B1042905D0082923D17B
:1015A00005E0294D056022E0274D05601FE0254D2F
:1015B0006D6805F47012234D6D6805F480340225C2
:1015C00005EB92421CB9214D554305600BE01D4DC2
:1015D0006D6805F400351DB11C4D5543056002E0F2
:1015E000194D5543056002E0174D056000BF00BF6F
:1015F000144D6D6805F0F0010909154D6B5C056827
:10160000DD4045600F4D6D6805F4E061090A104D3D
:101610006B5C4568DD4085600A4D6D6805F460517E
:10162000C90A0B4D6B5C4568DD40C560054D6D68B2
:1016300005F44041890B074D6B5CC568B5FBF3F5BC
:10164000056130BD0010024000127A0000093D0023
:10165000000000201000002010B501210148FFF714
:10166000F9FC10BD0002300021B1028842F04002B6
:10167000028004E002884FF6BF731A400280704770
:1016800000B587B0012141F20400FFF76BFF012193
:10169000204800F06CF8A020ADF8040018208DF868
:1016A000070003208DF8060001A91B48FFF702FC84
:1016B0001820ADF8040010208DF8070003208DF8E5
:1016C000060001A91448FFF7F5FB0020ADF808005B
:1016D0004FF48270ADF80A000020ADF80C00022033
:1016E000ADF80E000120ADF810000020ADF812009A
:1016F000ADF81400ADF816000720ADF8180002A9E7
:10170000044800F016F801210248FFF7ADFF07B0CA
:1017100000BD0000003001400008014002460020EA
:1017200013890B400BB1012000E00020704781813C
:10173000704710B50022028802F441520B884C8891
:1017400023438C882343CC8823430C8923434C892F
:1017500023438C892343CC8923431A430280838B00
:101760004FF2FF74234083830B8A038210BD21B1A3
:10177000828842F00402828004E082884FF6FB7384
:101780001A4082807047000070B504460D4625B1AE
:1017900008210D48FFF7A6FC03E008210A48FFF7DF
:1017A000B2FC012000F0E4FA00BF02210748FFF775
:1017B000B5FF0028F9D021460448FFF7B8FF012003
:1017C00000F0D6FA70BD0000000801400030014072
:1017D000704710B500F002F810BD00000CB50020F5
:1017E000019000903348006840F48030314908602F
:1017F00000BF3048006800F4003000900198401CA1
:101800000190009818B90198B0F5A06FF1D129485E
:10181000006800F4003010B10120009001E00020C9
:1018200000900098012843D12348006840F0100040
:10183000214908600846006820F003000860084657
:10184000006840F0020008601A4840681949486082
:101850000846406848600846406840F48060486038
:101860000846406820F47C1048600846406840F410
:10187000E81048600846006840F08070086000BFCB
:101880000C48006800F000700028F9D00948406852
:1018900020F00300074948600846406840F0020015
:1018A000486000BF0348406800F00C000828F9D1E8
:1018B0000CBD000000100240002002402DE9F04164
:1018C00006460D462C4637462846FFF779FC044469
:1018D0003046FFF775FC804608F1010008B9BDE805
:1018E000F08103E017F8010B04F8010BB8F10000D8
:1018F000A8F10108F6D104F8010B00BFEFE710B51D
:1019000000F078F910BD000030B51249B1F1807FC8
:1019100000D31DE021F07F40401E4FF0E0225061D7
:1019200050170F22002807DA13071D0E0A4B00F08C
:101930000F04241F1D5503E013071C0E074B1C54F6
:1019400000BF00204FF0E02290610720106100BF2F
:1019500030BD00004019010018ED00E000E400E097
:1019600010B51348006840F00100114908600846AE
:101970004068104908400E494860084600680E4912
:1019800008400B4908600846006820F48020086081
:101990000846406820F4FE0048604FF41F0088604D
:1019A000FFF717FF4FF000600449086010BD00000A
:1019B000001002400000FFF8FFFFF6FE08ED00E017
:1019C000FFF74AFE0220FEF79BFFFFF775FC0BE0D6
:1019D000642000F0CDF90020FFF746FC642000F001
:1019E000C7F90248FFF7DAFCF2E700000C34000800
:1019F0000DE0642000F0BCF901210020FFF786FB18
:101A0000642000F0B5F900210846FFF77FFBF0E7FE
:101A1000F0B502460C46FF21FF2500260BE012F828
:101A2000017B87EA0503084FFF5C87EA0105074F42
:101A3000F95C771CBEB2A642F1DB08464FF6FF7791
:101A400007EA00202843F0BD0A3200080A330008E4
:101A500010B510480078132804D00F480078401CB7
:101A60000D4908700D480078401C0C490870084664
:101A7000007864280DDD002008701423084A064809
:101A800001780848FFF7F9F9074908700020024972
:101A9000087010BD3C0000205000002048000020CD
:101AA000490000204C0000203400002010B54FF405
:101AB0007070FFF7DBFC1E49086002201D4948706A
:101AC00000204860002428E0012004EB4401184A6B
:101AD000126802EB01110881002004EB4401144A52
:101AE000126802EB01118861002104EB4400104AE6
:101AF000126802EB00100160002004EB44010C4A64
:101B0000126802EB0111C86104EB4401084A126833
:101B100002EB01110884601CC4B2142CD4DB132026
:101B2000054908700020054908600549086010BD96
:101B300040000020340000203C0000204400002031
:101B40006000002070B50446FFF7B0FF04E094E8A1
:101B50000F0000F0DBF8103420680028F7D100F007
:101B600031F870BD10B50446FFF7B0F8FFF748FB39
:101B7000FEF7BEFD00B910BD06E0FFF75BFB642079
:101B800000F0F6F800F002F8F7E7000010B50C4896
:101B9000046804B910BD0EE02468A07A00F00100CA
:101BA00048B1A07A00F0020028B1E0688047A07A2E
:101BB00020F00200A07220680028EDD100BFE9E704
:101BC0006000002008B5FFF79FFE4FF4FA6005A300
:101BD000002207490090132000F030F8132000F095
:101BE0001FFA08BD5461736B526F6F7400000000E0
:101BF000651B000810B5FFF72BFF00F04FF90848F0
:101C00004078402805D1032106A0FEF7B3FDFFF779
:101C1000EBFB0948006808B100F0D6FA10BD0000DF
:101C200034000020544F532054696D654F75742063
:101C30005265736574000000600000202DE9F047D4
:101C400004460D4691461F46DDF820800DB9BDE8DB
:101C5000F08704EB44002C49096801EB001000896F
:101C6000012800D0F3E704EB44002749096801EBA1
:101C70000010008C98B91FFA88F0FFF7F7FB0646B2
:101C800004EB4401204A126802EB0111A1F8208004
:101C900004EB44011C4A126802EB0111CE6104EB13
:101CA0004402194B1B6803EB0212118C04EB440233
:101CB000154B1B6803EB0212D06900F051FA824603
:101CC000022104EB4400104A126802EB001001816B
:101CD00004EB44000C49096801EB0010456004EB7B
:101CE00044000949096801EB0010C7624A462946C9
:101CF000504600F05DF904EB4401034A126802EB20
:101D00000111086000BFA2E7400000202DE9F84360
:101D100005460E461746984600241AE004EB440098
:101D20001249096801EB0010008900B912E004EBC8
:101D300044000E49096801EB00100089012800D118
:101D400008E0601C80B20446142802DB0020BDE8D5
:101D5000F883E3E700BFE0B23B4632462946CDF8C0
:101D60000080FFF76BFF0120F1E70000400000203A
:101D700010B504461348407801281FD000201249AE
:101D8000097801EB4101114A126802EB01118861E7
:101D90000D48007800EB40000C49096801EB001089
:101DA000446110210848007800EB4000074A12689F
:101DB00002EB0010018100F083F902E02046FEF7FB
:101DC000B9FC10BD340000203C0000204000002081
:101DD00001460D48006800EB4110007A08B9002068
:101DE00070470948006800EB41104079074A1278B3
:101DF000904201D00020F3E70120034A126802EB71
:101E00004112107200BFEBE7580000203C00002098
:101E100070B504460D4600BF1E48006800EB441034
:101E2000007A30B1012815D0022804D003282FD120
:101E30001FE0002070BD1748006800EB4410407997
:101E400015490978884201D10120F3E7204600F0C6
:101E5000E5F9E1E702200F49096801EB4411087236
:101E60000D4800780B49096801EB441148710120C5
:101E7000E0E702200749096801EB441108720648AF
:101E800000780449096801EB441148710120D1E749
:101E90000020CFE7580000203C000020002056E042
:101EA00000EB40012B4A126802EB0111098902295B
:101EB00002D0102947D11DE000EB4001254A1268ED
:101EC00002EB01118969491C00EB4002214B1B68A0
:101ED00003EB0212916100EB40011E4A126802EB13
:101EE0000111896944F62062914202D940211A4ABF
:101EF000517029E0002100EB4002164B1B6803EBF8
:101F00000212916100EB4001124A126802EB0111CA
:101F1000496941B9022100EB40020E4B1B6803EBFB
:101F2000021211810EE000EB40010A4A126802EB36
:101F300001114969491E00EB4002064B1B6803EB87
:101F40000212516100E000BF00BF411CC8B214285A
:101F5000A6DB7047400000203400002010B5044686
:101F60000F480078A04200D110BD0D48007800EB6A
:101F700040000C49096801EB00100B490860084853
:101F80000470007800EB40000649096801EB00107E
:101F9000006806490860FEF783FB00BFE4E7000025
:101FA0003C00002040000020300000202C000020D9
:101FB00030B503461846041F20462160041F204602
:101FC00023600025041F20462560041F204625604D
:101FD000041F20462560041F20462560041F20465C
:101FE0002560041F20462560041F20462560041F2D
:101FF00020462560041F20462560041F20462560DA
:10200000041F20462560041F20462560041F20462B
:1020100022604FF08075041F2046256030BD00000F
:1020200010B5044604EB44000449096801EB0010B4
:10203000006803490860FEF74CFB10BD400000201B
:102040002C00002010B50446142C01DB002010BD2C
:1020500004EB44001949096801EB001000890128CC
:1020600001D10020F3E704EB44001449096801EBB7
:1020700000100089042801D10020E8E704EB4400A7
:102080000E49096801EB00100089082801D10020E1
:10209000DDE7082004EB4401084A126802EB011155
:1020A0000881002004EB4401044A126802EB01118C
:1020B000486100F005F80120C9E700004000002059
:1020C00010B5022123480068A0F8981300243DE0D1
:1020D00004EB44001F49096801EB00100089022845
:1020E00002D020282ED107E01B480078A04202D061
:1020F0002046FFF733FF10BD04EB44001549096883
:1021000001EB001090F822001449096801EB40101F
:10211000007A012815D1102004EB44010D4A126801
:1021200002EB01110881032004EB4401094A126803
:1021300002EB011191F82210084A126802EB4111DA
:10214000087200E000BF00BF601CC4B2142CBFDBEB
:1021500000BFD0E7400000203C00002058000020D5
:102160000246501820F00303A3F1300020F00700CE
:102170007047000010B5142800DB10BD00EB4002D2
:10218000104B1B6803EB02121289042A00D1F4E7FA
:10219000002200EB40030B4C246804EB03139A610C
:1021A000102300EB4002074C246804EB0212138159
:1021B00000EB4002034B1B6803EB0212516100BFAE
:1021C000DBE700004000002010B51348006800B9AC
:1021D00010BD11480068E0B10F480068807A00F037
:1021E0000100B0B10C48006800890B490968898872
:1021F000884207DB08490968C8688047002006490B
:1022000009680881044800680089401C024909687F
:10221000088100BFDCE700006000002010B5044624
:102220000B48007800EB40000A49096801EB0010F8
:1022300080F8224020200649097801EB4101054A37
:10224000126802EB01110881FFF73AFF10BD000090
:102250003C0000204000002010B540F225511148FC
:1022600000F083F9C0B10F48001D0088C4B20E48C9
:1022700000880E490988884213DA0B4801880088D3
:10228000401C094A10800A480068445409490878EB
:102290000A21FFF76FFF04E040F22551014800F0EA
:1022A00044F810BD00380140A20000209800002032
:1022B000700000202300002010B540F22551114885
:1022C00000F053F9C0B10F48001D0088C4B20E4899
:1022D00040880E494988884213DA0B484188408873
:1022E000401C094A50800A484068445409494878CB
:1022F0000A21FFF73FFF04E040F22551014800F0BA
:1023000014F810BD00440040A200002098000020F6
:10231000700000202300002001F40072B2F5007F5D
:1023200000D100BFCA430280704710B500220023CD
:1023300040F66A14A14200D100BF0A120124944061
:10234000A3B2DC43048010BD21B1828942F4005263
:10235000828104E082894DF6FF731A4082817047C2
:1023600070B50446204600F04FF9054600F06EF8BF
:10237000052C27D2DFE804F0030A11181F002522DC
:102380004FF4E131104800F029F81BE026224FF409
:10239000E1310E4800F022F814E027224FF4E13139
:1023A0000B4800F01BF80DE034224FF4E1310948EE
:1023B00000F014F806E035224FF4E131064800F051
:1023C0000DF800BF00BF70BD003801400044004060
:1023D00000480040004C00400050004070B586B0FE
:1023E00006460C46154601940020ADF80800ADF8ED
:1023F0000A00ADF80C00ADF810000C20ADF80E008E
:1024000001A9304600F044F9012240F2255130463E
:1024100000F018F901213046FFF796FF40213046C1
:10242000FFF77AFF4FF48060FFF780F88DF81450C3
:1024300002208DF8150001208DF816008DF8170088
:1024400005A8FFF73BF806B070BD000038B504469C
:10245000274884420BD10D202315264A51150090A0
:10246000104600F057F801218803FFF77BF8224857
:1024700084420BD1042008231E4A014600901046D6
:1024800000F048F801214804FFF75CF81B4884423B
:102490000FD10920E3141A4A11150090104600F0DC
:1024A00039F801218804FFF74DF801218804FFF76E
:1024B00059F8144884420BD11120E314124A111523
:1024C0000090104600F026F80121C804FFF73AF802
:1024D0000E4884420BD1312004230D4A9114009000
:1024E000094800F017F801210805FFF72BF838BD5F
:1024F000003801400008014000440040004800400E
:10250000000C0140004C0040001001400050004011
:10251000001401402DE9F84307460D4616461C46B7
:10252000DDF8208001214046FFF71CF8ADF800508F
:1025300003208DF8020018208DF803006946384604
:10254000FEF7B8FCADF8004004208DF803006946A2
:102550003046FEF7AFFC29463846FEF7D4FD21464B
:102560003046FEF7D0FDBDE8F88370B50246002482
:1025700000230025002040F66A16B14200D100BFBA
:10258000C1F3421501F01F03012606FA03F3012DE2
:1025900002D19689334006E0022D02D1168A3340DB
:1025A00001E0968A33400C12012606FA04F41688DC
:1025B000344013B10CB1012000E0002070BD0000D8
:1025C00001460F4A881A914213D006DC0D48084490
:1025D00058B1B0F5806F10D109E0B0F5806F0AD026
:1025E000B0F56C4F09D1002070470120FCE70220B4
:1025F000FAE70320F8E70420F6E70020F4E70000FC
:10260000004C004000BCFFBF014605290ED2DFE8A8
:1026100001F0030507090B00054870470548FCE772
:102620000548FAE70548F8E70548F6E70020F4E72B
:10263000003801400044004000480040004C004089
:1026400000500040F0B5034600240026002500207D
:1026500040F66A17B94200D100BF1846C1F34214D0
:1026600001F01F06012707FA06F5012C01D10C30F5
:1026700004E0022C01D1103000E014301AB10768D8
:102680002F43076002E00768AF430760F0BD00001A
:102690002DE9F04786B005460E460024A24600BF4D
:1026A000A1460027B08900B100BF2F462C8A4CF606
:1026B000FF700440F08804432C82AC894EF6F3107E
:1026C0000440B08831890843718908430443AC81D0
:1026D000AC8A4FF6FF400440B0890443AC8201A8A5
:1026E000FEF750FF1F48874202D1DDF810A001E03D
:1026F000DDF80CA0A88900F4004040B10AEBCA0044
:1027000000EB0A1031684900B0FBF1F807E00AEB72
:10271000CA0000EB0A1031688900B0FBF1F86420B0
:10272000B8FBF0F004012009642101FB1089A8899D
:1027300000F4004040B1322000EBC900B0FBF1F0E2
:1027400000F00700044308E0322000EB0910642188
:10275000B0FBF1F000F00F0004432C8106B0BDE89F
:10276000F0870000003801402DE9F05F05460E4675
:1027700014462F46B046A1463846FFF721FF824651
:10278000084951F82A00FEF75DFE1FFA80FB00237E
:102790005A464146384600F007F8A9F80000BDE85F
:1027A000F09F0000700000202DE9F04781460F46A1
:1027B00015461E464846FFF703FF04462249085DBA
:1027C0000021FFF725FB8246204951F82400FEF73F
:1027D00039FE8046BAF1000F27D0012240F2255180
:1027E0004846FFF72FFF1A4800781A490855454513
:1027F00001D31FFA88F5184820F814500020174913
:1028000021F814001EB13046FFF7B2FA03E0114977
:10281000085DFFF717FC0C49085DFFF7D9FA0022A5
:1028200040F225514846FFF70DFF47B10B4931F8FB
:102830001420064951F824003946FDF788FF07485F
:1028400030F81400BDE8F087190000207000002067
:102850003C0000202300002098000020A20000205F
:102860002DE9F04304460D4616462746A846B6F81D
:1028700000904A464146384600F002F8BDE8F08331
:1028800010B50B46002109E000BF048804F0800465
:10289000002CFAD05C5C84804C1CA1B29142F3DB2A
:1028A00010BD10B54FF48020FEF77EFA10BD00BFBA
:1028B000FEE7000037B514460846064B6A46214637
:1028C00000F0DCF804466946002000F06EFC20466B
:1028D0003EBD0000AB31000802E008C8121F08C16D
:1028E000002AFAD170477047002001E001C1121F91
:1028F000002AFBD1704700002DE9FF5F82B0002164
:10290000DDE90430020DDDF840B0034318D044F691
:102910001050A2F2FF3242431514119801281FD023
:10292000A5EB0B00401C5FEA000A4FF000064E4F7B
:10293000DFF83891B046504615D5CAF1000413E0CF
:10294000119801244AA3012801D16FEA0B010298D2
:10295000119AC0E90031C0E9024206B0BDE8F09F1B
:10296000CBF10000DFE704460021404A491842EB62
:102970000450CDE9001012E0E00707D032463B4694
:1029800040464946FDF775FC8046894632463B463F
:1029900010461946FDF76DFC06460F466410002CE4
:1029A000EAD1DDE90401DDE90023BAF1000F06DA1E
:1029B000FDF75FFC42464B46FDF75BFC05E0FDF78B
:1029C000CAFC42464B46FDF7C6FC04460E460022B2
:1029D000284BFDF73BFE03D84FF0FF30014607E0E0
:1029E0000022254B20463146FDF79CFBFDF716FEE5
:1029F000102409E0002C0ADB0A220023FDF74FFD1A
:102A0000039B30321A55641E50EA0102F2D1641C55
:102A1000039AC4F111031444119A012A03D001222C
:102A200008430DD10AE0084304D000204FF0110BF9
:102A3000119072E7A3EB0B056D1E0DE05B4504DD05
:102A40004FF0000205F1010504E003DA4FF0000247
:102A5000A5F10105002AECD002981199C0E90231D4
:102A6000C0E9004579E70000000014400000F03F95
:102A7000300000000000F0430000E03F2DE9FF4F70
:102A800095B09B468946064600250FE2252877D15A
:102A900000242746F84A0121059400E0044316F873
:102AA000013F203B01FA03F01042F7D130782A2889
:102AB00011D06FF02F033078A0F13002092A16D818
:102AC000059A44F0020402EB820203EB4202104436
:102AD000761C0590EFE759F8042B0592002A03DADB
:102AE000504244F40054059044F00204761C3078BF
:102AF0002E2816D116F8010F44F004042A280DD010
:102B00006FF02F023078A0F13003092B09D807EBC2
:102B1000870302EB4303C718761CF3E759F8047BDD
:102B2000761C30786C280FD006DC4C2817D068282B
:102B30000DD06A2814D104E0742810D07A280FD15F
:102B40000DE044F400140AE044F4801401E044F47D
:102B500040147278824202D104F58014761C761CEF
:102B6000307866280BD013DC582877D009DC002891
:102B700075D04528F6D04628F4D047281AD19DE1D3
:102B800018E0632835D0642879D0652812D195E102
:102B9000702873D008DC6728F1D069286FD06E28C0
:102BA0000DD06F2806D1B5E073282CD0752875D0CC
:102BB000782874D05A46179990476D1C75E1C4F374
:102BC0000250022809D003280DD0D9F8001004289B
:102BD0000DD00D6009F1040967E1D9F80010EA177A
:102BE000C1E90052F6E7D9F800100D80F2E70D7048
:102BF000F0E719F8041B8DF8001000208DF8010093
:102C0000EA46012003E059F804AB4FF0FF306107BA
:102C10004FF0000102D40DE008F101018846B942ED
:102C20000FDA8045F8DB1AF808100029F4D108E023
:102C300008F1010188468142FADB1AF808100029E0
:102C4000F6D105985B46A0EB080721463846179A4F
:102C500000F094FA284400EB080507E04DE029E174
:102C60000DE01AF8010B5A4617999047B8F1010880
:102C7000F7D25B4621463846179A13E142E00A2212
:102C80000092C4F302524FF0000A022A08D059F809
:102C900004CB032A4FEAEC710AD00DE029E02AE0C8
:102CA00009F1070121F00702F2E802C1914609E0AB
:102CB0000FFA8CFC4FEAEC71042A03D14FFA8CFC1A
:102CC0004FEAEC71002907DA0A460021DCF1000C1A
:102CD00061EB02012D2202E0220504D52B228DF8A2
:102CE0000420012203E0E20701D02022F7E790460A
:102CF00059E00A2102E010220DE010214FF0000AF5
:102D000000910BE010224FF0000A44F00404082761
:102D1000009203E008224FF0000A0092C4F302522E
:102D2000022A05D059F804CB0021032A08D009E073
:102D300009F1070121F00702F2E802C1914605E01E
:102D40001FFA8CFC042A01D10CF0FF0C4FF0000894
:102D5000220728D5702806D0009B83F0100353EA81
:102D60000A0305D00EE040228DF80420012208E07D
:102D70005CEA010206D030228DF804208DF80500AF
:102D800002229046009B83F0080353EA0A030AD10B
:102D90005CEA010201D1620705D530228DF80420DA
:102DA0004FF001087F1E582804D034A003900EA8CD
:102DB00002900DE036A0F9E753466046009AFDF711
:102DC0006EFB84460398825C0298401E029002705B
:102DD0005CEA0100F0D1029806A9081A00F1200A65
:102DE000600702D524F4803400E00127574502DD56
:102DF000A7EB0A0000E0002000EB0A010090059814
:102E00004144401A0590E00306D45B462146179AD8
:102E1000059800F0B3F90544002706E001A85A46DA
:102E2000C05D179990476D1C7F1C4745F6DBE0039A
:102E30000CD55B462146179A059800F09FF905448A
:102E400004E030205A46179990476D1C0099481E9F
:102E500000900029F5DC08E0029802995A460078B3
:102E6000491C0291179990476D1CBAF10001AAF113
:102E7000010AF1DC65E1000009280100303132333C
:102E800034353637383961626364656600000000A6
:102E90003031323334353637383941424344454690
:102EA0000000000000F058F90544761C3078002836
:102EB0007FF4ECAD19B02846BDE8F08F620700D46E
:102EC000062709F1070222F0070CFCE80223E1467D
:102ED00003F000485FEA080C02D00FF2702C0DE0FE
:102EE0005FEA045C02D50FF2682C07E05FEAC47C5D
:102EF00002D00FF2602C01E0AFF2700C4FF0FF38FF
:102F000023F00043CDF850C065280CD006DC4528DE
:102F100009D046281DD047283DD13DE0662818D06D
:102F200067287ED138E00021112F01DB112000E05D
:102F3000781CCDE9000106A90EA8FFF7DDFCDDE94C
:102F40000F010E9A03910021009207F1010A0491EA
:102F50004DE04FF000400097CDE9011006A90EA802
:102F6000FFF7CAFCDDE90F0203920E9B11990022C4
:102F7000DDF80CA00093049211B9791C00EB010A52
:102F8000B7EB0A0004D4C0F1FF3007F1010A049046
:102F9000AAEB0700019044E0012F00DA012700218D
:102FA000112F01DD112000E03846CDE9000106A90E
:102FB0000EA8FFF7A1FCDDE90F010E9A0391002195
:102FC00004910092BA4621070CD40399514500DAC6
:102FD0008A46BAF1010F05DD009AAAF10101515CA0
:102FE000302908D0B84202DA10F1040F06DA0121C4
:102FF000CDE9011015E0AAF10101E9E7002805DC9F
:10300000049901440491AAEB000102E0411C5145DE
:1030100000DD8A460499401A401C01904FF00040A0
:103020000290200704D40198504501DBCDF80480BC
:1030300000208DF84F0002980DF14F07B0F1004FBE
:1030400025D02B200E9002984FF0020800280CDAB1
:10305000404202902D200E9007E00A210298FDF7D1
:1030600008FA3031029007F8011DB8F10001A8F10B
:103070000108F2DC02980028EFD1791E0E98087042
:10308000307800F0200040F0450007F8020D12A84B
:10309000C01B00F107081498007800B1012000EB74
:1030A0000A01019801EBE07105984144401A401E65
:1030B0000590E00306D45B462146179A059800F078
:1030C0005DF805441498007818B15A46179990474E
:1030D0006D1CE00324D55B462146179A059800F045
:1030E0004DF805441CE00498002807DBDDE90301E6
:1030F000884203DD0098405C179901E01799302061
:103100005A469047049805F10105401C0490019827
:10311000401E019004D12E205A46179990476D1CED
:10312000BAF10001AAF1010ADDDC05E017F8010B94
:103130005A46179990476D1CB8F10001A8F1010893
:10314000F4DC5B462146179A0598ABE62D0000009B
:103150002B000000200000002DE9F041044600256E
:103160001E461746880404D405E039462020B0479F
:103170006D1C641EF9D52846BDE8F0812DE9F041AB
:10318000044600251E469046C80301D5302700E0BE
:103190002027880404D505E041463846B0476D1C19
:1031A000641EF9D52846BDE8F0810A68531C0B60FF
:1031B000107070470848FEF74BF9FDF7A9FB074868
:1031C000FDF77CFD0648FDF7E3FBFDF747FC0548EE
:1031D000FEF7B8FC00BFFEE7AC000020003801405D
:1031E0003C3800080C380008685551F46662386BAA
:1031F0002324391F42446184B2441336198E50C6C9
:10320000412529BB9E528748FFFF00C1814001C074
:10321000804101C0804100C1814001C0804100C1A6
:10322000814000C1814001C0804101C0804100C196
:10323000814000C1814001C0804100C1814001C086
:10324000804101C0804100C1814001C0804100C176
:10325000814000C1814001C0804100C1814001C066
:10326000804101C0804100C1814000C1814001C056
:10327000804101C0804100C1814001C0804100C146
:10328000814000C1814001C0804101C0804100C136
:10329000814000C1814001C0804100C1814001C026
:1032A000804101C0804100C1814000C1814001C016
:1032B000804101C0804100C1814001C0804100C106
:1032C000814000C1814001C0804100C1814001C0F6
:1032D000804101C0804100C1814001C0804100C1E6
:1032E000814000C1814001C0804101C0804100C1D6
:1032F000814000C1814001C0804100C1814001C0C6
:10330000804101C0804100C1814000C0C101C303B0
:1033100002C2C60607C705C5C404CC0C0DCD0FCF2D
:10332000CE0E0ACACB0BC90908C8D81819D91BDB9D
:10333000DA1A1EDEDF1FDD1D1CDC14D4D515D717ED
:1033400016D6D21213D311D1D010F03031F133F39D
:10335000F23236F6F737F53534F43CFCFD3DFF3FED
:103360003EFEFA3A3BFB39F9F83828E8E929EB2B1D
:103370002AEAEE2E2FEF2DEDEC2CE42425E527E7AD
:10338000E62622E2E323E12120E0A06061A163A31D
:10339000A26266A6A767A56564A46CACAD6DAF6FAD
:1033A0006EAEAA6A6BAB69A9A86878B8B979BB7B1D
:1033B0007ABABE7E7FBF7DBDBC7CB47475B577B76D
:1033C000B67672B2B373B17170B05090915193539D
:1033D000529296565797559594549C5C5D9D5F9F6D
:1033E0009E5E5A9A9B5B99595898884849894B8B9D
:1033F0008A4A4E8E8F4F8D4D4C8C4484854587472D
:1034000046868242438341818040000000000000E4
:103410000000000000000000000000000080C0E08C
:10342000E0E0C0C0800000000000000000000000DC
:103430000000000000008080E0E0F0F8F8F0E0C05C
:1034400080000000000000000000000000000000FC
:10345000000000000000E0F0F0F0F0E000000000EC
:10346000000000000000000000000000000000005C
:103470008080C0E0F0F0F0E00000000000000000FC
:1034800000000000000000000070F0F000000000EC
:1034900000000000000000E0E0E0E0FCFFFFFFE7CC
:1034A000E1E3EF1F1F0E000000000000000000809D
:1034B000E0E0F8F8FEFF7F3F1FFFFFFFFFFFFF1F69
:1034C0003F7FFEFCF8F0E0C000000000C0E0E0E05C
:1034D000E0C080000000FFFFFFFFFFFF0000008052
:1034E000C0E0E0E0E0C000000080E0E0F8F8FEFEB0
:1034F000FFFFFFFFE7E3C100E0E0E0E0C000E0E045
:10350000E0E0E0000000000000000001000000001A
:10351000000000000000000001E1FFFFFF3F01018B
:10352000F9FDFCFE1EFEFCFCF000000000000001A6
:10353000030303030100000000FFFFFFFFFFFF0084
:103540000000000103030303000000000001030F5B
:103550000F1F3F7FFEFCFFFFFFFFFFFFFCFE7F3FD3
:103560001F0F07030100000000000103070F1F3FAA
:103570007FFFFFFFFBF3E1C001030303010071FBC9
:10358000FBFB7100000000000000000000000000D4
:103590000000000000000000000307070300000017
:1035A00007070703000307070300000000000000EF
:1035B00000000000000000000003070F07070300E1
:1035C00000000000000000000000000000000000FB
:1035D00000000000000107070F0F070301000000B3
:1035E00000000000000000000000000000000000DB
:1035F00000000103070703010000000000003C3E3B
:103600007E3E1C00000000000000000000000000E2
:103610000000000000000080C0E0F0F8FCFEFEFEAC
:10362000FCF8F0E0C0800000000000000000000096
:1036300000000000000000000000FCFEFEFEFCF8A0
:10364000000000000000000000000000000000007A
:1036500000000080C0E0F0F8FCFCFC7C38000000BA
:10366000000000000000000000000000000000005A
:10367000000000000000000000107CFCFCFCF8F0E2
:10368000E0C080000000000000000000000000001A
:103690000060F0F8FCFE7F3F1F0F07FFFFFFFFFFFA
:1036A000FF07070F1F3FFFFEFCF8F060000000203F
:1036B000F8F8F8F8F0E0C0800000FFFFFFFFFFFF20
:1036C0000080C0E0F0F8F8F8F8700000000070F832
:1036D000FCFEFFFFFFFFFFFFFFF9F87020F8F8FC8A
:1036E000F8700070F8FCF8F820000000000078F88E
:1036F000FCF8F80070F8FCFCF87000F8F9FFFFFF28
:10370000FFFFFFFFFEFCF87020000000000000003B
:103710000000000101000000000000FFFFFFFFFFAC
:10372000FF00000000000000010100000000000098
:1037300000010103070F1F3F7FFFFFFFFFFFFFFF98
:10374000FF7F3F1F0F070301000000000000000083
:103750000103070F1F3F7FFFFFFCF8F0E0000001AF
:103760000000003C3EFEFE3C1800000000003C3E15
:10377000FEFE3C08000001010040F0F8FCFFFF7F66
:103780003F1F0F0703010000000000800000000041
:10379000000000000000000000000000030303031D
:1037A0000100000000000000000000000000000018
:1037B00000000000000000000000010307070301F3
:1037C00000000000000000000000000000000000F9
:1037D00000000000000000000101010100000000E5
:1037E0000000000F1F1F1F1F0600000000000F1F1A
:1037F0001F1F1F0400000000000001010101000064
:10380000000000000000000000000003C1190008D3
:103810000000000060380008E8030000F11900080B
:103820000000000068380008E80300000000000005
:103830000000000000000000000000000210000076
:10384000000C0140000100000310000000080140CE
:103850000004000000000000000000000000000064
:103860005461736B300000005461736B31000000D1
:10387000903800080000002070000000D8280008E0
:103880000039000870000020F03A0000E828000825
:1038900000000000010203040102030406070809F6
:1038A0000204060800000000000000000000000004
:1038B0000000000000000000FF0500000000000004
:1038C00000000000000000000000000000000000F8
:1038D00000000000000000000000000000000000E8
:1038E00000000000000000000000000000000000D8
:1038F0000000000000000000FF00FFFFFF000000CC
:04000005080000ED02
:00000001FF
