:020000040800F2
:10500000D83B002001510008C18A0008817F0008B8
:10501000FF880008076000081DB8000800000000B5
:10502000000000000000000000000000C590000823
:10503000DD63000800000000958B00082D93000838
:105040001B5100081B5100081B5100081B51000890
:105050001B5100081B5100081B5100081B51000880
:105060001B5100081B5100081B5100081B51000870
:105070001B5100081B5100081B5100081B51000860
:105080001B5100081B5100081B5100081B51000850
:105090001B5100081B5100081B5100081B51000840
:1050A0001B5100081B5100081B5100081B51000830
:1050B0001B5100081B510008000000001B51000894
:1050C0001B51000800000000000000001B510008F8
:1050D00000000000C9B1000829B20008000000006B
:1050E000DD6A00081B51000811B80008DFF80CD079
:1050F00000F0C6FC00480047FDCA0008D83B00206D
:105100000648804706480047FEE7FEE7FEE7FEE761
:10511000FEE7FEE7FEE7FEE7FEE7FEE78D93000809
:10512000ED5000080649074A0868504343F2390227
:10513000104408604008704701490860704700004B
:105140009C0000206D4EC641F0B480EA0102D40FED
:105150004200B2EB410F02D20246084611464A0015
:1051600042D0C30DDDB2C1F3C752AD1A202D35DADE
:10517000C1F3160141F4000204B15242C5F1200608
:1051800002FA06F12A411044B3EBD05F23D0C4B138
:10519000012DA0EBC35009DCF0BC4FF0004202EA45
:1051A000C35200F50000DBB200F049BB400000F143
:1051B000807000EBC350A0F1807040EAD1704900CC
:1051C00009E0490841EAC071A0EBC35000F50000B6
:1051D000400800EBC350F0BC00F028BB6142012244
:1051E00002EB4101001BF6E7F0BC704781F0004183
:1051F000AAE780F00040A7E780EA010210B502F0BC
:105200000043400026D04A0023D04FEA106101EB52
:105210001261C0F35600C2F3560240F4000042F49B
:105220000002A0FB0220A1F17F014FEA004014041C
:1052300001D000F1010050EA124001D44000491EA3
:10524000C2B20C0604EBD010401C4008802A02D0E9
:1052500003E0002010BD20F00100002900DA00204A
:10526000184310BD30B480EA010202F0004530F06E
:10527000004221F0004015D0A0B1C0F3C753C2F3E3
:10528000C754C2F31601C0F31600E41A41F400013A
:1052900040F400027D34914201D3641C00E04900D7
:1052A000002C02DA30BC002070474FF400000023CD
:1052B000914201D3891A034340084FEA4101F7D1D3
:1052C00051B1914202D14FF0004105E002D24FF0BE
:1052D000010101E06FF0010103EBC450284430BC30
:1052E00000F0A4BA2DE9FE4F804681EA0300C00F0A
:1052F0000C46009021F0004123F00045B8EB02007D
:10530000A94105D24046214690461C460B4602461E
:1053100023F00040104304D14046214603B0BDE8CD
:10532000F08F270DC7F30A00C3F30A510290401A09
:105330000190402866DAC3F3130040F4801B009804
:10534000924620B10023D2EB030A63EB0B0B0198CA
:105350005946C0F14002504600F037FA06460D4665
:1053600050465946019A00F04FFA10EB080061418F
:10537000002487EA115284EAE7731A433BD0009A6B
:105380003AB3019A012A4FEA075210DC001B61EB85
:1053900002014FF0004202EA0752CDE90042001C30
:1053A00041F5801132462B4600F083FAB6E7001B28
:1053B00061EB0201001C41F5801300185B412018CD
:1053C000A2F5001747EB030140EAD570B6196D410D
:1053D00011E06D084FEA360645EAC0754FEA0752FC
:1053E000001B61EB0201001C41F5801149084FEAE6
:1053F00030000019514132462B4603B0BDE8F04F52
:1054000000F04ABA0098012240000023D0EB0202CB
:1054100063EBE073009821464FEAE074B8EB0000BC
:1054200061EB0401E9E783F000435BE781F00041B1
:1054300058E72DE9FE4F81EA030404F0004421F00F
:10544000004100944FF0000B23F0004350EA0104A8
:1054500002D052EA030404D10020014603B0BDE8A3
:10546000F08FC3F30A54C1F30A552C44A4F2F33469
:105470000194A0FB0254C1F3130141F48011C3F362
:10548000130343F4801301FB024400FB034E840A20
:10549000970A44EA815447EA8357A4FB07680295B8
:1054A0008D0A05FB07854FEA932C04FB0C54270556
:1054B000029D4FEA065847EA1637B5EB08056EEB32
:1054C000070C870E920E47EA811742EA8312A7FB68
:1054D0000201B6EB0B0164EB00042B0D43EA0C3325
:1054E0005E1844EB1C50DA465146E7FB0201C5F357
:1054F00013044FEA0B3343EA14534FEA0432019C7E
:1055000043EA0603A4F10C040294009CCDE900B424
:1055100000F0CFF9A2E72DE9F04D81EA030404F091
:10552000004B21F0004514464FF0000A23F00041E3
:1055300050EA050220D054EA01021DD0C5F30A57F3
:105540000246C5F31303C1F31300C1F30A5640F436
:10555000801543F48013A7EB0608101BD64608F20B
:10556000FD3873EB050002D308F1010801E0921841
:105570005B41B8F1000F03DA00200146BDE8F08D71
:1055800000204FF48011064684460EE0171B73EB93
:10559000050705D3121B63EB050306434CEA010C18
:1055A00049084FEA300092185B4150EA0107EDD1FB
:1055B00052EA030012D082EA040083EA050108439C
:1055C00003D100224FF0004308E0101BAB4102D290
:1055D0000122002302E06FF0010253101AEB0600D3
:1055E0004CEB085110EB0A0041EB0B01BDE8F04D0C
:1055F00000F052B9C10F80EAE0700844CA07962350
:10560000002100F01CB996230022114600F017B9C2
:105610000EB5C10F80EAE0700844CA07002140F2CD
:1056200033438DE80E000A460B4600F042F903B002
:1056300000BD00F0004220F00040C10DC0F3160094
:1056400040F400007F2901DA00207047962903DC2E
:10565000C1F19601C84001E096398840002AF4D093
:105660004042704720F00040C10DC0F3160040F4E6
:1056700000007F2901DA00207047962903DCC1F180
:105680009601C840704796398840704770B5C1F39D
:105690000A5201F000450024C1F3130140F2FF3328
:1056A00041F480119A4201DA002070BD40F2334388
:1056B0009A42A2F2334203DC524200F095F800E035
:1056C00090402C43F1D0404270BD00F0004230F0D9
:1056D00000400AD0C10D01F56071C0F3160042EA26
:1056E0000151C2084007114370470020014670472E
:1056F00001F0004330B421F0004150EA010206D02D
:105700000A0DA2F56072C1F31301002A02DC30BC5D
:1057100000207047440F44EAC104C100E01830BCC7
:1057200000EBC25000F082B8002801DBC0F100405D
:10573000002901DBC1F100418842704730B50B46BA
:10574000014600202022012409E021FA02F59D42B1
:1057500005D303FA02F5491B04FA02F52844151E85
:10576000A2F10102F1DC30BD2DE9F05F0546002019
:1057700092469B4688460646814640241BE02846C2
:1057800041464746224600F02FF853465A46C01A73
:10579000914110D311461846224600F016F82D1AF2
:1057A00067EB01084F4622460120002100F00DF86A
:1057B00017EB00094E41201EA4F10104DFDC48462E
:1057C00031462A464346BDE8F09F202A04DB203AB2
:1057D00000FA02F1002070479140C2F1200320FA44
:1057E00003F3194390407047202A04DB203A21FA42
:1057F00002F00021704721FA02F3D040C2F12002EA
:105800009140084319467047202A06DBCB17203AFF
:1058100041FA02F043EAE07306E041FA02F3D040B5
:10582000C2F1200291400843194670470029A8BFE1
:105830007047401C490008BF20F00100704710B4B9
:10584000B0FA80FC00FA0CF050EA010404BF10BC6E
:10585000704749B1CCF1200421FA04F411FA0CF19B
:1058600018BF012121430843A3EB0C01CB1D010606
:10587000000A002BBEBF002010BC704700EBC350D5
:1058800010440029A4BF10BC7047401C490008BF49
:1058900020F0010010BC704710B5002B08DA401C46
:1058A00041F1000192185B411A4301D120F001003F
:1058B00010BD2DE9F04D92469B4611B1B1FA81F22F
:1058C00002E0B0FA80F220329046FFF77EFF0446F5
:1058D0000F4640EA0A0041EA0B0153465A46084384
:1058E00003D120463946BDE8F08D114653EA010048
:1058F00015D0C8F140025046FFF776FF05460E4628
:10590000504659464246FFF760FF084301D0012048
:1059100000E00020054346EAE0762C4337430A982E
:105920004FEA4453A0EB08004FEAD4240A304FF06A
:10593000000244EA47544FEAD72502D50020014629
:10594000D1E7010510196941DDE9084500196941F0
:10595000BDE8F04DA0E770B521F0004303430CD043
:10596000C1F30A550024D5EB040564EB0403D617F4
:10597000AD1AB34102DB0020014670BD201841EB97
:10598000025170BD2DE9F04D00231A461B1A8A41C1
:1059900003DB00200146BDE8F08DC1F30A52C1F3DC
:1059A000130141F480154FF0000BD10702D100180C
:1059B0006D41521E0027044640F2FF11384601EBAC
:1059C000620A3E468046024600204FF48011FFF7EF
:1059D0000BFFC2197141BB1846EB0100B4EB030C7D
:1059E00075EB000C04D3E41A65EB000517460E4670
:1059F000241908F101006D4180463428E3DDF919CE
:105A000046EB0600091BA84103D24FF0FF321346B4
:105A100001E0002213461BEB070046EB0A51BDE8EC
:105A2000F04DFFF739BFC1F30A52C1F3130140F241
:105A3000FF3341F480119A4202DA00200146704798
:105A400040F233439A42A2F2334202DC5242FFF761
:105A5000CBBEFFF7BABE000030B5002904DB4FF023
:105A60000044404264EB0101002B04DB4FF0004492
:105A7000524264EB0303994208BF904230BD0000DC
:105A8000064C074D06E0E06840F0010394E807008B
:105A900098471034AC42F6D3FFF72CFB84D30008B0
:105AA000A4D3000882B02DE9FF1FEFF3038001B4F7
:105AB000684600F1400000E901400C480168C1F867
:105AC00000D00B48D0F800D001BC80F30388BDE8BB
:105AD000FF1F01B000BD0648D0F800D001BC80F324
:105AE0000388BDE8FF1F01B000BD00003C0000209E
:105AF0003800002008B50121084603F0AFF9012164
:105B00004FF4017003F0CAF9FE20ADF80000002048
:105B10008DF803006946024801F04EFE08BD000002
:105B20000008014010B50446FFF7E4FF204600F0EE
:105B300001F810BD10B590B00446464800F0B8FA20
:105B40004548059006940020079007200890002003
:105B5000099080200A9040000B9080000C9020203B
:105B60000D9000020E9000200F9005A9394800F01A
:105B700045FB0020009001208DF804008DF8050001
:105B80004FF4602002900020039007208DF8100051
:105B9000694631484C3800F08BF805230122072173
:105BA0002D484C3800F0ACF80523022201212A4888
:105BB0004C3800F0A5F805230322042126484C3870
:105BC00000F09EF805230422032123484C3800F0FE
:105BD00097F805231A4619461F484C3800F090F8EC
:105BE0000523062211461C484C3800F089F805238D
:105BF0000722022118484C3800F082F8012116488B
:105C00004C3800F036F8012113484C3800F026F8E3
:105C100011484C3800F0D0F800BF0F484C3800F065
:105C20003DF80028F9D10C484C3800F0D5F800BFF9
:105C300009484C3800F028F80028F9D1012105481E
:105C400000F029FA012104484C3800F0BAF810B0ED
:105C500010BD0000080002404C24014021B18268C0
:105C600042F00102826003E0826822F00102826059
:105C7000704721B1826842F48072826003E08268DA
:105C800022F4807282607047014600208A6812F018
:105C9000040F01D0012000E00020704701460020E1
:105CA0008A6812F0080F01D0012000E00020704740
:105CB00030B502460020002350680F4C20400D797B
:105CC0000C6844EA05242043506090680B4C204047
:105CD000D1E902542C434D7944EA450420439060B5
:105CE000D06A20F470000C7C641EE4B2234340EAC6
:105CF0000350D06230BD0000FFFEF0FFFDF7F1FF62
:105D0000F0B504460D4600200021092D11DDE068A4
:105D1000A5F10A0606EB4607072606FA07F18843AF
:105D2000A5F10A0606EB460603FA06F10843E06011
:105D30000CE0206905EB4507072606FA07F18843C2
:105D400005EB450603FA06F108432061072A0FDA3E
:105D5000606B561E06EB86071F2606FA07F188437E
:105D6000561E06EB860605FA06F10843606322E03C
:105D70000D2A0FDA206BD61F06EB86071F2606FAC0
:105D800007F18843D61F06EB860605FA06F108439D
:105D9000206310E0E06AA2F10D0606EB86071F26DD
:105DA00006FA07F18843A2F10D0606EB860605FA0E
:105DB00006F10843E062F0BD816841F008018160AE
:105DC000704721B1826842F4A002826003E08268D9
:105DD00022F4A00282607047816841F00401816072
:105DE0007047000070B50C210D4804F03DFC0446DE
:105DF0000C4E30460588A5F57F40FF3807D102F0EC
:105E0000D5F82146304602F0C9F802F0C3F805483B
:105E10000588A54201D0002070BD0120FCE70000EC
:105E2000E8F7FF1FA8CB000810B50021074802F0D3
:105E3000FFFC044644B9052105A000F0FDF901214D
:105E4000024802F0F5FC0446204610BD90370020C1
:105E5000C5E4D6C3B2CECAFDC6ACC7F8D2BBB4ED5A
:105E6000CEF3000010B5020CC0F30721C3B2084600
:105E7000000210430002184310BD06E04FF47A718F
:105E800000BF0A00A1F10101FBD10200A0F1010055
:105E9000F4D1704770B504460D460AE0204600F084
:105EA0004EF8AC4201DD601E84B2AC4201DA601CE7
:105EB00084B2AC42F2D170BD70B504460D461646B0
:105EC000AC4212D10BE0204600F039F8642096FB7A
:105ED000F0F100FB116010B9012004F0C1FD3000A9
:105EE000A6F101018EB2EED170BD0AE0204600F0AD
:105EF00026F8AC4201DD601E84B2AC4201DA601CBF
:105F000084B2AC42F2D100BFEEE72DE9F041064683
:105F10000C4615460CE0274602E0304600F00FF82C
:105F20003800A7F101018FB2F7D11E2004F098FDCF
:105F30002800A5F10101CDB2EDD1BDE8F08170B529
:105F4000044625460021052001F068FD00BF280019
:105F5000A5F101018DB2FAD10121052001F05EFD0C
:105F6000254600BF2800A5F101018DB2FAD100211C
:105F7000052001F053FD70BD10B502224FF4A5714C
:105F80004FF44870FFF7C1FF02224FF4C8714FF47D
:105F90001670FFF7BAFF10BD10B54FF4FA7100206C
:105FA000FFF778FF02224FF4C8714FF4FA70FFF741
:105FB000ACFF4FF416714FF4FA70FFF76BFF01223C
:105FC0004FF4A5714FF47A70FFF79FFF10BDF0B545
:105FD000034600201C460D46104603E014F8016BF2
:105FE00005F8016B1600A2F10107BAB2F6D1F0BDB7
:105FF00030B5034601E003F8011B1400A2F10105CE
:10600000AAB2F8D130BD00BFFEE702E0002200F8DE
:10601000012B0A00A1F1010399B2F7D1704770B5C5
:1060200005460C46284601F017FF0646204601F0BB
:1060300013FF864201D0002070BD07E015F8011B58
:1060400014F8012B914201D00020F5E7287810B117
:1060500020780028F2D10120EEE710B504460B4667
:1060600021465AB1180E01F8010B180C01F8010B6A
:10607000180A01F8010B01F8013B0AE001F8013BA5
:10608000180A01F8010B180C01F8010B180E01F8A1
:10609000010B042010BD21B1026842F00102026030
:1060A00004E002684FF6FE731A4002607047000079
:1060B00001684FF6FE7211400160002101604160ED
:1060C0008160C1604B49884208D14A490839496812
:1060D00041F00F01474A083A51608AE045491431BE
:1060E000884208D143490839496841F0F001414AE2
:1060F000083A51607DE03F492831884208D13D4946
:106100000839496841F470613A4A083A516070E0D0
:1061100038493C31884208D136490839496841F448
:106120007041344A083A516063E032495031884244
:1061300008D130490839496841F470212D4A083A9C
:10614000516056E02B496431884208D12949083909
:10615000496841F47001274A083A516049E02549ED
:106160007831884208D123490839496841F0706183
:10617000204A083A51603CE01F49884206D1011F7D
:10618000096841F00F01021F116032E01A49143111
:10619000884208D11849091F096841F0F001164AE0
:1061A000121F116025E014492831884208D1124994
:1061B000091F096841F470610F4A121F116018E04D
:1061C0000D493C31884208D10B49091F096841F447
:1061D0007041094A121F11600BE007495031884293
:1061E00007D10549091F096841F47021024A121FAD
:1061F00011607047080002400804024010B50022F8
:10620000026847F6F0739A430C6A8B6823430C6963
:1062100023434C6923438C692343CC6923434C6A51
:1062200023438C6A23431A430260CB6843600B68A4
:1062300083604B68C36010BD0FB42DE9F04186B098
:10624000002501260027B00202F096FB04465448C0
:106250000078FF2801D1012000E000205049097892
:10626000504A1278914201D1012100E000210843F7
:106270007DD00DA805902046059A0C9905F03EFCAE
:10628000002005900DA8059069460C9801F090FC3F
:1062900006462AE02846691CCDB21DF800000128F8
:1062A00004D0022806D003281AD115E0059880C82A
:1062B000059019E00598C01D20F007000590D0E971
:1062C0000021DDF814C00CF1080C1046CDF814C004
:1062D000FFF7DCF9074607E0059880C8059003E062
:1062E000059880C8059000BF00BF3000A6F10106E8
:1062F000D0D1059880C80590002005902A480078E4
:10630000FF2801D1012000E0002027490978B94287
:1063100001DB012100E00021084338D0214623A001
:1063200002F0CBFF2248007810F0020F0DD0214977
:10633000087800F025FB40B1204601F08DFD804635
:10634000424621461C4805F053FA1948007810F0DF
:10635000040F0FD01749487800F012FB50B12046C7
:1063600001F07AFD804642462146144800E00EE0E6
:1063700005F03EFA1248006848B1204601F06CFD75
:1063800000F0FF08414620460D4A1268904720461B
:1063900002F0C6FA06B0BDE8F0015DF814FB00009B
:1063A0006400002048000020660000200D0A000064
:1063B0006500002014000020003801400044004027
:1063C0006800002001490870704700006500002047
:1063D000014908707047000066000020704743F6CE
:1063E000FF7000BF0100A0F10100FBD17047000069
:1063F00010B500201A4908704FF4A07002F0BCFAE2
:1064000018490860002406E0FF201749085517497D
:106410000855601CC4B2052CF6DB00241DE00020EA
:106420001049096801EB4411486103200D490968CE
:1064300001EB4411087200200A49096801EB44117C
:1064400008610849096801EB4411C86005490968F9
:1064500001EB44118861601CC4B20A2CDFDB10BD63
:1064600054000020580000201400002019000020D3
:1064700038B5002454E02C48006800EB4410006854
:1064800000284BD02848006800EB4410C079012850
:1064900006D0022820D0032813D0042832D126E0C9
:1064A000032000902048006800EB4410C3691E4898
:1064B000006800EB4410214602681CA0FFF7BCFEF8
:1064C0002BE01948006800EB4410032321460268C2
:1064D0001CA0FFF7B1FE20E01348006800EB441059
:1064E00003232146026817A0FFF7A6FE15E00E4819
:1064F000006800EB441003232146026811A0FFF757
:106500009BFE0AE00848006800EB44100323214684
:1065100002680CA0FFF790FE00BF00BF601CC4B271
:106520000A2CA8DB38BD00005800002044657669BD
:1065300063655B25645D4E616D653A25735B25641B
:106540005D0000004465766963655B25645D4E61AE
:106550006D653A25730000002C4909782C4A1170AA
:106560002A490978491C294A117029490978294A78
:106570001268274B1B7802EB4312117126A1254AA2
:106580001268234B1B7802EB431211600021214A51
:1065900012681F4B1B7802EB4312517102221D49F6
:1065A00009681B4B1B7801EB4311CA710122194981
:1065B0000968174B1B7801EB43110A721849154AF9
:1065C0001268134B1B7802EB4312516111490968A1
:1065D0000F4A127801EB4211C86100220D49096887
:1065E0000B4B1B7801EB4311CA600021094A12686A
:1065F000074B1B7802EB4312116100220549096821
:10660000034B1B7801EB43118A6170475400002053
:1066100028000020580000204750494F000000008B
:10662000CD7800082C4800782C4908702A4800785A
:10663000401C294908702948007829490968274AD7
:10664000127801EB4211087126A125480068234AFF
:10665000127800EB421001600020214909681F4AAE
:10666000127801EB4211487103201D4909681B4A49
:10667000127801EB4211C871012119480068174ACC
:10668000127800EB42100172184815490968134A44
:10669000127801EB421148610021114800680F4A4D
:1066A000127800EB4210C1610D4800680B4A127865
:1066B00000EB4210C160002009490968074A1278BE
:1066C00001EB42110861002105480068034A127875
:1066D00000EB4210816170475400002075000020DB
:1066E000580000204D6F746F000000006D8D000891
:1066F0002DE9F04107460D461646384604F018FFCE
:1067000004465F48005DFF2808D15E4800785C4978
:1067100008555C480078401C5A4908705AA05849EE
:10672000095D5B4A126802EB411108600020544980
:10673000095D574A126802EB411148710120504926
:10674000095D534A126802EB4111C87103204C499C
:10675000095D4F4A126802EB411108724D484849E1
:10676000095D4B4A126802EB411148614448005DE3
:106770004749096801EB4010C46147494048005D42
:10678000434A126802EB4010C16044483C49095D2D
:106790003F4A126802EB4111086100213848005D50
:1067A0003B4A126802EB4010816100203C4921F80D
:1067B0001400284602F0E0F83A4941F8240038462F
:1067C00004F0B6FE04463848005DFF2808D12D4885
:1067D0000078354908552B480078401C2949087035
:1067E00032A03149095D2A4A126802EB4111086062
:1067F00000202D49095D264A126802EB41114871BB
:1068000001212948005D224A126802EB4010C17143
:1068100003202549095D1E4A126802EB41110872E6
:106820001C492148005D1A4A126802EB4010416180
:106830001D48005D1649096801EB4010C461164807
:106840001949095D124A126802EB4111C8601348E8
:106850001549095D0E4A126802EB411108610020DA
:106860001149095D0A4A126802EB411188613046FC
:1068700002F082F80F4941F82400BDE8F0810000E1
:106880001900002054000020555341525278000056
:1068900058000020D1B20008D1B70008D9B60008CE
:1068A000CC000020A40000201400002055534152C9
:1068B00054780000B800002010B504461E2211468E
:1068C0002046FFF715FF10BD10B5032124A0FFF7E8
:1068D000B3FC002441E02948006800EB4410406903
:1068E000C8B32648006800EB4410C079012806D0E0
:1068F000022817D003280ED004282BD11EE01F4AEF
:10690000126802EB4412107F1C4A126802EB441218
:10691000516988471EE01949096801EB441148692B
:10692000804717E0154A126802EB4412D069134AF7
:10693000126802EB4412516988470BE00F4A126853
:1069400002EB4412D0690D4A126802EB44125169FD
:10695000884700BF00BF601CC4B20A2CBBDB10BD5F
:10696000546F732044657669636520496E69742E9F
:106970002E2E2E2E2E2E2E2E2E0000005800002001
:106980000146FF2901D1002070470548006800EB4F
:106990004110406908B90020F6E70120F4E7000043
:1069A000580000207FB5054600226946284600F0C1
:1069B00062FA684601F0C0F90646FEF753FEC4B21B
:1069C000082C04D3012107A0FFF736FC7FBD08483F
:1069D00030F814200123214606A0FFF72DFC00BF4C
:1069E000F4E700004144435B4572726F725D000042
:1069F0009C3700204144435B25645D5B25645D005A
:106A000010B5044603480178052203A0FFF714FCE3
:106A100010BD00004000002043707555736167652C
:106A20005B25645D00000000F0B585B0074601A954
:106A3000094801F033FA01A801F046F90646FEF7CD
:106A400044FE0446012022460B46009003A0FFF7B7
:106A5000F3FB05B0F0BD0000ACCD000848756D69D2
:106A6000646974795B252E326625255D000000007F
:106A700070B5054601F046FF04460522214602A0F6
:106A8000FFF7DAFB70BD000052616D5573616765F9
:106A90005B25645D00000000F0B585B0074601A9E4
:106AA000094801F0FBF90DF1070001F0A7F90646CE
:106AB000FEF70BFE0446012022460B46009003A081
:106AC000FFF7BAFB05B0F0BDACCD000854656D70A2
:106AD0005B252E3266A1E65D00000000F8B50025BA
:106AE0004FF4804000F08EF84FF480413D4800F0B4
:106AF00079FF00B1F8BD002000F0D4F8002000902C
:106B000005E0601C84B23848844200DD5DE04FF44B
:106B10008041344800F066FF0028F2D0B4F57A6F67
:106B200005DA0122214631A0FFF786FB4DE0002463
:106B300005E0601C84B22C48844200DD45E04FF43F
:106B40008041284800F04EFF0028F2D1B4F57A6F5A
:106B500000DA3BE002252BE0002406E0601C84B252
:106B600041F28830844200DD2FE04FF480411D481F
:106B700000F038FF0028F1D0002406E0601C84B249
:106B800040F6AC50844200DD1FE04FF480411548D0
:106B900000F028FF0028F1D1009840000090B4F5E3
:106BA000FA6F03DD009840F001000090681CC5B248
:106BB000222DD1DB11A003F0A5FDC6B26B46042245
:106BC0000021304604F0A0F800BF93E70BA003F0CB
:106BD00099FDC6B26B4604220121304604F094F8B8
:106BE00000BF87E700100140A086010049525F45C1
:106BF00072726F7228256429000000005461736B63
:106C00005F495200014908607047000014040140C8
:106C1000002123498279002A3AD00A461268036883
:106C20009A430B461A600A1D126803689A430B1DAB
:106C30001A60027911440A6803681A430A60184A04
:106C40000832126803689A43154B08331A601A1DFC
:106C5000126803689A43124B0C331A604279102A67
:106C60000ED11A1F126803681A430D4B08331A60BD
:106C70001A1D126803681A43094B0C331A600DE0A1
:106C80000749427911440A6803681A430A6005E01B
:106C9000027911440A6803689A430A607047000049
:106CA0000004014010B504464FF48040FFF7AAFFEE
:106CB00074B10C48006840F480400A4908600948F3
:106CC0001438006840F4804006491439086007E031
:106CD00004481438006820F48040024914390860E0
:106CE00010BD0000140401401FB50020FFF7DAFFBB
:106CF0000121052002F0D2F84FF48040ADF80000E9
:106D000048208DF8030003208DF8020069461448DE
:106D100000F052FD0E21022000F010FD4FF48040E3
:106D2000029000208DF80C000C208DF80D00012041
:106D30008DF80E0002A8FFF76BFF28208DF80400E5
:106D400000208DF805008DF8060001208DF8070061
:106D500001A801F0B7FE0120FFF7A4FF1FBD00004E
:106D60000010014030B5044604254FF4302000F0F7
:106D70006FF80546042D17D10C48006940F0020059
:106D80000A49086108464461006940F04000086112
:106D90004FF4302000F05CF805460448006941F6E5
:106DA000FD71084001490861284630BD00200240BD
:106DB00004200B49C96811F0010F01D001200EE039
:106DC0000749C96811F0040F01D0022007E0044907
:106DD000C96811F0100F01D0032000E004207047B3
:106DE000002002400348006940F08000014908612A
:106DF000704700000020024070B504460D4604268E
:106E0000F00200F025F80646042E11D10948006969
:106E100040F00100074908612580F00200F018F8F1
:106E200006460448006941F6FE71084001490861C0
:106E3000304670BD002002400248034948600348C4
:106E4000486070472301674500200240AB89EFCDC1
:106E500000B502460423FFF7ABFF034603E0FFF74C
:106E6000A7FF0346521E012B01D1002AF7D102B918
:106E70000523184600BD2DE9F84F82460D461746FA
:106E80004FF00008002000908146504600F0E4FFDB
:106E900000F0FF0BBBF1000F35D00020287000265A
:106EA0002FE01AF80640302C01DB012000E0002022
:106EB000392C01DC012100E0002108402D2C01D1FA
:106EC000012100E00021084309D04F4504D140468C
:106ED000411C01F0FF082C54012000900FE00098A5
:106EE00068B14F4505D100224046411C01F0FF0822
:106EF0002A540020009009F1010000F0FF09701CE5
:106F0000C6B25E45CDDB4046BDE8F88F2DE9F047BF
:106F100006460F4615464FF00008C146304600F0C1
:106F20009BFF00F0FF0ABAF1000F24D00020387058
:106F300000241EE0305D272803D108F1010000F095
:106F4000FF08012000EB4500404508D1305D2728AF
:106F500005D0325D4846411C01F0FF093A5401203A
:106F600000EB4500404502DA4846BDE8F087601C6A
:106F7000C4B25445DEDB002007F809004846F4E7B8
:106F800070B50B46044603E014F8015B03F8015B9F
:106F90001500A2F10106B2B2F6D170BD2DE9F0479D
:106FA00006460F4614464FF00008B94600F0FEFFB3
:106FB0002046E11704EBD151C1F34F28E11704EB50
:106FC000D1514912B4EB412103D008F101001FFA5D
:106FD00080F8002507E04FF4007101FB056000F028
:106FE000D3FF681C85B24545F5DB002508E039F87C
:106FF000021B2A466B1C9DB206EB420000F0CEFF3E
:107000002000A4F101018CB2F1D100F0C3FFBDE872
:10701000F08770B504460025107820B116782068F6
:10702000B0FBF6F085B220680844206010789842E2
:1070300003DA1078401C107002E02068401B2060CA
:1070400016782068B0FBF6F080B270BD2DE9F041F3
:1070500004462546A61C271D3A8831882888FEF755
:107060002BFFBDE8F081000070B5044625460522DF
:1070700005A02968FFF7E0F8286803F0F1FC06484E
:10708000007803F01DFD70BD474944455F436C6FB8
:1070900073652825642900004800002010B50121EF
:1070A000002000F0BBFC0121084600F0B7FC0021E5
:1070B000084604F023FC0021012004F01FFC0021FD
:1070C000022004F01BFC0021032004F017FC002028
:1070D00001F078FC002001F0D6FC10BD70B504462C
:1070E0002546286803F0BCFC70BD000070B505465D
:1070F0002E460B4C09E03046216802F0FFF818B12B
:1071000030466168884770BD083460680028F2D155
:107110000522314603A0FFF78FF800BFF3E7000018
:107120006CCE00084563686F2825732900000000B5
:107130002DE9F04F87B0054689460024A046D04E81
:1071400091E14846316802F0D9F8002871D0002456
:107150002146641C05F8018028780A2845D2DFE81A
:1071600000F0054569AEC3F1EFEEEDEC002202A997
:107170004846FFF780FE02A800F0DEFD824650463A
:10718000FEF770FA1FFA80FB28190022594602F018
:1071900031F8204484B2012202A94846FFF76BFE71
:1071A00002A800F0C9FD82465046FEF75BFA1FFABE
:1071B00080FB28190022594602F01CF8204484B2B2
:1071C000022202A94846FFF756FE02A800F0B4FDCD
:1071D00082465046FEF746FA1FFA80FB2819002225
:1071E000594602F007F8204484B226E1002202A9A1
:1071F0004846FFF740FE02A800F09EFD824650463A
:10720000FEF717FAC2B22046611C8CB22A54012242
:1072100002A94846FFF72FFE02A800F08DFD824626
:107220005046FEF706FAC2B22046611C8CB22A54C0
:1072300003E113E1002202A94846FFF71CFE02A861
:1072400000F07AFD82465046FEF70CFAC2B22046A4
:10725000611C8CB22A54012202A94846FFF70BFE9A
:1072600002A800F069FD82465046FEF7FBF9C2B263
:107270002046611C8CB22A54022202A94846FFF71C
:10728000FAFD02A800F058FD82465046FEF7EAF9E2
:10729000C2B22046611C8CB22A54032202A948467D
:1072A000FFF7E9FD02A800F047FD82465046FEF7D1
:1072B000D9F9C2B22046611C8CB22A54BDE000222A
:1072C00002A94846FFF7D7FD02A800F035FD824627
:1072D0005046FEF7C7F98346281900225946FEF7A3
:1072E000BCFE204484B2A8E000202855002202A958
:1072F0004846FFF7C0FD02A800F01EFD82460021AF
:107300005046FEF711FA03D2285D40F001002855DF
:10731000012202A94846FFF7AEFD02A800F00CFDCD
:10732000824600215046FEF7FFF903D2285D40F067
:1073300002002855601C84B27FE06CE053E03DE021
:1073400027E0FFE7002202A94846FFF794FD02A8C4
:1073500000F0F2FC82465046FEF784F9C2B22046A5
:10736000611C8CB22A54012202A94846FFF783FD12
:1073700002A800F0E1FC82465046FEF773F91FFABE
:1073800080FB28190022594601F034FF204484B2C2
:1073900053E0002202A94846FFF76DFD02A800F065
:1073A000CBFC82465046FEF75DF983462819002241
:1073B0005946FEF752FE204484B23EE0002202A964
:1073C0004846FFF758FD02A800F0B6FC824650463A
:1073D000FEF748F98346281900225946FEF73DFE7C
:1073E000204484B229E0002202A94846FFF78EFD1E
:1073F0000746317A891EB94202DA307A801E87B296
:10740000002002A9C855291902A801F044FF204410
:1074100084B2347A11E0002202A94846FFF72BFD1E
:1074200002A800F089FC82465046FEF71BF9C2B262
:107430002046611C8CB22A5400BF00BF002000907F
:10744000337A224641460FA0FEF7F6FE307AA0427C
:1074500003D1307A07B0BDE8F08F08E008F10100F1
:107460001FFA80F80C36706800287FF46AAE00BFFF
:107470000022FF2108A0FEF7DFFE0020EAE700005F
:107480009CCE000852657475726E2E4F6B3D25645C
:107490002C25642C2564000052657475726E2E468E
:1074A00061696C3D2564000070B504462646757818
:1074B0002D02B07805432D02F0780543307801287D
:1074C00004D002280BD0032813D10DE02946022056
:1074D00004F014FA2946032004F010FA09E02946C2
:1074E000012004F00BFA04E02946002004F006FA1B
:1074F00000BF00BF70BD000070B504462546287867
:10750000012802D0022826D112E002E00A2003F06E
:10751000A7FA072000F032F90028F7D002E00A208D
:1075200003F09EFA072000F029F90028F7D112E0B5
:1075300002E00A2003F094FA0E2000F01FF9002860
:10754000F7D002E00A2003F08BFA0E2000F016F9C3
:107550000028F7D100BF00BF2978052201A0FEF75F
:107560006BFE70BD4B657928256429427265616B9D
:107570000000000070B504462546287800F00100A0
:1075800080F00101002000F049FA2878012222EA67
:107590005001104600F042FA70BD00002DE9F041A4
:1075A000054600262F46284601F0D2F904464FEA48
:1075B0005408A2B200212846FEF71AFD07E0304623
:1075C000711C8EB20F4931F8100027F8020B5FEAE8
:1075D0000800A8F10108F2D1A01E81B2284603F0EC
:1075E00043F80646A01E2A5A0623314606A0FEF797
:1075F00023FEA01E285AB04202D10120BDE8F0812E
:107600000020FBE700D800084C6F616420446F6ED7
:1076100065204372633D25782F2578210000000006
:1076200070B504462546661C95F9000001F0CAF9BC
:1076300096F9000001F027FA70BD000004462546C7
:10764000052206A02968FEF7F7FD286803F008FA6E
:1076500003E00021062000F0E1F9FAE7474944453C
:107660005F4F464628256429000000002DE9F041BF
:1076700005460027284601F06BF9044600F096FC09
:10768000C4F34F27E005C00D01D0781C87B2002657
:1076900007E012498A1402FB061000F075FC701C0A
:1076A00086B2BE42F5DB06210DA0FEF7C5FD00F057
:1076B00071FCA01E81B2284602F0D6FFA11E6852BE
:1076C00022462946002000F01BF8A01E295A062257
:1076D00006A0FEF7B1FDBDE8F081000000D800086B
:1076E000457261736520446F6E652100577269743D
:1076F0006520446F6E65204372633D25782100004C
:107700002DE9F04105460E461446374600F04EFC82
:10771000640808E037F8021B2A466D1C064B03EB91
:10772000420000F03BFC2000A4F10104F2D100F083
:1077300031FCBDE8F081000000D8000830B500221F
:107740008B071C0F0F2303FA04F20B4B8C1053F81A
:1077500024309343084C8D1044F8253023468C1078
:1077600053F824308C07240F00FA04F42343024C0E
:107770008D1044F8253030BD0800014070B5044636
:107780000B4800680B49097800EB4110C56904EB10
:10779000440205EB8202118904EB440205EB8202EC
:1077A000506800F01FF908B1012070BD0020FCE70F
:1077B00058000020280000202DE9F0410246002555
:1077C0000026002000230024002791F803C00CF0BD
:1077D0000F0591F803C01CF0100F03D091F802C000
:1077E0004CEA050591F800C0BCF1000F31D01468D7
:1077F00000202BE04FF0010C0CFA00F3B1F800C0B0
:107800000CEA03069E4220D183004FF00F0C0CFAC5
:1078100003F7BC4305FA03FC4CEA040491F803C0E7
:10782000BCF1280F06D14FF0010C0CFA00FCC2F895
:1078300014C00AE091F803C0BCF1480F05D14FF025
:10784000010C0CFA00FCC2F810C0401C0828D1D36F
:107850001460B1F800C0BCF1FF0F34DD54680020A3
:107860002EE000F1080C4FF0010808FA0CF3B1F813
:1078700000C00CEA03069E4221D183004FF00F0C9A
:107880000CFA03F7BC4305FA03FC4CEA040491F834
:1078900003C0BCF1280F05D100F1080C08FA0CF860
:1078A000C2F8148091F803C0BCF1480F07D100F171
:1078B000080C4FF0010808FA0CF8C2F81080401CC0
:1078C0000828CED35460BDE8F081000038B50446E6
:1078D000002536E01D4A6068811A904217D009DC05
:1078E0001B4940180DD0B0F5806F0CD0B0F5006F7B
:1078F00013D10AE0B1F5806F0BD0B1F5006F0CD158
:1079000009E0042509E0082507E0102505E0202509
:1079100003E0402501E0802500BF00BF45F00100E5
:10792000012101F0BBFA20788DF802002089ADF822
:10793000000060788DF8030069466068FFF73CFF3F
:107940000C3420780028C5D138BD00000014014057
:1079500000F8FEBFF0B50A460023002400210025F0
:1079600000F00046B6F1004F02D11D4EF16901E072
:107970001B4E7168C0F3034583B200F44016B6F5A0
:10798000401F08D121F07061154E766826F07066B0
:10799000134F7E6012E000F48016B6F5801F06D10A
:1079A000032606FA05F4A14341F0706106E0460D96
:1079B000360103FA06F6B14341F0706122B1460D7B
:1079C000360103FA06F6314300F00046B6F1004FE7
:1079D00002D1034EF16101E0014E7160F0BD000083
:1079E000000001400246002093680B4201D00120B4
:1079F00000E000207047416170471FB51C462CB164
:107A0000BDF80810019800F007F804E0BDF8081070
:107A10000198FFF7F0FF1FBD016170472DE9F041AC
:107A200004460D46084800680849097800EB4110F3
:107A3000C66904EB440006EB80072B4697E8070075
:107A4000FFF7DBFFBDE8F081580000202800002090
:107A50002DE9F04F93B082464FF0000B00201290BA
:107A6000119010900F900E900D900C900B900A902A
:107A7000099008900790069005903D21474800F036
:107A80000FF90F903B21454800F00AF910903F2173
:107A9000424800F005F90E904321404800F000F9FB
:107AA0000799401A00B2129045213C4800F0F8F8BE
:107AB0000699401A0FFA80FB4721384800F0F0F889
:107AC0000599401A00B211901098FDF7A1FD0646E5
:107AD0000022334BFDF71FFD0446FDF709FE0D9014
:107AE0000F98FDF795FD064600222D4BFDF713FD7F
:107AF0000446FDF7FDFD0C900E98FDF789FD064646
:107B00000022274BFDF707FD0446FDF7F1FD0B9022
:107B10001298FDF77DFD80460022224BFDF7FBFC0D
:107B20000646214A214BFDF784FC0446FDF7E0FDA3
:107B300009905846FDF76CFD80460022194BFDF771
:107B4000EAFC0646184A194BFDF773FC0446FDF79C
:107B5000CFFD0A901198FDF75BFD80460022114B86
:107B6000FDF7D9FC0646104A104BFDF762FC0446AF
:107B7000FDF7BEFD08900AF10800011F0B9ACDE940
:107B8000012ACDE903100C9800900D9BDDE9082037
:107B90000A9900F015FB13B0BDE8F08FD0CD0008B6
:107BA0000000C040006050405F40D42247DF913F5A
:107BB000F0B504460A46002300200025214633E0A4
:107BC0000E78252E02D10125461CB0B2012D2AD1F6
:107BD0000E78642E06D1AC461E465F1CBBB202F87E
:107BE00006C000250E78662E07D14FF0020C1E4607
:107BF0005F1CBBB202F806C000250E78732E07D1B9
:107C00004FF0030C1E465F1CBBB202F806C00025F5
:107C10000E78632E07D14FF0040C1E465F1CBBB2DA
:107C200002F806C00025491C0E78002EC8D1F0BD10
:107C3000FEB5054600261948006800901748001D4B
:107C400000680290154808300068019000241CE08C
:107C500015E05DF824003E21B0FBF1F201FB1207B4
:107C6000384602F0EBFCC2B23046711CCEB22A5448
:107C70005DF824003E21B0FBF1F04DF824005DF8E2
:107C800024000028E5D1601CC4B2032CE0DB0022F4
:107C90003046711CCEB22A543046FEBDE8F7FF1FB5
:107CA0002DE9F04105460C462146284601F0ADFA83
:107CB0000646601CC1B2284601F0A7FA074607EB4A
:107CC000062000B2BDE8F0812DE9FC5F83469BF8F9
:107CD00000A0CAEB0A201FFA80FA9BF8010040EAD4
:107CE0000A0A2AF0030A5046FDF78DFC0090FDF7C2
:107CF000ECFC06460022074BFDF79BFB04460022E6
:107D0000054BFDF7EFFA8046FDF7F2FC0190019874
:107D1000BDE8FC9F00405F3F000018C010B5002484
:107D20000E20FFF72BFD00B104240720FFF726FDEE
:107D300000B10D24204610BD2DE9FC5F054600264C
:107D4000B346B1464FF07E5A44E015F8014B2D2C56
:107D500001D101263EE02E2C02D14FF0010B39E07B
:107D6000302C2EDB392C2CDCBBF1000F0ED11F493F
:107D70004846FDF741FA8146A4F13000FDF73AFC90
:107D800007464946FDF7E0F9814623E05046FDF7F6
:107D90009CFC0746164A174BFDF74BFBCDE900014B
:107DA000FDF7A6FC8246A4F13000FDF723FC8046D7
:107DB0005146FDF721FA07464946FDF7C5F98146C8
:107DC00008E026B10C494846FDF716FA81464846B8
:107DD000BDE8FC9F28780028B7DC26B10649484654
:107DE000FDF70AFA81464846F2E70000000020410C
:107DF0009A9999999999B93F000080BF2DE9FC5F44
:107E000083469BF800A0CAEB0A201FFA80FA9BF871
:107E1000010040EA0A0A2AF0030A5046FDF7F3FB84
:107E20000090FDF752FC0646074A084BFDF701FBA0
:107E30000446074A074BFDF755FA8046FDF758FC04
:107E400001900198BDE8FC9FD7A3703D0AF7653FFC
:107E5000CDCCCCCCCC6C47C010B5014600200A4636
:107E600001E0431C98B212F8014B002CF9D110BD6F
:107E7000002000210CE001EB4102074B1B6803EBE3
:107E800002121289012A01D0421CD0B24A1CD1B27E
:107E90001429F0DB704700004C00002070B5054647
:107EA0000C46284600F053F98021284600F023F9BB
:107EB000F521284600F01FF950BB00BF1E2000F03E
:107EC00079F8284600F043F90A2002F0C9FD812123
:107ED000284600F010F90028F0D1284600F0BBF841
:107EE00020700021284600F0E6F8284600F0B3F89C
:107EF00060700021284600F0DEF8284600F0ABF85C
:107F0000A0700121284600F0D6F8284600F03BF981
:107F1000284600F01CF98021284600F0ECF8F321F7
:107F2000284600F0E8F850BB00BF1E2000F042F8E1
:107F3000284600F00CF90A2002F092FD8121284623
:107F400000F0D9F80028F0D1284600F084F8E0705D
:107F50000021284600F0AFF8284600F07CF8207198
:107F60000021284600F0A7F8284600F074F8607158
:107F70000121284600F09FF8284600F004F970BD62
:107F800001E000F097FCFCE710B504462046FEF740
:107F9000E9FE10BD10B5FEF725FF10BD70B5044613
:107FA0000D4629462046FEF727FF70BD10B5FEF7A7
:107FB00043FF10BD00BF0100A0F1010290B2FAD151
:107FC000704707B582B0BDF81000ADF80400482036
:107FD0008DF8070002208DF8060001A90398FFF72D
:107FE000EBFB05B000BD07B582B0BDF81000ADF8E1
:107FF000040010208DF8070002208DF8060001A96A
:108000000398FFF7D9FB05B000BD70B50446002505
:10801000A18A2069FFF700FDD4E90412E068FFF7A8
:10802000D0FF21896068FFF7F7FC0A20FFF7C2FF45
:10803000A18A2069FFF7D6FC05430A20FFF7BAFFA3
:1080400021896068FFF7D7FCD4E90412E068FFF7E4
:10805000CAFF284670BD70B504460025D4E9041255
:10806000E068FFF7AEFFA18A2069FFF7D5FC002684
:1080700018E06806050E21896068FFF7CDFC0A202C
:10808000FFF798FFA18A2069FFF7ACFC08B1681CD4
:10809000C5B221896068FFF7AEFC0A20FFF78AFFAE
:1080A000701CC6B2082EE4DBD4E90412E068FFF7C6
:1080B0009AFF284670BD70B504460D4625B1A18AC9
:1080C0002069FFF7A9FC03E0A18A2069FFF793FC70
:1080D00021896068FFF7A0FC0A20FFF76BFF218968
:1080E0006068FFF788FC0A20FFF764FFA18A206917
:1080F000FFF792FC70BD70B504460D46002620E0E7
:1081000015F0800F04D0A18A2069FFF785FC03E0F9
:10811000A18A2069FFF76FFC0A20FFF74BFF218936
:108120006068FFF779FC0A20FFF744FF2189606847
:10813000FFF761FC0A20FFF73DFF6806050E701C83
:10814000C6B2082EDCDB2046FFF75FFF70BD10B51E
:108150000446A18A2069FFF75FFC21896068FFF768
:108160005BFC0A20FFF726FFA18A2069FFF743FC8A
:108170000A20FFF71FFF21896068FFF73CFC0A20F7
:10818000FFF718FF10BD10B50446A18A2069FFF75C
:1081900032FC21896068FFF73FFC0A20FFF70AFFE5
:1081A000A18A2069FFF738FC1E20FFF703FF218911
:1081B0006068FFF720FC1420FFF7FCFE10BD0000F4
:1081C0000FB597B000211E9801601F9801601D999E
:1081D0000846FDF711F80A901C990846FDF70CF8BF
:1081E00008901A990846FDF707F807900899FCF7D8
:1081F000ABFF09900A99FCF7A7FF0B90FDF765FA12
:10820000CDE90C0104F09AFCCDE90E01FDF770FAFE
:10821000169016991A98FDF725F81A9016991C9839
:10822000FDF720F81C9016991D98FDF71BF81D907E
:10823000FE480168FE480068FCF7DEFF0E90FD482E
:108240000168FD480068FCF7D7FF0D900E99FCF718
:10825000CDFF4FF080410F90FCF7CEFF1590F54811
:108260000168F2480068FCF7C7FF0E90F248016809
:10827000EF480068FCF7C0FF0D900E99FCF764FF13
:108280004FF080410F90FCF7B7FF1490E948016868
:108290000068FCF7B1FF0F90E44801680068FCF744
:1082A000ABFF0D90E44801680068FCF7A5FF0B9058
:1082B000DF4801680068FCF79FFF0A900B99FCF704
:1082C00095FF0C900D99FCF791FF0E900F99FCF71C
:1082D0003BFF139014991D98FCF78EFF0F90139994
:1082E0001C98FCF789FF0E900F99FCF77FFF129006
:1082F00013991A98FCF780FF0F9015991D98FCF7B9
:108300007BFF0E900F99FCF771FF119015991C9847
:10831000FCF772FF0F9014991A98FCF76DFF0E90FE
:108320000F99FCF763FF1090C4491298FCF764FFA3
:108330000F90C34801680F98FCF706FFC04908601A
:10834000BE491198FCF758FF0F90BE4801680F987E
:10835000FCF7FAFEBB490860B8491098FCF74CFFDF
:108360000F90B94801680F98FCF7EEFEB649086017
:10837000B6481299FCF740FF0E901799FCF7E4FEFF
:108380000F90AF4801680F98FCF7DEFE1790AF48DA
:108390001199FCF731FF0E901899FCF7D5FE0F905C
:1083A000A84801680F98FCF7CFFE1890A7481099CD
:1083B000FCF722FF0E901999FCF7C6FE0F90A24819
:1083C00001680F98FCF7C0FE19909A481999006847
:1083D000FCF712FF0D90954818990068FCF70CFF08
:1083E0000B909548006880F0004009901799FCF7C1
:1083F00003FF0A900B99FCF7F9FE0C900D99FCF71E
:10840000F5FE93490E90FCF7F7FE0F90884801683F
:108410000F98FCF799FE864908608648189900680D
:10842000FCF7EAFE0D90814819990068FCF7E4FE1C
:108430000B907F4801681798FCF7DEFE0A900B99B5
:10844000FCF782FE0C900D99FCF7D0FE80490E904F
:10845000FCF7D2FE0F90784801680F98FCF774FE85
:1084600075490860734801681798FCF7C5FE0D90C0
:10847000714819990068FCF7BFFE0B906C48189979
:108480000068FCF7B9FE0A900B99FCF7AFFE0C9060
:108490000D99FCF759FE6E490E90FCF7ADFE0F905A
:1084A000624801680F98FCF74FFE60490860084673
:1084B00001681798FCF7A0FE0D905F4818990068B6
:1084C000FCF79AFE0B905A4819990068FCF794FE45
:1084D0000A900B99FCF738FE0C900D99FCF786FE7C
:1084E0005B490E90FCF788FE0F90524801680F9888
:1084F000FCF72AFE4F490860084601680068FCF74F
:108500007BFE0A90494801680068FCF775FE0890F8
:10851000494801680068FCF76FFE0690444801680E
:108520000068FCF769FE05900699FCF70DFE0790C0
:108530000899FCF709FE09900A99FCF705FE0B90D3
:10854000FDF7C3F8CDE90C0104F0F8FACDE90E010E
:10855000FDF7CEF81690364816990068FCF782FEB3
:1085600033490860344816990068FCF77BFE3249AD
:1085700008602E4816990068FCF774FE2B490860C5
:108580002C4816990068FCF76DFE2A4908600846D9
:10859000016829480068FCF72FFE0790234801680E
:1085A00023480068FCF728FE06900799FCF71EFE9A
:1085B0004FF080410890FCF71FFE0990FDF785F809
:1085C000CDE90A0103F08AFF4FF00052214BCDE9BB
:1085D0000C01FCF72EFFCDE90E01FDF789F81E997D
:1085E00008601448016811480068FCF705FE079010
:1085F000114801680E480068FCF7FEFD06900799D7
:10860000FCF7A2FD4FF080410890FCF7F5FD0990C2
:10861000FDF75BF8CDE90A0103F060FF4FF000526F
:108620000C4BCDE90C01FCF704FF15E080000020A5
:1086300078000020840000207C0000206F12833A24
:10864000880000208C00002090000020CDCC4C3F02
:108650006F12833BDCA54C40CDE90E01FDF748F8D5
:108660001F9908602A4801680068FCF7C5FD06905C
:10867000284801680068FCF7BFFD0490264801689F
:108680000068FCF7B9FD0290244801680068FCF717
:10869000B3FD01900299FCF757FD03900499FCF794
:1086A000A5FD05900699FCF7A1FD0790FDF70DF8D3
:1086B000CDE90A011648016818480068FCF79CFDDE
:1086C00005901448016814480068FCF795FD049073
:1086D0000599FCF739FD4FF080410690FCF78CFDC1
:1086E0000790FCF7F2FFCDE90801DDE90A2304F069
:1086F00045F94FF066320A4BCDE90C01FCF799FEC3
:10870000CDE90E01FCF7F4FF209908601BB000BD15
:1087100084000020800000207C00002078000020E1
:1087200066A64C4010B50446184840795A2802DD28
:1087300050201649487115484079282802DA282027
:1087400012494871062C1FD2DFE804F01E03090EFF
:1087500013196FF04501462000F04BF914E0462153
:10876000484200F046F90FE04621084600F041F982
:108770000AE06FF04501084600F03BF904E04621AD
:10878000084600F036F900BF00BF10BD903700204A
:1087900010B545F2555000F029F8062000F01AF8FF
:1087A0004FF47F6000F01CF800F00CF800F002F8C5
:1087B00010BD00004CF6CC40014908607047000035
:1087C000003000404AF6AA200149086070470000C6
:1087D0000030004001494860704700000030004010
:1087E000014988607047000000300040014908607E
:1087F000704700000030004010B5044600226B2195
:10880000204600F02AFD07221921204600F025FD10
:1088100004221A21204600F020FD08221B212046B8
:1088200000F01BFD08221C21204600F016FD10BDA3
:1088300070B504460D462B4622460249024800F018
:1088400005F870BD00F80008816F00082DE9F047B9
:108850000746884614461D46A14608EBC52004225B
:108860002146B8474E463088B0F5006F01DD012043
:1088700000E000203188042901DA012100E0002114
:10888000084300D013E0328808EBC5202146B847E2
:108890003088001F81B209F1040001F0E5FE824634
:1088A0007188514500D002E00120BDE8F08700202A
:1088B000FBE7000071B600BF0648006800F4E06006
:1088C00005490843001D03490860BFF3408F00BFFE
:1088D00000BFFEE70CED00E00000FA0570B50546AC
:1088E00025B1284602F0DAF9044602E002F0A0F9C8
:1088F000044614B16668304670BD0020FCE700BF36
:10890000FEE70000054A1168486802E009684A6805
:1089100010440A68002AF9D1704700005C0000206A
:1089200002460A4B1868002106E0A2F108038342C0
:1089300000D107E0014600680368002BF5D101B1C2
:108940000B60704703680B6000BFFAE75C00002013
:108950000146A1F1080250680838704705490860CF
:108960000021044A126811600821024A126851600D
:10897000704700005C00002010B5034610480168F5
:1089800003F1080083B20FE00868401A4C68001B2E
:10899000984208D3486842185360086810600A601B
:1089A00002F1080010BD096808680028ECD1486889
:1089B00042180020106053600A6002F10800F1E7DD
:1089C0005C00002010B50446002C09DA01210B20C0
:1089D000FFF724F86042C1B2022000F0C1F807E0BE
:1089E00000210B20FFF71AF8E1B2022000F0B8F8DE
:1089F00010BD70B505460C462846FFF7E3FF20463C
:108A000000F041F870BD70B505460C46002D08DD3C
:108A100001210920FFF702F800210B20FEF7FEFFDD
:108A200012E0002D08DA01210920FEF7F7FF0121ED
:108A30000B20FEF7F3FF07E000210920FEF7EEFF11
:108A400000210B20FEF7EAFF002C08DD01210820A1
:108A5000FEF7E4FF01210A20FEF7E0FF12E0002C00
:108A600008DA01210820FEF7D9FF00210A20FEF7CD
:108A7000D5FF07E000210820FEF7D0FF01210A20E2
:108A8000FEF7CCFF70BD10B50446002C09DA0021BA
:108A90000A20FEF7C3FF6042C1B2012000F060F877
:108AA00007E001210A20FEF7B9FFE1B2012000F042
:108AB00057F810BD10B500210846FFF79AFF10BD0A
:108AC0007047000070B5002100230F22C4780CB35A
:108AD000164C246804F4E064C4F5E064210AC1F192
:108AE0000403CA40447804FA03F184781440214313
:108AF00009010F4C0678A155047804F01F050124E4
:108B0000AC4005786D114FF0E02606EB8505C5F801
:108B1000004109E0047804F01F050124AC40054D34
:108B20000678761145F8264070BD00000CED00E097
:108B300000E400E080E100E002490143024A1160E4
:108B4000704700000000FA050CED00E0024A0A4000
:108B50000243024B1A60704780FFFF1F08ED00E0E0
:108B600010B502464FF4C86000FB01F36424B3FB68
:108B7000F4F0012A02D0022A07D102E0044C20803E
:108B800003E0034C241D208000BF00BF10BD000087
:108B9000340800407047000010B5032209A10BA063
:108BA000FDF74AFB03220DA110A0FDF745FB0322B0
:108BB000124913A0FDF740FB0322164916A0FDF74A
:108BC0003BFB10BD496E736563740000426F6172B8
:108BD000645F4E616D653A257300000053544D3358
:108BE0003246313033433854360000004350555F2D
:108BF0004D6F64656C3A25730000000000127A0026
:108C00004370755F4F53435F465245513A20256488
:108C10004D687A0000A24A044370755F4672657120
:108C20003A2025644D687A007047000000B585B091
:108C30006846FEF7FDFF0322694602A0FDF7FCFA35
:108C400005B000BD4F6E6C7949443A2573000000B1
:108C50007047000010B5032108A0FDF7EDFAFFF7FB
:108C60009BFFFFF7E1FFFFF7E1FFFDF701FC00F0DD
:108C700013F8FFF7EDFF00F02FF810BD0A546F73E3
:108C80002053797374656D2053746172742E2E2E87
:108C90002E2E2E2E2E2E2E0010B5FFF7E9F80446AC
:108CA00003232246142102A0FDF7C6FA10BD0000DE
:108CB0005461736B506F6F6C53697A653A25642009
:108CC00062757420686173202564207461736B2061
:108CD0006372656174652E0038B500241DE004EBF5
:108CE00044001549096801EB0010C06A98B10320DF
:108CF000009004EB44001049096801EB0010038C5C
:108D000004EB44000C49096801EB00102146C26ADB
:108D10000AA0FDF791FA601CC4B2142CDFDB601EC0
:108D2000C4B2FFF7EFFD054603232A4643F2B061C4
:108D300007A0FDF781FA38BD4C0000205461736B29
:108D40005B25645D4E616D653A25732825642900B5
:108D50004D656D6F727953697A653A256420627545
:108D60007420757365723A256400000000B589B0FF
:108D70000121042000F082F80121022000F07EF899
:108D80000121084600F07AF80121082000F086F859
:108D90000121102000F082F80121042000F07EF86B
:108DA00018208DF8070003208DF806004020ADF84C
:108DB000040001A92748FEF7FFFC8020ADF804005D
:108DC00001A92448FEF7F8FC4FF4C860ADF81C0078
:108DD0000220ADF818000020ADF81E00ADF81A0012
:108DE00006A91D4800F094FC6020ADF808000120A1
:108DF000ADF80A000020ADF81000ADF80E0002A991
:108E0000154800F029FB02A9134800F07BFB02A9DA
:108E1000114800F0D7FB02A90F4800F02DFC0821F3
:108E20000D4800F065FB08210B4800F0BDFB082150
:108E3000094800F017FC0821074800F05BFC0121FD
:108E4000054800F0F1FA0121034800F0F9FA09B0F1
:108E500000BD0000000C01400008004029B1064A96
:108E600052690243044B5A6104E0034A5269824347
:108E7000014B5A61704700000010024029B1064AB8
:108E8000D2690243044BDA6104E0034AD2698243A7
:108E9000014BDA61704700000010024029B1064A18
:108EA00092690243044B9A6104E0034A9269824347
:108EB000014B9A61704700000010024030B500215C
:108EC0000022002400232D4D6D6805F00C0121B116
:108ED000042905D0082923D105E0294D056022E0A9
:108EE000274D05601FE0254D6D6805F47012234D78
:108EF0006D6805F48034022505EB92421CB9214DC2
:108F0000554305600BE01D4D6D6815F4003F03D01F
:108F10001C4D5543056002E0194D5543056002E0C4
:108F2000174D056000BF00BF144D6D6805F0F001DE
:108F30000909154D6B5C0568DD4045600F4D6D6896
:108F400005F4E061090A104D6B5C4568DD40856001
:108F50000A4D6D6805F46051C90A0B4D6B5C45689C
:108F6000DD40C560054D6D6805F44041890B074D36
:108F70006B5CC568B5FBF3F5056130BD00100240C0
:108F800000127A0000093D000000002010000020BF
:108F900070B5020CC0F30723C4B202FB01F5FF2633
:108FA00095FBF6F5AAB203FB01F595FBF6F5ABB21E
:108FB00004FB01F595FBF6F5ACB210460002184330
:108FC0000002204370BD000070B505460C460849FC
:108FD000CA8AC9895018FCF7AFF8FCF7A3F8291B17
:108FE00090FBF1F201FB12000619304670BD000043
:108FF0009037002070B5FF216FF07F40FFF7E4FF4E
:109000000446FF216FF07F40FFF7DEFF0546214653
:1090100000F001F870BD70B504460D460C222146E3
:10902000002002F077FC0C222946204602F072FC58
:109030000C220021284602F06DFC70BD10B5012104
:109040000148FEF787FC10BD0002300010B5044651
:109050002046FEF73BFC204600F01CF8204600F0BE
:1090600001F810BD70B5044600252046FFF76FF8E3
:1090700080212046FFF73FF8E6212046FFF73BF826
:1090800030B983212046FFF736F82046FFF77BF8FA
:10909000284670BD70B5054600242846FFF757F8EE
:1090A00080212846FFF727F80443FE212846FFF7D2
:1090B00022F804432846FFF766F8642001F0D0FC4C
:1090C000204670BD7047000070B504460D462B4623
:1090D00022460249024800F005F870BD00F8000879
:1090E0009D6F00082DE9F0478046894614461F46CB
:1090F00025462E463088001F81B2201D01F0B4FAAB
:109100007080328809EBC7202946C047BDE8F08748
:1091100010B500F001F810BD0CB5002001900090D2
:109120003248006840F480303049086000BF2F4862
:10913000006800F4003000900198401C01900098F5
:1091400018B90198B0F5A06FF1D12848006810F463
:10915000003F02D00120009001E000200090009824
:10916000012842D12248006840F0100020490860E0
:109170000846006820F0030008600846006840F0D8
:10918000020008601948406818494860084640686D
:1091900048600846406840F480604860084640687F
:1091A00020F47C1048600846406840F4E8104860AD
:1091B0000846006840F08070086000BF0B480068F7
:1091C00010F0007FFAD00948406820F003000749FA
:1091D00048600846406840F00200486000BF03480D
:1091E000406800F00C000828F9D10CBD00100240C6
:1091F0000020024003461AB908125870197002E0A4
:10920000081218705970022070472DE9F041054688
:109210000E4600242846FEF79AFFD0212846FEF786
:109220006AFF044331462846FEF765FF044328469B
:10923000FEF78DFFD1212846FEF75DFF0443284647
:10924000FEF709FF074601212846FEF734FF2846AE
:10925000FEF799FF3846BDE8F0812DE9F04106465A
:109260000F46154600243046FEF771FFD0213046E8
:10927000FEF741FF044339463046FEF73CFF044306
:1092800029463046FEF737FF04433046FEF77BFFA2
:109290002046BDE8F08130B503460C460020194653
:1092A000224605E011F8015B02F8015B451CA8B2FB
:1092B0000D78002DF6D1157030BD2DE9F041064630
:1092C0000D462C4637462846FEF7C6FD0444304678
:1092D000FEF7C2FD804618F1010001D1BDE8F08122
:1092E00003E017F8010B04F8010B5FEA0800A8F18E
:1092F0000108F6D104F8010B00BFEFE710B50246F4
:10930000087888B10CE0002305E0C818407808B957
:10931000104610BD5B1CD056CC56A042F5D0521C56
:1093200010780028EFD1F4E71046F2E710B501F00D
:10933000A9FA10BD30B51249B1F1807F00D31DE00C
:1093400021F07F40401E4FF0E022506150170F2265
:10935000002807DA13071D0E0A4B00F00F04241F24
:109360001D5503E013071C0E074B1C5400BF0020C3
:109370004FF0E02290610720106100BF30BD000077
:109380004019010018ED00E000E400E010B51348BA
:10939000006840F001001149086008464068104923
:1093A00008400E494860084600680E4908400B49CD
:1093B00008600846006820F480200860084640687D
:1093C00020F4FE0048604FF41F008860FFF7A0FE05
:1093D0004FF000600449086010BD0000001002401A
:1093E0000000FFF8FFFFF6FE08ED00E010B50022D8
:1093F0000121024800F056FE10BD00000194000853
:1094000010B5642001F02CFBFFF754FA10BD0000EA
:1094100010B50A2001F024FB00220121014800F0D0
:1094200041FE10BDCDA5000821B1028842F08002A6
:10943000028004E002884FF67F731A400280704772
:1094400021B1028842F00102028004E002884FF656
:10945000FE731A400280704770B50024002200237A
:10946000058C4FF6FE7635400584028C8388048B8C
:109470004FF68F752C40B51E2C400D882C43751E61
:109480002A400D892A434D882A43144DA8420BD007
:10949000134DA84208D0134DA84205D0124DA84242
:1094A00002D0124DA84213D14FF6F7752A404D89CC
:1094B0002A434FF6FB752A408D882A434FF6FF65F5
:1094C0002B404FF6FF552B408D892B43CD892B43E5
:1094D00083800483CD888586028470BD002C014082
:1094E0000034014000400140004401400048014078
:1094F0000A460021018B4FF6F7731940114301838F
:109500007047000070B5002400220023058C4FF640
:10951000EF7635400584028C8388048B48F6FF750E
:109520002C404FF6FF452C400D884FF6FF7606EA9B
:1095300005252C434FF6DF752A400D8906EA0515EF
:109540002A434D8806EA05152A43154DA84202D044
:10955000144DA8421DD14FF67F752A404D894FF614
:10956000FF7606EA05152A434FF6BF752A408D8817
:1095700006EA05152A434FF6FF352B404FF2FF75DB
:109580002B408D8906EA85052B43CD8906EA8505A2
:109590002B4383800483CD880587028470BD00003F
:1095A000002C0140003401400A460021018B4FF29B
:1095B000FF7319404FF6FF7303EA02231943018337
:1095C0007047000070B5002400220023058C4FF680
:1095D000FF6635400584028C8388848B4FF68F7537
:1095E0002C404FF6FC752C400D882C434FF6FF5550
:1095F0002A400D894FF6FF7606EA05252A434D8855
:1096000006EA05252A43154DA84202D0144DA8426A
:109610001DD14FF2FF752A404D894FF6FF7606EABD
:1096200005252A434FF6FF352A408D8806EA052591
:109630002A434EF6FF752B404DF6FF752B408D8962
:1096400006EA05152B43CD8906EA05152B438380D1
:109650008483CD888587028470BD0000002C014082
:10966000003401400A460021818B4FF6F773194000
:10967000114381837047000070B50022002300244D
:10968000058C4EF6FF7635400584038C8488828BEA
:1096900048F6FF752A404FF6FF452A400D884FF6E1
:1096A000FF7606EA05252A434DF6FF752B400D8906
:1096B00006EA05352B434D8806EA05352B430B4D4D
:1096C000A84202D00A4DA84208D14BF6FF752C40A3
:1096D0008D894FF6FF7606EA85152C4384808283B8
:1096E000CD88A0F84050038470BD0000002C0140DC
:1096F000003401400A460021818B4FF2FF7319406C
:109700004FF6FF7303EA0223194381837047000079
:10971000002202881D4B98420ED01D4B98420BD060
:10972000B0F1804F08D01B4B984205D01A4B98429D
:1097300002D01A4B984204D14FF68F731A404B88CF
:109740001A43174B984207D0164B984204D04FF655
:10975000FF431A40CB881A4302808B8883850B888D
:1097600003850A4B98420BD0094B984208D00E4B08
:10977000984205D00D4B984202D00D4B984201D132
:109780000B7A03860123838270470000002C01407E
:10979000003401400004004000080040000C00407C
:1097A000001000400014004000400140004401400F
:1097B00000480140FFF742FC0220FCF703FE164878
:1097C000FCF7B0F900210520FEF728F9012102205D
:1097D000FEF724F901210320FEF720F901210620DC
:1097E000FEF71CF901210020FEF718F901210846B7
:1097F000FEF714F900210F20FEF710F9FFF72AFAFF
:109800000F21002002F05CF8FCF70EFB03E04FF4A0
:109810007A7001F025F9FAE79C3700202CE04FF42C
:109820007A7001F01DF900210846FEF7F7F80021D3
:109830000120FEF7F3F80A2001F012F901210020BF
:10984000FEF7ECF801210846FEF7E8F8642001F085
:1098500007F900210846FEF7E1F800210120FEF794
:10986000DDF80A2001F0FCF801210020FEF7D6F80F
:1098700001210846FEF7D2F8D1E700008046B8F192
:10988000000F02D008F0FF0500E00A25E800FFF70E
:1098900073F8814605EB45018800FFF76DF88246B5
:1098A000002608E006EB46000AEB800009EBC60143
:1098B0004860701CC6B2AE42F4DB2946484601F04F
:1098C0009FF8154800781549087024E00A2001F037
:1098D000C7F801F0ADF90746EFB17C68207906289A
:1098E00018D2DFE800F01703060A0E12206880473E
:1098F00010E0207A216888470CE02168A06888473A
:1099000008E02168A068884704E0228990B22168B5
:10991000884700BF00BFD9E7480000206C00002046
:1099200008B5064600960024BDF80000BDF80210F8
:10993000401A87B2BDF8020000F1005525E0012071
:1099400001F08EF8BC4200DB0024285D052809D117
:10995000285D00EB40000D4901EB8000007A2044B7
:1099600084B212E0621CA8182A5D02EB4202074B87
:1099700003EB820251688847285D00EB40000349F1
:1099800001EB8000007A204484B2D8E79CCE000826
:109990002DE9FC4107463D460226BCB2A01C80B220
:1099A000ADF80400A01C80B2ADF806005EE0012016
:1099B00001F056F82888B04224DCBDF80400ADF868
:1099C0000600A01980B2ADF8040006200090BDF892
:1099D0000400031BBDF80600021B001B285C00EB03
:1099E0004000DFF88CC05CF8201022A0FCF724FCBB
:1099F00002264FF4FA7322A22448019900F0CEFF08
:109A0000BDE8FC81A85D052827D1BDF80400ADF8AC
:109A10000600301980B2ADF80400BDF80600BDF8AC
:109A20000410884219DA4FF4FA7315A21748019905
:109A300000F0B4FF06200090BDF80400031BBDF841
:109A40000600021B001B285C00EB4000DFF820C072
:109A50005CF820100EA0FCF7EFFBA85D00EB4000C7
:109A6000034901EB8000007A304486B29FE7000092
:109A70009CCE0008452025732C25642C256400000D
:109A80005461736B5F474944450000002199000809
:109A9000432025732C25642C2564000086B00646DF
:109AA0000024B046404601F043FDFFF7C7FA02200C
:109AB000FCF788FCFF20FCF78BFC5348FCF732F8DE
:109AC00000210520FDF7AAFF01210220FDF7A6FFD6
:109AD00001210320FDF7A2FF01210620FDF79EFFD3
:109AE00001210020FDF79AFF01210846FDF796FFAE
:109AF00000210F20FDF792FFFFF7ACF80F210020A7
:109B000001F0DEFE4FF47A60FEF736FF054600F006
:109B100083FD2846FDF742FD10B12846FFF738FFC8
:109B200071E03A4908681E21FCF76FFA41F2883368
:109B30001E220021404601F0EFFD0746002F5DD0B8
:109B40003249086832A1FFF7D9FB48B101A8FEF7F6
:109B50006FF80746002201A92FA0FCF76DFB52E029
:109B60002A4908682EA1FFF7C9FBF8B1FDF796FA5C
:109B70000120FCF72DFC022400212BA0FCF75CFB4C
:109B800000BF2DA000F0BEFD00F0FF09484600F028
:109B900097FF0028F5D12846FEF7DAFE1FFA80F974
:109BA0004A4600212846FCF723FA2CE017490868AA
:109BB00024A1FFF7A3FB70B12C80002122A0FCF7A9
:109BC0003BFB2846FFF7E4FE2846FDF74FFDFF204C
:109BD000FCF7FEFB17E040F68C70844206D20B4A7D
:109BE00028191168FDF7A4FA04440CE006234FF489
:109BF0007A62214618A0FCF71FFB04E029880622A0
:109C00001AA0FCF719FB8CE79C370020A400002069
:109C100046696E64000000004749443D257300001A
:109C2000537461727400000052657475726E2E5325
:109C3000746172744F6B00005461736B5F474944E9
:109C400045000000456E640052657475726E2E45C5
:109C50006E644F6B0000000052657475726E2E5377
:109C6000697A654F757425642F2564005265747593
:109C7000726E2E54696D654F757425640000000086
:109C80008AB08346DA462048FDF720FE1E48FEF7DC
:109C9000B3FD37E0642000F0E3FE5046FDF7D8FE48
:109CA00041211948FDF7FCFF0546FBF7A3FC0446DC
:109CB0001649FBF7D7FACAF80C00DAF80C00FBF7E4
:109CC00004FD04460D46DAF80800FBF7FEFC0646E4
:109CD0000F46DAF80400FBF7F8FC80468946DAF80C
:109CE0000000FBF7F2FCCDE908010020CDE9008976
:109CF000CDE90267CDE9044506900B4604A0089A19
:109D0000FCF79AFAC6E70000D0CD00080000204119
:109D1000583D5B252E31665D593D5B252E31665DD4
:109D2000205A3D252E316620543D252E31660000F7
:109D30008EB0002606E004A802A901EBC601486027
:109D4000701CC6B2012EF6DB012102A800F058FEFD
:109D5000FCF7CAFFFFF70AF880E10A2000F09EFF37
:109D60000546002D71D0287810B101286ED1CAE0C7
:109D7000D5F804806C6820786178C943C9B28842FC
:109D80000ED1A078E178C943C9B2884208D1002039
:109D90000090E2786178B2A0D8F80030FCF74CFA75
:109DA0000122C8214FF4FA70FCF7AFF867786078A9
:109DB0004A2830D00EDC222869D006DC02287ED06A
:109DC000102816D0182819D11FE0302829D038289B
:109DD000F9D157E0A2282AD006DC5A280FD06228F1
:109DE00035D09028EFD147E0C2287ED0E228EAD1D2
:109DF00034E001220321A14800F054F981E002225D
:109E000003219E4800F04EF97BE0032211469B4857
:109E100000F048F975E004220321984800F042F967
:109E20006FE005220321954800F03CF969E001F05C
:109E3000FFFC93480079401E91490871084601795A
:109E4000002290A0FCF7F8F95BE000E1FBE00C22B7
:109E500000214FF6FF7001F05DFD52E001F0E8FCDB
:109E600087480079401C864908710846017900221C
:109E700084A0FCF7E1F944E000220121844800F0CD
:109E800011F93EE000210846FEF7B3FD39E001F08C
:109E9000CFFC7B4840790A387949487108464179B6
:109EA00000227CA0FCF7C8F9754A527951B2744A75
:109EB000527950B2FEF79DFD23E000E015E001F07D
:109EC000B7FC6F4840790A306D49487108464179BE
:109ED000002270A0FCF7B0F9694A527951B2684A81
:109EE000527950B2FEF785FD0BE00C2200216FF095
:109EF0007F4001F00FFD03E000210620FDF78EFDFD
:109F0000FAE700BF9FE04FF4FA714FF49670FBF749
:109F1000C1FF4A2F2ED00EDC222F65D006DC022F87
:109F200079D0102F14D0182F17D11DE0302F27D043
:109F3000382FF9D153E0902F4BD004DC5A2F0DD09D
:109F4000622F7ED130E0A22F20D0E22F79D132E0F3
:109F500001220321494800F0A5F872E00222032102
:109F6000464800F09FF86CE003221146434800F099
:109F700099F866E004220321404800F093F860E07D
:109F8000052203213D4800F08DF85AE001F050FC15
:109F90003B480079401E3A49087108460179002281
:109FA00038A0FCF749F94CE00C2200214FF6FF7075
:109FB00001F0B0FC45E001F03BFC31480079401C69
:109FC0002F4908710846017900222EA0FCF734F9C8
:109FD00037E0002201212E4800F064F831E0002132
:109FE0000846FEF706FD2CE001F022FC24484079EB
:109FF0000A382349487108464179002225A0FCF718
:10A000001BF91F4A527951B21D4A527950B2FEF7DC
:10A01000F0FC16E0FFE701F00BFC194840790A302C
:10A02000174948710846417900221AA0FCF704F943
:10A03000134A527951B2124A527950B2FEF7D9FC02
:10A0400000BF00BF00BF00BF0120FCF72BFE0120B6
:10A05000FCF728FE4FF4967000F002FD7DE600004C
:10A060004B65793D25642C436F64653D25782C5202
:10A0700046446174613D2578000000002587000892
:10A0800090370020536574204D6F64653D25640052
:10A09000F58F00085365742053706565643D256431
:10A0A00000000000FEB506460C46154600968DF8E9
:10A0B000044002956B460C2200210248007800F013
:10A0C00023FEFEBD6C00002008B5044625464FF473
:10A0D000FA6000F0C5FC3BE00A2000F0C1FCA84794
:10A0E0008DF8010000208DF802009DF8010078B382
:10A0F0001DE00A2000F0B4FC9DF90200322805DAC8
:10A100009DF80200401C40B28DF802009DF902004B
:10A1100032280CDB642000F0A3FC04208DF8000042
:10A120006B46032200210B48007800F0EDFDA847A4
:10A130000028DED19DF90200322809DA06208DF8C8
:10A1400000006B46032200210248007800F0DCFD8D
:10A15000C2E700007400002010B5FBF765FE10BDDB
:10A160009AE04E48007905287ED2DFE800F003250A
:10A170002C3A7E006FF04F015020FEF725FF044679
:10A180000522214646A0FCF757F86FF04F015020FA
:10A19000FEF71AFF44B26FF04F015020FEF714FF94
:10A1A00045B221462846FEF724FC4FF47A7000F0B1
:10A1B00057FCFEF77FFC6EE001F03AFB4FF47A703B
:10A1C00000F04EFC67E04FF47A7000F049FC4FF469
:10A1D0007F01002001F092FBFF21012001F08EFBA6
:10A1E00059E04B215020FEF704FC4FF47A7000F048
:10A1F00037FC28215020FEF7FCFB4FF4967000F04E
:10A200002FFC50212820FEF7F4FB4FF4967000F04D
:10A2100027FC4B215020FEF7ECFB4FF47A7000F046
:10A220001FFC28215020FEF7E4FB4FF4967000F04D
:10A2300017FC6FF04A01481FFEF7DBFB4FF47A7002
:10A2400000F00EFC50212820FEF7D3FB4FF496704F
:10A2500000F006FC4FF0FF11002001F04FFB134906
:10A26000012001F04BFB16E00DE04FF47A7000F096
:10A27000F7FBFF21002001F041FB4FF47F4101205B
:10A2800001F03CFB07E00020044908714FF47A70AC
:10A2900000F0E6FB00BF00BF63E70000903700203E
:10A2A0007261646F6D3D25640000000000FFFF00D7
:10A2B0008EB0002509E005EB45006946084404A975
:10A2C00001EBC5014860681CC5B2052DF3DB052113
:10A2D00004A800F095FB00F0A1FC00F09DF900211E
:10A2E0000720FDF79BFB55E00020FEF7F7FA044638
:10A2F000002C4FD062782178022327A0FBF79CFF27
:10A3000060780D2817D12078042814D10F216FF020
:10A310007F4001F0D5FAFBF72FFE0F21002001F05E
:10A32000CFFA4FF47A7000F09BFB03E00021062087
:10A33000FDF774FBFAE760780D2813D12078062822
:10A3400010D11A480079401C184908710C220021CC
:10A350004FF47F0001F0DEFAFFF75AF800210846BB
:10A36000FEF747FB6078042804D12078062801D145
:10A37000FEF740FE607804280CD12078042809D12B
:10A380000C22FF21002001F0C5FA0C220021FF2041
:10A3900001F0C0FAA8E700004B6579547970653D7B
:10A3A00025642C56616C75653D256400903700204E
:10A3B0008EB0002509E005EB45006946084404A974
:10A3C00001EBC5014860681CC5B2052DF3DB052112
:10A3D00004A800F015FB00F021FC00210720FDF788
:10A3E0001DFB25E00020FEF779FA044604B36278ED
:10A3F000217802230FA0FBF71FFF60780D2817D1EB
:10A400002078042814D10F216FF07F4001F058FA12
:10A41000FBF7B2FD0F21002001F052FA4FF47A70E1
:10A4200000F01EFB03E000210620FDF7F7FAFAE733
:10A43000D8E7000025642C25640000008EB00025BC
:10A4400009E005EB45006946084404A901EBC50194
:10A450004860681CC5B2052DF3DB052104A800F097
:10A46000CFFA00F0DBFB00210720FDF7D7FAFBF75E
:10A4700093FD25E00020FEF731FA044604B362782C
:10A48000217802230FA0FBF7D7FE60780D2817D1A3
:10A490002078042814D10F216FF07F4001F010FACA
:10A4A000FBF76AFD0F21002001F00AFA4FF47A70E1
:10A4B00000F0D6FA03E000210620FDF7AFFAFAE734
:10A4C000D8E7000025642C25640000001FB526A1F4
:10A4D00003C9CDE9020126A103C9CDE9000142E08B
:10A4E00064210020FEF78FFA0120FBF778FF64213A
:10A4F0000846FEF788FA0120FBF771FF002164206F
:10A50000FEF781FA0120FBF76AFF6FF0630108464E
:10A51000FEF779FA0120FBF762FF6FF0630100207C
:10A52000FEF771FA0120FBF75AFF6FF0630108464E
:10A53000FEF769FA0120FBF752FF00216FF063007C
:10A54000FEF761FA0120FBF74AFF64214842FEF75B
:10A550005AFA0120FBF743FF64210846FEF753FA3D
:10A56000012000F07DFABBE7080C04060203010994
:10A570000901030206040C080EB5044625461048DE
:10A58000FDF7A4F90E48FEF737F90E48FEF75EFD19
:10A5900015E0642000F064FA2846FDF759FA4121DD
:10A5A0000748FDF77DFB0746FBF724F806460649FA
:10A5B000FAF758FEE86069460248FDF76FFCE8E7E5
:10A5C000D0CD0008ACCD00080000204110B5062019
:10A5D0000549088000210448FEF776FD0121024864
:10A5E000FEF772FD10BD0000903700201FB509482E
:10A5F000FEF72CFD0CE04FF47A7000F031FA69465A
:10A600000448FDF74BFC0A2200216846FBF7F0FCEA
:10A61000F1E70000ACCD000810B50C22064900207F
:10A6200001F078F90C226FF07F41034801F072F9D4
:10A6300001F0FEF810BD000000FFFF0001460029F8
:10A6400005DB092903DC01F1300040B270470A291B
:10A6500005DB232903DC01F1370040B2F6E701F105
:10A660003D0040B2F2E70000F0B502460C46FF2183
:10A67000FF2500260BE012F8017B87EA0503084F4F
:10A68000FF5C87EA0105074FF95C771CBEB2A64262
:10A69000F1DB08464FF6FF7707EA00202843F0BDBC
:10A6A000AACB0008AACC000810B5104800781328DF
:10A6B00004D00F480078401C0D4908700D48007800
:10A6C000401C0C4908700846007864280DDD002005
:10A6D00008701423084A064801780848FCF799FCDA
:10A6E0000749087000200249087010BD480000208A
:10A6F000340000202C0000202D000020300000201D
:10A700004000002070B50546002413E004EB44002F
:10A71000094A126802EB0010C16A2846FBF77FFC69
:10A7200008B1204670BD601C80B20446142801DBCD
:10A73000FF20F7E7EAE700004C00002010B54FF4D7
:10A740007070FEF719F91E49086002201D49487013
:10A7500000204860002428E0012004EB4401184A4E
:10A76000126802EB01110881002004EB4401144A35
:10A77000126802EB01118861002104EB4400104AC9
:10A78000126802EB00100160002004EB44010C4A47
:10A79000126802EB0111C86104EB4401084A126817
:10A7A00002EB01110884601CC4B2142CD4DB13200A
:10A7B000054908700020054908600549086010BD7A
:10A7C0004C000020400000204800002050000020E5
:10A7D0006000002070B50446FFF7B0FF04E094E885
:10A7E0000F0000F0DBF8103420680028F7D100F0EB
:10A7F00031F870BD10B50446FCF766F8FDF7C8FFE8
:10A80000FBF7F0FA00B910BD06E0FDF7DBFF6420AE
:10A8100000F026F900F002F8F7E7000010B50C4848
:10A82000046804B910BD0EE02468A07A10F0010F8E
:10A8300009D0A07A10F0020F05D0E0688047A07A16
:10A8400020F00200A07220680028EDD100BFE9E7E7
:10A850006000002008B5FEF76DFD4FF4FA6005A317
:10A86000002207490090132000F030F8132000F078
:10A8700069FB08BD5461736B526F6F740000000078
:10A88000F5A7000810B5FFF70FFF00F07FFA0848A2
:10A890004078402805D1032106A0FBF7CDFCFEF748
:10A8A00009F80948006808B100F046FC10BD000036
:10A8B00040000020544F532054696D654F7574203B
:10A8C0005265736574000000600000202DE9F047B8
:10A8D00004460D4691461F46DDF820800DB9BDE8BF
:10A8E000F08704EB44002C49096801EB0010008953
:10A8F000012800D0F3E704EB44002749096801EB85
:10A900000010008C98B91FFA88F0FEF735F806465B
:10A9100004EB4401204A126802EB0111A1F82080E7
:10A9200004EB44011C4A126802EB0111CE6104EBF6
:10A930004402194B1B6803EB0212118C04EB440216
:10A94000154B1B6803EB0212D06900F0C1FB824675
:10A95000022104EB4400104A126802EB001001814E
:10A9600004EB44000C49096801EB0010456004EB5E
:10A9700044000949096801EB0010C7624A462946AC
:10A98000504600F0A7FA04EB4401034A126802EBB8
:10A990000111086000BFA2E74C0000202DE9F84338
:10A9A00005460E461746984600241AE004EB44007C
:10A9B0001249096801EB0010008900B912E004EBAC
:10A9C00044000E49096801EB00100089012800D1FC
:10A9D00008E0601C80B20446142802DB0020BDE8B9
:10A9E000F883E3E700BFE0B23B4632462946CDF8A4
:10A9F0000080FFF76BFF0120F1E700004C00002012
:10AA000010B5154A127802EB4202144B1B6803EB97
:10AA100002129062104A127802EB42020F4B1B683E
:10AA200003EB021282F8231000220B4B1B7803EB7E
:10AA300043030A4C246804EB031383F82420002307
:10AA4000054A127802EB4202044C246804EB02121D
:10AA500082F8253010BD0000480000204C00002086
:10AA600010B504461348407801281FD00020124931
:10AA7000097801EB4101114A126802EB011188616A
:10AA80000D48007800EB40000C49096801EB00100C
:10AA9000446110210848007800EB4000074A126822
:10AAA00002EB0010018100F0C3FA02E02046FBF740
:10AAB000E4F910BD40000020480000204C000020B8
:10AAC00010B50446142C01DB002010BD04EB44003B
:10AAD0001E49096801EB00100089012801D10020FE
