:020000040800F2
:10000000483B00200101000895140008D50F0008A6
:10001000F91300084F0700087D22000800000000C7
:10002000000000000000000000000000451600086D
:10003000E10800080000000097140008731700088A
:100040001B0100081B0100081B0100081B01000820
:100050001B0100081B0100081B0100081B01000810
:100060001B0100081B0100081B0100081B01000800
:100070001B0100081B0100081B0100081B010008F0
:100080001B0100081B0100081B0100081B010008E0
:100090001B0100081B0100081B0100081B010008D0
:1000A0001B0100081B0100081B0100081B010008C0
:1000B0001B0100081B010008000000001B010008D4
:1000C0001B01000800000000000000001B010008E8
:1000D000000000001D2100087D2100080000000034
:1000E0001B0100081B01000871220008DFF80CD07A
:1000F00000F0C4FA00480047812B0008483B00206C
:100100000648804706480047FEE7FEE7FEE7FEE7B1
:10011000FEE7FEE7FEE7FEE7FEE7FEE7D51700088D
:10012000ED0000082DE9FE4F804681EA0300C00F74
:100130000C46009021F0004123F00045B8EB02008E
:10014000A94105D24046214690461C460B46024630
:1001500023F00040104347D0270DC7F30A00C3F334
:100160000A510290401A019040286BDAC3F3130041
:1001700040F4801B0098924620B10023D2EB030A82
:1001800063EB0B0B01985946C0F14002504600F05A
:10019000B7F906460D4650465946019A00F0CFF988
:1001A00010EB08006141002487EA115284EAE773EA
:1001B0001A4340D0009A62B3019A012A4FEA0752CB
:1001C00015DC001B61EB02014FF0004202EA07520E
:1001D000CDE90042001C41F5801132462B4600F06B
:1001E000CFF903B0BDE8F08F40462146F9E7001B88
:1001F00061EB0201001C41F5801300185B412018DF
:10020000A2F5001747EB030140EAD570B6196D411E
:1002100011E06D084FEA360645EAC0754FEA07520D
:10022000001B61EB0201001C41F5801149084FEAF7
:1002300030000019514132462B4603B0BDE8F04F63
:1002400000F08FB90098012240000023D0EB020299
:1002500063EBE073009821464FEAE074B8EB0000CE
:1002600061EB0401E9E783F000435BE781F00041C3
:1002700058E72DE9FE4F81EA030404F0004421F021
:10028000004100944FF0000B23F0004350EA0104BA
:100290005ED052EA03045BD0C3F30A54C1F30A559B
:1002A0002C44A4F2F3340194A0FB0254C1F31301D3
:1002B00041F48011C3F3130343F4801301FB0244A0
:1002C00000FB034E840A970A44EA815447EA8357A5
:1002D000A4FB076802958D0A05FB07854FEA932C5E
:1002E00004FB0C542705029D4FEA065847EA1637CF
:1002F000B5EB08056EEB070C870E920E47EA8117E7
:1003000042EA8312A7FB0201B6EB0B0164EB000487
:100310002B0D43EA0C335E1844EB1C50DA46514671
:10032000E7FB0201C5F313044FEA0B3343EA14530E
:100330004FEA0432019C43EA0603A4F10C04029440
:10034000009CCDE900B400F01BF903B0BDE8F08FCC
:1003500000200146F9E72DE9F04D81EA030404F09D
:10036000004B21F0004514464FF0000A23F00041F5
:1003700050EA050220D054EA01021DD0C5F30A5705
:100380000246C5F31303C1F31300C1F30A5640F448
:10039000801543F48013A7EB0608101BD64608F21D
:1003A000FD3873EB050002D308F1010801E0921853
:1003B0005B41B8F1000F03DA00200146BDE8F08D83
:1003C00000204FF48011064684460EE0171B73EBA5
:1003D000050705D3121B63EB050306434CEA010C2A
:1003E00049084FEA300092185B4150EA0107EDD10D
:1003F00052EA030012D082EA040083EA05010843AE
:1004000005D0101BAB4106D20122002306E00022DA
:100410004FF0004302E06FF0010253101AEB0600A8
:100420004CEB085110EB0A0041EB0B01BDE8F04D1D
:1004300000F097B870B5C1F30A5201F000450024EE
:10044000C1F3130140F2FF3341F480119A4201DA03
:10045000002070BD40F233439A42A2F2334203DCE3
:10046000524200F05CF800E090402C43F1D0404252
:1004700070BD30B50B46014600202022012409E062
:1004800021FA02F59D4205D303FA02F5491B04FA4D
:1004900002F52844151EA2F10102F1DC30BD2DE960
:1004A000F05F0546002092469B46884606468146F8
:1004B00040241BE0284641464746224600F02FF8DC
:1004C00053465A46C01A914110D311461846224647
:1004D00000F016F82D1A67EB01084F46224601205E
:1004E000002100F00DF817EB00094E41201EA4F189
:1004F0000104DFDC484631462A464346BDE8F09F0A
:10050000202A04DB203A00FA02F1002070479140D3
:10051000C2F1200320FA03F3194390407047202AC8
:1005200004DB203A21FA02F00021704721FA02F39D
:10053000D040C2F120029140084319467047202A5A
:1005400006DBCB17203A41FA02F043EAE07306E0FB
:1005500041FA02F3D040C2F120029140084319460B
:10056000704710B5141E73F1000408DA401C41F105
:10057000000192185B411A4301D120F0010010BD27
:100580002DE9F04D92469B4611B1B1FA81F202E09D
:10059000B0FA80F220329046FFF7B2FF04460F46D1
:1005A00040EA0A0041EA0B0153465A46084313D079
:1005B000114653EA010019D0C8F140025046FFF736
:1005C000AEFF05460E46504659464246FFF798FF95
:1005D000084305D0012004E020463946BDE8F08DEF
:1005E0000020054346EAE0762C4337430A9863052A
:1005F000E40AA0EB08000022FD0A44EA47540A304E
:1006000002D500200146E9E7010510196941DDE93D
:10061000084500196941BDE8F04DA2E7C1F30A524F
:10062000C1F3130140F2FF3341F480119A4202DA20
:1006300000200146704740F233439A42A2F233420F
:1006400002DC5242FFF76BBFFFF75ABF30B5041E02
:1006500071F1000404DB4FF00044404264EB0101FF
:10066000141E73F1000405DB1C464FF00043524298
:1006700063EB0403994208BF904230BD064C074D1E
:1006800006E0E06840F0010394E807009847103462
:10069000AC42F6D3FFF72EFDFCFD00081CFE00085F
:1006A00082B02DE9FF1FEFF3038001B4684600F12B
:1006B000400000E901400C480168C1F800D00B4837
:1006C000D0F800D001BC80F30388BDE8FF1F01B063
:1006D00000BD0648D0F800D001BC80F30388BDE817
:1006E000FF1F01B000BD00001C000020180000200A
:1006F00070B50C210D4801F0AFF904460C4E3046A0
:1007000005884FF6FF70854207D100F073FC214643
:10071000304600F067FC00F061FC05480588A54202
:1007200001D0002070BD0120FCE70000E8F7FF1FAA
:10073000CC2B000806E04FF47A7100BF0A1EA1F12D
:100740000101FBD1021EA0F10100F4D1704700BFEE
:10075000FEE700000FB42DE9F04186B00025012628
:100760000027B00200F070FE044654480078FF28CD
:1007700001D1012000E0002050490978504A127848
:10078000914201D1012100E00021084300287DD0E1
:100790000DA805902046059A0C9901F071FD0020E6
:1007A00005900DA8059069460C9800F0C7FB064619
:1007B0002AE02846691CCDB21DF80000012804D0AB
:1007C000022806D003281AD115E0059880C80590A4
:1007D00019E00598C01D20F007000590D0E9002120
:1007E000DDF814C00CF1080C1046CDF814C0FFF76A
:1007F00021FE074607E0059880C8059003E00598AC
:1008000080C8059000BF00BF301EA6F10106D0D100
:10081000059880C80590002005902A480078FF2898
:1008200001D1012000E0002026490978B94201DB0E
:10083000012100E00021084340B3214622A000F03E
:1008400077FF2248007800F0020068B1204908785C
:1008500000F096F940B1204600F0B0FB80464246D9
:1008600021461C4801F0F3FC1848007800F0040011
:1008700078B11749487800F083F950B1204600F06C
:100880009DFB804642462146134800E00EE001F001
:10089000DEFC1248006848B1204600F08FFB00F0F3
:1008A000FF08414620460D4A12689047204600F056
:1008B000A5FD06B0BDE8F0015DF814FB5400002072
:1008C00028000020560000200D0A000055000020DE
:1008D000000000200038014000440040500000208B
:1008E0007047000010B500201A4908704FF4A0703E
:1008F00000F0AAFD18490860002406E0FF2017490F
:10090000085517490855601CC4B2052CF6DB0024B5
:100910001DE000201049096801EB441148610320E3
:100920000D49096801EB4411087200200A49096861
:1009300001EB441108610849096801EB4411C860E2
:100940000549096801EB44118861601CC4B20A2C96
:10095000DFDB10BD4000002044000020000000202C
:10096000050000202C4909782C4A11702A49097881
:10097000491C294A117029490978294A1268274BCC
:100980001B7802EB4312117126A1254A1268234BF2
:100990001B7802EB431211600021214A12681F4BA1
:1009A0001B7802EB4312517102221D4909681B4B4F
:1009B0001B7801EB4311CA71012219490968174BD1
:1009C0001B7801EB43110A721849154A1268134B40
:1009D0001B7802EB43125161114909680F4A1278E2
:1009E00001EB4211C86100220D4909680B4B1B78CD
:1009F00001EB4311CA600021094A1268074B1B78BA
:100A000002EB43121161002205490968034B1B7870
:100A100001EB43118A617047400000201400002060
:100A2000440000204750494F00000000C90D000855
:100A300020480078204908701E480078401C1D4955
:100A400008701EA01E4909681B4A127801EB42116A
:100A5000086000201A490968174A127801EB421110
:100A60004871032016490968134A127801EB4211B4
:100A7000C8710121124800680F4A127800EB421039
:100A8000017210480E4909680B4A127801EB4211B5
:100A9000486100200A490968074A127801EB4211AF
:100AA000C86107490968044A127801EB421188615C
:100AB0007047000040000020580000204C434400D4
:100AC00044000020ED14000810B5032124A0FFF716
:100AD00041FE002441E02948006800EB44104069D1
:100AE000C8B32648006800EB4410C079012806D03E
:100AF000022817D003280ED004282BD11EE01F4A4D
:100B0000126802EB4412107F1C4A126802EB441276
:100B1000516988471EE01949096801EB4411486989
:100B2000804717E0154A126802EB4412D069134A55
:100B3000126802EB4412516988470BE00F4A1268B1
:100B400002EB4412D0690D4A126802EB441251695B
:100B5000884700BF00BF601CC4B20A2CBBDB10BDBD
:100B6000546F732044657669636520496E69742EFD
:100B70002E2E2E2E2E2E2E2E2E0000004400002073
:100B80000146FF2901D1002070470548006800EBAD
:100B90004110406908B90020F6E70120F4E70000A1
:100BA000440000200149086070470000140401401F
:100BB00004200B49C96801F0010109B101200EE0D0
:100BC0000749C96801F0040109B1022007E004499E
:100BD000C96801F0100109B1032000E0042070474A
:100BE000002002400348006940F08000014908618C
:100BF000704700000020024070B504460D460426F0
:100C0000F00200F025F80646042E11D109480069CB
:100C100040F00100074908612580F00200F018F853
:100C200006460448006941F6FE7108400149086122
:100C3000304670BD00200240024803494860034826
:100C4000486070472301674500200240AB89EFCD23
:100C500000B502460423FFF7ABFF034603E0FFF7AE
:100C6000A7FF0346521E012B01D1002AF7D102B97A
:100C70000523184600BD70B504460025107820B144
:100C800016782068B0FBF6F085B220680844206032
:100C90001078984203DA1078401C107002E0206847
:100CA000401B206016782068B0FBF6F080B270BD63
:100CB0002DE9F041024600250026002000230024F3
:100CC000002791F803C00CF00F0591F803C00CF059
:100CD000100CBCF1000F03D091F802C04CEA0505DE
:100CE00091F800C0BCF1000F31D0146800202BE057
:100CF0004FF0010C0CFA00F3B1F800C00CEA030647
:100D00009E4220D183004FF00F0C0CFA03F7BC4336
:100D100005FA03FC4CEA040491F803C0BCF1280F67
:100D200006D14FF0010C0CFA00FCC2F814C00AE026
:100D300091F803C0BCF1480F05D14FF0010C0CFA3B
:100D400000FCC2F810C0401C0828D1D31460B1F8D0
:100D500000C0BCF1FF0F34DD546800202EE000F12C
:100D6000080C4FF0010808FA0CF3B1F800C00CEAC7
:100D700003069E4221D183004FF00F0C0CFA03F7BB
:100D8000BC4305FA03FC4CEA040491F803C0BCF12F
:100D9000280F05D100F1080C08FA0CF8C2F81480ED
:100DA00091F803C0BCF1480F07D100F1080C4FF0D7
:100DB000010808FA0CF8C2F81080401C0828CED3AD
:100DC0005460BDE8F081000038B50446002536E0E7
:100DD0001D4A6068811A904217D009DC1B490844FB
:100DE00068B1B0F5806F0CD0B0F5006F13D10AE098
:100DF000B1F5806F0BD0B1F5006F0CD109E004257F
:100E000009E0082507E0102505E0202503E040253E
:100E100001E0802500BF00BF45F00100012100F086
:100E20003BFB20788DF802002089ADF80000607847
:100E30008DF8030069466068FFF73AFF0C342078AC
:100E40000028C5D138BD00000014014000F8FEBFE5
:100E5000F0B50A46002300240021002500F00046DA
:100E6000B6F1004F02D11D4EF16901E01B4E7168D1
:100E7000C0F3034583B200F44016B6F5401F08D115
:100E800021F07061154E766826F07066134F7E6013
:100E900012E000F48016B6F5801F06D1032606FA8C
:100EA00005F4A14341F0706106E0460D360103FAF6
:100EB00006F6B14341F0706122B1460D360103FAE6
:100EC00006F6314300F00046B6F1004F02D1034E62
:100ED000F16101E0014E7160F0BD000000000140D1
:100EE000416170471FB51C462CB1BDF80810019830
:100EF00000F007F804E0BDF808100198FFF7F0FFD4
:100F00001FBD0161704700002DE9F04104460D4608
:100F1000084800680849097800EB4110C66904EBED
:100F2000440006EB80072B4697E80700FFF7DAFF3F
:100F3000BDE8F0814400002014000020F0B5044614
:100F40000A46002300200025214633E00E78252E96
:100F500002D10125461CB0B2012D2AD10E78642E93
:100F600006D1AC461E465F1CBBB202F806C0002587
:100F70000E78662E07D14FF0020C1E465F1CBBB2E6
:100F800002F806C000250E78732E07D14FF0030C2F
:100F90001E465F1CBBB202F806C000250E78632E09
:100FA00007D14FF0040C1E465F1CBBB202F806C00E
:100FB0000025491C0E78002EC8D1F0BD10B50146A1
:100FC00000200A4601E0431C98B212F8014B002CA5
:100FD000F9D110BD01E000F0FBF9FCE710B5FFF717
:100FE00001FE10BD70B504460D4629462046FFF7A8
:100FF00003FE70BD10B5FFF71FFE10BD10B545F222
:10100000555000F029F8062000F01AF84FF47F60E0
:1010100000F01CF800F00CF800F002F810BD000021
:101020004CF6CC4001490860704700000030004099
:101030004AF6AA20014908607047000000300040CD
:101040000149486070470000003000400149886055
:101050007047000000300040014908607047000000
:101060000030004010B54FF480618248FFF749FF1F
:1010700001218048FFF734FF642000F09DFE01212C
:101080007C48FFF73EFF642000F096FE10217A486E
:10109000FFF726FF012000F08FFE112000F090F9ED
:1010A000642000F089FE212000F08AF9212000F060
:1010B00087F9B12000F084F9052000F07AF93A2090
:1010C00000F077F93A2000F074F9B22000F078F9D6
:1010D000052000F06EF93A2000F06BF93A2000F09C
:1010E00068F9B32000F06CF9052000F062F93A20AD
:1010F00000F05FF93A2000F05CF9052000F059F9A2
:101100003A2000F056F93A2000F053F9B42000F0EC
:1011100057F9032000F04DF9C02000F051F962208A
:1011200000F047F9022000F044F9042000F041F9F2
:10113000C12000F045F9C02000F03BF9C22000F0CA
:101140003FF90D2000F035F9002000F032F9C320FE
:1011500000F036F98D2000F02CF96A2000F029F912
:10116000C42000F02DF98D2000F023F9EE2000F0CE
:1011700020F9C52000F024F90E2000F01AF9E02033
:1011800000F01EF9102000F014F90E2000F011F903
:10119000022000F00EF9032000F00BF90E2000F001
:1011A00008F9072000F005F9022000F002F90720F5
:1011B00000F0FFF80A2000F0FCF8122000F0F9F827
:1011C000272000F0F6F8372000F0F3F8002000F0B8
:1011D000F0F80D2000F0EDF80E2000F0EAF81020F5
:1011E00000F0E7F8E12000F0EBF8102000F0E1F863
:1011F0000E2000F0DEF8032000F0DBF8032000F002
:10120000D8F80F2000F0D5F8062000F0D2F8022020
:1012100000F0CFF8082000F0CCF80A2000F0C9F860
:10122000132000F0C6F8262000F0C3F8362000F0A6
:10123000C0F8002000F0BDF80D2000F0BAF80E2034
:1012400000F0B7F8102000F0B4F83A2000F0B8F839
:10125000052000F0AEF8362000F0B2F8A82000F02B
:10126000A8F8292000F0ACF810210348FFF749FE48
:1012700010BD0000000C01400008014070B504469C
:1012800010210F48FFF72CFE4F239F220021084614
:1012900000F060F82C2000F093F802210948FFF7D5
:1012A00030FE082502E0084884816D1C46F20840A3
:1012B0008542F8D310210248FFF723FE70BD0000DD
:1012C00000080140000C0140003001402DE9F047CA
:1012D00007468846144610211B48FFF701FEE078B8
:1012E000A17840EA01266079217940EA012508EBDE
:1012F0000500401E83B2B819401E82B241463846EE
:1013000000F028F82C2000F05BF802210F48FFF7CE
:10131000F8FD6E4308250DE028466D1C14F800907A
:101320000B48A0F80C9028466D1C14F80090084853
:10133000A0F80C90301EA6F10106EDD11021024854
:10134000FFF7DFFDBDE8F08700080140000C014019
:10135000003001402DE9F04104460D4616461F4677
:101360002A2000F02DF8002000F023F8611CC8B2FC
:1013700000F01FF8002000F01CF8711CC8B200F04B
:1013800018F82B2000F01CF8002000F012F805F1EE
:101390001A01C8B200F00DF8002000F00AF807F1B9
:1013A0001A01C8B200F005F82C2000F009F8BDE8D9
:1013B000F08110B504460021204600F01FF910BD51
:1013C00010B504460121204600F018F910BD0000B8
:1013D00071B600BF0648006800F4E06005490843A4
:1013E000001D03490860BFF34F8F00BF00BFFEE739
:1013F0000CED00E00000FA0500BFFEE702460A4BD4
:101400001868002106E0A2F10803834200D107E03A
:10141000014600680368002BF5D101B10B607047ED
:1014200003680B6000BFFAE7480000200549086028
:101430000021044A126811600821024A12685160B2
:10144000704700004800002010B5034610480168AE
:1014500003F1080083B20FE00868401A4C68001BD3
:10146000984208D3486842185360086810600A60C0
:1014700002F1080010BD096808680028ECD148682E
:1014800042180020106053600A6002F10800F1E782
:10149000480000207047704729B1064A926902430C
:1014A000044B9A6104E0034A92698243014B9A61BA
:1014B000704700000010024010B501210148FFF7FD
:1014C000C7FC10BD0002300021B1028842F040028A
:1014D000028004E002884FF6BF731A400280704712
:1014E00000BF011EA0F10100FBD1704700B587B01D
:1014F000012141F20400FFF7CFFF0121214800F054
:1015000070F8B020ADF8040018208DF80700032013
:101510008DF8060001A91C48FFF7CAFB40F2034002
:10152000ADF8040010208DF8070003208DF80600A8
:1015300001A91648FFF7BCFB0020ADF808004FF4E6
:101540008270ADF80A000020ADF80C000220ADF862
:101550000E000120ADF810004002ADF8120000208E
:10156000ADF81400ADF816000720ADF8180002A978
:10157000044800F018F801210248FFF7A5FF07B062
:1015800000BD00000030014000080140000C014097
:101590000246002013890B400BB1012000E000201F
:1015A00070478181704710B50022028802F44152D1
:1015B0000B884C8823438C882343CC8823430C8995
:1015C00023434C8923438C892343CC8923431A43E7
:1015D0000280838B4FF2FF74234083830B8A038244
:1015E00010BD21B1828842F00402828004E082882A
:1015F0004FF6FB731A4082807047000070B50446B6
:101600000D4625B102210D48FFF76AFC03E00221D7
:101610000A48FFF776FC0A20FFF762FF00BF0221AD
:101620000748FFF7B5FF0028F9D021460448FFF727
:10163000B8FF0A20FFF754FF70BD0000000C014006
:1016400000300140704710B500F002F810BD0000F6
:101650000CB50020019000903348006840F48030C1
:101660003149086000BF3048006800F40030009045
:101670000198401C0190009818B90198B0F5A06F2E
:10168000F1D12948006800F4003010B10120009029
:1016900001E0002000900098012843D12348006811
:1016A00040F01000214908600846006820F003005F
:1016B00008600846006840F0020008601A48406868
:1016C000194948600846406848600846406840F448
:1016D000806048600846406820F47C1048600846F6
:1016E000406840F4E81048600846006840F08070A8
:1016F000086000BF0C48006800F000700028F9D0B6
:101700000948406820F003000749486008464068DF
:1017100040F00200486000BF0348406800F00C0041
:101720000828F9D10CBD0000001002400020024042
:101730002DE9F04106460D462C4637462846FFF770
:101740003DFC04443046FFF739FC804608F10100B7
:1017500008B9BDE8F08103E017F8010B04F8010BAC
:10176000B8F10000A8F10108F6D104F8010B00BFA0
:10177000EFE710B500F062FA10BD000030B5124975
:10178000B1F1807F00D31DE021F07F40401E4FF07B
:10179000E022506150170F22002807DA13071D0EB0
:1017A0000A4B00F00F04241F1D5503E013071C0E05
:1017B000074B1C5400BF00204FF0E022906107202F
:1017C000106100BF30BD00004019010018ED00E0BD
:1017D00000E400E010B51348006840F00100114932
:1017E000086008464068104908400E4948600846AD
:1017F00000680E4908400B4908600846006820F45C
:10180000802008600846406820F4FE0048604FF4DD
:101810001F008860FFF717FF4FF000600449086061
:1018200010BD0000001002400000FFF8FFFFF6FEB0
:1018300008ED00E0FFF740FEFFF714FCFF20FFF784
:101840001DFD0DE0074A21210020FFF73FFD054A5D
:1018500021210020FFF73AFD41F2883000F0ACFA78
:10186000F0E70000D89100080DE0022000F0A4FA93
:1018700001210020FFF748FB642000F09DFA0021C1
:101880000846FFF741FBF0E734E01B4A02218220C3
:10189000FFF71CFDC82000F08FFA184A02218220B1
:1018A000FFF714FD4FF4967000F086FA144A0221F7
:1018B0008220FFF70BFD4FF4967000F07DFA114A7D
:1018C00002218220FFF702FD4FF4967000F074FAB7
:1018D0000D4A02218220FFF7F9FC4FF4967000F0C8
:1018E0006BFA0A4A02218220FFF7F0FC4FF496704F
:1018F00000F062FAC9E7000082A1000848A40008CD
:101900000EA70008D4A900089AAC000860AF000830
:101910001BE0002409E00A2000F04EFA0B4A1B21CC
:101920002046FFF7D3FC601CC4B2852CF3DB852472
:1019300009E00A2000F040FA044A1B212046FFF784
:10194000C5FC601EC4B2002CF3DCE2E7209800085E
:101950004FF42F7000F030FA61E0314A2D21002061
:10196000FFF7B4FC002427E0042000F025FA2D4AFC
:1019700027212046FFF7AAFC0C2C03D14FF42F702F
:1019800000F01AFA2A2C03D14FF42F7000F014FA49
:10199000482C03D14FF42F7000F00EFA662C03D1BF
:1019A0004FF42F7000F008FA842C03D14FF42F70FD
:1019B00000F002FA601CC4B2962CD5DB1A4A2D2125
:1019C0000020FFF783FC962427E0042000F0F4F9C0
:1019D000144A27212046FFF779FC0C2C03D14FF441
:1019E0002F7000F0E9F92A2C03D14FF42F7000F08A
:1019F000E3F9482C03D14FF42F7000F0DDF9662C89
:101A000003D14FF42F7000F0D7F9842C03D14FF499
:101A10002F7000F0D1F9601EC4B2002CD5DC9CE719
:101A200026B200086C990008AED700080FE06420C9
:101A300000F0C2F9064A00210846FFF747FC64207F
:101A400000F0BAF9034A00210846FFF73FFCEEE731
:101A5000E2990008B29D0008F0B502460C46FF214D
:101A6000FF2500260BE012F8017B87EA0503084FEB
:101A7000FF5C87EA0105074FF95C771CBEB2A642FE
:101A8000F1DB08464FF6FF7707EA00202843F0BD58
:101A9000CE2B0008CE2C000810B510480078132873
:101AA00004D00F480078401C0D4908700D4800789C
:101AB000401C0C4908700846007864280DDD0020A1
:101AC00008701423084A064801780848FFF7D3F83D
:101AD0000749087000200249087010BD2800002046
:101AE0003C00002034000020350000203800002099
:101AF0002000002010B54FF47070FFF7A5FC1E49C0
:101B0000086002201D49487000204860002428E039
:101B1000012004EB4401184A126802EB011108810C
:101B2000002004EB4401144A126802EB01118861A1
:101B3000002104EB4400104A126802EB001001601F
:101B4000002004EB44010C4A126802EB0111C86149
:101B500004EB4401084A126802EB01110884601C7E
:101B6000C4B2142CD4DB13200549087000200549A9
:101B700008600549086010BD2C00002020000020EE
:101B800028000020300000204C00002070B50446E2
:101B9000FFF7B0FF04E094E80F0000F0DBF810342A
:101BA00020680028F7D100F031F870BD10B5044668
:101BB000FEF78AFFFFF722FAFEF79AFD00B910BD83
:101BC00006E0FFF735FA642000F0F6F800F002F8BE
:101BD000F7E7000010B50C48046804B910BD0EE02A
:101BE0002468A07A00F0010048B1A07A00F0020059
:101BF00028B1E0688047A07A20F00200A072206837
:101C00000028EDD100BFE9E74C00002008B5FFF740
:101C1000B5FD4FF4FA6005A3002207490090132098
:101C200000F030F8132000F0B9F908BD5461736B6F
:101C3000526F6F7400000000AD1B000810B5FFF775
:101C40002BFF00F0E9F808484078402805D103212F
:101C500006A0FEF77FFDFFF7BBFB0948006808B14F
:101C600000F032FA10BD000020000020544F532035
:101C700054696D654F75742052657365740000007A
:101C80004C0000202DE9F04704460D4691461F46C2
:101C9000DDF820800DB9BDE8F08704EB44002C4945
:101CA000096801EB00100089012800D0F3E704EB7C
:101CB00044002749096801EB0010008C98B91FFA0D
:101CC00088F0FFF7C1FB064604EB4401204A126886
:101CD00002EB0111A1F8208004EB44011C4A1268B8
:101CE00002EB0111CE6104EB4402194B1B6803EBBC
:101CF0000212118C04EB4402154B1B6803EB021219
:101D0000D06900F0ADF98246022104EB4400104A8C
:101D1000126802EB0010018104EB44000C490968D1
:101D200001EB0010456004EB44000949096801EB30
:101D30000010C7624A462946504600F0F7F804EB07
:101D40004401034A126802EB0111086000BFA2E7D8
:101D50002C0000202DE9F84305460E46174698460C
:101D600000241AE004EB44001249096801EB00105A
:101D7000008900B912E004EB44000E49096801EB48
:101D800000100089012800D108E0601C80B20446E0
:101D9000142802DB0020BDE8F883E3E700BFE0B2CF
:101DA0003B4632462946CDF80080FFF76BFF012005
:101DB000F1E700002C00002010B5044613484078DD
:101DC00001281FD000201249097801EB4101114A76
:101DD000126802EB011188610D48007800EB4000A9
:101DE0000C49096801EB0010446110210848007893
:101DF00000EB4000074A126802EB0010018100F07E
:101E0000DFF802E02046FEF795FC10BD2000002020
:101E1000280000202C000020002056E000EB4001AC
:101E20002B4A126802EB01110989022902D01029FC
:101E300047D11DE000EB4001254A126802EB011179
:101E40008969491C00EB4002214B1B6803EB02121D
:101E5000916100EB40011E4A126802EB0111896991
:101E600044F62062914202D940211A4A517029E079
:101E7000002100EB4002164B1B6803EB021291613C
:101E800000EB4001124A126802EB0111496941B9A5
:101E9000022100EB40020E4B1B6803EB0212118182
:101EA0000EE000EB40010A4A126802EB0111496999
:101EB000491E00EB4002064B1B6803EB0212516106
:101EC00000E000BF00BF411CC8B21428A6DB704769
:101ED0002C0000202000002010B504460F48007898
:101EE000A04200D110BD0D48007800EB40000C4925
:101EF000096801EB00100B4908600848047000787D
:101F000000EB40000649096801EB00100068064933
:101F10000860FEF7C5FB00BFE4E7000028000020D2
:101F20002C0000201C0000201800002030B50346C3
:101F30001846041F20462160041F20462360002508
:101F4000041F20462560041F20462560041F2046EC
:101F50002560041F20462560041F20462560041FBD
:101F600020462560041F20462560041F204625606A
:101F7000041F20462560041F20462560041F2046BC
:101F80002560041F20462560041F204622604FF074
:101F90008075041F2046256030BD000010B5044642
:101FA00004EB44000449096801EB00100068034990
:101FB0000860FEF78EFB10BD2C00002018000020EA
:101FC00010B5022123480068A0F8981300243DE0D2
:101FD00004EB44001F49096801EB00100089022846
:101FE00002D020282ED107E01B480078A04202D062
:101FF0002046FFF771FF10BD04EB44001549096846
:1020000001EB001090F822001449096801EB401020
:10201000007A012815D1102004EB44010D4A126802
:1020200002EB01110881032004EB4401094A126804
:1020300002EB011191F82210084A126802EB4111DB
:10204000087200E000BF00BF601CC4B2142CBFDBEC
:1020500000BFD0E72C000020280000204400002012
:102060000246501820F00303A3F1300020F00700CF
:102070007047000010B5142800DB10BD00EB4002D3
:10208000104B1B6803EB02121289042A00D1F4E7FB
:10209000002200EB40030B4C246804EB03139A610D
:1020A000102300EB4002074C246804EB021213815A
:1020B00000EB4002034B1B6803EB0212516100BFAF
:1020C000DBE700002C00002010B51348006800B9C1
:1020D00010BD11480068E0B10F480068807A00F038
:1020E0000100B0B10C48006800890B490968898873
:1020F000884207DB08490968C8688047002006490C
:1021000009680881044800680089401C0249096880
:10211000088100BFDCE700004C00002010B540F251
:102120002551114800F069F8C0B10F48001D008822
:10213000C4B20E4800880E490988884213DA0B4859
:1021400001880088401C094A10800A4800684454ED
:10215000094908780A21FFF78DFF04E040F2255174
:10216000014800F03BF810BD003801408E0000200F
:10217000840000205C0000200F00002010B540F219
:102180002551114800F039F8C0B10F48001D0088F2
:10219000C4B20E4840880E494988884213DA0B4879
:1021A00041884088401C094A50800A48406844548D
:1021B000094948780A21FFF75DFF04E040F2255104
:1021C000014800F00BF810BD004400408E000020D4
:1021D000840000205C0000200F00002010B50022C9
:1021E000002340F66A14A14200D100BF0A12012464
:1021F0009440A3B2DC43048010BD70B502460024B5
:1022000000230025002040F66A16B14200D100BF2D
:10221000C1F3421501F01F03012606FA03F3012D55
:1022200002D19689334006E0022D02D1168A33404E
:1022300001E0968A33400C12012606FA04F416884F
:10224000344013B10CB1012000E0002070BD10B586
:102250000B46002109E000BF048804F08004002C34
:10226000FAD05C5C84804C1CA1B29142F3DB10BDBF
:1022700010B54FF48020FEF795FC10BD00BFFEE7BF
:1022800037B514460846064B6A46214600F0DCF88E
:1022900004466946002000F06EFC20463EBD00006A
:1022A000772B000802E008C8121F08C1002AFAD1E3
:1022B00070477047002001E001C1121F002AFBD1C6
:1022C000704700002DE9FF5F82B00021DDE9043096
:1022D000020DDDF840B0034318D044F61050A2F2CE
:1022E000FF3242431514119801281FD0A5EB0B00B3
:1022F000401C5FEA000A4FF000064E4FDFF83891AD
:10230000B046504615D5CAF1000413E011980124D7
:102310004AA3012801D16FEA0B010298119AC0E982
:102320000031C0E9024206B0BDE8F09FCBF10000E9
:10233000DFE704460021404A491842EB0450CDE94A
:10234000001012E0E00707D032463B4640464946BF
:10235000FDF78FFF8046894632463B4610461946B8
:10236000FDF787FF06460F466410002CEAD1DDE931
:102370000401DDE90023BAF1000F06DAFDF779FF69
:1023800042464B46FDF775FF05E0FDF7E4FF424688
:102390004B46FDF7E0FF04460E460022284BFEF7B1
:1023A00055F903D84FF0FF30014607E00022254BD6
:1023B00020463146FDF7B6FEFEF730F9102409E05D
:1023C000002C0ADB0A220023FEF769F8039B303257
:1023D0001A55641E50EA0102F2D1641C039AC4F13A
:1023E00011031444119A012A03D0012208430DD18C
:1023F0000AE0084304D000204FF0110B119072E75F
:10240000A3EB0B056D1E0DE05B4504DD4FF00002F4
:1024100005F1010504E003DA4FF00002A5F1010522
:10242000002AECD002981199C0E90231C0E90045B8
:1024300079E70000000014400000F03F3000000089
:102440000000F0430000E03F2DE9FF4F95B09B46B0
:102450008946064600250FE2252877D10024274625
:10246000F84A0121059400E0044316F8013F203B9F
:1024700001FA03F01042F7D130782A2811D06FF01A
:102480002F033078A0F13002092A16D8059A44F0BB
:10249000020402EB820203EB42021044761C059018
:1024A000EFE759F8042B0592002A03DA504244F46E
:1024B0000054059044F00204761C30782E2816D182
:1024C00016F8010F44F004042A280DD06FF02F02F3
:1024D0003078A0F13003092B09D807EB870302EB12
:1024E0004303C718761CF3E759F8047B761C307851
:1024F0006C280FD006DC4C2817D068280DD06A282D
:1025000014D104E0742810D07A280FD10DE044F4DF
:1025100000140AE044F4801401E044F4401472789A
:10252000824202D104F58014761C761C307866282D
:102530000BD013DC582877D009DC002875D045284B
:10254000F6D04628F4D047281AD19DE118E0632838
:1025500035D0642879D0652812D195E1702873D0E0
:1025600008DC6728F1D069286FD06E280DD06F285D
:1025700006D1B5E073282CD0752875D0782874D092
:102580005A46179990476D1C75E1C4F30250022812
:1025900009D003280DD0D9F8001004280DD00D6003
:1025A00009F1040967E1D9F80010EA17C1E90052FE
:1025B000F6E7D9F800100D80F2E70D70F0E719F892
:1025C000041B8DF8001000208DF80100EA46012060
:1025D00003E059F804AB4FF0FF3061074FF0000102
:1025E00002D40DE008F101018846B9420FDA8045B6
:1025F000F8DB1AF808100029F4D108E008F101010D
:1026000088468142FADB1AF808100029F6D10598AD
:102610005B46A0EB080721463846179A00F094FA6B
:10262000284400EB080507E04DE029E10DE01AF829
:10263000010B5A4617999047B8F10108F7D25B464B
:1026400021463846179A13E142E00A220092C4F369
:1026500002524FF0000A022A08D059F804CB032A8C
:102660004FEAEC710AD00DE029E02AE009F10701F8
:1026700021F00702F2E802C1914609E00FFA8CFC52
:102680004FEAEC71042A03D14FFA8CFC4FEAEC714B
:10269000002907DA0A460021DCF1000C61EB020197
:1026A0002D2202E0220504D52B228DF804200122E0
:1026B00003E0E20701D02022F7E7904659E00A2123
:1026C00002E010220DE010214FF0000A00910BE013
:1026D00010224FF0000A44F004040827009203E09F
:1026E00008224FF0000A0092C4F30252022A05D0D9
:1026F00059F804CB0021032A08D009E009F10701A9
:1027000021F00702F2E802C1914605E01FFA8CFCB5
:10271000042A01D10CF0FF0C4FF00008220728D545
:10272000702806D0009B83F0100353EA0A0305D0FB
:102730000EE040228DF80420012208E05CEA01024C
:1027400006D030228DF804208DF805000222904634
:10275000009B83F0080353EA0A030AD15CEA0102F2
:1027600001D1620705D530228DF804204FF0010811
:102770007F1E582804D034A003900EA802900DE0CC
:1027800036A0F9E753466046009AFDF788FE844676
:102790000398825C0298401E029002705CEA01007D
:1027A000F0D1029806A9081A00F1200A600702D5A4
:1027B00024F4803400E00127574502DDA7EB0A002E
:1027C00000E0002000EB0A01009005984144401A07
:1027D0000590E00306D45B462146179A059800F061
:1027E000B3F90544002706E001A85A46C05D1799D1
:1027F00090476D1C7F1C4745F6DBE0030CD55B461C
:102800002146179A059800F09FF9054404E030200E
:102810005A46179990476D1C0099481E0090002950
:10282000F5DC08E0029802995A460078491C0291AA
:10283000179990476D1CBAF10001AAF1010AF1DC69
:1028400065E1000009280100303132333435363774
:1028500038396162636465660000000030313233EC
:10286000343536373839414243444546000000008C
:1028700000F058F90544761C307800287FF4ECAD60
:1028800019B02846BDE8F08F620700D4062709F189
:10289000070222F0070CFCE80223E14603F000489F
:1028A0005FEA080C02D00FF2702C0DE05FEA045CC6
:1028B00002D50FF2682C07E05FEAC47C02D00FF269
:1028C000602C01E0AFF2700C4FF0FF3823F00043B2
:1028D000CDF850C065280CD006DC452809D0462824
:1028E0001DD047283DD13DE0662818D067287ED10D
:1028F00038E00021112F01DB112000E0781CCDE928
:10290000000106A90EA8FFF7DDFCDDE90F010E9A14
:1029100003910021009207F1010A04914DE04FF06C
:1029200000400097CDE9011006A90EA8FFF7CAFCE8
:10293000DDE90F0203920E9B11990022DDF80CA035
:102940000093049211B9791C00EB010AB7EB0A005D
:1029500004D4C0F1FF3007F1010A0490AAEB07008C
:10296000019044E0012F00DA01270021112F01DD41
:10297000112000E03846CDE9000106A90EA8FFF7B6
:10298000A1FCDDE90F010E9A039100210491009250
:10299000BA4621070CD40399514500DA8A46BAF1A8
:1029A000010F05DD009AAAF10101515C302908D020
:1029B000B84202DA10F1040F06DA0121CDE9011064
:1029C00015E0AAF10101E9E7002805DC04990144BA
:1029D0000491AAEB000102E0411C514500DD8A464A
:1029E0000499401A401C01904FF0004002902007CB
:1029F00004D40198504501DBCDF8048000208DF807
:102A00004F0002980DF14F07B0F1004F25D02B2059
:102A10000E9002984FF0020800280CDA4042029013
:102A20002D200E9007E00A210298FDF722FD30319B
:102A3000029007F8011DB8F10001A8F10108F2DCCD
:102A400002980028EFD1791E0E980870307800F0B7
:102A5000200040F0450007F8020D12A8C01B00F14D
:102A600007081498007800B1012000EB0A010198D2
:102A700001EBE07105984144401A401E0590E003C7
:102A800006D45B462146179A059800F05DF8054488
:102A90001498007818B15A46179990476D1CE003B6
:102AA00024D55B462146179A059800F04DF8054459
:102AB0001CE00498002807DBDDE90301884203DD00
:102AC0000098405C179901E0179930205A469047CA
:102AD000049805F10105401C04900198401E0190E6
:102AE00004D12E205A46179990476D1CBAF1000167
:102AF000AAF1010ADDDC05E017F8010B5A46179927
:102B000090476D1CB8F10001A8F10108F4DC5B46A8
:102B10002146179A0598ABE62D0000002B00000017
:102B2000200000002DE9F041044600251E4617460E
:102B3000880404D405E039462020B0476D1C641E8B
:102B4000F9D52846BDE8F0812DE9F041044600257D
:102B50001E469046C80301D5302700E02027880490
:102B600004D505E041463846B0476D1C641EF9D5D2
:102B70002846BDE8F0810A68531C0B60107070474E
:102B80000748FEF753FCFDF7ADFE0648FDF7EAFEE9
:102B9000FDF74EFF0448FEF7F9FF00BFFEE7000017
:102BA00098000020A8FD000838FD0008685551F481
:102BB0006662386B2324391F42446184B244133661
:102BC000198E50C6412529BB9E528748FFFF00C180
:102BD000814001C0804101C0804100C1814001C0ED
:102BE000804100C1814000C1814001C0804101C0DD
:102BF000804100C1814000C1814001C0804100C1CD
:102C0000814001C0804101C0804100C1814001C0BC
:102C1000804100C1814000C1814001C0804100C1AC
:102C2000814001C0804101C0804100C1814000C19C
:102C3000814001C0804101C0804100C1814001C08C
:102C4000804100C1814000C1814001C0804101C07C
:102C5000804100C1814000C1814001C0804100C16C
:102C6000814001C0804101C0804100C1814000C15C
:102C7000814001C0804101C0804100C1814001C04C
:102C8000804100C1814000C1814001C0804100C13C
:102C9000814001C0804101C0804100C1814001C02C
:102CA000804100C1814000C1814001C0804101C01C
:102CB000804100C1814000C1814001C0804100C10C
:102CC000814001C0804101C0804100C1814000C0FD
:102CD000C101C30302C2C60607C705C5C404CC0CA4
:102CE0000DCD0FCFCE0E0ACACB0BC90908C8D81814
:102CF00019D91BDBDA1A1EDEDF1FDD1D1CDC14D424
:102D0000D515D71716D6D21213D311D1D010F03053
:102D100031F133F3F23236F6F737F53534F43CFC63
:102D2000FD3DFF3F3EFEFA3A3BFB39F9F83828E813
:102D3000E929EB2B2AEAEE2E2FEF2DEDEC2CE424E3
:102D400025E527E7E62622E2E323E12120E0A06053
:102D500061A163A3A26266A6A767A56564A46CAC23
:102D6000AD6DAF6F6EAEAA6A6BAB69A9A86878B893
:102D7000B979BB7B7ABABE7E7FBF7DBDBC7CB474A3
:102D800075B577B7B67672B2B373B17170B0509053
:102D900091519353529296565797559594549C5CE3
:102DA0005D9D5F9F9E5E5A9A9B5B99595898884893
:102DB00049894B8B8A4A4E8E8F4F8D4D4C8C448463
:102DC0008545874746868242438341818040000093
:102DD000101000A00050011BFFFFFFFFFFFFFFFFCF
:102DE000FFFFFFFFFFFFFFFFFFFFFFFFFFFFFFFFF3
:102DF000FFFFFFFFFFFFFFFFFFFFFFFFFFFFFFFFE3
:102E0000FFFFFFFFFFFFFFFFFFFFFFFFFFFFFFFFD2
:102E1000FFFFFFFFFFFFFFFFFFFFFFFFFFFFFFFFC2
:10316000FFFFFFDFEF5DEF5DEF5DEF5DEF5DEF5DBB
:10317000EF5DEF5DEF7DEF7DEF5DEF5DEF5DEF5DAF
:10318000EF5DEF5DEF5DEF5DEF5DF79EFFFFFFFF32
:10319000FFFFFFFFFFFFFFFFFFFFFFFFFFFFFFFF3F
:1031A000FFFFFFFFFFFFFFFFFFFFFFFFFFFFFFFF2F
:1031B000FFFFFFFFFFFFFFFFFFFFFFFFFFFFFFFF1F
:1031C000FFFFFFFFFFFFFFFFFFFFFFFFFFFFFFFF0F
:1031D000FFFFFFFFFFFFFFFFFFFFFFFFFFFFFFFFFF
:1031E000FFFFFFFFFFFFFFFFFFFFFFFFFFFFFFFFEF
:1031F000FFFFFFFFFFFFFFFFFFFFFFFFFFFFFFFFDF
:10320000FFFFFFFFFFFFFFFFFFFFFFFFFFFFFFFFCE
:10321000FFFFFFFFFFFFFFFFFFFFFFFFFFFFFFFFBE
:10322000FFFFFFFFFFFFFFFFFFFFFFFFFFFFFFFFAE
:10323000FFFFFFFFFFFFFFFFFFFFFFFFFFFFFFFF9E
:10324000FFFFFFFFFFFFFFFFFFFFFFFFFFFFFFFF8E
:10325000FFFFFFFFFFFFFFFFFFFFFFFFFFFFFFFF7E
:10326000FFFFFFFFFFFFFFFFFFFFFFFFFFFFFFFF6E
:10327000FFFFFFFFFFFFFFFFFFFFFFFFFFFFFFFF5E
:10328000FFFFFFFFFFFFFFFFFFFFFFFFFFFFFFFF4E
:10329000FFFFFFFFFFFFFFFFFFFFFFFFFFFFFFFF3E
:1032A000EF5D52CB528B52CC52AC52AB52AB5AACBC
:1032B0005AAC52AB52AC52AB52AC52AB52AB52AC1A
:1032C00052CB52AB52AC52AC52AB4249C639FFFF63
:1032D000FFFFFFFFFFFFFFFFFFFFFFFFFFFFFFFFFE
:1032E000FFFFFFFFFFFFFFFFFFFFFFFFFFFFFFFFEE
:1032F000FFFFFFFFFFFFFFFFFFFFFFFFFFFFFFFFDE
:10330000FFFFFFFFFFFFFFFFFFFFFFFFFFFFFFFFCD
:10331000FFFFFFFFFFFFFFFFFFFFFFFFFFFFFFFFBD
:10332000FFFFFFFFFFFFFFFFFFFFFFFFFFFFFFFFAD
:10333000FFFFFFFFFFFFFFFFFFFFFFFFFFFFFFFF9D
:10334000FFFFFFFFFFFFFFFFFFFFFFFFFFFFFFFF8D
:10335000FFFFFFFFFFFFFFFFFFFFFFFFFFFFFFFF7D
:10336000FFFFFFFFFFFFFFFFFFFFFFFFFFFFFFFF6D
:10337000FFFFFFFFFFFFFFFFFFFFFFFFFFFFFFFF5D
:10338000FFFFFFFFFFFFFFFFFFFFFFFFFFFFFFFF4D
:10339000FFFFFFFFFFFFFFFFFFFFFFFFFFFFFFFF3D
:1033A000FFFFFFFFFFFFFFFFFFFFFFFFFFFFFFFF2D
:1033B000FFFFFFFFFFFFFFFFFFFFFFFFFFFFFFFF1D
:1033C000FFFFFFFFFFFFFFFFFFFFFFFFFFFFFFFF0D
:1033D000FFFFFFFFFFFFFFFFFFFFFFFFFFFFFFFFFD
:1033E000D69A4A8AC754AF6EB76ECF76C774B76D98
:1033F000AF6ED778BF72AF6EB76FD779BF70AF6E51
:10340000B770D778B76FAF6EC79273CF9CF3FFFFDB
:10341000FFFFFFFFFFFFFFFFFFFFFFFFFFFFFFFFBC
:10342000FFFFFFFFFFFFFFFFFFFFFFFFFFFFFFFFAC
:10343000FFFFFFFFFFFFFFFFFFFFFFFFFFFFFFFF9C
:10344000FFFFFFFFFFFFFFFFFFFFFFFFFFFFFFFF8C
:10345000FFFFFFFFFFFFFFFFFFFFFFFFFFFFFFFF7C
:10346000FFFFFFFFFFFFFFFFFFFFFFFFFFFFFFFF6C
:10347000FFFFFFFFFFFFFFFFFFFFFFFFFFFFFFFF5C
:10348000FFFFFFFFFFFFFFFFFFFFFFFFFFFFFFFF4C
:10349000FFFFFFFFFFFFFFFFFFFFFFFFFFFFFFFF3C
:1034A000FFFFFFFFFFFFFFFFFFFFFFFFFFFFFFFF2C
:1034B000FFFFFFFFFFFFFFFFFFFFFFFFFFFFFFFF1C
:1034C000FFFFFFFFFFFFFFFFFFFFFFFFFFFFFFFF0C
:1034D000FFFFFFFFFFFFFFFFFFFFFFFFFFFFFFFFFC
:1034E000FFFFFFFFFFFFFFFFFFFFFFFFFFFFFFFFEC
:1034F000FFFFFFFFFFFFFFFFFFFFFFFFFFFFFFFFDC
:10350000FFFFFFFFFFFFFFFFFFFFFFFFFFFFFFFFCB
:10351000FFFFFFFFFFFFFFFFFFFFFFFFFFFFFFFFBB
:10352000D6BA5ACCBFEF87E187E2CFF3B7EC87E298
:1035300087E2D7F5A7EA87E18FE4DFF797E687E22E
:1035400097E6DFF78FE487E2AFE9843094D3FFFF9B
:10355000FFFFFFFFFFFFFFFFFFFFFFFFFFFFFFFF7B
:10356000FFFFFFFFFFFFFFFFFFFFFFFFFFFFFFFF6B
:10357000FFFFFFFFFFFFFFFFFFFFFFFFFFFFFFFF5B
:10358000FFFFFFFFFFFFFFFFFFFFFFFFFFFFFFFF4B
:10359000FFFFFFFFFFFFFFFFFFFFFFFFFFFFFFFF3B
:1035A000FFFFFFFFFFFFFFFFFFFFFFFFFFFFFFFF2B
:1035B000FFFFFFFFFFFFFFFFFFFFFFFFFFFFFFFF1B
:1035C000FFFFFFFFFFFFFFFFFFFFFFFFFFFFFFFF0B
:1035D000FFFFFFFFFFFFFFFFFFFFFFFFFFFFFFFFFB
:1035E000FFFFFFFFFFFFFFFFFFFFFFFFFFFFFFFFEB
:1035F000FFFFFFFFFFFFFFFFFFFFFFFFFFFFFFFFDB
:10360000FFFFFFFFFFFFFFFFFFFFFFFFFFFFFFFFCA
:10361000FFFFFFFFFFFFFFFFFFFFFFFFFFFFFFFFBA
:10362000FFFFFFFFFFFFFFFFFFFFFFFFFFFFFFFFAA
:10363000FFFFFFFFFFFFFFFFFFFFFFFFFFFFFFFF9A
:10364000FFFFFFFFFFFFFFFFFFFFFFFFFFFFFFFF8A
:10365000FFFFFFFFFFFFFFFFFFFFFFFFFFFFFFFF7A
:10366000D6BA5ACCBFF087E287E3CFF3B7ED87E352
:1036700087E3D7F6A7EA87E28FE5DFF79FE787E3DF
:1036800097E6DFD78FE587E2AFEA84711904528AA3
:10369000E73CFFFFFFFFFFFFFFFFFFFFFFFFFFFF15
:1036A000FFFFFFFFFFFFFFFFFFFFFFFFFFFFFFFF2A
:1036B000FFFFFFFFFFFFFFFFFFFFFFFFFFFFFFFF1A
:1036C000FFFFFFFFFFFFFFFFFFFFFFFFFFFFFFFF0A
:1036D000FFFFFFFFFFFFFFFFFFFFFFFFFFFFFFFFFA
:1036E000FFFFFFFFFFFFFFFFFFFFFFFFFFFFFFFFEA
:1036F000FFFFFFFFFFFFFFFFFFFFFFFFFFFFFFFFDA
:10370000FFFFFFFFFFFFFFFFFFFFFFFFFFFFFFFFC9
:10371000FFFFFFFFFFFFFFFFFFFFFFFFFFFFFFFFB9
:10372000FFFFFFFFFFFFFFFFFFFFFFFFFFFFFFFFA9
:10373000FFFFFFFFFFFFFFFFFFFFFFFFFFFFFFFF99
:10374000FFFFFFFFFFFFFFFFFFFFFFFFFFFFFFFF89
:10375000FFFFFFFFFFFFFFFFFFFFFFFFFFFFFFFF79
:10376000FFFFFFFFFFFFFFFFFFFFFFFFFFFFFFFF69
:10377000FFFFFFFFFFFFFFFFFFFFFFFFFFFFFFFF59
:10378000FFFFFFFFFFFFFFFFFFFFFFFFFFFFFFFF49
:10379000FFFFFFFFFFFFFFFFFFFFFFFFFFFFFFFF39
:1037A000D6BA5ACCBFF087E287E3CFF3B7ED87E311
:1037B00087E3D7F6A7EA87E28FE5DFF79FE787E39E
:1037C00097E6DFD78FE587E2AFEA8C910041088268
:1037D000CE59FFFFFFFFFFFFFFFFFFFFFFFFFFFFD0
:1037E000FFFFFFFFFFFFFFFFFFFFFFFFFFFFFFFFE9
:1037F000FFFFFFFFFFFFFFFFFFFFFFFFFFFFFFFFD9
:10380000FFFFFFFFFFFFFFFFFFFFFFFFFFFFFFFFC8
:10381000FFFFFFFFFFFFFFFFFFFFFFFFFFFFFFFFB8
:10382000FFFFFFFFFFFFFFFFFFFFFFFFFFFFFFFFA8
:10383000FFFFFFFFFFFFFFFFFFFFFFFFFFFFFFFF98
:10384000FFFFFFFFFFFFFFFFFFFFFFFFFFFFFFFF88
:10385000FFFFFFFFFFFFFFFFFFFFFFFFFFFFFFFF78
:10386000FFFFFFFFFFFFFFFFFFFFFFFFFFFFFFFF68
:10387000FFFFFFFFFFFFFFFFFFFFFFFFFFFFFFFF58
:10388000FFFFFFFFFFFFFFFFFFFFFFFFFFFFFFFF48
:10389000FFFFFFFFFFFFFFFFFFFFFFFFFFFFFFFF38
:1038A000FFFFFFFFFFFFFFFFFFFFFFFFFFFFFFFF28
:1038B000FFFFFFFFFFFFFFFFFFFFFFFFFFFFFFFF18
:1038C000FFFFFFFFFFFFFFFFFFFFFFFFFFFFFFFF08
:1038D000FFFFFFFFFFFFFFFFFFFFFFFFFFFFFFFFF8
:1038E000D6BA5ACCBFF087E287E3CFF3B7ED87E3D0
:1038F00087E3D7F6A7EA87E28FE5DFF79FE787E35D
:1039000097E6DFD78FE587E2AFEA8C71004110A31D
:10391000CE59FFFFFFFFFFFFFFFFFFFFFFFFFFFF8E
:10392000FFFFFFFFFFFFFFFFFFFFFFFFFFFFFFFFA7
:10393000FFFFFFFFFFFFFFFFFFFFFFFFFFFFFFFF97
:10394000FFFFFFFFFFFFFFFFFFFFFFFFFFFFFFFF87
:10395000FFFFFFFFFFFFFFFFFFFFFFFFFFFFFFFF77
:10396000FFFFFFFFFFFFFFFFFFFFFFFFFFFFFFFF67
:10397000FFFFFFFFFFFFFFFFFFFFFFFFFFFFFFFF57
:10398000FFFFFFFFFFFFFFFFFFFFFFFFFFFFFFFF47
:10399000FFFFFFFFFFFFFFFFFFFFFFFFFFFFFFFF37
:1039A000FFFFFFFFFFFFFFFFFFFFFFFFFFFFFFFF27
:1039B000FFFFFFFFFFFFFFFFFFFFFFFFFFFFFFFF17
:1039C000FFFFFFFFFFFFFFFFFFFFFFFFFFFFFFFF07
:1039D000FFFFFFFFFFFFFFFFFFFFFFFFFFFFFFFFF7
:1039E000FFFFFFFFFFFFFFFFFFFFFFFFFFFFFFFFE7
:1039F000FFFFFFFFFFFFFFFFFFFFFFFFFFFFFFFFD7
:103A0000FFFFFFFFFFFFFFFFFFFFFFFFFFFFFFFFC6
:103A1000FFFFFFFFFFFFFFFFFFFFFFFFFFFFFFFFB6
:103A2000D6BA5ACCBFF087E287E3CFF3B7ED87E38E
:103A300087E3D7F6A7EA87E28FE5DFF79FE787E31B
:103A400097E6DFD78FE587E2AFEA8C7108822965B8
:103A5000DEDBFFFFFFFFFFFFFFFFFFFFFFFFFFFFBB
:103A6000FFFFFFFFFFFFFFFFFFFFFFFFFFFFFFFF66
:103A7000FFFFFFFFFFFFFFFFFFFFFFFFFFFFFFFF56
:103A8000FFFFFFFFFFFFFFFFFFFFFFFFFFFFFFFF46
:103A9000FFFFFFFFFFFFFFFFFFFFFFFFFFFFFFFF36
:103AA000FFFFFFFFFFFFFFFFFFFFFFFFFFFFFFFF26
:103AB000FFFFFFFFFFFFFFFFFFFFFFFFFFFFFFFF16
:103AC000FFFFFFFFFFFFFFFFFFFFFFFFFFFFFFFF06
:103AD000FFFFFFFFFFFFFFFFFFFFFFFFFFFFFFFFF6
:103AE000FFFFFFFFFFFFFFFFFFFFFFFFFFFFFFFFE6
:103AF000FFFFFFFFFFFFFFFFFFFFFFFFFFFFFFFFD6
:103B0000FFFFFFFFFFFFFFFFFFFFFFFFFFFFFFFFC5
:103B1000FFFFFFFFFFFFFFFFFFFFFFFFFFFFFFFFB5
:103B2000FFFFFFFFFFFFFFFFFFFFFFFFFFFFFFFFA5
:103B3000FFFFFFFFFFFFFFFFFFFFFFFFFFFFFFFF95
:103B4000FFFFFFFFFFFFFFFFFFFFFFFFFFFFFFFF85
:103B5000FFFFFFFFFFFFFFFFFFFFFFFFFFFFFFFF75
:103B6000D6BA5ACCBFEF87E187E2CFF3AFEC87E25A
:103B700087E2D7F5A7E987E18FE4DFF797E687E2E9
:103B800097E6DFD78FE487E1A7E984308431E73D0A
:103B9000FFDFFFFFFFFFFFFFFFFFFFFFFFFFFFFF55
:103BA000FFFFFFFFFFFFFFFFFFFFFFFFFFFFFFFF25
:103BB000FFFFFFFFFFFFFFFFFFFFFFFFFFFFFFFF15
:103BC000FFFFFFFFFFFFFFFFFFFFFFFFFFFFFFFF05
:103BD000FFFFFFFFFFFFFFFFFFFFFFFFFFFFFFFFF5
:103BE000FFFFFFFFFFFFFFFFFFFFFFFFFFFFFFFFE5
:103BF000FFFFFFFFFFFFFFFFFFFFFFFFFFFFFFFFD5
:103C0000FFFFFFFFFFFFFFFFFFFFFFFFFFFFFFFFC4
:103C1000FFFFFFFFFFFFFFFFFFFFFFFFFFFFFFFFB4
:103C2000FFFFFFFFFFFFFFFFFFFFFFFFFFFFFFFFA4
:103C3000FFFFFFFFFFFFFFFFFFFFFFFFFFFFFFFF94
:103C4000FFFFFFFFFFFFFFFFFFFFFFFFFFFFFFFF84
:103C5000FFFFFFFFFFFFFFFFFFFFFFFFFFFFFFFF74
:103C6000FFFFFFFFFFFFFFFFFFFFFFFFFFFFFFFF64
:103C7000FFFFFFFFFFFFFFFFFFFFFFFFFFFFFFFF54
:103C8000FFFFFFFFFFFFFFFFFFFFFFFFFFFFFFFF44
:103C9000FFFFFFFFFFFFFFFFFFFFFFFFFFFFFFFF34
:103CA000D69A5ACCD7F3A7EAA7EADFF7CFF2A7EA6A
:103CB000AFEAE7F8C7EFA7EAAFEBEFF9B7EEA7EA8D
:103CC000B7EDEFF9AFEBA7E9C7F084309CF3FFFF46
:103CD000FFFFFFFFFFFFFFFFFFFFFFFFFFFFFFFFF4
:103CE000FFFFFFFFFFFFFFFFFFFFFFFFFFFFFFFFE4
:103CF000FFFFFFFFFFFFFFFFFFFFFFFFFFFFFFFFD4
:103D0000FFFFFFFFFFFFFFFFFFFFFFFFFFFFFFFFC3
:103D1000FFFFFFFFFFFFFFFFFFFFFFFFFFFFFFFFB3
:103D2000FFFFFFFFFFFFFFFFFFFFFFFFFFFFFFFFA3
:103D3000FFFFFFFFFFFFFFFFFFFFFFFFFFFFFFFF93
:103D4000FFFFFFFFFFFFFFFFFFFFFFFFFFFFFFFF83
:103D5000FFFFFFFFFFFFFFFFFFFFFFFFFFFFFFFF73
:103D6000FFFFFFFFFFFFFFFFFFFFFFFFFFFFFFFF63
:103D7000FFFFFFFFFFFFFFFFFFFFFFFFFFFFFFFF53
:103D8000FFFFFFFFFFFFFFFFFFFFFFFFFFFFFFFF43
:103D9000FFFFFFFFFFFFFFFFFFFFFFFFFFFFFFFF33
:103DA000FFFFFFFFFFFFFFFFFFFFFFFFFFFFFFFF23
:103DB000FFFFFFFFFFFFFFFFFFFFFFFFFFFFFFFF13
:103DC000FFFFFFFFFFFFFFFFFFFFFFFFFFFFFFFF03
:103DD000FFFFFFFFFFFFFFFFFFFFFFFFFFFFFFFFF3
:103DE000DEFC4228634D6B8E6B6E6B6D6B8E6B8E43
:103DF0006B6E6B6D6B6E6B6E6B6E6B6D6B8E736ED5
:103E00006B6E6B6D6B6E6B6E6B6E4208B5B6FFFFC3
:103E1000FFFFFFFFFFFFFFFFFFFFFFFFFFFFFFFFB2
:103E2000FFFFFFFFFFFFFFFFFFFFFFFFFFFFFFFFA2
:103E3000FFFFFFFFFFFFFFFFFFFFFFFFFFFFFFFF92
:103E4000FFFFFFFFFFFFFFFFFFFFFFFFFFFFFFFF82
:103E5000FFFFFFFFFFFFFFFFFFFFFFFFFFFFFFFF72
:103E6000FFFFFFFFFFFFFFFFFFFFFFFFFFFFFFFF62
:103E7000FFFFFFFFFFFFFFFFFFFFFFFFFFFFFFFF52
:103E8000FFFFFFFFFFFFFFFFFFFFFFFFFFFFFFFF42
:103E9000FFFFFFFFFFFFFFFFFFFFFFFFFFFFFFFF32
:103EA000FFFFFFFFFFFFFFFFFFFFFFFFFFFFFFFF22
:103EB000FFFFFFFFFFFFFFFFFFFFFFFFFFFFFFFF12
:103EC000FFFFFFFFFFFFFFFFFFFFFFFFFFFFFFFF02
:103ED000FFFFFFFFFFFFFFFFFFFFFFFFFFFFFFFFF2
:103EE000FFFFFFFFFFFFFFFFFFFFFFFFFFFFFFFFE2
:103EF000FFFFFFFFFFFFFFFFFFFFFFFFFFFFFFFFD2
:103F0000FFFFFFFFFFFFFFFFFFFFFFFFFFFFFFFFC1
:103F1000FFFFFFFFFFFFFFFFFFFFFFFFFFFFFFDFD1
:103F2000FFDFD6BABDF8C618C618C618C618C61818
:103F3000C618C618C638C618C618C618C618C63851
:103F4000C638C638C638C618C5F8CE59F7BFFFFF01
:103F5000FFFFFFFFFFFFFFFFFFFFFFFFFFFFFFFF71
:103F6000FFFFFFFFFFFFFFFFFFFFFFFFFFFFFFFF61
:103F7000FFFFFFFFFFFFFFFFFFFFFFFFFFFFFFFF51
:103F8000FFFFFFFFFFFFFFFFFFFFFFFFFFFFFFFF41
:104FE000E56FDCAADCAADCAADCAAD4AACCABDCA9DB
:104FF000DCAADCAADCAADCAADCAADCAAC4ACDC89B8
:10500000DC68DC68DC68DC68DC68DC68C46ADC6896
:10501000E5D1FFFFFFFFFFFFFFFFFFFFFFFFFFFFE8
:10502000FFFFFFFFFFFFFFFFFFFFFFFFFFFFFFFF90
:10503000FFFFFFFFFFFFFFFFFFFFFFFFFFFFFFFF80
:10504000FFFFFFFFFFFFFFFFFFFFFFFFFFFFFFFF70
:10505000FFFFFFFFFFFFFFFFFFFFFFFFFFFFFFFF60
:10506000FFFFFFFFFFFFFFFFFFFFFFFFFFFFFFFF50
:10507000FFFFFFFFFFFFFFFFFFFFFFFFFFFFFFFF40
:10508000FFFFFFFFFFFFFFFFFFFFFFFFFFFFFFFF30
:10509000FFFFFFFFFFFFFFFFFFFFFFFFFFFFFFFF20
:1050A000FFFFFFFFFFFFFFFFFFFFFFFFFFFFFFFF10
:1050B000FFFFFFFFFFFFFFFFFFFFFFFFFFFFFFFF00
:1050C000FFFFFFFFFFFFFFFFFFFFFFFFFFFFFFFFF0
:1050D000FFFFFFFFFFFFFFFFFFFFFFFFFFFFFFFFE0
:1050E000FFFFFFFFFFFFFFFFFFFFFFFFFFFFFFFFD0
:1050F000FFFFFFFFFFFFFFFFFFFFFFFFFFFFFFFFC0
:10510000FFFFFFFFFFFFFFFFFFFFFFFFFFFFFFFFAF
:10511000FFFFFFFFFFFFFFFFFFFFFFFFFFFFFFFF9F
:10512000FCC6FBE0FBE0FBE0FBE0F3E1E3E3FBE0DC
:10513000FBE0FBE0FBE0FBE0FBE0FBE0E3E3FBE0AC
:10514000FBE0FBE0FBE0FBE0FBE0FBE0E404FBE07A
:10515000FD6BFFFFFFFFFFFFFFFFFFFFFFFFFFFFF5
:10516000FFFFFFFFFFFFFFFFFFFFFFFFFFFFFFFF4F
:10517000FFFFFFFFFFFFFFFFFFFFFFFFFFFFFFFF3F
:10518000FFFFFFFFFFFFFFFFFFFFFFFFFFFFFFFF2F
:10519000FFFFFFFFFFFFFFFFFFFFFFFFFFFFFFFF1F
:1051A000FFFFFFFFFFFFFFFFFFFFFFFFFFFFFFFF0F
:1051B000FFFFFFFFFFFFFFFFFFFFFFFFFFFFFFFFFF
:1051C000FFFFFFFFFFFFFFFFFFFFFFFFFFFFFFFFEF
:1051D000FFFFFFFFFFFFFFFFFFFFFFFFFFFFFFFFDF
:1051E000FFFFFFFFFFFFFFFFFFFFFFFFFFFFFFFFCF
:1051F000FFFFFFFFFFFFFFFFFFFFFFFFFFFFFFFFBF
:10520000FFFFFFFFFFFFFFFFFFFFFFFFFFFFFFFFAE
:10521000FFFFFFFFFFFFFFFFFFFFFFFFFFFFFFFF9E
:10522000FFFFFFFFFFFFFFFFFFFFFFFFFFFFFFFF8E
:10523000FFFFFFFFFFFFFFFFFFFFFFFFFFFFFFFF7E
:10524000FFFFFFFFFFFFFFFFFFFFFFFFFFFFFFFF6E
:10525000FFFFFFFFFFFFFFFFFFFFFFFFFFFFFFFF5E
:10526000FCE7FBE0FBE0FBE0FBE0EBE2E403FBE060
:10527000FBE0FBE0FBE0FBE0FBE0F3E1DC04FBE058
:10528000FBE0FBE0FBE0FBE0FBE0F3E1DC04FBE048
:10529000FD6CFFFFFFFFFFFFFFFFFFFFFFFFFFFFB3
:1052A000FFFFFFFFFFFFFFFFFFFFFFFFFFFFFFFF0E
:1052B000FFFFFFFFFFFFFFFFFFFFFFFFFFFFFFFFFE
:1052C000FFFFFFFFFFFFFFFFFFFFFFFFFFFFFFFFEE
:1052D000FFFFFFFFFFFFFFFFFFFFFFFFFFFFFFFFDE
:1052E000FFFFFFFFFFFFFFFFFFFFFFFFFFFFFFFFCE
:1052F000FFFFFFFFFFFFFFFFFFFFFFFFFFFFFFFFBE
:10530000FFFFFFFFFFFFFFFFFFFFFFFFFFFFFFFFAD
:10531000FFFFFFFFFFFFFFFFFFFFFFFFFFFFFFFF9D
:10532000FFFFFFFFFFFFFFFFFFFFFFFFFFFFFFFF8D
:10533000FFFFFFFFFFFFFFFFFFFFFFFFFFFFFFFF7D
:10534000FFFFFFFFFFFFFFFFFFFFFFFFFFFFFFFF6D
:10535000FFFFFFFFFFFFFFFFFFFFFFFFFFFFFFFF5D
:10536000FFFFFFFFFFFFFFFFFFFFFFFFFFFFFFFF4D
:10537000FFFFFFFFFFFFFFFFFFFFFFFFFFFFFFFF3D
:10538000FFFFFFFFFFFFFFFFFFFFFFFFFFFFFFFF2D
:10539000FFFFFFFFFFFFFFFFFFFFFFFFFFFFFFFF1D
:1053A000FCE7FBE0FBE0FBE0FBE0EBE2E403FBE01F
:1053B000FBE0FBE0FBE0FBE0FBE0F3E1DC04FBE017
:1053C000FBE0FBE0FBE0FBE0FBE0F3E1DC04FBE007
:1053D000FD6CFFFFFFFFFFFFFFFFFFFFFFFFFFFF72
:1053E000FFFFFFFFFFFFFFFFFFFFFFFFFFFFFFFFCD
:1053F000FFFFFFFFFFFFFFFFFFFFFFFFFFFFFFFFBD
:10540000FFFFFFFFFFFFFFFFFFFFFFFFFFFFFFFFAC
:10541000FFFFFFFFFFFFFFFFFFFFFFFFFFFFFFFF9C
:10542000FFFFFFFFFFFFFFFFFFFFFFFFFFFFFFFF8C
:10543000FFFFFFFFFFFFFFFFFFFFFFFFFFFFFFFF7C
:10544000FFFFFFFFFFFFFFFFFFFFFFFFFFFFFFFF6C
:10545000FFFFFFFFFFFFFFFFFFFFFFFFFFFFFFFF5C
:10546000FFFFFFFFFFFFFFFFFFFFFFFFFFFFFFFF4C
:10547000FFFFFFFFFFFFFFFFFFFFFFFFFFFFFFFF3C
:10548000FFFFFFFFFFFFFFFFFFFFFFFFFFFFFFFF2C
:10549000FFFFFFFFFFFFFFFFFFFFFFFFFFFFFFFF1C
:1054A000FFFFFFFFFFFFFFFFFFFFFFFFFFFFFFFF0C
:1054B000FFFFFFFFFFFFFFFFFFFFFFFFFFFFFFFFFC
:1054C000FFFFFFFFFFFFFFFFFFFFFFFFFFFFFFFFEC
:1054D000FFFFFFFFFFFFFFFFFFFFFFFFFFFFFFFFDC
:1054E000FCE7FBE0FBE0FBE0FBE0EBE2E403FBE0DE
:1054F000FBE0FBE0FBE0FBE0FBE0F3E1DC04FBE0D6
:10550000FBE0FBE0FBE0FBE0FBE0F3E1DC04FBE0C5
:10551000FD6CFFFFFFFFFFFFFFFFFFFFFFFFFFFF30
:10552000FFFFFFFFFFFFFFFFFFFFFFFFFFFFFFFF8B
:10553000FFFFFFFFFFFFFFFFFFFFFFFFFFFFFFFF7B
:10554000FFFFFFFFFFFFFFFFFFFFFFFFFFFFFFFF6B
:10555000FFFFFFFFFFFFFFFFFFFFFFFFFFFFFFFF5B
:10556000FFFFFFFFFFFFFFFFFFFFFFFFFFFFFFFF4B
:10557000FFFFFFFFFFFFFFFFFFFFFFFFFFFFFFFF3B
:10558000FFFFFFFFFFFFFFFFFFFFFFFFFFFFFFFF2B
:10559000FFFFFFFFFFFFFFFFFFFFFFFFFFFFFFFF1B
:1055A000FFFFFFFFFFFFFFFFFFFFFFFFFFFFFFFF0B
:1055B000FFFFFFFFFFFFFFFFFFFFFFFFFFFFFFFFFB
:1055C000FFFFFFFFFFFFFFFFFFFFFFFFFFFFFFFFEB
:1055D000FFFFFFFFFFFFFFFFEDF2E5D1E5D1E5D1D2
:1055E000E5D1E5D1E5D1E5D1E5D1E5D1E5D1E5D10B
:1055F000E5D1E5D1E5D1E5D1E5D1E5D1E5D1E5D1FB
:10560000E5D1E5D1E5D1E5D1E5D1E5D1E5D1E5D1EA
:10561000E5D1E5D1E5D1E5D1E5D1E5D1E5D1E5D1DA
:10562000F464FBE0FBE0FBE0FBE0EBE2E403FBE027
:10563000FBE0FBE0FBE0FBE0FBE0F3E1DC04FBE094
:10564000FBE0FBE0FBE0FBE0FBE0F3E1DC04FBE084
:10565000F4A7E5D1E5D1E5D1E5D1E5D1E5D1E5D1B5
:10566000E5D1E5D1E5D1E5D1E5D1E5D1E5D1E5D18A
:10567000E5D1E5D1E5D1E5D1E5D1E5D1E5D1E5D17A
:10568000E5D1E5D1E5D1E5D1E5D1E5D1EDD1DDD269
:10569000B5B6C5B4E5D1E5D1E5D1E5D1E5D1E5B003
:1056A000E5B0E5B0E58FE58FE58FE58FE58FE58F18
:1056B000E58FE58FE58FE58FE58FE58FE58FE58F4A
:1056C000E58FE58FE58FE58FE58FE58FE58FE58F3A
:1056D000E58FE58FE58FE58FE58FE58FE58FE58F2A
:1056E000E58FE58FE58FE58FE58FE58FE58FE58F1A
:1056F000E58FE58FED8FDD91BDB5C5B4E590ED8FFC
:10570000E58FE58FE58FE58FE58FE58FE58FE58FF9
:10571000E58FE58FE58FEDB0F444F402F402F40276
:10572000F402F402F402F402F402F402F402F402C9
:10573000F402F402F402F402F402F402F402F402B9
:10574000F402F402F402F402F402F402F402F402A9
:10575000F402F402F402F402F402F402F402F40299
:10576000FC01FBE0FBE0FBE0FBE0EBE2E403FBE041
:10577000FBE0FBE0FBE0FBE0FBE0F3E1DC04FBE053
:10578000FBE0FBE0FBE0FBE0FBE0F3E1DC04FBE043
:10579000F401F402F402F402F402F402F402F4025A
:1057A000F402F402F402F402F402F402F402F40249
:1057B000F402F402F402F402F402F402F402F40239
:1057C000F402F402F402F402F402F402F422D40625
:1057D000840FAC0BF402F402F402F402F402F402BB
:1057E000F402F401F3E1F3E1F3E1F3E1F3E1F3E1D6
:1057F000F3E1F3E1F3E1F3E1F3E1F3E1F3E1F3E109
:10580000F3E1F3E1F3E1F3E1F3E1F3E1F3E1F3E1F8
:10581000F3E1F3E1F3E1F3E1F3E1F3E1F3E1F3E1E8
:10582000F3E1F3E1F3E1F3E1F3E1F3E1F3E1F3E1D8
:10583000F3E1F3E1F3E1DC048C0E9C0CEBE2F3E129
:10584000F3E1F3E1F3E1F3E1F3E1F3E1F3E1F3E1B8
:10585000F3E1F3E1F3E1F423FC22FBE0FBE0FBE006
:10586000FBE0FBE0FBE0FBE0FBE0FBE0FBE0FBE060
:10587000FBE0FBE0FBE0FBE0FBE0FBE0FBE0FBE050
:10588000FBE0FBE0FBE0FBE0FBE0FBE0FBE0FBE040
:10589000FBE0FBE0FBE0FBE0FBE0FBE0FBE0FBE030
:1058A000FBE0FBE0FBE0FBE0FBE0EBE2E403FBE022
:1058B000FBE0FBE0FBE0FBE0FBE0F3E1DC04FBE012
:1058C000FBE0FBE0FBE0FBE0FBE0F3E1DC04FBE002
:1058D000FBE0FBE0FBE0FBE0FBE0FBE0FBE0FBE0F0
:1058E000FBE0FBE0FBE0FBE0FBE0FBE0FBE0FBE0E0
:1058F000FBE0FBE0FBE0FBE0FBE0FBE0FBE0FBE0D0
:10590000FBE0FBE0FBE0FBE0FBE0FBE0FBE0DBE5DA
:105910008C0FAC0AFBE0FBE0FBE0FBE0FBE0FBE014
:10592000FBE0FBE0FBE0FBE0FBE0FBE0FBE0FBE09F
:10593000FBE0FBE0FBE0FBE0FBE0FBE0FBE0FBE08F
:10594000FBE0FBE0FBE0FBE0FBE0FBE0FBE0FBE07F
:10595000FBE0FBE0FBE0FBE0FBE0FBE0FBE0FBE06F
:10596000FBE0FBE0FBE0FBE0FBE0FBE0FBE0FBE05F
:10597000FBE0FBE0FBE0E403940E9C0CF3E1FBE0B6
:10598000FBE0FBE0FBE0FBE0FBE0FBE0FBE0FBE03F
:10599000FBE0FBE0FBE0FC42FC43FBE0FBE0FBE068
:1059A000FBE0FBE0FBE0FBE0FBE0FBE0FBE0FBE01F
:1059B000FBE0FBE0FBE0FBE0FBE0FBE0FBE0FBE00F
:1059C000FBE0FBE0FBE0FBE0FBE0FBE0FBE0FBE0FF
:1059D000FBE0FBE0FBE0FBE0FBE0FBE0FBE0FBE0EF
:1059E000FBE0F3E1D405D405F3E1F3E1EC02FBE0E5
:1059F000FBE0FBE0FBE0FBE0FBE0FBE0E403FBE0C3
:105A0000FBE0FBE0FBE0FBE0FBE0FBE0E403FBE0B2
:105A1000FBE0FBE0FBE0FBE0FBE0FBE0FBE0FBE0AE
:105A2000FBE0FBE0FBE0FBE0FBE0FBE0FBE0FBE09E
:105A3000FBE0FBE0FBE0FBE0FBE0FBE0FBE0FBE08E
:105A4000FBE0FBE0FBE0FBE0FBE0FBE0FBE0D40580
:105A50008C0FAC0AFBE0FBE0FBE0FBE0FBE0FBE0D3
:105A6000FBE0FBE0FBE0FBE0FBE0FBE0FBE0FBE05E
:105A7000FBE0FBE0FBE0FBE0FBE0FBE0FBE0FBE04E
:105A8000FBE0FBE0FBE0FBE0FBE0FBE0FBE0FBE03E
:105A9000FBE0FBE0FBE0FBE0FBE0FBE0FBE0FBE02E
:105AA000FBE0FBE0FBE0FBE0FBE0FBE0FBE0FBE01E
:105AB000FBE0FBE0FBE0E403940E9C0CF3E1FBE075
:105AC000FBE0FBE0FBE0FBE0FBE0FBE0FBE0FBE0FE
:105AD000FBE0FBE0FBE0FC43FC43FBE0FBE0FBE026
:105AE000FBE0FBE0FBE0FBE0FBE0FBE0FBE0FBE0DE
:105AF000FBE0FBE0FBE0E403FBE0F3E1F3E1F3E1D7
:105B0000F3E1F3E1F3E1FBE1FBE0FBE0FBE0FBE0D1
:105B1000FBE0FBE0FBE0FBE0FBE0FBE0FBE0FBE0AD
:105B2000FBE0E403940E9C0CF3E1FBE0FBE0FBE004
:105B3000FBE0FBE0FBE0FBE0FBE0FBE0FBE0FBE08D
:105B4000FBE0FBE0FBE0FBE0FBE0FBE0FBE0FBE07D
:105B5000FBE0FBE0FBE0FBE0FBE0FBE0FBE0FBE06D
:105B6000FBE0FBE0FBE0FBE0FBE0FBE0FBE0FBE05D
:105B7000FBE0FBE0FBE0FBE0FBE0FBE0FBE0FBE04D
:105B8000FBE0FBE0FBE0FBE0FBE0FBE0FBE0D4053F
:105B90008C0FAC0AFBE0FBE0FBE0FBE0FBE0FBE092
:105BA000FBE0FBE0FBE0FBE0FBE0FBE0FBE0FBE01D
:105BB000FBE0FBE0FBE0FBE0FBE0FBE0FBE0FBE00D
:105BC000FBE0FBE0FBE0FBE0FBE0FBE0FBE0FBE0FD
:105BD000FBE0FBE0FBE0FBE0FBE0FBE0FBE0FBE0ED
:105BE000FBE0FBE0FBE0FBE0FBE0FBE0FBE0FBE0DD
:105BF000FBE0FBE0FBE0E403940E9C0CF3E1FBE034
:105C0000FBE0FBE0FBE0FBE0FBE0FBE0FBE0FBE0BC
:105C1000FBE0FBE0FBE0FC43FC01FBE0FBE0FBE026
:105C2000FBE0FBE0FBE0FBE0FBE0FBE0FBE0FBE09C
:105C3000FBE0FBE0FBE0D406F3E1EBE2EBE2EBE2BE
:105C4000EBE2EBE2EBE2F3E1FBE0FBE0FBE0FBE0AD
:105C5000FBE0FBE0FBE0FBE0FBE0FBE0FBE0FBE06C
:105C6000FBE0E403940E9C0CF3E1FBE0FBE0FBE0C3
:105C7000FBE0FBE0FBE0FBE0FBE0FBE0FBE0FBE04C
:105C8000FBE0FBE0FBE0FBE0FBE0FBE0FBE0FBE03C
:105C9000FBE0FBE0FBE0FBE0FBE0FBE0FBE0FBE02C
:105CA000FBE0FBE0FBE0FBE0FBE0FBE0FBE0FBE01C
:105CB000FBE0FBE0FBE0FBE0FBE0FBE0FBE0FBE00C
:105CC000FBE0FBE0FBE0FBE0FBE0FBE0FBE0D405FE
:105CD0008C0FAC0AFBE0FBE0FBE0FBE0FBE0FBE051
:105CE000FBE0FBE0FBE0FBE0FBE0FBE0FBE0FBE0DC
:105CF000FBE0FBE0FBE0FBE0FBE0FBE0FBE0FBE0CC
:105D0000FBE0FBE0FBE0FBE0FBE0FBE0FBE0FBE0BB
:105D1000FBE0FBE0FBE0FBE0FBE0FBE0FBE0FBE0AB
:105D2000FBE0FBE0FBE0FBE0FBE0FBE0FBE0FBE09B
:105D3000FBE0FBE0FBE0E403940E9C0CF3E1FBE0F2
:105D4000FBE0FBE0FBE0FBE0FBE0FBE0FBE0FBE07B
:105D5000FBE0FBE0FBE0FC01FE10FDCEFDEFFDEF04
:105D6000FDEFFDEFFDEFFDEFFDEFFDEFFDEFFDEFD3
:105D7000FDEFFDEFFDEFD447FBE0FBE0FBE0FBE0D8
:105D8000FBE0FBE0FBE0FCA6FDEFFDEFFDEFFDEF30
:105D9000FDEFFDEFFDEFFDEFFDEFFDEFFDEFFDEFA3
:105DA000FDEFF5F1C5F6CDF5FDF0FDEFFDEFFDEFF3
:105DB000FDEFFDEFFDEFFDEFFDEFFDEFFDEFFDEF83
:105DC000FDEFFDEFFDEFFDEFFDEFFDEFFDEFFDEF73
:105DD000FDEFFDEFFDEFFDEFFDEFFDEFFDEFFDEF63
:105DE000FDEFFDEFFDEFFDEFFDEFFDEFFDEFFDEF53
:105DF000FDEFFDEFFDEFFDEFFDEFFDEFFDEFFDEF43
:105E0000FDEFFDEFFDEFFDEFFDEFFDEFFDEFEDF23F
:105E1000C5F7D5F4FDEFFDEFFDEFFDEFFDEFFDEF75
:105E2000FDEFFDEFFDEFFDEFFDEFFDEFFDEFFDEF12
:105E3000FDEFFDEFFDEFFDEFFDEFFDEFFDEFFDEF02
:105E4000FDEFFDEFFDEFFDEFFDEFFDEFFDEFFDEFF2
:105E5000FDEFFDEFFDEFFDEFFDEFFDEFFDEFFDEFE2
:105E6000FDEFFDEFFDEFFDEFFDEFFDEFFDEFFDEFD2
:105E7000FDEFFDEFFDEFF5F1C5F6CDF5FDF0FDEF22
:105E8000FDEFFDEFFDEFFDEFFDEFFDEFFDEFFDEFB2
:105E9000FDEFFDEFFDCEFE10FFFFFFFFFFFFFFFF59
:105EA000FFFFFFFFFFFFFFFFFFFFFFFFFFFFFFFF02
:105EB000FFFFFFFFFFFFD489FBE0FBE0FBE0FBE01F
:105EC000FBE0FBE0FBE0FD6CFFFFFFFFFFFFFFFFE0
:105ED000FFFFFFFFFFFFFFFFFFFFFFFFFFFFFFFFD2
:105EE000FFFFFFFFFFFFFFFFFFFFFFFFFFFFFFFFC2
:105EF000FFFFFFFFFFFFFFFFFFFFFFFFFFFFFFFFB2
:105F0000FFFFFFFFFFFFFFFFFFFFFFFFFFFFFFFFA1
:105F1000FFFFFFFFFFFFFFFFFFFFFFFFFFFFFFFF91
:105F2000FFFFFFFFFFFFFFFFFFFFFFFFFFFFFFFF81
:105F3000FFFFFFFFFFFFFFFFFFFFFFFFFFFFFFFF71
:105F4000FFFFFFFFFFFFFFFFFFFFFFFFFFFFFFFF61
:105F5000FFFFFFFFFFFFFFFFFFFFFFFFFFFFFFFF51
:105F6000FFFFFFFFFFFFFFFFFFFFFFFFFFFFFFFF41
:105F7000FFFFFFFFFFFFFFFFFFFFFFFFFFFFFFFF31
:105F8000FFFFFFFFFFFFFFFFFFFFFFFFFFFFFFFF21
:105F9000FFFFFFFFFFFFFFFFFFFFFFFFFFFFFFFF11
:105FA000FFFFFFFFFFFFFFFFFFFFFFFFFFFFFFFF01
:105FB000FFFFFFFFFFFFFFFFFFFFFFFFFFFFFFFFF1
:105FC000FFFFFFFFFFFFFFFFFFFFFFFFFFFFFFFFE1
:105FD000FFFFFFFFFFFFFFFFFFFFFFFFFFFFFFFFD1
:105FE000FFFFFFFFFFFFFFFFFFFFFFFFFFFFFFFFC1
:105FF000FFFFFFFFFFFFD4ABF3E1EBE2EBE2EBE2ED
:10600000EBE2EBE2EBE2F56DFFFFFFFFFFFFFFFFCF
:10601000FFFFFFFFFFFFFFFFFFFFFFFFFFFFFFFF90
:10602000FFFFFFFFFFFFFFFFFFFFFFFFFFFFFFFF80
:10603000FFFFFFFFFFFFFFFFFFFFFFFFFFFFFFFF70
:10604000FFFFFFFFFFFFFFFFFFFFFFFFFFFFFFFF60
:10605000FFFFFFFFFFFFFFFFFFFFFFFFFFFFFFFF50
:10606000FFFFFFFFFFFFFFFFFFFFFFFFFFFFFFFF40
:10607000FFFFFFFFFFFFFFFFFFFFFFFFFFFFFFFF30
:10608000FFFFFFFFFFFFFFFFFFFFFFFFFFFFFFFF20
:10609000FFFFFFFFFFFFFFFFFFFFFFFFFFFFFFFF10
:1060A000FFFFFFFFFFFFFFFFFFFFFFFFFFFFFFFF00
:1060B000FFFFFFFFFFFFFFFFFFFFFFFFFFFFFFFFF0
:1060C000FFFFFFFFFFFFFFFFFFFFFFFFFFFFFFFFE0
:1060D000FFFFFFFFFFFFFFFFFFFFFFFFFFFFFFFFD0
:1060E000FFFFFFFFFFFFFFFFFFFFFFFFFFFFFFFFC0
:1060F000FFFFFFFFFFFFFFFFFFFFFFFFFFFFFFFFB0
:10610000FFFFFFFFFFFFFFFFFFFFFFFFFFFFFFFF9F
:10611000FFFFFFFFFFFFFFFFFFFFFFFFFFFFFFFF8F
:10612000FFFFFFFFFFFFFFFFFFFFFFFFFFFFFFFF7F
:10613000FFFFFFFFFFFFD4CBFBE0FBE0FBE0FBE05A
:10614000FBE0FBE0FBE0FD6CFFFFFFFFFFFFFFFF5D
:10615000FFFFFFFFFFFFFFFFFFFFFFFFFFFFFFFF4F
:10616000FFFFFFFFFFFFFFFFFFFFFFFFFFFFFFFF3F
:10617000FFFFFFFFFFFFFFFFFFFFFFFFFFFFFFFF2F
:10618000FFFFFFFFFFFFFFFFFFFFFFFFFFFFFFFF1F
:10619000FFFFFFFFFFFFFFFFFFFFFFFFFFFFFFFF0F
:1061A000FFFFFFFFFFFFFFFFFFFFFFFFFFFFFFFFFF
:1061B000FFFFFFFFFFFFFFFFFFFFFFFFFFFFFFFFEF
:1061C000FFFFFFFFFFFFFFFFFFFFFFFFFFFFFFFFDF
:1061D000FFFFFFFFFFFFFFFFFFFFFFFFFFFFFFFFCF
:1061E000FFFFFFFFFFFFFFFFFFFFFFFFFFFFFFFFBF
:1061F000FFFFFFFFFFFFFFFFFFFFFFFFFFFFFFFFAF
:10620000FFFFFFFFFFFFFFFFFFFFFFFFFFFFFFFF9E
:10621000FFFFFFFFFFFFFFFFFFFFFFFFFFFFFFFF8E
:10622000FFFFFFFFFFFFFFFFFFFFFFFFFFFFFFFF7E
:10623000FFFFFFFFFFFFFFFFFFFFFFFFFFFFFFFF6E
:10624000FFFFFFFFFFFFFFFFFFFFFFFFFFFFFFFF5E
:10625000FFFFFFFFFFFFFFFFFFFFFFFFFFFFFFFF4E
:10626000FFFFFFFFFFFFFFFFFFFFFFFFFFFFFFFF3E
:10627000FFFFFFFFFFFFD4CBFBE0F3E1F3E1F3E12E
:10628000F3E1F3E1F3E1FD6CFFFFFFFFFFFFFFFF31
:10629000FFFFFFFFFFFFFFFFFFFFFFFFFFFFFFFF0E
:1062A000FFFFFFFFFFFFFFFFFFFFFFFFFFFFFFFFFE
:1062B000FFFFFFFFFFFFFFFFFFFFFFFFFFFFFFFFEE
:1062C000FFFFFFFFFFFFFFFFFFFFFFFFFFFFFFFFDE
:1062D000FFFFFFFFFFFFFFFFFFFFFFFFFFFFFFFFCE
:1062E000FFFFFFFFFFFFFFFFFFFFFFFFFFFFFFFFBE
:1062F000FFFFFFFFFFFFFFFFFFFFFFFFFFFFFFFFAE
:10630000FFFFFFFFFFFFFFFFFFFFFFFFFFFFFFFF9D
:10631000FFFFFFFFFFFFFFFFFFFFFFFFFFFFFFFF8D
:10632000FFFFFFFFFFFFFFFFFFFFFFFFFFFFFFFF7D
:10633000FFFFFFFFFFFFFFFFFFFFFFFFFFFFFFFF6D
:10634000FFFFFFFFFFFFFFFFFFFFFFFFFFFFFFFF5D
:10635000FFFFFFFFFFFFFFFFFFFFFFFFFFFFFFFF4D
:10636000FFFFFFFFFFFFFFFFFFFFFFFFFFFFFFFF3D
:10637000FFFFFFFFFFFFFFFFFFFFFFFFFFFFFFFF2D
:10638000FFFFFFFFFFFFFFFFFFFFFFFFFFFFFFFF1D
:10639000FFFFFFFFFFFFFFFFFFFFFFFFFFFFFFFF0D
:1063A000FFFFFFFFFFFFFFFFFFFFFFFFFFFFFFFFFD
:1063B000FFFFFFFFFFFFD4CCF3E1F3E1F3E1F3E1F3
:1063C000F3E1F3E1F3E1F56DFFFFFFFFFFFFFFFFF7
:1063D000FFFFFFFFFFFFFFFFFFFFFFFFFFFFFFFFCD
:1063E000FFFFFFFFFFFFFFFFFFFFFFFFFFFFFFFFBD
:1063F000FFFFFFFFFFFFFFFFFFFFFFFFFFFFFFFFAD
:10640000FFFFFFFFFFFFFFFFFFFFFFFFFFFFFFFF9C
:10641000FFFFFFFFFFFFFFFFFFFFFFFFFFFFFFFF8C
:10642000FFFFFFFFFFFFFFFFFFFFFFFFFFFFFFFF7C
:10643000FFFFFFFFFFFFFFFFFFFFFFFFFFFFFFFF6C
:10644000FFFFFFFFFFFFFFFFFFFFFFFFFFFFFFFF5C
:10645000FFFFFFFFFFFFFFFFFFFFFFFFFFFFFFFF4C
:10646000FFFFFFFFFFFFFFFFFFFFFFFFFFFFFFFF3C
:10647000FFFFFFFFFFFFFFFFFFFFFFFFFFFFFFFF2C
:10648000FFFFFFFFFFFFFFFFFFFFFFFFFFFFFFFF1C
:10649000FFFFFFFFFFFFFFFFFFFFFFFFFFFFFFFF0C
:1064A000FFFFFFFFFFFFFFFFFFFFFFFFFFFFFFFFFC
:1064B000FFFFFFFFFFFFFFFFFFFFFFFFFFFFFFFFEC
:1064C000FFFFFFFFFFFFFFFFFFFFFFFFFFFFFFFFDC
:1064D000FFFFFFFFFFFFFFFFFFFFFFFFFFFFFFFFCC
:1064E000FFFFFFFFFFFFFFFFFFFFFFFFFFFFFFFFBC
:1064F000FFFFFFFFFFFFD4AAFBE0FBE0FBE0FBE0B8
:10650000FBE0FBE0FBE0FD4BFFFFFFFFFFFFFFFFBA
:10651000FFFFFFFFFFFFFFFFFFFFFFFFFFFFFFFF8B
:10652000FFFFFFFFFFFFFFFFFFFFFFFFFFFFFFFF7B
:10653000FFFFFFFFFFFFFFFFFFFFFFFFFFFFFFFF6B
:10654000FFFFFFFFFFFFFFFFFFFFFFFFFFFFFFFF5B
:10655000FFFFFFFFFFFFFFFFFFFFFFFFFFFFFFFF4B
:10656000FFFFFFFFFFFFFFFFFFFFFFFFFFFFFFFF3B
:10657000FFFFFFFFFFFFFFFFFFFFFFFFFFFFFFFF2B
:10658000FFFFFFFFFFFFFFFFFFFFFFFFFFFFFFFF1B
:10659000FFFFFFFFFFFFFFFFFFFFFFFFFFFFFFFF0B
:1065A000FFFFFFFFFFFFFFFFFFFFFFFFFFFFFFFFFB
:1065B000FFFFFFFFFFFFFFFFFFFFFFFFFFFFFFFFEB
:1065C000FFFFFFFFFFFFFFFFFFFFFFFFFFFFFFFFDB
:1065D000FFFFFFFFFFFFFFFFFFFFFFFFFFFFFFFFCB
:1065E000FFFFFFFFFFFFFFFFFFFFFFFFFFFFFFFFBB
:1065F000FFFFFFFFFFFFFFFFFFFFFFFFFFFFFFFFAB
:10660000FFFFFFFFFFFFFFFFFFFFFFFFFFFFFFFF9A
:10661000FFFFFFFFFFFFFFFFFFFFFFFFFFFFFFFF8A
:10662000FFFFFFFFFFFFFFFFFFFFFFFFFFFFFFFF7A
:10663000FFFFFFFFFFFFE5F3FD6CFD6CFD6CFD6CE4
:10664000FD6CFD6CFD6CFE73FFFFFFFFFFFFFFFFA6
:10665000FFFFFFFFFFFFFFFFFFFFFFFFFFFFFFFF4A
:10666000FFFFFFFFFFFFFFFFFFFFFFFFFFFFFFFF3A
:10667000FFFFFFFFFFFFFFFFFFFFFFFFFFFFFFFF2A
:10668000FFFFFFFFFFFFFFFFFFFFFFFFFFFFFFFF1A
:106B7000FFFFFFFFFFFFFF5AFF7BFFFFFFFFFFFF4E
:106B8000FFFFFFFFFFFFFFFFFFFFFFFFFFFFFFFF15
:106B9000FFFFFFFFFFFFFFFFFFFFFFFFFFFFFFFF05
:106BA000FFFFFFFFFFFFFFFFFFFFFFFFFFFFFFFFF5
:106BB000FFFFFFFFFFFFFFFFFFFFFFFFFFFFFFFFE5
:106BC000FFFFFFFFFFFFFFFFFFFFFFFFFFFFFFFFD5
:106BD000FFFFFFFFFFFFFFFFFFFFFFFFFFFFFFFFC5
:106BE000FFFFFFFFFFFFFFFFFFFFFFFFFFFFFFFFB5
:106BF000FFFFFFFFFFFFFFFFFFFFFFFFFFFFFFFFA5
:106C0000FFFFFFFFFFFFFFFFFFFFFFFFFFFFFFFF94
:106C1000FFFFFFFFFFFFFFFFFFFFFFFFFFFFFFFF84
:106C2000FFFFFFFFFFFFFFFFFFFFFFFFFFFFFFFF74
:106C3000FFFFFFFFFFFFFFFFFFFFFFFFFFFFFFFF64
:106C4000FFFFFFFFFFFFFFFFFFFFFFFFFFFFFFFF54
:106C5000FFFFFFFFFFFFFFFFFFFFFFFFFFFFFFFF44
:106C6000FFFFFFFFFFFFFFFFFFFFFFFFFFFFFFFF34
:106C7000FFFFFFFFFFFFFFFFFFFFFFFFFFFFFFFF24
:106C8000FFFFFFFFFFFFFFFFFFFFFFFFFFFFFFFF14
:106C9000FFFFFFFFFFFFFFFFFFFFFFFFFFFFFFFF04
:106CA000FFFFFFFFFFFFFFFFFFFFFFFFFFFFFFFFF4
:106CB000FFFFFFFFFE11FBE0FC01FE74FFFFFFFF83
:106CC000FFFFFFFFFFFFFFFFFFFFFFFFFFFFFFFFD4
:106CD000FFFFFFFFFFFFFFFFFFFFFFFFFFFFFFFFC4
:106CE000FFFFFFFFFFFFFFFFFFFFFFFFFFFFFFFFB4
:106CF000FFFFFF5AFD8CFD4AFEB5FFFFFFFFFFFFC0
:106D0000FFFFFFFFFFFFFFFFFFFFFFFFFFFFFFFF93
:106D1000FFFFFFFFFFFFFFFFFFFFFFFFFFFFFFFF83
:106D2000FFFFFFFFFFFFFFFFFFFFFFFFFFFFFFFF73
:106D3000FF9CFF39FFDEFFFFFFFFFFFFFFFFFFFFAD
:106D4000FFFFFFFFFFFFFFFFFFFFFFFFFFFFFFFF53
:106D5000FFFFFFFFFFFFFFFFFFFFFFFFFFFFFFBD85
:106D6000FF7BFFFFFFFFFFFFFFFFFF18FE31FF5A12
:106D7000FFFFFFFFFFFFFFFFFDEFFD4AFFBDFFFF2E
:106D8000FFFFFFFFFFFFFFFFFFFFFFFFFFFFFFFF13
:106D9000FFFFFFFFFFFFFFFFFFFFFFFFFFFFFFFF03
:106DA000FFFFFFFFFFFFFFFFFFFFFFFFFFFFFFFFF3
:106DB000FFFFFFFFFFFFFFFFFFFFFFFFFF9CFF9CA9
:106DC000FFFFFFFFFFFFFFFFFFFFFFFFFFFFFFFFD3
:106DD000FFFFFFFFFFFFFFFFFFFFFFFFFFFFFFFFC3
:106DE000FFFFFFFFFFFFFFFFFFFFFFFFFFFFFFFFB3
:106DF000FFDFFD8DFBC0FBE0FBE0FBE0FDF0FFFFF4
:106E0000FFFFFFFFFFFFFFFFFFFFFFFFFFFFFFFF92
:106E1000FFFFFFFFFFFFFFFFFFFFFFFFFFFFFFFF82
:106E2000FFFFFFFFFFFFFFFFFFFFFFFFFFFFFFFF72
:106E3000FFBDFC44FBA0FBA0FBC0FE11FFFFFFFF5A
:106E4000FFFFFFFFFFFFFFFFFFFFFFFFFFFFFFFF52
:106E5000FFFFFFFFFFFFFFFFFFFFFFFFFFFFFFFF42
:106E6000FFFFFFFFFFFFFFFFFFFFFFFFFFDEFDAEA6
:106E7000FC22FBE0FC84FED6FFFFFFFFFFFFFFFFCD
:106E8000FFFFFFFFFFFFFFFFFFFFFFFFFFFFFFFF12
:106E9000FFFFFFFFFFFFFFFFFFFFFFFFFFDEFC85A0
:106EA000FC00FE74FFFFFFFFFEB5FBE0FBA0FC0152
:106EB000FEF7FFFFFFFFFE10FBA0FBA0FF39FFFF67
:106EC000FFFFFFFFFFFFFFFFFFFFFFFFFFFFFFFFD2
:106ED000FFFFFFFFFFFFFFFFFFFFFFFFFFFFFFFFC2
:106EE000FFFFFFFFFFFFFFFFFFFFFFFFFFFFFFFFB2
:106EF000FFFFFFFFFFFFFFFFFEB5FCC7FC22FC22E8
:106F0000FCC6FE74FFFFFFFFFFFFFFFFFFFFFFFF59
:106F1000FFFFFFFFFFFFFFFFFFFFFFFFFFFFFFFF81
:106F2000FFFFFFFFFFFFFFFFFFFFFFFFFFFFFFFF71
:106F3000FD4AFBA0FBE0FBE0FBE0FBE0FBA0FDADBE
:106F4000FFFFFFFFFFFFFFFFFFFFFFFFFFFFFFFF51
:106F5000FFFFFFFFFFFFFFFFFFFFFFFFFFFFFFFF41
:106F6000FFFFFFFFFFFFFFFFFFFFFFFFFFFFFFFF31
:106F7000FED6FBC0FBE0FBE0FBC0FC85FFFFFFFF94
:106F8000FFFFFFFFFFFFFFFFFFFFFFFFFFFFFFFF11
:106F9000FFFFFFFFFFFFFFFFFFFFFFFFFFFFFFFF01
:106FA000FFFFFFFFFFFFFFFFFFFFFFFFFDCFFB80A6
:106FB000FBE0FBE0FBA0FCA6FFFFFFFFFFFFFFFFE6
:106FC000FFFFFFFFFFFFFFFFFFFFFFFFFFFFFFFFD1
:106FD000FFFFFFFFFFFFFFFFFFFFFFFFFFFFFD2A98
:106FE000FB80FBE1FF18FFFFFDAFFB80FC00FB8097
:106FF000FDF0FFFFFEB5FBC0FBA0FDCFFFFFFFFFD5
:10700000FFFFFFFFFFFFFFFFFFFFFFFFFFFFFFFF90
:10701000FFFFFFFFFFFFFFFFFFFFFFFFFFFFFFFF80
:10702000FFFFFFFFFFFFFFFFFFFFFFFFFFFFFFFF70
:10703000FFFFFFFFFFFFFDEFFBA0FBC0FBE0FBE05E
:10704000FBC0FBA0FDAEFFFFFFFFFFFFFFFFFFFF49
:10705000FFFFFFFFFFFFFFFFFFFFFFFFFFFFFFFF40
:10706000FFFFFFFFFFFFFFFFFFFFFFFFFFFFFD4AE7
:10707000FBA0FBE0FBE0FBE0FBE0FBE0FBE0FBA0B8
:10708000FDADFFFFFFFFFFFFFFFFFFFFFFFFFFFF64
:10709000FFFFFFFFFFFFFFFFFFFFFFFFFFFFFFFF00
:1070A000FFFFFFFFFFFFFFFFFFFFFFFFFFFFFFFFF0
:1070B000FEB5FBC0FBE0FBE0FBC0FCA5FFFFFFFF54
:1070C000FFFFFFFFFFFFFFFFFFFFFFFFFFFFFFFFD0
:1070D000FFFFFFFFFFFFFFFFFFFFFFFFFFFFFFFFC0
:1070E000FFFFFFFFFFFFFFFFFFFFFE11FBC0FBE005
:1070F000FBE0FBE0FBC0FC64FFDEFFFFFFFFFFFFE8
:10710000FFFFFFFFFFFFFFFFFFFFFFFFFFFFFFFF8F
:10711000FFFFFFFFFFFFFFFFFFFFFFFFFFFFFFBDC1
:10712000FCA6FBA0FC64FFBDFF39FC01FBA0FC2218
:10713000FF7BFFFFFC64FB80FCE8FFFFFFFFFFFF1E
:10714000FFFFFFFFFFFFFFFFFFFFFFFFFFFFFFFF4F
:10715000FFFFFFFFFFFFFFFFFFFFFFFFFFFFFFFF3F
:10716000FFFFFFFFFFFFFFFFFFFFFFFFFFFFFFFF2F
:10717000FFFFFFFFFEB6FBC0FBE0FBE0FBA0FBC098
:10718000FBE0FBE0FBA0FE95FFFFFFFFFFFFFFFF23
:10719000FFFFFFFFFFFFFFFFFFFFFFFFFFFFFFFFFF
:1071A000FFFFFFFFFFFFFFFFFFFFFFFFFD4AFBA009
:1071B000FBE0FBE0FBE0FBE0FBE0FBE0FBE0FBE0F7
:1071C000FBA0FE31FFFFFFFFFFFFFFFFFFFFFFFF01
:1071D000FFFFFFFFFFFFFFFFFFFFFFFFFFFFFFFFBF
:1071E000FFFFFFFFFFFFFFFFFFFFFFFFFFFFFFFFAF
:1071F000FEB6FBC0FBE0FBE0FBC0FCA5FFFFFFFF12
:10720000FFFFFFFFFFFFFFFFFFFFFFFFFFFFFFFF8E
:10721000FFFFFFFFFFFFFFFFFFFFFFFFFFFFFFFF7E
:10722000FFFFFFFFFFFFFFFFFE11FBC0FBE0FBE0E6
:10723000FBE0FBE0FBA0FD8DFFFFFFFFFFFFFFFF7B
:10724000FFFFFFFFFFFFFFFFFFFFFFFFFFFFFFFF4E
:10725000FFFFFFFFFFFFFFFFFFFFFFFFFFFFFFFF3E
:10726000FF5AFC22FBA0FCE8FFFFFF5AFE73FF7BE6
:10727000FFFFFDADFBA0FC43FF7BFFFFFFFFFFFF18
:10728000FFFFFFFFFFFFFFFFFFFFFFFFFFFFFFFF0E
:10729000FFFFFFFFFFFFFFFFFFFFFFFFFFFFFFFFFE
:1072A000FFFFFFFFFFFFFFFFFFFFFFFFFFFFFFFFEE
:1072B000FFFFFFFFFD09FBC0FBE0FC01FDEFFDADA3
:1072C000FBE1FBE0FBA0FD4BFFFFFFFFFFFFFFFF2C
:1072D000FFFFFFFFFFFFFFFFFFFFFFFFFFFFFFFFBE
:1072E000FFFFFFFFFFFFFFFFFFFFFD8DFBA0FBE0A8
:1072F000FBE0FBE0FBE0FBE0FBE0FBE0FBE0FBE0B6
:10730000FBE0FBE0FE74FFFFFFFFFFFFFFFFFFFF5F
:10731000FFFFFFFFFFFFFFFFFFFFFFFFFFFFFFFF7D
:10732000FFFFFFFFFFFFFFFFFFFFFFFFFFFFFFFF6D
:10733000FEB6FBC0FBE0FBE0FBC0FCA5FFFFFFFFD0
:10734000FFFFFFFFFFFFFFFFFFFFFFFFFFFFFFFF4D
