:020000040800F2
:10000000483B00200101000865140008DD0F0008CE
:10001000C9130008AB070008BD200008000000005D
:10002000000000000000000000000000151600089D
:100030003D0900080000000067140008431700088D
:100040001B0100081B0100081B0100081B01000820
:100050001B0100081B0100081B0100081B01000810
:100060001B0100081B0100081B0100081B01000800
:100070001B0100081B0100081B0100081B010008F0
:100080001B0100081B0100081B0100081B010008E0
:100090001B0100081B0100081B0100081B010008D0
:1000A0001B0100081B0100081B0100081B010008C0
:1000B0001B0100081B010008000000001B010008D4
:1000C0001B01000800000000000000001B010008E8
:1000D000000000005D1F0008BD1F000800000000B8
:1000E0001B0100081B010008B1200008DFF80CD03C
:1000F00000F0C4FA00480047C1290008483B00202E
:100100000648804706480047FEE7FEE7FEE7FEE7B1
:10011000FEE7FEE7FEE7FEE7FEE7FEE7A5170008BD
:10012000ED0000082DE9FE4F804681EA0300C00F74
:100130000C46009021F0004123F00045B8EB02008E
:10014000A94105D24046214690461C460B46024630
:1001500023F00040104347D0270DC7F30A00C3F334
:100160000A510290401A019040286BDAC3F3130041
:1001700040F4801B0098924620B10023D2EB030A82
:1001800063EB0B0B01985946C0F14002504600F05A
:10019000B7F906460D4650465946019A00F0CFF988
:1001A00010EB08006141002487EA115284EAE773EA
:1001B0001A4340D0009A62B3019A012A4FEA0752CB
:1001C00015DC001B61EB02014FF0004202EA07520E
:1001D000CDE90042001C41F5801132462B4600F06B
:1001E000CFF903B0BDE8F08F40462146F9E7001B88
:1001F00061EB0201001C41F5801300185B412018DF
:10020000A2F5001747EB030140EAD570B6196D411E
:1002100011E06D084FEA360645EAC0754FEA07520D
:10022000001B61EB0201001C41F5801149084FEAF7
:1002300030000019514132462B4603B0BDE8F04F63
:1002400000F08FB90098012240000023D0EB020299
:1002500063EBE073009821464FEAE074B8EB0000CE
:1002600061EB0401E9E783F000435BE781F00041C3
:1002700058E72DE9FE4F81EA030404F0004421F021
:10028000004100944FF0000B23F0004350EA0104BA
:100290005ED052EA03045BD0C3F30A54C1F30A559B
:1002A0002C44A4F2F3340194A0FB0254C1F31301D3
:1002B00041F48011C3F3130343F4801301FB0244A0
:1002C00000FB034E840A970A44EA815447EA8357A5
:1002D000A4FB076802958D0A05FB07854FEA932C5E
:1002E00004FB0C542705029D4FEA065847EA1637CF
:1002F000B5EB08056EEB070C870E920E47EA8117E7
:1003000042EA8312A7FB0201B6EB0B0164EB000487
:100310002B0D43EA0C335E1844EB1C50DA46514671
:10032000E7FB0201C5F313044FEA0B3343EA14530E
:100330004FEA0432019C43EA0603A4F10C04029440
:10034000009CCDE900B400F01BF903B0BDE8F08FCC
:1003500000200146F9E72DE9F04D81EA030404F09D
:10036000004B21F0004514464FF0000A23F00041F5
:1003700050EA050220D054EA01021DD0C5F30A5705
:100380000246C5F31303C1F31300C1F30A5640F448
:10039000801543F48013A7EB0608101BD64608F21D
:1003A000FD3873EB050002D308F1010801E0921853
:1003B0005B41B8F1000F03DA00200146BDE8F08D83
:1003C00000204FF48011064684460EE0171B73EBA5
:1003D000050705D3121B63EB050306434CEA010C2A
:1003E00049084FEA300092185B4150EA0107EDD10D
:1003F00052EA030012D082EA040083EA05010843AE
:1004000005D0101BAB4106D20122002306E00022DA
:100410004FF0004302E06FF0010253101AEB0600A8
:100420004CEB085110EB0A0041EB0B01BDE8F04D1D
:1004300000F097B870B5C1F30A5201F000450024EE
:10044000C1F3130140F2FF3341F480119A4201DA03
:10045000002070BD40F233439A42A2F2334203DCE3
:10046000524200F05CF800E090402C43F1D0404252
:1004700070BD30B50B46014600202022012409E062
:1004800021FA02F59D4205D303FA02F5491B04FA4D
:1004900002F52844151EA2F10102F1DC30BD2DE960
:1004A000F05F0546002092469B46884606468146F8
:1004B00040241BE0284641464746224600F02FF8DC
:1004C00053465A46C01A914110D311461846224647
:1004D00000F016F82D1A67EB01084F46224601205E
:1004E000002100F00DF817EB00094E41201EA4F189
:1004F0000104DFDC484631462A464346BDE8F09F0A
:10050000202A04DB203A00FA02F1002070479140D3
:10051000C2F1200320FA03F3194390407047202AC8
:1005200004DB203A21FA02F00021704721FA02F39D
:10053000D040C2F120029140084319467047202A5A
:1005400006DBCB17203A41FA02F043EAE07306E0FB
:1005500041FA02F3D040C2F120029140084319460B
:10056000704710B5141E73F1000408DA401C41F105
:10057000000192185B411A4301D120F0010010BD27
:100580002DE9F04D92469B4611B1B1FA81F202E09D
:10059000B0FA80F220329046FFF7B2FF04460F46D1
:1005A00040EA0A0041EA0B0153465A46084313D079
:1005B000114653EA010019D0C8F140025046FFF736
:1005C000AEFF05460E46504659464246FFF798FF95
:1005D000084305D0012004E020463946BDE8F08DEF
:1005E0000020054346EAE0762C4337430A9863052A
:1005F000E40AA0EB08000022FD0A44EA47540A304E
:1006000002D500200146E9E7010510196941DDE93D
:10061000084500196941BDE8F04DA2E7C1F30A524F
:10062000C1F3130140F2FF3341F480119A4202DA20
:1006300000200146704740F233439A42A2F233420F
:1006400002DC5242FFF76BBFFFF75ABF30B5041E02
:1006500071F1000404DB4FF00044404264EB0101FF
:10066000141E73F1000405DB1C464FF00043524298
:1006700063EB0403994208BF904230BD064C074D1E
:1006800006E0E06840F0010394E807009847103462
:10069000AC42F6D3FFF72EFDE49C0008049D000851
:1006A00082B02DE9FF1FEFF3038001B4684600F12B
:1006B000400000E901400C480168C1F800D00B4837
:1006C000D0F800D001BC80F30388BDE8FF1F01B063
:1006D00000BD0648D0F800D001BC80F30388BDE817
:1006E000FF1F01B000BD00001C000020180000200A
:1006F0002DE9F04104460D4616461F462A2000F01B
:100700008DFDC4F3072000F083FDE0B200F080FD12
:10071000C6F3072000F07CFDF0B200F079FD2B203D
:1007200000F07CFDC5F3072000F072FDE8B200F098
:100730006FFDC7F3072000F06BFDF8B200F068FD15
:100740002C2000F06BFDBDE8F081000070B50C219D
:100750000D4801F0A1F804460C4E304605884FF6CE
:10076000FF70854207D100F049FC2146304600F079
:100770003DFC00F037FC05480588A54201D000206B
:1007800070BD0120FCE70000E8F7FF1F0C2A0008FD
:1007900006E04FF47A7100BF0A1EA1F10101FBD1FE
:1007A000021EA0F10100F4D1704700BFFEE7000077
:1007B0000FB42DE9F04186B0002501260027B002D4
:1007C00000F02AFE044654480078FF2801D1012099
:1007D00000E0002050490978504A1278914201D136
:1007E000012100E00021084300287DD00DA80590DC
:1007F0002046059A0C9901F063FC002005900DA895
:10080000059069460C9800F09DFB06462AE02846B4
:10081000691CCDB21DF80000012804D0022806D0C2
:1008200003281AD115E0059880C8059019E00598AD
:10083000C01D20F007000590D0E90021DDF814C0AC
:100840000CF1080C1046CDF814C0FFF7F3FD074675
:1008500007E0059880C8059003E0059880C80590DA
:1008600000BF00BF301EA6F10106D0D1059880C898
:100870000590002005902A480078FF2801D101202A
:1008800000E0002026490978B94201DB012100E09F
:100890000021084340B3214622A000F031FF224846
:1008A000007800F0020068B12049087800F096F95D
:1008B00040B1204600F086FB8046424621461C4857
:1008C00001F0E5FB1848007800F0040078B1174902
:1008D000487800F083F950B1204600F073FB804661
:1008E00042462146134800E00EE001F0D0FB1248DA
:1008F000006848B1204600F065FB00F0FF08414663
:1009000020460D4A12689047204600F05FFD06B071
:10091000BDE8F0015DF814FB540000202800002021
:10092000560000200D0A00005500002000000020A5
:100930000038014000440040500000207047000093
:1009400010B500201A4908704FF4A07000F064FD43
:1009500018490860002406E0FF2017490855174988
:100960000855601CC4B2052CF6DB00241DE00020F5
:100970001049096801EB4411486103200D490968D9
:1009800001EB4411087200200A49096801EB441187
:1009900008610849096801EB4411C8600549096804
:1009A00001EB44118861601CC4B20A2CDFDB10BD6E
:1009B000400000204400002000000020050000202E
:1009C0002C4909782C4A11702A490978491C294A6E
:1009D000117029490978294A1268274B1B7802EBC4
:1009E0004312117126A1254A1268234B1B7802EB92
:1009F000431211600021214A12681F4B1B7802EB41
:100A00004312517102221D4909681B4B1B7801EBEF
:100A10004311CA71012219490968174B1B7801EB70
:100A200043110A721849154A1268134B1B7802EBDE
:100A300043125161114909680F4A127801EB4211C2
:100A4000C86100220D4909680B4B1B7801EB43116B
:100A5000CA600021094A1268074B1B7802EB431257
:100A60001161002205490968034B1B7801EB431112
:100A70008A617047400000201400002044000020DC
:100A80004750494F00000000250E0008204800781C
:100A9000204908701E480078401C1D4908701EA09F
:100AA0001E4909681B4A127801EB421108600020B8
:100AB0001A490968174A127801EB4211487103205C
:100AC00016490968134A127801EB4211C8710121D5
:100AD000124800680F4A127800EB42100172104869
:100AE0000E4909680B4A127801EB42114861002057
:100AF0000A490968074A127801EB4211C86107499F
:100B00000968044A127801EB4211886170470000BD
:100B100040000020580000204C43440044000020C6
:100B2000BD14000810B5032124A0FFF741FE0024E6
:100B300041E02948006800EB44104069C8B32648EA
:100B4000006800EB4410C079012806D0022817D0B5
:100B500003280ED004282BD11EE01F4A126802EB96
:100B60004412107F1C4A126802EB441251698847F4
:100B70001EE01949096801EB44114869804717E0F4
:100B8000154A126802EB4412D069134A126802EB4C
:100B90004412516988470BE00F4A126802EB441275
:100BA000D0690D4A126802EB44125169884700BFB0
:100BB00000BF601CC4B20A2CBBDB10BD546F732095
:100BC00044657669636520496E69742E2E2E2E2E3B
:100BD0002E2E2E2E2E000000440000200146FF295C
:100BE00001D1002070470548006800EB41104069C2
:100BF00008B90020F6E70120F4E7000044000020D7
:100C000001490860704700001404014004200B49AA
:100C1000C96801F0010109B101200EE00749C96866
:100C200001F0040109B1022007E00449C96801F09C
:100C3000100109B1032000E00420704700200240A9
:100C40000348006940F080000149086170470000D6
:100C50000020024070B504460D460426F00200F064
:100C600025F80646042E11D10948006940F001001C
:100C7000074908612580F00200F018F8064604488C
:100C8000006941F6FE71084001490861304670BDB7
:100C9000002002400248034948600348486070470A
:100CA0002301674500200240AB89EFCD00B5024625
:100CB0000423FFF7ABFF034603E0FFF7A7FF03465C
:100CC000521E012B01D1002AF7D102B90523184683
:100CD00000BD70B504460025107820B11678206854
:100CE000B0FBF6F085B22068084420601078984286
:100CF00003DA1078401C107002E02068401B20606E
:100D000016782068B0FBF6F080B270BD2DE9F04196
:100D1000024600250026002000230024002791F829
:100D200003C00CF00F0591F803C00CF0100CBCF1DF
:100D3000000F03D091F802C04CEA050591F800C0FD
:100D4000BCF1000F31D0146800202BE04FF0010CF3
:100D50000CFA00F3B1F800C00CEA03069E4220D161
:100D600083004FF00F0C0CFA03F7BC4305FA03FCA9
:100D70004CEA040491F803C0BCF1280F06D14FF0EF
:100D8000010C0CFA00FCC2F814C00AE091F803C090
:100D9000BCF1480F05D14FF0010C0CFA00FCC2F871
:100DA00010C0401C0828D1D31460B1F800C0BCF1B9
:100DB000FF0F34DD546800202EE000F1080C4FF0E6
:100DC000010808FA0CF3B1F800C00CEA03069E42D1
:100DD00021D183004FF00F0C0CFA03F7BC4305FA46
:100DE00003FC4CEA040491F803C0BCF1280F05D1C0
:100DF00000F1080C08FA0CF8C2F8148091F803C04E
:100E0000BCF1480F07D100F1080C4FF0010808FAB7
:100E10000CF8C2F81080401C0828CED35460BDE8FE
:100E2000F081000038B50446002536E01D4A6068B0
:100E3000811A904217D009DC1B49084468B1B0F50B
:100E4000806F0CD0B0F5006F13D10AE0B1F5806F60
:100E50000BD0B1F5006F0CD109E0042509E008259D
:100E600007E0102505E0202503E0402501E080256E
:100E700000BF00BF45F00100012100F0F5FA207825
:100E80008DF802002089ADF8000060788DF803002D
:100E900069466068FFF73AFF0C3420780028C5D116
:100EA00038BD00000014014000F8FEBFF0B50A464E
:100EB000002300240021002500F00046B6F1004F79
:100EC00002D11D4EF16901E01B4E7168C0F303456C
:100ED00083B200F44016B6F5401F08D121F07061CE
:100EE000154E766826F07066134F7E6012E000F4AF
:100EF0008016B6F5801F06D1032606FA05F4A14335
:100F000041F0706106E0460D360103FA06F6B14382
:100F100041F0706122B1460D360103FA06F6314305
:100F200000F00046B6F1004F02D1034EF16101E03E
:100F3000014E7160F0BD000000000140416170474A
:100F400001617047F0B504460A46002300200025E1
:100F5000214633E00E78252E02D10125461CB0B281
:100F6000012D2AD10E78642E06D1AC461E465F1C98
:100F7000BBB202F806C000250E78662E07D14FF0EE
:100F8000020C1E465F1CBBB202F806C000250E789C
:100F9000732E07D14FF0030C1E465F1CBBB202F844
:100FA00006C000250E78632E07D14FF0040C1E46B4
:100FB0005F1CBBB202F806C00025491C0E78002E4B
:100FC000C8D1F0BD10B5014600200A4601E0431C1F
:100FD00098B212F8014B002CF9D110BD01E000F0DD
:100FE000DFF9FCE710B5FFF72BFE10BD70B5044626
:100FF0000D4629462046FFF72DFE70BD10B5FFF7C0
:1010000049FE10BD10B545F2555000F029F80620F4
:1010100000F01AF84FF47F6000F01CF800F00CF8B4
:1010200000F002F810BD00004CF6CC400149086009
:1010300070470000003000404AF6AA2001490860CD
:1010400070470000003000400149486070470000D0
:1010500000300040014988607047000000300040C7
:1010600001490860704700000030004010B50121C0
:101070006548FFF763FF642000F0BEFD0121624870
:10108000FFF75EFF642000F0B7FD10215F48FFF717
:1010900055FF642000F0B0FD642000F0ADFD362067
:1010A00000F0BCF8702000F0B3F83A2000F0B6F879
:1010B000052000F0ADF8B22000F0B0F80C2000F0F0
:1010C000A7F80C2000F0A4F8002000F0A1F83320CD
:1010D00000F09EF8332000F09BF8B72000F09EF857
:1010E000352000F095F8BB2000F098F8192000F0AA
:1010F0008FF8C02000F092F82C2000F089F8C22070
:1011000000F08CF8012000F083F8C32000F086F88E
:10111000122000F07DF8C42000F080F8202000F0BC
:1011200077F8C62000F07AF80F2000F071F8D02090
:1011300000F074F8A42000F06BF8A12000F068F82B
:10114000E02000F06BF8D02000F062F8042000F0FE
:101150005FF80D2000F05CF8112000F059F8132022
:1011600000F056F82B2000F053F83F2000F050F824
:10117000542000F04DF84C2000F04AF8182000F000
:1011800047F80D2000F044F80B2000F041F81F2034
:1011900000F03EF8232000F03BF8E12000F03EF89C
:1011A000D02000F035F8042000F032F80C2000F0D8
:1011B0002FF8112000F02CF8132000F029F82C2033
:1011C00000F026F83F2000F023F8442000F020F83B
:1011D000512000F01DF82F2000F01AF81F2000F019
:1011E00017F81F2000F014F8202000F011F8232039
:1011F00000F00EF8212000F011F8112000F00EF898
:10120000292000F00BF810BD000C0140000801403F
:1012100010B50446204600F0B5F810BD10B50446E0
:10122000204600F0B6F810BD70B5044610211048F5
:10123000FFF784FEEF231A4600210846FFF758FA0D
:101240002C2000F0A6F802210A48FFF779FE0826B4
:1012500005E0254608498D8100BF8D81761CB6F5D5
:10126000E13FF6D310210248FFF76AFE70BD00008F
:1012700000080140000C0140003001402DE9F0471A
:1012800007468846144610211A48FFF757FEE078B3
:10129000A17840EA01266079217940EA012508EB2E
:1012A0000500431EB819421E41463846FFF720FA92
:1012B0002C2000F06EF802210F48FFF741FE6E432C
:1012C00008250DE028466D1C14F800900B48A0F886
:1012D0000C9028466D1C14F800900848A0F80C905B
:1012E000301EA6F10106EDD110210248FFF728FEBD
:1012F000BDE8F08700080140000C014000300140CB
:101300002DE9F04707468846144610211A48FFF792
:1013100015FEE078A17840EA01266079217940EA5B
:10132000012508EB0500431EB819421E4146384608
:10133000FFF7DEF92C2000F02CF802210F48FFF710
:10134000FFFD6E4308250CE028466D1C14F8009044
:1013500000200B49888128466D1C14F8009000205D
:101360008881301EA6F10106EED110210248FFF758
:10137000E7FDBDE8F087000000080140000C0140D7
:101380000030014010B504460021204600F01EF94F
:1013900010BD10B504460121204600F017F910BD1C
:1013A00071B600BF0648006800F4E06005490843D4
:1013B000001D03490860BFF34F8F00BF00BFFEE769
:1013C0000CED00E00000FA0500BFFEE702460A4B04
:1013D0001868002106E0A2F10803834200D107E06B
:1013E000014600680368002BF5D101B10B6070471E
:1013F00003680B6000BFFAE7480000200549086059
:101400000021044A126811600821024A12685160E2
:10141000704700004800002010B5034610480168DE
:1014200003F1080083B20FE00868401A4C68001B03
:10143000984208D3486842185360086810600A60F0
:1014400002F1080010BD096808680028ECD148685E
:1014500042180020106053600A6002F10800F1E7B2
:10146000480000207047704729B1064A926902433C
:10147000044B9A6104E0034A92698243014B9A61EA
:10148000704700000010024010B501210148FFF72D
:101490000DFD10BD0002300021B1028842F0400273
:1014A000028004E002884FF6BF731A400280704742
:1014B00000BF011EA0F10100FBD1704700B587B04D
:1014C000012141F20400FFF7CFFF0121214800F084
:1014D00070F8B020ADF8040018208DF80700032044
:1014E0008DF8060001A91C48FFF710FC40F20340EC
:1014F000ADF8040010208DF8070003208DF80600D9
:1015000001A91648FFF702FC0020ADF808004FF4CF
:101510008270ADF80A000020ADF80C000220ADF892
:101520000E000120ADF810004002ADF812000020BE
:10153000ADF81400ADF816000720ADF8180002A9A8
:10154000044800F018F801210248FFF7A5FF07B092
:1015500000BD00000030014000080140000C0140C7
:101560000246002013890B400BB1012000E000204F
:1015700070478181704710B50022028802F4415201
:101580000B884C8823438C882343CC8823430C89C5
:1015900023434C8923438C892343CC8923431A4317
:1015A0000280838B4FF2FF74234083830B8A038274
:1015B00010BD21B1828842F00402828004E082885A
:1015C0004FF6FB731A4082807047000070B50446E6
:1015D0000D4625B102210D48FFF7B0FC03E00221C2
:1015E0000A48FFF7ADFC0A20FFF762FF00BF0221A7
:1015F0000748FFF7B5FF0028F9D021460448FFF758
:10160000B8FF0A20FFF754FF70BD0000000C014036
:1016100000300140704710B500F002F810BD000026
:101620000CB50020019000903348006840F48030F1
:101630003149086000BF3048006800F40030009075
:101640000198401C0190009818B90198B0F5A06F5E
:10165000F1D12948006800F4003010B10120009059
:1016600001E0002000900098012843D12348006841
:1016700040F01000214908600846006820F003008F
:1016800008600846006840F0020008601A48406898
:10169000194948600846406848600846406840F478
:1016A000806048600846406820F47C104860084626
:1016B000406840F4E81048600846006840F08070D8
:1016C000086000BF0C48006800F000700028F9D0E6
:1016D0000948406820F00300074948600846406810
:1016E00040F00200486000BF0348406800F00C0072
:1016F0000828F9D10CBD0000001002400020024073
:101700002DE9F04106460D462C4637462846FFF7A0
:1017100059FC04443046FFF755FC804608F10100AF
:1017200008B9BDE8F08103E017F8010B04F8010BDC
:10173000B8F10000A8F10108F6D104F8010B00BFD0
:10174000EFE710B500F09AF910BD000030B512496E
:10175000B1F1807F00D31DE021F07F40401E4FF0AB
:10176000E022506150170F22002807DA13071D0EE0
:101770000A4B00F00F04241F1D5503E013071C0E35
:10178000074B1C5400BF00204FF0E022906107205F
:10179000106100BF30BD00004019010018ED00E0ED
:1017A00000E400E010B51348006840F00100114962
:1017B000086008464068104908400E4948600846DD
:1017C00000680E4908400B4908600846006820F48C
:1017D000802008600846406820F4FE0048604FF40E
:1017E0001F008860FFF717FF4FF000600449086092
:1017F00010BD0000001002400000FFF8FFFFF6FEE1
:1018000008ED00E00024FFF73FFEFFF72FFCFF206C
:10181000FFF70AFD3CE004F0080028B11D4A002152
:101820000846FFF72BFD04E01A4A00210846FFF79F
:1018300067FD04F0040028B1164A78210020FFF764
:101840001DFD04E0134A78210020FFF759FD04F044
:10185000020028B10F4A00217820FFF70FFD04E0B5
:101860000C4A00217820FFF74BFD04F0010028B15D
:10187000084A78210846FFF701FD04E0054A78216F
:101880000846FFF73DFD641C4FF4967000F0B4F974
:10189000C1E70000102C0008F0B502460C46FF21FD
:1018A000FF2500260BE012F8017B87EA0503084FAD
:1018B000FF5C87EA0105074FF95C771CBEB2A642C0
:1018C000F1DB08464FF6FF7707EA00202843F0BD1A
:1018D0000E2A00080E2B000810B5104800781328B7
:1018E00004D00F480078401C0D4908700D4800785E
:1018F000401C0C4908700846007864280DDD002063
:1019000008701423084A064801780848FFF7E1F9EF
:101910000749087000200249087010BD2800002007
:101920003C0000203400002035000020380000205A
:101930002000002010B54FF47070FFF76DFD1E49B8
:10194000086002201D49487000204860002428E0FB
:10195000012004EB4401184A126802EB01110881CE
:10196000002004EB4401144A126802EB0111886163
:10197000002104EB4400104A126802EB00100160E1
:10198000002004EB44010C4A126802EB0111C8610B
:1019900004EB4401084A126802EB01110884601C40
:1019A000C4B2142CD4DB132005490870002005496B
:1019B00008600549086010BD2C00002020000020B0
:1019C00028000020300000204C00002070B50446A4
:1019D000FFF7B0FF04E094E80F0000F0DBF81034EC
:1019E00020680028F7D100F031F870BD10B504462A
:1019F000FFF798F8FFF706FBFEF7A8FE00B910BD49
:101A000006E0FFF719FB642000F0F6F800F002F89A
:101A1000F7E7000010B50C48046804B910BD0EE0EB
:101A20002468A07A00F0010048B1A07A00F002001A
:101A300028B1E0688047A07A20F00200A0722068F8
:101A40000028EDD100BFE9E74C00002008B5FFF702
:101A50007DFE4FF4FA6005A3002207490090132091
:101A600000F030F8132000F0B9F908BD5461736B31
:101A7000526F6F7400000000ED19000810B5FFF7F9
:101A80002BFF00F0E9F808484078402805D10321F1
:101A900006A0FEF78DFEFFF783FC0948006808B139
:101AA00000F032FA10BD000020000020544F5320F7
:101AB00054696D654F75742052657365740000003C
:101AC0004C0000202DE9F04704460D4691461F4684
:101AD000DDF820800DB9BDE8F08704EB44002C4907
:101AE000096801EB00100089012800D0F3E704EB3E
:101AF00044002749096801EB0010008C98B91FFACF
:101B000088F0FFF789FC064604EB4401204A12687E
:101B100002EB0111A1F8208004EB44011C4A126879
:101B200002EB0111CE6104EB4402194B1B6803EB7D
:101B30000212118C04EB4402154B1B6803EB0212DA
:101B4000D06900F0ADF98246022104EB4400104A4E
:101B5000126802EB0010018104EB44000C49096893
:101B600001EB0010456004EB44000949096801EBF2
:101B70000010C7624A462946504600F0F7F804EBC9
:101B80004401034A126802EB0111086000BFA2E79A
:101B90002C0000202DE9F84305460E4617469846CE
:101BA00000241AE004EB44001249096801EB00101C
:101BB000008900B912E004EB44000E49096801EB0A
:101BC00000100089012800D108E0601C80B20446A2
:101BD000142802DB0020BDE8F883E3E700BFE0B291
:101BE0003B4632462946CDF80080FFF76BFF0120C7
:101BF000F1E700002C00002010B50446134840789F
:101C000001281FD000201249097801EB4101114A37
:101C1000126802EB011188610D48007800EB40006A
:101C20000C49096801EB0010446110210848007854
:101C300000EB4000074A126802EB0010018100F03F
:101C4000DFF802E02046FEF7A3FD10BD20000020D3
:101C5000280000202C000020002056E000EB40016E
:101C60002B4A126802EB01110989022902D01029BE
:101C700047D11DE000EB4001254A126802EB01113B
:101C80008969491C00EB4002214B1B6803EB0212DF
:101C9000916100EB40011E4A126802EB0111896953
:101CA00044F62062914202D940211A4A517029E03B
:101CB000002100EB4002164B1B6803EB02129161FE
:101CC00000EB4001124A126802EB0111496941B967
:101CD000022100EB40020E4B1B6803EB0212118144
:101CE0000EE000EB40010A4A126802EB011149695B
:101CF000491E00EB4002064B1B6803EB02125161C8
:101D000000E000BF00BF411CC8B21428A6DB70472A
:101D10002C0000202000002010B504460F48007859
:101D2000A04200D110BD0D48007800EB40000C49E6
:101D3000096801EB00100B4908600848047000783E
:101D400000EB40000649096801EB001000680649F5
:101D50000860FEF7A5FC00BFE4E7000028000020B3
:101D60002C0000201C0000201800002030B5034685
:101D70001846041F20462160041F204623600025CA
:101D8000041F20462560041F20462560041F2046AE
:101D90002560041F20462560041F20462560041F7F
:101DA00020462560041F20462560041F204625602C
:101DB000041F20462560041F20462560041F20467E
:101DC0002560041F20462560041F204622604FF036
:101DD0008075041F2046256030BD000010B5044604
:101DE00004EB44000449096801EB00100068034952
:101DF0000860FEF76EFC10BD2C00002018000020CB
:101E000010B5022123480068A0F8981300243DE093
:101E100004EB44001F49096801EB00100089022807
:101E200002D020282ED107E01B480078A04202D023
:101E30002046FFF771FF10BD04EB44001549096807
:101E400001EB001090F822001449096801EB4010E2
:101E5000007A012815D1102004EB44010D4A1268C4
:101E600002EB01110881032004EB4401094A1268C6
:101E700002EB011191F82210084A126802EB41119D
:101E8000087200E000BF00BF601CC4B2142CBFDBAE
:101E900000BFD0E72C0000202800002044000020D4
:101EA0000246501820F00303A3F1300020F0070091
:101EB0007047000010B5142800DB10BD00EB400295
:101EC000104B1B6803EB02121289042A00D1F4E7BD
:101ED000002200EB40030B4C246804EB03139A61CF
:101EE000102300EB4002074C246804EB021213811C
:101EF00000EB4002034B1B6803EB0212516100BF71
:101F0000DBE700002C00002010B51348006800B982
:101F100010BD11480068E0B10F480068807A00F0F9
:101F20000100B0B10C48006800890B490968898834
:101F3000884207DB08490968C868804700200649CD
:101F400009680881044800680089401C0249096842
:101F5000088100BFDCE700004C00002010B540F213
:101F60002551114800F069F8C0B10F48001D0088E4
:101F7000C4B20E4800880E490988884213DA0B481B
:101F800001880088401C094A10800A4800684454AF
:101F9000094908780A21FFF78DFF04E040F2255136
:101FA000014800F03BF810BD003801408E000020D1
:101FB000840000205C0000200F00002010B540F2DB
:101FC0002551114800F039F8C0B10F48001D0088B4
:101FD000C4B20E4840880E494988884213DA0B483B
:101FE00041884088401C094A50800A48406844544F
:101FF000094948780A21FFF75DFF04E040F22551C6
:10200000014800F00BF810BD004400408E00002095
:10201000840000205C0000200F00002010B500228A
:10202000002340F66A14A14200D100BF0A12012425
:102030009440A3B2DC43048010BD70B50246002476
:1020400000230025002040F66A16B14200D100BFEF
:10205000C1F3421501F01F03012606FA03F3012D17
:1020600002D19689334006E0022D02D1168A334010
:1020700001E0968A33400C12012606FA04F4168811
:10208000344013B10CB1012000E0002070BD10B548
:102090000B46002109E000BF048804F08004002CF6
:1020A000FAD05C5C84804C1CA1B29142F3DB10BD81
:1020B00010B54FF48020FEF7A3FD10BD00BFFEE772
:1020C00037B514460846064B6A46214600F0DCF850
:1020D00004466946002000F06EFC20463EBD00002C
:1020E000B729000802E008C8121F08C1002AFAD167
:1020F00070477047002001E001C1121F002AFBD188
:10210000704700002DE9FF5F82B00021DDE9043057
:10211000020DDDF840B0034318D044F61050A2F28F
:10212000FF3242431514119801281FD0A5EB0B0074
:10213000401C5FEA000A4FF000064E4FDFF838916E
:10214000B046504615D5CAF1000413E01198012499
:102150004AA3012801D16FEA0B010298119AC0E944
:102160000031C0E9024206B0BDE8F09FCBF10000AB
:10217000DFE704460021404A491842EB0450CDE90C
:10218000001012E0E00707D032463B464046494681
:10219000FEF76FF88046894632463B4610461946A0
:1021A000FEF767F806460F466410002CEAD1DDE919
:1021B0000401DDE90023BAF1000F06DAFEF759F851
:1021C00042464B46FEF755F805E0FEF7C4F8424696
:1021D0004B46FEF7C0F804460E460022284BFEF799
:1021E00035FA03D84FF0FF30014607E00022254BB7
:1021F00020463146FDF796FFFEF710FA102409E05D
:10220000002C0ADB0A220023FEF749F9039B303237
:102210001A55641E50EA0102F2D1641C039AC4F1FB
:1022200011031444119A012A03D0012208430DD14D
:102230000AE0084304D000204FF0110B119072E720
:10224000A3EB0B056D1E0DE05B4504DD4FF00002B6
:1022500005F1010504E003DA4FF00002A5F10105E4
:10226000002AECD002981199C0E90231C0E900457A
:1022700079E70000000014400000F03F300000004B
:102280000000F0430000E03F2DE9FF4F95B09B4672
:102290008946064600250FE2252877D100242746E7
:1022A000F84A0121059400E0044316F8013F203B61
:1022B00001FA03F01042F7D130782A2811D06FF0DC
:1022C0002F033078A0F13002092A16D8059A44F07D
:1022D000020402EB820203EB42021044761C0590DA
:1022E000EFE759F8042B0592002A03DA504244F430
:1022F0000054059044F00204761C30782E2816D144
:1023000016F8010F44F004042A280DD06FF02F02B4
:102310003078A0F13003092B09D807EB870302EBD3
:102320004303C718761CF3E759F8047B761C307812
:102330006C280FD006DC4C2817D068280DD06A28EE
:1023400014D104E0742810D07A280FD10DE044F4A1
:1023500000140AE044F4801401E044F4401472785C
:10236000824202D104F58014761C761C30786628EF
:102370000BD013DC582877D009DC002875D045280D
:10238000F6D04628F4D047281AD19DE118E06328FA
:1023900035D0642879D0652812D195E1702873D0A2
:1023A00008DC6728F1D069286FD06E280DD06F281F
:1023B00006D1B5E073282CD0752875D0782874D054
:1023C0005A46179990476D1C75E1C4F302500228D4
:1023D00009D003280DD0D9F8001004280DD00D60C5
:1023E00009F1040967E1D9F80010EA17C1E90052C0
:1023F000F6E7D9F800100D80F2E70D70F0E719F854
:10240000041B8DF8001000208DF80100EA46012021
:1024100003E059F804AB4FF0FF3061074FF00001C3
:1024200002D40DE008F101018846B9420FDA804577
:10243000F8DB1AF808100029F4D108E008F10101CE
:1024400088468142FADB1AF808100029F6D105986F
:102450005B46A0EB080721463846179A00F094FA2D
:10246000284400EB080507E04DE029E10DE01AF8EB
:10247000010B5A4617999047B8F10108F7D25B460D
:1024800021463846179A13E142E00A220092C4F32B
:1024900002524FF0000A022A08D059F804CB032A4E
:1024A0004FEAEC710AD00DE029E02AE009F10701BA
:1024B00021F00702F2E802C1914609E00FFA8CFC14
:1024C0004FEAEC71042A03D14FFA8CFC4FEAEC710D
:1024D000002907DA0A460021DCF1000C61EB020159
:1024E0002D2202E0220504D52B228DF804200122A2
:1024F00003E0E20701D02022F7E7904659E00A21E5
:1025000002E010220DE010214FF0000A00910BE0D4
:1025100010224FF0000A44F004040827009203E060
:1025200008224FF0000A0092C4F30252022A05D09A
:1025300059F804CB0021032A08D009E009F107016A
:1025400021F00702F2E802C1914605E01FFA8CFC77
:10255000042A01D10CF0FF0C4FF00008220728D507
:10256000702806D0009B83F0100353EA0A0305D0BD
:102570000EE040228DF80420012208E05CEA01020E
:1025800006D030228DF804208DF8050002229046F6
:10259000009B83F0080353EA0A030AD15CEA0102B4
:1025A00001D1620705D530228DF804204FF00108D3
:1025B0007F1E582804D034A003900EA802900DE08E
:1025C00036A0F9E753466046009AFDF768FF844657
:1025D0000398825C0298401E029002705CEA01003F
:1025E000F0D1029806A9081A00F1200A600702D566
:1025F00024F4803400E00127574502DDA7EB0A00F0
:1026000000E0002000EB0A01009005984144401AC8
:102610000590E00306D45B462146179A059800F022
:10262000B3F90544002706E001A85A46C05D179992
:1026300090476D1C7F1C4745F6DBE0030CD55B46DD
:102640002146179A059800F09FF9054404E03020D0
:102650005A46179990476D1C0099481E0090002912
:10266000F5DC08E0029802995A460078491C02916C
:10267000179990476D1CBAF10001AAF1010AF1DC2B
:1026800065E1000009280100303132333435363736
:1026900038396162636465660000000030313233AE
:1026A000343536373839414243444546000000004E
:1026B00000F058F90544761C307800287FF4ECAD22
:1026C00019B02846BDE8F08F620700D4062709F14B
:1026D000070222F0070CFCE80223E14603F0004861
:1026E0005FEA080C02D00FF2702C0DE05FEA045C88
:1026F00002D50FF2682C07E05FEAC47C02D00FF22B
:10270000602C01E0AFF2700C4FF0FF3823F0004373
:10271000CDF850C065280CD006DC452809D04628E5
:102720001DD047283DD13DE0662818D067287ED1CE
:1027300038E00021112F01DB112000E0781CCDE9E9
:10274000000106A90EA8FFF7DDFCDDE90F010E9AD6
:1027500003910021009207F1010A04914DE04FF02E
:1027600000400097CDE9011006A90EA8FFF7CAFCAA
:10277000DDE90F0203920E9B11990022DDF80CA0F7
:102780000093049211B9791C00EB010AB7EB0A001F
:1027900004D4C0F1FF3007F1010A0490AAEB07004E
:1027A000019044E0012F00DA01270021112F01DD03
:1027B000112000E03846CDE9000106A90EA8FFF778
:1027C000A1FCDDE90F010E9A039100210491009212
:1027D000BA4621070CD40399514500DA8A46BAF16A
:1027E000010F05DD009AAAF10101515C302908D0E2
:1027F000B84202DA10F1040F06DA0121CDE9011026
:1028000015E0AAF10101E9E7002805DC049901447B
:102810000491AAEB000102E0411C514500DD8A460B
:102820000499401A401C01904FF00040029020078C
:1028300004D40198504501DBCDF8048000208DF8C8
:102840004F0002980DF14F07B0F1004F25D02B201B
:102850000E9002984FF0020800280CDA40420290D5
:102860002D200E9007E00A210298FDF702FE30317C
:10287000029007F8011DB8F10001A8F10108F2DC8F
:1028800002980028EFD1791E0E980870307800F079
:10289000200040F0450007F8020D12A8C01B00F10F
:1028A00007081498007800B1012000EB0A01019894
:1028B00001EBE07105984144401A401E0590E00389
:1028C00006D45B462146179A059800F05DF805444A
:1028D0001498007818B15A46179990476D1CE00378
:1028E00024D55B462146179A059800F04DF805441B
:1028F0001CE00498002807DBDDE90301884203DDC2
:102900000098405C179901E0179930205A4690478B
:10291000049805F10105401C04900198401E0190A7
:1029200004D12E205A46179990476D1CBAF1000128
:10293000AAF1010ADDDC05E017F8010B5A461799E8
:1029400090476D1CB8F10001A8F10108F4DC5B466A
:102950002146179A0598ABE62D0000002B000000D9
:10296000200000002DE9F041044600251E461746D0
:10297000880404D405E039462020B0476D1C641E4D
:10298000F9D52846BDE8F0812DE9F041044600253F
:102990001E469046C80301D5302700E02027880452
:1029A00004D505E041463846B0476D1C641EF9D594
:1029B0002846BDE8F0810A68531C0B601070704710
:1029C0000748FEF71BFDFDF7BBFF0648FDF7F8FFC4
:1029D000FEF75CF80448FEF7F9FF00BFFEE70000D1
:1029E00098000020B89C0008989C0008685551F495
:1029F0006662386B2324391F42446184B244133623
:102A0000198E50C6412529BB9E528748FFFF00C141
:102A1000814001C0804101C0804100C1814001C0AE
:102A2000804100C1814000C1814001C0804101C09E
:102A3000804100C1814000C1814001C0804100C18E
:102A4000814001C0804101C0804100C1814001C07E
:102A5000804100C1814000C1814001C0804100C16E
:102A6000814001C0804101C0804100C1814000C15E
:102A7000814001C0804101C0804100C1814001C04E
:102A8000804100C1814000C1814001C0804101C03E
:102A9000804100C1814000C1814001C0804100C12E
:102AA000814001C0804101C0804100C1814000C11E
:102AB000814001C0804101C0804100C1814001C00E
:102AC000804100C1814000C1814001C0804100C1FE
:102AD000814001C0804101C0804100C1814001C0EE
:102AE000804100C1814000C1814001C0804101C0DE
:102AF000804100C1814000C1814001C0804100C1CE
:102B0000814001C0804101C0804100C1814000C0BE
:102B1000C101C30302C2C60607C705C5C404CC0C65
:102B20000DCD0FCFCE0E0ACACB0BC90908C8D818D5
:102B300019D91BDBDA1A1EDEDF1FDD1D1CDC14D4E5
:102B4000D515D71716D6D21213D311D1D010F03015
:102B500031F133F3F23236F6F737F53534F43CFC25
:102B6000FD3DFF3F3EFEFA3A3BFB39F9F83828E8D5
:102B7000E929EB2B2AEAEE2E2FEF2DEDEC2CE424A5
:102B800025E527E7E62622E2E323E12120E0A06015
:102B900061A163A3A26266A6A767A56564A46CACE5
:102BA000AD6DAF6F6EAEAA6A6BAB69A9A86878B855
:102BB000B979BB7B7ABABE7E7FBF7DBDBC7CB47465
:102BC00075B577B7B67672B2B373B17170B0509015
:102BD00091519353529296565797559594549C5CA5
:102BE0005D9D5F9F9E5E5A9A9B5B99595898884855
:102BF00049894B8B8A4A4E8E8F4F8D4D4C8C448425
:102C00008545874746868242438341818040000054
:102C1000101000780078011BFFDFFFDFFFDFFFDF10
:102C2000FFDFFFDFFFDFFFDFFFDFFFDFFFDFFFDFB4
:102C3000FFDFFFDFFFDFFFDFFFDFFFDFFFDFFFDFA4
:102C4000FFDFFFDFFFDFFFDFFFDFFFDFFFDFFFDF94
:102C5000FFDFFFDFFFDFFFDFFFDFFFDFFFDFFFDF84
:102C6000FFDFFFDFFFDFFFDFFFDFFFDFFFDFFFDF74
:102C7000FFBEF6D9EDB2ED91F613FE75FE75FE7549
:102C8000FE55FE35FE34FE14FDF4FDF3FDF2F5F2C3
:102C9000FDF2F5F2F5D1EDD1EDB1EDB1E591E570D3
:102CA000DD50DD50DD50DD70DD50DD30D530D5300C
:102CB000DD50DD50DD50DD50DD50DD30DD2FDD2F0E
:102CC000DD2FDD30DD51E5F4EEB8FF7CFFDFFFDF07
:102CD000FFDFFFDFFFDFFFDFFFDFFFDFFFDFFFDF04
:102CE000FFDFFFDFFFDFFFDFFFDFFFDFFFDFFFDFF4
:102CF000FFDFFFDFFFDFFFDFFFDFFFDFFFDFFFDFE4
:102D0000FFDFFFDFFFDFFFDFFFDFFFDFFFDFFFDFD3
:102D1000FFDFFFDFFFDFFFDFFFDFFFDFFFDFFFDFC3
:102D2000FFDFFFDFFFDFFFDFFFDFFFDFFFDFFFDFB3
:102D3000FFDFFFDFFFDFFFDFFFDFFFDFFFDFFFDFA3
:102D4000FFDFFFDFFFDFFFDFFFDFFFDFFFDFFFDF93
:102D5000FFDFFFDFFFDFFFDFFFDFFFDFFFDFF75C0E
:102D6000EE14ED70EDB1FE34FE55FE54FE34FE144B
:102D7000FE14FDF4FDF4FDF3FDD3F5B3F5D2FDD261
:102D8000FDD2FDF1F5D1F5B0F5B0F5B0EDB0E56FE0
:102D9000E54FDD2FDD4FDD2FDD2FDD2FDD2FDD2F8B
:102DA000DD0FD50FD4EED4EFDD0FDD0FDD0FDD0F1E
:102DB000D50ED4EED4EECCADCCCDD551EE98F77D7A
:102DC000FFDFFFDFFFDFFFDFFFDFFFDFFFDFFFDF13
:102DD000FFDFFFDFFFDFFFDFFFDFFFDFFFDFFFDF03
:102DE000FFDFFFDFFFDFFFDFFFDFFFDFFFDFFFDFF3
:102DF000FFDFFFDFFFDFFFDFFFDFFFDFFFDFFFDFE3
:102E0000FFDFFFDFFFDFFFDFFFDFFFDFFFDFFFDFD2
:102E1000FFDFFFDFFFDFFFDFFFDFFFDFFFDFFFDFC2
:102E2000FFDFFFDFFFDFFFDFFFDFFFDFFFDFFFDFB2
:102E3000FFDFFFDFFFDFFFDFFFDFFFDFFFDFFFDFA2
:102E4000FFDFFFDFFFDFFFDFFFDFFF9DF6D8EDB223
:102E5000F5B1FE34FE54FE34FE34FE14FE14FDF4CF
:102E6000FDF4FDF4FDF3F5D3F5D3F5D3F5B3F5B3E8
:102E7000FDD2FDF2FDF2F5D1F5D1FDF1F5D1F5B0C0
:102E8000ED90E590E570DD4FE56FDD4FDD2FDD2F37
:102E9000DD2FDD2FDD2FDD2FDD0FDD0FDD0FDD0F52
:102EA000DD0FDD0ED50ED4EECCCDCC8DCCCEDDB38A
:102EB000F6F9FFBEFFDEFFDFFFDFFFDFFFDFFFDF33
:102EC000FFDFFFDFFFDFFFDFFFDFFFDFFFDFFFDF12
:102ED000FFDFFFDFFFDFFFDFFFDFFFDFFFDFFFDF02
:102EE000FFDFFFDFFFDFFFDFFFDFFFDFFFDFFFDFF2
:102EF000FFDFFFDFFFDFFFDFFFDFFFDFFFDFFFDFE2
:102F0000FFDFFFDFFFDFFFDFFFDFFFDFFFDFFFDFD1
:102F1000FFDFFFDFFFDFFFDFFFDFFFDFFFDFFFDFC1
:102F2000FFDFFFDFFFDFFFDFFFDFFFDFFFDFFFDFB1
:102F3000FFDFFFDFFFDFFFDFF75BF635F5B1F613ED
:102F4000FE54FE34FE14FE13FDF3FDF3FDF3FDF31A
:102F5000FDF3FDF3F5D3FDD3FDD3F5D3F5D3F5B3F1
:102F6000F5B3FDD3FDD3FDD2FDF2FE12FE12F5F155
:102F7000F5D1EDB1EDB0ED90ED90DD2FE54FE570C1
:102F8000E570E56FE54FE54FE54FDD4FDD2FDD0FD8
:102F9000DD0FDD0FDD0FD4EED4EED4EECCADCCAD35
:102FA000DD30EE76F71BF79DFFBEFFDFFFDFFFDFB3
:102FB000FFDFFFDFFFDFFFDFFFDFFFDFFFDFFFDF21
:102FC000FFDFFFDFFFDFFFDFFFDFFFDFFFDFFFDF11
:102FD000FFDFFFDFFFDFFFDFFFDFFFDFFFDFFFDF01
:102FE000FFDFFFDFFFDFFFDFFFDFFFDFFFDFFFDFF1
:102FF000FFDFFFDFFFDFFFDFFFDFFFDFFFDFFFDFE1
:10300000FFDFFFDFFFDFFFDFFFDFFFDFFFDFFFDFD0
:10301000FFDFFFDFFFDFFFDFFFDFFFDFFFDFFFDFC0
:10302000FFDFFFDFFFBEF6FAF614F5D2FE34FE3402
:10303000FE14FDF3FDF3FDF3FDF3FDF3FDD3FDD32E
:10304000F5D3F5D3F5D3F5D3FDD3F5D3FDD3FDD328
:10305000FDD3FDD3FDB3FDB2FDB2FDD2FE12FE32B3
:10306000FE12F5F1F5F1F5F1EDB1E570EDB0E570B9
:10307000E570E570E570E54FE54FE550E550E5504A
:10308000E52FDD2FDD0FDD0EDD0ED4EED4EED4CD39
:10309000D4ADD4CEDD92EE56F73BFFBEFFDFFFDFAF
:1030A000FFDFFFDFFFDFFFDFFFDFFFDFFFDFFFDF30
:1030B000FFDFFFDFFFDFFFDFFFDFFFDFFFDFFFDF20
:1030C000FFDFFFDFFFDFFFDFFFDFFFDFFFDFFFDF10
:1030D000FFDFFFDFFFDFFFDFFFDFFFDFFFDFFFDF00
:1030E000FFDFFFDFFFDFFFDFFFDFFFDFFFDFFFDFF0
:1030F000FFDFFFDFFFDFFFDFFFDFFFDFFFDFFFDFE0
:10310000FFDFFFDFFFDFFFDFFFDFFFDFFFDFFFDFCF
:10311000FFDFFF9EF6D9F5F3F5F2FE14FE14FDF382
:10312000FDF3FDF3FDD3FDD3FDD3FDD3FDD3FDD3DF
:10313000FDD3FDD3F5D3F5D3FDD3FDD3FDD3FDD31F
:10314000FDD3FDD3F5B3FDB3FD93F592F5B2FE13B8
:10315000FE33FE12FE12FE12F5B1F5B1F5B1ED919E
:10316000E570E570ED70ED70ED71ED91ED91ED7143
:10317000ED71E550E550E550E52FDD0FDD0ED4EEA5
:10318000D4CED4ADD4ADD50FE5D3EED9FF9DFFDFBE
:10319000FFDFFFDFFFDFFFDFFFDFFFDFFFDFFFDF3F
:1031A000FFDFFFDFFFDFFFDFFFDFFFDFFFDFFFDF2F
:1031B000FFDFFFDFFFDFFFDFFFDFFFDFFFDFFFDF1F
:1031C000FFDFFFDFFFDFFFDFFFDFFFDFFFDFFFDF0F
:1031D000FFDFFFDFFFDFFFDFFFDFFFDFFFDFFFDFFF
:1031E000FFDFFFDFFFDFFFDFFFDFFFDFFFDFFFDFEF
:1031F000FFDFFFDFFFDFFFDFFFDFFFDFFFDFFFDFDF
:10320000FF9DF6B8F5F3FDF3FE14FE13FDF3FDF399
:10321000FDD3FDD3FDD3FDD3FDD3FDD3FDD3FDB34E
:10322000FDB3F5B3F5B3F5B3FDB3FDD3FDD3F5D3DE
:10323000FDD3FDD3FDD3F5B3F5B3F592F572F5B239
:10324000FE13FE13F5F2FE12F5D1F5D1F5F2EDB154
:10325000ED71F592F5B2F5D3F5D3F5D3F5D3F5D3FA
:10326000F5D3F5B3F5B2F592F592ED71E550DD2F9A
:10327000DD0FD4EED4CED4ADD4CEDD71EE77F75CD5
:10328000F7BEFFDEFFDFFFDFFFDFFFDFFFDFFFDF78
:10329000FFDFFFDFFFDFFFDFFFDFFFDFFFDFFFDF3E
:1032A000FFDFFFDFFFDFFFDFFFDFFFDFFFDFFFDF2E
:1032B000FFDFFFDFFFDFFFDFFFDFFFDFFFDFFFDF1E
:1032C000FFDFFFDFFFDFFFDFFFDFFFDFFFDFFFDF0E
:1032D000FFDFFFDFFFDFFFDFFFDFFFDFFFDFFFDFFE
:1032E000FFDFFFDFFFDFFFDFFFDFFFDFFFDFF79D38
:1032F000F697F5D2FDF3FE14FDF3FDF3FDF3FDD3D8
:10330000FDD3F5D3FDD3FDB3FDB3F5B3F5B3F5B3FD
:10331000F5B3F5B3F5B3F5B3F5B3F5B3FDB3FDD33D
:10332000FDD3FDD3FDD3F5B3F5B3F5B3F572F55287
:10333000F592FDD2F5F2FDF2F5F2F5B2FDF2F5D21D
:10334000F5B1FDD3FDD3FDF4FDF4FDF4FDF4FDF482
:10335000FDF4FDF4FDF4FDF4FDF3F5D3F5B2ED91CC
:10336000E550DD0FD4EED4CED4CED4ADD50FE5F4F8
:10337000F6FAF77DFFBEFFDFFFDFFFDFFFDFFFDFD6
:10338000FFDFFFDFFFDFFFDFFFDFFFDFFFDFFFDF4D
:10339000FFDFFFDFFFDFFFDFFFDFFFDFFFDFFFDF3D
:1033A000FFDFFFDFFFDFFFDFFFDFFFDFFFDFFFDF2D
:1033B000FFDFFFDFFFDFFFDFFFDFFFDFFFDFFFDF1D
:1033C000FFDFFFDFFFDFFFDFFFDFFFDFFFDFFFDF0D
:1033D000FFDFFFDFFFDFFFDFFFDFFFDFFFBEF6F90D
:1033E000F5F2FDF2FE14FDF3FDF3FDD3FDD3FDD3A5
:1033F000FDD3F5D3F5D3F5B3F5B3F5B3F5B3F5B325
:10340000F5B3F5B3F5B3F593F5B3F5B3F5B3FDB394
:10341000F5B3F5B3FDD3FDD3FDB3FDB3F593F5726D
:10342000F552F572F592F5B2FDD2F5D2FDD2FDF36B
:10343000FDF3FDD3FDF4FDF4FDF4FDF4FDF4FDF426
:10344000FDF4FDF4FDF4FDF4FDF4FDF4FDF4F5D31D
:10345000F5B3ED92E550DD0FD4CED4CED4ADD4EE9D
:10346000E5B2EE98F75CFFDFFFDFFFDFFFDFFFDF96
:10347000FFDFFFDFFFDFFFDFFFDFFFDFFFDFFFDF5C
:10348000FFDFFFDFFFDFFFDFFFDFFFDFFFDFFFDF4C
:10349000FFDFFFDFFFDFFFDFFFDFFFDFFFDFFFDF3C
:1034A000FFDFFFDFFFDFFFDFFFDFFFDFFFDFFFDF2C
:1034B000FFDFFFDFFFDFFFDFFFDFFFDFFFDFFFDF1C
:1034C000FFDFFFDFFFDFFFDFFFDFFFDFF75CF6344B
:1034D000FDD2FE13FDF3FDF3FDF3FDF3F5D3FDD3B4
:1034E000FDD3F5D3F5D3F5B3F5B3F5B3F5B3F59354
:1034F000FD93FD93FD92FD92FD92FD93F593FD9357
:10350000FDB3F5B3FDB3FDB3FDB3FDB3F5B3FD936B
:10351000F572F552F572F572FD92FDB2F5D2FDF33A
:10352000FDF3FDF3FDF4FDF4FDF4FDF4FDF4FDF415
:10353000FDF4FDF4FDF4FDF4FDF4FDF4FDF4FDF403
:10354000FDF4FDD3F5D3ED92E551DD0FDCEFD4CEE4
:10355000D4CEDD50EE56FF9DFFDFFFDFFFDFFFDF44
:10356000FFDFFFDFFFDFFFDFFFDFFFDFFFDFFFDF6B
:10357000FFDFFFDFFFDFFFDFFFDFFFDFFFDFFFDF5B
:10358000FFDFFFDFFFDFFFDFFFDFFFDFFFDFFFDF4B
:10359000FFDFFFDFFFDFFFDFFFDFFFDFFFDFFFDF3B
:1035A000FFDFFFDFFFDFFFDFFFDFFFDFFFDFFFDF2B
:1035B000FFDFFFDFFFDFFFDFFFDFFFBEF6B8F5F263
:1035C000FDF3FE13FDF3FDF3FDF3FDD3F5D3FDD3C2
:1035D000FDD3FDB3FDB3F5B3F5B2F5B2F592FD92AF
:1035E000FD92FD92FD72FD72FD72FD72FD92FD92E3
:1035F000FD93FD93FDB3FDB3F5B3F5B3FDB3F5B3A3
:10360000F593F592F572F572FD72FD92F5B2F5D370
:10361000FDD3FDD3FDF4FDF4FDF4FDF4FDF4FDF464
:10362000FDF4FDF4FDF4FDF4FDF4FDF4FDF4FDF412
:10363000FDF4FDF4FDF4FDF4F5D3ED92E550DD0F5E
:10364000D4EED4ADD4EFEE77FFBEFFDFFFDFFFDFB8
:10365000FFDFFFDFFFDFFFDFFFDFFFDFFFDFFFDF7A
:10366000FFDFFFDFFFDFFFDFFFDFFFDFFFDFFFDF6A
:10367000FFDFFFDFFFDFFFDFFFDFFFDFFFDFFFDF5A
:10368000FFDFFFDFFFDFFFDFFFDFFFDFFFDFFFDF4A
:10369000FFDFFFDFFFDFFFDFFFDFFFDFFFDFFFDF3A
:1036A000FFDFFFDFFFDFFFDFFFDFFF5BF613FDF371
:1036B000FE14FDF3FDF3FDF3FDF3FDD3F5D3FDD3D0
:1036C000FDD3FDB3F5B3F5B3F5B2F5B2F592F592CE
:1036D000F572FD72FD72F572F572F572F572F572A2
:1036E000F572FD92FD92FD93F5B3F5B3F5B3F5B325
:1036F000F5B3F593F593FD92FD72FD72FD92FDB366
:10370000FDD3FDD3FDD3FDF4FDF4FDF4FDF4FDF494
:10371000FDF4FDF4FDF4FDF4FDF4FDF4FDF4FDF421
:10372000FDF4FDF4FDF4FDF4FDF4FDD3F5B3ED710E
:10373000E530D4CECC8CD4CEEE77FFBEFFDFFFDFFA
:10374000FFDFFFDFFFDFFFDFFFDFFFDFFFDFFFDF89
:10375000FFDFFFDFFFDFFFDFFFDFFFDFFFDFFFDF79
:10376000FFDFFFDFFFDFFFDFFFDFFFDFFFDFFFDF69
:10377000FFDFFFDFFFDFFFDFFFDFFFDFFFDFFFDF59
:10378000FFDFFFDFFFDFFFDFFFDFFFDFFFDFFFDF49
:10379000FFDFFFDFFFDFFFDFFFBEF696F5D2FDF3B1
:1037A000FDF3FDF3FDF3FDF3FDF3FDD3F5D3FDD301
:1037B000FDD3FDB3FDB3FDB3F5B2F592FD92FD92DD
:1037C000FD72FD72FD72F572F572FD72FD72FD7291
:1037D000FD72FD72FD72FD72FD92FD93FD93FD93EE
:1037E000F5B3F5B3FDB3FD93FD93FD93FDB3FDB3C9
:1037F000FDD3FDD3F5D3FDD3FDF4FDF4FDF4FDF4CD
:10380000FDF4FDF4FDF4FDF4FDF4FDF4FDF4FDF430
:10381000FDF4FDF4FDF4FDF4FDF4FDF4FDF4F5D349
:10382000ED71E530D4CECC6CCCCEEE98FFBEFFDF90
:10383000FFDFFFDFFFDFFFDFFFDFFFDFFFDFFFDF98
:10384000FFDFFFDFFFDFFFDFFFDFFFDFFFDFFFDF88
:10385000FFDFFFDFFFDFFFDFFFDFFFDFFFDFFFDF78
:10386000FFDFFFDFFFDFFFDFFFDFFFDFFFDFFFDF68
:10387000FFDFFFDFFFDFFFDFFFDFFFDFFFDFFFDF58
:10388000FFDFFFDFFFDFFFDFF75BF613FDD3FDF3A5
:10389000FDF3FDF3FDF3FDF3FDF3FDD3F5D3FDD310
:1038A000FDD3FDB3FDB3FDB3F5B2F592F592F592FC
:1038B000FD72FD72F572F572F572F552F552FD72F8
:1038C000F572F572FD72FD72F572F572FD92F59367
:1038D000F5B3F5B3F5B3F5B3F5B3F5B3FDB3FDB398
:1038E000FDB3FDB3F5D3F5D3F5D3FDD3FDD3FDD3B0
:1038F000FDF4FDF4FDF4FDF4FDF4FDF4FDF4FDF440
:10390000FDF4FDF4FDF4FDF4FDF4FDF4FDF4FDF42F
:10391000F5D3ED92DD10D4CECC6CD4EFEEB8F7BE7B
:10392000FFDFFFDFFFDFFFDFFFDFFFDFFFDFFFDFA7
:10393000FFDFFFDFFFDFFFDFFFDFFFDFFFDFFFDF97
:10394000FFDFFFDFFFDFFFDFFFDFFFDFFFDFFFDF87
:10395000FFDFFFDFFFDFFFDFFFDFFFDFFFDFFFDF77
:10396000FFDFFFDFFFDFFFDFFFDFFFDFFFDFFFDF67
:10397000FFDFFFDFFFDFFFDEF6B7F5D2FDF3FDF37C
:10398000FDF3FDF3FDF3FDF3FDF3FDD3F5D3FDD31F
:10399000FDD3FDB3FDB3F5B3F5B2F592F592F59213
:1039A000FD72FD72F572FD72FD72FD72FD72FD72A7
:1039B000FD72F572FD72FD72F572F572FD92F5936E
:1039C000F5B3F5B3F5B3F5B3F5B3F5B3F5B3F5B3B7
:1039D000FDB3FDB3F5D3F5B3FDD3FDD3FDD3F5D3DF
:1039E000F5D3FDD3FDF4FDF4FDF4FDF4FDF4FDF499
:1039F000FDF4FDF4FDF4FDF4FDF4FDF4FDF4FDF43F
:103A0000FDF4FDD4F592DD0FD4CECC6CD4EFEE777F
:103A1000FFBEFFDFFFDFFFDFFFDFFFDFFFDFFFDFD7
:103A2000FFDFFFDFFFDFFFDFFFDFFFDFFFDFFFDFA6
:103A3000FFDFFFDFFFDFFFDFFFDFFFDFFFDFFFDF96
:103A4000FFDFFFDFFFDFFFDFFFDFFFDFFFDFFFDF86
:103A5000FFDFFFDFFFDFFFDFFFDFFFDFFFDFFFDF76
:103A6000FFDFFFDFFFDFFF9DF654F5D2FDD3FDF34F
:103A7000FDF3FDF3FDF3FDF3FDF3FDD3F5D3FDD32E
:103A8000FDD3FDB3FDB3F5B3F5B2F592F592F59222
:103A9000FD72FD72F572FD72FD72FD72FD72F572BE
:103AA000F572F572FD72FD72F572F572FD92F59385
:103AB000F5B3F5B3F5B3F5B3F5B3F5B3F5B3F5B3C6
:103AC000FDB3FDB3F5B3F5B3FDB3FDB3FDB3F5D36E
:103AD000F5D3FDD3FDD3FDF4FDF4FDF4FDF4FDF4C9
:103AE000FDF4FDF4FDF4FDF4FDF4FDF4FDF4FDF44E
:103AF000FDF4FDF4FDD4ED92E510D4AECC6CD4EF22
:103B0000F6F9FFFFFFDFFFDFFFDFFFDFFFDFFFDF94
:103B1000FFDFFFDFFFDFFFDFFFDFFFDFFFDFFFDFB5
:103B2000FFDFFFDFFFDFFFDFFFDFFFDFFFDFFFDFA5
:103B3000FFDFFFDFFFDFFFDFFFDFFFDFFFDFFFDF95
:103B4000FFDFFFDFFFDFFFDFFFDFFFDFFFDFFFDF85
:103B5000FFDFFFDFFFDFFF3AF5F2F5D3F5D3FDD34B
:103B6000FDF3FDF3FDF3FDF3FDF3FDF3F5D3FDD31D
:103B7000FDD3FDB3FDB3F5B3F5B2F592FD92FD9221
:103B8000F592FD72F572F572F572F572F572F572D5
:103B9000F572FD72FD72FD72F572FD72FD92FD937C
:103BA000F593F5B3F5B3F5B3F5B3F5B3F5B3FDB3ED
:103BB000FDB3FDB3F5B3F5B3FDB3FDB3FDB3FDB395
:103BC000FDD3FDD3FDD3FDD3FDF4FDF4FDF4FDF4F1
:103BD000FDF4FDF4FDF4FDF4FDF4FDF4FDF4FDF45D
:103BE000FDF4FDF4FDF4FDF4F592ED51CCAEC46CA2
:103BF000DD72FF7DFFDFFFDFFFDFFFDFFFDFFFDFC6
:103C0000FFDFFFDFFFDFFFDFFFDFFFDFFFDFFFDFC4
:103C1000FFDFFFDFFFDFFFDFFFDFFFDFFFDFFFDFB4
:103C2000FFDFFFDFFFDFFFDFFFDFFFDFFFDFFFDFA4
:103C3000FFDFFFDFFFDFFFDFFFDFFFDFFFDFFFDF94
:103C4000FFDFFFDFFFDFF6B6FDB2FDD3FDD3F5D317
:103C5000FDD3FDF3FDF3FDF3FDF3FDF3F5D3FDD34C
:103C6000FDD3FDD3FDB3F5B3F5B2F592FD92F59218
:103C7000F572FD72F572F572F572F572F572FD72FC
:103C8000FD72FD72FD72FD72FD72F592F593FD926B
:103C9000FD72F5B3F5B3F5B3F5B3F5B3F5B3F5B31D
:103CA000F5B3FDB3F5B3F5B3F5B3F5B3FDB3F5B3C4
:103CB000FDB3FDD3FDD3FDD3FDF4FDF4FDF4FDF420
:103CC000FDF4FDF4FDF4FDF4FDF4FDF4FDF4FDF46C
:103CD000FDF4FDF4FDF4FDF4FDD4F5B3E530CC8E38
:103CE000CCADE615FFBEFFDFFFDFFFDFFFDFFFDF4D
:103CF000FFDFFFDFFFDFFFDFFFDFFFDFFFDFFFDFD4
:103D0000FFDFFFDFFFDFFFDFFFDFFFDFFFDFFFDFC3
:103D1000FFDFFFDFFFDFFFDFFFDFFFDFFFDFFFDFB3
:103D2000FFDFFFDFFFDFFFDFFFDFFFDFFFDFFFDFA3
:103D3000FFDFFFDFFF9DF633FDB2FDD3FDD3F5D3EB
:103D4000FDD3FDD3FDD3FDD3F5D3F5D3F5D3FDD30B
:103D5000FDD3F5D3F5D3F5B3F5B2F592F592F5921F
:103D6000F572FD72F572F572F572F572F572FD720B
:103D7000FD72FD72FD72FD72F572F592FD92FD729B
:103D8000FD72FD93FDB3F5B3F5B3F5B3F5B3F5B33C
:103D9000F5B3F5B3F5B3F5B3F5B3F5B3F5B3F5B3E3
:103DA000F5B3FDB3FDD3FDD3FDD3FDD4FDF4FDF498
:103DB000FDF4FDF4FDF4FDF4FDF4FDF4FDF4FDF47B
:103DC000FDF4FDF4FDF4FDF4FDF4FDD3F593E530D1
:103DD000CCADD4EFF6D9FFDFFFDFFFDFFFDFFFDF82
:103DE000FFDFFFDFFFDFFFDFFFDFFFDFFFDFFFDFE3
:103DF000FFDFFFDFFFDFFFDFFFDFFFDFFFDFFFDFD3
:103E0000FFDFFFDFFFDFFFDFFFDFFFDFFFDFFFDFC2
:103E1000FFDFFFDFFFDFFFDFFFDFFFDFFFDFFFDFB2
:103E2000FFDFFFDFFF3AF5D2FDB2F5D3FDD3FDD3BF
:103E3000FDD3FDD3FDD3FDD3FDD3FDD3FDD3FDD302
:103E4000FDD3FDB3FDB3FDB3F5B2F592FD92F5924E
:103E5000F572F572F572FD72FD72FD72FD72F5720A
:103E6000F572FD72FD72FD72F572F572FD72FD5212
:103E7000FD52FD93FDB3F593F593F593F593F5930B
:103E8000F593F593F593F593F5B3F5B3F5B3F5B372
:103E9000FDB3FDB3FDB3FDD3FDD3FDD3FDD3FDF4E1
:103EA000FDF4FDF4FDF4FDF4FDF4FDF4FDF4FDF48A
:103EB000FDF4FDF4FDD4FDD4FDD4FDD4FDD4F59284
:103EC000DD10CC8DDD92F75CFFDFFFDFFFDFFFDF72
:103ED000FFDFFFDFFFDFFFDFFFDFFFDFFFDFFFDFF2
:103EE000FFDFFFDFFFDFFFDFFFDFFFDFFFDFFFDFE2
:103EF000FFDFFFDFFFDFFFDFFFDFFFDFFFDFFFDFD2
:103F0000FFDFFFDFFFDFFFDFFFDFFFDFFFDFFFDFC1
:103F1000FFDFFFDFFED7F5B2F5B3F5D3FDD3FDD359
:103F2000FDD3FDD3FDD3FDD3FDD3FDD3FDD3FDD311
:103F3000F5D3FDB3FDB3FDB3F5B2F592F592F5728D
:103F4000FD72FD72F572FD72FD72FD72FD72F57209
:103F5000F572F572FD72F572F572F592FD72F5511A
:103F6000F552FD92FD93FD92FD92FD92FD93FD931E
:103F7000FD93FD93FD93FD93F593F593F593F5B3C1
:103F8000F5B3F5B3F5B3FDB3FDD3FDD3F5D3FDD351
:103F9000FDD4FDF4FDF4FDF4FDF4FDF4FDF4FDF4B9
:103FA000FDF4FDF4FDD4FDD4FDD4FDD4F5D4F5B37A
:103FB000ED72D4CFCCCEEE77FFBEFFDFFFDFFFDFA9
:103FC000FFDFFFDFFFDFFFDFFFDFFFDFFFDFFFDF01
:103FD000FFDFFFDFFFDFFFDFFFDFFFDFFFDFFFDFF1
:103FE000FFDFFFDFFFDFFFDFFFDFFFDFFFDFFFDFE1
:103FF000FFDFFFDFFFDFFFDFFFDFFFDFFFDFFFDFD1
:10400000FFDFFFBEF674F5B2F5B3F5D3F5D3FDD3FC
:10401000FDD3FDD3FDD3F5D3F5D3FDD3FDD3FDD330
:10402000F5B3FDB3FDB3FDB3FD92F592F572F572F4
:10403000F571F571F552F552FD72FD72FD72FD726A
:10404000FD72FD72F592FD92FD92FD92F572F531D1
:10405000F552FD72F572FD72FD72FD72FD72F57220
:10406000FD92FD92FD92F592F592FD92FD92FD93E7
:10407000F593F5B3F5B3F5B3FDB3FDB3FDD3FDD3C0
:10408000FDD3FDD3FDF4FDF4FDF4FDF4FDF4FDD40A
:10409000FDD4FDD4FDD4FDD4FDD4F5D4F5D4F5D3B1
:1040A000F5B3E551CCAEDD51F71AFFDEFFDFFFDFE0
:1040B000FFDFFFDFFFDFFFDFFFDFFFDFFFDFFFDF10
:1040C000FFDFFFDFFFDFFFDFFFDFFFDFFFDFFFDF00
:1040D000FFDFFFDFFFDFFFDFFFDFFFDFFFDFFFDFF0
:1040E000FFDFFFDFFFDFFFDFFFDFFFDFFFDFFFDFE0
:1040F000FFDFFF9CF612F592F5B3F5B3F5B3F5B318
:10410000F5B3F5B3F5B3F5B3F5B3F5B3F5B3FDB367
:10411000FDB3F5B2F592ED51ED30E50FE4EFE4EECD
:10412000E4CEE4EEE4EEE4EEE50FED10ED30F55113
:10413000F551F571F572F572F551ED30ECF0F511C0
:10414000F552FD72F572FD72FD72FD72FD72F5722F
:10415000F572F572F572F572F572FD72FD72FD720F
:10416000FD92F593F593F5B3F5B3F5B3FDB3FDB358
:10417000FDD3FDD3FDD3FDD3FDD3FDD3FDD4FDD4BD
:10418000FDD4FDD4FDD4F5D4F5D3F5D3F5D3F5D3D3
:10419000F5D3ED92DCEFCCAEE615FF9DFFDFFFDF40
:1041A000FFDFFFDFFFDFFFDFFFDFFFDFFFDFFFDF1F
:1041B000FFDFFFDFFFDFFFDFFFDFFFDFFFDFFFDF0F
:1041C000FFDFFFDFFFDFFFDFFFDFFFDFFFDFFFDFFF
:1041D000FFDFFFDFFFDFFFDFFFDFFFDFFFDFFFDFEF
:1041E000FFDFF75AF5D1F592FDB3F5B3FDB3FDB39B
:1041F000F5B3F5B3F5B3F5B3F5B3F5B3FDB3FD9290
:10420000F551E50FE4EEE4EEE4CEE4CEE4EEDCCEF0
:10421000DCCEDCCEDCADD48CD46CD48CD48CD48C01
:10422000DCCDDCCEE4EEDCCEDCADDC8DE4AFF4F056
:10423000F552F552F552F552F552FD72FD72F572D6
:10424000F572F572F572F572F572F572F572FD722E
:10425000FD72FD92FD92FD93F593F5B3F5B3F5B3C1
:10426000F5B3FDD3FDD3FDD3FDD3FDD3FDD3FDD3F6
:10427000FDD3FDD3FDD3FDD3FDD3FDD3FDD3FDD3BE
:10428000FDD3F5B3E551D4AED530F6D9FFBEFFDF8F
:10429000FFDFFFDFFFDFFFDFFFDFFFDFFFDFFFDF2E
:1042A000FFDFFFDFFFDFFFDFFFDFFFDFFFDFFFDF1E
:1042B000FFDFFFDFFFDFFFDFFFDFFFDFFFDFFFDF0E
:1042C000FFDFFFDFFFDFFFDFFFDFFFDFFFDFFFDFFE
:1042D000FFDFF718F5B1F592F5B2F5B3F5B3F5B325
:1042E000F5B3F5B3F5B3F5B3F5B3FDB2F551E50F9D
:1042F000E4EFED0FED30F530F531F531F531F53115
:10430000F531F531F530ED10E4EFDCCEDCADD46CF9
:10431000CC6CCC8CCC8CD48CDCAEE4AFEC8FF4F0D9
:10432000F552F551F531F551F552F552FD72F57230
:10433000F572F572F572F572F572F572FD72FD7235
:10434000FD72FD72FD72FD72FD92FD92FD93FD9373
:10435000F5B3F5B3F5B3F5B3FDB3FDB3FDB3FDB3FD
:10436000FDB3FDB3FDB3FDB3FDB3FDB3FDB3FDD3AD
:10437000FDD3FDD3F5B2DD10D4CEE615F77DFFDF1A
:10438000FFDFFFDFFFDFFFDFFFDFFFDFFFDFFFDF3D
:10439000FFDFFFDFFFDFFFDFFFDFFFDFFFDFFFDF2D
:1043A000FFDFFFDFFFDFFFDFFFDFFFDFFFDFFFDF1D
:1043B000FFDFFFDFFFDFFFDFFFDFFFDFFFDFFFDF0D
:1043C000FFDFF6B5F591F592F5B2F5B2F5B3F5B3B9
:1043D000F5B3F5B2F5B2F5B3F592ED30ED0FED3082
:1043E000F551FD51FD51FD51FD31F531FD31FD31ED
:1043F000FD31FD31FD31F531F531F531F531F53076
:10440000ED10ED10ED10ED10ECD0EC6FEC8FF53100
:10441000F551F531F531F531F552F552F552F552C8
:10442000F552F552F552F552F552F552F552F55254
:10443000F552F552F572F572FD72FD72FD92FD9323
:10444000FD93FD93FDB3F5B3F5B3FDB3FDB3FDB33C
:10445000FDB3F5B3F5B3F5B3F5B3F5B3FDB3F5B30C
:10446000F5B3FDD3F5B3ED71D4EEDD51F71AFFDEF0
:10447000FFDFFFDFFFDFFFDFFFDFFFDFFFDFFFDF4C
:10448000FFDFFFDFFFDFFFDFFFDFFFDFFFDFFFDF3C
:10449000FFDFFFDFFFDFFFDFFFDFFFDFFFDFFFDF2C
:1044A000FFDFFFDFFFDFFFDFFFDFFFDFFFDFFFDF1C
:1044B000FFBDF654F572F592F5B2F5B2F5B2F5B26C
:1044C000F5B2F5B2F5B2F592F551F530F551F55179
:1044D000F551F531F531F511F511F510F510F5102F
:1044E000F510F510F511F510F510F511F531F53160
:1044F000F531F531F511ECB0E44EE44EF4D0F55160
:10450000F531F511F511F531F551F552F552F55238
:10451000F552F552F552F552F552F552F552F55263
:10452000F552F552FD52FD52F552FD72FD72FD72CB
:10453000FD72FD93FD93F593F5B3FDB3FDB3FDB3AC
:10454000FDB3F5B3F5B3FDB3FDB3FDB3FDB3F5B303
:10455000FDB3FDB3F5B3ED92DD10D4EFE636FFBD4C
:10456000FFDFFFDFFFDFFFDFFFDFFFDFFFDFFFDF5B
:10457000FFDFFFDFFFDFFFDFFFDFFFDFFFDFFFDF4B
:10458000FFDFFFDFFFDFFFDFFFDFFFDFFFDFFFDF3B
:10459000FFDFFFDFFFDFFFDFFFDFFFDFFFDFFFDF2B
:1045A000FF9CF613F572F592F5B2F5B2F5B2F5B2DD
:1045B000F5B2F5B2F5B2FD92F572FD72FD51F5312D
:1045C000F531F510F510F4F0F4F0F4F0F4F0ECF04F
:1045D000F4F0F4F0F4F0F4F0F4F0F4F0F4F0F4F0BB
:1045E000F4D0ECB0EC6FE42EE42EEC8FF531F55105
:1045F000F511F4F0F511F511F531F552F552F552CA
:10460000F552F551F551F551F551F532F532F552B6
:10461000F552F552F552F552F552F552FD52FD5252
:10462000FD72FD72FD72FD72F592FD92FD93FD9398
:10463000F593F593F593F5B3F5B3F5B3F5B3F5B39A
:10464000F5B3FDB3FDB3F592E551D4CED550F71ACD
:10465000FFDFFFDFFFDFFFDFFFDFFFDFFFDFFFDF6A
:10466000FFDFFFDFFFDFFFDFFFDFFFDFFFDFFFDF5A
:10467000FFDFFFDFFFDFFFDFFFDFFFDFFFDFFFDF4A
:10468000FFDFFFDFFFDFFFDFFFDFFFDFFFDFFFDF3A
:10469000FF5BF5F2F572FD92F592F592F5B2F5B287
:1046A000F5B2F5B2FD92FD92FD71F551F531F510BF
:1046B000F4F0F4F0ECD0ECD0ECD0ECD0ECD0ECD0CA
:1046C000ECD0ECD0ECD0ECD0ECD0ECB0ECAFEC8F8C
:1046D000EC8FE44EE42EE44EEC8FF510FD51F531F5
:1046E000F4F0F4D0F4F0F531F531F552FD52FD510E
:1046F000F531F531F531F531F531F531F531F5318A
:10470000F531F531F531F531F532F532F532F55255
:10471000F552F552F552F572F572FD72FD72FD72A9
:10472000FD72FD72F572F593F593F593F593F5939C
:10473000F5B3F5B3FDB3F5B3ED71D4EFCCADE6153C
:10474000FF9DFFDFFFDFFFDFFFDFFFDFFFDFFFDFBB
:10475000FFDFFFDFFFDFFFDFFFDFFFDFFFDFFFDF69
:10476000FFDFFFDFFFDFFFDFFFDFFFDFFFDFFFDF59
:10477000FFDFFFDFFFDFFFDFFFDFFFDFFFDFFFDF49
:10478000FF3AF5D2F572FD92F592F592F5B2F5B2D7
:10479000F5B2F5B2FD92F572F551F531F510F4F080
:1047A000ECD0ECD0ECD0ECAFE4AFECAFE4AFE4AFE6
:1047B000ECAFECAFECAFECAFECAFECAFEC8FEC8F61
:1047C000EC6FEC6FEC6FECAFF4F0FD51F571F5119F
:1047D000ECD0ECD0F4F0F511F531F551FD51F53197
:1047E000F531F531F531F531F531F531F531F53199
:1047F000F531F531F531F531F531F531F531F53288
:10480000F532F552F552F552F552F552F572F57250
:10481000FD72FD72F572FD72FD72FD73FD93FD93E5
:10482000FD93FD93F5B3F5B3ED72DD0FC48DD53077
:10483000F73BFFDFFFDFFFDFFFDFFFDFFFDFFFDF34
:10484000FFDFFFDFFFDFFFDFFFDFFFDFFFDFFFDF78
:10485000FFDFFFDFFFDFFFDFFFDFFFDFFFDFFFDF68
:10486000FFDFFFDFFFDFFFDFFFDFFFDFFFDFFFDF58
:10487000FF19F592F592F592F5B2F592F5B2F5B20F
:10488000F5B2FD92FD72F551F531F510F4F0ECD072
:10489000ECD0ECAFE4AFE48FE48FE48FE48FE48FEF
:1048A000E48FE4AFECAFECAFECAFECAFECAFEC8F80
:1048B000ECAFECAFF4D0F510F551F592F551ECF00A
:1048C000ECAFECAFECF0F511F531F531F531F53138
:1048D000F531F531F531F531F531F511F511F51108
:1048E000F531F531F511F511F511F511F531F53118
:1048F000F531F531F531F532F532F532F552F55243
:10490000F552F552F572F572FD72F572F572F572A7
:10491000F573FD93F593F593F592DD30C46DCCEF0F
:10492000EF1AFFDFFFDFFFDFFFDFFFDFFFDFFFDF6C
:10493000FFDFFFDFFFDFFFDFFFDFFFDFFFDFFFDF87
:10494000FFDFFFDFFFDFFFDFFFDFFFDFFFDFFFDF77
:10495000FFDFFFDFFFDFFFDFFFDFFFDFFFDFFFDF67
:10496000F6B7F591FD92F592F5B2F5B2F5B2F5B262
:10497000F592F592F571F531F511F4F0ECD0ECCF3C
:10498000E4AFE48FE48FE48FE46FE46FE48FE48FAF
:10499000E48FE48FE4AFECAFECAFECAFECCFECD056
:1049A000ECD0F4F0F511F551FD92F572F511ECAF84
:1049B000E48FECAFECF0F511F531F531F511F511AF
:1049C000F511F511F511F511F511F511F511ED11BF
:1049D000ED11ED11ED11ED11ED11ED11ED11ED11E7
:1049E000ED11ED11F531F531F531F531F531F531E7
:1049F000F531F552F552F552F552F572F572F57240
:104A0000F572F573F593F593F592E531CCAEC4AE3E
:104A1000EEB8FFDEFFDFFFDFFFDFFFDFFFDFFFDFDF
:104A2000FFDFFFDFFFDFFFDFFFDFFFDFFFDFFFDF96
:104A3000FFDFFFDFFFDFFFDFFFDFFFDFFFDFFFDF86
:104A4000FFDFFFDFFFDFFFDFFFDFFFDFFFDFFFDE77
:104A5000F695F572FD92F592F5B2F5B2F5B3FDB2A9
:104A6000FD92FD72F551F531F510F4F0ECD0E4AFA4
:104A7000E48FE46EDC6EDC6EDC4EDC6EDC6EDC6ED5
:104A8000E48FE48FE4AFECAFECD0ECD0F4F0F4F0D2
:104A9000F510F531FD51FD92FD92F551ECF0E48FEA
:104AA000E46FE4AFECF0F531F531F511F511F511E6
:104AB000F511ED11ED11ED11ECF1ECF1ECF1ECF182
:104AC000ECF1ECF0ECF0ECF1ED11ED11ED11ED117C
:104AD000ED11ED11ED11ED11ED11ED11ED11ED11E6
:104AE000ED11ED31ED31F552F552F552F552F57209
:104AF000F572F572F573F573F592E551D4EFC48D47
:104B0000E615FFBEFFDFFFDFFFDFFFDFFFDFFFDFB9
:104B1000FFDFFFDFFFDFFFDFFFDFFFDFFFDFFFDFA5
:104B2000FFDFFFDFFFDFFFDFFFDFFFDFFFDFFFDF95
:104B3000FFDFFFDFFFDFFFDFFFDFFFDFFFDFFF9DC7
:104B4000F634F572F592F5B2FDB3F5B3FDB3FDB2EF
:104B5000F592FD72FD51F531F510ECD0E4AFE48F24
:104B6000DC6EDC4ED42DD40DD42DD42DDC4EDC6E79
:104B7000E48FE48FE4AFECD0ECF0F4F0F510F53115
:104B8000F531F551FD92F5B2F592F531ECD0E46FC7
:104B9000E44EE4AFECF0F531F511F511ED10ECF069
:104BA000ECF0ECF1ECF1ECF1ECF0ECF0ECF0ECF022
:104BB000ECF0ECF0ECF0ECF0ECF0ECF0ECF0ECF015
:104BC000ECF0ECF0ECF0ECF0ECF1ECF1ECF1ED11E0
:104BD000ED11ED11ED31ED31ED32ED52ED52F552B9
:104BE000F572F572F572F572F572ED71D510C48D2E
:104BF000DDB3F79DFFDFFFDFFFDFFFDFFFDFFFDF5D
:104C0000FFDFFFDFFFDFFFDFFFDFFFDFFFDFFFDFB4
:104C1000FFDFFFDFFFDFFFDFFFDFFFDFFFDFFFDFA4
:104C2000FFDFFFDFFFDFFFDFFFDFFFDFFFDFFF7CF7
:104C3000F613F592F5B3FDB3FDD3FDD3FDB3F5B295
:104C4000FD92FD72F551ECF0DC8ECC4DCC2DCC4DAF
:104C5000CC2DB3CBB3ABBBABBBABC3ACD3EDDC2E7A
:104C6000DC6EE4AFECCFECD0F4F0F510F531F531BB
:104C7000F551FD72FD92F5B2F572F4F0E48FE44E59
:104C8000E44EE4AFED10F531F511ED10ECF0ECF081
:104C9000ECF0ECF0ECF0ECF0ECF0ECF0ECF0ECF034
:104CA000ECF0ECF0ECF0ECF0ECF0E4F0E4D0E4D07C
:104CB000E4D0E4D0E4D0E4F0E4F0E4F0ECF0ECF0A4
:104CC000ECF1ED11ED11ED11ED31ED31ED32ED5273
:104CD000ED52ED52ED52ED72ED72ED72DD10C4AE9B
:104CE000D551F77CFFDFFFDFFFDFFFDFFFDFFFDFF7
:104CF000FFDFFFDFFFDFFFDFFFDFFFDFFFDFFFDFC4
:104D0000FFDFFFDFFFDFFFDFFFDFFFDFFFDFFFDFB3
:104D1000FFDFFFDFFFDFFFDFFFDFFFDFFFDFF75B2F
:104D2000F5D2F592FDB3F5D3FDD3FDD3F5B3FDB3C5
:104D3000FDB3ED51D48EB3EBA38A9B699B69A38A23
:104D4000A3698B078B0893289328A329B36AC3AB65
:104D5000D42DE48FECCFECF0F510F531F551F55191
:104D6000F572FD92F5B2F592F531ECD0E46EDC2EE1
:104D7000DC2EE4AFF511F531ED11ECF0ECF0ECF0D8
:104D8000ECF0ECF0ECF0ECF0ECF0ECF0ECF0ECF043
:104D9000E4D0E4D0E4D0E4D0E4D0E4D0E4D0E4D073
:104DA000E4D0E4D0E4D0E4D0E4D0E4D0E4F0E4F023
:104DB000E4F0E4F1E4F1ECF1ED11ED11ED31ED3160
:104DC000ED32ED52ED52ED52ED52ED52DD10C4AE2A
:104DD000CD0FF71BFFDFFFDFFFDFFFDFFFDFFFDFB1
:104DE000FFDFFFDFFFDFFFDFFFDFFFDFFFDFFFDFD3
:104DF000FFDFFFDFFFDFFFDFFFDFFFDFFFDFFFDFC3
:104E0000FFDFFFDFFFDFFFDFFFDFFFDFFFDFF71980
:104E1000F5B2F5B3F5D3FDD3FDD3FDD3FDD3F592B4
:104E2000E531CC8EABAA93288B0893499B8A9BAB28
:104E30009BCC9BCB9BAB936A8B298B088AE89328EE
:104E4000B3ABD44EECCFF4F0F511F531F551F5726A
:104E5000F592FDB2F5B2F572F511E4AFDC4EDC0D62
:104E6000DC2EE4AFF511F511ECF0ECF0ECF0ECF029
:104E7000ECF0ECF0ECF0ECD0E4D0E4D0E4D0E4D012
:104E8000E4D0E4D0E4D0E4D0E4D0E4D0E4D0E4D082
:104E9000E4B0E4B0E4B0E4D0E4D0E4D0E4D0E4D0D2
:104EA000E4D0E4D0E4F0E4F1E4F1E511E511E5113A
:104EB000ED31ED31ED31ED52ED52E551D510C4AE8D
:104EC000CCCFEEF9FFDFFFDFFFDFFFDFFFDFFFDF2C
:104ED000FFDFFFDFFFDFFFDFFFDFFFDFFFDFFFDFE2
:104EE000FFDFFFDFFFDFFFDFFFDFFFDFFFDFFFDFD2
:104EF000FFDFFFDFFFDFFFDFFFDFFFDFFFDEFEB7EC
:104F0000FDB2FDB3F5D3F5D3F5D3FDF3F5D3D4CF8F
:104F1000ABAA9B499349A3CCB4AFC573D5F5DE3694
:104F2000DE57DE57DE36D5D5C553AC8F93AB8B0835
:104F30009328B3CBE48FF510F531F551F572FD925E
:104F4000F5B2F5B3F5B2F551ECF0E48FDC2ED40DEB
:104F5000DC2DE4AFED10ED10ECF0ECD0ECD0ECD0AB
:104F6000E4D0E4D0E4D0E4D0E4D0E4D0E4D0E4D0A1
:104F7000E4D0E4B0E4B0E4B0E4B0E4B0E4B0E4B071
:104F8000E4B0E4B0E4B0E4B0DCB0DCB0E4B0E4D071
:104F9000DCD0DCD0E4F0E4F0E4F0E4F1E511E5117C
:104FA000E511E511E531E531E532E531D4EFC48EA7
:104FB000C4CEEED9FFDFFFDFFFDFFFDFFFDFFFDF64
:104FC000FFDFFFDFFFDFFFDFFFDFFFDFFFDFFFDFF1
:104FD000FFDFFFDFFFDFFFDFFFDFFFDFFFDFFFDFE1
:104FE000FFDFFFDFFFDFFFDFFFDFFFDFFFBDF67566
:104FF000F5B2FDD3FDD3FDF3FDF3FDF3E551ABAA0F
:105000008B089BCBC552E677F73AFF9BFFBCFFDDD1
:10501000FFBDFF7CF73BF73AF71AEED9D5F5AC9018
:10502000936A9B49CC2DECF0F531FD51FD92FD9238
:10503000F5B2FDB2F592F531ECD0E46EDC0DD3EDB6
:10504000DC0DE48FE4CFE4CFECD0ECD0ECD0ECD0AE
:10505000E4D0E4D0E4D0E4D0E4D0E4D0E4D0E4D0B0
:10506000E4B0E4B0E4AFE4AFE4AFE4AFE4AFE4AFA6
:10507000DCAFE4B0E4B0DCB0DCB0DCB0DCB0DCB0C1
:10508000DCD0DCD0DCD0DCD0DCF0E4F0E4F1E4F126
:10509000E511E511E511E511E511E531D4EFC48D18
:1050A000C4CFEED9FFDFFFDFFFDFFFDFFFDFFFDF72
:1050B000FFDFFFDFFFDFFFDFFFDFFFDFFFDFFFDF00
:1050C000FFDFFFDFFFDFFFDFFFDFFFDFFFDFFFDFF0
:1050D000FFDFFFDFFFDFFFDFFFDFFFFFFF7CF614F7
:1050E000FDD3F5D3FDF3FDF3FDF3F5D3BC2C9349CC
:1050F000B4AFE677F77BFFDCFFDDFFDDFFBCD6B8A2
:10510000A5538C707C0E7C0F9490B574DE77E67797
:10511000BCF1934AABAAE4CFFD51F572F592FDB212
:10512000FDB2F5B2F572F511E4AFDC4ED40DD3CC7F
:10513000D3EDDC8FD46DD48DE4D0E4D0E4D0E4D0D2
:10514000E4D0E4D0E4D0E4D0E4D0E4D0E4B0E4B0FF
:10515000E4B0E4AFE4AFE4AFE4AFE4AFE4AFDCAFBE
:10516000DCAFDCAFDCAFDCAFDCAFDCAFDCAFDCAFE7
:10517000DCB0DCB0DCD0DCD0DCD0DCD0DCD0DCF0EF
:10518000DCF0E4F1E4F1DCF1DD11DCF1CCCFBC6D5D
:10519000C4CFEEFAFFDFFFDFFFDFFFDFFFDFFFDF60
:1051A000FFDFFFDFFFDFFFDFFFDFFFDFFFDFFFDF0F
:1051B000FFDFFFDFFFDFFFDFFFDFFFDFFFDFFFDFFF
:1051C000FFDFFFDFFFDFFFDFFFBEFFBEF73AFDF3CC
:1051D000FDD3FDF3FDF3FE13FE14DD0FA38AC5110D
:1051E000F719FFBCFFDCFFDDFFFDD6B9847042A9D3
:1051F00021E619A519A519A519A52A275B2BA4F243
:10520000D616AC8F9B6AD48EFD51F592F592FDB304
:10521000F5B2F592F551ECF0E48FDC2ED3CCCBACAB
:10522000CBCCDC4ECC4CC42BDCAEE4AFE4D0E4D031
:10523000E4D0E4D0E4D0E4D0E4D0E4D0E4B0E4B00E
:10524000E4B0E4AFE4AFE4AFE4AFDCAFDCAFDCAFDD
:10525000DCAFDCAFDCAFDCAFDCAFDCAFDCAFDCAFF6
:10526000DCAFDCB0DCB0DCD0DCD0DCD0DCD0DCD03F
:10527000DCD0DCF0DCF1DCF1DCF1D4F0CCAFBC4D07
:10528000C4F0F73CFFDFFFDFFFDFFFDFFFDFFFDF03
:10529000FFDFFFDFFFDFFFDFFFDFFFDFFFDFFFDF1E
:1052A000FFDFFFDFFFDFFFDFFFDFFFDFFFDFFFDF0E
:1052B000FFDFFFDFFFDFF71BF5F6F5D5F655FDF352
:1052C000FDF3FE13FE14FE14F5D2B40CC511F73A2B
:1052D000FF9CFFBCFFDDFFDDB5D542CA19A519A5AE
:1052E000218519641144114411641164116429E683
:1052F0007BEEBD539BCCC44DF551FD92F5B2F5B399
:10530000F5B2F592F531ECD0E46FD40DCBACCBAB6C
:10531000CBACD40DCC2DB3C9C42BDCAEE4AFE4AF21
:10532000E4CFE4D0E4D0E4D0E4D0E4D0E4B0E4B01E
:10533000E4B0E4AFE4AFE4AFE4AFDCAFDCAFDCAFEC
:10534000DCAFDCAFDCAFDCAFDCAFDCAFDCAFDCAF05
:10535000D4AFD4AFD4AFDCB0DCB0DCB0DCD0DCD0C8
:10536000DCD0DCD0DCD0DCD0DCD0D4D0C48EB42C0B
:10537000CD31F77DFFDFFFDFFFDFFFDFFFDFFFDF87
:10538000FFDFFFDFFFDFFFDFFFDFFFDFFFDFFFDF2D
:10539000FFDFFFDFFFDFFFDFFFDFFFDFFFDFFFDF1D
:1053A000FFDFFFDFF71CF554F4D0F531FDD3FDF33B
:1053B000FE14FE14FE14FE14D4EFBCAFF71AFF9CCB
:1053C000FF9CFFBCFFDDAD943248116419841923A2
:1053D00010A2086100400041088110E319641164C3
:1053E00021A573ADA44EC44DF551F5B2F5B2F5B398
:1053F000FDB2F571F4F0E4AFDC4ED3EDCB8BC38B93
:10540000C38BCBACD42DBBCAAB88C42BDCAFE4AF11
:10541000E4AFE4AFE4B0E4D0E4D0E4B0E4B0E4B0AE
:10542000E4AFE4AFDCAFDCAFDCAFDCAFDCAFDCAF14
:10543000DCAFDCAFDCAFDCAFD48FD48FD48FD48FB4
:10544000D48FD48FD48FD4AFD4AFD4AFD4B0D4B0A2
:10545000D4B0D4B0D4B0D4B0D4D0CCAFBC6EB42C13
:10546000D572F79DFFDFFFDFFFDFFFDFFFDFFFDF2D
:10547000FFDFFFDFFFDFFFDFFFDFFFDFFFDFFFDF3C
:10548000FFDFFFDFFFDFFFDFFFDFFFDFFFDFFFDF2C
:10549000FFDFFF9EF5D6F44FF48FF572FE13F6137F
:1054A000FE14FE14FE14F5F3D4B0EE97FF7BFF9BC1
:1054B000FFBCFFDDC6363A891164196419030882FE
:1054C00000000000000000000000002008821944D5
:1054D000114429C6736BC46EF551FDB2FDB2F5B32C
:1054E000FD92F551ECF0E48FDC2ECBCCC38BC36B7B
:1054F000BB6BBB6AC38BCBECB3AAAB88C42CDC8F71
:10550000DC8FDCAFE4AFE4AFE4B0E4B0E4B0E4B02F
:10551000E4AFDCAFE4AFDCAFDCAFDCAFDCB0DCAF22
:10552000DCAFDCAFDCAFD48FD48FD48FD48FD48FEB
:10553000D48FD48FD48FD48FD48FD490D490D49050
:10554000D4B0D4B0D4B0D4B0D4B0CC8FBC4DB42C83
:10555000D5D4F79EFFDFFFDFFFDFFFDFFFDFFFDFD9
:10556000FFDFFFDFFFDFFFDFFFDFFFDFFFDFFFDF4B
:10557000FFDFFFDFFFDFFFDFFFDFFFDFFFDFFFDF3B
:10558000FFDFF6DBF491F38DF40EFD92FE14FE14B2
:10559000FE14FE14FE14F592E5B4FF5AFF7BFF7B68
:1055A000FFBCE71A63AD1185116410C3AD5584309B
:1055B0000020000000000000000000000000088142
:1055C000114411443A06B40DF572FDB3FDB3FDB3B9
:1055D000FD92F531ECD0E46ED40DCBABC36BBB4A7E
:1055E000BB4AB34AB309BB2AC3ACB38AA348BBEBDB
:1055F000D46EDC8FDC8FDCAFDCAFDCAFDCAFDCAFDC
:10560000DCAFDCAFE4AFDCAFDCAFDCAFDCAFDCAF3A
:10561000DCAFDCAFD48FD48FD48FD48FD48FD48F22
:10562000D48FD48FD48FD48FD48FD48FD48FCC8F6A
:10563000D48FCC8FCC90D490CC8FC46EB42CB44C7F
:10564000DE36FFBEFFDFFFDFFFDFFFDFFFDFFFDF55
:10565000FFDFFFDFFFDFFFDFFFDFFFDFFFDFFFDF5A
:10566000FFDFFFDFFFDFFFDFFFDFFFDFFFDFFFDF4A
:10567000FFBEF5D6EB4CE229EB6CFDB3FE14FDF357
:10568000FDF3FDF3FDF3F5B3F635FEF9FF3AFF7BCD
:10569000FF9CAD742A07114408A2086184104A498E
:1056A00000000000000000000000000000000000FA
:1056B00010C2114429A5B40DF592FDB3FDD3FDB27E
:1056C000FD72F510ECAFDC6ED3EDC38BBB4ABB4A69
:1056D000B32AB32AAAE9A288AA88BB4AB36AA34814
:1056E000B3AACC4DD46EDC8FDCAFDCAFDCAFDCAF6B
:1056F000DCAFDCAFDCCFDCCFDCAFDCAFDCAFDCAF12
:10570000DCAFD48FD48FD48FD48FD46FD46FD46FB9
:10571000CC6ECC6ECC6FCC6FCC6FCC6FCC6FCC6FB3
:10572000CC6FCC6FCC6FCC6FCC6FBC4DAC0CB44D90
:10573000E677FFBEFFDFFFDFFFDFFFDFFFDFFFDF1B
:10574000FFDFFFDFFFDFFFDFFFDFFFDFFFDFFFDF69
:10575000FFDFFFDFFFDFFFDFFFDFFFDFFFDFFFDF59
:10576000F71BF491EAAAEACAF4D0FDD3F5D3FDD32E
:10577000FDD3FDD3FDF3FDF3FDF3FE14FE55FEB89E
:10578000EEB87BCE11441103004100000000000080
:105790000000000000000000000000000000000009
:1057A0000861110339E6BC6EFDB2FDD3F5D3FDB23D
:1057B000F551F510E4AFDC4ECBCCC36BBB4AB32A3A
:1057C000B32AAB09A2C8A28892279206A288AB2A64
:1057D000A328A348BBCBCC4DD46ED48FDCAFDCAFB9
:1057E000DCAFDCAFDCAFDCCFDCAFDCAFDCAFD4AF49
:1057F000D48FD48FD46FD46FCC6ECC6ECC6ECC4E95
:10580000CC4ECC4ECC6FCC6FCC6FCC6FCC6FCC6F02
:10581000CC6FCC6FCC6FC46FC44EB42DABEBBC8ED1
:10582000EEDAFFBFFFDFFFDFFFDFFFDFFFDFFFDFBE
:10583000FFDFFFDFFFDFFFDFFFDFFFDFFFDFFFDF78
:10584000FFDFFFDFFFDFFFDFFFDFFFDFFFDFFFBE89
:10585000F638F3AEF34CFCB0FDD3FDD3F5D3F5B37E
:10586000FDB3FDB3F5B3FDB3FD93FD92FD92FDD302
:10587000EDB3A40E4A271903002000000000000029
:105880000000000000000000000000000000000018
:10589000004010E34A47D4D0FDB3FDD3F5B3F592F1
:1058A000F551F4F0E48FDC2DCBACC36BBB2AB3090C
:1058B000AB09A2C89A8892478A0671C56163618460
:1058C00082469AE8A308AB49BBCBCC2DD46ED48ECC
:1058D000D48FD4AFDCAFDCAFD4AFD4AFD48FD48F00
:1058E000D48FD46ECC6ECC6ECC4ECC4ECC4ECC4E37
:1058F000CC4ECC4ECC4ECC4FCC4FCC4FCC4FC44FDB
:10590000C44FC44FC44FC44EBC2DABECA3CBC51188
:10591000F75CFFDFFFDFFFDFFFDFFFDFFFDFFFDF22
:10592000FFDFFFDFFFDFFFDFFFDFFFDFFFDFFFDF87
:10593000FFDFFFDFFFDFFFDFFFDFFFDFFFDFF77DE1
:10594000F554F3ADF470FD93FDB3FD92F572FD7265
:10595000FD52FD52F532F532F532F532F532F532BF
:10596000FD52FD72E5119B8C49C620A20820000063
:105970000000000000000000000000000000000027
:10598000002011036AE9E531FDD3FDD3F5B3F572CB
:10599000F531F4F0E48FDC0DCBACBB4AB32AAB0994
:1059A000A2C89AA892677A0659A4494341233902AA
:1059B00040E259637A0692879AE7AB49BBCBC42D84
:1059C000CC4ED46ED48FD48FD48FD48FD48FD46E4A
:1059D000CC6ECC4ECC4ECC2ECC2EC42EC42EC42E8F
:1059E000C42EC42EC42EC42EC42EC42EC44EC42E07
:1059F000C42EC42EC42EBC2EB40DA3CBA3EBD5F560
:105A0000FFBEFFDFFFDFFFDFFFDFFFDFFFDFFFDFC7
:105A1000FFDFFFDFFFDFFFDFFFDFFFDFFFDFFFDF96
:105A2000FFDFFFDFFFDFFFDFFFDFFFDFFFDFF71C51
:105A3000F4D1F44FFD52FD93F572FD52F532F5119C
:105A4000F511F4F1F4F2F4F2F512F512F512F53263
:105A5000F532FD52FD72FD93E531ABCC5A0620C202
:105A60000000000000000000000000000000000036
:105A7000004029A59BEDF572FDD3FDD3F5D3F5725A
:105A8000F531F4F0E46FD40DCBACBB4AB309AAE80E
:105A9000A2A892877206494328E220C218C218C2FF
:105AA00018C220C2312359A57206824692A7A329A3
:105AB000B3ABC40CCC4DCC4ECC6ECC6ECC4ECC4EDD
:105AC000CC2EC42EC40EC40EC40EC40EC40EC40EFE
:105AD000C40EC42EC42EC42EC42EC42EC42EC42E56
