:020000040800F2
:10000000C8A3002045010008651A0008631900080C
:10001000F9190008190200088D2D000800000000E1
:10002000000000000000000000000000151E000895
:100030003D11000800000000F11A0008FD1E000834
:100040005F0100085F0100085F0100085F01000810
:100050005F0100085F0100085F0100085F01000800
:100060005F0100085F0100085F0100085F010008F0
:100070005F0100085F010008150F00085F0100081C
:100080005F0100085F0100085F0100085F010008D0
:10009000352D00085F0100085F0100085F010008BE
:1000A0005F0100085F0100085F0100085F010008B0
:1000B0005F0100085F0100085F0100085F010008A0
:1000C0005F0100085F0100085F0100085F01000890
:1000D0005F010008792A0008F92A00085F0100087A
:1000E0005F0100085F010008292D00085F0100087A
:1000F0005F0100085F0100085F0100085F01000860
:100100005F0100085F0100085F0100085F0100084F
:10011000A1280008F52800085F0100085F01000819
:100120005F0100085F0100085F0100085F0100082F
:10013000DFF80CD000F018F800480047F52D000853
:10014000C8A300200648804706480047FEE7FEE7B0
:10015000FEE7FEE7FEE7FEE7FEE7FEE7FEE7FEE777
:10016000051F000831010008064C074D06E0E06855
:1001700040F0010394E8070098471034AC42F6D3EE
:10018000FFF7DAFF5C2E00087C2E000882B02DE914
:10019000FF1FEFF3038001B4684600F1400000E95F
:1001A00001400C480168C1F800D00B48D0F800D0DD
:1001B00001BC80F30388BDE8FF1F01B000BD064805
:1001C000D0F800D001BC80F30388BDE8FF1F01B068
:1001D00000BD0000440000204000002006E04FF475
:1001E0007A7100BF0A00A1F10101FBD10200A0F168
:1001F0000100F4D17047F0B5034600201C460D46BF
:10020000104603E014F8016B05F8016B1600A2F12B
:100210000107BAB2F6D1F0BD00BFFEE708B5012173
:10022000842001F097FC48208DF803004FF4006013
:10023000ADF800006946084801F048FA18208DF82A
:10024000030001208DF802000003ADF800006946AC
:10025000014801F03BFA08BD0008014008B5142030
:100260008DF8000000208DF801008DF802000120BB
:100270008DF80300684601F0F7FB08BDB1F5007F7B
:100280003AD00FDC202928D006DC01291CD0042913
:100290001DD0082940D11DE0402921D0B1F5807F33
:1002A0003AD126E0B1F5004F31D006DCB1F5806FD0
:1002B00025D0B1F5006F2FD124E0B1F5803F12D0E9
:1002C000B1F5003F28D111E0154A826025E00822EF
:1002D000C26022E01022C2601FE0082202611CE01E
:1002E0001022026119E00822426016E010224260EA
:1002F00013E00422426010E0042242600DE0042278
:1003000042600AE0002282610422426005E000228D
:1003100082610422426000E000BF00BF704700001D
:100320000101010010B504460B48844209D10121A6
:10033000480601F0FFFB00214FF0007001F0FAFBCE
:1003400008E00121880601F0F5FB00214FF08060F4
:1003500001F0F0FB10BD00000064004010B500216A
:10036000837A012202FA03F13D4A126842F0010247
:100370003B4B1A603A4A1C3212688A43384B1C3392
:100380001A60027BCAB9364A0C3212688A43344B6F
:100390000C331A604288C38842EA0343304A403231
:1003A000847A42F834300288838842EA03432C4A34
:1003B0004032847A02EBC4025360027B012A19D1D5
:1003C000274A0C3212680A43254B0C331A604288C4
:1003D000038842EA0343224A4032847A42F83430A6
:1003E000C288838842EA03431D4A4032847A02EB82
:1003F000C4025360C27A3AB9194A121D12688A437C
:10040000174B1B1D1A6006E0154A121D12680A439D
:10041000134B1B1D1A60028932B9114A143212683B
:100420008A430F4B14331A600289012A06D10C4A01
:10043000143212680A430A4B14331A60427B012AB1
:1004400006D1074A1C3212680A43054B1C331A6056
:10045000034A126822F00102014B1A6010BD00002D
:100460000066004070B504460D46002660692842CB
:1004700071D0B5F5807F5CD010DC082D35D006DC5E
:10048000012D20D0022D24D0042D72D127E0102D73
:1004900031D0202D35D0402D6BD138E0B5F5004F4F
:1004A00060D009DCB5F5007F49D0B5F5806F4CD040
:1004B000B5F5006F5DD14FE0B5F5803F2DD0B5F5B6
:1004C000003F56D12FE0A0682D4900F01BFD0646E5
:1004D00051E0E068032100F015FD06464BE0E068BE
:1004E000082100F00FFD064645E0E068102100F00D
:1004F00009FD06463FE02069032100F003FD0646A2
:1005000039E02069082100F0FDFC064633E020694F
:10051000102100F0F7FC06462DE06068082100F08D
:10052000F1FC064627E06068102100F0EBFC06466F
:1005300021E0A069012100F0E5FC06461BE0A0696E
:10054000022100F0DFFC064615E0A069042100F05E
:10055000D9FC06460FE00FE0A069702100F0D2FC44
:10056000064608E06068042100F0CCFC064602E084
:10057000FFE7002600BF00E00026304670BD000007
:10058000010101001AB143690B43436102E0436971
:100590008B434361704730B5024600200023146846
:1005A00024F002041460146844F00104146000E0B4
:1005B0005B1C546814F0010F03D1A3F57F44FF3C8A
:1005C000F6D1546814F0010F01D100206CE08C7951
:1005D000012C04D1146844F08004146003E0146812
:1005E00024F080041460CC79012C04D1146844F008
:1005F0004004146003E0146824F0400414600C7A92
:10060000012C04D1146844F02004146003E0146841
:1006100024F0200414604C7A012C04D1146844F0B6
:100620001004146003E0146824F0100414608C7A41
:10063000012C04D1146844F00804146003E0146829
:1006400024F008041460CC7A012C04D1146844F01E
:100650000404146003E0146824F0040414608C782B
:10066000A407CD7844EA05640D7944EA05444D7940
:1006700044EA05540D886D1E2C43D461146824F09F
:1006800001041460002300E05B1C546814F0010FA7
:1006900003D0A3F57F44FF3CF6D1546814F0010F5A
:1006A00001D0002000E0012030BD000070B50446FC
:1006B0002068902879D008DC60280FD061281AD0F3
:1006C000622825D063287AD12FE0912876D0B0F522
:1006D000E07F44D0B0F5287F71D133E0012104F1EF
:1006E0000B0001F02BF9374908830846006840F0F9
:1006F0000200086064E0012104F10B0001F01EF922
:10070000304948830846006840F00400086057E01C
:10071000012104F10B0001F011F92A4988830846F0
:10072000006840F0080008604AE0012104F10B0075
:1007300001F004F92349C8830846006840F010001E
:1007400008603DE0012104F10B0001F0F7F81D49BC
:10075000C8800846006840F02000086030E0E07A79
:10076000C043C5B215F0010F06D01648006840F42A
:1007700000501449086005E01248006820F4005059
:100780001049086015F0040F08D00E48006840F4C6
:1007900080400C49086007E007E010E00948006865
:1007A00020F48040074908600AE004F10B0002F0E1
:1007B000D9FAC0430449486002E0FFE700E000BF07
:1007C00000BF70BD200300206403002010B500F5B9
:1007D000D87303EB01131B6803F004031372137A3D
:1007E00053B900F5D87303EB01131B6840F2FF7493
:1007F00004EA5353136009E000F5D87303EB0113C7
:100800001B686FF0604404EAD303536000F5D873AB
:1008100003EB01131B6803F00203537200F5D87356
:1008200003EB01135B6803F00F03937200F5D873B9
:1008300003EB01135B681B0AD37400F5D87303EB59
:1008400001139B68D37200F5D87303EB01139B6807
:100850001C0A147300F5D87303EB01139B681C0C7E
:10086000547300F5D87303EB01139B681B0E93734D
:1008700000F5D87303EB0113DB68D37300F5D8736D
:1008800003EB0113DB681C0A147400F5D87303EB47
:100890000113DB681C0C547400F5D87303EB0113CF
:1008A000DB681B0E937421B9C36843F02003C36057
:1008B00003E0036943F02003036110BD1FB500206E
:1008C0008DF80A008DF80B0001208DF80C00002037
:1008D000ADF80000ADF80400ADF80200ADF8060078
:1008E000ADF8080001208DF80D006846FFF736FDD1
:1008F0001FBD00000EB5FFF7B1FCFFF78FFC012113
:10090000480601F007F91748FFF70CFD684600F0AC
:100910005BF800208DF806008DF807008DF80800C0
:1009200001208DF8090000208DF80A008DF80B00D9
:100930008DF802008DF8030007208DF804000620D2
:100940008DF805000920ADF8000069460548FFF75D
:1009500022FE012202210348FFF714FEFFF7AEFF3B
:100960000EBD000000640040F0B585B006460C46A0
:100970000027002500208DF8080000948DF809005C
:1009800008220DF10B013046FFF735FC08208DF8E9
:100990000A0069460B4800F027F807460AE0681C81
:1009A00085B2FF2D03DBFFF7A5FF05B0F0BD0120E9
:1009B00001F09EFCF9B2034800F0AAF80128EED13C
:1009C00000BFF2E70064004000218171C171017233
:1009D00041728172C1728170C17003210171022163
:1009E000417101210180704710B5024600209368D3
:1009F00003F08063B3F1806F00D110E0936803F0DF
:100A00000063B3F1006F01D1012008E0936803F0A7
:100A10008053B3F1805F01D1022000E0042004285C
:100A200074D002F5C07303EB00131B6803F00104DC
:100A300002F5C07303EB00131C600B7A7BB94B7A91
:100A40000C8843EA445302F5C07404EB0014246894
:100A5000234302F5C07404EB0014236010E00B7A0A
:100A60004C6843EAC4034C7A234302F5C07404EB98
:100A700000142468234302F5C07404EB00142360BF
:100A80008B7A03F00F038B7202F5C07303EB001334
:100A90005B6823F00F0402F5C07303EB00135C6086
:100AA00002F5C07303EB00135B688C7A234302F5F5
:100AB000C07404EB001463608B7B1C064B7B44EA20
:100AC00003440B7B44EA0323CC7A234302F5C0742E
:100AD00004EB0014A3608B7C1C064B7C44EA0344AB
:100AE0000B7C44EA0323CC7B234302F5C07404EB64
:100AF0000014E36002F5C07303EB00131B6843F0BE
:100B0000010402F5C07303EB00131C6010BD00006C
:100B100010B50246002321B1012907D002290FD1C7
:100B200009E090681D4C00EA04030BE090681C4C3F
:100B300000EA040306E090681A4C00EA040301E0AE
:100B4000002300BF00BF184C181BA34216D007DCBF
:100B500083B16FF0806018180ED0022818D111E010
:100B6000B0F5007F10D0114C001909D0B0F5003F4E
:100B70000ED10BE002230DE000230BE0002309E07F
:100B8000002307E0012305E0012303E0012301E046
:100B9000002300BF00BFD8B210BD00000300000456
:100BA0000003000800000310000100080001FFF727
:100BB00070B50446002529466D1C0120884020425E
:100BC00004D04021CB4800F055FE03E04021C94845
:100BD00000F04EFE2846691CCDB2012101FA00F05A
:100BE000204204D08021C34800F044FE03E080216D
:100BF000C04800F03DFE2846691CCDB2012101FA33
:100C000000F0204204D00902BA4800F033FE04E0AC
:100C10004FF48071B74800F02BFE2846691CCDB216
:100C2000012101FA00F0204204D04902B14800F04D
:100C300021FE04E04FF40071AE4800F019FE284692
:100C4000691CCDB2012101FA00F0204204D0090252
:100C5000A94800F00FFE04E04FF48071A64800F0B0
:100C600007FE2846691CCDB2012101FA00F020429E
:100C700004D0C903A04800F0FDFD04E04FF400419A
:100C80009D4800F0F5FD2846691CCDB2012101FA0E
:100C900000F0204204D08902964800F0EBFD04E009
:100CA0004FF48061934800F0E3FD2846691CCDB203
:100CB000012101FA00F0204204D0C9028D4800F061
:100CC000D9FD04E04FF400618A4800F0D1FD2846C8
:100CD000691CCDB2012101FA00F0204204D00903C1
:100CE000844800F0C7FD04E04FF48051814800F0D3
:100CF000BFFD2846691CCDB2012101FA00F0204257
:100D000003D07E4800F0B6FD03E001217B4800F0EF
:100D1000AFFD2846691CCDB2012101FA00F0204246
:100D200004D00221754800F0A5FD03E002217348BC
:100D300000F09EFD2846691CCDB2012101FA00F0A9
:100D4000204204D004216D4800F094FD03E004210A
:100D50006A4800F08DFD2846691CCDB2012101FAD8
:100D600000F0204204D00821644800F083FD03E035
:100D70000821624800F07CFD2846691CCDB20121A3
:100D800001FA00F0204204D010215C4800F072FD0E
:100D900003E01021594800F06BFD2846691CCDB2D4
:100DA000012101FA00F0204204D02021534800F034
:100DB00061FD03E02021514800F05AFD2846691CDE
:100DC000CDB2012101FA00F0204204D040214B486D
:100DD00000F050FD03E04021484800F049FD28465E
:100DE000691CCDB2012101FA00F0204204D080211B
:100DF000424800F03FFD03E08021404800F038FD0C
:100E00002846691CCDB2012101FA00F0204204D02D
:100E100008213B4800F02EFD03E00821384800F08F
:100E200027FD2846691CCDB2012101FA00F02042BD
:100E300004D01021324800F01DFD03E0102130489D
:100E400000F016FD2846691CCDB2012101FA00F020
:100E5000204204D020212A4800F00CFD03E020218C
:100E6000274800F005FD2846691CCDB2012101FA92
:100E700000F0204204D04021214800F0FBFC03E0B8
:100E800040211F4800F0F4FC2846691CCDB2012126
:100E900001FA00F0204204D08021194800F0EAFC59
:100EA00003E08021164800F0E3FC2846691CCDB21F
:100EB000012101FA00F0204204D00902104800F09C
:100EC000D9FC04E04FF480710D4800F0D1FC2846B5
:100ED000691CCDB2012101FA00F0204204D0490280
:100EE000074800F0C7FC04E04FF40071044800F02C
:100EF000BFFC70BD0010014000080140001401401B
:100F0000000C0140024600200A4201D0012000E00E
:100F10000020704710B54FF4005000F01BF80C484B
:100F2000007801F01BFA082800D110BD08480078AD
:100F300001F014FA042804D10548007801F0C2FA3F
:100F400004E00A210248007801F0F6FB00BFECE75C
:100F50001600002010F0805F02D00349086001E015
:100F6000024948607047000004040240000002404B
:100F700021B1026842F00102026004E002684FF60B
:100F8000FE731A400260704701684FF6FE7211400E
:100F900001600021016041608160C1604B4988426D
:100FA00008D14A490839496841F00F01474A083ACF
:100FB00051608AE045491431884208D143490839D3
:100FC000496841F0F001414A083A51607DE03F49EB
:100FD0002831884208D13D490839496841F4706197
:100FE0003A4A083A516070E038493C31884208D1A9
:100FF00036490839496841F47041344A083A516029
:1010000063E032495031884208D130490839496893
:1010100041F470212D4A083A516056E02B49643161
:10102000884208D129490839496841F47001274AA2
:10103000083A516049E025497831884208D123496E
:101040000839496841F07061204A083A51603CE033
:101050001F49884206D1011F096841F00F01021F94
:10106000116032E01A491431884208D11849091F29
:10107000096841F0F001164A121F116025E0144979
:101080002831884208D11249091F096841F470616A
:101090000F4A121F116018E00D493C31884208D1F7
:1010A0000B49091F096841F47041094A121F116078
:1010B0000BE007495031884207D10549091F0968EB
:1010C00041F47021024A121F11607047080002406B
:1010D000080402401AB103680B43036002E003688E
:1010E0008B430360704710B50022026847F6F07327
:1010F0009A430C6A8B6823430C6923434C6923434E
:101100008C692343CC6923434C6A23438C6A234371
:101110001A430260CB6843600B6883604B68C3600E
:1011200010BD704701490870704700006D00002035
:1011300001490870704700006E00002070470000F1
:1011400010B50020154908704FF4A07000F064FC41
:101150001349086000241DE000201149096801EBD3
:101160004411486103200E49096801EB44110872DB
:1011700000200B49096801EB44110861084909681E
:1011800001EB4411C8600649096801EB441188610C
:10119000601CC4B20A2CDFDB10BD00006000002020
:1011A0006400002024480078244908702248007810
:1011B000401C2149087022A0234909681F4A12785F
:1011C00001EB4211086000211F4800681B4A127899
:1011D00000EB4210417103201B490968174A12783D
:1011E00001EB4211C871012117480068134A1278B7
:1011F00000EB421001721548134909680F4A127832
:1012000001EB4211486100200F4909680B4A12782E
:1012100001EB4211C86000210B480068074A1278B0
:1012200000EB4210016108480068044A127800EBA4
:101230004210816170470000600000201D00002006
:1012400043414E310000000064000020F508000812
:10125000284800782849087026480078401C25490D
:1012600008702548007825490968234A127801EB5F
:101270004211087122A0214909681F4A127801EB26
:101280004211086000201D4909681B4A127801EBD1
:1012900042114871032019490968174A127801EB75
:1012A0004211C871012115480068134A127800EBF9
:1012B000421001721349114800680F4A127800EB7E
:1012C0004210416100200D4909680B4A127801EB78
:1012D0004211C860002109480068074A127800EBF3
:1012E0004210016105480068034A127800EB421081
:1012F00081617047600000207000002064000020C1
:1013000043545200F915000828480078284908700D
:1013100026480078401C2549087025480078254952
:101320000968234A127801EB4211087122A0214971
:1013300009681F4A127801EB4211086000201D491C
:1013400009681B4A127801EB4211487103201949C0
:101350000968174A127801EB4211C871012115483A
:101360000068134A127800EB4210017213491148C9
:1013700000680F4A127800EB4210416100200D49CD
:1013800009680B4A127801EB4211C8600021094834
:101390000068074A127800EB4210016105480068B6
:1013A000034A127800EB4210816170476000002010
:1013B0007100002064000020435452007918000896
:1013C000484800784849087046480078401C45491C
:1013D000087046A047490968434A127801EB421158
:1013E00008600021434800683F4A127800EB421031
:1013F000417103203F4909683B4A127801EB4211D1
:10140000C87103213B480068374A127800EB42104C
:101410000172394837490968334A127801EB4211A1
:1014200048613649334800682F4A127800EB421071
:10143000C16033482F4909682B4A127801EB4211E9
:10144000086100212B480068274A127800EB4210FF
:101450008161244800782B49087022480078401C9C
:101460002049087028A023490968264A127801EB10
:101470004211086000211F480068224A127800EBE0
:101480004210417103211B4800681E4A127800EB8C
:101490004210C171174800681A4A127800EB4210D6
:1014A0000172002113480068164A127800EB4210BE
:1014B000416112490F480068124A127800EB42104D
:1014C000C1600F480B4909680E4A127801EB4211BE
:1014D00008610020074909680A4A127801EB4211A5
:1014E000886170476000002014000020555341526D
:1014F0005431000064000020A5290008952D000843
:10150000912D0008150000205553415254315F526F
:101510005800000010B503211DA0FFF702FE0024B3
:1015200033E02248006800EB4410406958B31F487C
:10153000006800EB4410C079012804D0022815D0BF
:1015400003281FD10BE0194A126802EB4412107FE6
:10155000164A126802EB44125169884712E0134997
:10156000096801EB4411486980470BE00F4A126893
:1015700002EB4412D0690D4A126802EB4412516921
:10158000884700BF00BF601CC4B20A2CC9DB10BD75
:10159000546F732044657669636520496E69742EC3
:1015A0002E2E2E2E2E2E2E2E2E0000006400002019
:1015B00001490860704700001404014070B50446FA
:1015C0000025107820B116782068B0FBF6F085B2BF
:1015D0002068084420601078984203DA1078401C94
:1015E000107002E02068401B206016782068B0FB75
:1015F000F6F080B270BD000008B50020FFF7D8FA01
:101600000121042000F0A6FA4FF40140ADF80000DB
:1016100003208DF8020010208DF80300694626484B
:1016200000F054F80121082000F094FA4FF47E7085
:10163000ADF8000003208DF8020010208DF80300A3
:1016400069461E4800F042F80121102000F082FA9D
:101650004FF4FE50ADF8000003208DF8020010207A
:101660008DF803006946164800F030F8012120206B
:1016700000F070FAFF20ADF8000003208DF80200A2
:1016800010208DF8030069460E4800F01FF8012174
:10169000402000F05FFA1C20ADF8000003208DF818
:1016A000020010208DF803006946074800F00EF88C
:1016B00000F0CAFA08BD000000080140000C01401B
:1016C0000010014000140140001801402DE9F041D4
:1016D000024600250026002000230024002791F860
:1016E00003C00CF00F0591F803C01CF0100F03D0DD
:1016F00091F802C04CEA050591F800C0BCF1000F5A
:1017000031D0146800202BE04FF0010C0CFA00F3EC
:10171000B1F800C00CEA03069E4220D183004FF0CE
:101720000F0C0CFA03F7BC4305FA03FC4CEA040463
:1017300091F803C0BCF1280F06D14FF0010C0CFA50
:1017400000FCC2F814C00AE091F803C0BCF1480FD5
:1017500005D14FF0010C0CFA00FCC2F810C0401C7F
:101760000828D1D31460B1F800C0BCF1FF0F34DDFC
:10177000546800202EE000F1080C4FF0010808FA30
:101780000CF3B1F800C00CEA03069E4221D183009D
:101790004FF00F0C0CFA03F7BC4305FA03FC4CEABC
:1017A000040491F803C0BCF1280F05D100F1080C26
:1017B00008FA0CF8C2F8148091F803C0BCF1480F85
:1017C00007D100F1080C4FF0010808FA0CF8C2F834
:1017D0001080401C0828CED35460BDE8F081000082
:1017E000F0B50A46002300240021002500F0004641
:1017F000B6F1004F02D11D4EF16901E01B4E716838
:10180000C0F3034583B200F44016B6F5401F08D17B
:1018100021F07061154E766826F07066134F7E6079
:1018200012E000F48016B6F5801F06D1032606FAF2
:1018300005F4A14341F0706106E0460D360103FA5C
:1018400006F6B14341F0706122B1460D360103FA4C
:1018500006F6314300F00046B6F1004F02D1034EC8
:10186000F16101E0014E7160F0BD00000000014037
:10187000416170470161704708B50121202000F0E7
:1018800069F94FF47F40ADF8000003208DF80200A5
:1018900048208DF8030069462448FFF717FF01210F
:1018A000082000F057F94FF20700ADF800000320C0
:1018B0008DF8020048208DF8030069461C48FFF7A8
:1018C00005FF0121402000F045F94FF68070ADF88A
:1018D000000003208DF8020048208DF803006946BF
:1018E0001448FFF7F3FE0121102000F033F93020F7
:1018F000ADF8000003208DF8020048208DF80300A9
:1019000069460D48FFF7E2FE0121042000F022F9AC
:101910003020ADF8000003208DF8020048208DF83B
:10192000030069460448FFF7D1FE08BD00140140DA
:10193000000C014000180140001001400246002048
:1019400039B950784FF6FF7303EA00201378184333
:1019500006E010784FF6FF7303EA0020537818432F
:10196000704701E000F034F8FCE710B545F255503F
:1019700000F028F8062000F019F84FF47F6000F01E
:101980001BF800F00BF800F001F810BD4CF6CC404D
:101990000149086070470000003000404AF6AA2064
:1019A000014908607047000000300040014948606C
:1019B0007047000000300040014988607047000017
:1019C00000300040014908607047000000300040CE
:1019D00071B600BF0648006800F4E060054908439E
:1019E000001D03490860BFF3408F00BF00BFFEE742
:1019F0000CED00E00000FA0500BFFEE705490860B5
:101A00000021044A126811600821024A12685160DC
:101A1000704700006800002010B5034610480168B8
:101A200003F1080083B20FE00868401A4C68001BFD
:101A3000984208D3486842185360086810600A60EA
:101A400002F1080010BD096808680028ECD1486858
:101A500042180020106053600A6002F10800F1E7AC
:101A6000680000207047000070B5002100230F229D
:101A7000C4780CB3164C246804F4E064C4F5E06444
:101A8000210AC1F10403CA40447804FA03F18478BE
:101A90001440214309010F4C0678A155047804F045
:101AA0001F050124AC4005786D114FF0E02606EBD0
:101AB0008505C5F8004109E0047804F01F050124FC
:101AC000AC40054D0678761145F8264070BD000003
:101AD0000CED00E000E400E080E100E00249014399
:101AE000024A1160704700000000FA050CED00E0AA
:101AF0007047000029B1064A52690243044B5A61FB
:101B000004E0034A52698243014B5A617047000066
:101B10000010024029B1064AD2690243044BDA613F
:101B200004E0034AD2698243014BDA617047000046
:101B30000010024029B1064A12690243044B1A619F
:101B400004E0034A12698243014B1A6170470000A6
:101B50000010024029B1064A92690243044B9A617F
:101B600004E0034A92698243014B9A617047000086
:101B70000010024030B500210022002400232D4D2A
:101B80006D6805F00C0121B1042905D0082923D185
:101B900005E0294D056022E0274D05601FE0254D39
:101BA0006D6805F47012234D6D6805F480340225CC
:101BB00005EB92421CB9214D554305600BE01D4DCC
:101BC0006D6815F4003F03D01C4D5543056002E0DD
:101BD000194D5543056002E0174D056000BF00BF79
:101BE000144D6D6805F0F0010909154D6B5C056831
:101BF000DD4045600F4D6D6805F4E061090A104D48
:101C00006B5C4568DD4085600A4D6D6805F4605188
:101C1000C90A0B4D6B5C4568DD40C560054D6D68BC
:101C200005F44041890B074D6B5CC568B5FBF3F5C6
:101C3000056130BD0010024000127A0000093D002D
:101C4000000000201000002010B501210148FFF71E
:101C5000C7FD10BD0002300000206949096811F479
:101C6000004F01D040F001006549096811F4804F30
:101C700001D040F002006249096811F4005F01D010
:101C800040F004005E49096811F4805F01D040F023
:101C900008005B49096811F4006F01D040F01000A2
:101CA0005749096811F4806F01D040F02000544971
:101CB000096811F4007F01D040F0400050490968E4
:101CC00011F4807F01D040F080004E49096811F482
:101CD000004F01D040F480704A49096811F4804FE8
:101CE00001D040F400704749096811F4005F01D049
:101CF00040F480604349096811F4805F01D040F4EA
:101D000000604149096811F4004F01D040F480504F
:101D10003D49096811F4804F01D040F400503A4920
:101D2000096811F4005F01D040F480403649096829
:101D300011F4805F01D040F400403349096811F488
:101D4000006F01D040F480302F49096811F4806F92
:101D500001D040F400302C49096811F4007F01D013
:101D600040F480202849096811F4807F01D040F4B4
:101D700000202549096811F0800F01D040F480103F
:101D80002049096811F0040F01D040F400101D49EA
:101D9000096811F0020F01D040F480001949096868
:101DA00011F0010F01D040F400001849896811F0CA
:101DB000200F01D040F080701449896811F0100F95
:101DC00001D040F000701249096811F0800F01D075
:101DD00040F080600E49096811F0400F01D040F0DA
:101DE00000600B49096811F0200F01D040F08050CD
:101DF0000749096811F0100F01D040F000507047FA
:101E000008140140080C014008180140001001406E
:101E100008080140704710B500F002F810BD00003E
:101E20000CB50020019000903248006840F48030EA
:101E30003049086000BF2F48006800F4003000906F
:101E40000198401C0190009818B90198B0F5A06F56
:101E5000F1D12848006810F4003F02D00120009022
:101E600001E0002000900098012842D1224800683B
:101E700040F01000204908600846006820F0030088
:101E800008600846006840F0020008601948406891
:101E9000184948600846406848600846406840F471
:101EA000806048600846406820F47C10486008461E
:101EB000406840F4E81048600846006840F08070D0
:101EC000086000BF0B48006810F0007FFAD0094896
:101ED000406820F00300074948600846406840F029
:101EE0000200486000BF0348406800F00C0008286A
:101EF000F9D10CBD001002400020024010B500F0E6
:101F000055F910BD10B51348006840F001001149A3
:101F1000086008464068104908400E494860084675
:101F200000680E4908400B4908600846006820F424
:101F3000802008600846406820F4FE0048604FF4A6
:101F40001F008860FFF767FF4FF0006004490860DA
:101F500010BD0000001002400000FFF8FFFFF6FE79
:101F600008ED00E008211348FFF784FC1021114818
:101F7000FFF77EFC0220FFF7D5F8FF20FFF7D8F827
:101F800004210C48FFF774FC4FF4FA6000F0B0F93C
:101F90000EE004210748FFF76BFC642000F0A8F96D
:101FA00004210448FFF766FC4FF4617000F0A0F9CB
:101FB000EFE70000001801400EB503208DF8000087
:101FC00019E010210C48FFF753FCFFF745FE0446CB
:101FD0002146684600F0CAFE4FF4E0716846FEF7FD
:101FE000C3FCFA2000F084F910210348FFF742FCFB
:101FF000FA2000F07DF9E4E70018014010B5104820
:102000000078092804D00F480078401C0D4908705A
:102010000D480078401C0C49087008460078642878
:102020000DDD002008701423084A0648017808488E
:10203000FFF7C4FA0749087000200249087010BD74
:10204000500000203C00002034000020350000201B
:10205000380000204800002010B54FF40270FFF750
:10206000DBFC2549086002202449487000204860B4
:1020700000242EE0002004EB840101EBC4011E4A81
:10208000126802EB8101088104EB840101EBC401B9
:10209000194A126802EB8101886104EB840101EBAB
:1020A000C401154A126842F8210004EB840101EBD7
:1020B000C401114A126802EB8101086204EB840139
:1020C00001EBC4010C4A126802EB81018884601C98
:1020D000C4B20A2CCEDB0920094908700020094946
:1020E000086009498873094BFF224FF47A7106484A
:1020F00000F03AFB10BD000058000020480000200E
:10210000500000205C0000200C0300205128000833
:10211000FFF700FAFFF729FC06E0FFF73FFC642019
:1021200000F0E6F800F06AFBF7E7000038B5184960
:10213000B1F1807F00D31DE021F07F40401E4FF0C1
:10214000E022506150170F22002807DA13071D0EF6
:10215000104B00F00F04241F1D5503E013071C0E45
:102160000D4B1C5400BF00204FF0E022906107206F
:10217000106100BF4FF47A7008A300220A49009052
:10218000092000F045F8092000F01CFA38BD0000D5
:102190004019010018ED00E000E400E05461736BA9
:1021A000526F6F74000000001121000810B5FFF796
:1021B00025FF00F0E5F80D484078102805D10321EF
:1021C0000BA0FEF7AEFFFFF703FC10488089401C10
:1021D0000E498881084680890989884205DD0B49B6
:1021E0000869804700200949888110BD4800002007
:1021F0005461736B2054696D654F75742057696C19
:102200006C20544F53205265736574000C030020FA
:102210002DE9F04704460D4691461F46DDF8208023
:102220000DB9BDE8F08704EB840000EBC4002F4932
:10223000096801EB8000808CB8B91FFA88F0FFF7BD
:10224000EBFB064604EB840000EBC400274A12684F
:1022500002EB8000A0F8248004EB840101EBC401B0
:10226000224A126802EB81010E6204EB840202EB47
:10227000C4021E4B1B6803EB8202918C04EB8402A8
:1022800002EBC402194B1B6803EB8202106A00F0D8
:1022900049FA8246022004EB840101EBC401134A8F
:1022A000126802EB8101088104EB840000EBC4009A
:1022B0000E49096801EB8000456004EB840000EBE7
:1022C000C4000A49096801EB800007634A462946B1
:1022D000504600F03FF904EB840101EBC401034ACE
:1022E000126842F8210000BF9BE700005800002060
:1022F00010B5044616484078012825D0002015491D
:10230000097801EB810202EBC101134A126802EB6A
:10231000810188610F48007800EB800101EBC0006B
:102320000D49096801EB80004461082109480078E3
:1023300000EB800202EBC000074A126802EB80004B
:10234000018100F091F902E02046FDF747FF10BD42
:1023500048000020500000205800002001460A29B3
:1023600001DB0020704701EB810000EBC100034A54
:10237000126802EB80000089F4E70000580000209A
:10238000002097E000EB800101EBC0014B4A12688E
:1023900002EB81010989022906D0082927D01029DA
:1023A00058D020297ED180E000EB800101EBC001F4
:1023B000424A126802EB81018969491C00EB8002E4
:1023C00002EBC0023D4B1B6803EB8202916100EB04
:1023D000800101EBC001394A126802EB8101896971
:1023E000B1F5FA6F02D91021354A51705FE0002231
:1023F00000EB800101EBC001304B1B6803EB810156
:102400008A6100EB800101EBC0012C4A126802EBEB
:102410008101496951B9022100EB800202EBC0023F
:10242000264B1B6803EB8202118112E000EB800156
:1024300001EBC001214A126802EB81014969491E82
:1024400000EB800202EBC0021C4B1B6803EB820214
:1024500051612CE000EB800101EBC001174A1268CA
:1024600002EB8101C96951B9022100EB800202EB44
:10247000C002124B1B6803EB8202118114E000EBD7
:10248000800101EBC0010D4A126802EB8101C969AC
:10249000491E00EB800202EBC002084B1B6803EBF5
:1024A000820200E002E0D16101E000E000BF00BF75
:1024B000411CC8B20A28FFF665AF704758000020DB
:1024C000480000200A2800DB704700EB800101EB88
:1024D000C001094A126802EB81010989082909D063
:1024E000082100EB800202EBC002034B1B6803EBE8
:1024F0008202118100BFE7E75800002010B50446B2
:1025000010480078A04200D110BD0E48007800EBC2
:10251000800101EBC0000C49096801EB80000B4908
:10252000086008480470007800EB800101EBC000EF
:102530000549096851F8200005490860FDF726FEA5
:1025400000BFE1E7500000205800002044000020B8
:102550004000002030B503461846041F2046216085
:10256000041F204623600025041F20462560041F09
:1025700020462560041F20462560041F2046256054
:10258000041F20462560041F20462560041F2046A6
:102590002560041F20462560041F20462560041F77
:1025A00020462560041F20462560041F2046256024
:1025B000041F204622604FF08075041F20462560CE
:1025C00030BD000010B5044604EB840000EBC400ED
:1025D0000449096851F8200003490860FDF7EFFD40
:1025E00010BD0000580000204000002010B5044637
:1025F0000A2C00DB10BD04EB840000EBC400194979
:10260000096801EB80000089082801D1012000E061
:10261000002004EB840101EBC401124A126802EBB2
:1026200081010989022901D1012100E0002108432B
:1026300015D0042004EB840101EBC401094A12689F
:1026400002EB81010881002104EB840000EBC4004F
:10265000044A126802EB8000416100F005F800BFF7
:10266000C8E700005800002010B502212A48006881
:10267000A0F8DC1100244BE004EB840000EBC40064
:102680002549096801EB80000089022806D0082846
:102690000CD010280BD0202836D109E01F48007834
:1026A000A04202D02046FFF729FF10BD2DE02CE00C
:1026B00004EB840000EBC4001749096801EB8000BB
:1026C00090F826001649096801EB4010007A0128AD
:1026D00019D1082004EB840101EBC4010E4A1268F1
:1026E00002EB81010881032104EB840000EBC400AC
:1026F000094A126802EB800090F82600084A126826
:1027000002EB4010017200E000BF00BF601CC4B2C9
:102710000A2CB1DB00BFC8E75800002050000020A1
:10272000640000200246501820F00303A3F1340097
:1027300020F007007047000010B5102200EB800366
:1027400003EBC003074C246804EB83031A8100EBFE
:10275000800202EBC002034B1B6803EB8202D161D3
:1027600010BD00005800002070B504460D46164606
:1027700001221449887B002816DD0AE04968002AF6
:1027800007DD0878904202D02270002201E0501C40
:10279000C2B248680028F1D1002A00DD22700A4840
:1027A0000078A0734C6005E00C46002020700648BD
:1027B0000078A073258166810020A081236160607C
:1027C000207870BD0C0300205000002002460A490A
:1027D0000CE048680078904207D100204B6858818F
:1027E0004868406848601046704749684868002853
:1027F000EFD100BFF8E700000C03002010B5134C28
:102800001FE06068807B10F0400F19D06068807B0B
:1028100010F0800F12D06168086980476068807B83
:1028200020F08000616888736068408920B9616821
:102830000878FFF7CBFF04E0646802E0646800E01A
:10284000646860680028DCD110BD00000C03002023
:1028500012481EE04068817B11F0400F19D0418979
:10286000002916DD81890289914203DA8189491C98
:1028700081810EE04189FF2902DA4189491E4181A7
:102880004189002901DD00218181817B41F08001A6
:10289000817341680029DDD1704700000C030020DE
:1028A00010B540F225510E4800F083F9B8B10C483C
:1028B000001D0088C4B20B48C0880B49C9888842F3
:1028C0000DDA0848C188C088401C064AD0800748F5
:1028D000C06844540649C8780A21FFF72DFF10BD8F
:1028E000004C004002030020F8020020D00200202B
:1028F0002D00002010B540F225510E4800F059F986
:10290000B0B10C488088C4B20B4800890B490989D2
:1029100088420DDA084801890089401C064A108166
:10292000074800694454074908790A21FFF704FF62
:1029300010BD00000050004002030020F8020020FB
:10294000D00200202D0000201FB500F073F80121F7
:102950008803FFF7FFF84FF4165000900020ADF801
:102960000400ADF80600ADF80800ADF80C000C202E
:10297000ADF80A0069460A4800F06AF9012240F2FF
:102980002551074800F03FF90121054800F0FCF807
:10299000012000F09BF84021014800F0DDF81FBD48
:1029A0000038014000B58DB0FFF7CEFF0121084689
:1029B000FFF7A0F80E208DF8300003208DF83100CD
:1029C00002208DF8320001208DF833000CA8FFF7AB
:1029D0004BF81548FEF7D8FA1448019014480290B5
:1029E000102003904FF496700490002005908020F2
:1029F000069000200790089009904FF400500A902C
:102A000000200B9001A90848FEF76DFB012202216E
:102A10000548FEF75FFB012280210448001F00F0FB
:102A2000BFF80DB000BD0000440002400438014072
:102A3000A401002008B501210520FFF78BF84FF411
:102A40000070ADF8000003208DF8020018208DF80A
:102A5000030069460748FEF739FE4FF48060ADF881
:102A6000000004208DF8030069460248FEF72EFEA0
:102A700008BD00000008014010B540F225510E4885
:102A800000F097F8B0B10C48001D0088C4B20B48A4
:102A900000880B49098888420CDA084801880088B8
:102AA000401C064A1080074844540A210648007812
:102AB000FFF742FE10BD0000003801401A00002060
:102AC00018000020780000201700002038B50446C8
:102AD0004FF48060FFF702F825208DF800000220F7
:102AE0008DF8010001208DF802008DF80340684642
:102AF000FEF7BAFF38BD000010B540F2255111486D
:102B000000F057F8C0B10F48001D0088C4B20E484D
:102B100040880E494988884213DA0B48418840882A
:102B2000401C094A50800A48406844540949487882
:102B30000A21FFF701FE04E040F22551014800F0B0
:102B400014F810BD0044004002030020F8020020E9
:102B5000D00200202D00002001F40072B2F5007FA9
:102B600000D100BFCA430280704710B50022002385
:102B7000A1F510646A3C00D100BF0A120124944000
:102B8000A3B2DC43048010BD21B1828942F400521B
:102B9000828104E082894DF6FF731A40828170477A
:102BA0001AB1838A0B43838202E0838A8B43838238
:102BB000704770B502460024002300250020A1F5CF
:102BC00010666A3E00D100BFC1F3421501F01F0339
:102BD000012606FA03F3012D02D19689334006E05F
:102BE000022D02D1168A334001E0968A33400C123E
:102BF000012606FA04F41688344013B10CB1012002
:102C000000E0002070BDF0B503460024002600253A
:102C10000020A1F510676A3F00D100BF1846C1F33C
:102C2000421401F01F06012707FA06F5012C01D115
:102C30000C3004E0022C01D1103000E014301AB145
:102C400007682F43076002E00768AF430760F0BDE5
:102C50002DE9F04786B005460E460024A24600BF87
:102C6000A1460027B08900B100BF2F462C8A4CF640
:102C7000FF700440F08804432C82AC894EF6F310B8
:102C80000440B08831890843718908430443AC810A
:102C9000AC8A4FF6FF400440B0890443AC8201A8DF
:102CA000FEF768FF1F48874202D1DDF810A001E05F
:102CB000DDF80CA0A88910F4004F08D00AEBCA0078
:102CC00000EB0A1031684900B0FBF1F807E00AEBAD
:102CD000CA0000EB0A1031688900B0FBF1F86420EB
:102CE000B8FBF0F004012009642101FB1089A889D8
:102CF00010F4004F08D0322000EBC900B0FBF1F017
:102D000000F00700044308E0322000EB09106421C2
:102D1000B0FBF1F000F00F0004432C8106B0BDE8D9
:102D2000F08700000038014010B54FF48020FEF716
:102D30003FFC10BD00B585B002210948FDF792FBAC
:102D400058B102210648FDF799FA6A460021044865
:102D5000FDF73CFD6846FDF7A9FC05B000BD00008D
:102D60000064004001460A461068704713B50246E9
:102D7000042301A903E011F8010B02F8010B18006C
:102D8000A3F10104E3B2F6D104201CBD00BFFEE7AD
:102D90007047000070B506460C4615460A48007894
:102DA0000A4908700A4804658564012108484430CE
:102DB000FEF7DEF805480078FFF718FC002104480C
:102DC0004430FEF7D5F870BD5000002016000020FA
:102DD0000000024002E008C8121F08C1002AFAD110
:102DE00070477047002001E001C1121F002AFBD18B
:102DF0007047000008B51248FEF700FEFEF7A0F984
:102E0000FEF7DEFAFEF724FAFEF77EFAFEF7CAF9BD
:102E1000FFF722F940F6B8300AA300220B490090D0
:102E20001046FFF7F5F940F6B83009A300220A4929
:102E300000900120FFF7ECF9FFF778F900BFFEE7FB
:102E4000820300205461737430000000651F000885
:102E50005461737432000000B91F00087C2E000812
:102E60000000002078000000D42D0008F42E000897
:102E70007800002050A30000E42D000800000000AE
:102E800001020304010203040607080902040608FC
:102E9000FFFF0A0A00000000FFFFFFFF0000000024
:102EA0000000000000000000000000000000000022
:102EB0000000000000000000000000000000000012
:102EC0000000000000000000000000000000000002
:102ED00000000000000000000000000000000000F2
:102EE0000000000000000000FF00FF00FFFF0000E6
:042EF00000000000DE
:0400000508000131BD
:00000001FF
