:020000040800F2
:1050000048A20020455100089D9B000849830008E4
:1050100035980008815E00083DE9000800000000A6
:10502000000000000000000000000000F1B70008D0
:10503000B56A000800000000ED9C00088BC0000865
:105040005F5100085F5100085F5100085F51000880
:105050005F5100085F510008F97100085F510008B6
:105060005F5100085F5100085F5100085F51000860
:105070005F5100085F5100085F5100085F51000850
:105080005F5100085F5100085F5100085F51000840
:105090005F5100085F5100085F5100085F51000830
:1050A0005F5100085F5100085F5100085F51000820
:1050B0005F5100085F5100085F5100085F51000810
:1050C0005F5100085F5100085F5100085F51000800
:1050D0005F51000851E20008A5E2000805E300085E
:1050E0005F5100085F51000831E900085F51000876
:1050F0005F5100085F5100085F5100085F510008D0
:105100005F5100085F5100085F5100085F510008BF
:10511000A9E10008FDE100085F5100085F510008A7
:105120005F5100085F5100085F5100085F5100089F
:10513000DFF80CD000F078FC00480047F9F20008D6
:1051400048A200200648804706480047FEE7FEE7E1
:10515000FEE7FEE7FEE7FEE7FEE7FEE7FEE7FEE727
:10516000C5C000083151000830B505462A460B4637
:1051700012F8010B13F8014B08B1A042F8D01CB192
:10518000002802D06D1CF1E7284630BDF0B480EA5B
:105190000102D40F4200B2EB410F02D20246084690
:1051A00011464A0042D0C30DDDB2C1F3C752AD1A59
:1051B000202D35DAC1F3160141F4000204B1524248
:1051C000C5F1200602FA06F12A411044B3EBD05F84
:1051D00023D0C4B1012DA0EBC35009DCF0BC4FF0CB
:1051E000004202EAC352DBB200F5000000F079BBD6
:1051F000400000F1807000EBC350A0F1807040EAE5
:10520000D170490009E0490841EAC071A0EBC350E0
:1052100000F50000400800EBC350F0BC00F058BBA4
:105220006142012202EB4101001BF6E7F0BC70472E
:1052300081F00041AAE780F00040A7E780EA010280
:1052400010B502F00043400022D04A001FD0010EEA
:1052500001EB1261C0F35600C2F3560240F40000A5
:1052600042F40002A0FB022000047F39140400D0A5
:10527000401C50EA124001D44000491EC2B20C0644
:1052800004EBD010401C4008802A02D003E000202C
:1052900010BD20F00100002900DA0020184310BDE5
:1052A00030B480EA010202F0004530F0004221F003
:1052B000004013D090B1C30DD40DC2F31601C0F35A
:1052C0001600E41A41F4000140F400027D349142DA
:1052D00001D3641C00E04900002C02DA30BC00203D
:1052E00070474FF400000023914201D3891A034311
:1052F00040084FEA4101F7D151B1914202D14FF03C
:10530000004105E002D24FF0010101E06FF0010120
:1053100003EBC450284430BC00F0DABA2DE9FE4F4C
:10532000804681EA0300C00F0C46009021F0004146
:1053300023F00045B8EB0200A94105D240462146C2
:1053400090461C460B46024623F00040104347D0CF
:10535000270DC7F30A00C3F30A510290401A0190C7
:1053600040286BDAC3F3130040F4801B0098924688
:1053700020B10023D2EB030A63EB0B0B01985946D3
:10538000C0F14002504600F072FA06460D46504603
:105390005946019A00F08AFA10EB08006141002496
:1053A00087EA115284EAE7731A4340D0009A62B345
:1053B000019A012A4FEA075215DC001B61EB02013A
:1053C0004FF0004202EA0752CDE90042001C41F5CD
:1053D000801132462B4600F0C1FA03B0BDE8F08FD1
:1053E00040462146F9E7001B61EB0201001C41F534
:1053F000801300185B412018A2F5001747EB03014A
:1054000040EAD570B6196D4111E06D084FEA3606D5
:1054100045EAC0754FEA0752001B61EB0201001C10
:1054200041F5801149084FEA3000001951413246D8
:105430002B4603B0BDE8F04F00F081BA009801227E
:1054400040000023D0EB020263EBE073009821469A
:105450004FEAE074B8EB000061EB0401E9E783F088
:1054600000435BE781F0004158E72DE9FE4F81EAF8
:10547000030404F0004421F0004100944FF0000BBD
:1054800023F0004350EA01045ED052EA03045BD0EB
:10549000C3F30A54C1F30A552C44A4F2F334019423
:1054A000A0FB0254C1F3130141F48011C3F31303B1
:1054B00043F4801301FB024400FB034E840A970A65
:1054C00044EA815447EA8357A4FB076802958D0A92
:1054D00005FB07854FEA932C04FB0C542705029D1E
:1054E0004FEA065847EA1637B5EB08056EEB070C8E
:1054F000870E920E47EA811742EA8312A7FB020148
:10550000B6EB0B0164EB00042B0D43EA0C335E1881
:1055100044EB1C50DA465146E7FB0201C5F3130485
:105520004FEA0B3343EA14534FEA0432019C43EA37
:105530000603A4F10C040294009CCDE900B400F031
:105540000DFA03B0BDE8F08F00200146F9E72DE920
:10555000F04D81EA030404F0004B21F000451446AD
:105560004FF0000A23F0004150EA050220D054EA2F
:1055700001021DD0C5F30A570246C5F31303C1F358
:105580001300C1F30A5640F4801543F48013A7EBCF
:105590000608101BD64608F2FD3873EB050002D34F
:1055A00008F1010801E092185B41B8F1000F03DA3D
:1055B00000200146BDE8F08D00204FF48011064622
:1055C00084460EE0171B73EB050705D3121B63EB34
:1055D000050306434CEA010C49084FEA30009218D3
:1055E0005B4150EA0107EDD152EA030012D082EA92
:1055F000040083EA0501084305D0101BAB4106D225
:105600000122002306E000224FF0004302E06FF089
:10561000010253101AEB06004CEB085110EB0A0084
:1056200041EB0B01BDE8F04D00F089B9C10F80EAF4
:10563000E0700844CA079623002100F052B996236F
:105640000022114600F04DB90EB540F233410291EF
:105650000021CDE900110A460B4600F07FF903B0A6
:1056600000BD00F0004220F00040C10DC0F3160064
:1056700040F400007F2901DA00207047962903DCFE
:10568000C1F19601C84001E096398840002AF4D063
:105690004042704720F00040C10DC0F3160040F4B6
:1056A00000007F2901DA00207047962903DCC1F150
:1056B0009601C840704796398840704770B5C1F36D
:1056C0000A5201F000450024C1F3130140F2FF33F8
:1056D00041F480119A4201DA002070BD40F2334358
:1056E0009A42A2F2334203DC524200F0CFF800E0CB
:1056F00090402C43F1D0404270BD00F0004230F0A9
:1057000000400AD0C10D01F56071C0F3160042EAF5
:105710000151C208400711437047002001467047FD
:1057200030B5041E71F1000404DB4FF00044404228
:1057300064EB0101141E73F1000405DB1C464FF0FD
:105740000043524263EB04038B4208BF824230BDE8
:1057500030B5041E71F1000404DB4FF000444042F8
:1057600064EB0101141E73F1000405DB1C464FF0CD
:105770000043524263EB0403994208BF904230BD9C
:1057800001F0004330B421F0004150EA010206D09C
:105790000A0DA2F56072C1F31301002A02DC30BCCD
:1057A00000207047440F44EAC104C100E01830BC37
:1057B00000EBC25000F08CB8002801DBC0F10040C3
:1057C000002901DBC1F1004181427047002801DB63
:1057D000C0F10040002901DBC1F10041884270475F
:1057E00030B50B46014600202022012409E021FAB1
:1057F00002F59D4205D303FA02F5491B04FA02F5AE
:105800002844151EA2F10102F1DC30BD2DE9F05F44
:105810000546002092469B4688460646814640241F
:105820001BE0284641464746224600F02FF85346E3
:105830005A46C01A914110D311461846224600F02C
:1058400016F82D1A67EB01084F4622460120002169
:1058500000F00DF817EB00094E41201EA4F10104E1
:10586000DFDC484631462A464346BDE8F09F202A01
:1058700004DB203A00FA02F1002070479140C2F1A7
:10588000200320FA03F3194390407047202A04DBD9
:10589000203A21FA02F00021704721FA02F3D040A9
:1058A000C2F120029140084319467047202A06DBC6
:1058B000CB17203A41FA02F043EAE07306E041FADE
:1058C00002F3D040C2F120029140084319467047CC
:1058D0000029A8BF7047401C490008BF20F0010004
:1058E000704710B4B0FA80FC00FA0CF050EA0104E2
:1058F00004BF10BC704749B1CCF1200421FA04F474
:1059000011FA0CF118BF012121430843A3EB0C014C
:10591000CB1D4FEA00614FEA102042BF002010BCAF
:10592000704700EBC35010440029A4BF10BC70475F
:10593000401C490008BF20F0010010BC704710B5A2
:10594000141E73F1000408DA401C41F100019218A2
:105950005B411A4301D120F0010010BD2DE9F04D4B
:1059600092469B4611B1B1FA81F202E0B0FA80F2A0
:1059700020329046FFF77BFF04460F4640EA0A00BC
:1059800041EA0B0153465A46084313D0114653EAE5
:10599000010019D0C8F140025046FFF777FF0546D5
:1059A0000E46504659464246FFF761FF084305D070
:1059B000012004E020463946BDE8F08D0020054373
:1059C00046EAE0762C4337430A986305E40AA0EBE5
:1059D00008000022FD0A44EA47540A3002D500209C
:1059E0000146E9E7010510196941DDE9084500199B
:1059F0006941BDE8F04DA2E7C1F30A52C1F31301BA
:105A000040F2FF3341F480119A4202DA002001464D
:105A1000704740F233439A42A2F2334202DC5242D0
:105A2000FFF734BFFFF723BF064C074D06E0E068E1
:105A300040F0010394E8070098471034AC42F6D3D5
:105A4000FFF77AFB286501084865010882B02DE957
:105A5000FF1FEFF3038001B4684600F1400000E946
:105A600001400C480168C1F800D00B48D0F800D0C4
:105A700001BC80F30388BDE8FF1F01B000BD0648EC
:105A8000D0F800D001BC80F30388BDE8FF1F01B04F
:105A900000BD0000400000203C00002008B50121AE
:105AA000084605F0E3F901214FF4047005F0FEF912
:105AB0001020ADF8000000208DF803006946024870
:105AC00001F05EFE08BD00000010014010B5044664
:105AD000FFF7E4FF204600F001F810BD10B590B0CC
:105AE0000446334800F0FCFB324805900694002041
:105AF000079001200890002009900A904FF48070D0
:105B00000B9080000C9020200D9000020E90002041
:105B10000F9005A9264800F089FC0121244800F0D7
:105B2000D3FB002000908DF8040001208DF80500C3
:105B30004FF4602002900020039001208DF81000A7
:105B400069461C484C3800F061F84FF4404005F0BD
:105B500081F9052301220E2116484C3800F07EF809
:105B6000012114484C3800F032F8012111484C381A
:105B700000F022F80F484C3800F0CCF800BF0D4878
:105B80004C3800F039F80028F9D10A484C3800F0B8
:105B9000D1F800BF07484C3800F024F80028F9D1AC
:105BA000012104484C3800F0BAF810B010BD0000D4
:105BB000080002404C24014021B1826842F00102F9
:105BC000826003E0826822F001028260704721B1A6
:105BD000826842F48072826003E0826822F48072FC
:105BE00082607047014600208A6802F004020AB110
:105BF000012000E000207047014600208A6802F082
:105C000008020AB1012000E00020704730B50246CA
:105C10000020002350680F4C20400D790C6844EAA6
:105C200005242043506090680B4C2040D1E9025479
:105C30002C434D7944EA450420439060D06A20F417
:105C400070000C7C641EE4B2234340EA0350D0622F
:105C500030BD0000FFFEF0FFFDF7F1FFF0B5044698
:105C60000D4600200021092D11DDE068A5F10A068E
:105C700006EB4607072606FA07F18843A5F10A0650
:105C800006EB460603FA06F10843E0600CE02069E3
:105C900005EB4507072606FA07F1884305EB45069D
:105CA00003FA06F108432061072A0FDA606B561EDB
:105CB00006EB86071F2606FA07F18843561E06EBF9
:105CC000860605FA06F10843606322E00D2A0FDA22
:105CD000206BD61F06EB86071F2606FA07F18843BE
:105CE000D61F06EB860605FA06F10843206310E08E
:105CF000E06AA2F10D0606EB86071F2606FA07F1F9
:105D00008843A2F10D0606EB860605FA06F1084364
:105D1000E062F0BD816841F008018160704721B107
:105D2000826842F4A002826003E0826822F4A0024A
:105D300082607047816841F004018160704710B54E
:105D4000044600212046FFF741FD01D2204610BD48
:105D500000212046FFF76FFAF9E7000010B5012196
:105D60000C4801F0E6FD0A2007F0BCFE01210948BD
:105D700001F0DDFD282007F0B5FE0121054801F006
:105D8000D8FD0A2007F0AEFE0121024801F0CFFD48
:105D900010BD0000000C014010B50021074803F0C1
:105DA000DBFB044644B9052105A000F09FFD01215D
:105DB000024803F0D1FB0446204610BD4C9D002054
:105DC000C5E4D6C3B2CECAFDC6ACC7F8D2BBB4EDEB
:105DD000CEF3000006E04FF47A7100BF0A1EA1F175
:105DE0000101FBD1021EA0F10100F4D17047014670
:105DF000081100EB4000A1EB4000C0B2704700006A
:105E000030B50246002441F66F2316E0E01800EB9F
:105E1000D07569100B4830F82100904204D1094830
:105E200000EB8100408830BD064830F821009042E8
:105E300001DA4C1C00E04B1E00BF9C42E6DD002056
:105E4000F1E7000034F70008F0B5034600201C46D7
:105E50000D46104603E014F8016B05F8016B161EA1
:105E6000A2F10107BAB2F6D1F0BD30B5034601E0A8
:105E700003F8011B141EA2F10105AAB2F8D130BD2E
:105E800000BFFEE72DE9F04105460E46424803F00B
:105E90002DFDA84202DC0020BDE8F08105EB4500A5
:105EA0003D4901EB8004142231463C4808F014FDC2
:105EB000207A092833D008DC02280FD0042837D0F4
:105EC000052823D0062863D116E00B280BD018280C
:105ED0004BD01A2856D01D285AD12FE0606808B13F
:105EE0006068804754E0304602F074F80746FFF7D8
:105EF000D1FB616808704BE0304602F06BF8074652
:105F0000FFF7AFFB40B26168087041E0304602F035
:105F100061F80746FFF7BEFB6168088038E030464D
:105F200002F058F80746FFF7B5FB616808602FE0FC
:105F3000304602F04FF86168086029E018A1304649
:105F400006F08BF840B160680068627A01219140E8
:105F500008436168086007E060680068627A0121B0
:105F6000914088436168086012E00DA1304606F058
:105F700074F818B101206168087002E000206168BF
:105F8000087005E0627A30466168FFF75DFF00BF88
:105F900000BF012080E70000B4F500080044004085
:105FA0005400000070B504460D460A4803F09EFCFC
:105FB000A04201DC002070BD04EB4400054A02EB66
:105FC0008001284603F064FB284602F065F8C6B25B
:105FD0003046F0E7B4F500080246002110E0505CBE
:105FE000392801DD012000E00020535C302B01DA6C
:105FF000012300E00023184308B100207047491C2A
:106000000B29ECDB0120F9E702E0002200F8012B6C
:106010000A1EA1F1010399B2F7D1704710B500240F
:1060200000F092F804E0601CC4B2012000F038F8DF
:10603000114801881148006801F070FC08B1642C17
:10604000F1DB642C01DB012010BD002404E0601CA6
:10605000C4B2012000F024F807480188074800680E
:1060600001F05CFC08B9642CF1DB642C01DB01203D
:10607000EAE70020E8E70000880000208C0000200C
:10608000002107E042F6E06100BF0A1EA1F1010312
:1060900099B2FAD1021EA0F1010398B2F2D1704771
:1060A000002106E0072100BF0A1EA1F1010399B2F9
:1060B000FAD1021EA0F1010398B2F3D1704700009B
:1060C0002DE9F04105460E462C784FF6FF7000EAA8
:1060D00004246878044304F4004060B1E143491C9F
:1060E00041F40040FFF7A2FA074614493846FFF78B
:1060F000D7F8074608E02046FFF7A1FA07460F4900
:106100003846FFF7CDF807460D493846FFF75EFBE6
:1061100002D24FF0010801E04FF00008094938466B
:10612000FFF74AFB01D2012000E0002008EA000846
:10613000B8F1000F00D03760BDE8F08100002041C9
:1061400000007AC40000F04208B508480088ADF8A5
:10615000000003208DF8020048208DF803006946F6
:106160000348006801F00CFB08BD00008800002017
:106170008C00002008B508480088ADF80000032016
:106180008DF8020010208DF803006946034800686E
:1061900001F0F6FA08BD0000880000208C00002005
:1061A0002DE9FC4105460E4600F074F8FFF736FF76
:1061B00010B10120BDE8FC81002405E000F05AF890
:1061C0000DF80400601CC4B2052CF7DB9DF800003C
:1061D0009DF8011008449DF8021008449DF8031032
:1061E0000844C7B29DF80400B84201D00120E1E79D
:1061F0001DB131466846FFF763FF26B129460DF110
:106200000200FFF75DFF0020D4E7000010B5002476
:1062100004E0601CC4B20120FFF742FF134801886C
:106220001348006801F07AFB08B1642CF1DB00240C
:1062300004E0601CC4B20120FFF732FF0B48018864
:106240000B48006801F06AFB08B9642CF1DB2320DD
:10625000FFF726FF054801880548006801F05EFB4E
:1062600008B1012010BD0020FCE7000088000020DC
:106270008C00002070B50024002506E06006040EA6
:10628000FFF7C4FF0443681CC5B2082DF6DB2046A7
:1062900070BD000010B5FFF76DFF0948018809487F
:1062A000006801F044FB0A20FFF7EAFE0448018879
:1062B0000448006801F03DFB5020FFF7F1FE10BDDF
:1062C000880000208C00002021B1026842F0010209
:1062D000026004E002684FF6FE731A4002607047E5
:1062E00001684FF6FE7211400160002101604160BB
:1062F0008160C1604B49884208D14A4908394968E0
:1063000041F00F01474A083A51608AE0454914318B
:10631000884208D143490839496841F0F001414AAF
:10632000083A51607DE03F492831884208D13D4913
:106330000839496841F470613A4A083A516070E09E
:1063400038493C31884208D136490839496841F416
:106350007041344A083A516063E032495031884212
:1063600008D130490839496841F470212D4A083A6A
:10637000516056E02B496431884208D129490839D7
:10638000496841F47001274A083A516049E02549BB
:106390007831884208D123490839496841F0706151
:1063A000204A083A51603CE01F49884206D1011F4B
:1063B000096841F00F01021F116032E01A491431DF
:1063C000884208D11849091F096841F0F001164AAE
:1063D000121F116025E014492831884208D1124962
:1063E000091F096841F470610F4A121F116018E01B
:1063F0000D493C31884208D10B49091F096841F415
:106400007041094A121F11600BE007495031884260
:1064100007D10549091F096841F47021024A121F7A
:1064200011607047080002400804024010B50022C5
:10643000026847F6F0739A430C6A8B6823430C6931
:1064400023434C6923438C692343CC6923434C6A1F
:1064500023438C6A23431A430260CB6843600B6872
:1064600083604B68C36010BD08B50121082004F0AB
:106470001DFD0D480088ADF8000010208DF80300C8
:1064800003208DF8020069460848006801F078F999
:10649000054801880548006801F04BFA00F0B2F9A0
:1064A00000F006F808BD00009000002094000020D5
:1064B00010B5002400F0BEF804E0601CC4B2012056
:1064C00000F028F8114801881148006801F026FA08
:1064D00008B1C82CF1DBC82C01DB012010BD002461
:1064E00004E0601CC4B2012000F014F807480188E1
:1064F0000748006801F012FA08B9F02CF1DBF02C23
:1065000001DB0120EAE70020E8E70000900000201E
:1065100094000020002106E0062100BF0A1EA1F120
:10652000010399B2FAD1021EA0F1010398B2F3D18E
:10653000704700002DE9FE4F824600F089F900F017
:1065400061F9FFF7B5FF044614B10120BDE8FE8FE5
:10655000CC2000F089F9BE2000F086F9002405E087
:1065600000F0BEF80DF80400601CC4B2092CF7DB83
:106570000821684607F0AAF804469DF80800A042E2
:1065800005D0052126A000F0B1F90020DEE79DF836
:10659000010007281EDD9DF80100C043C0B28DF840
:1065A00001009DF80000C043C0B28DF800009DF8C6
:1065B00001904FF6FF7000EA09299DF8000040EABB
:1065C00009094846FFF73BF805460021FEF733FE70
:1065D00083460DE09DF801904FF6FF7000EA09290F
:1065E0009DF8000040EA09094846FFF728F883466D
:1065F0005846FFF782F8074600220C4BFEF735FF9E
:106600000546FFF7BDF88346BAF1000F05D00849EB
:106610005846FEF745FECAF80000002096E7000045
:10662000D0A3D1E9B4EDCEF3000000000000E43FB8
:106630000000204108B508480088ADF8000003209C
:106640008DF8020048208DF8030069460348006871
:1066500001F096F808BD0000900000209400002092
:1066600008B508480088ADF8000003208DF8020046
:1066700010208DF8030069460348006801F080F897
:1066800008BD0000900000209400002010B5FFF726
:10669000E7FF114801881148006801F048F902201D
:1066A000FFF738FF0C4801880C48006801F041F9F9
:1066B000FFF7C0FF0520FFF72DFF074801880748B7
:1066C000006801F02BF908B1012400E00024322019
:1066D000FFF720FF204610BD90000020940000200E
:1066E00070B50026012508E0FFF7D0FF0446E00161
:1066F00040EA6600C6B2681CC5B2082DF4DD30461B
:1067000070BD000070B506460C4600253A4890F86A
:10671000B00000F0400018B34FF40071374800F0AB
:10672000DBF821463046FFF73BFD78B1344800786E
:10673000401C33490870084600780A285ADD2E4864
:10674000006920F440702C49086153E000202C4976
:1067500008702948006940F440702749086149E001
:106760004FF40071254800F069F83046FFF7E2FE6B
:1067700005468DB122480078401C21490870084622
:1067800000780A2811DDFFF76FFE1B48006920F42E
:1067900080701949086108E00020194908701648FE
:1067A000006940F48070144908614FF48071134807
:1067B00000F044F82046FFF7BDFE05468DB11048B5
:1067C0004078401C0E494870084640780A2811DD80
:1067D000FFF74AFE0848006920F400700649086186
:1067E00008E00020064948700348006940F4007042
:1067F0000149086170BD0000389D0020000C014077
:10680000A700002010B5FFF72BFF0A4801880A48AF
:10681000006801F08CF840F2EE20FFF77BFE05489F
:1068200001880548006801F084F80F20FFF772FE28
:1068300010BD00009000002094000020024A10606B
:10684000024A118070470000940000209000002050
:1068500010B5FFF7D7FFFFF72BFECC2000F004F8B0
:10686000442000F001F810BD70B50446FFF7F8FEB3
:1068700001252AE004F00106641096B1144801884D
:106880001448006801F053F80220FFF743FE104857
:1068900001881048006801F04CF83C20FFF73AFEF0
:1068A00011E00B4801880B48006801F040F83C20DB
:1068B000FFF730FE064801880648006801F039F805
:1068C0000220FFF727FE681CC5B2082DD2DD70BD7F
:1068D0009000002094000020024A1060024A1180BB
:1068E000704700008C000020880000200FB42DE9C4
:1068F000F04186B0002501260027B00202F0D0FF4B
:10690000044655480078FF2801D1012000E000200E
:1069100051490978514A1278914201D1012100E090
:106920000021084300287DD00DA805902046059A37
:106930000C9908F069F8002005900DA805906946AB
:106940000C9801F008FA06462AE02846691CCDB2E8
:106950001DF80000012804D0022806D003281AD10F
:1069600015E0059880C8059019E00598C01D20F035
:1069700007000590D0E90021DDF814C00CF1080CE7
:106980001046CDF814C0FEF799FE074607E00598BB
:1069900080C8059003E0059880C8059000BF00BF3F
:1069A000301EA6F10106D0D1059880C805900020C0
:1069B00005902B480078FF2801D1012000E000203D
:1069C00027490978B94201DB012100E00021084391
:1069D00048B3214623A005F01FFB2348007800F0B0
:1069E000020068B12149087800F0F4FB40B120466C
:1069F00001F052FB8046424621461D4807F06CFFDD
:106A00001948007800F0040080B11849487800F077
:106A1000E1FB58B1204601F03FFB8046424621464B
:106A2000144801E012E00EE007F056FF124800683B
:106A300048B1204601F030FB00F0FF0841462046F7
:106A40000D4A12689047204602F004FF06B0BDE8E8
:106A5000F0015DF814FB00007C0000204C000020D9
:106A60007E0000200D0A00007D000020280000208C
:106A7000003801400044004078000020FF20014918
:106A8000087070477C0000200248007802490870B6
:106A9000704700004C0000207C0000200149087075
:106AA000704700007D000020014908707047000019
:106AB0007E000020704701460A2091FBF0F000EBB9
:106AC000400001EB4000C0B27047000010B500204C
:106AD0001A4908704FF4A07002F0E2FE18490860ED
:106AE000002406E0FF201749085517490855601C87
:106AF000C4B2052CF6DB00241DE000201049096813
:106B000001EB4411486103200D49096801EB441170
:106B1000087200200A49096801EB4411086108491C
:106B2000096801EB4411C8600549096801EB44118B
:106B30008861601CC4B20A2CDFDB10BD6C00002031
:106B400070000020280000202D00002038B500240F
:106B500054E02C48006800EB4410006800284BD03B
:106B60002848006800EB4410C079012806D00228AC
:106B700020D0032813D0042832D126E0032000902F
:106B80002048006800EB4410C3691E48006800EB11
:106B90004410214602681CA0FFF7A8FE2BE019480C
:106BA000006800EB44100323214602681CA0FFF795
:106BB0009DFE20E01348006800EB441003232146AB
:106BC000026817A0FFF792FE15E00E48006800EB80
:106BD000441003232146026811A0FFF787FE0AE054
:106BE0000848006800EB44100323214602680CA00B
:106BF000FFF77CFE00BF00BF601CC4B20A2CA8DBFC
:106C000038BD0000700000204465766963655B252F
:106C1000645D4E616D653A25735B25645D0000001F
:106C20004465766963655B25645D4E616D653A25F3
:106C3000730000002C4800782C4908702A4800781E
:106C4000401C294908702948007829490968274AC1
:106C5000127801EB4211087126A125480068234AE9
:106C6000127800EB421001600020214909681F4A98
:106C7000127801EB4211487103201D4909681B4A33
:106C8000127801EB4211C871012119480068174AB6
:106C9000127800EB42100172184815490968134A2E
:106CA000127801EB421148610021114800680F4A37
:106CB000127800EB4210C1610D4800680B4A12784F
:106CC00000EB4210C160002009490968074A1278A8
:106CD00001EB42110861002105480068034A12785F
:106CE00000EB4210816170476C000020830000209F
:106CF000700000204854313632310000C98200084B
:106D00002C4909782C4A11702A490978491C294ACA
:106D1000117029490978294A1268274B1B7802EB20
:106D20004312117126A1254A1268234B1B7802EBEE
:106D3000431211600021214A12681F4B1B7802EB9D
:106D40004312517102221D4909681B4B1B7801EB4C
:106D50004311CA71012219490968174B1B7801EBCD
:106D600043110A721749154A1268134B1B7802EB3C
:106D700043125161114909680F4A127801EB42111F
:106D8000C86100220D4909680B4B1B7801EB4311C8
:106D9000CA600021094A1268074B1B7802EB4312B4
:106DA0001161002205490968034B1B7801EB43116F
:106DB0008A6170476C000020800000207000002075
:106DC000494F0000997800082C4909782C4A117025
:106DD0002A490978491C294A117029490978294A00
:106DE0001268274B1B7802EB4312117126A1254A2A
:106DF0001268234B1B7802EB431211600021214AD9
:106E000012681F4B1B7802EB4312517104221D497B
:106E100009681B4B1B7801EB4311CA710122194908
:106E20000968174B1B7801EB43110A721849154A80
:106E30001268134B1B7802EB431251611149096828
:106E40000F4A127801EB4211C86100220D4909680E
:106E50000B4B1B7801EB4311CA600021094A1268F1
:106E6000074B1B7802EB43121161002205490968A8
:106E7000034B1B7801EB43118A6170476C000020C3
:106E80009F0000207000002049534C313230380000
:106E90005993000870B50546284607F0BFFB044625
:106EA0005F48005DFF2808D15E4800785C490855BE
:106EB0005C480078401C5B4908705BA05849095D3C
:106EC0005B4A126802EB4111086000205449095DD9
:106ED000574A126802EB4111487101205049095D7F
:106EE000534A126802EB4111C87103204C49095DF5
:106EF0004F4A126802EB411108724E484849095D39
:106F00004B4A126802EB411148614548005D48490F
:106F1000096801EB4010C46147494148005D444A9B
:106F2000126802EB4010C16044483D49095D404A87
:106F3000126802EB4111086100213948005D3C4AAA
:106F4000126802EB4010816100203D4921F81400D5
:106F50004FF4967002F0A4FC3A4941F82400284608
:106F600007F05CFB04463848005DFF2808D12D4837
:106F70000078354908552B480078401C294908708D
:106F800032A03149095D2A4A126802EB41110860BA
:106F900000202D49095D264A126802EB4111487113
:106FA00001212948005D224A126802EB4010C1719C
:106FB00003202549095D1E4A126802EB411108723F
:106FC0001C492148005D1A4A126802EB40104161D9
:106FD0001D48005D1649096801EB4010C461164860
:106FE0001949095D124A126802EB4111C860134841
:106FF0001549095D0E4A126802EB41110861002033
:107000001149095D0A4A126802EB411188614FF487
:10701000967002F045FC0F4941F8240070BD000055
:107020002D0000206C000020555341525278000082
:1070300070000020ADE30008A5E80008C5E70008DF
:10704000E4000020BC0000202800002055534152DD
:1070500054780000D00000202848007828490870A3
:1070600026480078401C2549087026A02749096851
:10707000234A127801EB4211086000202349096875
:107080001F4A127801EB4211487103201F49096819
:107090001B4A127801EB4211C87101211B4800689C
:1070A000174A127800EB4210017219481749096813
:1070B000134A127801EB421148610021134800681D
:1070C0000F4A127800EB4210C16112490F48006864
:1070D0000B4A127800EB4210C1600F490B48006860
:1070E000074A127800EB4210016100200749096845
:1070F000034A127801EB4211886170476C0000204E
:107100009D000020573235513136000070000020BC
:10711000ADB50008F5E90008E1E9000810B5032164
:1071200024A0FFF7E3FB002441E02948006800EBBE
:1071300044104069C8B32648006800EB4410C07989
:10714000012806D0022817D003280ED004282BD1FE
:107150001EE01F4A126802EB4412107F1C4A12689C
:1071600002EB4412516988471EE01949096801EB96
:1071700044114869804717E0154A126802EB44122F
:10718000D069134A126802EB4412516988470BE038
:107190000F4A126802EB4412D0690D4A126802EBE2
:1071A00044125169884700BF00BF601CC4B20A2C5A
:1071B000BBDB10BD546F732044657669636520495D
:1071C0006E69742E2E2E2E2E2E2E2E2E2E000000A8
:1071D000700000200146FF2901D1002070470548BA
:1071E000006800EB4110406908B90020F6E7012073
:1071F000F4E7000070000020012000F003F802F026
:10720000EDF90000014908607047000014040140D6
:10721000002123498279002A3AD00A46126803687D
:107220009A430B461A600A1D126803689A430B1DA5
:107230001A60027911440A6803681A430A60184AFE
:107240000832126803689A43154B08331A601A1DF6
:10725000126803689A43124B0C331A604279102A61
:107260000ED11A1F126803681A430D4B08331A60B7
:107270001A1D126803681A43094B0C331A600DE09B
:107280000749427911440A6803681A430A6005E015
:10729000027911440A6803689A430A607047000043
:1072A0000004014030B5044604254FF4302000F0BE
:1072B0006FF80546042D17D10C48006940F0020014
:1072C0000A49086108464461006940F040000861CD
:1072D0004FF4302000F05CF805460448006941F6A0
:1072E000FD71084001490861284630BD0020024078
:1072F00004200B49C96801F0010109B101200EE029
:107300000749C96801F0040109B1022007E00449F6
:10731000C96801F0100109B1032000E004207047A2
:10732000002002400348006940F0800001490861E4
:10733000704700000020024070B504460D46042648
:10734000F00200F025F80646042E11D10948006924
:1073500040F00100074908612580F00200F018F8AC
:1073600006460448006941F6FE710840014908617B
:10737000304670BD0020024002480349486003487F
:10738000486070472301674500200240AB89EFCD7C
:1073900000B502460423FFF7ABFF034603E0FFF707
:1073A000A7FF0346521E012B01D1002AF7D102B9D3
:1073B0000523184600BD2DE9F84F82460D461746B5
:1073C0004FF00008002000908146504600F064FE17
:1073D00000F0FF0BBBF1000F3BD00020287000260F
:1073E00035E01AF80640302C01DB012000E00020D7
:1073F000392C01DC012100E00021084058B9462C5D
:1074000001DC012000E00020412C01DB012100E033
:107410000021084048B14F4504D14046411C01F0CD
:10742000FF082C54012000900FE0009868B14F45F0
:1074300005D100224046411C01F0FF082A540020DB
:10744000009009F1010000F0FF09701CC6B25E4512
:10745000C7DB4046BDE8F88F2DE9F84F82460C4661
:1074600017464FF00008002000908146504600F07B
:1074700013FE00F0FF0BBBF1000F2FD00020207097
:10748000002529E01AF80560302E01DB012000E01C
:107490000020392E01DC012100E00021084048B124
:1074A0004F4504D14046411C01F0FF0826540120FD
:1074B00000900FE0009868B14F4505D1002240468A
:1074C000411C01F0FF0822540020009009F1010046
:1074D00000F0FF09681CC5B25D45D3DB4046BDE83E
:1074E000F88F70B50B46044603E014F8015B03F80F
:1074F000015B151EA2F10106B2B2F6D170BD2DE9F5
:10750000F0470646884614460027C146FFF734FF79
:107510002046E11704EBD151C1F34F27E11704EBEB
:10752000D1514912A4EB412109B1781C87B2002541
:1075300007E04FF4007101FB0760FFF7B3FE681C22
:1075400085B2BD42F5DB002508E039F8021B2A466A
:107550006B1C9DB206EB4200FFF7EEFE201EA4F16D
:1075600001018CB2F1D1FFF7DDFEBDE8F0870146E5
:107570000A461068704713B50246042301A903E0C8
:1075800011F8010B02F8010B181EA3F10104E3B27C
:10759000F6D104201CBD70B504460025107820B13A
:1075A00016782068B0FBF6F085B2206808442060A9
:1075B0001078984203DA1078401C107002E02068BE
:1075C000401B206016782068B0FBF6F080B270BDDA
:1075D0000FB438B5044606A800902046009A0599D5
:1075E00007F012FA0020009038BC5DF814FB30B5AB
:1075F00003460C46002514E01878802806DA13F8B4
:10760000010B24F8020B681C85B20AE059781A783D
:1076100041EA022000F01AF820809B1CA81C85B2C9
:10762000A41C18780028E7D1284630BD30B5ADF548
:10763000017D04460D4601A92046FFF7D8FF2946E3
:1076400001A800F04BFD0DF5017D30BD024641F66D
:107650006F210AE0074800EB81004088904203D187
:10766000044830F821007047491E0029F2D100205B
:10767000F9E7000034F7000810B5044629488442B1
:1076800008D10121042003F021FC0021042003F093
:107690001DFC46E02448844208D10121082003F063
:1076A00015FC0021082003F011FC3AE01F48844239
:1076B00008D10121102003F009FC0021102003F063
:1076C00005FC2EE01A48844208D10121202003F055
:1076D000FDFB0021202003F0F9FB22E01548844245
:1076E00008D10121402003F0F1FB0021402003F0EC
:1076F000EDFB16E01048844208D10121802003F000
:10770000E5FB0021802003F0E1FB0AE00B48844206
:1077100007D10121801503F0D9FB0021A01503F04A
:10772000D5FB10BD00080140000C014000100140D5
:107730000014014000180140001C014000200140DD
:1077400030B500228B071C0F0F2303FA04F20B4BFA
:107750008C1053F824309343084C8D1044F8253096
:1077600023468C1053F824308C07240F00FA04F4BD
:107770002343024C8D1044F8253030BD08000140F1
:107780002DE9F041024600250026002000230024B8
:10779000002791F803C00CF00F0591F803C00CF01E
:1077A000100CBCF1000F03D091F802C04CEA0505A3
:1077B00091F800C0BCF1000F31D0146800202BE01C
:1077C0004FF0010C0CFA00F3B1F800C00CEA03060C
:1077D0009E4220D183004FF00F0C0CFA03F7BC43FC
:1077E00005FA03FC4CEA040491F803C0BCF1280F2D
:1077F00006D14FF0010C0CFA00FCC2F814C00AE0EC
:1078000091F803C0BCF1480F05D14FF0010C0CFA00
:1078100000FCC2F810C0401C0828D1D31460B1F895
:1078200000C0BCF1FF0F34DD546800202EE000F1F1
:10783000080C4FF0010808FA0CF3B1F800C00CEA8C
:1078400003069E4221D183004FF00F0C0CFA03F780
:10785000BC4305FA03FC4CEA040491F803C0BCF1F4
:10786000280F05D100F1080C08FA0CF8C2F81480B2
:1078700091F803C0BCF1480F07D100F1080C4FF09C
:10788000010808FA0CF8C2F81080401C0828CED372
:107890005460BDE8F081000038B5044636E01D4A6A
:1078A0006068811A904217D009DC1B49084468B10E
:1078B000B0F5806F0CD0B0F5006F13D10AE0B1F5D0
:1078C000806F0BD0B1F5006F0CD109E0042509E001
:1078D000082507E0102505E0202503E0402501E00C
:1078E000802500BF00BF45F00100012103F0DEFA52
:1078F00020788DF802002089ADF8000060788DF8BE
:10790000030069466068FFF73BFF0C3420780028CD
:10791000C5D138BD0014014000F8FEBF024600206A
:1079200093680B400BB1012000E0002070474161DB
:1079300070470161704700002DE9F04104460D4693
:1079400001271DE012494FF4967248680021FEF7A6
:107950008CFA2B46322200210E4806F04BFFC6B2AD
:1079600076B10B48052241680BA0FEF7BFFF08491E
:107970004868214604F071FB10B10120BDE8F08198
:10798000381EA7F10101CFB2DCD100BFF6E700003D
:10799000BC00002000440040B7B5BBD83A25730DA9
:1079A0000A0000002DE9F04104460D46012725E0BC
:1079B00016494FF4967248680021FEF756FA2B4696
:1079C00032220021124806F015FFC6B296B10F48C8
:1079D000052241680FA0FEF789FF0C49486821463F
:1079E000FDF7C2FB10B10120BDE8F0814FF47A70C1
:1079F00006F078F84FF47A7006F074F8381EA7F1A4
:107A00000101CFB2D4D100BFEEE70000BC000020DE
:107A100000440040B7B5BBD83A25730D0A000000FA
:107A20002DE9F04104460F4615464FF0010825E0C8
:107A300017494FF4967248680021FEF716FA2B4654
:107A400032220021134806F0D5FEC6B2B6B1104866
:107A50000522416810A0FEF749FF0D4948682146FC
:107A600004F0FBFA10B10120BDE8F0810849486834
:107A7000394604F0F2FA08B10120F5E7B8F1000048
:107A8000A8F1010101F0FF08D2D100BFECE700002E
:107A9000BC00002000440040B7B5BBD83A25730DA8
:107AA0000A0000000246114623E008782E281FD164
:107AB00011F8010C302801DB012000E0002011F852
:107AC000013C392B01DC012300E00023184078B190
:107AD0004878302801DB012000E000204B78392B6A
:107AE00001DC012300E00023184008B101207047A9
:107AF000491C08780028D8D100BFF8E770B50446C3
:107B00000D4616460A2332462946204600F002F862
:107B100070BD00002DE9F04105460C4616461F4693
:107B200037E029461E4806F0E8FE1E494FF49672DB
:107B300048680021FEF799F933463222002118489F
:107B400006F058FE00F0FF08B8F1000F1DD01548F0
:107B50000522416814A0FEF7C9FE2078212808D12B
:107B600010494868611CFDF7FFFA50B90120BDE8D3
:107B7000F0810C4948682146FDF7F6FA08B101206A
:107B8000F5E74FF47A7005F0ADFF4FF47A7005F029
:107B9000A9FF381EA7F10101CFB2C2D100BFE6E7AD
:107BA00000440040BC000020B7B5BBD825730D0AC7
:107BB0000000000070B50446002500BF2846691C7F
:107BC000CDB2052801DD032070BD05211EA0FEF702
:107BD0008DFE2048006920F010001E4908612046F3
:107BE000FFF760FF40B14FF47A721BA11BA0FFF7B3
:107BF00085FF50B90120E7E74FF47A7216A11BA068
:107C0000FFF77CFF08B90120DEE74FF47A7005F03A
:107C100069FF2146194806F070FE042218A11CA035
:107C200000F082F800B9C9E74FF4FA6005F05AFF96
:107C300005211AA0FEF75AFE0648006940F0100020
:107C4000044908610020BFE7C1ACBDD3B7FECEF147
:107C5000C6F70000389D00204F4B000041542B51C7
:107C600049444E5349503D300D0A000041542B51B8
:107C700049444E5349503D310D0A00000044004034
:107C8000414C524541445920434F4E4E45435400C8
:107C9000434F4E4E454354204F4B0000C1ACBDD323
:107CA000B3C9B9A60000000070B50546012622E060
:107CB00014494FF4967248680021FEF7D6F82B4617
:107CC00032220021104806F095FDC4B29CB10D4946
:107CD00048680EA1FDF748FA28B105210DA0FEF76E
:107CE00005FE002070BD0748224641680CA002F046
:107CF000E9F80120F6E7301EA6F10101CEB2D7D196
:107D000000BFEFE7BC00002000440040434C4F534D
:107D100045440000C1ACBDD3B1BBB9D8B1D500005A
:107D2000BDD3CAD53A0000002DE9F04106460F4602
:107D3000144600250BE04FF47A7239463046FFF7BF
:107D40006FFE10B10120BDE8F081681CC5B2A542EC
:107D5000F1DB0020F7E7F0B504460A4600230020D7
:107D60000025214633E00E78252E02D10125461C40
:107D7000B0B2012D2AD10E78642E06D1AC461E4633
:107D80005F1CBBB202F806C000250E78662E07D134
:107D90004FF0020C1E465F1CBBB202F806C0002565
:107DA0000E78732E07D14FF0030C1E465F1CBBB23A
:107DB00002F806C000250E78632E07D14FF0040CA0
:107DC0001E465F1CBBB202F806C00025491C0E7897
:107DD000002EC8D1F0BD00002DE9FE4305460F4638
:107DE00000261C48006800901A48001D0068029098
:107DF000184808300068019000241BE014E05DF88A
:107E000024003E21B0FBF1F201FB1208404605F0D0
:107E100027FC3146721CD6B268545DF824003E211E
:107E2000B0FBF1F04DF824005DF824000028E6D105
:107E3000601CC4B2032CE1DB0F26384605F010FCB1
:107E40003246761CA85400223146761C6A543046CD
:107E5000BDE8FE83E8F7FF1FFEB50546002619487A
:107E6000006800901748001D00680290154808300F
:107E70000068019000241BE014E05DF824003E211E
:107E8000B0FBF1F201FB1207384605F0E9FB314681
:107E9000721CD6B268545DF824003E21B0FBF1F0AC
:107EA0004DF824005DF824000028E6D1601CC4B21F
:107EB000032CE1DB00223046711CCEB22A5430463E
:107EC000FEBD0000E8F7FF1F014600200A78302AB7
:107ED00001DB012200E000220B78392B01DC0123B9
:107EE00000E000231A401AB10A781207100E24E0AD
:107EF0000A78412A01DB012200E000220B78462BA0
:107F000001DC012300E000231A4022B10A78D21FCD
:107F10001207100E11E00A78612A01DB012200E04D
:107F200000220B78662B01DC012300E000231A40BD
:107F30001AB10A78D21F1207100E4A78302A01DBD4
:107F4000012200E000224B78392B01DC012300E004
:107F500000231A4022B14A78303A0244D0B224E0D9
:107F60004A78412A01DB012200E000224B78462BAF
:107F700001DC012300E000231A4022B14A78373A9D
:107F80000244D0B211E04A78612A01DB012200E00C
:107F900000224B78662B01DC012300E000231A400D
:107FA0001AB14A78573A0244D0B270470FB438B584
:107FB000044606A800902046009A059906F024FD84
:107FC00000200090204600F067F8C0B238BC5DF891
:107FD00014FB00002DE9FC5F05460026B346B146C0
:107FE0004FF07E5A44E015F8014B2D2C01D10126AB
:107FF0003EE02E2C02D14FF0010B39E0302C2EDB6D
:10800000392C2CDCBBF1000F0ED11F494846FDF77F
:1080100015F98146A4F13000FDF708FB07464946F3
:10802000FDF7B4F8814623E05046FDF766FB0746AE
:10803000164A174BFDF719FACDE90001FDF7A0FB31
:108040008246A4F13000FDF7F1FA80465146FDF773
:10805000F5F807464946FDF799F8814608E026B14C
:108060000C494846FDF7EAF881464846BDE8FC9FC2
:1080700028780028B7DC26B106494846FDF7DEF827
:1080800081464846F2E70000000020419A999999FC
:108090009999B93F000080BF10B5014600200A46FB
:1080A00001E0431C98B212F8014B002CF9D110BD2D
:1080B000002000210CE001EB4102074B1B6803EBA1
:1080C00002121289012A01D0421CD0B24A1CD1B23C
:1080D0001429F0DB704700005400002070B50446FE
:1080E0000E46002507E02288701905A1FFF75EFF04
:1080F000284485B2A41C20880028F4D1284670BDED
:1081000025303478000000000246002039B950784C
:108110004FF6FF7303EA00201378184306E0107847
:108120004FF6FF7303EA00205378184370470000AE
:108130000149088870470000E0F7FF1F10B50446AA
:108140002AA1204603F089FF08B1012010BD28A113
:10815000204603F082FF08B10220F7E725A1204660
:1081600003F07BFF08B10320F0E723A1204603F0D2
:1081700074FF08B10420E9E720A1204603F06DFF59
:1081800008B10520E2E71EA1204603F066FF08B112
:108190000620DBE71BA1204603F05FFF08B10720A4
:1081A000D4E719A1204603F058FF08B10820CDE715
:1081B00016A1204603F051FF08B10920C6E714A11B
:1081C000204603F04AFF08B10A20BFE711A120466C
:1081D00003F043FF08B10B20B8E70FA1204603F0DE
:1081E0003CFF08B10C20B1E70120AFE74A616E0007
:1081F000466562004D617200417072004D61790008
:108200004A756E004A756C004175670053657000D1
:108210004F6374004E6F76004465630070B5054689
:108220000024291901220DA0FFF716F92044C4B239
:108230000AA0FFF783FF0646281932460AA1FFF776
:10824000B5FE2044C4B22919002204A0FFF704F9A6
:108250002044C4B200202855204670BD4A756C20C9
:1082600031322032303136002D253032642D00007D
:1082700010B586B0002414E004EB4401002202EBA8
:10828000C1001822694606F0A1FB0098401C00B905
:1082900008E0601CC4B2012005F024FCFF2C00DBC8
:1082A00000E0E9E700BF0522214603A0FEF71EFB20
:1082B000204606B010BD0000B4F2D3A1BCC7C2BCBA
:1082C000CBF7D2FD2564000010B500240F48FFF75E
:1082D000E3FA562000F03CF8302000F039F8002096
:1082E00000F036F80A2000F033F8032000F030F8F0
:1082F000062000F02DF800BF05E0FF21204600F029
:1083000049FE601CC4B2202CF7DB10BD5CF50008F0
:1083100010B5002480210A48FFF700FB00B90224B1
:1083200040210748FFF7FAFA00B901240121054866
:10833000FFF7F4FA012800D10424204610BD000004
:10834000001001400008014001E001F047F9FCE79E
:1083500010B504464FF400410B48FFF7E8FA03203C
:1083600000F044F80421802000F010F80821204695
:1083700000F00CF84FF400410348FFF7DAFA04204C
:1083800000F034F810BD00000010014070B5044644
:108390000D46002624E04FF480411348FFF7C7FA4A
:1083A000032000F023F804F0800028B14FF40051BE
:1083B0000D48FFF7BEFA04E04FF400510A48FFF7FA
:1083C000B6FA032000F012F84FF480410648FFF798
:1083D000B0FA6006040E012000F008F8701CC6B266
:1083E000AE42D8DB70BD00000010014000EB400140
:1083F00088B200BF011EA0F1010290B2FAD170470D
:1084000010B5002400BF12E00A4A125D02F00F010D
:108410006206100E00F0BEFD064A125D1111012227
:1084200002EB4402D0B200F0B5FD601CC4B2102CC7
:10843000EADB10BD389E00203EB50020F9490873E4
:108440000A4692F8C91092F8C80000F04DFAF549B2
:108450000868FDF752F9044622460B46F2A1684629
:10846000FFF7B6F8EF48008A00F4807048B168461C
:1084700000F020FDEB48007B40F08000E9490873E4
:1084800008E0EBA000F016FDE648007B40F080001D
:10849000E4490873E3494868FDF72FF9044622468A
:1084A0000B46E1A16846FFF793F8DE48008A00F426
:1084B0000070B0B1DB4890F8B00000F0400030B17F
:1084C000D848007B40F00800D649087305E0D5483D
:1084D000007B40F01000D3490873684600F092FC1E
:1084E00015E0D04890F8B00000F0400030B1CD4821
:1084F000007B40F00800CB49087305E0C948007BC9
:1085000040F01000C7490873C9A000F07BFCCA48BE
:10851000007940F00200C84908710846807940F0AF
:1085200001008871BF48007BC87301204872BD48B4
:10853000008A00F4006040B3C0480078012804DDE0
:108540000846407A40F004004872BC48007802288F
:1085500005DDB948407A40F00600B7494872B7488F
:108560000078032805DDB448407A40F00E00B24997
:108570004872B24801780078401CB04A1070032954
:1085800033DD0120114608702FE0A6498868FDF709
:10859000B4F804460022AA4BFDF7DAF805D2A64843
:1085A000407A40F00400A44948729E498868FDF76B
:1085B000A4F80446A34AA44BFDF7CAF805D29E4886
:1085C000407A40F002009C49487296498868FDF75D
:1085D00094F8044600229D4BFDF7BAF805D2964860
:1085E000407A40F00800944948728E48008A00F4AE
:1085F000006028B19048407A40F010008E494872DF
:108600008848008A00F4806018B110208A49887375
:1086100005E08948807B20F01000874988738148F5
:1086200090F8CE00632801DA012000E000207D49A7
:1086300091F8CE10002901DD012100E00021084061
:1086400030B17D48007940F010007B49087105E0A9
:108650007948007920F0100077490871714890F846
:10866000CE00632801DA012000E000206D4991F876
:10867000CE100A2901DD012100E00021084030B1BF
:108680006D48007940F020006B49087105E06A48A8
:10869000007920F0200068490871624890F8CE0007
:1086A000632801DA012000E000205E4991F8CE1035
:1086B000142901DD012100E00021084030B15E48AD
:1086C000007940F040005C49087105E05A480079A3
:1086D00020F04000584908715248007C00F010001A
:1086E00030B15548807B40F040005349887305E025
:1086F0005148807B20F040004F4988734948007CF6
:1087000000F0030030B14C48007940F001004A49C4
:10871000087105E04848007920F0010046490871D9
:108720004048007C00F00C0030B14348407940F0F4
:1087300001004149487105E03F48407920F00100BF
:108740003D4948713748007C00F0050030B13A4897
:10875000807B40F080003849887305E03648807B94
:1087600020F08000344988732E48007C00F00A0015
:1087700030B13148807B40F020002F49887305E0FC
:108780002D48807B20F020002B4988732548007CF1
:1087900000F0800030B12848007940F004002649FC
:1087A000087105E02448007920F00400224908718E
:1087B0001C4890F8D200FF2806D11F48407B40F0AB
:1087C00040001D49487305E01B48407B20F04000F5
:1087D000194948731348007C00F0400030B1164836
:1087E000407B20F020001449487305E01248407B8C
:1087F00040F02000104948730A4890F8B00000F09B
:10880000800030B10C48807B40F00A000A49887330
:1088100005E00948807B20F00A0007498873FFF7CC
:10882000EFFD3EBD389D0020252E32662020000041
:108830002D2D2D2D00000000389E0020A6000020C8
:1088400000000C409A99999999990D4000001040A8
:1088500070B50446002504E0002016494855681C00
:10886000C5B2102DF8DB14A000F024FB052C18D2A3
:10887000DFE804F003070B0F130011A000F0C2FAA9
:1088800013E011A000F0BEFA0FE011A000F0BAFA58
:108890000BE011A000F0B6FA07E011A000F0B2FA68
:1088A00003E007A000F0AEFA00BF00BFFFF7A8FD8D
:1088B00070BD0000389E0020424F4F540000000061
:1088C00054502D300000000030432D3100000000D6
:1088D00055432D320000000055502D33000000009C
:1088E00030502D3300000000F8B504460D460A2034
:1088F00095FBF0F100FB11502B49085C8DF800004E
:108900000A2095FBF0F0085C8DF801000A2094FB2A
:10891000F0F100FB11402449085C8DF802000A20A8
:1089200094FBF0F0C6B21EB900208DF8030008E0F9
:10893000012E03D106208DF8030002E00C208DF8F3
:1089400003001A48007828B19DF8000040F010009C
:108950008DF800001548007808B9012000E00020DB
:10896000124908709DF8030040F080008DF8030064
:108970009DF8030040F010008DF803009DF80010F2
:10898000142000F0F1FA9DF80110162000F0ECFA26
:108990009DF80210182000F0E7FA9DF803101A2045
:1089A00000F0E2FAF8BD00009EF50008A5000020E6
:1089B000F0B587B00446002504E000206A49485518
:1089C000681CC5B2102DF8DB052C2AD2DFE804F0B4
:1089D000032A5179A1006549D1F8E800FCF78DFE22
:1089E000064632460B4662A104A8FEF7F1FD5F4938
:1089F000D1F8EC00FCF781FE064632460B465CA13E
:108A000001A8FEF7E5FD04A800F054FA01A800F063
:108A1000F9F95548007940F0020053490871A02047
:108A2000887391E05149D1F8F000FCF766FE0646E4
:108A300032460B464EA104A8FEF7CAFD4B49D1F8B9
:108A4000F400FCF75AFE064632460B4648A101A840
:108A5000FEF7BEFD04A800F02DFA01A800F0D2F93F
:108A60004148807940F001003F498871A020887317
:108A70006AE03E498869FCF740FE064632460B46EE
:108A80003BA104A8FEF7A4FD3849C869FCF735FEF0
:108A9000064632460B4636A101A8FEF799FD04A80A
:108AA00000F008FA01A800F0ADF92F48007940F075
:108AB00002002D4908710846007940F00100087154
:108AC00042E02A49086AFCF718FE064632460B4681
:108AD00029A104A8FEF77CFD2449486AFCF70DFE95
:108AE000064632460B4624A101A8FEF771FD04A8F4
:108AF00000F0E0F901A800F085F91B48807940F00A
:108B00000100194988710846407940F00100487118
:108B10001AE01BA104A8FEF75BFD144890F8D220D0
:108B200018A101A8FEF754FD04A800F0C3F901A89C
:108B300000F068F900200D4908730B48807B40F075
:108B40000A000949887300BF00BF00200649C873A6
:108B5000064A92F8C91092F8C800FFF7C5FEFFF761
:108B60004FFC07B0F0BD0000389E0020389D00206B
:108B7000252E326620200000252E326620000000BF
:108B8000202020002530336420202000FEB508205E
:108B90008B4908730A4692F8C91092F8C800FFF78B
:108BA000A3FE88A000F086F9854991F8D000FCF773
:108BB00046FD0646FCF7A1FD044622460B4683A16E
:108BC0006846FEF705FD684600F01CF9814800790B
:108BD00040F002007F4908710846807940F00100AA
:108BE00088717748007BC87301204872744988688F
:108BF000FCF783FD04464FF06632774BFCF7A8FD87
:108C000005D27448407A40F00400724948726C49B9
:108C10008868FCF772FD04464FF033326F4BFCF767
:108C200097FD05D26B48407A40F0020069494872CE
:108C300063498868FCF761FD04460022684BFCF735
:108C400087FD05D26348407A40F0080061494872C8
:108C50005B498868FCF751FD04464FF06632614B72
:108C6000FCF776FD05D25B48407A40F01000594988
:108C70004872534890F8CE00632806DA55480079C8
:108C800040F010005349087105E05248007920F087
:108C90001000504908714A4890F8CE00322806DA90
:108CA0004C48007940F020004A49087105E04948E5
:108CB000007920F0200047490871414890F8CE0023
:108CC000142806DA4348007940F040004149087111
:108CD00005E04048007920F040003E4908713848DE
:108CE000007C00F0100030B13A48807B40F040003A
:108CF0003849887305E03748807B20F040003549CB
:108D000088732F48007C00F0030030B131480079AF
:108D100040F001002F49087105E02E48007920F04D
:108D200001002C4908712648007C00F00C0030B18D
:108D30002848407940F001002649487105E025485F
:108D4000407920F00100234948711D48007C00F063
:108D5000050030B11F48807B40F080001D498873BA
:108D600005E01C48807B20F080001A498873144875
:108D7000007C00F00A0030B11648807B40F02000F3
:108D80001449887305E01348807B20F020001149C6
:108D900088730B4890F8B00000F0800030B10D48A7
:108DA000807B40F00A000B49887305E00948807B0E
:108DB00020F00A0007498873FFF722FBFEBD000080
:108DC000389D00202D55502D00000000252E3266C4
:108DD00020200000389E002066660E4033330F408E
:108DE000000010406666104070B505460C46044809
:108DF0000168284602F0E0FF265C304670BD0000A6
:108E0000840000207CB50646002435460822002157
:108E10006846FDF72AF81CE028782E280CD0287820
:108E20002349FFF7E1FF1DF8041008430DF8040083
:108E3000601CC4B26D1C09E06D1C1D492E20FFF79B
:108E4000D3FF1DF8041008430DF80400032C00DDC7
:108E500002E028780028DFD100BF6D4617E01449F2
:108E60002E20FFF7C1FF9DF80110084070B10324C8
:108E700009E0601E1DF800000DF804000021601ECE
:108E80000DF80010C4B2002C01DDF2E700E0E6E7C7
:108E900000BF002409E015F8011B0A2202EB44027E
:108EA000D0B200F061F8601CC4B2042CF3DB7CBDCE
:108EB00089F500087CB506460024354608220021C5
:108EC0006846FCF7D2FF1CE028782E280CD02878C2
:108ED0002449FFF789FF1DF8041008430DF804002A
:108EE000601CC4B26D1C09E06D1C1E492E20FFF7EA
:108EF0007BFF1DF8041008430DF80400032C00DD6F
:108F000002E028780028DFD100BF6D46062417E074
:108F100014492E20FFF768FF9DF80110084070B13A
:108F2000032409E0601E1DF800000DF80400002174
:108F3000601E0DF80010C4B2002C01DDF2E700E065
:108F4000E6E700BF002409E015F8011B0622A2EBAA
:108F50004402D0B200F008F8601CC4B2042CF3DB69
:108F60007CBD000074F5000870B504460D4605F0A0
:108F70000F01204600F00EF82911621CD0B200F05B
:108F800009F8204604EBD0714910014A555470BDD0
:108F9000389E002070B504460D464FF400410D4840
:108FA000FEF7C5FC0320FFF721FA0321A020FFF7FD
:108FB000EDF9A106080E0621FFF7E8F92907080ECA
:108FC0000421FFF7E3F94FF400410248FEF7B1FC3A
:108FD00070BD00000010014010B504460120A047FC
:108FE0000320A04710BD2DE9FF47074616461C4643
:108FF000DDE90C899DF804004006000E0190002C6C
:1090000016DD384600F0C0F8012201A9384600F00C
:1090100076F8054635B93846FFF7DEFF002004B084
:10902000BDE8F08722463146384600F068F805462C
:10903000384600F0A9F89DF8040040F001000190C6
:10904000012201A9384600F05AF805464A46414631
:10905000384600F006F80546384600F0ACF82846D9
:10906000DDE72DE9F04704460E461546A94628E0FF
:109070004FF00008002714E07806070E0320A047F1
:109080000A2006F031F90520A04708B147F0010792
:109090000420A0470A2006F027F908F1010000F09B
:1090A000FF08B8F1080FE7DB06F8017B002D04DDAF
:1090B0000021204600F00DF803E00121204600F0D9
:1090C00008F8281EA5F10101CDB2D1D14846BDE86E
:1090D000F08770B504460D4615B10120A04701E0A8
:1090E0000220A0470320A0470A2006F0FDF8042034
:1090F000A0470A2006F0F8F80120A04770BD2DE92E
:10910000F04704460E461546A94639E016F8018B8D
:10911000002717E008F0800010B10120A04701E00F
:109120000220A0470320A0470A2006F0DDF8042013
:10913000A0470A2006F0D8F8781CC7B24FEA48606A
:109140004FEA1068082FE5DB0120A0470320A04765
:109150000A2006F0C9F80520A04782460A2006F03A
:10916000C3F80420A0470A2006F0BEF8BAF1000FA9
:1091700004D0A9EB0500C0B2BDE8F087681EC5B2F7
:10918000002DC3D14846F7E710B504460320A04799
:10919000052006F0A9F80120A0470A2006F0A4F84F
:1091A0000220A0470A2006F09FF80420A0470A20CA
:1091B00006F09AF810BD10B504460220A04714200E
:1091C00006F092F80320A0470A2006F08DF801204F
:1091D000A0471E2006F088F810BD2DE9FF4707467E
:1091E00014461D46DDE90C899DF804004006000E7A
:1091F00001903846FFF7C8FF012201A93846FFF762
:109200007EFF064636B93846FFF7E6FE002004B07A
:10921000BDE8F0872A4621463846FFF770FF06462C
:109220004A4641463846FFF76AFF06463846FFF78A
:10923000C2FF3046EBE700002DE9F0410546094941
:109240002846FBF7FBFF0746FCF724FA86B2A6F593
:109250006170322190FBF1F0C4B284F0200420460A
:10926000BDE8F081000048437CB50446072269460A
:10927000002000F0D1F805460DB900207CBD9DF816
:10928000001001F07F00FCF7B2FDA0719DF8011005
:1092900001F07F00FCF7ABFD60719DF8021001F05A
:1092A0003F00FCF7A4FD20719DF8031001F03F0082
:1092B000FCF79DFDA0709DF8041001F01F00FCF765
:1092C00096FD60709DF80500FCF791FD20709DF8FB
:1092D0000600FCF78CFDE0700120CFE770B5044676
:1092E0000025062C33D2DFE804F032030C151E27CC
:1092F000184A12681189174A12685068FEF719FB5C
:1093000025E0144A12681189124A12685068FEF763
:109310000EFB1CE00F4A1268918A0E4A126810690F
:10932000FEF707FB13E00B4A1268918A094A12689C
:109330001069FEF7FCFA0AE0064A12681189054A2C
:1093400012685068FEF7EAFA00B1012500BF00BFBD
:10935000284670BDA000002038B5054600242C48E2
:1093600005600068FEF798FA01226946122000F0B5
:1093700053F804469DF800005D2847D010210720CF
:1093800000F0DAF804409021082000F0D5F80440FD
:109390002048FFF751FF00909DF800100A2000F0D0
:1093A000CBF8044000210B2000F0C6F804405D21FA
:1093B000122000F0C1F8044000231A46194618464E
:1093C00000F03AF804400021084600F0B5F80440E7
:1093D0000021012000F0B0F804408021022000F0BC
:1093E000ABF804400121032000F0A6F8044001215D
:1093F000042000F0A1F804400021052000F09CF8B2
:1094000004400621084600F097F80440204638BD85
:10941000A00000200000C04037B582B00C461546C1
:10942000012302AA6F210348CDE90045FFF7DBFDC8
:1094300005B030BDDD9200082DE9F84381460F46A6
:1094400090461C4601264046FDF735FB8DF800008E
:109450003846FDF730FB8DF801004846FDF72BFB41
:109460008DF8020004F0010028B19DF8000040F0E2
:1094700080008DF8000004F0020028B19DF8010082
:1094800040F080008DF8010004F0040028B19DF840
:10949000020040F080008DF80200002509E01DF870
:1094A000051005F10C02D0B200F046F80640681C29
:1094B000C5B2032DF3DB002C05DDD021082000F020
:1094C0003BF8064004E09021082000F035F8064003
:1094D0003046BDE8F8837CB50446A079FDF7EBFA89
:1094E0008DF800006079FDF7E6FA8DF8010020792B
:1094F000FDF7E1FA40F080008DF80200A078FDF75A
:10950000DAFA8DF803006078FDF7D5FA8DF80400DB
:109510002078FDF7D0FA8DF80500002507E01DF84A
:109520000510E8B200F008F80640681CC5B2072D27
:10953000F5DB30467CBD000003B583B0012004A9F3
:10954000034603AACDE900106F210248FFF745FE4C
:1095500005B000BDDD92000870B504460D462B46EF
:1095600022460249024800F005F870BD00F80308E1
:10957000E37400082DE9F0470746884614461D4667
:10958000A14608EBC52004222146B8474E46308844
:10959000B0F5006F01DD012000E0002031880429D2
:1095A00001DA012100E00021084300B113E0328814
:1095B00008EBC5202146B8473088001F81B209F169
:1095C000040004F063F882467188514500D002E03F
:1095D0000120BDE8F0870020FBE7000071B600BF66
:1095E0000648006800F4E06005490843001D03498F
:1095F0000860BFF34F8F00BF00BFFEE70CED00E037
:109600000000FA0530B50246002000BF02F07F03DB
:10961000D2090AB143F080030446451CE8B20B5559
:10962000002AF3D130BD000010B5052106A0FDF7DA
:109630005DF908A10B4805F060F94FF47A710AA0B2
:10964000FEF77AF910BD0000C9BEB3FDCFFBCFA273
:109650000000000041542B434D47443D312C340D54
:109660000A000000004400404F4B000070B5054662
:1096700025B1284604F008FB044602E004F0D2FAC3
:10968000044614B16668304670BD0020FCE7000057
:10969000F0B59DB005460C46607A48B1627A04A9DF
:1096A0006068FCF7D1FB0020617A04AA505403E003
:1096B00004A9606802F09EFC207A0D2839D009DCEC
:1096C00075D2DFE800F0AC10ACAC231C63ACAC424C
:1096D000AC152F0017380728F2D2DFE800F03D461E
:1096E000A03074825F0028462168FDF771FF9BE07F
:1096F0006068027828462168FDF76AFF94E0606898
:10970000028828462168FDF763FF8DE061680868DC
:10971000FBF7F3FF06460B46324628462168FDF765
:1097200057FF81E06068027828462168FDF750FF06
:109730007AE02846D4E90012FDF74AFF74E004AA53
:1097400028462168FDF744FF6EE0606802682846FD
:109750002168FDF73DFF67E06068804706463246B6
:1097600028462168FDF734FF5EE060680078002835
:1097700001DD012000E0002000EB40002C4B03EB5A
:10978000400228462168FDF723FF4DE0606890F90C
:10979000002028462168FDF71BFF45E0606800684F
:1097A000667A0123B340184010B1012001E036E091
:1097B000002000EB40001E4B03EB400228462168CE
:1097C000FDF706FF30E06068007861684978CDE910
:1097D000001060688378C27828462168FDF7F8FE9B
:1097E00022E06168098888B202F0BAFC03906168DF
:1097F000098888B202F0B4FC02906168098888B2D6
:1098000002F0AEFC01909DF80E0000909DF809302A
:109810009DF8042028462168FDF7DAFE04E028467A
:109820002168FDF7D5FE00BF00BF1DB0F0BD0000F0
:10983000A8F5000800BFFEE7054A1168486802E085
:1098400009684A6810440A68002AF9D17047000084
:109850007400002002460A4B1868002106E0A2F1BD
:109860000803834200D107E0014600680368002B2B
:10987000F5D101B10B60704703680B6000BFFAE7D8
:1098800074000020054908600021044A1268116034
:109890000821024A126851607047000074000020DD
:1098A00010B503461048016803F1080083B20FE0C9
:1098B0000868401A4C68001B984208D34868421850
:1098C0005360086810600A6002F1080010BD096862
:1098D00008680028ECD148684218002010605360E6
:1098E0000A6002F10800F1E7740000200146002040
:1098F0000A4602E00C32431CD8B2137A002BF9D18D
:10990000704730B5039C7E2505707F2505738270F6
:109910004170C373447330BD2DE9F05F06460C46B9
:1099200091469A46DDF828B00C9F002584F80390F4
:1099300084F804A084F808B0678117B1F81CE080AF
:1099400001E00020E08022782846691C8DB2325464
:10995000E07B50B9A2782846691C8DB232546278F7
:109960002846691C8DB232540CE0E07B012809D1F5
:1099700062782846691C8DB23254A2782846691C48
:109980008DB23254E2782846691C8DB23254227965
:109990002846691C8DB23254E08802122846691CA0
:1099A0008DB23254A2792846691C8DB23254BFB1AF
:1099B000227A2846691C8DB23254608902122846E8
:1099C000691C8DB23254A27A2846691C8DB2325479
:1099D000628971190B98FCF737FA6089284485B2BF
:1099E000607B012810D12946304603F04FFE8046A7
:1099F0004FEA28222846691C8DB232542846691C39
:109A00008DB206F800800BE0607B022808D1681E4A
:109A100081B2304603F076FE29466A1C95B2705436
:109A2000227B2846691C8DB232542846BDE8F09F3F
:109A30002DE9F05F06468B4614460025AA46012014
:109A4000A07329466D1C705C2178884200D099E093
:109A5000E07B50B92846691C8DB2305C6178884241
:109A600000D093E0681C85B220E0E07B01281DD186
:109A70002846691C8DB216F80080A078404501D0B8
:109A8000012000E00020B8F1FF0F01D0012100E02B
:109A90000021084000B179E0681C85B2B8F1FF0FE1
:109AA00002D14FF0010901E04FF000092846691C7E
:109AB0008DB2305CE0702846691C8DB2305C20713C
:109AC0002846691C8DB2305CE080E0884FF6FF715B
:109AD00001EA0020E080E08829466A1C95B2715CAA
:109AE0000843E080E08800B32846691C8DB2305CF2
:109AF00020722846691C8DB2305C608160894FF607
:109B0000FF7101EA00206081608929466A1C95B2D4
:109B1000715C08436081AA466089284485B2E18867
:109B20006089C01C814200D034E0607B022809D1EA
:109B30002946304603F0E6FD0746715DB94200D084
:109B40001CE010E0607B01280CD12946304603F070
:109B50009DFD074670190121FEF7D6FAB84200D0E4
:109B60000CE000E000BFB9F1010F02D10620A073A4
:109B700001E00020A0735046BDE8F09F0220A073D2
:109B80000020F9E70520A0730020F5E70620A07368
:109B90000020F1E70120A0730020EDE770470000EE
:109BA00070B5002100230F22C47804B3154C24683B
:109BB00004F4E064C4F5E064210AC1F10403CA407E
:109BC000447804FA03F184781440214309010E4CCF
:109BD0000678A155047804F01F050124AC400578EF
:109BE0006D11AD0005F1E025C5F8004109E00478EC
:109BF00004F01F050124AC40044D0678761145F8A9
:109C0000264070BD0CED00E000E400E080E100E0E3
:109C100002490143024A1160704700000000FA0542
:109C20000CED00E0024A0A400243024B1A60704702
:109C300080FFFF1F08ED00E010B588B000226946E4
:109C40000BA000F0B3FA044674B16846FCF7C4F9FF
:109C500050B10522694609A0FCF748FE0B220C49C9
:109C60000DF10200FCF7F0F8204608B010BD00002E
:109C700041542B435343413F0D0A0000B6CCD0C59D
:109C8000D6D0D0C4BAC5C2EB3A5B25735D000000E4
:109C9000149E002001490862704700000000424203
:109CA00010B5024600200C4B186820F0030010434A
:109CB00018600A4B1B6843F00403084C2360012919
:109CC00001D130BF00E020BF044B1B6823F0040328
:109CD000024C236010BD00000070004010ED00E059
:109CE0000149086070470000A0044242704700002C
:109CF00010B5032209A10BA0FCF7F8FD03220DA16A
:109D000010A0FCF7F3FD0322124913A0FCF7EEFDAF
:109D10000322164916A0FCF7E9FD10BD545035305A
:109D200030000000426F6172645F4E616D653A25DC
:109D30007300000053544D33324C3135315242548C
:109D4000360000004350555F4D6F64656C3A2573D3
:109D50000000000000127A004370755F4F53435FAC
:109D6000465245513A2025644D687A0000A24A04C3
:109D70004370755F467265713A2025644D687A00BC
:109D80007047000000B585B06846FEF765F803220D
:109D9000694602A0FCF7AAFD05B000BD4F6E6C79C4
:109DA00049443A25730000007047000010B50321B4
:109DB00008A0FCF79BFDFFF79BFFFFF7E1FFFFF714
:109DC000E1FFFCF7C3FE00F013F8FFF7EDFF00F032
:109DD0002FF810BD0A546F732053797374656D208A
:109DE00053746172742E2E2E2E2E2E2E2E2E2E0099
:109DF00010B5FEF75DF9044603232246142102A0A4
:109E0000FCF774FD10BD00005461736B506F6F6CF4
:109E100053697A653A2564206275742068617320FD
:109E20002564207461736B206372656174652E0014
:109E300038B500241DE004EB44001549096801EB26
:109E40000010C06A98B10320009004EB4400104950
:109E5000096801EB0010038C04EB44000C4909680D
:109E600001EB00102146C26A0AA0FCF73FFD601C0E
:109E7000C4B2142CDFDB601EC4B2FFF7DDFC054664
:109E800003232A4649F6404107A0FCF72FFD38BDC1
:109E9000540000205461736B5B25645D4E616D65F9
:109EA0003A257328256429004D656D6F72795369D1
:109EB0007A653A25642062757420757365723A2557
:109EC000640000002DE9F04105460E4617460522C4
:109ED000294608A0FCF70AFD002407E0325D0523AF
:109EE000214605A0FCF702FD601C84B2BC42F5DBF4
:109EF000BDE8F081257300004275665B25645D3D19
:109F0000307825780000000010B500F085FB04468D
:109F10002CB10522214604A0FCF7E8FC03E0052152
:109F200006A0FCF7E3FC10BDB7A2CBCDC5E4D6C3B9
:109F3000D6A1CAA7B0DC5B25645D0000B7A2CBCD7B
:109F4000C5E4D6C3D6A14F4B0000000000B599B0C0
:109F50000948B0F8AA3000F1890208A16846FDF767
:109F600037FB052269460CA0FCF7C0FC6846FDF7EC
:109F700021FE19B000BD0000389D002041542B5136
:109F8000494F50454E3D22544350222C22257322E6
:109F90002C25640D0A000000C1ACBDD3B5BD3A2527
:109FA0007300000010B500244FF4FA6228A129A024
:109FB000FDF7A4FD00B9012400F0DEF8284981F87E
:109FC000CE00052127A0FCF791FC052128A0FCF775
:109FD0008DFC4FF47A7229A129A0FDF78FFD022391
:109FE0004FF47A7229A126A0FDF794FD20B905212E
:109FF00027A0FCF77BFC03E0052127A0FCF776FCFB
:10A0000002234FF47A7226A127A0FDF783FD40B109
:10A01000052128A0FCF76AFC0220114981F8CF0035
:10A020000FE002234FF47A7226A11FA0FDF772FD04
:10A0300038B1052125A0FCF759FC0420084981F816
:10A04000CF00052125A0FCF751FC204610BD0000E3
:10A050002139390041542B4353510D0A00000000AF
:10A06000389D0020BCECB2E9D0C5BAC500000000A4
:10A07000D5FDD4DAD7A2B2E1000000003000000024
:10A0800041542B435245473F0D0A00003500000064
:10A09000B1BEB5D8BFA80000CDE2B5D8BFA80000BA
:10A0A0004D4F42494C45000041542B434F50533FC4
:10A0B0000D0A0000D6D0B9FAD2C6B6AF53494DBF8B
:10A0C000A8000000554E49434F4D0000D6D0B9FAC4
:10A0D000C1AACDA853494DBFA8000000D7A2B2E144
:10A0E000B3C9B9A60000000070B5054600241022CF
:10A0F0002146641C6A54FF222146641C6A540022D3
:10A100002146641C6A5404222146641C6A5429199D
:10A1100016A0FBF799FE204484B204222046611C5D
:10A120008CB22A5402222046611C8CB22A5400228E
:10A130002146601C84B26A543C222146601C84B2D1
:10A140006A5400222046611C8CB22A5410222046F8
:10A15000611C8CB22A5429190648FBF775FE20446D
:10A1600084B2A01E6870E0B270BD00004D5154541E
:10A1700000000000899D002008B5694605A000F098
:10A180006FF89DF80010052205A0FCF7AFFB9DF8C5
:10A19000000008BD41542B4353510D0A000000003C
:10A1A000D0C5BAC5C7BFB6C83A2564002DE9F84F77
:10A1B00082460C4617464FF000080020009081466A
:10A1C0005146254804F099FB24494FF4967248689B
:10A1D0000021FBF74AFE4FF47A73322200211E4819
:10A1E00004F008FB00F0FF0BBBF1000F30D00020A3
:10A1F000207000252AE019484068465D302E01DBBA
:10A20000012000E00020392E01DC012100E00021C6
:10A21000084048B14F4504D14046411C01F0FF08B9
:10A220002654012000900FE0009868B14F4505D1F9
:10A2300000224046411C01F0FF08225400200090FB
:10A2400009F1010000F0FF09681CC5B25D45D2DBD1
:10A250004046BDE8F88F000000440040BC000020EC
:10A260002DE9F04780460C460025AA464146234882
:10A2700004F043FB22494FF4967248680021FBF733
:10A28000F4FD4FF47A73322200211C4804F0B2FA34
:10A2900000F0FF09B9F1000F2CD00020207000263B
:10A2A00026E017484068875D302F01DB012000E081
:10A2B0000020392F01DC012100E00021084068B1B5
:10A2C000605D00EB80004006000E6055615DA7F107
:10A2D0003000084460554FF0010A07E0BAF1000F62
:10A2E00004D0681CC5B2002060558246701CC6B2FE
:10A2F0004E45D6DB2846BDE8F0870000004400400C
:10A30000BC00002010B54FF480714148FDF711FBEF
:10A310004048006920F020003E49086140F24C406E
:10A3200003F0E0FB05213CA0FCF7E0FA4FF480715C
:10A330003748FDF7FCFA40F24C4003F0D3FB4FF4F2
:10A3400000513848FDF7F5FA40F24C4003F0CAFBE3
:10A35000052135A0FCF7CAFA4FF400513148FDF74A
:10A36000E6FA4FF47A7003F0BDFB4FF48071314888
:10A37000FDF7D4FA012804D105212FA0FCF7B6FA85
:10A3800001E0012010BD43F2B06003F0ABFB4FF4DD
:10A390007A722CA12CA0FDF7B1FB08B90220F1E7DD
:10A3A00005212BA0FCF7A2FA4FF47A7003F09AFB78
:10A3B0004FF4FA6223A12AA0FDF7A0FB08B90320FD
:10A3C000E0E7052128A0FCF791FA4FF47A721DA16D
:10A3D00028A0FDF793FB08B90420D3E70D480069D6
:10A3E00040F020000B490861052125A0FCF77EFA0A
:10A3F000FFF7D8FD04462CB10522214624A0FCF726
:10A4000075FA03E0052126A0FCF770FA0020B9E7F1
:10A4100000100140389D002047505253C9CFB5E786
:10A4200000000000000C014047505253BFAABBFA85
:10A430000000000000080140BFAABBFAB3C9B9A6DA
:10A44000000000004F4B000041540D0A00000000C6
:10A450004154D6B8C1EED6B4D0D0B3C9B9A6000025
:10A46000415445300D0A0000C9E8D6C3B2BBBBD881
:10A47000CFD4000041542B4350494E3F0D0A0000F9
:10A48000B2E9BFB4CAC7B7F1D3D050494E000000FB
:10A49000C1ACBDD3CDF8CAA7B0DC5B25645D0000BC
:10A4A000C1ACBDD3CDF8C2E7B3C9B9A60000000066
:10A4B00010B504464FF47A7003F014FB4FF47A722F
:10A4C00020A122A0FDF71AFB08B9012010BD8CB90C
:10A4D0004FF47A7224A125A0FDF710FB08B90220E1
:10A4E000F4E74FF47A7220A123A0FDF707FB08B927
:10A4F0000420EBE7012C11D14FF47A721AA123A0AA
:10A50000FDF7FCFA08B90320E0E74FF47A7216A1D0
:10A5100019A0FDF7F3FA08B90420D7E74FF47A72CF
:10A5200011A11DA0FDF7EAFA08B90520CEE74FF406
:10A530007A720DA11EA0FDF7E1FA08B90620C5E761
:10A540000020C3E743504D530000000041542B430B
:10A55000504D533D224D54222C224D54222C224D3D
:10A5600054220D0A000000004F4B000041542B43C1
:10A570004D47463D300D0A0041542B435343533D54
:10A580002255435332220D0A0000000041542B4350
:10A590004D47463D310D0A0041542B43534D503D2C
:10A5A00031372C3136372C302C380D0A00000000A2
:10A5B00041542B434E4D493D322C312C302C302C04
:10A5C000300D0A0070B504460D494FF49672486884
:10A5D0000021FBF74AFC21460A4804F08EF94FF4AB
:10A5E0007A734FF496720021064804F003F9C5B25D
:10A5F0002DB103480522416803A0FCF777F970BD2F
:10A60000BC00002000440040B6C1B6CCD0C5B7B5F0
:10A61000BBD83A257300000010B5B2B0002438480A
:10A6200090F8B00000F0200000283FD0052135A0B0
:10A63000FCF75CF940F6B83003F054FA6846FFF7CF
:10A6400053FD04460522214632A0FCF74FF922466D
:10A6500034A1384804F051F94FF4FA6136A0FDF7FF
:10A66000A1F900B10EE04FF4FA6133A0FDF79AF9B9
:10A6700000B107E04FF4FA612FA0FDF793F900B1A4
:10A6800000E000BF224669462A4804F025F94FF44D
:10A690007A712AA0FDF786F910B9022032B010BDF8
:10A6A0004FF4FA60FDF700FB0020F7E7052125A035
:10A6B000FCF71CF90DEB0401102211485130FBF797
:10A6C000C3FB204484B2224616A11A4804F015F9AF
:10A6D0004FF47A7003F006FA052269461DA0FCF7D4
:10A6E00005F922466946134804F0F6F84FF47A71EA
:10A6F00012A0FDF757F908B90220CFE70020CDE7F7
:10A70000389D0020C5E4D6C3CEAA4D515454D0ADD7
:10A71000D2E90000B7A2CBCDC5E4D6C35B25645D0A
:10A720000000000041542B514953454E443D2564DF
:10A730000D0A0000004400403E00000053454E4416
:10A74000204F4B00C5E4D6C3CEAA544350D0ADD25F
:10A75000E9000000B7A2CBCDC5E4D6C33A2573000B
:10A760002DE9F04FFFB04FF002090024954890F812
:10A77000B00000F0200000287CD032222046611C6E
:10A780008CB202A90A5404EB090084B200222046CC
:10A79000611C8CB202A90A5410222046611C8CB2A2
:10A7A00002A90A5402A8011986485130FBF74CFB54
:10A7B000204484B200222146601C84B202A8425484
:10A7C00001222046611C8CB202A90A5408197EA1FC
:10A7D000FDF7ECFB204484B27A490868FAF78DFF54
:10A7E00007460B4602A908193A467CA1FDF7DEFB95
:10A7F000204484B273494868FAF77FFF07460B4646
:10A8000002A908193A4675A1FDF7D0FB204484B28D
:10A810006C498868FAF771FF07460B4602A90819C8
:10A820003A466EA1FDF7C2FB204484B2654991F817
:10A83000CE00FAF704FF8246FAF75FFF07460B46A1
:10A8400002A908193A4665A1FDF7B0FB204484B27D
:10A850005C49D1F8D400FAF750FF074688465949B9
:10A86000D1F8D800FAF749FF82460B4602A9081929
:10A87000524600E035E05DA1CDE90078FDF796FB9A
:10A88000204484B202A908195EA1FDF78FFB204481
:10A8900084B2A4EB0901481E0DF10901FEF7B2FED6
:10A8A000224659A15C4804F028F84FF4FA615BA0F5
:10A8B000FDF778F818B901207FB0BDE8F08F224687
:10A8C00002A9554804F008F84FF47A7154A0FDF736
:10A8D00069F808B90220EFE74FF4FA60FDF7E4F9F0
:10A8E0006DE0384908680021FAF770FF01D82B2580
:10A8F00000E02D25334948680021FAF767FF01D8A9
:10A900002B2600E02D262F490868FAF7F6FE2A4686
:10A91000CDE9000144A102A8FDF748FB0446294AFD
:10A9200011685068FAF748FF0BD226494868FAF7D1
:10A93000E4FE3246CDE900013BA102A8FDF736FB5B
:10A9400004462048008A00F4807060B11D49086800
:10A95000FAF7D3FE2A46CDE9000133A102A8FDF79C
:10A9600025FB044610E01748008A00F4007058B137
:10A9700014494868FAF7C1FE3246CDE900012AA120
:10A9800002A8FDF713FB044622461FA1224803F04C
:10A99000B4FF4FF47A7003F0A5F8052202A928A0AD
:10A9A000FBF7A4FF224602A91B4803F095FF4FF4D2
:10A9B0007A711BA0FCF7F6FF08B902207CE70020A3
:10A9C0007AE70000389D00207B2273656E736F72FA
:10A9D0004461746173223A5B000000007B2276615F
:10A9E0006C7565223A252E32667D2C007B226C61C7
:10A9F00074223A252E37662C226C6E67223A252E59
:10AA000037667D005D7D000041542B514953454E12
:10AA1000443D25640D0A0000004400403E00000053
:10AA200053454E44204F4B002354503330302C2597
:10AA30006330252E31662C302E30300D0A00000098
:10AA4000B7A2CBCDCAFDBEDD3A25730010B5B2B0BA
:10AA500000242B4890F8B00000F02000002832D0ED
:10AA6000C0222046611C8CB20DF800200022204636
:10AA7000611C8CB20DF80020224622A1254803F06B
:10AA80003CFF4FF4FA6124A0FCF78CFF10B90120C1
:10AA900032B010BD2246694620A0FFF713FA2246C5
:10AAA00069461C4803F018FF4FF47A711DA0FCF7AB
:10AAB00079FF08B90220EBE74FF4FA60FDF7F4F8EC
:10AAC000E0B90020E4E7694618A001F093FA0446D3
:10AAD00022460CA10F4803F010FF4FF47A7003F0E8
