:020000040800F2
:10000000D0230020390100085916000811150008F6
:1000100041150008F10A0008B72D00080000000093
:10002000000000000000000000000000CB190008E4
:100030002D0E0008000000001D1700081B1B000803
:100040005301000853010008530100085301000840
:1000500053010008530100081D1200085301000855
:100060005301000853010008530100085301000820
:100070005301000853010008530100085301000810
:100080005301000853010008530100085301000800
:1000900053010008530100085301000853010008F0
:1000A00053010008530100085301000853010008E0
:1000B000E11B000853010008530100085301000828
:1000C00053010008530100085301000853010008C0
:1000D00053010008D52600082927000889270008B1
:1000E00053010008530100085301000853010008A0
:1000F0005301000853010008530100085301000890
:10010000530100085301000853010008530100087F
:10011000530100085301000853010008530100086F
:1001200053010008DFF80CD000F0C2FA0048004785
:10013000893A0008D0230020064880470648004737
:10014000FEE7FEE7FEE7FEE7FEE7FEE7FEE7FEE787
:10015000FEE7FEE7791B0008250100082DE9FE4FA8
:10016000804681EA0300C00F0C46009021F0004158
:1001700023F00045B8EB0200A94105D240462146D4
:1001800090461C460B46024623F00040104304D123
:100190004046214603B0BDE8F08F270DC7F30A00A3
:1001A000C3F30A510290401A0190402866DAC3F363
:1001B000130040F4801B0098924620B10023D2EB3C
:1001C000030A63EB0B0B01985946C0F140025046FD
:1001D00000F0B2F906460D4650465946019A00F025
:1001E000CAF910EB08006141002487EA115284EA41
:1001F000E7731A433BD0009A3AB3019A012A4FEAB7
:10020000075210DC001B61EB02014FF0004202EAD2
:100210000752CDE90042001C41F5801132462B46C1
:1002200000F0C8F9B6E7001B61EB0201001C41F5C4
:10023000801300185B412018A2F5001747EB03015B
:1002400040EAD570B6196D4111E06D084FEA3606E7
:1002500045EAC0754FEA0752001B61EB0201001C22
:1002600041F5801149084FEA3000001951413246EA
:100270002B4603B0BDE8F04F00F08FB90098012283
:1002800040000023D0EB020263EBE07300982146AC
:100290004FEAE074B8EB000061EB0401E9E783F09A
:1002A00000435BE781F0004158E72DE9FE4F81EA0A
:1002B000030404F0004421F0004100944FF0000BCF
:1002C00023F0004350EA010402D052EA030404D1AF
:1002D0000020014603B0BDE8F08FC3F30A54C1F318
:1002E0000A552C44A4F2F3340194A0FB0254C1F348
:1002F000130141F48011C3F3130343F4801301FB92
:10030000024400FB034E840A970A44EA815447EAF8
:100310008357A4FB076802958D0A05FB07854FEA02
:10032000932C04FB0C542705029D4FEA065847EA1C
:100330001637B5EB08056EEB070C870E920E47EAF1
:10034000811742EA8312A7FB0201B6EB0B0164EBB3
:1003500000042B0D43EA0C335E1844EB1C50DA46C4
:100360005146E7FB0201C5F313044FEA0B3343EA9E
:1003700014534FEA0432019C43EA0603A4F10C042F
:100380000294009CCDE900B400F014F9A2E72DE935
:10039000F04D81EA030404F0004B21F000451446BF
:1003A0004FF0000A23F0004150EA050220D054EA41
:1003B00001021DD0C5F30A570246C5F31303C1F36A
:1003C0001300C1F30A5640F4801543F48013A7EBE1
:1003D0000608101BD64608F2FD3873EB050002D361
:1003E00008F1010801E092185B41B8F1000F03DA4F
:1003F00000200146BDE8F08D00204FF48011064634
:1004000084460EE0171B73EB050705D3121B63EB45
:10041000050306434CEA010C49084FEA30009218E4
:100420005B4150EA0107EDD152EA030012D082EAA3
:10043000040083EA0501084303D100224FF0004382
:1004400008E0101BAB4102D20122002302E06FF052
:10045000010253101AEB06004CEB085110EB0A0096
:1004600041EB0B01BDE8F04D00F097B870B5C1F35A
:100470000A5201F000450024C1F3130140F2FF339A
:1004800041F480119A4201DA002070BD40F23343FA
:100490009A42A2F2334203DC524200F05CF800E0E0
:1004A00090402C43F1D0404270BD30B50B46014620
:1004B00000202022012409E021FA02F59D4205D303
:1004C00003FA02F5491B04FA02F52844151EA2F1AD
:1004D0000102F1DC30BD2DE9F05F054600209246B7
:1004E0009B4688460646814640241BE028464146F6
:1004F0004746224600F02FF853465A46C01A91410B
:1005000010D311461846224600F016F82D1A67EB54
:1005100001084F4622460120002100F00DF817EB9C
:1005200000094E41201EA4F10104DFDC484631469B
:100530002A464346BDE8F09F202A04DB203A00FA11
:1005400002F1002070479140C2F1200320FA03F32A
:10055000194390407047202A04DB203A21FA02F028
:100560000021704721FA02F3D040C2F120029140ED
:10057000084319467047202A06DBCB17203A41FA78
:1005800002F043EAE07306E041FA02F3D040C2F120
:100590002002914008431946704710B5002B08DA35
:1005A000401C41F1000192185B411A4301D120F037
:1005B000010010BD2DE9F04D92469B4611B1B1FAF4
:1005C00081F202E0B0FA80F220329046FFF7B4FFE9
:1005D00004460F4640EA0A0041EA0B0153465A46D8
:1005E000084303D120463946BDE8F08D114653EA51
:1005F000010015D0C8F140025046FFF7ACFF054698
:100600000E46504659464246FFF796FF084301D032
:10061000012000E00020054346EAE0762C43374302
:100620000A984FEA4453A0EB08004FEAD4240A305A
:100630004FF0000244EA47544FEAD72502D5002084
:100640000146D1E7010510196941DDE908450019A6
:100650006941BDE8F04DA0E7C1F30A52C1F31301AF
:1006600040F2FF3341F480119A4202DA0020014641
:10067000704740F233439A42A2F2334202DC5242C4
:10068000FFF769BFFFF758BF30B5002904DB4FF013
:100690000044404264EB0101002B04DB4FF00044B6
:1006A000524264EB0303994208BF904230BD000000
:1006B000064C074D06E0E06840F0010394E80700AF
:1006C00098471034AC42F6D3FFF730FDCC3B00081E
:1006D000EC3B000882B02DE9FF1FEFF3038001B46B
:1006E000684600F1400000E901400C480168C1F88B
:1006F00000D00B48D0F800D001BC80F30388BDE8DF
:10070000FF1F01B000BD0648D0F800D001BC80F347
:100710000388BDE8FF1F01B000BD000044000020B9
:10072000400000201CB50121080601F07DF80121E0
:1007300040F2012001F098F8FE20009003208DF88F
:10074000040000208DF807006946024800F08FFD84
:100750001CBD00000000024010B50446FFF7E2FF98
:10076000204600F001F810BD10B592B0044647488D
:1007700000F0CCF946480790089400200990062024
:100780000A9000200B9080200C9040000D9080007B
:100790000E9020200F90000210900020119007A9C9
:1007A0003A4800F059FA0121480201F05DF80020B2
:1007B000019001208DF809000020039001208DF8A0
:1007C00008008DF809000020059006208DF818001B
:1007D00001A92F48583800F087F803230122114659
:1007E0002B48583800F0AAF8032302221146284863
:1007F000583800F0A3F803231A46194624485838FD
:1008000000F09CF80323042211462148583800F0D8
:1008100095F80323052211461D48583800F08EF83C
:100820000323062211461A48583800F087F80121A0
:100830001748583800F039F801211548583800F0A9
:1008400029F80121114800F055F9012001F09CF828
:1008500001210F48583800F033F801210C4858386E
:1008600000F023F801210A48583800F013F800BFBF
:1008700040210748583800F02EF80028F8D00448E6
:10088000583800F007F912B010BD000008600240AF
:100890005824014021B1826842F00102826003E0E5
:1008A000826822F001028260704721B1826842F4BE
:1008B0008072826003E0826822F4807282607047F6
:1008C00021B1826842F40072826003E0826822F4FF
:1008D0000072826070470246002013680B4201D00C
:1008E000012000E00020704730B5024600200023C0
:1008F0005068104C20400D790C6844EA05242043D0
:10090000506090680C4C2040D1E903542C438D6812
:100910002C434D7944EA450420439060106B20F04D
:10092000F8700C7D641EE4B2234340EA0350106368
:1009300030BD0000FFFEFFFCFDF7FFC0F0B5044630
:100940000D46002000211D2D11DDE06DA5F11E06D4
:1009500006EB4607072606FA07F18843A5F11E06AF
:1009600006EB460603FA06F10843E06534E0132D72
:1009700011DDE068A5F1140606EB4607072606FA26
:1009800007F18843A5F1140606EB460603FA06F1C3
:100990000843E06020E0092D11DD2069A5F10A0679
:1009A00006EB4607072606FA07F18843A5F10A0673
:1009B00006EB460603FA06F1084320610CE0606985
:1009C00005EB4507072606FA07F1884305EB4506C0
:1009D00003FA06F108436061072A0FDA206C561EFD
:1009E00006EB86071F2606FA07F18843561E06EB1C
:1009F000860605FA06F1084320644AE00D2A0FDA5C
:100A0000E06BD61F06EB86071F2606FA07F1884320
:100A1000D61F06EB860605FA06F10843E06338E0C8
:100A2000132A11DAA06BA2F10D0606EB86071F262A
:100A300006FA07F18843A2F10D0606EB860605FAD1
:100A400006F10843A06324E0192A11DA606BA2F1D1
:100A5000130606EB86071F2606FA07F18843A2F164
:100A6000130606EB860605FA06F10843606310E0FC
:100A7000206BA2F1190606EB86071F2606FA07F17E
:100A80008843A2F1190606EB860605FA06F108432B
:100A90002063F0BD816841F080418160704710B5EE
:100AA000020CC0F30721C3B2084600021043000243
:100AB000184310BD06E040F6CA0100BF0A00A1F1CC
:100AC0000101FBD10200A0F10100F4D17047F0B5A3
:100AD000034600201C460D46104603E014F8016B47
:100AE00005F8016B1600A2F10107BAB2F6D1F0BD0C
:100AF00000BFFEE721B1026842F00102026004E09B
:100B000002684FF6FE731A400260704701684FF6A4
:100B1000FE72114001600021016041608160C1608E
:100B20004B49884208D14A490839496841F00F01C8
:100B3000474A083A51608AE045491431884208D151
:100B400043490839496841F0F001414A083A516087
:100B50007DE03F492831884208D13D49083949683C
:100B600041F470613A4A083A516070E038493C31CA
:100B7000884208D136490839496841F47041344AFD
:100B8000083A516063E032495031884208D1304917
:100B90000839496841F470212D4A083A516056E0FD
:100BA0002B496431884208D129490839496841F400
:100BB0007001274A083A516049E025497831884256
:100BC00008D123490839496841F07061204A083A40
:100BD00051603CE01F49884206D1011F096841F07D
:100BE0000F01021F116032E01A491431884208D106
:100BF0001849091F096841F0F001164A121F1160D7
:100C000025E014492831884208D11249091F096892
:100C100041F470610F4A121F116018E00D493C3118
:100C2000884208D10B49091F096841F47041094AFB
:100C3000121F11600BE007495031884207D1054966
:100C4000091F096841F47021024A121F11607047A0
:100C5000086002400864024010B50022026847F6AE
:100C6000F0739A430C6A8B6823430C6923434C69E5
:100C700023438C692343CC6923434C6A23438C6A06
:100C800023431A430260CB6843600B6883604B6860
:100C9000C36010BD0FB42DE9F04186B000250126D8
:100CA0000027B00200F07AFC044654480078FF2880
:100CB00001D1012000E0002050490978504A127803
:100CC000914201D1012100E0002108437DD00DA80F
:100CD00005902046059A0C9902F05EFA00200590D6
:100CE0000DA8059069460C9800F0C6FB06462AE060
:100CF0002846691CCDB21DF80000012804D0022846
:100D000006D003281AD115E0059880C8059019E08F
:100D10000598C01D20F007000590D0E90021DDF8FE
:100D200014C00CF1080C1046CDF814C0FFF79EFB60
:100D3000074607E0059880C8059003E0059880C83D
:100D4000059000BF00BF3000A6F10106D0D1059884
:100D500080C80590002005902A480078FF2801D11E
:100D6000012000E0002027490978B94201DB012178
:100D700000E00021084338D0214623A000F0ACFE5B
:100D80002248007810F0020F0DD02149087800F0B9
:100D900033FA40B1204600F0AFFB80464246214680
:100DA0001C4801F0F1FF1948007810F0040F0FD033
:100DB0001749487800F020FA50B1204600F09CFB1B
:100DC000804642462146144800E00EE001F0DCFF78
:100DD0001248006848B1204600F08EFB00F0FF0882
:100DE000414620460D4A12689047204600F0AAFB73
:100DF00006B0BDE8F0015DF814FB000070000020B3
:100E000050000020720000200D0A00007100002038
:100E10001A00002000380140004400407400002007
:100E20000149087070470000710000207047000001
:100E300010B500201A4908704FF4A07000F0AEFB06
:100E400018490860002406E0FF2017490855174993
:100E50000855601CC4B2032CF6DB00241DE0002002
:100E60001049096801EB4411486103200D490968E4
:100E700001EB4411087200200A49096801EB441192
:100E800008610849096801EB4411C860054909680F
:100E900001EB44118861601CC4B20A2CDFDB10BD79
:100EA00060000020640000201A0000201D000020C7
:100EB0002C4909782C4A11702A490978491C294A79
:100EC000117029490978294A1268274B1B7802EBCF
:100ED0004312117126A1254A1268234B1B7802EB9D
:100EE000431211600021214A12681F4B1B7802EB4C
:100EF0004312517102221D4909681B4B1B7801EBFB
:100F00004311CA71012219490968174B1B7801EB7B
:100F100043110A721849154A1268134B1B7802EBE9
:100F200043125161114909680F4A127801EB4211CD
:100F3000C86100220D4909680B4B1B7801EB431176
:100F4000CA600021094A1268074B1B7802EB431262
:100F50001161002205490968034B1B7801EB43111D
:100F60008A617047600000201900002064000020A2
:100F70004750494F000000000113000870B50546B6
:100F8000284601F0A3FD04465F48005DFF2808D114
:100F90005E4800785C4908555C480078401C5B4915
:100FA00008705BA05849095D5B4A126802EB411169
:100FB000086000205449095D574A126802EB41114C
:100FC000487101205049095D534A126802EB4111F2
:100FD000C87103204C49095D4F4A126802EB411168
:100FE00008724E484849095D4B4A126802EB4111AC
:100FF00048614548005D4849096801EB4010C461FB
:1010000047494148005D444A126802EB4010C16004
:1010100044483D49095D404A126802EB41110861AC
:1010200000213948005D3C4A126802EB40108161A2
:1010300000203D4921F814004FF4967000F0AEFAFC
:101040003A4941F82400284601F040FD044638485A
:10105000005DFF2808D12D480078354908552B48F8
:101060000078401C2949087032A03149095D2A4A9C
:10107000126802EB4111086000202D49095D264AE3
:10108000126802EB4111487101212948005D224A92
:10109000126802EB4010C17103202549095D1E4A08
:1010A000126802EB411108721C492148005D1A4A7E
:1010B000126802EB401041611D48005D1649096845
:1010C00001EB4010C46116481949095D124A1268C3
:1010D00002EB4111C86013481549095D0E4A1268B8
:1010E00002EB4111086100201149095D0A4A1268AA
:1010F00002EB411188614FF4967000F04FFA0F49EE
:1011000041F8240070BD00001D0000206000002098
:1011100055534152527800006400002031280008E5
:10112000692D0008692C00082600002078000020A6
:101130001A000020555341525478000084000020CA
:1011400010B5032124A0FFF7A5FD002441E02948A4
:10115000006800EB44104069C8B32648006800EB03
:101160004410C079012806D0022817D003280ED0D9
:1011700004282BD11EE01F4A126802EB4412107F94
:101180001C4A126802EB4412516988471EE0194953
:10119000096801EB44114869804717E0154A126855
:1011A00002EB4412D069134A126802EB44125169EF
:1011B00088470BE00F4A126802EB4412D0690D4ACF
:1011C000126802EB44125169884700BF00BF601CDF
:1011D000C4B20A2CBBDB10BD546F73204465766922
:1011E000636520496E69742E2E2E2E2E2E2E2E2EE5
:1011F0002E000000640000200146FF2901D10020DC
:1012000070470548006800EB4110406908B90020AC
:10121000F6E70120F4E7000064000020012000F060
:1012200003F800F077F900000149086070470000FA
:101230001404014070B504460025107820B11678DA
:101240002068B0FBF6F085B2206808442060107872
:10125000984203DA1078401C107002E02068401BAE
:10126000206016782068B0FBF6F080B270BDF0B553
:101270000A4600210023002400BF3DE0012505FAB5
:1012800001F3156805EA03049C4234D105684F0058
:101290000326BE40B543056015794E00B54006688B
:1012A000354305601579012D02D01579022D16D12F
:1012B00085684F000326BE40B543856055794E00D2
:1012C000B540866835438560858801268E40B543E4
:1012D0008580858896798E40B6B235438580C5680D
:1012E0004F000326BE40B543C560D5794E00B540DA
:1012F000C6683543C560491C1029BFD3F0BD000046
:101300007CB504465FE0324A6068811A904217D08B
:1013100009DC304940180DD0B0F5806F0CD0B0F525
:10132000006F13D10AE0B1F5806F0BD0B1F5406FBB
:101330000CD109E0012509E0022507E0042505E0BC
:10134000082503E0102501E0402500BF00BF012172
:10135000284600F069FA6078102806D0142816D0C4
:1013600018281DD0482823D108E001208DF804005A
:1013700000208DF806008DF8070019E000208DF898
:10138000040001208DF806008DF8070010E0012010
:101390008DF804008DF8060000208DF8070007E0A6
:1013A00001208DF804008DF806008DF8070000BFBD
:1013B00000BFA068009020788DF80500694660683D
:1013C000FFF755FF0C34606800289CD17CBD0000FD
:1013D000000C02400000FEBFF0B5002300244D07C2
:1013E000ED0E02FA05F3CE1000F1200555F8265057
:1013F0004E07F70E0F26BE40B543CF1000F1200672
:1014000046F82750CE1000F1200555F8265045EA41
:101410000304CE1000F1200545F82640F0BD4183BD
:1014200070471FB51C462CB1029A91B2019800F08A
:1014300007F804E0029A91B20198FFF7F0FF1FBD90
:10144000018370472DE9F04104460D4608480068C5
:101450000849097800EB4110C66904EB440006EB2B
:1014600080072B4697E80700FFF7DBFFBDE8F08118
:101470006400002019000020F0B504460A4600234D
:1014800000200025214633E00E78252E02D10125CB
:10149000461CB0B2012D2AD10E78642E06D1AC467E
:1014A0001E465F1CBBB202F806C000250E78662EF1
:1014B00007D14FF0020C1E465F1CBBB202F806C0FB
:1014C00000250E78732E07D14FF0030C1E465F1CCB
:1014D000BBB202F806C000250E78632E07D14FF08C
:1014E000040C1E465F1CBBB202F806C00025491C56
:1014F0000E78002EC8D1F0BD10B5014600200A4676
:1015000001E0431C98B212F8014B002CF9D110BD38
:1015100000BFFEE771B600BFBFF34F8F06480068FB
:1015200000F4E06005490843001D03490860BFF36B
:101530004F8F00BF00BFFEE70CED00E00000FA0592
:1015400000BFFEE702460A4B1868002106E0A2F140
:101550000803834200D107E0014600680368002BBE
:10156000F5D101B10B60704703680B6000BFFAE76B
:10157000680000200146A1F1080250680838704751
:10158000054908600021044A126811600821024AD6
:1015900012685160704700006800002010B50346D3
:1015A0001048016803F1080083B20FE00868401A90
:1015B0004C68001B984208D348684218536008687A
:1015C00010600A6002F1080010BD09680868002870
:1015D000ECD1486842180020106053600A6002F1A4
:1015E0000800F1E76800002010B50446002C09DA75
:1015F00001210B20FFF726FF6042C1B2022000F05C
:1016000073F807E000210B20FFF71CFFE1B2022076
:1016100000F06AF810BD70B505460C462846FFF785
:10162000E3FF204600F001F870BD10B50446002C21
:1016300009DA01210A20FFF705FF6042C1B201204B
:1016400000F052F807E000210A20FFF7FBFEE1B2AC
:10165000012000F049F810BD7047000070B500216E
:1016600000230F22C47824B3174C246804F4E064E8
:10167000C4F5E064C4F30721C1F10404E3B20A41F4
:1016800044789C40E1B28478144021430C07210E39
:101690000E4C05786155047804F01F050124AC4018
:1016A00005786D114FF0E02606EB8505C5F8004181
:1016B00009E0047804F01F040125A540044C0678D5
:1016C000761144F8265070BD0CED00E000E400E017
:1016D00080E100E002490143024A116070470000C6
:1016E0000000FA050CED00E010B502464FF4C860AA
:1016F00000FB01F36424B3FBF4F0012A02D0022AB8
:1017000007D102E0044B186003E0034B1B1D186077
:1017100000BF00BF10BD000034080040704700004B
:1017200000B589B00121042000F08EF801210220CB
:1017300000F08AF80121084600F086F80121022015
:1017400000F092F80121042000F08EF801210846F3
:1017500000F08AF802208DF8080000208DF80A00B9
:1017600001208DF80B0003208DF8090002220621CC
:101770002B48FFF731FE022207212948FFF72CFEF4
:101780004020019001A92648FFF771FD80200190BB
:1017900001A92348FFF76BFD4FF4C86007900220B2
:1017A000ADF818000020ADF82000ADF81A0006A929
:1017B0001C4800F0DDFA6020ADF80C000120ADF807
:1017C0000E000020ADF81400049003A9154800F0A5
:1017D00020FA03A9134800F041FA03A9114800F0C8
:1017E0006DFA03A90F4800F093FA08210D4800F0A4
:1017F0002CFA08210B4800F054FA0821094800F09F
:101800007EFA0821074800F0A6FA0121054800F0F9
:10181000E8F90121034800F0F0F909B000BD00002B
:10182000000402400008004029B1064A1268024341
:10183000044B1A6004E0034A12688243014B1A60A9
:10184000704700001C38024029B1064A1268024362
:10185000044B1A6004E0034A12688243014B1A6089
:10186000704700002438024029B1064A126802433A
:10187000044B1A6004E0034A12688243014B1A6069
:101880007047000020380240F0B5002100220023FC
:10189000002600240025374F3F6807F00C0131B1C6
:1018A000042912D0082913D00C2934D113E0314F68
:1018B0003F1F3F68C7F342356F1C4FF0010C0CFA15
:1018C00007FC4FEACC37076033E02B4F076030E06E
:1018D0002A4F07602DE0274F3F6807F47012254F0D
:1018E0003F6807F44003264F07EB92473A780127F9
:1018F00007EB93531F4F3F6807F480362EB91E4FF6
:101900005743B7FBF3F7076004E01C4F5743B7FB9F
:10191000F3F707600DE0174F3F1F3F68C7F34235ED
:101920006F1C4FF0010C0CFA07FC4FEACC37076034
:1019300000BF00BF0F4F3F6807F0F0010909114FCA
:101940007C5C0768E74047600A4F3F6807F4E06146
:10195000090A0C4F7C5C4768E7408760054F3F6889
:1019600007F46051C90A074F7C5C4768E740C760CD
:10197000F0BD0000083802400024F40000127A0094
:1019800000000020090000200149086070470000A5
:101990000000474270B5020CC0F30723C4B202FB3B
:1019A00001F5FF2695FBF6F5AAB203FB01F595FBC1
:1019B000F6F5ABB204FB01F595FBF6F5ACB21046BB
:1019C000000218430002204370BD70470CB5002090
:1019D000019000903D48006840F480303B49086029
:1019E00000BF3A48006800F4003000900198401CA5
:1019F0000190009818B90198B0F5A06FF1D1334863
:101A0000006810F4003F02D00120009001E00020A7
:101A100000900098012857D12D48006840F004003C
:101A20002B4908600846006840F00200086008463C
:101A3000006840F00100086024482430006840F04D
:101A40008050224924310860C8142249086000BF30
:101A50002048406810F0100FFAD11C480830006888
:101A60001A4908310860084600680860084600689E
:101A700008600846006820F47D0008600846006899
:101A800040F49A0008601148006840F080700F49E7
:101A9000086000BF0D48006810F0007FFAD00B48C6
:101AA0000830006820F00300084908310860084643
:101AB000006840F00300086000BF04480830006878
:101AC00000F00C000C28F8D10CBD000000380240DA
:101AD000003C0240007000402DE9F04106460D46F2
:101AE0002C4637462846FFF707FD04443046FFF7EB
:101AF00003FD804618F1010001D1BDE8F08103E04B
:101B000017F8010B04F8010B5FEA0800A8F10108BF
:101B1000F6D104F8010B00BFEFE710B500F0A4FA0E
:101B200010BD000030B54FF4FA41B1F1807F00D311
:101B30001DE021F07F40401E4FF0E0225061501721
:101B40000F22002807DA13071D0E094B00F00F04BF
:101B5000241F1D5503E013071C0E064B1C5400BF29
:101B600000204FF0E02290610720106100BF30BDDF
:101B700018ED00E000E400E010B51548006840F4FE
:101B80008070134908601248083000681149084005
:101B90000F49083108600E4800680F4908400C4999
:101BA00008600846006820F4802008600848083073
:101BB000006820F47D000649083108600020091DF6
:101BC0000860FFF703FF4FF000600449086010BD94
:101BD000003802400CC0FF88FEFFFEEE08ED00E07A
:101BE000704721B1028842F08002028004E002883E
:101BF0004FF67F731A400280704721B1028842F08D
:101C00000102028004E002884FF6FE731A4002804F
:101C1000704730B500230022048C4FF6FE752C402F
:101C20000484028C038B4FF68F742340AC1E234038
:101C30000C8823436C1E22400C8922434C8822438B
:101C40004C6844630383028430BD0A460021018B43
:101C50004FF6F773194011430183704730B50023E5
:101C60000022048C4FF6EF752C400484028C038B09
:101C700048F6FF7423400C884FF6FF7505EA0424EC
:101C800023434FF6DF7422400C8905EA04142243F3
:101C90004C8805EA041422434C688463038302845D
:101CA00030BD0A460021018B4FF2FF7319404FF6F9
:101CB000FF7303EA022319430183704730B5002301
:101CC0000022048C4FF6FF652C400484028C838B29
:101CD0004FF68F7423400C8823434FF6FF54224065
:101CE0000C894FF6FF7505EA042422434C8805EA67
:101CF000042422434C68C4638383028430BD0A46B3
:101D00000021818B4FF6F77319401143818370478F
:101D100030B500230022048C4EF6FF752C4004845D
:101D2000028C838B48F6FF7423400C884FF6FF75B6
:101D300005EA042423434DF6FF7422400C8905EA8A
:101D4000043422434C8805EA043422434C6804647A
:101D50008383028430BD0A460021818B4FF2FF73DA
:101D600019404FF6FF7303EA02231943818370473A
:101D700000220288B0F1804F08D0104B984205D065
:101D80000F4B984202D00F4B984204D14FF68F73FD
:101D90001A404B881A430C4B984207D00B4B984281
:101DA00004D04FF6FF431A400B891A4302804B6858
:101DB000C3620B88038501238382704700040040BF
:101DC00000080040000C00400010004000140040DB
:101DD0000EB50220FFF724F80BE0012000F006FA10
:101DE00000230A226946034800F05EFF6846FEF7BA
:101DF00051FFF2E70038014088B001210620FFF7CB
:101E000021FB04A8FEF7A8FCFFF78AFC1E216FF057
:101E10002700FFF700FC01210846FFF713FB36E01F
:101E2000012000F0E3F901210020FFF70BFB4FF444
:101E30007A7000F0DBF900210846FFF703FBBDF8DC
:101E40001010002212A0FEF725FFBDF8121000228C
:101E500012A0FEF71FFFBDF81410002212A0FEF71B
:101E600019FFBDF81610002212A0FEF713FFBDF8EF
:101E70001810002212A0FEF70DFFBDF81A10002264
:101E800012A0FEF707FF01F046F900200090C7E717
:101E9000D7F3BDD3BDFC5B305D256400B5E7D1B998
:101EA0005B315D2564000000D3D2C7B0B7BD5B32A3
:101EB0005D256400D3D2BDD3BDFC5B335D256400DA
:101EC000D6D0BCE45B345D2564000000D7F3B1DFFD
:101ED0005B355D256400000010B5104800781328BC
:101EE00004D00F480078401C0D4908700D48007858
:101EF000401C0C4908700846007864280DDD00205D
:101F000008701423084A064801780848FFF792F938
:101F10000749087000200249087010BD50000020D9
:101F20003C00002034000020350000203800002054
:101F30004800002010B54FF47070FFF72FFB1E49CA
:101F4000086002201D49487000204860002428E0F5
:101F5000012004EB4401184A126802EB01110881C8
:101F6000002004EB4401144A126802EB011188615D
:101F7000002104EB4400104A126802EB00100160DB
:101F8000002004EB44010C4A126802EB0111C86105
:101F900004EB4401084A126802EB01110884601C3A
:101FA000C4B2142CD4DB1320054908700020054965
:101FB00008600549086010BD580000204800002056
:101FC000500000205C0000206C00002070B504462A
:101FD000FFF7B0FF04E094E80F0000F0D5F81034EC
:101FE00020680028F7D100F027F870BDFFF7A8F8A7
:101FF00004E0642000F0FAF800F002F8F9E70000CD
:1020000010B50C48046804B910BD0EE02468A07A2D
:1020100010F0010F09D0A07A10F0020F05D0E0688F
:102020008047A07A20F00200A07220680028EDD13D
:1020300000BFE9E76C00002008B5FFF773FD4FF41F
:10204000FA6005A3002207490090132000F034F83D
:10205000132000F023FA08BD5461736B526F6F7444
:1020600000000000ED1F000810B5FFF735FF00F07D
:1020700053F908484078402805D1032106A0FEF70F
:1020800009FEFFF747FA0B48006808B100F0DAFADA
:1020900010BD0000480000205461736B2054696D2E
:1020A000654F75742057696C6C20544F53205265EE
:1020B000736574006C0000202DE9F04704460D465E
:1020C00091461F46DDF820800DB9BDE8F08704EB8E
:1020D00044002C49096801EB00100089012800D058
:1020E000F3E704EB44002749096801EB0010008C7A
:1020F00098B91FFA88F0FFF751FA064604EB44013D
:10210000204A126802EB0111A1F8208004EB44017F
:102110001C4A126802EB0111CE6104EB4402194B18
:102120001B6803EB0212118C04EB4402154B1B6875
:1021300003EB0212D06900F051FA8246022104EB4F
:102140004400104A126802EB0010018104EB4400C5
:102150000C49096801EB0010456004EB4400094993
:10216000096801EB0010C7624A462946504600F054
:102170005DF904EB4401034A126802EB01110860A7
:1021800000BFA2E7580000202DE9F84305460E469F
:102190001746984600241AE004EB440012490968E7
:1021A00001EB0010008900B912E004EB44000E4975
:1021B000096801EB00100089012800D108E0601CCB
:1021C00080B20446142802DB0020BDE8F883E3E770
:1021D00000BFE0B23B4632462946CDF80080FFF70B
:1021E0006BFF0120F1E700005800002010B5044605
:1021F0001348407801281FD000201249097801EBCC
:102200004101114A126802EB011188610D48007802
:1022100000EB40000C49096801EB001044611021FB
:102220000848007800EB4000074A126802EB0010F3
:10223000018100F083F902E02046FEF73BFC10BD6F
:1022400048000020500000205800002001460D48A2
:10225000006800EB4110007A08B900207047094877
:10226000006800EB41104079074A1278904201D093
:102270000020F3E70120034A126802EB41121072BA
:1022800000BFEBE7640000205000002070B504465A
:102290000D4600BF1E48006800EB4410007A30B1C4
:1022A000012815D0022804D003282FD11FE00020D8
:1022B00070BD1748006800EB441040791549097853
:1022C000884201D10120F3E7204600F0E5F9E1E77B
:1022D00002200F49096801EB441108720D4800788B
:1022E0000B49096801EB441148710120E0E7022025
:1022F0000749096801EB441108720648007804494F
:10230000096801EB441148710120D1E70020CFE7B3
:102310006400002050000020002056E000EB400147
:102320002B4A126802EB01110989022902D01029F7
:1023300047D11DE000EB4001254A126802EB011174
:102340008969491C00EB4002214B1B6803EB021218
:10235000916100EB40011E4A126802EB011189698C
:1023600044F62062914202D940211A4A517029E074
:10237000002100EB4002164B1B6803EB0212916137
:1023800000EB4001124A126802EB0111496941B9A0
:10239000022100EB40020E4B1B6803EB021211817D
:1023A0000EE000EB40010A4A126802EB0111496994
:1023B000491E00EB4002064B1B6803EB0212516101
:1023C00000E000BF00BF411CC8B21428A6DB704764
:1023D000580000204800002010B504460F4800783F
:1023E000A04200D110BD0D48007800EB40000C4920
:1023F000096801EB00100B49086008480470007878
:1024000000EB40000649096801EB0010006806492E
:102410000860FEF75FF900BFE4E70000500000200D
:1024200058000020440000204000002030B5034642
:102430001846041F20462160041F20462360002503
:10244000041F20462560041F20462560041F2046E7
:102450002560041F20462560041F20462560041FB8
:1024600020462560041F20462560041F2046256065
:10247000041F20462560041F20462560041F2046B7
:102480002560041F20462560041F204622604FF06F
:102490008075041F2046256030BD000010B504463D
:1024A00004EB44000449096801EB0010006803498B
:1024B0000860FEF728F910BD5800002040000020F9
:1024C00010B50446142C01DB002010BD04EB4400C1
:1024D0001949096801EB00100089012801D1002089
:1024E000F3E704EB44001449096801EB001000898C
:1024F000042801D10020E8E704EB44000E490968F4
:1025000001EB00100089082801D10020DDE7082038
:1025100004EB4401084A126802EB01110881002013
:1025200004EB4401044A126802EB0111486100F017
:1025300005F80120C9E700005800002010B502216D
:1025400023480068A0F8981300243DE004EB440001
:102550001F49096801EB00100089022802D02028D9
:102560002ED107E01B480078A04202D02046FFF79A
:1025700033FF10BD04EB44001549096801EB00105E
:1025800090F822001449096801EB4010007A0128F4
:1025900015D1102004EB44010D4A126802EB011121
:1025A0000881032004EB4401094A126802EB01117F
:1025B00091F82210084A126802EB4111087200E0FB
:1025C00000BF00BF601CC4B2142CBFDB00BFD0E74B
:1025D00058000020500000206400002002465018DF
:1025E00020F00303A3F1300020F007007047000043
:1025F00010B5142800DB10BD00EB4002104B1B6827
:1026000003EB02121289042A00D1F4E7002200EB46
:1026100040030B4C246804EB03139A61102300EB76
:102620004002074C246804EB0212138100EB4002C5
:10263000034B1B6803EB0212516100BFDBE7000094
:102640005800002010B51348006800B910BD1148AB
:102650000068E0B10F480068807A10F0010F16D0D2
:102660000C48006800890B4909688988884207DBA3
:1026700008490968C8688047002006490968088138
:10268000044800680089401C02490968088100BFAD
:10269000DCE700006C00002010B504460B48007811
:1026A00000EB40000A49096801EB001080F8224065
:1026B00020200649097801EB4101054A126802EB26
:1026C00001110881FFF73AFF10BD00005000002003
:1026D0005800002010B540F225510E4800F0CBF90B
:1026E000B8B10C48001D0088C4B20B4800880B49E3
:1026F000098888420DDA084801880088401C064A8B
:102700001080074800684454064908780A21FFF7FA
:102710006FFF10BD003801402C0000202600002073
:10272000780000202300002010B540F22551114808
:1027300000F0A1F9C0B10F48001D0088C4B20E48D6
:1027400040880E494988884213DA0B4841884088FE
:10275000401C094A50800A48406844540949487856
:102760000A21FFF745FF04E040F22551014800F03F
:1027700044F810BD004400402C000020260000203A
:10278000780000202300002010B540F225511148A8
:1027900000F071F9C0B10F48001D0088C4B20E48A6
:1027A00080880E498988884213DA0B48818880889E
:1027B000401C094A90800A48806844540949887836
:1027C0000A21FFF715FF04E040F22551014800F00F
:1027D00014F810BD004800402C0000202600002006
:1027E000780000202300002001F40072B2F5007F81
:1027F00000D100BFCA430280704710B500220023F9
:10280000A1F510646A3C00D100BF0A120124944073
:10281000A3B2DC43048010BD21B1828942F400528E
:10282000828104E082894DF6FF731A4082817047ED
:1028300070B50446204600F06DF9054600F07CF8BE
:10284000062C2ED2DFE804F0030A11181F262522D9
:102850004FF4E131174800F037F822E026224FF418
:10286000E131154800F030F81BE027224FF4E13148
:10287000124800F029F814E027224FF4E1310F4804
:1028800000F022F80DE030224FF4E1310C4800F066
:102890001BF806E031224FF4E1310A4800F014F849
:1028A00000BF00BF204600F035F9054600F044F8AF
:1028B00070BD000000380140004400400048004066
:1028C000004C00400050004070B586B006460C46F3
:1028D000154601940020ADF80800ADF80A00ADF8E7
:1028E0000C00ADF810000C20ADF80E0001A9304628
:1028F00000F054F9012240F22551304600F028F949
:1029000001213046FFF788FF40213046FFF76CFF7A
:102910004FF48060FEF7DEFE8DF8145002208DF833
:10292000150001208DF816008DF8170005A8FEF798
:1029300095FE06B070BD000010B504462F488442D5
:1029400017D1072209212E48FEF746FD07220A214A
:102950002B48FEF741FD2315294A5115104600F07A
:102960005FF801210846FEF75FFF01218803FEF7AB
:102970007BFF244884420DD10823214A04211046BC
:1029800000F04EF801210846FEF74EFF01214804F1
:10299000FEF75AFF1C48844211D1C3141B4A01158B
:1029A000104600F03DF801210220FEF73DFF012115
:1029B0008804FEF749FF01218804FEF755FF1448FB
:1029C00084420DD1C314134A0115104600F028F8B3
:1029D0000121C804FEF738FF01210220FEF724FF81
:1029E0000D48844209D104230C4A8114094800F09F
:1029F00017F801210805FEF727FF10BD0038014038
:102A00000000024000440040004800400004024032
:102A1000004C00400008024000500040000C024002
:102A20002DE9FC4107460C4615461E46009602203D
:102A30008DF8040003208DF8050000208DF80600B5
:102A400001208DF8070069462846FEF710FC009427
:102A500069463846FEF70BFCBDE8FC8102460020C3
:102A6000B1F5007F00D100BF13880B4201D00120D7
:102A700000E00020704770B50246002400230025C6
:102A80000020A1F510666A3E00D100BFC1F34215D7
:102A900001F01F03012606FA03F3012D02D19689E6
:102AA000334006E0022D02D1168A334001E0968AB7
:102AB00033400C12012606FA04F41688344013B190
:102AC0000CB1012000E0002070BD000001460F4A5B
:102AD000881A914213D006DC0D4808180BD0B0F5C7
:102AE000806F10D109E0B0F5806F0AD0B0F56C4F5F
:102AF00009D1002070470120FCE70220FAE70320FB
:102B0000F8E70420F6E70020F4E70000004C00405E
:102B100000BCFFBF014605290ED2DFE801F0030526
:102B200007090B00054870470548FCE70548FAE728
:102B30000548F8E70548F6E70020F4E700380140CB
:102B40000044004000480040004C0040005000405D
:102B5000F0B503460024002600250020A1F51067EB
:102B60006A3F00D100BF1846C1F3421401F01F06AE
:102B7000012707FA06F5012C01D10C3004E0022CE4
:102B800001D1103000E014301AB107682F430760FC
:102B900002E00768AF430760F0BD00002DE9FF4782
:102BA00005460E460024A14600BFA046B08900B1EC
:102BB00000BF2C8A24F44054F08804432C82AC8952
:102BC00041F20C608443B08831890843718908431D
:102BD0000443AC81AC8A24F44074B0890443AC82D1
:102BE0006846FEF751FE1F48854202D1DDF80C9081
:102BF00001E0DDF80890A88910F4004F08D009EB37
:102C0000C90000EB091031684900B0FBF1F707E09B
:102C100009EBC90000EB091031688900B0FBF1F73E
:102C20006420B7FBF0F004012009642101FB107857
:102C3000A88910F4004F08D0322000EBC800B0FB88
:102C4000F1F000F00700044308E0322000EB081028
:102C50006421B0FBF1F000F00F0004432C81BDE8CB
:102C6000FF870000003801402DE9F05F05460E4661
:102C700014462F46B046A1463846FFF727FF824646
:102C8000084951F82A00FEF775FC1FFA80FB002363
:102C90005A464146384600F007F8A9F80000BDE85A
:102CA000F09F0000780000202DE9F04781460F4694
:102CB00015461E464846FFF709FF04462249085DAF
:102CC0000021FFF7E3FA8246204951F82400FEF77D
:102CD00051FC8046BAF1000F27D0012240F2255165
:102CE0004846FFF735FF1A4800781A490855454508
:102CF00001D31FFA88F5184820F81450002017490E
:102D000021F814001EB13046FFF770FA03E01149B4
:102D1000085DFFF7D5FB0C49085DFFF797FA002225
:102D200040F225514846FFF713FF47B10B4931F8F0
:102D30001420064951F824003946FDF7C8FE07481B
:102D400030F81400BDE8F0871D0000207800002056
:102D50005000002023000020260000202C0000202E
:102D6000C1F30802828070472DE9F04704460D4602
:102D700016462746A846B6F800904A4641463846C9
:102D800000F002F8BDE8F08770B506460C4615461F
:102D90000BE014F8011B3046FFF7E2FF00BF802173
:102DA0003046FFF75BFE0028F9D02800A5F10101AD
:102DB0008DB2EED170BD00BFFEE7000010B5044635
:102DC00001232246D903024800F004F810BD000098
:102DD000000402402DE9F04787B004460D469046B6
:102DE000994672B6002704E000200DF80700781C11
:102DF000C7B2182FF8DB002786E158F8040BFDF75F
:102E00004EFE82466583012600BF3000A6F1010117
:102E1000CEB2FAD12583032600BF3000A6F101010E
:102E2000CEB2FAD16583012600BF3000A6F10101C0
:102E3000CEB2FAD12583032600BF3000A6F10101EE
:102E4000CEB2FAD16583012600BF3000A6F10101A0
:102E5000CEB2FAD12583032600BF3000A6F10101CE
:102E6000CEB2FAD16583012600BF3000A6F1010180
:102E7000CEB2FAD12583032600BF3000A6F10101AE
:102E8000CEB2FAD16583012600BF3000A6F1010160
:102E9000CEB2FAD12583032600BF3000A6F101018E
:102EA000CEB2FAD16583012600BF3000A6F1010140
:102EB000CEB2FAD12583032600BF3000A6F101016E
:102EC000CEB2FAD16583012600BF3000A6F1010120
:102ED000CEB2FAD12583032600BF3000A6F101014E
:102EE000CEB2FAD16583012600BF3000A6F1010100
:102EF000CEB2FAD12583032600BF3000A6F101012E
:102F0000CEB2FAD16583012600BF3000A6F10101DF
:102F1000CEB2FAD12583032600BF3000A6F101010D
:102F2000CEB2FAD16583012600BF3000A6F10101BF
:102F3000CEB2FAD12583032600BF3000A6F10101ED
:102F4000CEB2FAD16583012600BF3000A6F101019F
:102F5000CEB2FAD12583032600BF3000A6F10101CD
:102F6000CEB2FAD16583012600BF3000A6F101017F
:102F7000CEB2FAD12583032600BF3000A6F10101AD
:102F8000CEB2FAD16583012600BF3000A6F101015F
:102F9000CEB2FAD12583032600BF3000A6F101018D
:102FA000CEB2FAD16583012600BF3000A6F101013F
:102FB000CEB2FAD12583032600BF3000A6F101016D
:102FC000CEB2FAD16583012600BF3000A6F101011F
:102FD000CEB2FAD12583032600BF3000A6F101014D
:102FE000CEB2FAD16583012600BF3000A6F10101FF
:102FF000CEB2FAD12583032600BF3000A6F101012D
:10300000CEB2FAD16583032600BF3000A6F10101DC
:10301000CEB2FAD12583012600BF3000A6F101010E
:10302000CEB2FAD16583032600BF3000A6F10101BC
:10303000CEB2FAD12583012600BF3000A6F10101EE
:10304000CEB2FAD16583032600BF3000A6F101019C
:10305000CEB2FAD12583012600BF3000A6F10101CE
:10306000CEB2FAD16583032600BF3000A6F101017C
:10307000CEB2FAD12583012600BF3000A6F10101AE
:10308000CEB2FAD16583032600BF3000A6F101015C
:10309000CEB2FAD12583012600BF3000A6F101018E
:1030A000CEB2FAD16583032600BF3000A6F101013C
:1030B000CEB2FAD12583012600BF3000A6F101016E
:1030C000CEB2FAD16583032600BF3000A6F101011C
:1030D000CEB2FAD12583012600BF3000A6F101014E
:1030E000CEB2FAD16583032600BF3000A6F10101FC
:1030F000CEB2FAD12583012600BF3000A6F101012E
:10310000CEB2FAD1781CC7B24F45FFF676AE62B6A2
:1031100007B0BDE8F0871FB5002000900190029035
:103120000390FF216FF07F40FEF734FC0290FF21F7
:103130006FF07F40FEF72EFC03906846FFF73EFEDF
:10314000C820FFF753F80020029003906846FFF76D
:1031500035FEC820FFF74AF8FF216FF07F40FEF7E9
:1031600019FC0290FF216FF07F40FEF713FC0390E3
:103170006846FFF723FEC820FFF738F8FF2100203C
:10318000FEF708FC0290FF210020FEF703FC0390ED
:103190006846FFF713FE1FBD37B514460846064BB9
:1031A0006A46214600F0C8F804466946002000F04F
:1031B00066FC20463EBD00007F3A000802E008C8D9
:1031C000121F08C1002AFAD170477047002001E0A1
:1031D00001C1121F002AFBD1704700002DE9FF5FDB
:1031E000DDE90220010DDDF838B0024310D10F985F
:1031F00001244CA2012808D0002100980F9BC0E9AF
:103200000021C0E90243BDE8FF9F6FEA0B01F4E72C
:10321000A1F2FF3144F6105041430D140F980128DC
:103220000ED0A5EB0B00401C4FF000043E4EDFF823
:10323000FC90B0F1000AA04605DACAF1000717E0D9
:10324000CBF10000F0E7074612E0F80707D022466E
:10325000334640464946FDF728F8804689462246CF
:10326000334610461946FDF720F804460E467F10F7
:10327000002FEAD1DDE90201BAF1000F42464B46C8
:1032800002DAFDF712F801E0FDF781F804460E4678
:103290000022274BFDF7F8F903D84FF0FF30014625
:1032A00007E00022234B20463146FCF757FFFDF78D
:1032B000D3F9102409E0002C0ADB0A220023FDF7D1
:1032C0000AF9019B30321A55641E50EA0102F2D10C
:1032D000641C019AC4F1110314440F9A012A09D005
:1032E0000122084301D15B450FDD4FF0000205F1DB
:1032F00001050DE0084303D1A3EB0B056D1E09E0AA
:1033000000204FF0110B0F9088E701DA00226D1EAC
:10331000002A83D000980F99C0E90231C0E9004526
:1033200071E7000030000000000024400000F03F82
:103330000000F0430000E03F2DE9FF4F95B09B46B1
:1033400089460646002512E2252878D10024761CFD
:10335000F94A2746012105943378203B01FA03F00E
:10336000104202D00443761CF6E730782A2811D0A8
:103370006FF02F033078A0F13002092A16D8059A91
:1033800044F0020402EB820203EB42021044761C7A
:103390000590EFE759F8042B0592002A03DA504212
:1033A00044F40054059044F00204761C30782E2832
:1033B00016D116F8010F44F004042A280DD06FF03E
:1033C0002F023078A0F13003092B09D807EB8703CF
:1033D00002EB4303C718761CF3E759F8047B761C0D
:1033E00030786C280FD006DC4C2817D068280DD018
:1033F0006A2814D104E0742810D07A280FD10DE087
:1034000044F400140AE044F4801401E044F440144D
:103410007278824202D1761C04F58014761C3078D2
:1034200066280BD013DC582877D009DC002875D02B
:103430004528F6D04628F4D047281AD19FE118E055
:10344000632835D0642879D0652812D197E1702897
:1034500073D008DC6728F1D069286FD06E280DD0B2
:103460006F2806D1B5E073282CD0752875D0782840
:1034700074D05A46179990476D1C76E1C4F30250F8
:10348000022809D003280DD0D9F8001004280DD047
:103490000D6009F1040968E1D9F80010EA17C1E9E3
:1034A0000052F6E7D9F800100D80F2E70D70F0E752
:1034B00019F8041B8DF8001000208DF80100EA4671
:1034C000012003E059F804AB4FF0FF3061074FF0E3
:1034D000000102D40DE008F101018846B9420FDA7B
:1034E0008045F8DB1AF808100029F4D108E008F14B
:1034F000010188468142FADB1AF808100029F6D14A
:1035000005985B46A0EB080721463846179A00F05D
:103510009EFA284400EB080507E04DE02BE10DE0A2
:103520001AF8010B5A4617999047B8F10108F7D2DB
:103530005B4621463846179A14E142E00A2200927F
:10354000C4F302524FF0000A022A08D059F804CB03
:10355000032A4FEAEC710AD00DE029E02AE009F1D4
:10356000070121F00702F2E802C1914609E00FFAD3
:103570008CFC4FEAEC71042A03D14FFA8CFC4FEA21
:10358000EC71002907DA0A460021DCF1000C61EB3E
:1035900002012D2202E0220504D52B228DF8042001
:1035A000012203E0E20701D02022F7E7904653E032
:1035B0000A2102E010220DE010214FF0000A0091D4
:1035C0000BE010224FF0000A44F004040827009298
:1035D00003E008224FF0000A0092C4F30252022ACC
:1035E00005D059F804CB0021032A08D009E009F1DD
:1035F000070121F00702F2E802C1914605E01FFA37
:103600008CFC042A01D10CF0FF0C4FF000082207BB
:1036100022D5702827D0009B83F0100353EA0A03B9
:1036200009D15CEA010206D030228DF804208DF821
:10363000050002229046009B83F0080353EA0A0328
:103640000AD15CEA010201D1620705D530228DF86A
:1036500004204FF001087F1E582809D037A003909E
:103660000EA8029013E040228DF804200122E1E729
:1036700037A0F4E753466046009AFCF72CFF8446D7
:103680000398825C0298A0F10100029002705CEA4B
:103690000100EFD1029806A9A1EB000000F1200A79
:1036A000600702D524F4803400E00127574502DD8D
:1036B000A7EB0A0000E0002000EB0A01009005984B
:1036C0004144A0EB01000590E00306D45B4621468F
:1036D000179A059800F0BBF90544002706E001A8F9
:1036E0005A46C05D179990476D1C7F1C4745F6DB15
:1036F000E0030CD55B462146179A059800F0A7F920
:10370000054404E030205A46179990476D1C0099F3
:10371000481E00900029F5DC08E0029802995A46FC
:103720000078491C0291179990476D1CBAF100016D
:10373000AAF1010AF1DC6BE10928010030313233D2
:1037400034353637383961626364656600000000DD
:1037500030313233343536373839414243444546C7
:103760000000000000F060F9054406F10106307821
:1037700000287FF4E9AD19B02846BDE8F08F620754
:1037800000D4062709F1070222F0070CFCE8022307
:10379000E14603F000485FEA080C02D00FF27C2CEF
:1037A0000DE05FEA045C02D50FF2742C07E05FEADB
:1037B000C47C02D00FF26C2C01E0AFF2700C4FF021
:1037C000FF3823F00043CDF850C065280CD006DC4C
:1037D000452809D046281DD047283ED13EE066281E
:1037E00018D0672839D139E00021112F01DB1120D1
:1037F00000E0781CCDE9000106A90EA8FFF7EEFC59
:10380000DDE90F010E9A03910021009207F1010AF0
:1038100004914EE04FF000400097CDE9011006A959
:103820000EA8FFF7DBFCDDE90F0203920E9B119956
:103830000022DDF80CA00093049219B907F10101F0
:1038400000EB010AB7EB0A0004D4C0F1FF3007F126
:10385000010A0490AAEB0700019046E0012F00DA6C
:1038600001270021112F01DD112000E03846CDE9AC
:10387000000106A90EA8FFF7B1FCDDE90F010E9AC1
:103880000391002104910092BA4621070CD40399B8
:10389000514500DA8A46BAF1010F05DD009AAAF116
:1038A0000101515C302908D0B84202DA10F1040F4E
:1038B00006DA0121CDE9011017E0AAF10101E9E7DB
:1038C000002805DC049901440491AAEB000102E000
:1038D000411C514500DD8A460499A0EB010000F12E
:1038E000010001904FF000400290200704D401989D
:1038F000504501DBCDF8048000208DF84F00029880
:103900000DF14F07B0F1004F25D02B200E900298FB
:103910004FF0020800280CDA404202902D200E9051
:1039200007E00A210298FCF7C0FD3031029007F849
:10393000011DB8F10001A8F10108F2DC029800288D
:10394000EFD1791E0E980870307800F0200040F01A
:10395000450007F8020D12A8A0EB070000F10708C8
:103960001498007800B1012000EB0A01019801EBE6
:10397000E07105984144A0EB0100A0F10100059021
:10398000E00306D45B462146179A059800F05FF8DD
:1039900005441498007820B15A461799904705F1CC
:1039A0000105E00323D55B462146179A059800F0F0
:1039B0004EF805441BE00498002807DBDDE903010D
:1039C000884203DD0098405C179901E01799302088
:1039D0005A46904704986D1C401C04900198401E64
:1039E000019004D12E205A46179990476D1CBAF1C8
:1039F0000001AAF1010ADEDC05E017F8010B5A46C6
:103A0000179990476D1CB8F10001A8F10108F4DC8A
:103A10005B462146179A0598A4E600002D00000099
:103A20002B000000200000002DE9F0410446002595
:103A30001E461746880405D406E039462020B047C4
:103A400005F10105641EF8D52846BDE8F0812DE991
:103A5000F041044600251E469046C80301D5302794
:103A600000E02027880405D506E041463846B047E7
:103A700005F10105641EF8D52846BDE8F0810A6805
:103A8000531C0B60107070470748FDF779FDFDF778
:103A9000CFF90648FDF772FA0548FDF709FA05481F
:103AA000FEF794FA00BFFEE79000002000380140C6
:103AB000B83A0008843B00080114000000040240EA
:103AC0000001000001140000000402400800000092
:103AD0000110000000000240008000000110000002
:103AE00000040240000200000148000000080240FB
:103AF000004000000110000000080240002000000B
:103B0000011000000004024001000000011000004C
:103B10000004024002000000011000000004024006
:103B2000400000000110000000040240800000007E
:103B3000011000000004024010000000011000000D
:103B400000040240200000000310000000040240B6
:103B50000080000003100000000002400010000080
:103B600003280000000002400100000003100000D4
:103B700000000240000800000000000000000000FB
:103B800000000000F91D000800000000C43B000810
:103B9000D0070000D11D000800000000C43B000851
:103BA000D00700000000000000000000000000003E
:103BB000000000000000000000000000FFFFFF0008
:103BC000FFFFFF005461736B30000000EC3B000806
:103BD0000000002078000000BC310008643C0008B0
:103BE0007800002058230000CC31000803040608A8
:103BF0000C10182030000000000102030401020331
:103C00000406070809FF0000000000000000000093
:103C100000000000000000000000000000000000A4
:103C20000000000000000000000000000000000094
:103C30000000000000000000000000000000000084
:103C40000000000000000000000000000000000074
:103C5000000000000000000000000000FF00FF0066
:043C60000000000060
:0400000508000125C9
:00000001FF
