:020000040800F2
:100000009033002045010008451A0008DD1600085D
:1000100081190008A50900086D39000800000000DA
:10002000000000000000000000000000E91E0008C1
:10003000550B000800000000D11A0008012200083A
:100040005F0100085F0100085F0100085F01000810
:100050005F0100085F010008451000085F0100080B
:100060005F0100085F0100085F0100085F010008F0
:100070005F0100085F0100085F0100085F010008E0
:100080005F0100085F0100085F0100085F010008D0
:100090005F0100085F0100085F01000861100008AF
:1000A0005F0100085F0100085F0100085F010008B0
:1000B0005F0100085F0100085F0100085F010008A0
:1000C0005F0100085F0100085F0100085F01000890
:1000D0005F010008B93200081933000879330008BD
:1000E0005F0100085F010008613900085F01000836
:1000F0005F0100085F0100085F0100085F01000860
:100100005F0100085F0100085F0100085F0100084F
:10011000F9310008593200085F0100085F0100084A
:100120005F0100085F0100085F0100085F0100082F
:10013000DFF80CD000F08CFB00480047614200085B
:10014000903300200648804706480047FEE7FEE758
:10015000FEE7FEE7FEE7FEE7FEE7FEE7FEE7FEE777
:100160006522000831010008D2B201E000F8012B3D
:10017000491EFBD270470022F6E710B513460A4627
:1001800004461946FFF7F0FF204610BD30B480EA60
:10019000010202F0004530F0004221F0004015D08D
:1001A000A0B1C0F3C753C2F3C754C2F31601C0F3E2
:1001B0001600E41A41F4000140F400027D3491423B
:1001C00001D3641C00E04900002C02DA30BC00209E
:1001D00070474FF400000023914201D3891A034372
:1001E00040084FEA4101F7D151B1914202D14FF09D
:1001F000004105E002D24FF0010101E06FF0010182
:1002000003EBC450284430BC00F060BA2DE9FE4F27
:10021000804681EA0300C00F0C46009021F00041A7
:1002200023F00045B8EB0200A94105D24046214623
:1002300090461C460B46024623F00040104304D172
:100240004046214603B0BDE8F08F270DC7F30A00F2
:10025000C3F30A510290401A0190402866DAC3F3B2
:10026000130040F4801B0098924620B10023D2EB8B
:10027000030A63EB0B0B01985946C0F1400250464C
:1002800000F0F3F906460D4650465946019A00F033
:100290000BFA10EB08006141002487EA115284EA4E
:1002A000E7731A433BD0009A3AB3019A012A4FEA06
:1002B000075210DC001B61EB02014FF0004202EA22
:1002C0000752CDE90042001C41F5801132462B4611
:1002D00000F03FFAB6E7001B61EB0201001C41F59C
:1002E000801300185B412018A2F5001747EB0301AB
:1002F00040EAD570B6196D4111E06D084FEA360637
:1003000045EAC0754FEA0752001B61EB0201001C71
:1003100041F5801149084FEA300000195141324639
:100320002B4603B0BDE8F04F00F006BA009801225A
:1003300040000023D0EB020263EBE07300982146FB
:100340004FEAE074B8EB000061EB0401E9E783F0E9
:1003500000435BE781F0004158E72DE9FE4F81EA59
:10036000030404F0004421F0004100944FF0000B1E
:1003700023F0004350EA010402D052EA030404D1FE
:100380000020014603B0BDE8F08FC3F30A54C1F367
:100390000A552C44A4F2F3340194A0FB0254C1F397
:1003A000130141F48011C3F3130343F4801301FBE1
:1003B000024400FB034E840A970A44EA815447EA48
:1003C0008357A4FB076802958D0A05FB07854FEA52
:1003D000932C04FB0C542705029D4FEA065847EA6C
:1003E0001637B5EB08056EEB070C870E920E47EA41
:1003F000811742EA8312A7FB0201B6EB0B0164EB03
:1004000000042B0D43EA0C335E1844EB1C50DA4613
:100410005146E7FB0201C5F313044FEA0B3343EAED
:1004200014534FEA0432019C43EA0603A4F10C047E
:100430000294009CCDE900B400F08BF9A2E72DE90D
:10044000F04D81EA030404F0004B21F0004514460E
:100450004FF0000A23F0004150EA050220D054EA90
:1004600001021DD0C5F30A570246C5F31303C1F3B9
:100470001300C1F30A5640F4801543F48013A7EB30
:100480000608101BD64608F2FD3873EB050002D3B0
:1004900008F1010801E092185B41B8F1000F03DA9E
:1004A00000200146BDE8F08D00204FF48011064683
:1004B00084460EE0171B73EB050705D3121B63EB95
:1004C000050306434CEA010C49084FEA3000921834
:1004D0005B4150EA0107EDD152EA030012D082EAF3
:1004E000040083EA0501084303D100224FF00043D2
:1004F00008E0101BAB4102D20122002302E06FF0A2
:10050000010253101AEB06004CEB085110EB0A00E5
:1005100041EB0B01BDE8F04D00F00EB9962300222F
:10052000114600F0DCB80EB540F2334102910021D3
:10053000CDE900110A460B4600F00BF903B000BDEF
:1005400070B5C1F30A5201F000450024C1F3130154
:1005500040F2FF3341F480119A4201DA002070BD6D
:1005600040F233439A42A2F2334203DC524200F09B
:100570008BF800E090402C43F1D0404270BD00F079
:10058000004230F000400AD0C10D01F56071C0F3A7
:10059000160042EA0151C20840071143704700208B
:1005A0000146704701F0004330B421F0004150EAA9
:1005B000010206D00A0DA2F56072C1F31301002AF0
:1005C00002DC30BC00207047440F44EAC104C10083
:1005D000E01830BC00EBC25000F078B830B50B46E4
:1005E000014600202022012409E021FA02F59D4263
:1005F00005D303FA02F5491B04FA02F52844151E37
:10060000A2F10102F1DC30BD2DE9F05F05460020CA
:1006100092469B4688460646814640241BE0284673
:1006200041464746224600F02FF853465A46C01A24
:10063000914110D311461846224600F016F82D1AA3
:1006400067EB01084F4622460120002100F00DF81B
:1006500017EB00094E41201EA4F10104DFDC4846DF
:1006600031462A464346BDE8F09F202A04DB203A63
:1006700000FA02F1002070479140C2F1200320FAF5
:1006800003F3194390407047202A04DB203A21FAF3
:1006900002F00021704721FA02F3D040C2F120029B
:1006A0009140084319467047202A06DBCB17203AB1
:1006B00041FA02F043EAE07306E041FA02F3D04067
:1006C000C2F1200291400843194670470029A8BF93
:1006D0007047401C490008BF20F00100704710B46B
:1006E000B0FA80FC00FA0CF050EA010404BF10BC20
:1006F000704749B1CCF1200421FA04F411FA0CF14D
:1007000018BF012121430843A3EB0C01CB1D0106B7
:10071000000A002BBEBF002010BC704700EBC35086
:1007200010440029A4BF10BC7047401C490008BFFA
:1007300020F0010010BC704710B5002B08DA401CF7
:1007400041F1000192185B411A4301D120F00100F0
:1007500010BD2DE9F04D92469B4611B1B1FA81F2E0
:1007600002E0B0FA80F220329046FFF77EFF0446A6
:100770000F4640EA0A0041EA0B0153465A46084335
:1007800003D120463946BDE8F08D114653EA0100F9
:1007900015D0C8F140025046FFF776FF05460E46D9
:1007A000504659464246FFF760FF084301D00120FA
:1007B00000E00020054346EAE0762C4337430A98E0
:1007C0004FEA4453A0EB08004FEAD4240A304FF01C
:1007D000000244EA47544FEAD72502D500200146DB
:1007E000D1E7010510196941DDE9084500196941A2
:1007F000BDE8F04DA0E7C1F30A52C1F3130140F286
:10080000FF3341F480119A4202DA0020014670471A
:1008100040F233439A42A2F2334202DC5242FFF7E3
:1008200033BFFFF722BF000030B5002904DB4FF0D3
:100830000044404264EB0101002B04DB4FF0004414
:10084000524264EB0303994208BF904230BD00005E
:10085000064C074D06E0E06840F0010394E807000D
:1008600098471034AC42F6D3FFF766FCC045000849
:10087000E045000882B02DE9FF1FEFF3038001B4CB
:10088000684600F1400000E901400C480168C1F8E9
:1008900000D00B48D0F800D001BC80F30388BDE83D
:1008A000FF1F01B000BD0648D0F800D001BC80F3A6
:1008B0000388BDE8FF1F01B000BD00003C00002020
:1008C0003800002070B50C210D4801F089FF044666
:1008D0000C4E30460588A5F57F40FF3807D100F063
:1008E0000DFF2146304600F001FF00F0FBFE0548F9
:1008F0000588A54201D0002070BD0120FCE7000062
:10090000E8F7FF1FCE42000806E04FF47A7100BFFF
:100910000A00A1F10101FBD10200A0F10100F4D114
:100920007047F0B5034600201C460D46104603E014
:1009300014F8016B05F8016B1600A2F10107BAB2B9
:10094000F6D1F0BD2DE9F04105460E461746144A92
:10095000118CD06900F08BFD114A918D906A00F0E6
:1009600086FD45F0800001F097FB002404E0305D37
:1009700001F092FB601CC4B2BC42F8DB084A118C47
:10098000D06900F074FD064A1189506800F080FDBE
:10099000034A918D906A00F07BFDBDE8F081000074
:1009A000D044000800BFFEE702E0002200F8012B5F
:1009B0000A00A1F1010399B2F7D170470FB42DE9F4
:1009C000F04186B0002501260027B00201F014F89E
:1009D000044654480078FF2801D1012000E000209F
:1009E00050490978504A1278914201D1012100E022
:1009F000002108437DD00DA805902046059A0C994A
:100A000002F0B6FF002005900DA8059069460C98ED
:100A100000F05AFD06462AE02846691CCDB21DF8B2
:100A20000000012804D0022806D003281AD115E0BE
:100A3000059880C8059019E00598C01D20F00700B2
:100A40000590D0E90021DDF814C00CF1080C104627
:100A5000CDF814C0FFF774FD074607E0059880C87D
:100A6000059003E0059880C8059000BF00BF3000E6
:100A7000A6F10106D0D1059880C805900020059008
:100A80002A480078FF2801D1012000E000202749F2
:100A90000978B94201DB012100E00021084338D088
:100AA000214623A001F050FB2248007810F0020FED
:100AB0000DD02149087800F0B3FA40B1204600F08B
:100AC000EBFD8046424621461C4802F039FF19489A
:100AD000007810F0040F0FD01749487800F0A0FA02
:100AE00050B1204600F0D8FD8046424621461448C9
:100AF00000E00EE002F024FF1248006848B12046F2
:100B000000F0CAFD00F0FF08414620460D4A126879
:100B10009047204600F044FF06B0BDE8F0015DF8C4
:100B200014FB000064000020480000206600002044
:100B30000D0A00006500002014000020003801406C
:100B40000044004068000020014908707047000020
:100B5000650000207047000010B500201A49087099
:100B60004FF4A07000F048FF18490860002406E028
:100B7000FF201749085517490855601CC4B2052CB9
:100B8000F6DB00241DE000201049096801EB441148
:100B9000486103200D49096801EB441108720020E7
:100BA0000A49096801EB441108610849096801EB29
:100BB0004411C8600549096801EB44118861601C53
:100BC000C4B20A2CDFDB10BD540000205800002006
:100BD000140000201900002038B5002454E02C48EF
:100BE000006800EB4410006800284BD028480068DB
:100BF00000EB4410C079012806D0022820D0032839
:100C000013D0042832D126E0032000902048006849
:100C100000EB4410C3691E48006800EB44102146F5
:100C200002681CA0FFF7CAFE2BE01948006800EB21
:100C300044100323214602681CA0FFF7BFFE20E0FA
:100C40001348006800EB441003232146026817A0F4
:100C5000FFF7B4FE15E00E48006800EB44100323D4
:100C60002146026811A0FFF7A9FE0AE008480068C3
:100C700000EB44100323214602680CA0FFF79EFE00
:100C800000BF00BF601CC4B20A2CA8DB38BD000046
:100C9000580000204465766963655B25645D4E619C
:100CA0006D653A25735B25645D00000044657669D7
:100CB00063655B25645D4E616D653A2573000000D8
:100CC0002C4909782C4A11702A490978491C294A6B
:100CD000117029490978294A1268274B1B7802EBC1
:100CE0004312117126A1254A1268234B1B7802EB8F
:100CF000431211600021214A12681F4B1B7802EB3E
:100D00004312517102221D4909681B4B1B7801EBEC
:100D10004311CA71012219490968174B1B7801EB6D
:100D200043110A721849154A1268134B1B7802EBDB
:100D300043125161114909680F4A127801EB4211BF
:100D4000C86100220D4909680B4B1B7801EB431168
:100D5000CA600021094A1268074B1B7802EB431254
:100D60001161002205490968034B1B7801EB43110F
:100D70008A6170475400002028000020580000209D
:100D80004750494F00000000D51300082DE9F041FD
:100D900007460D461646384602F072FC04465F4888
:100DA000005DFF2808D15E4800785C4908555C4822
:100DB0000078401C5A4908705AA05849095D5B4A9E
:100DC000126802EB4111086000205449095D574A3E
:100DD000126802EB4111487101205049095D534AE4
:100DE000126802EB4111C87103204C49095D4F4A5A
:100DF000126802EB411108724D484849095D4B4A9F
:100E0000126802EB411148614448005D4749096896
:100E100001EB4010C46147494048005D434A1268F5
:100E200002EB4010C16044483C49095D3F4A1268EA
:100E300002EB4111086100213848005D3B4A12680D
:100E400002EB4010816100203C4921F81400284643
:100E500000F0D2FD3A4941F82400384602F010FC77
:100E600004463848005DFF2808D12D4800783549F0
:100E700008552B480078401C2949087032A0314998
:100E8000095D2A4A126802EB4111086000202D49D1
:100E9000095D264A126802EB411148710121294877
:100EA000005D224A126802EB4010C17103202549FF
:100EB000095D1E4A126802EB411108721C49214863
:100EC000005D1A4A126802EB401041611D48005D46
:100ED0001649096801EB4010C46116481949095DBB
:100EE000124A126802EB4111C86013481549095DA6
:100EF0000E4A126802EB4111086100201149095D98
:100F00000A4A126802EB41118861304600F074FD14
:100F10000F4941F82400BDE8F081000019000020CD
:100F200054000020555341525278000058000020D0
:100F30002134000821390008293800089C000020CD
:100F400074000020140000205553415254780000D2
:100F50008800002010B504464FF4967211462046D2
:100F6000FFF714FF10BD000010B5032124A0FFF708
:100F700025FD002441E02948006800EB4410406949
:100F8000C8B32648006800EB4410C079012806D099
:100F9000022817D003280ED004282BD11EE01F4AA8
:100FA000126802EB4412107F1C4A126802EB4412D2
:100FB000516988471EE01949096801EB44114869E5
:100FC000804717E0154A126802EB4412D069134AB1
:100FD000126802EB4412516988470BE00F4A12680D
:100FE00002EB4412D0690D4A126802EB44125169B7
:100FF000884700BF00BF601CC4B20A2CBBDB10BD19
:10100000546F732044657669636520496E69742E58
:101010002E2E2E2E2E2E2E2E2E00000058000020BA
:101020000146FF2901D1002070470548006800EB08
:101030004110406908B90020F6E70120F4E70000FC
:101040005800002008B5012000F01AF86B46012274
:1010500000210248007801F06FFE08BD6C000020FE
:1010600008B54FF4007000F00BF86B460122002128
:101070000248007801F060FE08BD00006C0000200E
:101080000149086070470000140401400021234911
:101090008279002A3AD00A46126803689A430B46BE
:1010A0001A600A1D126803689A430B1D1A600279C0
:1010B00011440A6803681A430A60184A0832126821
:1010C00003689A43154B08331A601A1D12680368A7
:1010D0009A43124B0C331A604279102A0ED11A1F10
:1010E000126803681A430D4B08331A601A1D126800
:1010F00003681A43094B0C331A600DE00749427923
:1011000011440A6803681A430A6005E00279114431
:101110000A6803689A430A607047000000040140AF
:101120001FB504460120ADF8080028208DF80B00FB
:1011300002A9124800F0C4F80021084600F0A0F807
:101140000120009000208DF8040008208DF8050093
:101150008DF806406846FFF799FF4FF4E06000F015
:10116000ADFC06208DF80C0000208DF80E008DF8E7
:101170000F4003A800F068FC1FBD000000080140FC
:1011800004200B49C96811F0010F01D001200EE0C5
:101190000749C96811F0040F01D0022007E0044993
:1011A000C96811F0100F01D0032000E0042070473F
:1011B000002002400348006940F0800001490861B6
:1011C000704700000020024070B504460D4604261A
:1011D000F00200F025F80646042E11D109480069F6
:1011E00040F00100074908612580F00200F018F87E
:1011F00006460448006941F6FE710840014908614D
:10120000304670BD00200240024803494860034850
:10121000486070472301674500200240AB89EFCD4D
:1012200000B502460423FFF7ABFF034603E0FFF7D8
:10123000A7FF0346521E012B01D1002AF7D102B9A4
:101240000523184600BD70B504460025107820B16E
:1012500016782068B0FBF6F085B22068084420605C
:101260001078984203DA1078401C107002E0206871
:10127000401B206016782068B0FBF6F080B270BD8D
:1012800030B500228B071C0F0F2303FA04F20B4B1F
:101290008C1053F824309343084C8D1044F82530BB
:1012A00023468C1053F824308C07240F00FA04F4E2
:1012B0002343024C8D1044F8253030BD0800014016
:1012C0002DE9F041024600250026002000230024DD
:1012D000002791F803C00CF00F0591F803C01CF033
:1012E000100F03D091F802C04CEA050591F800C038
:1012F000BCF1000F31D0146800202BE04FF0010C3E
:101300000CFA00F3B1F800C00CEA03069E4220D1AB
:1013100083004FF00F0C0CFA03F7BC4305FA03FCF3
:101320004CEA040491F803C0BCF1280F06D14FF039
:10133000010C0CFA00FCC2F814C00AE091F803C0DA
:10134000BCF1480F05D14FF0010C0CFA00FCC2F8BB
:1013500010C0401C0828D1D31460B1F800C0BCF103
:10136000FF0F34DD546800202EE000F1080C4FF030
:10137000010808FA0CF3B1F800C00CEA03069E421B
:1013800021D183004FF00F0C0CFA03F7BC4305FA90
:1013900003FC4CEA040491F803C0BCF1280F05D10A
:1013A00000F1080C08FA0CF8C2F8148091F803C098
:1013B000BCF1480F07D100F1080C4FF0010808FA02
:1013C0000CF8C2F81080401C0828CED35460BDE849
:1013D000F081000038B50446002536E01D4A6068FB
:1013E000811A904217D009DC1B4940180DD0B0F586
:1013F000806F0CD0B0F5006F13D10AE0B1F5806FAB
:101400000BD0B1F5006F0CD109E0042509E00825E7
:1014100007E0102505E0202503E0402501E08025B8
:1014200000BF00BF45F00100012100F04FFC207813
:101430008DF802002089ADF8000060788DF8030077
:1014400069466068FFF73CFF0C3420780028C5D15E
:1014500038BD00000014014000F8FEBF0246002025
:1014600093680B4201D0012000E0002070474161E9
:1014700070471FB51C462CB1BDF80810019800F04C
:1014800007F804E0BDF808100198FFF7F0FF1FBD52
:10149000016170472DE9F04104460D460848006897
:1014A0000849097800EB4110C66904EB440006EBDB
:1014B00080072B4697E80700FFF7DBFFBDE8F081C8
:1014C0005800002028000020F0B504460A460023FA
:1014D00000200025214633E00E78252E02D101257B
:1014E000461CB0B2012D2AD10E78642E06D1AC462E
:1014F0001E465F1CBBB202F806C000250E78662EA1
:1015000007D14FF0020C1E465F1CBBB202F806C0AA
:1015100000250E78732E07D14FF0030C1E465F1C7A
:10152000BBB202F806C000250E78632E07D14FF03B
:10153000040C1E465F1CBBB202F806C00025491C05
:101540000E78002EC8D1F0BDFEB50546002619481C
:10155000006800901748001D006802901548083088
:101560000068019000241BE014E05DF824003E2197
:10157000B0FBF1F201FB1207384601F01BF93146CE
:10158000721CD6B268545DF824003E21B0FBF1F025
:101590004DF824005DF824000028E6D1601CC4B298
:1015A000032CE1DB00223046711CCEB22A543046B7
:1015B000FEBD0000E8F7FF1F2DE9FF470446207835
:1015C00028B9607818B9002004B0BDE8F08794F815
:1015D00000904FF6FF7000EA0929607848441FFA2E
:1015E00080F94846FEF79FFF0B4A0C4BCDE90001FE
:1015F000FEF7B3FE07460022094BFEF720FF054623
:10160000084A094BFEF7A3FECDE90201FEF7CAFF27
:1016100082465046D8E70000D7A3703D0AF76540E0
:101620000000F040CDCCCCCCCC6C47402DE9FF473E
:101630000446207828B9607818B9002004B0BDE8C5
:10164000F08794F800904FF6FF7000EA092960785F
:1016500048441FFA80F94846FEF765FF00220B4B0D
:10166000CDE90001FEF779FE07460022084BFEF7A0
:10167000E6FE05460022074BFEF769FECDE90201B2
:10168000FEF790FF82465046D8E7000000405F40DA
:101690000000F0400000184010B5014600200A4646
:1016A00001E0431C98B212F8014B002CF9D110BD97
:1016B000002000210CE001EB4102074B1B6803EB0B
:1016C00002121289012A01D0421CD0B24A1CD1B2A6
:1016D0001429F0DB704700004C00002001E000F00E
:1016E0003BF9FCE710B5FFF765FD10BD70B504468A
:1016F0000D4629462046FFF767FD70BD10B5FFF780
:1017000083FD10BD10B545F2555000F029F80620B4
:1017100000F01AF84FF47F6000F01CF800F00CF8AD
:1017200000F002F810BD00004CF6CC400149086002
:1017300070470000003000404AF6AA2001490860C6
:1017400070470000003000400149486070470000C9
:1017500000300040014988607047000000300040C0
:1017600001490860704700000030004010B50024B7
:10177000642000F084FC00F05BFC04F5C47000F011
:101780008DFB40F2091000F089FB44F6193000F09F
:1017900085FB40F2891000F081FB4FF4D26000F02D
:1017A0007DFB40F29D7000F079FB40F68A0000F06E
:1017B00075FB44F6845000F071FB40F68F1000F08A
:1017C0006DFB40F6092000F069FB40F63B3000F06D
:1017D00065FB40F6234000F061FB41F6745000F0D9
:1017E0005DFB41F6B76000F059FB41F6FF7000F079
:1017F00055FB4FF4005000F051FB42F2101000F086
:101800004DFB42F21A2000F049FB42F21A3000F080
:1018100045FB4FF4105000F041FB42F2086000F02D
:101820003DFB41F2F71000F039FB41F2FF2000F0E0
:1018300035FB44F27F0000F031FB44F2F01000F081
:101840002DFB4FF4C47000F029FB012000F0B8FA22
:101850000446062000F0B4FA0446072000F0B0FA6F
:101860000446082000F0ACFA0446092000F0A8FA6B
:1018700004460A2000F0A4FA04460B2000F0A0FA67
:1018800004460C2000F09CFA0446112000F098FA5F
:101890000446122000F094FA04461D2000F090FA4D
:1018A000044610BD70B506460C460025204600F0E3
:1018B0004FFB2146304600F0AAFB09E0012001F071
:1018C0006FF92846691C8DB2B0F5FA6F00DD07E0AC
:1018D000094AB2F85010D06CFFF7C0FD0028EDD0D7
:1018E00000BF00F077FB00F001FB092D01DD0120B6
:1018F00070BD0020FCE70000D044000870B505462C
:101900000C462146284600F06BFF06462046611C27
:101910008CB22E5432122046611C8CB22A542046BE
:1019200070BD2DE9F04105460C46A01E81B2284647
:1019300000F056FF0746601E2E5C4FF6FF7000EA6F
:101940000626A01E285C0643BE4202D10120BDE847
:10195000F0810020FBE7000071B600BF0648006878
:1019600000F4E06005490843001D03490860BFF327
:10197000408F00BF00BFFEE70CED00E00000FA055D
:1019800000BFFEE7054A1168486802E009684A6836
:1019900010440A68002AF9D1704700005C0000205A
:1019A00002460A4B1868002106E0A2F108038342B0
:1019B00000D107E0014600680368002BF5D101B1B2
:1019C0000B60704703680B6000BFFAE75C00002003
:1019D0000146A1F1080250680838704705490860BF
:1019E0000021044A126811600821024A12685160FD
:1019F000704700005C00002010B5034610480168E5
:101A000003F1080083B20FE00868401A4C68001B1D
:101A1000984208D3486842185360086810600A600A
:101A200002F1080010BD096808680028ECD1486878
:101A300042180020106053600A6002F10800F1E7CC
:101A40005C0000207047000070B5002100230F22C9
:101A5000C4780CB3164C246804F4E064C4F5E06464
:101A6000210AC1F10403CA40447804FA03F18478DE
:101A70001440214309010F4C0678A155047804F065
:101A80001F050124AC4005786D114FF0E02606EBF0
:101A90008505C5F8004109E0047804F01F0501241C
:101AA000AC40054D0678761145F8264070BD000023
:101AB0000CED00E000E400E080E100E002490143B9
:101AC000024A1160704700000000FA050CED00E0CA
:101AD0007047000010B5032209A10CA0FEF76EFFAD
:101AE00003220EA111A0FEF769FF0322134914A0DF
:101AF000FEF764FF0322174917A0FEF75FFF10BD32
:101B00004C4F52412043656E74657200426F6172A2
:101B1000645F4E616D653A257300000053544D3388
:101B20003246313033433854360000004350555F5D
:101B30004D6F64656C3A25730000000000127A0056
:101B40004370755F4F53435F465245513A202564B9
:101B50004D687A0000A24A044370755F4672657151
:101B60003A2025644D687A007047000000B585B0C2
:101B70006846FFF7E9FC0322694602A0FEF71EFF54
:101B800005B000BD4F6E6C7949443A2573000000E2
:101B90007047000010B5032108A0FEF70FFFFFF704
:101BA00099FFFFF7E1FFFFF7E1FFFFF715F800F0FE
:101BB00013F8FFF7EDFF00F02FF810BD0A546F7314
:101BC0002053797374656D2053746172742E2E2EB8
:101BD0002E2E2E2E2E2E2E0010B5FFF769FD044658
:101BE00003232246142102A0FEF7E8FE10BD0000E8
:101BF0005461736B506F6F6C53697A653A2564203A
:101C000062757420686173202564207461736B2091
:101C10006372656174652E0038B500241DE004EB25
:101C200044001549096801EB0010C06A98B103200F
:101C3000009004EB44001049096801EB0010038C8C
:101C400004EB44000C49096801EB00102146C26A0C
:101C50000AA0FEF7B3FE601CC4B2142CDFDB601ECA
:101C6000C4B2FFF78FFE054603232A4642F6E06121
:101C700007A0FEF7A3FE38BD4C0000205461736B33
:101C80005B25645D4E616D653A25732825642900E6
:101C90004D656D6F727953697A653A256420627576
:101CA0007420757365723A256400000029B1064AF4
:101CB000D2690243044BDA6104E0034AD2698243E9
:101CC000014BDA61704700000010024029B1064A5A
:101CD00092690243044B9A6104E0034A9269824389
:101CE000014B9A61704700000010024030B500219E
:101CF0000022002400232D4D6D6805F00C0121B158
:101D0000042905D0082923D105E0294D056022E0EA
:101D1000274D05601FE0254D6D6805F47012234DB9
:101D20006D6805F48034022505EB92421CB9214D03
:101D3000554305600BE01D4D6D6815F4003F03D061
:101D40001C4D5543056002E0194D5543056002E006
:101D5000174D056000BF00BF144D6D6805F0F00120
:101D60000909154D6B5C0568DD4045600F4D6D68D8
:101D700005F4E061090A104D6B5C4568DD40856043
:101D80000A4D6D6805F46051C90A0B4D6B5C4568DE
:101D9000DD40C560054D6D6805F44041890B074D78
:101DA0006B5CC568B5FBF3F5056130BD0010024002
:101DB00000127A0000093D00000000201000002001
:101DC00070B50446094A918D906AFFF750FB204692
:101DD00000F062F9002000F05FF90546034A918D9A
:101DE000906AFFF755FB284670BD0000D0440008FC
:101DF0002DE9F04107460D461646144A118CD0696C
:101E0000FFF735FB114A918D906AFFF730FB38469A
:101E100000F042F9002405E0002000F03DF92855CB
:101E2000601CC4B2B442F7DB084A118CD069FFF7DA
:101E30001EFB064A11895068FFF72AFB034A918D61
:101E4000906AFFF725FBBDE8F0810000D044000850
:101E500070B50446104A118CD069FFF708FB0E4A92
:101E6000918D906AFFF703FB204600F015F90020E2
:101E700000F012F90546084A118CD069FFF7F7FA0D
:101E8000054A11895068FFF703FB034A918D906A58
:101E9000FFF7FEFA284670BDD044000810B504468E
:101EA000104A118CD069FFF7E2FA0E4A918D906AC0
:101EB000FFF7DDFA44F40044201200F0EDF8E0B240
:101EC00000F0EAF8074A118CD069FFF7D0FA054A0A
:101ED00011895068FFF7DCFA024A918D906AFFF78A
:101EE000D7FA10BDD04400087047000010B540F28A
:101EF0008910FFF7D3FF022000F0C1F8032000F0A3
:101F0000BEF8124AB2F84410106CFFF7B0FA0F4A4C
:101F1000B2F84410106CFFF7BBFA41F2BF10FFF7A4
:101F2000BDFF4FF48040FFF7B9FF4FF48240FFF749
:101F3000B5FF4FF47060FFF7B1FF4FF45060FFF74B
:101F4000ADFF40F28D10FFF7A9FF10BDD04400088F
:101F500010B5044640F28910FFF7A0FF022000F000
:101F60008EF8032000F08BF8194AB2F84410106C78
:101F7000FFF78EFA164AB2F84410106CFFF777FAA2
:101F800041F2F710FFF78AFF4FF41050FFF786FF7A
:101F900004F50851481CFFF781FF4FF46060FFF71C
:101FA0007DFF4FF45060FFF779FF44F24000FFF7E8
:101FB00075FF4FF48240FFF771FF2046FFF748FF9F
:101FC00040F28B10FFF76AFF0A2000F058F810BDAE
:101FD000D044000810B541F2FF20FFF75FFF10BDAD
:101FE00070B504461020FFF733FF064606F5506033
:101FF000FFF754FF1320FFF72BFF05462A46214623
:102000000020FFF7F5FEFFF7E5FF284670BD70B52D
:1020100004460D460A2000F032F82A4621460020E8
:10202000FEF790FC40F20B10FFF738FF70BD000088
:1020300010B50C4A118F506BFFF72AFA032000F0FD
:102040001EF8084A118F506BFFF711FA032000F0B9
:1020500016F8044A118F506BFFF71AFA032000F0AC
:102060000EF810BDD044000800EB80014906080EB0
:1020700000BF0100A0F10102D0B2FAD170470021E7
:1020800006E0002201E0531CDAB2782AFBDB491C8F
:102090008142F6D37047000070B5044600252FE05A
:1020A00014F0800F05D0184A11895068FFF7F0F935
:1020B00004E0154A11895068FFF7D9F96006040E4B
:1020C0000120FFF7D1FF104A118CD069FFF7E0F92A
:1020D0000120FFF7C9FF0C4A918A1069FFF7BEF98A
:1020E00010B144F0010401E024F00104064A118C0F
:1020F000D069FFF7BCF90120FFF7B6FF681CC5B235
:10210000082DCDDB204670BDD044000810B50D4829
:10211000FFF760F90B4A918D906AFFF7B9F9094A08
:10212000118F506BFFF7B4F9064AB2F84410106CE7
:10213000FFF7AEF9034AB2F85010D06CFFF7A8F9D8
:1021400010BD0000D04400082DE9F04106460D46C0
:102150002C4637462846FFF79FFA04443046FFF7DF
:102160009BFA804618F1010001D1BDE8F08103E03F
:1021700017F8010B04F8010B5FEA0800A8F1010849
:10218000F6D104F8010B00BFEFE72DE9FC4305464B
:102190000E461446A8463746A446002110E003F038
:1021A0000F000DF801001DF8010000B90AE01DF84C
:1021B0000100401EC0B20DF801001B09481CC1B24D
:1021C0000829ECD300BF9CFBF1F000F0FF0C0DE000
:1021D000002208E0881A401E1DF8000018F80000D0
:1021E000B854501CC2B28A42F4DB0F445FEA0C00C0
:1021F000ACF1010909F0FF0CEAD12046BDE8FC83EF
:1022000010B500F0DFFB10BD30B51249B1F1807F91
:1022100000D31DE021F07F40401E4FF0E0225061CE
:1022200050170F22002807DA13071D0E0A4B00F083
:102230000F04241F1D5503E013071C0E074B1C54ED
:1022400000BF00204FF0E02290610720106100BF26
:1022500030BD00004019010018ED00E000E400E08E
:102260007047000010B51348006840F001001149A4
:10227000086008464068104908400E494860084612
:1022800000680E4908400B4908600846006820F4C1
:10229000802008600846406820F4FE0048604FF443
:1022A0001F008860FFF7DCFF4FF000600449086002
:1022B00010BD0000001002400000FFF8FFFFF6FE16
:1022C00008ED00E00420FEF73FFC0620FEF73CFC92
:1022D000FFF760FC07E04FF47A7000F061FC012129
:1022E0000020FFF7D7F8F6E7002400BF2DE000201C
:1022F000C4EBC401414A12685054C4EBC4013F4AC4
:102300001268114448700021C4EBC4003B4A1268B3
:102310001044C170C4EBC400384A12681044017103
:10232000C4EBC400354A126810444171C4EBC400C8
:10233000324A1268104481710020C4EBC4012F4A54
:10234000126811448870601CC4B2642CCFDB53E067
:1023500041F2707000F024FC00244BE0C4EBC40098
:102360002649096808448078F0B3C4EBC4002349C7
:10237000096808448178C4EBC400204A12681044FC
:102380008078401CC4EBC4021C4B1B681A4490703C
:10239000C8292DDD0020C4EBC401184A126850542E
:1023A000C4EBC401154A126811444870C4EBC4015F
:1023B000124A12681144C8700021C4EBC4000F4ACD
:1023C000126810440171C4EBC4000C4A1268104436
:1023D0004171C4EBC400094A1268104481710120A4
:1023E000C4EBC401054A00E002E0126811448870A1
:1023F000601CC4B2322CB1DBAAE7000070000020E0
:10240000E8B04FF005090024A14609E006A84844B9
:1024100054A901EBC901486009F1010000F0FF096E
:10242000B9F10A0FF2DB0A2154A800F089FB5D48DC
:1024300000785D4908704FF42F70FFF7DDFA5B49B3
:102440000860FFF763FEFFF791F905E04220FFF710
:10245000B7FC122800D106E05FEA0900A9F10101EA
:1024600001F0FF09F2D100BFFFF740FD0120FEF7A8
:1024700057FE01210020FFF70DF891E0012000F048
:102480008FFB00F023FC8346BBF1000FF5D009A8B9
:10249000FFF7A6FD82469DF824000028EDDD9DF89B
:1024A000240033287CDAAAF1010081B209A8FFF7E1
:1024B00038FA002874D09DF82400401E84B2642CA1
:1024C0006EDA01F0EBFEC4EBC401384A12685054D6
:1024D0009DF82500C4EBC401344A126811444870C9
:1024E0009DF82600C4EBC401304A12681144C8703C
:1024F0009DF82710C4EBC4002C4A126810440171E7
:102500009DF82810C4EBC400284A12681044417199
:102510009DF82910C4EBC400244A1268104481714C
:102520000120C4EBC401214A1268114488700020C4
:10253000FEF7F6FD3C208DF82500022109A8FFF7E3
:10254000B1F90A2000F02CFB0120FEF7E9FD002183
:102550000846FEF79FFF0AA8FFF72EF80590FEF742
:102560000EF805460E460DF12600FFF75FF80590C0
:10257000FEF705F807460520CDE90071CDE90256C2
:102580000490C4EBC400DFF824C0DCF800C01CF8E1
:1025900000309DF825209DF8241005A0FEF70EFAC6
:1025A0006CE70000480000206C0000207000002054
:1025B000616464723D25642C6261743D25642C72F3
:1025C0006973733D25642C6875693D252E31662C31
:1025D00074656D703D252E3166000000C6B0FB218C
:1025E00007A8FDF7C8FD6C48006806906BA103C9F9
:1025F000CDE90401CEE0012000F0D2FA6949486833
:102600003221FEF7D1F9002332221946664801F043
:102610002BF9C6B2002EEDD0624948683146FFF76B
:1026200080F90028E6D05F4840684078032802D04F
:1026300004287DD19AE05B4840680078002878DD66
:10264000584840680078332873DA00210846FEF7BE
:1026500021FF544840680078401EC5B2514949687E
:10266000881C2123022202A9FFF78FFD4D494968EA
:10267000081D2123022203A9FFF787FD00244948F2
:10268000406802782146641C06A8425445484068C8
:1026900042782146641C06A842549DF80C0040066E
:1026A000020E2146641C06A84254C5EBC5013F4AF0
:1026B0001268505CFDF732FF019006A8011944F240
:1026C0002133042201A8FFF760FD2044C4B2C5EB0A
:1026D000C501364A126811444878FDF71FFF0746C6
:1026E0003349FDF753FD019006A8011944F2213347
:1026F000042201A8FFF749FD2044C4B2C5EBC5017F
:102700002A4A12681144481DFEF756FF019006A898
:10271000011944F22133042201A8FFF736FD2044B9
:10272000C4B2C5EBC501214A12681144C81C01E0BE
:102730002FE01AE0FEF77AFF019006A8011944F293
:102740002133042201A8FFF720FD2044C4B2214612
:1027500006A8FFF7D3F8C4B2224606A9124801F032
:10276000EFF801210020FEF795FE12E00D484068C9
:10277000C0788DF813000020FEF7D2FC052104A8D4
:10278000FFF790F80A2000F00BFA0120FEF7C8FCD2
:1027900000BF00BF2FE7000098450008FFAABB005C
:1027A000FF00000074000020004400407000002082
:1027B000000020410146002905DB092903DC01F165
:1027C0003000C0B270470A2905DB232903DC01F180
:1027D0003700C0B2F6E701F13D00C0B2F2E70000F9
:1027E000F0B502460C46FF21FF2500260BE012F84B
:1027F000017B87EA0503084FFF5C87EA0105074F65
:10280000F95C771CBEB2A642F1DB08464FF6FF77B3
:1028100007EA00202843F0BDD0420008D04300085A
:1028200010B510480078132804D00F480078401CD9
:102830000D4908700D480078401C0C490870084686
:10284000007864280DDD002008701423084A06482B
:1028500001780848FEF7F7FC074908700020024994
:10286000087010BD48000020340000202C0000201B
:102870002D000020300000204000002010B54FF453
:102880007070FFF7B9F81E49086002201D494870B2
:1028900000204860002428E0012004EB4401184A8D
:1028A000126802EB01110881002004EB4401144A74
:1028B000126802EB01118861002104EB4400104A08
:1028C000126802EB00100160002004EB44010C4A86
:1028D000126802EB0111C86104EB4401084A126856
:1028E00002EB01110884601CC4B2142CD4DB132049
:1028F000054908700020054908600549086010BDB9
:102900004C00002040000020480000205000002023
:102910006000002070B50446FFF7B0FF04E094E8C3
:102920000F0000F0DBF8103420680028F7D100F029
:1029300031F870BD10B50446FEF716FBFEF7E2FE57
:10294000FDF7C0FF00B910BD06E0FEF7F5FE6420FC
:1029500000F026F900F002F8F7E7000010B50C4887
:10296000046804B910BD0EE02468A07A10F0010FCD
:1029700009D0A07A10F0020F05D0E0688047A07A55
:1029800020F00200A07220680028EDD100BFE9E726
:102990006000002008B5FFF737FC4FF4FA6005A38C
:1029A000002207490090132000F030F8132000F0B7
:1029B000E1FA08BD5461736B526F6F740000000040
:1029C0003529000810B5FFF72BFF00F0F7F908488C
:1029D0004078402805D1032106A0FDF7EFFFFEF760
:1029E000BBFF0948006808B100F0BEFB10BD000045
:1029F00040000020544F532054696D654F7574207A
:102A00005265736574000000600000202DE9F047F6
:102A100004460D4691461F46DDF820800DB9BDE8FD
:102A2000F08704EB44002C49096801EB0010008991
:102A3000012800D0F3E704EB44002749096801EBC3
:102A40000010008C98B91FFA88F0FEF7D5FF0646F3
:102A500004EB4401204A126802EB0111A1F8208026
:102A600004EB44011C4A126802EB0111CE6104EB35
:102A70004402194B1B6803EB0212118C04EB440255
:102A8000154B1B6803EB0212D06900F039FB82463C
:102A9000022104EB4400104A126802EB001001818D
:102AA00004EB44000C49096801EB0010456004EB9D
:102AB00044000949096801EB0010C7624A462946EB
:102AC000504600F01FFA04EB4401034A126802EB7F
:102AD0000111086000BFA2E74C0000202DE9F84377
:102AE00005460E461746984600241AE004EB4400BB
:102AF0001249096801EB0010008900B912E004EBEB
:102B000044000E49096801EB00100089012800D13A
:102B100008E0601C80B20446142802DB0020BDE8F7
:102B2000F883E3E700BFE0B23B4632462946CDF8E2
:102B30000080FFF76BFF0120F1E700004C00002050
:102B400010B5154A127802EB4202144B1B6803EBD6
:102B500002129062104A127802EB42020F4B1B687D
:102B600003EB021282F8231000220B4B1B7803EBBD
:102B700043030A4C246804EB031383F82420002346
:102B8000054A127802EB4202044C246804EB02125C
:102B900082F8253010BD0000480000204C000020C5
:102BA00010B504461348407801281FD00020124970
:102BB000097801EB4101114A126802EB01118861A9
:102BC0000D48007800EB40000C49096801EB00104B
:102BD000446110210848007800EB4000074A126861
:102BE00002EB0010018100F03BFA02E02046FDF705
:102BF0008BFE10BD40000020480000204C0000204B
:102C000001460D48006800EB4110007A08B9002029
:102C100070470948006800EB41104079074A127874
:102C2000904201D00020F3E70120034A126802EB32
:102C30004112107200BFEBE758000020480000204E
:102C400070B504460D4600BF1E48006800EB4410F6
:102C5000007A30B1012815D0022804D003282FD1E2
:102C60001FE0002070BD1748006800EB4410407959
:102C700015490978884201D10120F3E7204600F088
:102C80009DFAE1E702200F49096801EB441108723F
:102C90000D4800780B49096801EB44114871012087
:102CA000E0E702200749096801EB44110872064871
:102CB00000780449096801EB441148710120D1E70B
:102CC0000020CFE7580000204800002070B51848C9
:102CD000007800EB40001749096801EB0014A06A76
:102CE00008B9002070BD94F8250018B91048007884
:102CF00000F052F994F8250008B90020F2E704F139
:102D00002304D4F80500617800EBC105607800F178
:102D10000100217890FBF1F201FB12006070A078B5
:102D2000A0F10100A070A4F123042846DAE7000016
:102D3000480000204C0000202DE9F0470646884658
:102D400091469A46142E01DBBDE8F08706EB46005B
:102D50001949096801EB0014A06A00B9F4E794F876
:102D6000250094F82310884220DA04F123046078C7
:102D7000A1780844217890FBF1F201FB1200C7B260
:102D800014F82309B84200DCDEE7A06A00EBC705AF
:102D900085F800804A4650466968FDF7C2FD85F80F
:102DA000019094F82500401C84F82500304600F07E
:102DB00065F800BFC8E700004C000020002056E086
:102DC00000EB40012B4A126802EB0111098902292C
:102DD00002D0102947D11DE000EB4001254A1268BE
:102DE00002EB01118969491C00EB4002214B1B6871
:102DF00003EB0212916100EB40011E4A126802EBE4
:102E00000111896944F62062914202D940211A4A8F
:102E1000517029E0002100EB4002164B1B6803EBC8
:102E20000212916100EB4001124A126802EB01119B
:102E3000496941B9022100EB40020E4B1B6803EBCC
:102E4000021211810EE000EB40010A4A126802EB07
:102E500001114969491E00EB4002064B1B6803EB58
:102E60000212516100E000BF00BF411CC8B214282B
:102E7000A6DB70474C00002040000020142800DB37
:102E8000704700EB4001094A126802EB0111098901
:102E9000012900D1F4E7102100EB4002034B1B682D
:102EA00003EB0212118100BFEAE700004C00002092
:102EB00010B504460F480078A04200D110BD0D485F
:102EC000007800EB40000C49096801EB00100B4949
:102ED000086008480470007800EB40000649096863
:102EE00001EB0010006806490860FDF7C3FC00BF55
:102EF000E4E70000480000204C0000203C000020D7
:102F00003800002030B503461846041F20462160D3
:102F1000041F204623600025041F20462560041F4F
:102F200020462560041F20462560041F204625609A
:102F3000041F20462560041F20462560041F2046EC
:102F40002560041F20462560041F20462560041FBD
:102F500020462560041F20462560041F204625606A
:102F6000041F204622604FF08075041F2046256014
:102F700030BD000010B5044604EB44000449096864
:102F800001EB0010006803490860FDF78CFC10BDE0
:102F90004C0000203800002010B50446142C00DB43
:102FA00010BD04EB44000E49096801EB00100089D4
:102FB000012800D1F4E7042004EB4401084A126818
:102FC00002EB01110881002104EB4400044A12685D
:102FD00002EB0010416100F043F800BFE0E70000A1
:102FE0004C00002010B50446142C01DB002010BD5D
:102FF00004EB44001949096801EB0010008901281D
:1030000001D10020F3E704EB44001449096801EB07
:1030100000100089042801D10020E8E704EB4400F7
:103020000E49096801EB00100089082801D1002031
:10303000DDE7082004EB4401084A126802EB0111A5
:103040000881002004EB4401044A126802EB0111DC
:10305000486100F005F80120C9E700004C0000209D
:1030600010B5022123480068A0F8981300243DE021
:1030700004EB44001F49096801EB00100089022895
:1030800002D020282ED107E01B480078A04202D0B1
:103090002046FFF70DFF10BD04EB440015490968F9
:1030A00001EB001090F822001449096801EB401070
:1030B000007A012815D1102004EB44010D4A126852
:1030C00002EB01110881032004EB4401094A126854
:1030D00002EB011191F82210084A126802EB41112B
:1030E000087200E000BF00BF601CC4B2142CBFDB3C
:1030F00000BFD0E74C00002048000020580000200E
:103100000246501820F00303A3F1300020F007001E
:103110007047000010B5142800DB10BD00EB400222
:10312000104B1B6803EB02121289042A00D1F4E74A
:10313000002200EB40030B4C246804EB03139A615C
:10314000102300EB4002074C246804EB02121381A9
:1031500000EB4002034B1B6803EB0212516100BFFE
:10316000DBE700004C00002010B51348006800B9F0
:1031700010BD11480068E0B10F480068807A10F077
:10318000010F16D00C48006800890B49096889882E
:10319000884207DB08490968C8688047002006495B
:1031A00009680881044800680089401C02490968D0
:1031B000088100BFDCE700006000002010B5044675
:1031C0000B48007800EB40000A49096801EB001049
:1031D00080F8224020200649097801EB4101054A88
:1031E000126802EB01110881FFF73AFF10BD0000E1
:1031F000480000204C00002010B540F22551114835
:1032000000F013FAC0B10F48001D0088C4B20E4888
:10321000C0880E49C988884213DA0B48C188C08823
:10322000401C094AD0800A48C06844540949C878FB
:103230000A21FFF76FFF04E040F22551014800F03A
:10324000D4F810BD004C0040A60000209C000020D7
:10325000740000202300002010B540F225511148D1
:1032600000F0E3F9B8B10F488088C4B20E48008975
:103270000E490989884213DA0B4801890089401CEC
:10328000094A10810A48006944540A4908790A2108
:10329000FFF740FF04E040F22551024800F0A5F896
:1032A00010BD000000500040A60000209C0000203F
:1032B000740000202300002010B540F22551114871
:1032C00000F0B3F9C0B10F48001D0088C4B20E4829
:1032D00000880E490988884213DA0B480188008863
:1032E000401C094A10800A4800684454094908787B
:1032F0000A21FFF70FFF04E040F22551014800F0DA
:1033000074F810BD00380140A60000209C00002089
:10331000740000202300002010B540F22551114810
:1033200000F083F9C0B10F48001D0088C4B20E48F8
:1033300040880E494988884213DA0B484188408802
:10334000401C094A50800A4840684454094948785A
:103350000A21FFF7DFFE04E040F22551014800F0AA
:1033600044F810BD00440040A60000209C0000204E
:10337000740000202300002010B540F225511148B0
:1033800000F053F9C0B10F48001D0088C4B20E48C8
:1033900080880E498988884213DA0B4881888088A2
:1033A000401C094A90800A4880684454094988783A
:1033B0000A21FFF7AFFE04E040F22551014800F07A
:1033C00014F810BD00480040A60000209C0000201A
:1033D000740000202300002001F40072B2F5007F89
:1033E00000D100BFCA430280704710B500220023FD
:1033F000A1F510646A3C00D100BF0A120124944078
:10340000A3B2DC43048010BD21B1828942F4005292
:10341000828104E082894DF6FF731A4082817047F1
:1034200070B50446204600F04FF9054600F06EF8EE
:10343000052C27D2DFE804F0030A11181F0025220B
:103440004FF4E131104800F029F81BE026224FF438
:1034500016510E4800F022F814E027224FF41651BE
:103460000B4800F01BF80DE034224FF4E13109481D
:1034700000F014F806E035224FF4E131064800F080
:103480000DF800BF00BF70BD00380140004400408F
:1034900000480040004C00400050004070B586B02D
:1034A00006460C46154601940020ADF80800ADF81C
:1034B0000A00ADF80C00ADF810000C20ADF80E00BD
:1034C00001A9304600F044F9012240F2255130466E
:1034D00000F018F901213046FFF796FF40213046F1
:1034E000FFF77AFF4FF48060FEF7E8FA8DF814508A
:1034F00002208DF8150001208DF816008DF81700B8
:1035000005A8FEF7A1FA06B070BD000038B5044664
:10351000274884420BD10D202315264A51150090CF
:10352000104600F057F801218803FEF7CFFB224830
:1035300084420BD1042008231E4A01460090104605
:1035400000F048F801214804FEF7B0FB1B48844214
:103550000FD10920E3141A4A11150090104600F00B
:1035600039F801218804FEF7A1FB01218804FEF748
:10357000ADFB144884420BD11120E314124A1115FB
:103580000090104600F026F80121C804FEF78EFBDB
:103590000E4884420BD1312004230D4A911400902F
:1035A000094800F017F801210805FEF77FFB38BD38
:1035B000003801400008014000440040004800403D
:1035C000000C0140004C0040001001400050004041
:1035D000001401402DE9F84307460D4616461C46E7
:1035E000DDF8208001214046FEF770FBADF8005069
:1035F00003208DF8020018208DF803006946384634
:10360000FDF75EFEADF8004004208DF8030069462A
:103610003046FDF755FE29463846FDF739FF21466D
:103620003046FDF735FFBDE8F88370B5024600244B
:10363000002300250020A1F510666A3E00D100BFDE
:10364000C1F3421501F01F03012606FA03F3012D11
:1036500002D19689334006E0022D02D1168A33400A
:1036600001E0968A33400C12012606FA04F416880B
:10367000344013B10CB1012000E0002070BD000007
:1036800001460F4A881A914213D006DC0D480818EB
:103690000BD0B0F5806F10D109E0B0F5806F0AD083
:1036A000B0F56C4F09D1002070470120FCE70220E3
:1036B000FAE70320F8E70420F6E70020F4E700002B
:1036C000004C004000BCFFBF014605290ED2DFE8D8
:1036D00001F0030507090B00054870470548FCE7A2
:1036E0000548FAE70548F8E70548F6E70020F4E75B
:1036F000003801400044004000480040004C0040B9
:1037000000500040F0B503460024002600250020AC
:10371000A1F510676A3F00D100BF1846C1F34214FB
:1037200001F01F06012707FA06F5012C01D10C3024
:1037300004E0022C01D1103000E014301AB1076807
:103740002F43076002E00768AF430760F0BD000049
:103750002DE9F04786B005460E460024A24600BF7C
:10376000A1460027B08900B100BF2F462C8A4CF635
:10377000FF700440F08804432C82AC894EF6F310AD
:103780000440B08831890843718908430443AC81FF
:10379000AC8A4FF6FF400440B0890443AC8201A8D4
:1037A000FEF7A4FA1F48874202D1DDF810A001E01D
:1037B000DDF80CA0A88910F4004F08D00AEBCA006D
:1037C00000EB0A1031684900B0FBF1F807E00AEBA2
:1037D000CA0000EB0A1031688900B0FBF1F86420E0
:1037E000B8FBF0F004012009642101FB1089A889CD
:1037F00010F4004F08D0322000EBC900B0FBF1F00C
:1038000000F00700044308E0322000EB09106421B7
:10381000B0FBF1F000F00F0004432C8106B0BDE8CE
:10382000F0870000003801402DE9F05F05460E46A4
:1038300014462F46B046A1463846FFF721FF824680
:10384000084951F82A00FEF7C3F81FFA80FB00234D
:103850005A464146384600F007F8A9F80000BDE88E
:10386000F09F0000740000202DE9F04781460F46CC
:1038700015461E464846FFF703FF04462249085DE9
:103880000021FFF7DDF98246204951F82400FEF7B8
:103890009FF88046BAF1000F27D0012240F225514F
:1038A0004846FFF72FFF1A4800781A490855454542
:1038B00001D31FFA88F5184820F814500020174942
:1038C00021F814001EB13046FFF76AF903E01149F0
:1038D000085DFFF787FB0C49085DFFF791F90022AF
:1038E00040F225514846FFF70DFF47B10B4931F82B
:1038F0001420064951F824003946FDF712F807480C
:1039000030F81400BDE8F087190000207400002092
:1039100048000020230000209C000020A60000207A
:103920002DE9F04304460D4616462746A846B6F84C
:1039300000904A464146384600F002F8BDE8F08360
:1039400010B50B46002108E000BF048814F0800F7A
:10395000FBD05C5C84804C1CA1B29142F4DB10BDB6
:1039600010B54FF48020FDF78BFB10BD00BFFEE7C4
:1039700037B514460846064B6A46214600F0C8F89B
:1039800004466946002000F066FC20463EBD00006B
:103990005742000802E008C8121F08C1002AFAD1E5
:1039A00070477047002001E001C1121F002AFBD1BF
:1039B000704700002DE9FF5FDDE90220010DDDF811
:1039C00038B0024310D10F9801244CA2012808D02E
:1039D000002100980F9BC0E90021C0E90243BDE827
:1039E000FF9F6FEA0B01F4E7A1F2FF3144F610509C
:1039F00041430D140F9801280ED0A5EB0B00401C7D
:103A00004FF000043E4EDFF8FC90B0F1000AA046F3
:103A100005DACAF1000717E0CBF10000F0E707462E
:103A200012E0F80707D02246334640464946FCF7E5
:103A300094FC804689462246334610461946FCF7D8
:103A40008CFC04460E467F10002FEAD1DDE902010E
:103A5000BAF1000F42464B4602DAFCF77EFC01E069
:103A6000FCF7EDFC04460E460022274BFCF7DCFE7B
:103A700003D84FF0FF30014607E00022234B2046D9
:103A80003146FCF7C3FBFCF7B6FE102409E0002C1E
:103A90000ADB0A220023FCF7B7FD019B30321A55DE
:103AA000641E50EA0102F2D1641C019AC4F11103B0
:103AB00014440F9A012A09D00122084301D15B4521
:103AC0000FDD4FF0000205F101050DE0084303D1C1
:103AD000A3EB0B056D1E09E000204FF0110B0F90BA
:103AE00088E701DA00226D1E002A83D000980F9922
:103AF000C0E90231C0E9004571E700003000000074
:103B0000000024400000F03F0000F0430000E03FD0
:103B10002DE9FF4F95B09B4689460646002512E2E7
:103B2000252878D10024761CF94A274601210594DE
:103B30003378203B01FA03F0104202D00443761C94
:103B4000F6E730782A2811D06FF02F033078A0F1F3
:103B50003002092A16D8059A44F0020402EB8202C8
:103B600003EB42021044761C0590EFE759F8042B52
:103B70000592002A03DA504244F40054059044F0C0
:103B80000204761C30782E2816D116F8010F44F066
:103B900004042A280DD06FF02F023078A0F13003F2
:103BA000092B09D807EB870302EB4303C718761CE0
:103BB000F3E759F8047B761C30786C280FD006DCCC
:103BC0004C2817D068280DD06A2814D104E0742836
:103BD00010D07A280FD10DE044F400140AE044F428
:103BE000801401E044F440147278824202D1761CC1
:103BF00004F58014761C307866280BD013DC582826
:103C000077D009DC002875D04528F6D04628F4D0B6
:103C100047281AD19FE118E0632835D0642879D06D
:103C2000652812D197E1702873D008DC6728F1D09D
:103C300069286FD06E280DD06F2806D1B5E07328A3
:103C40002CD0752875D0782874D05A46179990478B
:103C50006D1C76E1C4F30250022809D003280DD070
:103C6000D9F8001004280DD00D6009F1040968E1AD
:103C7000D9F80010EA17C1E90052F6E7D9F80010A8
:103C80000D80F2E70D70F0E719F8041B8DF80010B5
:103C900000208DF80100EA46012003E059F804AB4A
:103CA0004FF0FF3061074FF0000102D40DE008F142
:103CB00001018846B9420FDA8045F8DB1AF808108E
:103CC0000029F4D108E008F1010188468142FADBBD
:103CD0001AF808100029F6D105985B46A0EB0807F2
:103CE00021463846179A00F09EFA284400EB080552
:103CF00007E04DE02BE10DE01AF8010B5A46179949
:103D00009047B8F10108F7D25B4621463846179A2A
:103D100014E142E00A220092C4F302524FF0000A7A
:103D2000022A08D059F804CB032A4FEAEC710AD0D2
:103D30000DE029E02AE009F1070121F00702F2E88D
:103D400002C1914609E00FFA8CFC4FEAEC71042A9B
:103D500003D14FFA8CFC4FEAEC71002907DA0A46CE
:103D60000021DCF1000C61EB02012D2202E02205B2
:103D700004D52B228DF80420012203E0E20701D0B4
:103D80002022F7E7904653E00A2102E010220DE0DE
:103D900010214FF0000A00910BE010224FF0000AB2
:103DA00044F004040827009203E008224FF0000AC0
:103DB0000092C4F30252022A05D059F804CB002124
:103DC000032A08D009E009F1070121F00702F2E80F
:103DD00002C1914605E01FFA8CFC042A01D10CF0C7
:103DE000FF0C4FF00008220722D5702827D0009B37
:103DF00083F0100353EA0A0309D15CEA010206D0FA
:103E000030228DF804208DF8050002229046009B98
:103E100083F0080353EA0A030AD15CEA010201D1E4
:103E2000620705D530228DF804204FF001087F1E6F
:103E3000582809D037A003900EA8029013E0402222
:103E40008DF804200122E1E737A0F4E753466046ED
:103E5000009AFCF7D9FB84460398825C0298A0F193
:103E60000100029002705CEA0100EFD1029806A9FD
:103E7000A1EB000000F1200A600702D524F4803491
:103E800000E00127574502DDA7EB0A0000E0002013
:103E900000EB0A01009005984144A0EB0100059059
:103EA000E00306D45B462146179A059800F0BBF95B
:103EB0000544002706E001A85A46C05D17999047BF
:103EC0006D1C7F1C4745F6DBE0030CD55B462146A5
:103ED000179A059800F0A7F9054404E030205A46E7
:103EE000179990476D1C0099481E00900029F5DC39
:103EF00008E0029802995A460078491C02911799E5
:103F000090476D1CBAF10001AAF1010AF1DC6BE1E6
:103F1000092801003031323334353637383961629F
:103F20006364656600000000303132333435363763
:103F300038394142434445460000000000F060F932
:103F4000054406F10106307800287FF4E9AD19B088
:103F50002846BDE8F08F620700D4062709F1070262
:103F600022F0070CFCE80223E14603F000485FEA78
:103F7000080C02D00FF27C2C0DE05FEA045C02D545
:103F80000FF2742C07E05FEAC47C02D00FF26C2CB5
:103F900001E0AFF2700C4FF0FF3823F00043CDF892
:103FA00050C065280CD006DC452809D046281DD015
:103FB00047283ED13EE0662818D0672839D139E03D
:103FC0000021112F01DB112000E0781CCDE9000158
:103FD00006A90EA8FFF7EEFCDDE90F010E9A03918A
:103FE0000021009207F1010A04914EE04FF00040D9
:103FF0000097CDE9011006A90EA8FFF7DBFCDDE96B
:104000000F0203920E9B11990022DDF80CA0009381
:10401000049219B907F1010100EB010AB7EB0A009C
:1040200004D4C0F1FF3007F1010A0490AAEB0700A5
:10403000019046E0012F00DA01270021112F01DD58
:10404000112000E03846CDE9000106A90EA8FFF7CF
:10405000B1FCDDE90F010E9A039100210491009259
:10406000BA4621070CD40399514500DA8A46BAF1C1
:10407000010F05DD009AAAF10101515C302908D039
:10408000B84202DA10F1040F06DA0121CDE901107D
:1040900017E0AAF10101E9E7002805DC04990144D1
:1040A0000491AAEB000102E0411C514500DD8A4663
:1040B0000499A0EB010000F1010001904FF00040D5
:1040C0000290200704D40198504501DBCDF804800C
:1040D00000208DF84F0002980DF14F07B0F1004F0E
:1040E00025D02B200E9002984FF0020800280CDA01
:1040F000404202902D200E9007E00A210298FCF722
:104100006DFA3031029007F8011DB8F10001A8F1F5
:104110000108F2DC02980028EFD1791E0E98087091
:10412000307800F0200040F0450007F8020D12A89A
:10413000A0EB070000F107081498007800B10120F7
:1041400000EB0A01019801EBE07105984144A0EBF6
:104150000100A0F101000590E00306D45B46214672
:10416000179A059800F05FF805441498007820B17C
:104170005A461799904705F10105E00323D55B46A0
:104180002146179A059800F04EF805441BE0049864
:10419000002807DBDDE90301884203DD0098405C6D
:1041A000179901E0179930205A46904704986D1CE2
:1041B000401C04900198401E019004D12E205A46C4
:1041C000179990476D1CBAF10001AAF1010ADEDCD3
:1041D00005E017F8010B5A46179990476D1CB8F186
:1041E0000001A8F10108F4DC5B462146179A059806
:1041F000A4E600002D0000002B00000020000000BD
:104200002DE9F041044600251E461746880405D4D2
:1042100006E039462020B04705F10105641EF8D5B7
:104220002846BDE8F0812DE9F041044600251E46F0
:104230009046C80301D5302700E02027880405D523
:1042400006E041463846B04705F10105641EF8D541
:104250002846BDE8F0810A68531C0B601070704757
:104260000948FDF7BBFBFCF777FC0848FCF772FE3A
:104270000748FCF76FFE0748FCF722FD0648FEF7EB
:1042800049FB00BFFEE70000B000002000380140FD
:1042900000440040804500083045000810B50A245D
:1042A0001B20FDF7D5FD044600BF204610BD685514
:1042B00051F46662386B2324391F42446184B2444E
:1042C0001336198E50C6412529BB9E528748FFFFE1
:1042D00000C1814001C0804101C0804100C18140D6
:1042E00001C0804100C1814000C1814001C08041C6
:1042F00001C0804100C1814000C1814001C08041B6
:1043000000C1814001C0804101C0804100C18140A5
:1043100001C0804100C1814000C1814001C0804195
:1043200000C1814001C0804101C0804100C1814085
:1043300000C1814001C0804101C0804100C1814075
:1043400001C0804100C1814000C1814001C0804165
:1043500001C0804100C1814000C1814001C0804155
:1043600000C1814001C0804101C0804100C1814045
:1043700000C1814001C0804101C0804100C1814035
:1043800001C0804100C1814000C1814001C0804125
:1043900000C1814001C0804101C0804100C1814015
:1043A00001C0804100C1814000C1814001C0804105
:1043B00001C0804100C1814000C1814001C08041F5
:1043C00000C1814001C0804101C0804100C18140E5
:1043D00000C0C101C30302C2C60607C705C5C404A5
:1043E000CC0C0DCD0FCFCE0E0ACACB0BC90908C815
:1043F000D81819D91BDBDA1A1EDEDF1FDD1D1CDC05
:1044000014D4D515D71716D6D21213D311D1D01074
:10441000F03031F133F3F23236F6F737F53534F464
:104420003CFCFD3DFF3F3EFEFA3A3BFB39F9F838D4
:1044300028E8E929EB2B2AEAEE2E2FEF2DEDEC2CC4
:10444000E42425E527E7E62622E2E323E12120E034
:10445000A06061A163A3A26266A6A767A56564A424
:104460006CACAD6DAF6F6EAEAA6A6BAB69A9A86894
:1044700078B8B979BB7B7ABABE7E7FBF7DBDBC7C84
:10448000B47475B577B7B67672B2B373B17170B0F4
:1044900050909151935352929656579755959454E4
:1044A0009C5C5D9D5F9F9E5E5A9A9B5B9959589854
:1044B000884849894B8B8A4A4E8E8F4F8D4D4C8C44
:1044C00044848545874746868242438341818040B4
:1044D000031000000008014000080000034800002D
:1044E0000008014000040000031000000008014023
:1044F000001000000310000000080140000100004F
:1045000003100000000C01400020000003480000E0
:10451000000C01400040000003480000000801407A
:10452000010000000000000000000000000000008A
:10453000C522000800000000B1450008D0070000B7
:104540000124000800000000B745000870170000B3
:10455000DD25000800000000B7450008D007000076
:10456000E922000800000000B7450008D00700005D
:10457000000000000000000000000000000000003B
:1045800002100000000C01400010000000000000BC
:104590000000000000000000010300000103000112
:1045A0000002000000000000000000000000000009
:1045B000005461736B30005461736B310000000074
:1045C000E045000800000020740000009439000855
:1045D00054460008740000201C330000A439000871
:1045E0000000000001020304010203040607080999
:1045F00002040608000000000000000000000000A7
:104600000000000000000000FF00000000000000AB
:10461000000000000000000000000000000000009A
:10462000000000000000000000000000000000008A
:10463000000000000000000000000000000000007A
:1046400000000000FF00FF0000000000FF0000006D
:044650000000000066
:0400000508000131BD
:00000001FF
