:020000040800F2
:10000000A8B6002045010008C14A000833300008A6
:100010004D4700083B0E0008238D0008000000003B
:10002000000000000000000000000000F95200087D
:10003000691A000800000000D94B00083F5B000867
:100040005F0100085F0100085F0100085F01000810
:100050005F0100085F0100085F010008AD2400088F
:100060005F0100085F0100085F0100085F010008F0
:100070005F0100085F0100085F0100085F010008E0
:100080005F0100085F0100085F0100085F010008D0
:100090005F0100085F0100085F0100085F010008C0
:1000A0005F0100085F0100085F0100085F010008B0
:1000B0005F0100085F0100085F0100085F010008A0
:1000C0005F0100085F0100085F0100085F01000890
:1000D0005F0100083186000891860008F18600085B
:1000E0005F0100085F0100080F8D00085F01000834
:1000F0005F0100085F0100085F0100085F01000860
:100100005F0100085F0100085F0100085F0100084F
:1001100071850008D18500085F0100085F010008B3
:100120005F0100085F0100085F0100085F0100082F
:10013000DFF80CD000F078FC00480047C5960008B6
:10014000A8B600200648804706480047FEE7FEE7BD
:10015000FEE7FEE7FEE7FEE7FEE7FEE7FEE7FEE777
:10016000E15B000831010008D2B201E000F8012B88
:10017000491EFBD270470022F6E710B513460A4627
:1001800004461946FFF7F0FF204610BDF0B480EAA0
:100190000102D40F4200B2EB410F02D202460846E0
:1001A00011464A0042D0C30DDDB2C1F3C752AD1AA9
:1001B000202D35DAC1F3160141F4000204B1524298
:1001C000C5F1200602FA06F12A411044B3EBD05FD4
:1001D00023D0C4B1012DA0EBC35009DCF0BC4FF01B
:1001E000004202EAC35200F50000DBB200F077BB28
:1001F000400000F1807000EBC350A0F1807040EA35
:10020000D170490009E0490841EAC071A0EBC35030
:1002100000F50000400800EBC350F0BC00F056BBF6
:100220006142012202EB4101001BF6E7F0BC70477E
:1002300081F00041AAE780F00040A7E780EA0102D0
:1002400010B502F00043400026D04A0023D04FEA08
:10025000106101EB1261C0F35600C2F3560240F484
:10026000000042F40002A0FB0220A1F17F014FEA4E
:100270000040140401D000F1010050EA124001D402
:100280004000491EC2B20C0604EBD010401C4008CE
:10029000802A02D003E0002010BD20F001000029D8
:1002A00000DA0020184310BD30B480EA010202F0E9
:1002B000004530F0004221F0004015D0A0B1C0F35D
:1002C000C753C2F3C754C2F31601C0F31600E41AB1
:1002D00041F4000140F400027D34914201D3641CDA
:1002E00000E04900002C02DA30BC002070474FF4D7
:1002F00000000023914201D3891A034340084FEACA
:100300004101F7D151B1914202D14FF0004105E0D6
:1003100002D24FF0010101E06FF0010103EBC45084
:10032000284430BC00F0D2BA2DE9FE4F804681EA65
:100330000300C00F0C46009021F0004123F000455F
:10034000B8EB0200A94105D24046214690461C4622
:100350000B46024623F00040104304D1404621469C
:1003600003B0BDE8F08F270DC7F30A00C3F30A51AD
:100370000290401A0190402866DAC3F3130040F45B
:10038000801B0098924620B10023D2EB030A63EB56
:100390000B0B01985946C0F14002504600F065FA37
:1003A00006460D4650465946019A00F07DFA10EB7C
:1003B00008006141002487EA115284EAE7731A4376
:1003C0003BD0009A3AB3019A012A4FEA075210DC57
:1003D000001B61EB02014FF0004202EA0752CDE937
:1003E0000042001C41F5801132462B4600F0B1FA64
:1003F000B6E7001B61EB0201001C41F580130018F9
:100400005B412018A2F5001747EB030140EAD570C5
:10041000B6196D4111E06D084FEA360645EAC07520
:100420004FEA0752001B61EB0201001C41F58011ED
:1004300049084FEA30000019514132462B4603B0BB
:10044000BDE8F04F00F078BA009801224000002388
:10045000D0EB020263EBE073009821464FEAE074B0
:10046000B8EB000061EB0401E9E783F000435BE7D0
:1004700081F0004158E72DE9FE4F81EA030404F0C2
:10048000004421F0004100944FF0000B23F00043A2
:1004900050EA010402D052EA030404D100200146CC
:1004A00003B0BDE8F08FC3F30A54C1F30A552C44DE
:1004B000A4F2F3340194A0FB0254C1F3130141F4FC
:1004C0008011C3F3130343F4801301FB024400FBC8
:1004D000034E840A970A44EA815447EA8357A4FBEF
:1004E000076802958D0A05FB07854FEA932C04FBEC
:1004F0000C542705029D4FEA065847EA1637B5EB1C
:1005000008056EEB070C870E920E47EA811742EA48
:100510008312A7FB0201B6EB0B0164EB00042B0D69
:1005200043EA0C335E1844EB1C50DA465146E7FBB5
:100530000201C5F313044FEA0B3343EA14534FEAA5
:100540000432019C43EA0603A4F10C040294009CCB
:10055000CDE900B400F0FDF9A2E72DE9F04D81EA04
:10056000030404F0004B21F0004514464FF0000A4C
:1005700023F0004150EA050220D054EA01021DD0C8
:10058000C5F30A570246C5F31303C1F31300C1F3C1
:100590000A5640F4801543F48013A7EB0608101B9D
:1005A000D64608F2FD3873EB050002D308F10108C6
:1005B00001E092185B41B8F1000F03DA0020014618
:1005C000BDE8F08D00204FF48011064684460EE011
:1005D000171B73EB050705D3121B63EB05030643DB
:1005E0004CEA010C49084FEA300092185B4150EA8E
:1005F0000107EDD152EA030012D082EA040083EA37
:100600000501084303D100224FF0004308E0101B0E
:10061000AB4102D20122002302E06FF0010253102D
:100620001AEB06004CEB085110EB0A0041EB0B01F2
:10063000BDE8F04D00F080B9C10F80EAE0700844D9
:10064000CA079623002100F04AB9962300221146DA
:1006500000F045B90EB540F2334102910021CDE9D9
:1006600000110A460B4600F074F903B000BD00F01B
:10067000004220F00040C10DC0F3160040F400001D
:100680007F2901DA00207047962903DCC1F1960129
:10069000C84001E096398840002AF4D040427047B3
:1006A00020F00040C10DC0F3160040F400007F2987
:1006B00001DA00207047962903DCC1F19601C84099
:1006C000704796398840704770B5C1F30A5201F0FF
:1006D00000450024C1F3130140F2FF3341F48011BF
:1006E0009A4201DA002070BD40F233439A42A2F2EE
:1006F000334203DC524200F0C7F800E090402C4344
:10070000F1D0404270BD00F0004230F000400AD00D
:10071000C10D01F56071C0F3160042EA0151C20833
:1007200040071143704700200146704730B500294B
:1007300004DB4FF00044404264EB0101002B04DB7A
:100740004FF00044524264EB03038B4208BF8242E5
:1007500030BD000030B5002904DB4FF000444042BA
:1007600064EB0101002B04DB4FF00044524264EBC8
:100770000303994208BF904230BD000001F00043DE
:1007800030B421F0004150EA010206D00A0DA2F572
:100790006072C1F31301002A02DC30BC00207047F4
:1007A000440F44EAC104C100E01830BC00EBC25061
:1007B00000F08CB8002801DBC0F10040002901DB0B
:1007C000C1F1004181427047002801DBC0F10040C7
:1007D000002901DBC1F100418842704730B50B466A
:1007E000014600202022012409E021FA02F59D4261
:1007F00005D303FA02F5491B04FA02F52844151E35
:10080000A2F10102F1DC30BD2DE9F05F05460020C8
:1008100092469B4688460646814640241BE0284671
:1008200041464746224600F02FF853465A46C01A22
:10083000914110D311461846224600F016F82D1AA1
:1008400067EB01084F4622460120002100F00DF819
:1008500017EB00094E41201EA4F10104DFDC4846DD
:1008600031462A464346BDE8F09F202A04DB203A61
:1008700000FA02F1002070479140C2F1200320FAF3
:1008800003F3194390407047202A04DB203A21FAF1
:1008900002F00021704721FA02F3D040C2F1200299
:1008A0009140084319467047202A06DBCB17203AAF
:1008B00041FA02F043EAE07306E041FA02F3D04065
:1008C000C2F1200291400843194670470029A8BF91
:1008D0007047401C490008BF20F00100704710B469
:1008E000B0FA80FC00FA0CF050EA010404BF10BC1E
:1008F000704749B1CCF1200421FA04F411FA0CF14B
:1009000018BF012121430843A3EB0C01CB1D0106B5
:10091000000A002BBEBF002010BC704700EBC35084
:1009200010440029A4BF10BC7047401C490008BFF8
:1009300020F0010010BC704710B5002B08DA401CF5
:1009400041F1000192185B411A4301D120F00100EE
:1009500010BD2DE9F04D92469B4611B1B1FA81F2DE
:1009600002E0B0FA80F220329046FFF77EFF0446A4
:100970000F4640EA0A0041EA0B0153465A46084333
:1009800003D120463946BDE8F08D114653EA0100F7
:1009900015D0C8F140025046FFF776FF05460E46D7
:1009A000504659464246FFF760FF084301D00120F8
:1009B00000E00020054346EAE0762C4337430A98DE
:1009C0004FEA4453A0EB08004FEAD4240A304FF01A
:1009D000000244EA47544FEAD72502D500200146D9
:1009E000D1E7010510196941DDE9084500196941A0
:1009F000BDE8F04DA0E7C1F30A52C1F3130140F284
:100A0000FF3341F480119A4202DA00200146704718
:100A100040F233439A42A2F2334202DC5242FFF7E1
:100A200033BFFFF722BF0000064C074D06E0E06829
:100A300040F0010394E8070098471034AC42F6D325
:100A4000FFF77AFBDCA20008FCA2000882B02DE9C7
:100A5000FF1FEFF3038001B4684600F1400000E996
:100A600001400C480168C1F800D00B48D0F800D014
:100A700001BC80F30388BDE8FF1F01B000BD06483C
:100A8000D0F800D001BC80F30388BDE8FF1F01B09F
:100A900000BD00003C0000203800002008B5012106
:100AA000084604F093F901214FF4047004F0AEF904
:100AB0001020ADF8000000208DF8030069460248C0
:100AC00001F0ACFF08BD00000010014010B5044665
:100AD000FFF7E4FF204600F001F810BD10B590B01C
:100AE0000446334800F0EEFB32480590069400209F
:100AF000079001200890002009900A904FF4807020
:100B00000B9080000C9020200D9000020E90002091
:100B10000F9005A9264800F07BFC0121244800F035
:100B2000C5FB002000908DF8040001208DF8050021
:100B30004FF4602002900020039001208DF81000F7
:100B400069461C484C3800F061F84FF4404004F00E
:100B500031F9052301220E2116484C3800F07EF8A9
:100B6000012114484C3800F032F8012111484C386A
:100B700000F022F80F484C3800F0CCF800BF0D48C8
:100B80004C3800F039F80028F9D10A484C3800F008
:100B9000D1F800BF07484C3800F024F80028F9D1FC
:100BA000012104484C3800F0BAF810B010BD000024
:100BB000080002404C24014021B1826842F0010249
:100BC000826003E0826822F001028260704721B1F6
:100BD000826842F48072826003E0826822F480724C
:100BE00082607047014600208A6812F0040F01D02D
:100BF000012000E000207047014600208A6812F0C2
:100C0000080F01D0012000E00020704730B50246F7
:100C10000020002350680F4C20400D790C6844EAF6
:100C200005242043506090680B4C2040D1E90254C9
:100C30002C434D7944EA450420439060D06A20F467
:100C400070000C7C641EE4B2234340EA0350D0627F
:100C500030BD0000FFFEF0FFFDF7F1FFF0B50446E8
:100C60000D4600200021092D11DDE068A5F10A06DE
:100C700006EB4607072606FA07F18843A5F10A06A0
:100C800006EB460603FA06F10843E0600CE0206933
:100C900005EB4507072606FA07F1884305EB4506ED
:100CA00003FA06F108432061072A0FDA606B561E2B
:100CB00006EB86071F2606FA07F18843561E06EB49
:100CC000860605FA06F10843606322E00D2A0FDA72
:100CD000206BD61F06EB86071F2606FA07F188430E
:100CE000D61F06EB860605FA06F10843206310E0DE
:100CF000E06AA2F10D0606EB86071F2606FA07F149
:100D00008843A2F10D0606EB860605FA06F10843B4
:100D1000E062F0BD816841F008018160704721B157
:100D2000826842F4A002826003E0826822F4A0029A
:100D300082607047816841F0040181607047000063
:100D400010B50121054801F099FF032007F05CF878
:100D50000121024801F081FF10BD0000000C01409C
:100D600010B501210C4801F089FF0A2007F04CF86A
:100D70000121094801F071FF282007F045F8012101
:100D8000054801F07BFF0A2007F03EF801210248E8
:100D900001F063FF10BD0000000C014010B5002100
:100DA000074803F087FB044644B9052105A000F07D
:100DB00079FD0121024803F07DFB0446204610BD69
:100DC000F0B00020C5E4D6C3B2CECAFDC6ACC7F8A9
:100DD000D2BBB4EDCEF3000006E04FF47A7100BF51
:100DE0000A00A1F10101FBD10200A0F10100F4D140
:100DF00070470146081100EB4000A1EB4000C0B273
:100E00007047F0B5034600201C460D46104603E02F
:100E100014F8016B05F8016B1600A2F10107BAB2D4
:100E2000F6D1F0BD30B5034601E003F8011B140014
:100E3000A2F10105AAB2F8D130BD00BFFEE7000063
:100E40002DE9F04105460E463F4803F0E1FCA8427B
:100E500002DC0020BDE8F08105EB45003A4901EBDA
:100E60008004207A092833D008DC02280FD0042817
:100E700037D0052823D0062863D116E00B280BD0E5
:100E800018284BD01A2856D01D285AD12FE0606858
:100E900008B16068804754E0304601F0C7FF07465C
:100EA000FFF7FEFB616808704BE0304601F0BEFFC3
:100EB0000746FFF7DCFB40B26168087041E030464E
:100EC00001F0B4FF0746FFF7EBFB6168088038E0EC
:100ED000304601F0ABFF0746FFF7E2FB61680860B0
:100EE0002FE0304601F0A2FF6168086029E017A1F9
:100EF000304604F0D1FD40B160680068627A01219B
:100F0000914008436168086007E060680068627AA1
:100F10000121914088436168086012E00BA13046CE
:100F200004F0BAFD18B101206168087002E00020E9
:100F30006168087005E0627A30466168FFF761FF1A
:100F400000BF00BF012085E7C899000854000000D9
:100F500070B504460D460A4803F05AFCA04201DC75
:100F6000002070BD04EB4400054A02EB80012846D6
:100F700003F01AFB284601F0BBFFC6B23046F0E78B
:100F8000C899000802E0002200F8012B0A00A1F134
:100F9000010399B2F7D1704730B502460B461146AE
:100FA00093B1012B02D0022B28D11CE011F8010BC8
:100FB000000211F8014B2043000211F8014B2043BD
:100FC00000020C78204319E0C91C11F80109000245
:100FD00011F801492043000211F8014920430002A1
:100FE0000C7820430AE088780002CC782043000285
:100FF0000C78204300024C78204300BF00BF30BD76
:1010000010B5002400F090F804E0601CC4B2012088
:1010100000F038F8114801881148006801F014FE0A
:1010200008B1642CF1DB642C01DB012010BD00242D
:1010300004E0601CC4B2012000F024F807480188D5
:101040000748006801F000FE08B9642CF1DB642C4D
:1010500001DB0120EAE70020E8E700007C00002037
:1010600080000020002107E042F6E06100BF0A0096
:10107000A1F1010399B2FAD10200A0F1010398B2E3
:10108000F2D17047002106E0072100BF0A00A1F15C
:10109000010399B2FAD10200A0F1010398B2F3D191
:1010A000704700002DE9F04105460E462C784FF6BA
:1010B000FF7000EA04246878044314F4004F0CD055
:1010C000E143491C41F40040FFF7B6FA07461349D3
:1010D0003846FFF7E9F8074608E02046FFF7B5FA7B
:1010E00007460E493846FFF7DFF807460C493846F1
:1010F000FFF76AFB02D24FF0010801E04FF0000851
:1011000008493846FFF756FB01D2012000E00020D5
:1011100018EA000F00D03760BDE8F08100002041E0
:1011200000007AC40000F04208B508480088ADF815
:10113000000003208DF8020048208DF80300694666
:101140000348006801F06AFC08BD00007C00002034
:101150008000002008B508480088ADF80000032092
:101160008DF8020010208DF80300694603480068DE
:1011700001F054FC08BD00007C000020800000202D
:101180002DE9FC4105460E4600F076F8FFF738FFE2
:1011900010B10120BDE8FC8172B6002405E000F02A
:1011A0005BF80DF80400601CC4B2052CF7DB9DF859
:1011B00000009DF8011008449DF8021008449DF8B5
:1011C00003100844C7B29DF80400B84202D062B6CA
:1011D0000120DFE71DB131466846FFF763FF26B106
:1011E00029460DF10200FFF75DFF62B60020D1E74E
:1011F00010B5002404E0601CC4B20120FFF742FFD8
:10120000134801881348006801F01EFD08B1642CE2
:10121000F1DB002404E0601CC4B20120FFF732FFC0
:101220000B4801880B48006801F00EFD08B9642CDA
:10123000F1DB2320FFF726FF0548018805480068F9
:1012400001F002FD08B1012010BD0020FCE7000004
:101250007C0000208000002070B50024002506E0FE
:101260006006040EFFF7C4FF0443681CC5B2082DD6
:10127000F6DB204670BD000010B5FFF76BFF094894
:1012800001880948006801F0E8FC0A20FFF7EAFE3F
:10129000044801880448006801F0F0FC5020FFF782
:1012A000F1FE10BD7C0000208000002021B102680A
:1012B00042F00102026004E002684FF6FE731A4039
:1012C0000260704701684FF6FE7211400160002114
:1012D000016041608160C1604B49884208D14A4940
:1012E0000839496841F00F01474A083A51608AE0DD
:1012F00045491431884208D143490839496841F0C9
:10130000F001414A083A51607DE03F492831884266
:1013100008D13D490839496841F470613A4A083AB0
:10132000516070E038493C31884208D1364908396B
:10133000496841F47041344A083A516063E03249E7
:101340005031884208D130490839496841F4702148
:101350002D4A083A516056E02B496431884208D141
:1013600029490839496841F47001274A083A51600F
:1013700049E025497831884208D12349083949682C
:1013800041F07061204A083A51603CE01F498842B0
:1013900006D1011F096841F00F01021F116032E000
:1013A0001A491431884208D11849091F096841F0C7
:1013B000F001164A121F116025E0144928318842B5
:1013C00008D11249091F096841F470610F4A121FC0
:1013D000116018E00D493C31884208D10B49091FC2
:1013E000096841F47041094A121F11600BE0074976
:1013F0005031884207D10549091F096841F470211D
:10140000024A121F1160704708000240080402409F
:1014100010B50022026847F6F0739A430C6A8B6895
:1014200023430C6923434C6923438C692343CC69D0
:1014300023434C6A23438C6A23431A430260CB68DC
:1014400043600B6883604B68C36010BD70B5044691
:101450000D46164624B1012C18D0022C42D12BE0A7
:1014600001212C4800F014FA2B48005D0A2806DD03
:101470002A48006A20F480702849086205E027485D
:10148000006A40F480702549086230E0202121483C
:1014900000F0FEF92048005D0A2806DD1F48006ABA
:1014A00020F400701D49086205E01C48006A40F401
:1014B00000701A4908621AE04021164800F0E8F965
:1014C0001548005D0A2806DD1448006A20F48050A3
:1014D0001249086205E01148006A40F480500F4943
:1014E000086204E000200D4981F8870000BF00BFBA
:1014F00031462846FFF744FE28B10748005D401CEE
:101500000549085502E00020034908550248005DDE
:1015100070BD000000100140B0000020CCB00020E1
:1015200008B50121082003F071FC0D480088ADF8D2
:10153000000010208DF8030003208DF8020069469A
:101540000848006801F06AFA054801880548006803
:1015500001F094FB00F032F900F006F808BD00003D
:10156000840000208800002010B5002400F0BEF8A0
:1015700004E0601CC4B2012000F028F81148018882
:101580001148006801F060FB08B1C82CF1DBC82CE1
:1015900001DB012010BD002404E0601CC4B2012066
:1015A00000F014F8074801880748006801F04CFB78
:1015B00008B9F02CF1DBF02C01DB0120EAE7002078
:1015C000E8E700008400002088000020002106E0F9
:1015D000062100BF0A00A1F1010399B2FAD102006D
:1015E000A0F1010398B2F3D1704700002DE9FE4F3E
:1015F000824600F009F900F0E1F8FFF7B5FF044674
:1016000014B10120BDE8FE8FCC2000F009F9BE2006
:1016100000F006F9002405E000F0BEF80DF8040023
:10162000601CC4B2092CF7DB0821684606F0A2F959
:1016300004469DF80800A04205D0052126A000F030
:1016400031F90020DEE79DF8010007281EDD9DF836
:101650000100C043C0B28DF801009DF80000C043F6
:10166000C0B28DF800009DF801904FF6FF7000EABF
:1016700009299DF8000040EA09094846FEF7E5FF00
:1016800005460021FEF7D7FD83460DE09DF8019049
:101690004FF6FF7000EA09299DF8000040EA0909A9
:1016A0004846FEF7D2FF83465846FFF72CF8074618
:1016B00000220C4BFEF7DFFE0546FFF75FF883467E
:1016C000BAF1000F05D008495846FEF7EDFDCAF8FB
:1016D0000000002096E70000D0A3D1E9B4EDCEF3DE
:1016E000000000000000E43F0000204108B5084869
:1016F0000088ADF8000003208DF8020048208DF826
:10170000030069460348006801F088F908BD00003D
:10171000840000208800002008B508480088ADF843
:10172000000003208DF8020010208DF803006946A8
:101730000348006801F072F908BD00008400002031
:101740008800002010B5FFF7E7FF11480188114815
:10175000006801F082FA0220FFF738FF0C48018888
:101760000C48006801F08AFAFFF7C0FF0520FFF778
:101770002DFF074801880748006801F065FA08B1A5
:10178000012400E000243220FFF720FF204610BD96
:10179000840000208800002070B50026012508E0A4
:1017A000FFF7D0FF0446E00140EA6600C6B2681CBD
:1017B000C5B2082DF4DD304670BD000010B5FFF74E
:1017C000ABFF0A4801880A48006801F046FA40F277
:1017D000EE20FFF7FBFE054801880548006801F090
:1017E0004DFA0F20FFF7F2FE10BD0000840000202C
:1017F00088000020024A1060024A118070470000F1
:10180000880000208400002010B5FFF7D7FFFFF705
:10181000ABFECC2000F004F8442000F001F810BD2D
:1018200070B50446FFF778FF01252AE004F00106B1
:10183000641096B1144801881448006801F00DFA4C
:101840000220FFF7C3FE104801881048006801F02D
:1018500015FA3C20FFF7BAFE11E00B4801880B484F
:10186000006801F0FAF93C20FFF7B0FE0648018855
:101870000648006801F002FA0220FFF7A7FE681C84
:10188000C5B2082DD2DD70BD840000208800002084
:10189000024A1060024A1180704700008000002058
:1018A0007C0000200FB42DE9F04186B00025012610
:1018B0000027B00202F086FF044654480078FF2853
:1018C00001D1012000E0002050490978504A1278E7
:1018D000914201D1012100E0002108437DD00DA8F3
:1018E00005902046059A0C9907F06CFA00200590A7
:1018F0000DA8059069460C9801F0DCF906462AE02F
:101900002846691CCDB21DF80000012804D0022829
:1019100006D003281AD115E0059880C8059019E073
:101920000598C01D20F007000590D0E90021DDF8E2
:1019300014C00CF1080C1046CDF814C0FEF7C4FE1C
:10194000074607E0059880C8059003E0059880C821
:10195000059000BF00BF3000A6F10106D0D1059868
:1019600080C80590002005902A480078FF2801D102
:10197000012000E0002027490978B94201DB01215C
:1019800000E00021084338D0214623A004F04CF8A1
:101990002248007810F0020F0DD02149087800F09D
:1019A00001FC40B1204601F0A3FA804642462146A0
:1019B0001C4807F081F91948007810F0040F0FD087
:1019C0001749487800F0EEFB50B1204601F090FA3C
:1019D000804642462146144800E00EE007F06CF9CC
:1019E0001248006848B1204601F082FA00F0FF0872
:1019F000414620460D4A12689047204602F0B6FE46
:101A000006B0BDE8F0015DF814FB000064000020A2
:101A100048000020660000200D0A0000650000203C
:101A200014000020003801400044004068000020FD
:101A3000FF200149087070476400002002480078C8
:101A40000249087070470000480000206400002030
:101A500001490870704700006500002001490870C6
:101A60007047000066000020704701460A2091FB85
:101A7000F0F000EB400001EB4000C0B27047000006
:101A800010B500201A4908704FF4A07002F09AFEB9
:101A900018490860002406E0FF2017490855174937
:101AA0000855601CC4B2052CF6DB00241DE00020A4
:101AB0001049096801EB4411486103200D49096888
:101AC00001EB4411087200200A49096801EB441136
:101AD00008610849096801EB4411C86005490968B3
:101AE00001EB44118861601CC4B20A2CDFDB10BD1D
:101AF000540000205800002014000020190000208D
:101B000038B5002454E02C48006800EB441000680D
:101B100000284BD02848006800EB4410C079012809
:101B200006D0022820D0032813D0042832D126E082
:101B3000032000902048006800EB4410C3691E4851
:101B4000006800EB4410214602681CA0FFF7AAFEC3
:101B50002BE01948006800EB44100323214602687B
:101B60001CA0FFF79FFE20E01348006800EB441024
:101B700003232146026817A0FFF794FE15E00E48E4
:101B8000006800EB441003232146026811A0FFF710
:101B900089FE0AE00848006800EB44100323214650
:101BA00002680CA0FFF77EFE00BF00BF601CC4B23D
:101BB0000A2CA8DB38BD0000580000204465766977
:101BC00063655B25645D4E616D653A25735B2564D5
:101BD0005D0000004465766963655B25645D4E6168
:101BE0006D653A25730000002C4909782C4A117064
:101BF0002A490978491C294A117029490978294A32
:101C00001268274B1B7802EB4312117126A1254A5B
:101C10001268234B1B7802EB431211600021214A0A
:101C200012681F4B1B7802EB4312517102221D49AF
:101C300009681B4B1B7801EB4311CA71012219493A
:101C40000968174B1B7801EB43110A721849154AB2
:101C50001268134B1B7802EB43125161114909685A
:101C60000F4A127801EB4211C86100220D49096840
:101C70000B4B1B7801EB4311CA600021094A126823
:101C8000074B1B7802EB43121161002205490968DA
:101C9000034B1B7801EB43118A617047540000200D
:101CA00028000020580000204750494F0000000045
:101CB000312B00082C4800782C4908702A480078FD
:101CC000401C294908702948007829490968274A91
:101CD000127801EB4211087126A125480068234AB9
:101CE000127800EB421001600020214909681F4A68
:101CF000127801EB4211487103201D4909681B4A03
:101D0000127801EB4211C871012119480068174A85
:101D1000127800EB42100172184815490968134AFD
:101D2000127801EB421148610021114800680F4A06
:101D3000127800EB4210C1610D4800680B4A12781E
:101D400000EB4210C160002009490968074A127877
:101D500001EB42110861002105480068034A12782E
:101D600000EB421081617047540000207500002094
:101D7000580000204854313632310000B52F000899
:101D80002C4909782C4A11702A490978491C294A9A
:101D9000117029490978294A1268274B1B7802EBF0
:101DA0004312117126A1254A1268234B1B7802EBBE
:101DB000431211600021214A12681F4B1B7802EB6D
:101DC0004312517104221D4909681B4B1B7801EB1A
:101DD0004311CA71012219490968174B1B7801EB9D
:101DE00043110A721849154A1268134B1B7802EB0B
:101DF00043125161114909680F4A127801EB4211EF
:101E0000C86100220D4909680B4B1B7801EB431197
:101E1000CA600021094A1268074B1B7802EB431283
:101E20001161002205490968034B1B7801EB43113E
:101E30008A6170475400002096000020580000205E
:101E400049534C3132303800B54200082DE9F04199
:101E500007460D461646384606F0CEFD04465F4856
:101E6000005DFF2808D15E4800785C4908555C4851
:101E70000078401C5A4908705AA05849095D5B4ACD
:101E8000126802EB4111086000205449095D574A6D
:101E9000126802EB4111487101205049095D534A13
:101EA000126802EB4111C87103204C49095D4F4A89
:101EB000126802EB411108724D484849095D4B4ACE
:101EC000126802EB411148614448005D47490968C6
:101ED00001EB4010C46147494048005D434A126825
:101EE00002EB4010C16044483C49095D3F4A12681A
:101EF00002EB4111086100213848005D3B4A12683D
:101F000002EB4010816100203C4921F81400284672
:101F100002F058FC3A4941F82400384606F06CFDBE
:101F200004463848005DFF2808D12D48007835491F
:101F300008552B480078401C2949087032A03149C7
:101F4000095D2A4A126802EB4111086000202D4900
:101F5000095D264A126802EB4111487101212948A6
:101F6000005D224A126802EB4010C171032025492E
:101F7000095D1E4A126802EB411108721C49214892
:101F8000005D1A4A126802EB401041611D48005D75
:101F90001649096801EB4010C46116481949095DEA
:101FA000124A126802EB4111C86013481549095DD5
:101FB0000E4A126802EB4111086100201149095DC7
:101FC0000A4A126802EB41118861304602F0FAFBBE
:101FD0000F4941F82400BDE8F081000019000020FD
:101FE0005400002055534152527800005800002000
:101FF00099870008998C0008A18B0008F000002048
:10200000C8000020140000205553415254780000AD
:10201000DC00002010B504464FF4967211462046AD
:10202000FFF714FF10BD0000284800782849087009
:1020300026480078401C2549087026A027490968D1
:10204000234A127801EB42110860002023490968F5
:102050001F4A127801EB4211487103201F49096899
:102060001B4A127801EB4211C87101211B4800681C
:10207000174A127800EB4210017219481749096893
:10208000134A127801EB421148610021134800689D
:102090000F4A127800EB4210C16112490F480068E4
:1020A0000B4A127800EB4210C1600F490B480068E0
:1020B000074A127800EB42100161002007490968C5
:1020C000034A127801EB42118861704754000020E6
:1020D000940000205732355131360000580000205E
:1020E000BD500008B18D00089D8D000810B503217A
:1020F00024A0FFF7D7FB002441E02948006800EB4B
:1021000044104069C8B32648006800EB4410C07909
:10211000012806D0022817D003280ED004282BD17E
:102120001EE01F4A126802EB4412107F1C4A12681C
:1021300002EB4412516988471EE01949096801EB16
:1021400044114869804717E0154A126802EB4412AF
:10215000D069134A126802EB4412516988470BE0B8
:102160000F4A126802EB4412D0690D4A126802EB62
:1021700044125169884700BF00BF601CC4B20A2CDA
:10218000BBDB10BD546F73204465766963652049DD
:102190006E69742E2E2E2E2E2E2E2E2E2E00000028
:1021A000580000200146FF2901D100207047054852
:1021B000006800EB4110406908B90020F6E70120F3
:1021C000F4E7000058000020BAB080464FF0000944
:1021D0000027C246504606F00FFC04460120034685
:1021E00005220146009004A802F01DFB8E4951F81B
:1021F000240002F0BBFA40F2DC5002F0E3FA8A4914
:1022000041F824000FE1884951F8240002F0C6FA91
:102210001FFA80FB844951F824005946FEF7B2FEAC
:10222000814951F8240002F0B9FA1FFA80FB00231B
:102230005A461946504606F0D3FC05467A4951F8ED
:10224000240004AA294602F085FB05462E469DF887
:102250001E00002870D19DF813002C280AD004DC41
:10226000292876D02A2869D162E02F283FD050282B
:10227000F9D184E03C206D4908706B4850F8240087
:10228000805DB84222D1684A52F82430721C9918F5
:10229000654A52F82420925D920202F100604FF4E8
:1022A000806200F008FA6248007D40B13A46791C2D
:1022B0008FB260A108A800F0A7FD054616E03A46D7
:1022C00060A108A800F0A0FD05460FE05848007D79
:1022D00030B13A4657A108A800F096FD054605E042
:1022E0003A4658A108A800F08FFD054663E0002794
:1022F00001204F49087503F00FF83C204B49087046
:10230000494951F82410881906F007FD834600F06A
:1023100071F9454951F82410881906F0FEFCC0F304
:102320008F294A464DA108A800F06EFD054642E0FF
:10233000781E484503D03EE05FE00AE035E000F05B
:1023400076F901203A49087502F0E6FF02F006F935
:1023500031E03C203549087045A108A800F054FD43
:10236000054608A9481900F0E5FC284485B208A9EB
:10237000481941A100F048FD284485B21BE03C20EB
:102380002A4908703AA108A800F03EFD054608A9B0
:10239000481900F0CFFC284485B208A9481936A195
:1023A00000F032FD284485B205E008A939A003F009
:1023B00029FB054600BF00BF012000901A4850F8D5
:1023C000240081780123052204A802F02CFA08A831
:1023D0000121CDE901050091314951F82400012383
:1023E0001A4604A902F02AFA05462D4850F824108E
:1023F0002A46504606F060FC15E09DF81E000628AF
:1024000011D09DF81E00052807D1074850F8241068
:10241000012224A0FFF746FA05E09DF81E100322D2
:1024200021A0FFF73FFAEEE6C80000208C00002054
:10243000B0B10020506167655B25645D204F4B0D96
:102440000A0000004E6F742045726173655B25645D
:102450005D204661696C0D0A0000000045726173E1
:10246000655B25645D4B62204F4B0D0A0000000048
:1024700046696E6420000000204F4B200D0A545224
:10248000544F53205265426F6F7420566572322E3E
:10249000300D0A00D3A6D3C3B4EDCEF30000000084
:1024A000DC000020257300002564000010B501F059
:1024B0004DFE022000F004F802F050F810BD0000BC
:1024C00001490860704700001404014000212349BD
:1024D0008279002A3AD00A46126803689A430B466A
:1024E0001A600A1D126803689A430B1D1A6002796C
:1024F00011440A6803681A430A60184A08321268CD
:1025000003689A43154B08331A601A1D1268036852
:102510009A43124B0C331A604279102A0ED11A1FBB
:10252000126803681A430D4B08331A601A1D1268AB
:1025300003681A43094B0C331A600DE007494279CE
:1025400011440A6803681A430A6005E002791144DD
:102550000A6803689A430A6070470000000401405B
:1025600030B5044604254FF4302000F091F80546BC
:10257000042D17D10C48006940F002000A49086197
:1025800008464461006940F0400008614FF4302083
:1025900000F07EF805460448006941F6FD710840E8
:1025A00001490861284630BD0020024004200B4943
:1025B000C96811F0010F01D001200EE00749C96878
:1025C00011F0040F01D0022007E00449C96811F09E
:1025D000100F01D0032000E00420704700200240CB
:1025E0000348006940F0800001490861704700001D
:1025F00000200240F8B50446042500260020009083
:1026000000F03AF8204601F088FD064609E00099FE
:10261000490201F10060FFF7A3FF05460098401C46
:1026200000900098B04201D2042DF0D0F8BD10B552
:10263000FFF7D6FF10BD000070B504460D46042616
:10264000F00200F025F80646042E11D10948006971
:1026500040F00100074908612580F00200F018F8F9
:1026600006460448006941F6FE71084001490861C8
:10267000304670BD002002400248034948600348CC
:10268000486070472301674500200240AB89EFCDC9
:1026900000B502460423FFF789FF034603E0FFF776
:1026A00085FF0346521E012B01D1002AF7D102B942
:1026B0000523184600BDF8B504460E4617463546B4
:1026C00000940EE029880098FFF7B6FF288800994B
:1026D0000988884201D00020F8BDAD1C0098801CFC
:1026E0000090E01900998842ECD80120F4E72DE928
:1026F000F84F82460D4617464FF000080020009024
:102700008146504600F0F4FB00F0FF0BBBF1000FD8
:102710003DD000202870002637E01AF80640302C03
:1027200001DB012000E00020392C01DC012100E068
:10273000002108402E2C01D1012100E00021084396
:102740002D2C01D1012100E0002108430BD04F4581
:1027500006D12E2C04D04046411C01F0FF082C5419
:10276000012000900FE0009868B14F4505D100228C
:102770004046411C01F0FF082A540020009009F156
:10278000010000F0FF09701CC6B25E45C5DB404683
:10279000BDE8F88F70B50B46044603E014F8015B02
:1027A00003F8015B1500A2F10106B2B2F6D170BDCB
:1027B0002DE9F04706460F4614464FF00008B9468B
:1027C00001F0BFFC2046E11704EBD151C1F34F28C3
:1027D000E11704EBD1514912B4EB412103D008F1C8
:1027E00001001FFA80F8002507E04FF4007101FB9B
:1027F000056001F088FC681C85B24545F5DB0025C5
:1028000008E039F8021B2A466B1C9DB206EB420019
:1028100001F08FFC2000A4F101018CB2F1D101F094
:1028200078FCBDE8F08701460A461068704737B566
:102830000346042401A912B1012A0CD10AE003E0E5
:1028400011F8010B03F8010B2000A4F10105ECB213
:10285000F6D100E000BF00BF04203EBD70B50446C5
:102860000025107820B116782068B0FBF6F085B20C
:102870002068084420601078984203DA1078401CE1
:10288000107002E02068401B206016782068B0FBC2
:10289000F6F080B270BD0FB438B5044606A80090BB
:1028A0002046009A059906F08DFA0020009038BC69
:1028B0005DF814FB10B504462948844208D1012173
:1028C000042002F0B3FA0021042002F0AFFA46E03F
:1028D0002448844208D10121082002F0A7FA0021EF
:1028E000082002F0A3FA3AE01F48844208D10121EF
:1028F000102002F09BFA0021102002F097FA2EE03F
:102900001A48844208D10121202002F08FFA0021C8
:10291000202002F08BFA22E01548844208D10121E0
:10292000402002F083FA0021402002F07FFA16E0F6
:102930001048844208D10121802002F077FA00215A
:10294000802002F073FA0AE00B48844207D101218B
:10295000801502F06BFA0021A01502F067FA10BD95
:1029600000080140000C014000100140001401402B
:1029700000180140001C01400020014030B5002239
:102980008B071C0F0F2303FA04F20B4B8C1053F828
:1029900024309343084C8D1044F8253023468C1086
:1029A00053F824308C07240F00FA04F42343024C1C
:1029B0008D1044F8253030BD0800014070B5002569
:1029C000144800681449097800EB4110C6690024D6
:1029D0001BE004EB440016F8200000B917E004EBFC
:1029E000440206EB8202118904EB440206EB8202E8
:1029F000506800F029F918B10120A040054302E019
:102A00000120A0408543601CC4B2FF2CE1DB00BF65
:102A1000284670BD58000020280000202DE9F04114
:102A2000024600250026002000230024002791F8FC
:102A300003C00CF00F0591F803C01CF0100F03D079
:102A400091F802C04CEA050591F800C0BCF1000FF6
:102A500031D0146800202BE04FF0010C0CFA00F389
:102A6000B1F800C00CEA03069E4220D183004FF06B
:102A70000F0C0CFA03F7BC4305FA03FC4CEA040400
:102A800091F803C0BCF1280F06D14FF0010C0CFAED
:102A900000FCC2F814C00AE091F803C0BCF1480F72
:102AA00005D14FF0010C0CFA00FCC2F810C0401C1C
:102AB0000828D1D31460B1F800C0BCF1FF0F34DD99
:102AC000546800202EE000F1080C4FF0010808FACD
:102AD0000CF3B1F800C00CEA03069E4221D183003A
:102AE0004FF00F0C0CFA03F7BC4305FA03FC4CEA59
:102AF000040491F803C0BCF1280F05D100F1080CC3
:102B000008FA0CF8C2F8148091F803C0BCF1480F21
:102B100007D100F1080C4FF0010808FA0CF8C2F8D0
:102B20001080401C0828CED35460BDE8F08100001E
:102B300038B50446002536E01D4A6068811A904287
:102B400017D009DC1B4940180DD0B0F5806F0CD0B0
:102B5000B0F5006F13D10AE0B1F5806F0BD0B1F57D
:102B6000006F0CD109E0042509E0082507E01025D5
:102B700005E0202503E0402501E0802500BF00BFDF
:102B800045F00100012102F041F920788DF80200A2
:102B90002089ADF8000060788DF803006946606810
:102BA000FFF73CFF0C3420780028C5D138BD000069
:102BB0000014014000F8FEBFF0B50A4600230024CF
:102BC0000021002500F00046B6F1004F02D11D4E55
:102BD000F16901E01B4E7168C0F3034583B200F454
:102BE0004016B6F5401F08D121F07061154E766889
:102BF00026F07066134F7E6012E000F48016B6F582
:102C0000801F06D1032606FA05F4A14341F0706146
:102C100006E0460D360103FA06F6B14341F0706155
:102C200022B1460D360103FA06F6314300F00046A4
:102C3000B6F1004F02D1034EF16101E0014E716027
:102C4000F0BD0000000001400246002093680B42E6
:102C500001D0012000E000207047416170471FB59E
:102C60001C462CB1BDF80810019800F007F804E0EC
:102C7000BDF808100198FFF7F0FF1FBD0161704714
:102C80002DE9F04104460D460848006808490978D6
:102C900000EB4110C66904EB440006EB80072B46AD
:102CA00097E80700FFF7DBFFBDE8F0815800002040
:102CB00028000020F0B504460A4600230020002525
:102CC000214633E00E78252E02D10125461CB0B2F4
:102CD000012D2AD10E78642E06D1AC461E465F1C0B
:102CE000BBB202F806C000250E78662E07D14FF061
:102CF000020C1E465F1CBBB202F806C000250E780F
:102D0000732E07D14FF0030C1E465F1CBBB202F8B6
:102D100006C000250E78632E07D14FF0040C1E4626
:102D20005F1CBBB202F806C00025491C0E78002EBD
:102D3000C8D1F0BDFEB505460026164800680090D3
:102D40001448001D00680290124808300068019085
:102D500000241BE014E05DF824003E21B0FBF1F2FA
:102D600001FB1207384604F0CFFD3146721CD6B283
:102D700068545DF824003E21B0FBF1F04DF82400CA
:102D80005DF824000028E6D1601CC4B2032CE1DB0E
:102D90003046FEBDE8F7FF1FFEB505460026194880
:102DA000006800901748001D006802901548083020
:102DB0000068019000241BE014E05DF824003E212F
:102DC000B0FBF1F201FB1207384604F09DFD3146DD
:102DD000721CD6B268545DF824003E21B0FBF1F0BD
:102DE0004DF824005DF824000028E6D1601CC4B230
:102DF000032CE1DB00223046711CCEB22A5430464F
:102E0000FEBD0000E8F7FF1F0FB438B5044606A862
:102E100000902046009A059905F0D4FF002000900C
:102E2000204600F065F838BC5DF814FB2DE9FC5F26
:102E300005460026B346B1464FF07E5A44E015F8E9
:102E4000014B2D2C01D101263EE02E2C02D14FF05A
:102E5000010B39E0302C2EDB392C2CDCBBF1000FC0
:102E60000ED11F494846FDF7E9F98146A4F130002B
:102E7000FDF7E2FB07464946FDF788F9814623E066
:102E80005046FDF740FC0746164A174BFDF7F3FA8C
:102E9000CDE90001FDF772FC8246A4F13000FDF798
:102EA000CBFB80465146FDF7C9F907464946FDF779
:102EB0006DF9814608E026B10C494846FDF7BEF998
:102EC00081464846BDE8FC9F28780028B7DC26B13B
:102ED00006494846FDF7B2F981464846F2E7000048
:102EE000000020419A9999999999B93F000080BFB3
:102EF00010B5014600200A4601E0431C98B212F8C2
:102F0000014B002CF9D110BD002000210CE001EB99
:102F10004102074B1B6803EB02121289012A01D000
:102F2000421CD0B24A1CD1B21429F0DB7047000019
:102F30004C0000200246002039B950784FF6FF734C
:102F400003EA00201378184306E010784FF6FF7369
:102F500003EA0020537818437047000010B58AB088
:102F6000002414E004EBC401002202EB81002422BF
:102F700001A905F009FF0198401C00D108E0601C80
:102F8000C4B2012004F040FFFF2C00DB00E0E9E7C1
:102F900000BF0522214603A0FEF784FC20460AB0AC
:102FA00010BD0000B4F2D3A1BCC7C2BCCBF7D2FDA8
:102FB0002564000010B500240F48FFF7B9FD562026
:102FC00000F07EF8302000F07BF8002000F078F868
:102FD0000A2000F075F8032000F072F8062000F0D7
:102FE0006FF800BF05E0FF21204600F03BFF601CAA
:102FF000C4B2202CF7DB10BD6C99000870B5002519
:10300000FFF7DCFC84B214F0100F00D1262514F079
:10301000200F00D1282514F0400F00D1272514F0EF
:10302000800F00D10D2514F4807F00D004252846A0
:1030300070BD01E001F092FAFCE7000030B50546F2
:1030400000240BE0C4F10201685C064900F0F8FDC1
:1030500004F10B01044A5054601CC4B2032CF1DB90
:1030600030BD00009B99000894B10020124890F8F0
:10307000870020B1012809D0022815D10DE00F48A2
:10308000C07A40F008000D49C87212E00B48007B7E
:1030900040F00800094908730BE00848407B40F005
:1030A00008000649487304E00020034981F88700BE
:1030B00000BF00BF70470000CCB0002094B10020DA
:1030C00010B504464FF400410B48FFF7C6FD03203E
:1030D00000F044F80421802000F010F80821204678
:1030E00000F00CF84FF400410348FFF7C7FD04203F
:1030F00000F034F810BD00000010014070B5044627
:103100000D46002624E04FF480411348FFF7A5FD4B
:10311000032000F023F814F0800F05D04FF4005185
:103120000D48FFF7ABFD04E04FF400510A48FFF7EC
:1031300094FD032000F012F84FF480410648FFF799
:103140009DFD6006040E012000F008F8701CC6B258
:10315000AE42D8DB70BD00000010014000EB400122
:1031600088B200BF0100A0F1010290B2FAD170470D
:1031700010B5002400BF12E00A4A125D02F00F01F0
:103180006206100E00F06EFE064A125D1111012259
:1031900002EB4402D0B200F065FE601CC4B21B2CEE
:1031A000EADB10BD94B1002003B59DF800000A21B0
:1031B00090FBF1F04949085C494988739DF800008B
:1031C0000A2190FBF1F201FB12004449085C4449DA
:1031D000C8730846C07B40F00800C8739DF8010022
:1031E0000A2190FBF1F03D49085C3D4908749DF8C7
:1031F00001000A2190FBF1F201FB12003749085C43
:10320000374948740846407C40F0080048749DF8EF
:1032100002000A2190FBF1F03049085C30498874C3
:103220009DF802000A2190FBF1F201FB12002B49EC
:10323000085C2B49C8749DF804000A2190FBF1F04A
:103240002649085C264908759DF804000A2190FB70
:10325000F1F201FB12002149085C2149487508463A
:10326000407D40F0080048759DF805000A2190FB5C
:10327000F1F01A49085C1A4988759DF805000A2181
:1032800090FBF1F201FB12001449085C1449C87567
:103290001448007820B10846C07D40F00800C87589
:1032A0001048007808B9012000E000200D4908709E
:1032B0009DF806000A2190FBF1F00849085C0849D6
:1032C00008769DF806000A2190FBF1F201FB12003E
:1032D0000249085C024948760CBD00008499000848
:1032E00094B1002098000020FEB504461B22002166
:1032F0004F48FDF797FD012C02D0022C48D148E041
:103300004C4991F88710002202EB4102494998315B
:1033100051F83200FDF7F7F905462A460B4646A15B
:103320006846FFF7B8FA684602F09FFB684600F06F
:1033300009FD3F48007940F008003D490871084602
:10334000007A40F0080008723A4991F8871001228B
:1033500002EB41023749983151F83200FDF7D3F9B9
:1033600005462A460B4634A16846FFF794FA68469C
:1033700002F07BFB684600F071FC2D48C07840F0FD
:1033800008002B49C8700846407840F00800487093
:103390004AE0284991F88710002202EB41022549B2
:1033A000983101EBC2014868FDF7ADF905462A46A0
:1033B0000B4621A16846FFF76EFA684602F055FBFE
:1033C000684600F0BFFC1A48007940F00800184930
:1033D00008710846C07940F00800C871154991F895
:1033E0008710012202EB41021249983101EBC20120
:1033F0004868FDF788F905462A460B460EA168463F
:10340000FFF749FA684602F030FB684600F026FCF8
:103410000748C07840F008000549C87008460078A1
:1034200040F00800087000BF00BFFFF7A1FEFEBD1E
:1034300094B10020CCB00020252E31662020000061
:103440003EB51B220021FE48FDF7ECFCFD4803C8F9
:10345000FFF7AAFEFB48803890F8870020B10128CA
:1034600044D0022841D183E0F6488038008C10F423
:10347000807F34D0F349803991F88710002202EB25
:103480004101F04A803A52F82100FDF73CF9044628
:1034900022460B46ECA16846FFF7FDF9684602F0AC
:1034A000E4FA684600F04EFCE649803991F887104E
:1034B000012202EB4101E34A803A52F82100FDF774
:1034C00022F9044622460B46DFA16846FFF7E3F9DE
:1034D000684602F0CAFA684600F0C0FB05E0DCA0CE
:1034E00000F030FCDAA000F0B9FB83E0D54880386A
:1034F000008C10F4007F34D0D249803991F88710C5
:10350000002202EB4101CF4A803A52F82100FDF738
:10351000FAF8044622460B46CBA16846FFF7BBF9F2
:10352000684602F0A2FA684600F00CFCC5498039F2
:1035300091F88710012202EB4101C24A803A52F809
:103540002100FDF7E0F8044622460B46BEA168467E
:10355000FFF7A1F9684602F088FA684600F07EFBA2
:1035600005E0BBA000F0EEFBB9A000F077FB41E066
:10357000B4488038008C10F4805F34D0B149803971
:1035800091F88710002202EB4101AE4A803A52F8CE
:103590002100FDF7B8F8044622460B46AAA168466A
:1035A000FFF779F9684602F060FA684600F0CAFB56
:1035B000A449803991F88710012202EB4101A14A08
:1035C000803A52F82100FDF79EF8044622460B4649
:1035D0009DA16846FFF75FF9684602F046FA684623
:1035E00000F03CFB05E09AA000F0ACFB98A000F0D6
:1035F00035FB00BF00BF9248007940F008009049B9
:1036000008710846C07840F00800C8708D488038BE
:10361000B0F8582090A16846FFF73DF96846FFF7DB
:103620000DFD01208649487286488038008C10F4D0
:10363000006F28D08A480078012804DD0846407AC7
:1036400040F00800487286480078022805DD7C4872
:10365000407A40F00C007A4948728148007803288B
:1036600005DD7748407A40F00E00754948727C4885
:1036700001780078401C7A4A1070032936DD012059
:103680001146087032E06F4980398868FDF73BF8D1
:1036900004460022734BFDF75DF805D26848407A76
:1036A00040F0040066494872664980398868FDF731
:1036B0002AF804466C4A6D4BFDF74CF805D2604879
:1036C000407A40F002005E4948725E49803988685D
:1036D000FDF719F804460022654BFDF73BF805D2CB
:1036E0005748407A40F0080055494872554880389C
:1036F00090F89000632801DA012000E00020514991
:10370000803991F89010002901DD012100E00021AD
:10371000084205D04A48407A40F0100048494872B3
:103720004848803890F89000632801DA012000E0D2
:1037300000204449803991F890100A2901DD0121C7
:1037400000E00021084205D03D48407A40F02000CA
:103750003B4948723B48803890F89000632801DA72
:10376000012000E000203749803991F89010142999
:1037700001DD012100E00021084205D03048407AF7
:1037800040F040002E4948722E48803890F8900052
:10379000632801DA012000E000202A49803991F8ED
:1037A00090101E2901DD012100E00021084205D012
:1037B0002348407A40F080002149487221488038EF
:1037C00090F8200010F0100F05D01D48807B40F0CD
:1037D00040001B4988731B48803890F8200010F087
:1037E000010F05D01648007A40F00800144908720D
:1037F0001448803890F8200010F0020F05D01048CF
:10380000C07940F008000E49C8710E48803890F821
:10381000200010F0040F05D00948407840F008005F
:10382000074948700748803890F8200010F0080FCA
:1038300005D00348007840F008000149087019E0FD
:1038400094B100204CB10020252E316620200000CC
:103850002D2D2D2D2D00000025303364202000005B
:103860009900002000000C409A99999999990D406F
:1038700000001040084890F8200010F0400F05D0DC
:103880000648807A40F0100004498872FFF7EEFB8A
:10389000FFF76EFC3EBD0000CCB0002094B10020CC
:1038A000FEB504461B2200215748FDF7BBFA062C43
:1038B00028D2DFE804F0A403284E7399534991F805
:1038C0008710002202EB41025049283151F83200A2
:1038D000FCF719FF05462A460B464DA16846FEF740
:1038E000DAFF684602F0C1F8684600F02BFA464855
:1038F000007940F00800444908710846007A40F019
:10390000080008727BE0414991F88710002202EB21
:1039100041023E49283101EBC2014868FCF7F3FE41
:1039200005462A460B463AA16846FEF7B4FF6846AC
:1039300002F09BF8684600F005FA3348007940F041
:103940000800314908710846C07940F00800C87184
:1039500055E02E4991F88710012202EB41022B49D4
:10396000283151F83200FCF7CEFE05462A460B46B8
:1039700027A16846FEF78FFF684602F076F8684692
:1039800000F06CF92048C07840F008001E49C8706B
:103990000846407840F00800487030E01B4991F834
:1039A0008710012202EB41021849283101EBC201C4
:1039B0004868FCF7A8FE05462A460B4614A168464F
:1039C000FEF769FF684602F050F8684600F046F9D5
:1039D0000D48C07840F008000B49C87008460078D0
:1039E00040F0080008700AE00848B0F858200AA122
:1039F0006846FEF750FF6846FFF720FB00BF00BF98
:103A0000FFF7B6FBFEBD000094B10020CCB0002053
:103A1000252E316620200000253033642020000050
:103A200010B510220C4B83F880201A4692F88020A3
:103A30000A2392FBF3F2094B9A5C094B9A73064AEC
:103A400092F880200A2392FBF3F403FB1422034B29
:103A50009A5C034BDA7310BDCCB000208499000847
:103A600094B10020F0B587B00446002504E00020A2
:103A70006A494855681CC5B2102DF8DB052C2AD2BE
:103A8000DFE804F0032A5179A1006549D1F89800D4
:103A9000FCF739FE064632460B4662A104A8FEF743
:103AA000FAFE5F49D1F89C00FCF72DFE064632462F
:103AB0000B465CA101A8FEF7EEFE04A800F042F957
:103AC00001A800F0CBF85548007940F002005349B6
:103AD0000871A020887391E05149D1F8A000FCF74B
:103AE00012FE064632460B464EA104A8FEF7D3FE50
:103AF0004B49D1F8A400FCF706FE064632460B46B9
:103B000048A101A8FEF7C7FE04A800F01BF901A810
:103B100000F0A4F84148807940F001003F498871E5
:103B2000A02088736AE03E49886AFCF7ECFD0646EF
:103B300032460B463BA104A8FEF7ADFE3849C86AE1
:103B4000FCF7E1FD064632460B4636A101A8FEF71A
:103B5000A2FE04A800F0F6F801A800F07FF82F48B4
:103B6000007940F002002D4908710846007940F0C4
:103B70000100087142E02A49086BFCF7C4FD0646C3
:103B800032460B4629A104A8FEF785FE2449486B5E
:103B9000FCF7B9FD064632460B4624A101A8FEF704
:103BA0007AFE04A800F0CEF801A800F057F81B48F0
:103BB000807940F00100194988710846407940F049
:103BC000010048711AE01BA104A8FEF764FE144826
:103BD00090F8942018A101A8FEF75DFE04A800F05B
:103BE000B1F801A800F03AF800200D4908770B4819
:103BF000807B40F00A000949887300BF00BF0020A5
:103C00000649C873064A92F8851092F88400FFF7B7
:103C100007FFFFF7ADFA07B0F0BD000094B1002038
:103C2000CCB00020252E326620200000252E3266E2
:103C300020000000202020002530336420202000B8
:103C400070B505460C4604480168284601F016FE8A
:103C5000265C304670BD0000780000202DE9F04160
:103C600006460025A8463746042200213348FDF7C2
:103C7000D9F806E038782E2800D105E07F1C681CB2
:103C8000C5B238780028F5D100BF07E038782E2873
:103C900003D008F1010000F0FF087F1C38780028ED
:103CA000F4D13746B8F1000F01D1012000E0002027
:103CB000032D01DD012100E0002108431ED0032D6A
:103CC0000CDD002407E0305D1D49FFF7B9FF1B49FB
:103CD0000855601CC4B2042CF5DB2DE000240AE07A
:103CE000291B705C1649FFF7ABFFC4F10401134AAE
:103CF0005054601CC4B2AC42F2DB1DE005EB08017D
:103D0000705C0F49FFF79CFF0C49C87000240BE062
:103D1000291B491E705C0A49FFF792FFC4F102019A
:103D2000064A5054601CC4B2AC42F1DB03488078B0
:103D300040F0080001498870BDE8F08194B100208E
:103D40009B9900082DE9F04106460025A846374614
:103D5000042200213648FDF765F806E038782E2861
:103D600000D105E07F1C681CC5B238780028F5D169
:103D700000BF07E038782E2803D008F1010000F0DA
:103D8000FF087F1C38780028F4D13746B8F1000FBF
:103D900001D1012000E00020042D01DD012100E01F
:103DA0000021084321D0042D0FDD00240AE0305DFE
:103DB0002049FFF745FFC4F108011D4A121F505466
:103DC000601CC4B2052CF2DB30E000240AE0291BA1
:103DD000705C1849FFF734FF211D154A121F50541B
:103DE000601CC4B2AC42F2DB20E005EB0801705C61
:103DF0001049FFF725FF0E49091F087100240BE049
:103E0000291B491E705C0B49FFF71AFF611D084A08
:103E1000121F5054601CC4B2AC42F1DB0448001FB6
:103E2000407940F008000249091F4871BDE8F0815F
:103E300098B100208499000870B504460D4605F03D
:103E40000F01204600F00EF82911621CD0B200F0DC
:103E500009F8204604EBD0714910014A555470BD51
:103E600094B1002070B504460D464FF400410D4852
:103E7000FEF7F3FE0320FFF771F90321A020FFF7FF
:103E80003DF9A106080E0621FFF738F92907080EAB
:103E90000421FFF733F94FF400410248FEF7EEFE2C
:103EA00070BD00000010014010B504460120A0477D
:103EB0000320A04710BD2DE9FF47074616461C46C4
:103EC000DDE90C899DF804004006000E0190002CED
:103ED00016DD384600F0C0F8012201A9384600F08E
:103EE00076F8054635B93846FFF7DEFF002004B006
:103EF000BDE8F08722463146384600F068F80546AE
:103F0000384600F0A9F89DF8040040F00100019047
:103F1000012201A9384600F05AF805464A464146B2
:103F2000384600F006F80546384600F0ACF828465A
:103F3000DDE72DE9F04704460E461546A94628E080
:103F40004FF00008002714E07806070E0320A04772
:103F50000A2005F0AFFB0520A04708B147F0010794
:103F60000420A0470A2005F0A5FB08F1010000F09D
:103F7000FF08B8F1080FE7DB06F8017B002D04DD30
:103F80000021204600F00DF803E00121204600F05A
:103F900008F82800A5F10101CDB2D1D14846BDE80D
:103FA000F08770B504460D4615B10120A04701E029
:103FB0000220A0470320A0470A2005F07BFB042035
:103FC000A0470A2005F076FB0120A04770BD2DE92F
:103FD000F04704460E461546A94639E016F8018B0F
:103FE000002717E018F0800F02D00120A04701E061
:103FF0000220A0470320A0470A2005F05BFB042015
:10400000A0470A2005F056FB781CC7B24FEA48606B
:104010004FEA1068082FE5DB0120A0470320A047E6
:104020000A2005F047FB0520A04782460A2005F03C
:1040300041FB0420A0470A2005F03CFBBAF1000F29
:1040400004D0A9EB0500C0B2BDE8F087681EC5B278
:10405000002DC3D14846F7E710B504460320A0471A
:10406000052005F027FB0120A0470A2005F022FBD0
:104070000220A0470A2005F01DFB0420A0470A20CB
:1040800005F018FB10BD10B504460220A04714200F
:1040900005F010FB0320A0470A2005F00BFB0120D0
:1040A000A0471E2005F006FB10BD2DE9FF4707467F
:1040B00014461D46DDE90C899DF804004006000EFB
:1040C00001903846FFF7C8FF012201A93846FFF7E3
:1040D0007EFF064636B93846FFF7E6FE002004B0FC
:1040E000BDE8F0872A4621463846FFF770FF0646AE
:1040F0004A4641463846FFF76AFF06463846FFF70C
:10410000C2FF3046EBE710B504462046FEF728FA1A
:1041100010BD10B5FEF764FA10BD01B5002000997E
:10412000CA05D20D03D0012202EB512000E0480A5B
:1041300008BD70B504460D4629462046FEF77CFAB8
:1041400070BD10B5FEF798FA10BD000008B501214A
:10415000082000F05BFE4FF40060ADF80000012085
:104160008DF8020048208DF8030069460848FEF7E4
:1041700055FC4FF48060ADF8000001208DF802007E
:1041800010208DF8030069460148FEF747FC08BD82
:10419000000C01402DE9F041054609492846FCF78D
:1041A0004DF80746FCF77CFA86B2A6F5617032211D
:1041B00090FBF1F0C4B284F020042046BDE8F08109
:1041C000000048437CB5044607226946002000F001
:1041D000D1F805460DB900207CBD9DF8001001F016
:1041E0007F00FCF706FEA0719DF8011001F07F0032
:1041F000FCF7FFFD60719DF8021001F03F00FCF735
:10420000F8FD20719DF8031001F03F00FCF7F1FD6F
:10421000A0709DF8041001F01F00FCF7EAFD60702B
:104220009DF80500FCF7E5FD20709DF80600FCF701
:10423000E0FDE0700120CFE770B504460025062CB4
:1042400033D2DFE804F032030C151E27184A126837
:104250001189174A12685068FEF710FD25E0144ACC
:1042600012681189124A12685068FEF7F6FC1CE0C9
:104270000F4A1268918A0E4A12681069FEF7FEFC16
:1042800013E00B4A1268918A094A12681069FEF716
:10429000E4FC0AE0064A12681189054A126850686F
:1042A000FEF7D2FC00B1012500BF00BF284670BD5B
:1042B000C400002038B5054600242C48056000687D
:1042C000FEF736FC01226946122000F053F804463E
:1042D0009DF800005D2847D01021072000F0DAF893
:1042E00004409021082000F0D5F804402048FFF752
:1042F00051FF00909DF800100A2000F0CBF8044018
:1043000000210B2000F0C6F804405D21122000F0CF
:10431000C1F8044000231A461946184600F03AF83E
:1043200004400021084600F0B5F8044000210120B7
:1043300000F0B0F804408021022000F0ABF8044007
:104340000121032000F0A6F804400121042000F020
:10435000A1F804400021052000F09CF8044006214B
:10436000084600F097F80440204638BDC4000020FD
:104370000000C04037B582B00C461546012302AAA2
:104380006F210348CDE90045FFF795FD05B030BD2D
:10439000394200082DE9F84381460F4690461C46F5
:1043A00001264046FDF761FB8DF800003846FDF719
:1043B0005CFB8DF801004846FDF757FB8DF80200C5
:1043C00014F0010F05D09DF8000040F080008DF83A
:1043D000000014F0020F05D09DF8010040F08000AD
:1043E0008DF8010014F0040F05D09DF8020040F094
:1043F00080008DF80200002509E01DF8051005F188
:104400000C02D0B200F046F80640681CC5B2032D7D
:10441000F3DB002C05DDD021082000F03BF806403E
:1044200004E09021082000F035F806403046BDE851
:10443000F8837CB50446A079FDF717FB8DF80000E2
:104440006079FDF712FB8DF801002079FDF70DFB77
:1044500040F080008DF80200A078FDF706FB8DF893
:1044600003006078FDF701FB8DF804002078FDF76C
:10447000FCFA8DF80500002507E01DF80510E8B2EC
:1044800000F008F80640681CC5B2072DF5DB304681
:104490007CBD000003B583B0012004A9034603AA34
:1044A000CDE900106F210248FFF7FFFD05B000BD08
:1044B0003942000870B504460D462B462246024993
:1044C000024800F005F870BD00F8030895270008C1
:1044D0002DE9F0470746884614461D46A14608EBDD
:1044E000C52004222146B8474E463088B0F5006FFB
:1044F00001DD012000E000203188042901DA0121DA
:1045000000E00021084300D013E0328808EBC5200A
:104510002146B8473088001F81B209F1040003F03A
:1045200009FA82467188514500D002E00120BDE8B9
:10453000F0870020FBE770B505460C46214628466B
:1045400003F0F8F906462046611C8CB22E54321254
:104550002046611C8CB22A54204670BD71B600BF43
:104560000648006800F4E06005490843001D03495F
:104570000860BFF3408F00BF00BFFEE70CED00E016
:104580000000FA0570B5054625B1284603F05AFD2E
:10459000044602E003F020FD044614B1666830468C
:1045A00070BD0020FCE70000F0B59DB005460C464C
:1045B000607A48B1627A04A96068FCF722FC0020A6
:1045C000617A04AA505403E004A9606801F01AFA61
:1045D000207A0D2839D009DC75D2DFE800F0AC1064
:1045E000ACAC231C63ACAC42AC152F0017380728C9
:1045F000F2D2DFE800F03D46A03074825F0028462A
:104600002168FEF748F99BE0606802782846216837
:10461000FEF741F994E06068028828462168FEF7B9
:104620003AF98DE061680868FCF76DF806460B46BC
:10463000324628462168FEF72EF981E0606802784C
:1046400028462168FEF727F97AE02846D4E90012C7
:10465000FEF721F974E004AA28462168FEF71BF949
:104660006EE06068026828462168FEF714F967E08A
:10467000606880470646324628462168FEF70BF9F7
:104680005EE060680078002801DD012000E0002085
:1046900000EB40002C4B03EB400228462168FEF75C
:1046A000FAF84DE0606890F9002028462168FEF78E
:1046B000F2F845E060680068667A0123B34018426A
:1046C00002D0012001E036E0002000EB40001E4B4C
:1046D00003EB400228462168FEF7DDF830E0606811
:1046E000007861684978CDE9001060688378C27805
:1046F00028462168FEF7CFF822E06168098888B271
:1047000001F0BCFA03906168098888B201F0B6FA3A
:1047100002906168098888B201F0B0FA01909DF8B2
:104720000E0000909DF809309DF80420284621686D
:10473000FEF7B1F804E028462168FEF7ACF800BFA8
:1047400000BF1DB0F0BD0000BC99000800BFFEE72F
:10475000054A1168486802E009684A6810440A6816
:10476000002AF9D1704700005C00002002460A4B85
:104770001868002106E0A2F10803834200D107E097
:10478000014600680368002BF5D101B10B6070474A
:1047900003680B6000BFFAE75C0000200146A1F14E
:1047A0000802506808387047054908600021044A2B
:1047B000126811600821024A1268516070470000B7
:1047C0005C00002010B503461048016803F10800A2
:1047D00083B20FE00868401A4C68001B984208D367
:1047E000486842185360086810600A6002F10800C7
:1047F00010BD096808680028ECD1486842180020FC
:10480000106053600A6002F10800F1E75C000020CC
:10481000014600200A4602E00C32431CD8B2137A4B
:10482000002BF9D1704730B5039C7E2505707F259C
:10483000057382704170C373447330BD2DE9F05F1E
:1048400006460C4691469A46DDF828B00C9F002596
:1048500084F8039084F804A084F808B0678117B145
:10486000F81CE08001E00020E08022782846691CE6
:104870008DB23254E07B50B9A2782846691C8DB2C3
:10488000325462782846691C8DB232540CE0E07BC9
:10489000012809D162782846691C8DB23254A27869
:1048A0002846691C8DB23254E2782846691C8DB2C4
:1048B000325422792846691C8DB23254E0880212A3
:1048C0002846691C8DB23254A2792846691C8DB2E3
:1048D0003254BFB1227A2846691C8DB232546089A5
:1048E00002122846691C8DB23254A27A2846691CED
:1048F0008DB23254628971190B98FCF782FA608983
:10490000284485B2607B012810D12946304603F047
:1049100011F880464FEA28222846691C8DB232548D
:104920002846691C8DB206F800800BE0607B0228E7
:1049300008D1681E81B2304603F038F829466A1C57
:1049400095B27054227B2846691C8DB23254284699
:10495000BDE8F09F2DE9F05F06468B461446002522
:10496000AA460120A07329466D1C705C21788842FC
:1049700000D099E0E07B50B92846691C8DB2305CCC
:104980006178884200D093E0681C85B220E0E07B2B
:1049900001281DD12846691C8DB216F80080A07828
:1049A000404501D0012000E00020B8F1FF0F01D008
:1049B000012100E00021084200D079E0681C85B2A6
:1049C000B8F1FF0F02D14FF0010901E04FF00009EB
:1049D0002846691C8DB2305CE0702846691C8DB297
:1049E000305C20712846691C8DB2305CE080E08824
:1049F0004FF6FF7101EA0020E080E08829466A1C3A
:104A000095B2715C0843E080E08800B32846691CD9
:104A10008DB2305C20722846691C8DB2305C60819A
:104A200060894FF6FF7101EA0020608160892946A4
:104A30006A1C95B2715C08436081AA46608928446B
:104A400085B2E1886089C01C814200D034E0607B7F
:104A5000022809D12946304602F0A8FF0746715DB9
:104A6000B94200D01CE010E0607B01280CD129463F
:104A7000304602F05FFF074670190121FEF75AFA2F
:104A8000B84200D00CE000E000BFB9F1010F02D144
:104A90000620A07301E00020A0735046BDE8F09FFF
:104AA0000220A0730020F9E70520A0730020F5E79D
:104AB0000620A0730020F1E70120A0730020EDE79D
:104AC0007047000070B5002100230F22C4780CB39A
:104AD000164C246804F4E064C4F5E064210AC1F1D2
:104AE0000403CA40447804FA03F184781440214353
:104AF00009010F4C0678A155047804F01F05012424
:104B0000AC4005786D114FF0E02606EB8505C5F841
:104B1000004109E0047804F01F050124AC40054D74
:104B20000678761145F8264070BD00000CED00E0D7
:104B300000E400E080E100E002490143024A116024
:104B4000704700000000FA050CED00E00149086222
:104B50007047000000000E420A48006840F0040060
:104B6000084908600846006840F0020008600648EE
:104B7000006840F004000449086000BF00BF30BF77
:104B8000704700000070004010ED00E010B50246D4
:104B900000200C4B186820F00300104318600A4BEB
:104BA0001B6843F00403084C2360012901D130BF86
:104BB00000E020BF044B1B6823F00403024C236079
:104BC00010BD00000070004010ED00E001490860D9
:104BD00070470000A0000E427047000010B503228D
:104BE00009A10CA0FCF75EFE03220EA111A0FCF7A8
:104BF00059FE0322134914A0FCF754FE032217495F
:104C000017A0FCF74FFE10BD545035303056322DF2
:104C100047000000426F6172645F4E616D653A2526
:104C20007300000053544D333246313033524254F6
:104C3000360000004350555F4D6F64656C3A257334
:104C40000000000000127A004370755F4F53435F0D
:104C5000465245513A2025644D687A0000A24A0424
:104C60004370755F467265713A2025644D687A001D
:104C70007047000000B585B06846FEF78DF8032246
:104C8000694602A0FCF70EFE05B000BD4F6E6C79C0
:104C900049443A25730000007047000010B5032115
:104CA00008A0FCF7FFFDFFF799FFFFF7E1FFFFF713
:104CB000E1FFFCF725FF00F013F8FFF7EDFF00F030
:104CC0002FF810BD0A546F732053797374656D20EB
:104CD00053746172742E2E2E2E2E2E2E2E2E2E00FA
:104CE00010B5FEF711F9044603232246142102A051
:104CF000FCF7D8FD10BD00005461736B506F6F6CF2
:104D000053697A653A25642062757420686173205E
:104D10002564207461736B206372656174652E0075
:104D200038B500241DE004EB44001549096801EB87
:104D30000010C06A98B10320009004EB44001049B1
:104D4000096801EB0010038C04EB44000C4909686E
:104D500001EB00102146C26A0AA0FCF7A3FD601C0B
:104D6000C4B2142CDFDB601EC4B2FFF7F1FC0546B1
:104D700003232A464AF6C87107A0FCF793FD38BD05
:104D80004C0000205461736B5B25645D4E616D6562
:104D90003A257328256429004D656D6F7279536932
:104DA0007A653A25642062757420757365723A25B8
:104DB0006400000001460020034A506820F440408F
:104DC00008435060704700000010024029B1064AB5
:104DD00052690243044B5A6104E0034A5269824318
:104DE000014B5A61704700000010024029B1064A89
:104DF000D2690243044BDA6104E0034AD269824378
:104E0000014BDA61704700000010024029B1064AE8
:104E100092690243044B9A6104E0034A9269824317
:104E2000014B9A61704700000010024029B1064A08
:104E3000D2680243044BDA6004E0034AD26882433A
:104E4000014BDA60704700000010024030B50021CD
:104E50000022002400232D4D6D6805F00C0121B1C6
:104E6000042905D0082923D105E0294D056022E059
:104E7000274D05601FE0254D6D6805F47012234D28
:104E80006D6805F48034022505EB92421CB9214D72
:104E9000554305600BE01D4D6D6815F4003F03D0D0
:104EA0001C4D5543056002E0194D5543056002E075
:104EB000174D056000BF00BF144D6D6805F0F0018F
:104EC0000909154D6B5C0568DD4045600F4D6D6847
:104ED00005F4E061090A104D6B5C4568DD408560B2
:104EE0000A4D6D6805F46051C90A0B4D6B5C45684D
:104EF000DD40C560054D6D6805F44041890B074DE7
:104F00006B5CC568B5FBF3F5056130BD0010024070
:104F100000127A0000093D0000000020100000206F
:104F200010B501210148FDF747FE10BD0002300019
:104F300021B1028842F04002028004E002884FF66C
:104F4000BF731A400280704770B505460C4616467E
:104F500010211048FDF781FE032000F05DF9C4F335
:104F6000074000F059F9C4F3072000F055F9E0B20A
:104F700000F052F904E0FF2000F04EF928706D1C9B
:104F80003000A6F101018EB2F5D110210148FDF7E4
:104F900075FE70BD000801402DE9F05F07460E4622
:104FA00014464FF00008C146C2460025AB4606F045
:104FB000FF0ACAF10000C5B22046E11704EB115107
:104FC000C1F30738E11704EB11510913A4EB0131C8
:104FD00001F0FF09BAF1000F20D1B8F1000F05D19F
:104FE00022463146384600F0C5F864E009E04FF447
:104FF00080523146384600F0BDF806F5805607F578
:1050000080575FEA0800A8F1010101F0FF08EED126
:105010004A463146384600F0ADF84CE0B8F1000F92
:1050200018D1A94510DDA9EB050000F0FF0B2A46B9
:105030003146384600F09EF82E442F445A463146F9
:10504000384600F097F836E022463146384600F000
:1050500091F830E0601B84B22046E11704EB115157
:105060004FEA2138E11704EB11510913A4EB013188
:1050700001F0FF092A463146384600F07BF82E44FD
:105080002F4409E04FF480523146384600F072F860
:1050900006F5805607F580575FEA0800A8F1010180
:1050A00001F0FF08EED1B9F1000F04D04A463146B5
:1050B000384600F05FF8BDE8F09F000000B587B00B
:1050C00001212420FFF7A2FE01210803FFF79EFE25
:1050D0002020ADF8040003208DF8060018208DF87C
:1050E000070001A92148FDF799FC4020ADF8040014
:1050F00001A91E48FDF792FC8020ADF8040001A92B
:105100001A48FDF78BFC1020ADF804008DF807005D
:1051100001A91648FDF782FC10211448FDF7AEFDE9
:105120000020ADF808004FF48270ADF80A000020AE
:10513000ADF80C000220ADF80E000120ADF8100013
:105140004002ADF812003820ADF814000020ADF890
:1051500016000720ADF8180002A9054800F0AEF8C7
:1051600001210348FFF7E4FE07B000BD000801403D
:105170000030014070B505460C46164600F080F838
:1051800010211348FDF769FD022000F045F8C4F333
:10519000074000F041F8C4F3072000F03DF8E0B20A
:1051A00000F03AF8B6F5805F01DD4FF4805603E079
:1051B000287800F031F86D1C3000A6F101018EB2A4
:1051C000F6D110210248FDF759FD00F041F870BDFD
:1051D0000008014010B5044600F052F800F038F81D
:1051E00010210C48FDF739FD202000F015F8C4F31C
:1051F000074000F011F8C4F3072000F00DF8E0B20A
:1052000000F00AF810210348FDF738FD00F020F8FF
:1052100010BD00000008014010B5044600BF022187
:105220000A4800F03DF80028F9D02146074800F070
:1052300043F800BF0121054800F032F80028F9D0FA
:10524000024800F036F8C0B210BD00000030014046
:1052500010B5002410210948FDF7FFFC0520FFF7D9
:10526000DBFF00BFFF20FFF7D7FF044614F0010F5C
:10527000F8D110210148FDF701FD10BD00080140E3
:1052800010B510210548FDF7E8FC0620FFF7C4FF24
:1052900010210248FDF7F2FC10BD0000000801409B
:1052A0000246002013890B4201D0012000E00020BB
:1052B00070470146888970478181704710B5002288
:1052C000028802F441520B884C8823438C88234384
:1052D000CC8823430C8923434C8923438C89234363
:1052E000CC8923431A430280838B4FF2FF742340FF
:1052F00083830B8A038210BD7047000070B504469B
:105300000D462B4622460249024800F017F870BDB0
:1053100000F80308B127000810B5182004490880D8
:1053200000230A460349044800F008F810BD0000B5
:10533000B0B10020004C0008B12700082DE9F0476B
:105340008046894614461F4625462E463088001F53
:1053500081B2201D02F0EEFA7080328809EBC7207E
:105360002946C047BDE8F087BAB0064637463846FA
:1053700003F042FB0120034605220146009004A8E9
:10538000FFF751FABCE1DF4908683221FBF7FAFD6B
:10539000002332221946384603F022FC0546D9493B
:1053A00004AA08682946FFF7D5FA0546ECB29DF82D
:1053B0001E0000286FD19DF81300292851D009DC68
:1053C0000B2869D2DFE800F056415C4750611F2589
:1053D0002B3731004C287DD00CDC36287BD004DC08
:1053E000342879D0352857D1B3E03C2855D04B2804
:1053F000F9D11DE14D2870D04E286FD04F286ED0C6
:105400005028F0D13BE108A9BFA000F0FBFA054607
:105410003EE108A9BEA000F0F5FA054638E108A96A
:10542000BDA000F0EFFA054632E108A9BDA000F0EA
:10543000E9FA05462CE1002004230322BFA10090D5
:1054400008A8FDF728FA0A2522E108A9BFA000F064
:10545000D9FA05461CE108A9BEA000F0D3FA05461A
:1054600016E100F0EDFB13E108A9BCA000F0CAFAB8
:1054700005460DE108A9BAA000F0C4FA054607E107
:1054800008A8FDF789FC102502E108A9B6A000F0E4
:10549000B9FA0546FCE01EE1F4E0B74800220168D5
:1054A00008A8FDF7C4F90546B34A516808AA50197F
:1054B0000022FDF7BCF90544AF4A916808AA5019CB
:1054C0000022FDF7B4F90544AC48027829466D1C6A
:1054D00008A805E006E021E010E06EE05FE066E08D
:1054E0004254D5E087490968085DFCF7B7FA08A976
:1054F000A348006800F086FA0546C9E0814A1368AF
:10550000621C995C7F4A1268105DFEF795FC08A941
:105510009B48006800F076FA0546B9E079480068D3
:10552000025D9548283050F83210002208A8FDF797
:105530007EF90546734A1268135D8F4A283202EBE2
:10554000C302516808AA50190022FDF770F90544FA
:105550009EE06C490A68611C5018FDF764F9014629
:1055600068480068025D8448283040F83210654978
:105570000A68611D5018FDF756F901466148006838
:10558000025D7D48283000EBC200416008A97C48DC
:10559000006800F037FA054601F0A4FE78E05949AA
:1055A0000968081901F002FD4FF6FF7570E001F07F
:1055B000DDF8FEF7D3FF00256AE052480068005D81
:1055C0006D4981F880004F480168601C095C6A4899
:1055D00080F881104B480168A01C095C664880F87F
:1055E000821048480168E01C095C634880F8841018
:1055F00044480168201D095C5F4880F885104148D7
:105600000168601D095C5C4880F886103D480168AF
:10561000A01D095C584880F8831008A95848006804
:1056200000F0F0F9054654488030FEF702FF2FE005
:1056300034480068005D012802D002281CD112E025
:10564000304A1368A21C99182E4A1368621C985C91
:10565000FBF7F6FB2B490A68611C505C08A9FBF7B5
:1056600077FC054609E027490A68611C505C08A9D7
:10567000FBF76EFC054600E000BF00BF08E03046C7
:10568000FCF7A2FD08A93FA000F0BCF9054600BF49
:1056900000BFA5F57F40FF3832D0012000901948A7
:1056A000006881780123052204A8FFF7BCF808A848
:1056B0000121CDE901050091344901231A4608680A
:1056C00004A9FFF7BBF8054630482A460168304870
:1056D00003F0F2FA14E09DF81E00062810D09DF8A1
:1056E0001E00052806D107480122016829A0FCF701
:1056F000D9F805E09DF81E10032227A0FCF7D2F888
:1057000041E60000C80000205620322E3130000053
:105710005620362E313200005452544F5320342E2E
:10572000300000004A756E2020352032303137209D
:105730002D2031313A34303A35330000562025647B
:105740002E25642E2564206E000000005450353054
:10575000305632005254552D545000004E42000035
:1057600048656C6C6F00000053544D333246313045
:105770003352425436000000CCB0002040000020DC
:10578000900000204E756C6C00000000DC000020D2
:1057900000380140257300002564000008B5002092
:1057A000304981F88800084690F85C0010F0400FFE
:1057B00037D001212C48FCF76BF869466846FBF7A7
:1057C000DFFC30B9274890F88800401C254981F853
:1057D000880020212448FCF75BF869466846FBF7FF
:1057E000CFFC30B91F4890F88800401C1D4981F853
:1057F000880040211C48FCF74BF869466846FBF7D7
:10580000BFFC30B9174890F88800401C154981F852
:105810008800144890F88810032214A0FCF742F87E
:105820001BE001211048FBF7E5FFFBF779FE30B9DB
:105830000C4890F88800401C0A4981F88800202113
:105840000948FBF7D7FFFBF76BFE30B9054890F826
:105850008800401C034981F88800024890F88800BD
:1058600008BD0000CCB0002000100140B4ABB8D09F
:10587000C6F7CDB3BCC62564000000000246002078
:1058800006E00B78934200D17047431CD8B2491C04
:105890000B78002BF5D100BFF6E710B500F002F849
:1058A00010BD00000CB50020019000903248006847
:1058B00040F480303049086000BF2F48006800F491
:1058C000003000900198401C0190009818B9019890
:1058D000B0F5A06FF1D12848006810F4003F02D065
:1058E0000120009001E0002000900098012842D1A2
:1058F0002248006840F0100020490860084600680F
:1059000020F0030008600846006840F002000860CC
:105910001948406818494860084640684860084689
:10592000406840F4806048600846406820F47C107D
:1059300048600846406840F4E8104860084600683F
:1059400040F08070086000BF0B48006810F0007FD6
:10595000FAD00948406820F003000749486008462B
:10596000406840F00200486000BF0348406800F013
:105970000C000828F9D10CBD0010024000200240A4
:1059800003461AB908125870197002E0081218700C
:1059900059700220704700001FB504460121052000
:1059A000FFF734FA0120ADF80C0028208DF80F0025
:1059B00003A91348FDF732F800210846FCF7DEFF83
:1059C0000120009000208DF8040008208DF80500CB
:1059D00001208DF806006846FCF778FD06208DF85A
:1059E000080002208DF809008DF80A0001208DF8CA
:1059F0000B0002A8FFF766F8204600F0D1F81FBDA3
:105A00000008014030B503460C46002019462246E6
:105A100005E011F8015B02F8015B451CA8B20D78A6
:105A2000002DF6D1157030BD2DE9F04106460D462A
:105A30002C4637462846FDF75BFA04443046FDF70E
:105A400057FA804618F1010001D1BDE8F08103E06A
:105A500017F8010B04F8010B5FEA0800A8F1010830
:105A6000F6D104F8010B00BFEFE730B501460A4656
:105A7000002008E01378202B04D015780346441C3E
:105A8000E0B2CD54521C1378002BF3D1002503460D
:105A9000441CE0B2CD5430BD10B50246087888B140
:105AA0000CE0002305E0C818407808B9104610BD86
:105AB0005B1CD05CCC5CA042F5D0521C1078002856
:105AC000EFD1F4E71046F2E72DE9FC4305460E4618
:105AD0001446A8463746A446002110E003F00F0004
