:020000040800F2
:10000000C0A2002045010008F91D0008F9190008E8
:10001000511D0008C9070008D54100080000000074
:10002000000000000000000000000000F9210008AE
:1000300001110008000000003D200008BF2A000850
:100040005F0100085F0100085F0100085F01000810
:100050005F0100085F010008291500085F01000822
:100060005F0100085F0100085F0100085F010008F0
:100070005F0100085F0100085F0100085F010008E0
:100080005F0100085F0100085F0100085F010008D0
:10009000CD4100085F0100085F0100085F01000812
:1000A0005F0100085F0100085F0100085F010008B0
:1000B0005F0100085F0100085F0100085F010008A0
:1000C0005F0100085F0100085F0100085F01000890
:1000D0005F010008E538000839390008993900083F
:1000E0005F0100085F010008B14000085F010008DF
:1000F0005F0100085F0100085F0100085F01000860
:100100005F0100085F0100085F0100085F0100084F
:100110003D380008913800085F0100085F010008C1
:100120005F0100085F0100085F0100085F0100082F
:10013000DFF80CD000F0C2FA004800475D4E00081E
:10014000C0A200200648804706480047FEE7FEE7B9
:10015000FEE7FEE7FEE7FEE7FEE7FEE7FEE7FEE777
:10016000212B0008310100082DE9FE4F804681EA6D
:100170000300C00F0C46009021F0004123F0004521
:10018000B8EB0200A94105D24046214690461C46E4
:100190000B46024623F00040104304D1404621465E
:1001A00003B0BDE8F08F270DC7F30A00C3F30A516F
:1001B0000290401A0190402866DAC3F3130040F41D
:1001C000801B0098924620B10023D2EB030A63EB18
:1001D0000B0B01985946C0F14002504600F0B2F9AD
:1001E00006460D4650465946019A00F0CAF910EBF2
:1001F00008006141002487EA115284EAE7731A4338
:100200003BD0009A3AB3019A012A4FEA075210DC18
:10021000001B61EB02014FF0004202EA0752CDE9F8
:100220000042001C41F5801132462B4600F0C8F90F
:10023000B6E7001B61EB0201001C41F580130018BA
:100240005B412018A2F5001747EB030140EAD57087
:10025000B6196D4111E06D084FEA360645EAC075E2
:100260004FEA0752001B61EB0201001C41F58011AF
:1002700049084FEA30000019514132462B4603B07D
:10028000BDE8F04F00F08FB9009801224000002334
:10029000D0EB020263EBE073009821464FEAE07472
:1002A000B8EB000061EB0401E9E783F000435BE792
:1002B00081F0004158E72DE9FE4F81EA030404F084
:1002C000004421F0004100944FF0000B23F0004364
:1002D00050EA010402D052EA030404D1002001468E
:1002E00003B0BDE8F08FC3F30A54C1F30A552C44A0
:1002F000A4F2F3340194A0FB0254C1F3130141F4BE
:100300008011C3F3130343F4801301FB024400FB89
:10031000034E840A970A44EA815447EA8357A4FBB0
:10032000076802958D0A05FB07854FEA932C04FBAD
:100330000C542705029D4FEA065847EA1637B5EBDD
:1003400008056EEB070C870E920E47EA811742EA0A
:100350008312A7FB0201B6EB0B0164EB00042B0D2B
:1003600043EA0C335E1844EB1C50DA465146E7FB77
:100370000201C5F313044FEA0B3343EA14534FEA67
:100380000432019C43EA0603A4F10C040294009C8D
:10039000CDE900B400F014F9A2E72DE9F04D81EAAF
:1003A000030404F0004B21F0004514464FF0000A0E
:1003B00023F0004150EA050220D054EA01021DD08A
:1003C000C5F30A570246C5F31303C1F31300C1F383
:1003D0000A5640F4801543F48013A7EB0608101B5F
:1003E000D64608F2FD3873EB050002D308F1010888
:1003F00001E092185B41B8F1000F03DA00200146DA
:10040000BDE8F08D00204FF48011064684460EE0D2
:10041000171B73EB050705D3121B63EB050306439C
:100420004CEA010C49084FEA300092185B4150EA4F
:100430000107EDD152EA030012D082EA040083EAF8
:100440000501084303D100224FF0004308E0101BD0
:10045000AB4102D20122002302E06FF001025310EF
:100460001AEB06004CEB085110EB0A0041EB0B01B4
:10047000BDE8F04D00F097B870B5C1F30A5201F035
:1004800000450024C1F3130140F2FF3341F4801111
:100490009A4201DA002070BD40F233439A42A2F240
:1004A000334203DC524200F05CF800E090402C4301
:1004B000F1D0404270BD30B50B46014600202022ED
:1004C000012409E021FA02F59D4205D303FA02F561
:1004D000491B04FA02F52844151EA2F10102F1DCC1
:1004E00030BD2DE9F05F0546002092469B468846C8
:1004F0000646814640241BE02846414647462246A0
:1005000000F02FF853465A46C01A914110D31146B5
:100510001846224600F016F82D1A67EB01084F46E0
:1005200022460120002100F00DF817EB00094E4192
:10053000201EA4F10104DFDC484631462A4643462A
:10054000BDE8F09F202A04DB203A00FA02F10020E7
:1005500070479140C2F1200320FA03F31943904001
:100560007047202A04DB203A21FA02F0002170476C
:1005700021FA02F3D040C2F120029140084319460B
:100580007047202A06DBCB17203A41FA02F043EAF3
:10059000E07306E041FA02F3D040C2F1200291403C
:1005A00008431946704710B5002B08DA401C41F18A
:1005B000000192185B411A4301D120F0010010BDE7
:1005C0002DE9F04D92469B4611B1B1FA81F202E05D
:1005D000B0FA80F220329046FFF7B4FF04460F468F
:1005E00040EA0A0041EA0B0153465A46084303D148
:1005F00020463946BDE8F08D114653EA010015D07A
:10060000C8F140025046FFF7ACFF05460E46504683
:1006100059464246FFF796FF084301D0012000E00B
:100620000020054346EAE0762C4337430A984FEA18
:100630004453A0EB08004FEAD4240A304FF00002E4
:1006400044EA47544FEAD72502D500200146D1E7B6
:10065000010510196941DDE9084500196941BDE846
:10066000F04DA0E7C1F30A52C1F3130140F2FF338A
:1006700041F480119A4202DA00200146704740F2AC
:1006800033439A42A2F2334202DC5242FFF769BF7F
:10069000FFF758BF30B5002904DB4FF0004440425B
:1006A00064EB0101002B04DB4FF00044524264EB89
:1006B0000303994208BF904230BD0000064C074D2D
:1006C00006E0E06840F0010394E807009847103422
:1006D000AC42F6D3FFF730FDE8500008085100089F
:1006E00070B501EB020410F8015B15F0070301D1AE
:1006F00010F8013B2A1106D110F8012B03E010F885
:10070000016B01F8016B5B1EF9D12B0705D40023A7
:10071000521E0FD401F8013BFAE710F8013B02F139
:100720000202A1EB030303E013F8015B01F8015B94
:10073000521EF9D5A142D6D3002070BD82B02DE95A
:10074000FF1FEFF3038001B4684600F1400000E9A9
:1007500001400C480168C1F800D00B48D0F800D027
:1007600001BC80F30388BDE8FF1F01B000BD06484F
:10077000D0F800D001BC80F30388BDE8FF1F01B0B2
:1007800000BD00003C0000203800002006E04FF4CF
:100790007A7100BF0A00A1F10101FBD10200A0F1B2
:1007A0000100F4D17047F0B5034600201C460D4609
:1007B000104603E014F8016B05F8016B1600A2F176
:1007C0000107BAB2F6D1F0BD00BFFEE70146CAB2DA
:1007D0000B1243EA0220704710B5002469E147F686
:1007E000FF70B9490860B948008800F00F00B849A7
:1007F00008700846007800287DD1B3484438006866
:1008000000F44050B3490880AF484438006800F015
:100810003000B1490880AC49443909684BF68F7201
:1008200001EA020080F40050A749443908600968D1
:1008300048F6BF7201EA020080F02000A249443964
:100840000860A248008810F0100F38D108460068F0
:1008500048F60F7108409C494439086001F00AFAD3
:100860009949443909684BF68F7201EA02009949A7
:10087000098811F4805F01D080F48050954909887F
:1008800011F4005F01D080F400508F4944390860B2
:10089000096848F6BF7201EA02008F49097811F031
:1008A000100F01D080F010008B49097811F0200F53
:1008B00001D080F0200084494439086010BD82488E
:1008C0004438006884B214F0800F3BD07E4844382E
:1008D000006848F60F7108407B494439086001F010
:1008E000C9F97949443909684BF68F7201EA020067
:1008F0007849098800E0A3E011F4805F01D080F41A
:1009000080507449098811F4005F01D080F40050D0
:100910006D4944390860096848F6BF7201EA02006F
:100920006D49097811F0100F01D080F010006A496C
:10093000097811F0200F01D080F02000624944397D
:100940000860BBE714F4006F3BD05F484438006890
:10095000C0F30E0048F68F7108405B4944390860C7
:1009600001F0DEFD5849443909684BF68F7201EAFF
:1009700002005849098811F4805F01D080F480504A
:100980005449098811F4005F01D080F400504E49A9
:1009900044390860096848F6BF7201EA02004E490E
:1009A000097811F0100F01D080F010004A49097841
:1009B00011F0200F01D080F0200043494439086035
:1009C0007CE714F4004F74D03F4844380068C0F30B
:1009D0000E0048F68F7108403B494439086001F029
:1009E000F1FA3949443909684BF68F7201EA02007D
:1009F0003849098811F4805F01D080F4805035496E
:100A0000098811F4005F01D080F400502E49443968
:100A10000860096848F6BF7201EA02002E490978A9
:100A200011F0100F01D080F010002B49097811F05F
:100A3000200F01D080F020002349443908603DE7B1
:100A4000234800782049443951F8200084B214F436
:100A5000004F15D01E48007851F82000C0F30E005A
:100A600048F68F7108401A490978174A443A42F803
:100A7000210017490978491E184A52F82100804779
:100A800014F0800F15D0124800780F49443951F8FE
:100A9000200048F60F7108400D4909780A4A443A87
:100AA00042F821000A490978491E0D4A52F82100EE
:100AB00080470548006880B20449088010F4004F60
:100AC0007FF48DAE00BFF9E6445C00409001002049
:100AD000780100208C0100208E010020C000002041
:100AE000A4000020084951F8201011F4804F0AD0CA
:100AF000054951F8201048F68F72114041F48041A9
:100B0000014A42F820107047005C0040084951F843
:100B1000201011F0400F0AD0054951F8201048F676
:100B20008F72114041F04001014A42F82010704795
:100B3000005C004002E0002200F8012B0A00A1F155
:100B4000010399B2F7D17047044951F8201048F6D3
:100B50008F621140014A42F820107047005C00404B
:100B60002DE9F0472848006800F110052E88264836
:100B70000068077AD6B9042F18D1244800780128D4
:100B80000FD100212248006880B2801C214A42F81F
:100B9000101030202049088000BF00201B49087039
:100BA00003E0072710201C49088027E0AC88A642F4
:100BB00001D8042000E002200746B44200D93446A0
:100BC000A0B2A96888478046002000F0BDFE81469B
:100BD000A2B24946404603F007FBA1B2002001F053
:100BE000A7FB2888001B2880688820446880302064
:100BF0000949088000020949088000BF02490968C4
:100C00000F72BDE8F08700007C0100207D0000200D
:100C1000505C0040006000408E0100208C010020EC
:100C20002DE9F0412848006800F110042688A068EA
:100C3000C0B1BEB1A588B54200D93546A8B2A168F9
:100C4000884707462088401B2080608828446080B1
:100C5000002000F057FE8046AAB24146384601F017
:100C6000D9F900BF208850B14FF44050174908808F
:100C70000021084601F05CFB3020154908802088DF
:100C8000A188884204DB03200F490968087218E034
:100C90002088002804DD05200B490968087210E04F
:100CA000208870B90620084909680872002109489F
:100CB000006880B2801C084A42F8101030200449B5
:100CC0000880BDE8F08100007C0100208C0100203C
:100CD0008E010020505C0040006000402DE9F84F7C
:100CE0009848006845780027BA46062D1AD19548DD
:100CF0000068007810F07F0F13D192490968887856
:100D0000012803D190490968CF690AE0022803D17C
:100D10008D4909680F6A04E0032802D18A490968ED
:100D20004F6A90E0002D60D1864800684088002816
:100D30005BD184480068C088022856D18148006889
:100D40000079002851D17F480068007810F07F0FAB
:100D500005D17C480068808808B97C4F73E07948E9
:100D60000068007800F07F00012810D175490968FB
:100D70004879754909688A6900219047002862D13D
:100D800070480068807A00285DD0704F5BE06D4845
:100D90000068007800F07F00022854D1694800689C
:100DA000407900F00F0667480068407900F070094C
:100DB00064480068407910F0800F05D0644850F80E
:100DC000260000F0300804E0614850F8260000F4E6
:100DD000405860480078B04235D9B9F1000F32D19F
:100DE000B8F1000F2FD0594F2DE0082D07D15548ED
:100DF0000068007810F07F0F25D1574F23E00A2DAF
:100E000021D150480068007800F07F0001281AD1F5
:100E10004C480068807AB0B14A480068408890B970
:100E200048480068007970B946480068C0880128C1
:100E300009D1444909684879434909688A69002108
:100E4000904700B9454F57B13E480068A0F812A03E
:100E50003C48006887610020B84700240FE0394A09
:100E600012685078384A1268116988470446032C82
:100E700005D10920334909680872BDE8F88F314867
:100E80000068008AA0F57F41FF3904D109202D496F
:100E900009680872F1E7022C03D02A480068008A2A
:100EA00020B90820274909680872E6E72548006844
:100EB000007810F0800F3CD022480068C088009075
:100EC00020480068008A0099884204D91D4900988A
:100ED0000968088223E01B480068008A19490968EC
:100EE000C98888421BDA17480068008A16490968D1
:100EF00091F82C10884203DA0020194908700EE09E
:100F000010480068008A1049096891F82C1090FB7D
:100F1000F1F201FB120010B90120114908700A48D2
:100F2000006890F82C10074800688182FFF718FECF
:100F300006E0032003490968087200030949088094
:100F400000BF9AE77C0100208001002011280008E2
:100F5000005C0040E800002095270008E527000815
:100F60007D0000208C0100200FB42DE9F04186B0F7
:100F7000002501260027B00200F018FF044654485F
:100F80000078FF2801D1012000E0002050490978B5
:100F9000504A1278914201D1012100E0002108431A
:100FA0007DD00DA805902046059A0C9903F0DEFA35
:100FB000002005900DA8059069460C9800F04EFCA5
:100FC00006462AE02846691CCDB21DF8000001281B
:100FD00004D0022806D003281AD115E0059880C84D
:100FE000059019E00598C01D20F007000590D0E994
:100FF0000021DDF814C00CF1080C1046CDF814C027
:10100000FFF73AFA074607E0059880C8059003E025
:10101000059880C8059000BF00BF3000A6F101060A
:10102000D0D1059880C80590002005902A48007806
:10103000FF2801D1012000E0002027490978B942AA
:1010400001DB012100E00021084338D0214623A024
:1010500001F014FD2248007810F0020F0DD0214954
:10106000087800F033FA40B1204600F090FC80464A
:10107000424621461C4803F003F81948007810F056
:10108000040F0FD01749487800F020FA50B12046DD
:1010900000F07DFC804642462146144800E00EE008
:1010A00002F0EEFF1248006848B1204600F06FFCE5
:1010B00000F0FF08414620460D4A1268904720463E
:1010C00000F048FE06B0BDE8F0015DF814FB00003A
:1010D00068000020480000206A0000200D0A00007F
:1010E0006900002014000020003801400044004046
:1010F0006C00002001490860704700006C0000206F
:101100007047000010B500201A4908704FF4A07015
:1011100000F04CFE18490860002406E0FF20174943
:10112000085517490855601CC4B2052CF6DB00248D
:101130001DE000201049096801EB441148610320BB
:101140000D49096801EB4411087200200A49096839
:1011500001EB441108610849096801EB4411C860BA
:101160000549096801EB44118861601CC4B20A2C6E
:10117000DFDB10BD580000205C00002014000020C0
:10118000190000202C4909782C4A11702A49097845
:10119000491C294A117029490978294A1268274BA4
:1011A0001B7802EB4312117126A1254A1268234BCA
:1011B0001B7802EB431211600021214A12681F4B79
:1011C0001B7802EB4312517102221D4909681B4B27
:1011D0001B7801EB4311CA71012219490968174BA9
:1011E0001B7801EB43110A721849154A1268134B18
:1011F0001B7802EB43125161114909680F4A1278BA
:1012000001EB4211C86100220D4909680B4B1B78A4
:1012100001EB4311CA600021094A1268074B1B7891
:1012200002EB43121161002205490968034B1B7848
:1012300001EB43118A61704758000020280000200C
:101240005C0000204750494F000000008D16000848
:1012500070B50546284602F0B3FD04465F48005DC0
:10126000FF2808D15E4800785C4908555C48007842
:10127000401C5B4908705BA05849095D5B4A1268D5
:1012800002EB4111086000205449095D574A126879
:1012900002EB4111487101205049095D534A12681F
:1012A00002EB4111C87103204C49095D4F4A126895
:1012B00002EB411108724E484849095D4B4A1268D9
:1012C00002EB411148614548005D4849096801EB5E
:1012D0004010C46147494148005D444A126802EB2E
:1012E0004010C16044483D49095D404A126802EB24
:1012F0004111086100213948005D3C4A126802EB47
:101300004010816100203D4921F814004FF496708F
:1013100000F04CFD3A4941F82400284602F050FD07
:1013200004463848005DFF2808D12D48007835492B
:1013300008552B480078401C2949087032A03149D3
:10134000095D2A4A126802EB4111086000202D490C
:10135000095D264A126802EB4111487101212948B2
:10136000005D224A126802EB4010C171032025493A
:10137000095D1E4A126802EB411108721C4921489E
:10138000005D1A4A126802EB401041611D48005D81
:101390001649096801EB4010C46116481949095DF6
:1013A000124A126802EB4111C86013481549095DE1
:1013B0000E4A126802EB4111086100201149095DD3
:1013C0000A4A126802EB411188614FF4967000F0EE
:1013D000EDFC0F4941F8240070BD00001900002009
:1013E0005800002055534152527800005C00002004
:1013F000513B000861400008693F0008BC01002023
:1014000094010020140000205553415254780000EC
:10141000A801002010B5032124A0FFF7A5FD00249A
:1014200041E02948006800EB44104069C8B32648F1
:10143000006800EB4410C079012806D0022817D0BC
:1014400003280ED004282BD11EE01F4A126802EB9D
:101450004412107F1C4A126802EB441251698847FB
:101460001EE01949096801EB44114869804717E0FB
:10147000154A126802EB4412D069134A126802EB53
:101480004412516988470BE00F4A126802EB44127C
:10149000D0690D4A126802EB44125169884700BFB7
:1014A00000BF601CC4B20A2CBBDB10BD546F73209C
:1014B00044657669636520496E69742E2E2E2E2E42
:1014C0002E2E2E2E2E0000005C0000200146FF294B
:1014D00001D1002070470548006800EB41104069C9
:1014E00008B90020F6E70120F4E700005C000020C6
:1014F00000200149086070479C00002000B50320CF
:1015000000F010FA064908600846006882B24FF4FD
:101510008871044800F07EFD032000F0E7FE00BD66
:10152000980000207C9E0020012000F003F800F0CD
:10153000F5FB0000014908607047000014040140F9
:1015400070B504460025107820B116782068B0FBED
:10155000F6F085B22068084420601078984203DADB
:101560001078401C107002E02068401B2060167844
:101570002068B0FBF6F080B270BD2DE9F041024664
:1015800000250026002000230024002791F803C036
:101590000CF00F0591F803C01CF0100F03D091F868
:1015A00002C04CEA050591F800C0BCF1000F31D033
:1015B000146800202BE04FF0010C0CFA00F3B1F896
:1015C00000C00CEA03069E4220D183004FF00F0CAE
:1015D0000CFA03F7BC4305FA03FC4CEA040491F847
:1015E00003C0BCF1280F06D14FF0010C0CFA00FC2F
:1015F000C2F814C00AE091F803C0BCF1480F05D14D
:101600004FF0010C0CFA00FCC2F810C0401C082876
:10161000D1D31460B1F800C0BCF1FF0F34DD5468C1
:1016200000202EE000F1080C4FF0010808FA0CF33E
:10163000B1F800C00CEA03069E4221D183004FF0AE
:101640000F0C0CFA03F7BC4305FA03FC4CEA040444
:1016500091F803C0BCF1280F05D100F1080C08FA7D
:101660000CF8C2F8148091F803C0BCF1480F07D100
:1016700000F1080C4FF0010808FA0CF8C2F81080CD
:10168000401C0828CED35460BDE8F08138B504462C
:1016900036E01D4A6068811A904217D009DC1B4968
:1016A00040180DD0B0F5806F0CD0B0F5006F13D19D
:1016B0000AE0B1F5806F0BD0B1F5006F0CD109E0F5
:1016C000042509E0082507E0102505E0202503E0B2
:1016D000402501E0802500BF00BF45F00100012149
:1016E00000F002FD20788DF802002089ADF800009E
:1016F00060788DF8030069466068FFF73EFF0C34A0
:1017000020780028C5D138BD0014014000F8FEBF84
:10171000F0B50A46002300240021002500F0004611
:10172000B6F1004F02D11D4EF16901E01B4E716808
:10173000C0F3034583B200F44016B6F5401F08D14C
:1017400021F07061154E766826F07066134F7E604A
:1017500012E000F48016B6F5801F06D1032606FAC3
:1017600005F4A14341F0706106E0460D360103FA2D
:1017700006F6B14341F0706122B1460D360103FA1D
:1017800006F6314300F00046B6F1004F02D1034E99
:10179000F16101E0014E7160F0BD00000000014008
:1017A0000246002093680B4201D0012000E0002097
:1017B0007047416170471FB51C462CB1BDF8081039
:1017C000019800F02FF804E0BDF808100198FFF729
:1017D000F0FF1FBD2DE9F041054610480068104993
:1017E000097800EB4110C669002412E004EB4400C4
:1017F00016F8200000B90EE005F0010304EB4400E8
:1018000006EB800797E80700FFF7D5FF6D08601C1F
:10181000C4B2FF2CEADB00BFBDE8F0815C00002011
:1018200028000020016170472DE9F04104460D4673
:10183000084800680849097800EB4110C66904EBC4
:10184000440006EB80072B4697E80700FFF7B3FF3D
:10185000BDE8F0815C00002028000020F0B50446BF
:101860000A46002300200025214633E00E78252E6D
:1018700002D10125461CB0B2012D2AD10E78642E6A
:1018800006D1AC461E465F1CBBB202F806C000255E
:101890000E78662E07D14FF0020C1E465F1CBBB2BD
:1018A00002F806C000250E78732E07D14FF0030C06
:1018B0001E465F1CBBB202F806C000250E78632EE0
:1018C00007D14FF0040C1E465F1CBBB202F806C0E5
:1018D0000025491C0E78002EC8D1F0BD2DE9F0413D
:1018E00005460C462146284600F072FE0646601C5E
:1018F000C1B2284600F06CFE074607EB0620BDE8A3
:10190000F081000001460548006880B200EBC1008C
:10191000001D034A32F8100080B27047505C00404E
:101920000060004001460648006880B200EBC1003C
:10193000801D044A32F81000C0F30900704700000F
:10194000505C00400060004001460548006880B2DD
:1019500000EBC100034A32F8100080B2704700006B
:10196000505C0040006000400FB438B5044606A843
:1019700000902046009A059902F0F8FD00200090A2
:10198000204600F004F8C0B238BC5DF814FB10B576
:10199000014600200A4601E0431C98B212F8014BB0
:1019A000002CF9D110BD000010B5114B18681B1D9B
:1019B00019681B1D1A684FF0FF3001460246A8B196
:1019C0000C4CA070030A2371030CA371030E237245
:1019D000A1720B0A23730B0CA3730B0E2374A27456
:1019E000130A2375130CA375130E237610BD000084
:1019F000E8F7FF1F7E00002001E000F08FF9FCE710
:101A0000322000BF0100A0F1010290B2FAD170476C
:101A100007B582B0BDF81000ADF8040048208DF87D
:101A2000070002208DF8060001A90398FFF7A5FD25
:101A300005B000BD07B582B0BDF81000ADF80400D8
:101A400010208DF8070002208DF8060001A90398E8
:101A5000FFF793FD05B000BD70B504460025A18ACF
:101A60002069FFF7DFFED4E90412E068FFF7D0FF3A
:101A700021896068FFF7D6FE0A20FFF7C1FFA18A1F
:101A80002069FFF78DFE05430A20FFF7B9FF218982
:101A90006068FFF78EFED4E90412E068FFF7CAFF22
:101AA000284670BD70B504460025D4E90412E068EC
:101AB000FFF7AEFFA18A2069FFF7B4FE002618E009
:101AC0006806050E21896068FFF7ACFE0A20FFF763
:101AD00097FFA18A2069FFF763FE08B1681CC5B2B1
:101AE00021896068FFF765FE0A20FFF789FF701CF7
:101AF000C6B2082EE4DBD4E90412E068FFF79AFFCF
:101B0000284670BD70B504460D4625B1A18A2069EE
:101B1000FFF788FE03E0A18A2069FFF74AFE2189CA
:101B20006068FFF77FFE0A20FFF76AFF218960687F
:101B3000FFF73FFE0A20FFF763FFA18A2069FFF746
:101B400071FE70BD70B504460D46002620E015F00C
:101B5000800F04D0A18A2069FFF764FE03E0A18A08
:101B60002069FFF726FE0A20FFF74AFF21896068F7
:101B7000FFF758FE0A20FFF743FF21896068FFF74F
:101B800018FE0A20FFF73CFF6806050E701CC6B25F
:101B9000082EDCDB2046FFF75FFF70BD10B5044662
:101BA000A18A2069FFF73EFE21896068FFF73AFEAF
:101BB0000A20FFF725FFA18A2069FFF7FAFD0A2016
:101BC000FFF71EFF21896068FFF7F3FD0A20FFF78A
:101BD00017FF10BD10B50446A18A2069FFF7E9FD83
:101BE00021896068FFF71EFE0A20FFF709FFA18A1E
:101BF0002069FFF717FE1E20FFF702FF21896068AA
:101C0000FFF7D7FD1420FFF7FBFE10BD10B545F21E
:101C1000555000F029F8062000F01AF84FF47F60C4
:101C200000F01CF800F00CF800F002F810BD000005
:101C30004CF6CC400149086070470000003000407D
:101C40004AF6AA20014908607047000000300040B1
:101C50000149486070470000003000400149886039
:101C600070470000003000400149086070470000E4
:101C70000030004010B518480068047A022C01D0EA
:101C8000042C05D1FEF76CFF13480068047A1CE0B1
:101C9000062C19D110480068407805280ED10E484E
:101CA0000068007810F07F0F08D10B490968C878E8
:101CB00000F0ACFA09490968086A804708490968D0
:101CC00088688047082400E00824034909680C72EA
:101CD00000F0B6F910BD00007C0100208801002052
:101CE0008001002010B5044600226B21204600F040
:101CF00097FC07221921204600F092FC06221A21A7
:101D0000204600F08DFC18221B21204600F088FCA4
:101D100001221C21204600F083FC10BD71B600BFDB
:101D20000648006800F4E06005490843001D0349C7
:101D30000860BFF3408F00BF00BFFEE70CED00E07E
:101D40000000FA0510B504462046FFF79FFC10BDC1
:101D500000BFFEE702460A4B1868002106E0A2F128
:101D60000803834200D107E0014600680368002BA6
:101D7000F5D101B10B60704703680B6000BFFAE753
:101D8000600000200146A1F1080250680838704741
:101D9000054908600021044A126811600821024ABE
:101DA00012685160704700006000002010B50346C3
:101DB0001048016803F1080083B20FE00868401A78
:101DC0004C68001B984208D3486842185360086862
:101DD00010600A6002F1080010BD09680868002858
:101DE000ECD1486842180020106053600A6002F18C
:101DF0000800F1E7600000207047704770B50021CF
:101E000000230F22C4780CB3164C246804F4E06459
:101E1000C4F5E064210AC1F10403CA40447804FA1D
:101E200003F184781440214309010F4C0678A15531
:101E3000047804F01F050124AC4005786D114FF0C3
:101E4000E02606EB8505C5F8004109E0047804F0BA
:101E50001F050124AC40054D0678761145F8264053
:101E600070BD00000CED00E000E400E080E100E067
:101E700002490143024A1160704700000000FA0560
:101E80000CED00E070B502264948006844784848E7
:101E90000068007810F07F0F4AD1092C03D100F0C0
:101EA0002BFD064665E0052C14D141480068C0783A
:101EB0007F280BDC3E480068807838B93C480068D1
:101EC000808818B93A480068807A08B108256BE024
:101ED00000264EE0032C14D135480068C078012854
:101EE0000DD133480068808848B931480068407A8D
:101EF00010F0200F03D000F023FD064639E0022643
:101F000037E0012C35D12A480068C07801280DD16E
:101F100027480068808848B925480068407A10F052
:101F2000200F03D000F09AFB064622E0022620E0B4
:101F30001F480068007800F07F00012805D10B2CB5
:101F400017D100F065FD064613E0194800680078D7
:101F500000F07F0002280BD1012C03D100F07EFBA2
:101F6000064606E0032C04D100F0FEFC064600E025
:101F700002264EB1E0B20F4A126851698847064600
:101F8000032E01D109250FE00EB108250CE006252E
:101F900000210948006880B2801C084A42F81010ED
:101FA00030200749088000BF014909680D7270BDE3
:101FB0007C01002080010020505C00400060004057
:101FC0008E01002010B511480068047A032C01D05E
:101FD000052C05D1FEF724FE0C480068047A0EE0BB
:101FE000072C05D10A490968C8688047082406E01B
:101FF000022C01D0042C01D1082400E0082403495C
:1020000009680C7200F01CF810BD00007C01002073
:1020100080010020F0B5561C7510074E06EB4104F8
:102020002B4605E034F8047B20F8017B401C5B1E46
:10203000002BF7D1F0BD00000060004070470000A9
:1020400000B50D4890F82C10002000F011F90B4855
:102050000068007A082805D140020949088010204C
:102060000849088005480068007A092801D1012044
:1020700000BD0020FCE70000EC0000207C010020F7
:102080008C0100208E01002010B5012002F016F80E
:1020900001240B48046000200A4908800846008893
:1020A000074908600020091D08604FF4E050054909
:1020B00008800846008802490860002010BD000022
:1020C000405C00408601002029B1064AD2690243E3
:1020D000044BDA6104E0034AD2698243014BDA61BE
:1020E000704700000010024029B1064A926902437D
:1020F000044B9A6104E0034A92698243014B9A615E
:10210000704700000010024030B50021002200247A
:1021100000232D4D6D6805F00C0121B1042905D077
:10212000082923D105E0294D056022E0274D0560EF
:102130001FE0254D6D6805F47012234D6D6805F4A0
:102140008034022505EB92421CB9214D55430560B0
:102150000BE01D4D6D6815F4003F03D01C4D554339
:10216000056002E0194D5543056002E0174D05601A
:1021700000BF00BF144D6D6805F0F0010909154D51
:102180006B5C0568DD4045600F4D6D6805F4E061EE
:10219000090A104D6B5C4568DD4085600A4D6D682D
:1021A00005F46051C90A0B4D6B5C4568DD40C560A4
:1021B000054D6D6805F44041890B074D6B5CC568A2
:1021C000B5FBF3F5056130BD0010024000127A0046
:1021D00000093D00000000201000002001490860B7
:1021E00070470000D800424210B501210148FFF7B6
:1021F0008FFA10BD00023000704700004FF6F871F2
:102200000140014A11607047505C004030B5014602
:102210000C4B1A7800200DE0C3B20B4C54F823305D
:1022200048F68F742340C4B22343C4B2064D45F828
:102230002430401C9042EFD341F08003024C4C34D8
:10224000236030BDE8000020005C004010B54A105B
:102250005300054A126892B202EBC002121D034CF1
:1022600044F8123010BD0000505C00400060004097
:1022700010B502460F48006880B200EBC200801D16
:102280000D4C04EB40033E290BDD481111F01F0FEC
:1022900001D1441EA0B24FF4004444EA80241C60E3
:1022A00007E0481011F0010F01D0441CA0B28402D5
:1022B0001C6010BD505C00400060004010B50A4B2F
:1022C00053F820304BF68F7403EA040211F4805F58
:1022D00001D082F4805211F4005F01D082F40052E8
:1022E000014B43F8202010BD005C0040074A52F823
:1022F00020204BF68F7302EA030181F4805181F4B0
:102300000051024A42F8201070470000005C004073
:1023100010B54A105300044A126892B202EBC00290
:10232000024C44F8123010BD505C00400060004088
:10233000044A126892B202EBC002921C024B43F8AC
:1023400012107047505C00400060004010B50A4B0E
:1023500053F8203048F6BF7403EA040211F0100F5E
:1023600001D082F0100211F0200F01D082F0200283
:10237000014B43F8202010BD005C0040074A52F892
:10238000202048F6BF7302EA030181F0100181F0BA
:102390002001024A42F8201070470000005C004013
:1023A000054A52F8202048F68F131A400A43024B80
:1023B00043F8202070470000005C004010B500F09A
:1023C00001F810BD0CB50020019000903248006863
:1023D00040F480303049086000BF2F48006800F4A6
:1023E000003000900198401C0190009818B90198A5
:1023F000B0F5A06FF1D12848006810F4003F02D07A
:102400000120009001E0002000900098012842D1B6
:102410002248006840F01000204908600846006823
:1024200020F0030008600846006840F002000860E1
:10243000194840681849486008464068486008469E
:10244000406840F4806048600846406820F47C1092
:1024500048600846406840F4E81048600846006854
:1024600040F08070086000BF0B48006810F0007FEB
:10247000FAD00948406820F0030007494860084640
:10248000406840F00200486000BF0348406800F028
:102490000C000828F9D10CBD0010024000200240B9
:1024A00008B500F03DFB012144F22400FFF71CFEBB
:1024B00001210420FFF718FE4FF48070ADF80000F2
:1024C00003208DF8020014208DF8030069460E48A1
:1024D000FFF753F84FF48060ADF8000004208DF84A
:1024E000030069460848FFF748F84FF40070ADF85C
:1024F000000003208DF8020018208DF803006946C3
:102500000148FFF73AF808BD0008014010B5002067
:10251000FFF764FE0121C805FFF7D6FD10BD0000DE
:1025200008B52848006880B2001D274931F810001E
:1025300080B201EB4000009024480068007A09282E
:102540002FD0009800782149096808700098401C35
:102550000090009800781D49096848700098401C58
:1025600000900098801C0090009931F8020B0091B7
:10257000FEF72CF91549096848800098801C0090E6
:10258000009931F8020B0091FEF720F90F49096814
:1025900088800098801C0090009800880B4909688A
:1025A000C880012009490968087208480068C08885
:1025B00010B9FFF767FC01E0FEF790FBFFF740FD65
:1025C00008BD0000505C0040006000407C0100201D
:1025D0002DE9F04105460E4600242846FFF7DEFAB5
:1025E000D0212846FFF7AEFA044331462846FFF7CC
:1025F000A9FA04432846FFF7D1FAD1212846FFF76C
:10260000A1FA04432846FFF74DFA07460121284660
:10261000FFF778FA2846FFF7DDFA3846BDE8F08183
:102620002DE9F04106460F46154600243046FFF7D7
:10263000B5FAD0213046FFF785FA044339463046D3
:10264000FFF780FA044329463046FFF77BFA04433C
:102650003046FFF7BFFA2046BDE8F0812DE9F0478C
:1026600047480068007800F07F08B8F1000F0AD1F1
:1026700043480068407A00F0DF0041490968487229
:102680000020BDE8F087B8F1020F76D13C48006821
:10269000408818B93A480068007908B10220F0E78C
:1026A000DFF8E09036480068477927F080052C462F
:1026B00033480068407910F0800F05D0324850F858
:1026C000240000F0300604E02F4850F8240000F405
:1026D000405699F80000A84204D91EB12848006865
:1026E000807A08B90220CCE717F0800F0ED0264878
:1026F00050F8240000F03000102837D1E0B2FEF787
:1027000005FAE0B23021FFF721FE2FE01E4850F815
:10271000240000F44050B0F5805F27D1A4B91B4AD3
:1027200092F82C10E0B2FFF7A3FD174951F82410DE
:102730004BF68F7201EA020080F4805080F4005062
:10274000114941F8240011E0E0B2FEF7CBF90E493F
:1027500051F824104BF68F7201EA020080F4805089
:1027600080F40050084941F8240000BF0849096876
:1027700048698047002084E7FFE700BF022080E728
:102780007C010020E8000020005C0040EC000020FC
:102790008801002010B504462CB9012006490968BB
:1027A0000882002010BD0549096808688047024872
:1027B00000680A30F6E700007C0100208801002054
:1027C00010B5024606480068438A32B98888C01AA4
:1027D000034C24682082002010BD08681844FBE7E1
:1027E0007C01002010B504462CB901200649096877
:1027F0000882002010BD05490968886880470248A2
:1028000000680C30F6E700007C0100208801002001
:1028100010B504462CB9022033490968088200200B
:1028200010BD0020314908802F480068007810F062
:102830007F0F1CD12C490968487A10F0200F05D071
:102840002A49097841F00201284A117010F0400F1E
:1028500006D02649097801F0FE01244A117005E0EE
:102860002249097841F00101204A117036E01E48E2
:102870000068007800F07F00012801D11B48CFE7F5
:1028800019480068007800F07F00022824D1164A19
:102890001268517901F00F0011F0800F0DD0144A29
:1028A00052F8202002F03002102A14D10F4A127878
:1028B00042F001020D4B1A700DE00D4A52F8202033
:1028C00002F44052B2F5805F05D1084A127842F016
:1028D0000102064B1A7001E00020A1E705490968D2
:1028E0000869804701489BE77C01002076010020B1
:1028F000005C00408801002010B50E480068C078D8
:102900000D494978884213DC0A480068807878B914
:1029100008480068808858B906480068C0780549AA
:10292000096888720549096848688047002010BD19
:102930000220FCE77C010020E80000208801002044
:1029400010B507480068407A40F020000449096843
:10295000487204490968C8698047002010BD00001A
:102960007C010020880100202DE9F0412448006806
:10297000467926F080073C4621480068407910F0EF
:10298000800F05D01F4850F8240000F0300504E007
:102990001C4850F8240000F440551B480078A04221
:1029A00008D917480068408820B91DB1144800684C
:1029B000807A10B90220BDE8F08116F0800F0CD0AB
:1029C000104951F8241048F6BF7201EA020080F065
:1029D00010000C4941F824000CE00A4951F8241079
:1029E0004BF68F7201EA020080F48050054941F8ED
:1029F000240000BF05490968886980470020DAE79C
:102A00007C010020005C0040E800002088010020DC
:102A100010B5174B1B68D978154B1B685879154BA7
:102A20001B689A699047044611480068807AE8B1AB
:102A30003CB90F480068007918B90D4800688078E3
:102A400008B1022010BD8CB90B490968C8688047DD
:102A500007480068407906490968C8720448006858
:102A6000C0780349096808730020EBE70220E9E712
:102A70007C01002080010020880100202DE9F04128
:102A800006460D462C4637462846FEF780FF04448E
:102A90003046FEF77CFF804618F1010001D1BDE809
:102AA000F08103E017F8010B04F8010B5FEA08005E
:102AB000A8F10108F6D104F8010B00BFEFE710B54B
:102AC00000F09EFA10BD000030B51249B1F1807FD0
:102AD00000D31DE021F07F40401E4FF0E022506106
:102AE00050170F22002807DA13071D0E0A4B00F0BB
:102AF0000F04241F1D5503E013071C0E074B1C5425
:102B000000BF00204FF0E02290610720106100BF5D
:102B100030BD00004019010018ED00E000E400E0C5
:102B200010B51348006840F00100114908600846DC
:102B30004068104908400E494860084600680E4940
:102B400008400B4908600846006820F480200860AF
:102B50000846406820F4FE0048604FF41F0088607B
:102B6000FFF72CFC4FF000600449086010BD000026
:102B7000001002400000FFF8FFFFF6FE08ED00E045
:102B80000EB50020009001900290FFF72DFB4FF64C
:102B9000FF70FEF71FFE1CE000210420FEF744FE3C
:102BA000282000F01FFB01210420FEF73DFE6420D9
:102BB00000F018FB00210420FEF736FE282000F06C
:102BC00011FB01210420FEF72FFE4FF47A7000F074
:102BD00009FBE1E79CB004210DA0FEF7C5F90EA0AA
:102BE000062100220E4BCDE900100EA103A8FEF72E
:102BF000BBFE0CE04FF47A7000F0F4FA4FF47A70F8
:102C000000F0F0FA042203A915A0FEF7ADF9F1E7F0
:102C100073746172740000007472746F730000004A
:102C2000000028407B53656E736F72446174613A93
:102C30005B7B2756616C756531273A252E32667DA0
:102C40002C7B2756616C756532273A25647D2C7B79
:102C50002756616C756532273A25737D5D7D0000CE
:102C6000257300008046B8F1000F02D008F0FF0580
:102C700000E00A25E800FFF799F8814605EB4501D9
:102C80008800FFF793F88246002608E006EB46002E
:102C90000AEB800009EBC6014860701CC6B2AE4268
:102CA000F4DB2946484600F06DFA144800781449D0
:102CB000087021E00A2000F095FA00F029FB074691
:102CC000D7B17C682079012806D0022807D00328D4
:102CD00009D004280FD10AE0206880470BE0207A51
:102CE0002168884707E02168A068884703E02168D9
:102CF000A068884700BF00BFDCE700004800002054
:102D0000700000209AB019E00A2000F06BFA6421EC
:102D100001A8FDF70FFF01A801F0D2FB04466CB13A
:102D20009DF8040050B19DF804008DF801006B4639
:102D3000032201210248007800F020FBE4E70000B4
:102D400078000020FFF7ACFBFFF7E0FB01F0E6F9AD
:102D500001F0C6F90348FEF7CDF902E0642000F067
:102D600041FAFBE7D94100082348FEF7EBFF224870
:102D7000FEF7B8FF3EE0642000F034FA3B211E4825
:102D8000FEF7ACFD0446002221461CA0FEF7ECF83D
:102D90003D211948FEF7A2FD0446002221461CA051
:102DA000FEF7E2F83F211448FEF798FD04460022A2
:102DB00021461CA0FEF7D8F843210F48FEF78EFDF0
:102DC0000446002221461CA0FEF7CEF845210A4801
:102DD000FEF784FD0446002221461BA0FEF7C4F83E
:102DE00047210548FEF77AFD0446002221461AA035
:102DF000FEF7BAF8BFE700003C4F000841434345E7
:102E00004C5F584F55545F485B25645D00000000DF
:102E1000414343454C5F594F55545F485B25645DC2
:102E200000000000414343454C5F5A4F55545F48F2
:102E30005B25645D000000004759524F5F584F55B5
:102E4000545F485B25645D004759524F5F594F55A9
:102E5000545F485B25645D004759524F5F5A4F5598
:102E6000545F485B25645D0010B510480078132856
:102E700004D00F480078401C0D4908700D480078B8
:102E8000401C0C4908700846007864280DDD0020BD
:102E900008701423084A064801780848FEF750FBDA
:102EA0000749087000200249087010BD4800002042
:102EB000340000202C0000202D00002030000020D5
:102EC0004000002010B54FF47070FEF76FFF1E49F0
:102ED000086002201D49487000204860002428E056
:102EE000012004EB4401184A126802EB0111088129
:102EF000002004EB4401144A126802EB01118861BE
:102F0000002104EB4400104A126802EB001001603B
:102F1000002004EB44010C4A126802EB0111C86165
:102F200004EB4401084A126802EB01110884601C9A
:102F3000C4B2142CD4DB13200549087000200549C5
:102F400008600549086010BD5000002040000020C6
:102F500048000020540000206400002070B50446A2
:102F6000FFF7B0FF04E094E80F0000F0D9F8103448
:102F700020680028F7D100F02BF870BDFEF74AFA60
:102F8000FEF744FE06E0FEF75BFE642000F02AF93F
:102F900000F002F8F7E7000010B50C48046804B927
:102FA00010BD0EE02468A07A10F0010F09D0A07ABD
:102FB00010F0020F05D0E0688047A07A20F00200F0
:102FC000A07220680028EDD100BFE9E7640000206E
:102FD00008B5FFF779FD4FF4FA6005A30022074911
:102FE0000090132000F034F8132000F0E5FA08BD3B
:102FF0005461736B526F6F74000000007D2F0008E6
:1030000010B5FFF731FF00F0FBF908484078402881
:1030100005D1032106A0FDF7A7FFFEF77FFE0B48B1
:10302000006808B100F0C2FB10BD000040000020A5
:103030005461736B2054696D654F75742057696CCA
:103040006C20544F53205265736574006400002057
:103050002DE9F04704460D4691461F46DDF82080D5
:103060000DB9BDE8F08704EB44002C49096801EB79
:1030700000100089012800D0F3E704EB4400274941
:10308000096801EB0010008C98B91FFA88F0FEF770
:103090008DFE064604EB4401204A126802EB011142
:1030A000A1F8208004EB44011C4A126802EB0111D4
:1030B000CE6104EB4402194B1B6803EB0212118C26
:1030C00004EB4402154B1B6803EB0212D06900F0BD
:1030D00039FB8246022104EB4400104A126802EBDD
:1030E0000010018104EB44000C49096801EB001059
:1030F000456004EB44000949096801EB0010C76210
:103100004A462946504600F01FFA04EB4401034AA0
:10311000126802EB0111086000BFA2E75000002016
:103120002DE9F84305460E461746984600241AE056
:1031300004EB44001249096801EB0010008900B952
:1031400012E004EB44000E49096801EB001000890D
:10315000012800D108E0601C80B20446142802DB7C
:103160000020BDE8F883E3E700BFE0B23B4632460B
:103170002946CDF80080FFF76BFF0120F1E7000042
:103180005000002010B5154A127802EB4202144B91
:103190001B6803EB02129062104A127802EB4202A3
:1031A0000F4B1B6803EB021282F8231000220B4B1B
:1031B0001B7803EB43030A4C246804EB031383F8E6
:1031C00024200023054A127802EB4202044C2468B2
:1031D00004EB021282F8253010BD000048000020E8
:1031E0005000002010B504461348407801281FD035
:1031F00000201249097801EB4101114A126802EBE3
:10320000011188610D48007800EB40000C49096805
:1032100001EB0010446110210848007800EB4000E9
:10322000074A126802EB0010018100F03BFA02E04D
:103230002046FDF7ABFA10BD4000002048000020FA
:103240005000002001460D48006800EB4110007A54
:1032500008B9002070470948006800EB4110407928
:10326000074A1278904201D00020F3E70120034A78
:10327000126802EB4112107200BFEBE75C00002005
:103280004800002070B504460D4600BF1E48006887
:1032900000EB4410007A30B1012815D0022804D088
:1032A00003282FD11FE0002070BD1748006800EBF5
:1032B0004410407915490978884201D10120F3E78B
:1032C000204600F09DFAE1E702200F49096801EB72
:1032D000441108720D4800780B49096801EB44114C
:1032E00048710120E0E702200749096801EB441119
:1032F0000872064800780449096801EB44114871D6
:103300000120D1E70020CFE75C000020480000202A
:1033100070B51848007800EB40001749096801EBC8
:103320000014A06A08B9002070BD94F8250018B9EF
:103330001048007800F052F994F8250008B90020F0
:10334000F2E704F12304D4F80500617800EBC1052D
:10335000607800F10100217890FBF1F201FB12008E
:103360006070A078A0F10100A070A4F123042846A9
:10337000DAE7000048000020500000202DE9F04767
:103380000646884691469A46142E01DBBDE8F08732
:1033900006EB46001949096801EB0014A06A00B960
:1033A000F4E794F8250094F82310884220DA04F119
:1033B00023046078A1780844217890FBF1F201FBA6
:1033C0001200C7B214F82309B84200DCDEE7A06A95
:1033D00000EBC70585F800804A4650466968FDF74E
:1033E000E2F985F8019094F82500401C84F8250046
:1033F000304600F065F800BFC8E70000500000202C
:10340000002056E000EB40012B4A126802EB01114C
:103410000989022902D0102947D11DE000EB4001A3
:10342000254A126802EB01118969491C00EB400230
:10343000214B1B6803EB0212916100EB40011E4A15
:10344000126802EB0111896944F62062914202D9A7
:1034500040211A4A517029E0002100EB4002164B2E
:103460001B6803EB0212916100EB4001124A1268E3
:1034700002EB0111496941B9022100EB40020E4BF8
:103480001B6803EB021211810EE000EB40010A4AB7
:10349000126802EB01114969491E00EB4002064B1C
:1034A0001B6803EB0212516100E000BF00BF411C2A
:1034B000C8B21428A6DB704750000020400000204E
:1034C000142800DB704700EB4001094A126802EB48
:1034D00001110989012900D1F4E7102100EB400214
:1034E000034B1B6803EB0212118100BFEAE70000E7
:1034F0005000002010B504460F480078A04200D1CB
:1035000010BD0D48007800EB40000C49096801EB44
:1035100000100B49086008480470007800EB400078
:103520000649096801EB0010006806490860FDF7CC
:1035300005F900BFE4E7000048000020500000202B
:103540003C0000203800002030B503461846041F18
:1035500020462160041F204623600025041F2046CA
:103560002560041F20462560041F20462560041F97
:1035700020462560041F20462560041F2046256044
:10358000041F20462560041F20462560041F204696
:103590002560041F20462560041F20462560041F67
:1035A00020462560041F204622604FF08075041FCE
:1035B0002046256030BD000010B5044604EB4400F1
:1035C0000449096801EB0010006803490860FDF731
:1035D000CEF810BD500000203800002010B5044681
:1035E000142C00DB10BD04EB44000E49096801EB0C
:1035F00000100089012800D1F4E7042004EB440105
:10360000084A126802EB01110881002104EB440012
:10361000044A126802EB0010416100F043F800BF59
:10362000E0E700005000002010B50446142C01DB38
:10363000002010BD04EB44001949096801EB00109B
:103640000089012801D10020F3E704EB440014496C
:10365000096801EB00100089042801D10020E8E787
:1036600004EB44000E49096801EB001000890828AA
:1036700001D10020DDE7082004EB4401084A12686C
:1036800002EB01110881002004EB4401044A126896
:1036900002EB0111486100F005F80120C9E70000C4
:1036A0005000002010B5022123480068A0F89813AC
:1036B00000243DE004EB44001F49096801EB0010C1
:1036C0000089022802D020282ED107E01B4800786C
:1036D000A04202D02046FFF70DFF10BD04EB4400CE
:1036E0001549096801EB001090F822001449096897
:1036F00001EB4010007A012815D1102004EB4401A1
:103700000D4A126802EB01110881032004EB440109
:10371000094A126802EB011191F82210084A126856
:1037200002EB4111087200E000BF00BF601CC4B290
:10373000142CBFDB00BFD0E7500000204800002061
:103740005C0000200246501820F00303A3F1300073
:1037500020F007007047000010B5142800DB10BDF2
:1037600000EB4002104B1B6803EB02121289042A83
:1037700000D1F4E7002200EB40030B4C246804EB7B
:1037800003139A61102300EB4002074C246804EBFA
:103790000212138100EB4002034B1B6803EB021281
:1037A000516100BFDBE700005000002010B5134856
:1037B000006800B910BD11480068E0B10F4800680A
:1037C000807A10F0010F16D00C48006800890B4970
:1037D00009688988884207DB08490968C868804702
:1037E0000020064909680881044800680089401CD7
:1037F00002490968088100BFDCE70000640000207E
:1038000010B504460B48007800EB40000A490968EF
:1038100001EB001080F8224020200649097801EBD6
:103820004101054A126802EB01110881FFF73AFFD6
:1038300010BD0000480000205000002010B540F2EC
:1038400025510E4800F091FAB8B10C48001D0088CF
:10385000C4B20B48C0880B49C98888420DDA0848B1
:10386000C188C088401C064AD0800748C0684454BC
:103870000649C8780A21FFF76FFF10BD004C0040D1
:10388000C6010020BC01002094010020230000207C
:1038900010B540F225510E4800F067FAB0B10C485F
:1038A0008088C4B20B4800890B49098988420DDA27
:1038B000084801890089401C064A108107480069B0
:1038C0004454074908790A21FFF746FF10BD00005C
:1038D00000500040C6010020BC01002094010020DF
:1038E0002300002010B540F225510E4800F03DFAAB
:1038F000B8B10C48001D0088C4B20B4800880B49C1
:10390000098888420DDA084801880088401C064A68
:103910001080074800684454064908780A21FFF7D8
:103920001BFF10BD00380140C6010020BC01002073
:10393000940100202300002010B540F225511148C9
:1039400000F013FAC0B10F48001D0088C4B20E4841
:1039500040880E494988884213DA0B4841884088DC
:10396000401C094A50800A48406844540949487834
:103970000A21FFF7F1FE04E040F22551014800F072
:1039800044F810BD00440040C6010020BC010020E6
:10399000940100202300002010B540F22551114869
:1039A00000F0E3F9C0B10F48001D0088C4B20E4812
:1039B00080880E498988884213DA0B48818880887C
:1039C000401C094A90800A48806844540949887814
:1039D0000A21FFF7C1FE04E040F22551014800F042
:1039E00014F810BD00480040C6010020BC010020B2
:1039F000940100202300002001F40072B2F5007F42
:103A000000D100BFCA430280704710B500220023D6
:103A1000A1F510646A3C00D100BF0A120124944051
:103A2000A3B2DC43048010BD21B1828942F400526C
:103A3000828104E082894DF6FF731A4082817047CB
:103A400010B53148007920B1012806D002280ED1E6
:103A500008E000202D49C8800DE04FF440502B496C
:103A6000C88008E04FF400502849C88003E000F007
:103A700051F8002010BD00BF2348407920B1012833
:103A800006D002280ED108E00020204908810DE070
:103A90004FF480601D49088108E04FF4C0601B4965
:103AA000088103E000F036F80020E3E700BF164885
:103AB0008079072802D0082810D103E0002013499C
:103AC00088800FE01148008918B900200F498880CC
:103AD00003E04FF480500D49888003E000F01AF8AD
:103AE0000020C7E700BF08480068084908600020B8
:103AF00088810C204881064800F0CAF90121044859
:103B0000FFF792FF0120B5E7E00000202C9E002087
:103B10000038014010B54FF416500B4908600020E2
:103B20008880C8804FF4C0600881002088810C2004
:103B30004881064800F0ACF9012240F225510348C3
:103B400000F080F910BD00002C9E002000380140DC
:103B500070B50446204600F057F9054600F076F8A7
:103B6000062C2ED2DFE804F0030A11181F262522A6
:103B70004FF4E131144800F031F822E026224FF4EE
:103B8000E131124800F02AF81BE027224FF4E1311E
:103B90000F4800F023F814E027224FF4E1310C48DD
:103BA00000F01CF80DE034224FF4E131094800F038
:103BB00015F806E035224FF4E131074800F00EF821
:103BC00000BF00BF70BD000000380140004400404D
:103BD00000480040004C00400050004070B586B0E6
:103BE00006460C46154601940020ADF80800ADF8D5
:103BF0000A00ADF80C00ADF810000C20ADF80E0076
:103C000001A9304600F044F9012240F22551304626
:103C100000F018F901213046FFF706FF4021304639
:103C2000FFF7EAFE4FF48060FEF722F98DF814509A
:103C300002208DF8150001208DF816008DF8170070
:103C400005A8FEF7DBF806B070BD000038B50446E5
:103C5000274884420BD10D202315264A5115009088
:103C6000104600F057F801218803FEF73DFA22487C
:103C700084420BD1042008231E4A014600901046BE
:103C800000F048F801214804FEF71EFA1B48844260
:103C90000FD10920E3141A4A11150090104600F0C4
:103CA00039F801218804FEF70FFA01218804FEF794
:103CB0001BFA144884420BD11120E314124A111547
:103CC0000090104600F026F80121C804FEF7FCF928
:103CD0000E4884420BD1312004230D4A91140090E8
:103CE000094800F017F801210805FEF7EDF938BD85
:103CF00000380140000801400044004000480040F6
:103D0000000C0140004C00400010014000500040F9
:103D1000001401402DE9F84307460D4616461C469F
:103D2000DDF8208001214046FEF7DEF9ADF80050B5
:103D300003208DF8020018208DF8030069463846EC
:103D4000FDF71BFCADF8004004208DF80300694628
:103D50003046FDF712FC29463846FDF763FD214643
:103D60003046FDF75FFDBDE8F88370B502460024DC
:103D7000002300250020A1F510666A3E00D100BF97
:103D8000C1F3421501F01F03012606FA03F3012DCA
:103D900002D19689334006E0022D02D1168A3340C3
:103DA00001E0968A33400C12012606FA04F41688C4
:103DB000344013B10CB1012000E0002070BD0000C0
:103DC00001460F4A881A914213D006DC0D480818A4
:103DD0000BD0B0F5806F10D109E0B0F5806F0AD03C
:103DE000B0F56C4F09D1002070470120FCE702209C
:103DF000FAE70320F8E70420F6E70020F4E70000E4
:103E0000004C004000BCFFBF014605290ED2DFE890
:103E100001F0030507090B00054870470548FCE75A
:103E20000548FAE70548F8E70548F6E70020F4E713
:103E3000003801400044004000480040004C004071
:103E400000500040F0B50346002400260025002065
:103E5000A1F510676A3F00D100BF1846C1F34214B4
:103E600001F01F06012707FA06F5012C01D10C30DD
:103E700004E0022C01D1103000E014301AB10768C0
:103E80002F43076002E00768AF430760F0BD000002
:103E90002DE9F04786B005460E460024A24600BF35
:103EA000A1460027B08900B100BF2F462C8A4CF6EE
:103EB000FF700440F08804432C82AC894EF6F31066
:103EC0000440B08831890843718908430443AC81B8
:103ED000AC8A4FF6FF400440B0890443AC8201A88D
:103EE000FEF712F91F48874202D1DDF810A001E069
:103EF000DDF80CA0A88910F4004F08D00AEBCA0026
:103F000000EB0A1031684900B0FBF1F807E00AEB5A
:103F1000CA0000EB0A1031688900B0FBF1F8642098
:103F2000B8FBF0F004012009642101FB1089A88985
:103F300010F4004F08D0322000EBC900B0FBF1F0C4
:103F400000F00700044308E0322000EB0910642170
:103F5000B0FBF1F000F00F0004432C8106B0BDE887
:103F6000F0870000003801402DE9F05F05460E465D
:103F700014462F46B046A1463846FFF721FF824639
:103F8000084951F82A00FDF7FDFE1FFA80FB0023C7
:103F90005A464146384600F007F8A9F80000BDE847
:103FA000F09F0000940100202DE9F04781460F4664
:103FB00015461E464846FFF703FF04462249085DA2
:103FC0000021FFF75FF98246204951F82400FDF7F0
:103FD000D9FE8046BAF1000F27D0012240F22551C8
:103FE0004846FFF72FFF1A4800781A4908554545FB
:103FF00001D31FFA88F5184820F8145000201749FB
:1040000021F814001EB13046FFF7ECF803E0114927
:10401000085DFFF709FB0C49085DFFF713F9002263
:1040200040F225514846FFF70DFF47B10B4931F8E3
:104030001420064951F824003946FCF7B4FB074820
:1040400030F81400BDE8F08719000020940100202A
:104050004800002023000020BC010020C6010020F1
:104060002DE9F04304460D4616462746A846B6F805
:1040700000904A464146384600F002F8BDE8F08319
:1040800010B50B46002108E000BF048814F0800F33
:10409000FBD05C5C84804C1CA1B29142F4DB034CED
:1040A000A04201D14C1CA1B210BD00000044004050
:1040B00010B54FF48020FDF73DFA10BD10B5044651
:1040C0002CB14FF480710548FDF773FB04E04FF409
:1040D00080710248FDF7A6FB10BD000000080140FA
:1040E00010B50848084908600220096808720748A6
:1040F00007490860074808490860054909680868D1
:10410000804710BD109E00207C010020EC000020A4
:10411000800100201C0100208801002008B54FF418
:10412000C060FDF7A5FE14208DF8000000208DF87A
:1041300001008DF8020001208DF803006846FDF7AC
:104140005DFE25208DF8000001208DF801006846F5
:10415000FDF754FE08BD000010B517480068174968
:1041600008800846008800F48060154909880842E4
:1041700006D04FF6FF301049086012494868804762
:104180000E48008800F400700D490988084208D0E4
:104190004FF6FF50084908600B480078401C0A4958
:1041A00008700648008800F4004005490988084264
:1041B00001D0FCF711FB10BD445C004090010020D1
:1041C00086010020EC000020A000002010B5FFF7C1
:1041D000C3FF10BD00BFFEE770B504460D4629467B
:1041E000204600F08DF970BDF0B5144604F1010CC5
:1041F0004FEA6C07DFF824C00CEB41033D460AE0B0
:104200000678401C90F800C046EA0C2223F8022BE6
:104210009B1C401C6D1E002DF2D1F0BD00600040C3
:1042200070B504460025212C08D11248006800789A
:1042300000F07F0021280ED10F4D0CE0202C0AD178
:104240000C480068007800F07F00212800D10B4D59
:1042500020200B4908700DB9022070BD0548006888
:10426000856100210348006841820020A8470020A2
:10427000F3E700007C010020AD4200083D44000847
:10428000DC00002010B5044602492046FEF798FAEB
:1042900010BD00004801002010B504460249204628
:1042A000FEF78EFA10BD000040010020014629B93A
:1042B0000820034A12681082002070470148FCE77A
:1042C0007C010020E000002030B50546064800686B
:1042D000C478042C01DD002030BD044800EBC4018B
:1042E0002846FEF76DFAF7E77C0100205001002018
:1042F0000246002901DD02207047012A01DD02206B
:10430000FAE70020F8E70000014608480068007856
:1043100000F07F00212807D1022901D10020704739
:10432000222901D10020FAE70220F8E77C010020D1
:1043300000B500203449096888723448C079324990
:1043400009684872002030490968C872FDF756FFB5
:104350004FF400710020FEF723F810210020FDF734
:10436000F5FF40210020FDF771FF80210020FDF7BF
:10437000CFFF0020FCF7E8FB254890F82C10002028
:10438000FDF776FF0020FDF7B1FF00210120FEF7C9
:1043900007F8C0210120FDF7BBFF20210120FDF718
:1043A000D5FF00210120FDF789FF4FF4C0610220F5
:1043B000FDF7F6FF4FF480710220FDF7A9FF002101
:1043C0000220FDF77BFF20210220FDF7BFFF002127
:1043D0000320FDF7E5FF4FF488710320FDF736FF5A
:1043E00040210320FDF744FF4FF440510320FDF727
:1043F00065FF00210320FDF7A9FF0020FDF706FF60
:1044000001200449086000BD7C0100209E4E000888
:10441000EC000020700100200348817A11B10521D1
:10442000024A116070470000109E002070010020B9
:10443000042001490860704770010020014629B935
:104440000820034A12681082002070470148FCE7E8
:104450007C010020E000002010B5054800782028ED
:1044600004D1FFF7EDFA00200149087010BD0000EB
:10447000DC0000207047000010B5FDF795FA002021
:104480000B4909688872FDF7FFFD002009490860A3
:104490004FF4064008490880084600880549091F6E
:1044A0000860FFF737FB00200449086010BD0000DA
:1044B0007C010020445C0040860100207001002047
:1044C00070B504460B48006890B10B480068052899
:1044D0000ED10848006882B221460848FCF763F90B
:1044E00004480068C5B2002002490860284670BD33
:1044F0000020FCE798000020700100207C9E002036
:104500002DE9F04105460C46002629E002E0012095
:10451000FEF768FE144800680028F8D1402C0CDB38
:10452000A4F1400084B2A8194022C021FFF75CFE2C
:10453000402706F1400086B208E0402C06DAA819B0
:104540002246C021FFF750FE2746002439460120AD
:10455000FDF7EEFE0120FDF711FF0120FEF742FE00
:10456000002CD3D1BDE8F0819C00002037B5144663
:104570000846064B6A46214600F0C8F804466946DC
:10458000002000F066FC20463EBD0000534E0008AF
:1045900002E008C8121F08C1002AFAD1704770470C
:1045A000002001E001C1121F002AFBD1704700006A
:1045B0002DE9FF5FDDE90220010DDDF838B002438F
:1045C00010D10F9801244CA2012808D00021009896
:1045D0000F9BC0E90021C0E90243BDE8FF9F6FEADD
:1045E0000B01F4E7A1F2FF3144F6105041430D14E2
:1045F0000F9801280ED0A5EB0B00401C4FF00004D3
:104600003E4EDFF8FC90B0F1000AA04605DACAF190
:10461000000717E0CBF10000F0E7074612E0F807CB
:1046200007D02246334640464946FBF744FE8046C3
:1046300089462246334610461946FBF73CFE04469F
:104640000E467F10002FEAD1DDE90201BAF1000F1A
:1046500042464B4602DAFBF72EFE01E0FBF79DFED9
:1046600004460E460022274BFCF714F803D84FF0FF
:10467000FF30014607E00022234B20463146FBF77E
:1046800073FDFBF7EFFF102409E0002C0ADB0A2280
:104690000023FBF726FF019B30321A55641E50EAB7
:1046A0000102F2D1641C019AC4F1110314440F9A5F
:1046B000012A09D00122084301D15B450FDD4FF0EB
:1046C000000205F101050DE0084303D1A3EB0B0542
:1046D0006D1E09E000204FF0110B0F9088E701DA02
:1046E00000226D1E002A83D000980F99C0E9023184
:1046F000C0E9004571E700003000000000002440E0
:104700000000F03F0000F0430000E03F2DE9FF4FC4
:1047100095B09B4689460646002512E2252878D1A9
:104720000024761CF94A2746012105943378203B62
:1047300001FA03F0104202D00443761CF6E7307809
:104740002A2811D06FF02F033078A0F13002092A07
:1047500016D8059A44F0020402EB820203EB4202EF
:104760001044761C0590EFE759F8042B0592002AB7
:1047700003DA504244F40054059044F00204761CDD
:1047800030782E2816D116F8010F44F004042A2898
:104790000DD06FF02F023078A0F13003092B09D82B
:1047A00007EB870302EB4303C718761CF3E759F8BE
:1047B000047B761C30786C280FD006DC4C2817D090
:1047C00068280DD06A2814D104E0742810D07A2803
:1047D0000FD10DE044F400140AE044F4801401E029
:1047E00044F440147278824202D1761C04F580149D
:1047F000761C307866280BD013DC582877D009DC7B
:10480000002875D04528F6D04628F4D047281AD17C
:104810009FE118E0632835D0642879D0652812D14B
:1048200097E1702873D008DC6728F1D069286FD031
:104830006E280DD06F2806D1B5E073282CD07528CE
:1048400075D0782874D05A46179990476D1C76E138
:10485000C4F30250022809D003280DD0D9F8001063
:1048600004280DD00D6009F1040968E1D9F80010A1
:10487000EA17C1E90052F6E7D9F800100D80F2E717
:104880000D70F0E719F8041B8DF8001000208DF86A
:104890000100EA46012003E059F804AB4FF0FF3075
:1048A00061074FF0000102D40DE008F101018846D4
:1048B000B9420FDA8045F8DB1AF808100029F4D164
:1048C00008E008F1010188468142FADB1AF8081075
:1048D0000029F6D105985B46A0EB0807214638462B
:1048E000179A00F09EFA284400EB080507E04DE017
:1048F0002BE10DE01AF8010B5A4617999047B8F1D1
:104900000108F7D25B4621463846179A14E142E087
:104910000A220092C4F302524FF0000A022A08D081
:1049200059F804CB032A4FEAEC710AD00DE029E0D4
:104930002AE009F1070121F00702F2E802C19146DD
:1049400009E00FFA8CFC4FEAEC71042A03D14FFA0C
:104950008CFC4FEAEC71002907DA0A460021DCF1F1
:10496000000C61EB02012D2202E0220504D52B226E
:104970008DF80420012203E0E20701D02022F7E7AE
:10498000904653E00A2102E010220DE010214FF082
:10499000000A00910BE010224FF0000A44F00404DA
:1049A0000827009203E008224FF0000A0092C4F3A7
:1049B0000252022A05D059F804CB0021032A08D05C
:1049C00009E009F1070121F00702F2E802C191466E
:1049D00005E01FFA8CFC042A01D10CF0FF0C4FF00B
:1049E0000008220722D5702827D0009B83F01003EF
:1049F00053EA0A0309D15CEA010206D030228DF89D
:104A000004208DF8050002229046009B83F00803E5
:104A100053EA0A030AD15CEA010201D1620705D513
:104A200030228DF804204FF001087F1E582809D04D
:104A300037A003900EA8029013E040228DF80420C6
:104A40000122E1E737A0F4E753466046009AFBF7FE
:104A500048FD84460398825C0298A0F10100029010
:104A600002705CEA0100EFD1029806A9A1EB0000F8
:104A700000F1200A600702D524F4803400E0012709
:104A8000574502DDA7EB0A0000E0002000EB0A0119
:104A9000009005984144A0EB01000590E00306D486
:104AA0005B462146179A059800F0BBF9054400279C
:104AB00006E001A85A46C05D179990476D1C7F1CFF
:104AC0004745F6DBE0030CD55B462146179A05986F
:104AD00000F0A7F9054404E030205A4617999047A2
:104AE0006D1C0099481E00900029F5DC08E0029832
:104AF00002995A460078491C0291179990476D1CFB
:104B0000BAF10001AAF1010AF1DC6BE10928010008
:104B10003031323334353637383961626364656633
:104B200000000000303132333435363738394142F5
:104B3000434445460000000000F060F9054406F1DA
:104B40000106307800287FF4E9AD19B02846BDE8A9
:104B5000F08F620700D4062709F1070222F0070C44
:104B6000FCE80223E14603F000485FEA080C02D0AB
:104B70000FF27C2C0DE05FEA045C02D50FF2742C7E
:104B800007E05FEAC47C02D00FF26C2C01E0AFF2C8
:104B9000700C4FF0FF3823F00043CDF850C065286B
:104BA0000CD006DC452809D046281DD047283ED128
:104BB0003EE0662818D0672839D139E00021112F4E
:104BC00001DB112000E0781CCDE9000106A90EA848
:104BD000FFF7EEFCDDE90F010E9A03910021009230
:104BE00007F1010A04914EE04FF000400097CDE933
:104BF000011006A90EA8FFF7DBFCDDE90F02039206
:104C00000E9B11990022DDF80CA00093049219B9B3
:104C100007F1010100EB010AB7EB0A0004D4C0F16F
:104C2000FF3007F1010A0490AAEB0700019046E06B
:104C3000012F00DA01270021112F01DD112000E0F2
:104C40003846CDE9000106A90EA8FFF7B1FCDDE961
:104C50000F010E9A0391002104910092BA46210798
:104C60000CD40399514500DA8A46BAF1010F05DDEB
:104C7000009AAAF10101515C302908D0B84202DA49
:104C800010F1040F06DA0121CDE9011017E0AAF1B5
:104C90000101E9E7002805DC049901440491AAEB2D
:104CA000000102E0411C514500DD8A460499A0EB59
:104CB000010000F1010001904FF000400290200738
:104CC00004D40198504501DBCDF8048000208DF814
:104CD0004F0002980DF14F07B0F1004F25D02B2067
:104CE0000E9002984FF0020800280CDA4042029021
:104CF0002D200E9007E00A210298FBF7DCFB3031F3
:104D0000029007F8011DB8F10001A8F10108F2DCDA
:104D100002980028EFD1791E0E980870307800F0C4
:104D2000200040F0450007F8020D12A8A0EB070094
:104D300000F107081498007800B1012000EB0A0187
:104D4000019801EBE07105984144A0EB0100A0F14E
:104D500001000590E00306D45B462146179A0598AA
:104D600000F05FF805441498007820B15A4617996E
:104D7000904705F10105E00323D55B462146179ACC
:104D8000059800F04EF805441BE00498002807DB66
:104D9000DDE90301884203DD0098405C179901E0DA
:104DA000179930205A46904704986D1C401C049077
:104DB0000198401E019004D12E205A461799904721
:104DC0006D1CBAF10001AAF1010ADEDC05E017F85A
:104DD000010B5A46179990476D1CB8F10001A8F1D4
:104DE0000108F4DC5B462146179A0598A4E600000A
:104DF0002D0000002B000000200000002DE9F041F4
:104E0000044600251E461746880405D406E03946A8
:104E10002020B04705F10105641EF8D52846BDE8FD
:104E2000F0812DE9F041044600251E469046C80356
:104E300001D5302700E02027880405D506E041464B
:104E40003846B04705F10105641EF8D52846BDE88F
:104E5000F0810A68531C0B60107070470748FCF71C
:104E600097FFFCF74FF90648FCF7F2F90548FCF705
:104E700089F90548FEF772F800BFFEE7D00100206F
:104E800000380140D04F0008604F000812010002B6
:104E9000020000408304405700020102030109029E
:104EA0004300020100C032090400000102020100B7
:104EB0000524001001052401000104240202052438
:104EC000060001070582030800FF09040100020A29
:104ED00000000007050302400000070581024000B2
:104EE000040309042603530054004D0069006300C5
:104EF00072006F0065006C00650063007400720052
:104F00006F006E00690063007300320353005400A9
:104F10004D0033003200200056006900720074001A
:104F2000750061006C00200043004F004D00200020
:104F300050006F007200740020002000021000007A
:104F4000001001400080000002100000001001402D
:104F50000040000000000000000000000000000011
:104F6000812B000800000000C0500008D00700009E
:104F7000692D000800000000C0500008D0070000A4
:104F8000452D000800000000CB500008D0070000AD
:104F9000D52B000800000000C6500008D007000014
:104FA000652C000800000000DB500008D00700005E
:104FB000052D000800000000D7500008D0070000B1
:104FC00000000000000000000000000000000000E1
:104FD000021000000010014001000000021000005B
:104FE000001001400200000002100000001001400B
:104FF0000400000002100000001001400800000042
:1050000002100000000801400080000002100000B3
:10501000001001401000000000000000000000002F
:1050200000000000021000000010014000400000DD
:10503000021000000010014000800000021000007B
:1050400000100140040000000210000000100140A8
:10505000080000000210000000080140008000006D
:1050600000000000000000000000000002480000F6
:10507000001001400020000002480000000C014028
:10508000000200000248000000140140040000007B
:105090000248000000100140001000000000000065
:1050A0000000000000000000303132333435363764
:1050B00038392E2D2055504654424F48434C4E000F
:1050C0005461736B30004A736F6E00566972747569
:1050D000616C55617274004B6579005461736B5F4C
:1050E00041727261727900000851000800000020CE
:1050F00094010000E0060008A4510008940100207B
:105100002CA10000A0450008412D01020304040069
:1051100009140607080902040608023FFF5AFF4265
:10512000290613A8502A080812FF141A0353125410
:10513000124D12331232123102173013F1140C1CBB
:1051400008FB1D040A11FD245133C20112081A0480
:1051500007137944140831431B0859081A750413BE
:1051600021421B0809101AF1081A99041A85041A19
:10517000C90441324029441A19280916741A311CED
:10518000138C4E3308121A9E0832431AE008320478
:105190001AE4083226130A4F330832227E73201A8B
:0451A0002992011C33
:0400000508000131BD
:00000001FF
